{
	"data": {
		"bytecode": {
			"linkReferences": {},
			"object": "608060405234801562000010575f80fd5b5060405162003ac138038062003ac1833981810160405281019062000036919062000262565b60405180602001604052805f81525060405180602001604052805f815250815f90816200006491906200050b565b5080600190816200007691906200050b565b505050620000996200008d620000e860201b60201c565b620000ef60201b60201c565b8160085f6101000a81548173ffffffffffffffffffffffffffffffffffffffff021916908373ffffffffffffffffffffffffffffffffffffffff160217905550806009819055505050620005ef565b5f33905090565b5f60065f9054906101000a900473ffffffffffffffffffffffffffffffffffffffff1690508160065f6101000a81548173ffffffffffffffffffffffffffffffffffffffff021916908373ffffffffffffffffffffffffffffffffffffffff1602179055508173ffffffffffffffffffffffffffffffffffffffff168173ffffffffffffffffffffffffffffffffffffffff167f8be0079c531659141344cd1fd0a4f28419497f9722a3daafe3b4186f6b6457e060405160405180910390a35050565b5f80fd5b5f73ffffffffffffffffffffffffffffffffffffffff82169050919050565b5f620001e182620001b6565b9050919050565b5f620001f482620001d5565b9050919050565b6200020681620001e8565b811462000211575f80fd5b50565b5f815190506200022481620001fb565b92915050565b5f819050919050565b6200023e816200022a565b811462000249575f80fd5b50565b5f815190506200025c8162000233565b92915050565b5f80604083850312156200027b576200027a620001b2565b5b5f6200028a8582860162000214565b92505060206200029d858286016200024c565b9150509250929050565b5f81519050919050565b7f4e487b71000000000000000000000000000000000000000000000000000000005f52604160045260245ffd5b7f4e487b71000000000000000000000000000000000000000000000000000000005f52602260045260245ffd5b5f60028204905060018216806200032357607f821691505b602082108103620003395762000338620002de565b5b50919050565b5f819050815f5260205f209050919050565b5f6020601f8301049050919050565b5f82821b905092915050565b5f600883026200039d7fffffffffffffffffffffffffffffffffffffffffffffffffffffffffffffffff8262000360565b620003a9868362000360565b95508019841693508086168417925050509392505050565b5f819050919050565b5f819050919050565b5f620003f3620003ed620003e784620003c1565b620003ca565b620003c1565b9050919050565b5f819050919050565b6200040e83620003d3565b620004266200041d82620003fa565b8484546200036c565b825550505050565b5f90565b6200043c6200042e565b6200044981848462000403565b505050565b5b818110156200047057620004645f8262000432565b6001810190506200044f565b5050565b601f821115620004bf5762000489816200033f565b620004948462000351565b81016020851015620004a4578190505b620004bc620004b38562000351565b8301826200044e565b50505b505050565b5f82821c905092915050565b5f620004e15f1984600802620004c4565b1980831691505092915050565b5f620004fb8383620004d0565b9150826002028217905092915050565b6200051682620002a7565b67ffffffffffffffff811115620005325762000531620002b1565b5b6200053e82546200030b565b6200054b82828562000474565b5f60209050601f83116001811462000581575f84156200056c578287015190505b620005788582620004ee565b865550620005e7565b601f19841662000591866200033f565b5f5b82811015620005ba5784890151825560018201915060208501945060208101905062000593565b86831015620005da5784890151620005d6601f891682620004d0565b8355505b6001600288020188555050505b505050505050565b6134c480620005fd5f395ff3fe608060405234801561000f575f80fd5b50600436106101a7575f3560e01c80638da5cb5b116100f7578063d0ebdbe711610095578063e985e9c51161006f578063e985e9c5146104b5578063f2fde38b146104e5578063f6a74ed714610501578063fca247ac1461051d576101a7565b8063d0ebdbe71461044b578063da8c229e14610467578063ddf7fcb014610497576101a7565b8063a7fc7a07116100d1578063a7fc7a07146103c5578063b88d4fde146103e1578063c1a287e2146103fd578063c87b56dd1461041b576101a7565b80638da5cb5b1461036d57806395d89b411461038b578063a22cb465146103a9576101a7565b806328ed4f6c116101645780636634d7331161013e5780636634d733146102f957806370a0823114610315578063715018a614610345578063738fdd1a1461034f576101a7565b806328ed4f6c1461029157806342842e0e146102ad5780636352211e146102c9576101a7565b806301ffc9a7146101ab57806306fdde03146101db578063081812fc146101f9578063095ea7b3146102295780630e297b451461024557806323b872dd14610275575b5f80fd5b6101c560048036038101906101c091906121ec565b61054d565b6040516101d29190612231565b60405180910390f35b6101e361062e565b6040516101f091906122d4565b60405180910390f35b610213600480360381019061020e9190612327565b6106bd565b6040516102209190612391565b60405180910390f35b610243600480360381019061023e91906123d4565b6106ff565b005b61025f600480360381019061025a9190612412565b610815565b60405161026c9190612471565b60405180910390f35b61028f600480360381019061028a919061248a565b61082b565b005b6102ab60048036038101906102a691906124da565b61088b565b005b6102c760048036038101906102c2919061248a565b610a15565b005b6102e360048036038101906102de9190612327565b610a34565b6040516102f09190612391565b60405180910390f35b610313600480360381019061030e9190612644565b610a61565b005b61032f600480360381019061032a919061268b565b610aab565b60405161033c9190612471565b60405180910390f35b61034d610b5f565b005b610357610b72565b6040516103649190612711565b60405180910390f35b610375610b97565b6040516103829190612391565b60405180910390f35b610393610bbf565b6040516103a091906122d4565b60405180910390f35b6103c360048036038101906103be9190612754565b610c4f565b005b6103df60048036038101906103da919061268b565b610c65565b005b6103fb60048036038101906103f69190612792565b610d08565b005b610405610d6a565b6040516104129190612471565b60405180910390f35b61043560048036038101906104309190612327565b610d71565b60405161044291906122d4565b60405180910390f35b6104656004803603810190610460919061268b565b610dd6565b005b610481600480360381019061047c919061268b565b610e6c565b60405161048e9190612231565b60405180910390f35b61049f610e89565b6040516104ac919061282a565b60405180910390f35b6104cf60048036038101906104ca9190612843565b610e8f565b6040516104dc9190612231565b60405180910390f35b6104ff60048036038101906104fa919061268b565b610f1d565b005b61051b6004803603810190610516919061268b565b610f9f565b005b61053760048036038101906105329190612412565b611041565b6040516105449190612471565b60405180910390f35b5f7f80ac58cd000000000000000000000000000000000000000000000000000000007bffffffffffffffffffffffffffffffffffffffffffffffffffffffff1916827bffffffffffffffffffffffffffffffffffffffffffffffffffffffff1916148061061757507f5b5e139f000000000000000000000000000000000000000000000000000000007bffffffffffffffffffffffffffffffffffffffffffffffffffffffff1916827bffffffffffffffffffffffffffffffffffffffffffffffffffffffff1916145b80610627575061062682611058565b5b9050919050565b60605f805461063c906128ae565b80601f0160208091040260200160405190810160405280929190818152602001828054610668906128ae565b80156106b35780601f1061068a576101008083540402835291602001916106b3565b820191905f5260205f20905b81548152906001019060200180831161069657829003601f168201915b5050505050905090565b5f6106c7826110c1565b60045f8381526020019081526020015f205f9054906101000a900473ffffffffffffffffffffffffffffffffffffffff169050919050565b5f6107098261110c565b90508073ffffffffffffffffffffffffffffffffffffffff168373ffffffffffffffffffffffffffffffffffffffff1603610779576040517f08c379a00000000000000000000000000000000000000000000000000000000081526004016107709061294e565b60405180910390fd5b8073ffffffffffffffffffffffffffffffffffffffff16610798611190565b73ffffffffffffffffffffffffffffffffffffffff1614806107c757506107c6816107c1611190565b610e8f565b5b610806576040517f08c379a00000000000000000000000000000000000000000000000000000000081526004016107fd906129dc565b60405180910390fd5b6108108383611197565b505050565b5f6108228484845f61124d565b90509392505050565b61083c610836611190565b82611495565b61087b576040517f08c379a000000000000000000000000000000000000000000000000000000000815260040161087290612a6a565b60405180910390fd5b610886838383611529565b505050565b3073ffffffffffffffffffffffffffffffffffffffff1660085f9054906101000a900473ffffffffffffffffffffffffffffffffffffffff1673ffffffffffffffffffffffffffffffffffffffff166302571be36009546040518263ffffffff1660e01b81526004016108fe919061282a565b602060405180830381865afa158015610919573d5f803e3d5ffd5b505050506040513d601f19601f8201168201806040525081019061093d9190612a9c565b73ffffffffffffffffffffffffffffffffffffffff161461095c575f80fd5b6109663383611495565b61096e575f80fd5b60085f9054906101000a900473ffffffffffffffffffffffffffffffffffffffff1673ffffffffffffffffffffffffffffffffffffffff166306ab5923600954845f1b846040518463ffffffff1660e01b81526004016109d093929190612ac7565b6020604051808303815f875af11580156109ec573d5f803e3d5ffd5b505050506040513d601f19601f82011682018060405250810190610a109190612b26565b505050565b610a2f83838360405180602001604052805f815250610d08565b505050565b5f4260075f8481526020019081526020015f205411610a51575f80fd5b610a5a8261110c565b9050919050565b80600b9081610a709190612cef565b507fd59e7432de307c865d24dc7ec5e50a150e71f62d83ef324d7f9e737bd1963d8781604051610aa09190612e06565b60405180910390a150565b5f8073ffffffffffffffffffffffffffffffffffffffff168273ffffffffffffffffffffffffffffffffffffffff1603610b1a576040517f08c379a0000000000000000000000000000000000000000000000000000000008152600401610b1190612e96565b60405180910390fd5b60035f8373ffffffffffffffffffffffffffffffffffffffff1673ffffffffffffffffffffffffffffffffffffffff1681526020019081526020015f20549050919050565b610b67611815565b610b705f611893565b565b60085f9054906101000a900473ffffffffffffffffffffffffffffffffffffffff1681565b5f60065f9054906101000a900473ffffffffffffffffffffffffffffffffffffffff16905090565b606060018054610bce906128ae565b80601f0160208091040260200160405190810160405280929190818152602001828054610bfa906128ae565b8015610c455780601f10610c1c57610100808354040283529160200191610c45565b820191905f5260205f20905b815481529060010190602001808311610c2857829003601f168201915b5050505050905090565b610c61610c5a611190565b8383611956565b5050565b610c6d611815565b6001600a5f8373ffffffffffffffffffffffffffffffffffffffff1673ffffffffffffffffffffffffffffffffffffffff1681526020019081526020015f205f6101000a81548160ff0219169083151502179055508073ffffffffffffffffffffffffffffffffffffffff167f0a8bb31534c0ed46f380cb867bd5c803a189ced9a764e30b3a4991a9901d747460405160405180910390a250565b610d19610d13611190565b83611495565b610d58576040517f08c379a0000000000000000000000000000000000000000000000000000000008152600401610d4f90612a6a565b60405180910390fd5b610d6484848484611abd565b50505050565b6276a70081565b6060610d7c826110c1565b5f610d85611b19565b90505f815111610da35760405180602001604052805f815250610dce565b80610dad84611b2f565b604051602001610dbe929190612eee565b6040516020818303038152906040525b915050919050565b610dde611815565b60085f9054906101000a900473ffffffffffffffffffffffffffffffffffffffff1673ffffffffffffffffffffffffffffffffffffffff166354ee2090600954836040518363ffffffff1660e01b8152600401610e3c929190612f11565b5f604051808303815f87803b158015610e53575f80fd5b505af1158015610e65573d5f803e3d5ffd5b5050505050565b600a602052805f5260405f205f915054906101000a900460ff1681565b60095481565b5f60055f8473ffffffffffffffffffffffffffffffffffffffff1673ffffffffffffffffffffffffffffffffffffffff1681526020019081526020015f205f8373ffffffffffffffffffffffffffffffffffffffff1673ffffffffffffffffffffffffffffffffffffffff1681526020019081526020015f205f9054906101000a900460ff16905092915050565b610f25611815565b5f73ffffffffffffffffffffffffffffffffffffffff168173ffffffffffffffffffffffffffffffffffffffff1603610f93576040517f08c379a0000000000000000000000000000000000000000000000000000000008152600401610f8a90612fa8565b60405180910390fd5b610f9c81611893565b50565b610fa7611815565b5f600a5f8373ffffffffffffffffffffffffffffffffffffffff1673ffffffffffffffffffffffffffffffffffffffff1681526020019081526020015f205f6101000a81548160ff0219169083151502179055508073ffffffffffffffffffffffffffffffffffffffff167f33d83959be2573f5453b12eb9d43b3499bc57d96bd2f067ba44803c859e8111360405160405180910390a250565b5f61104f848484600161124d565b90509392505050565b5f7f01ffc9a7000000000000000000000000000000000000000000000000000000007bffffffffffffffffffffffffffffffffffffffffffffffffffffffff1916827bffffffffffffffffffffffffffffffffffffffffffffffffffffffff1916149050919050565b6110ca81611bf9565b611109576040517f08c379a000000000000000000000000000000000000000000000000000000000815260040161110090613010565b60405180910390fd5b50565b5f8061111783611c39565b90505f73ffffffffffffffffffffffffffffffffffffffff168173ffffffffffffffffffffffffffffffffffffffff1603611187576040517f08c379a000000000000000000000000000000000000000000000000000000000815260040161117e90613010565b60405180910390fd5b80915050919050565b5f33905090565b8160045f8381526020019081526020015f205f6101000a81548173ffffffffffffffffffffffffffffffffffffffff021916908373ffffffffffffffffffffffffffffffffffffffff160217905550808273ffffffffffffffffffffffffffffffffffffffff166112078361110c565b73ffffffffffffffffffffffffffffffffffffffff167f8c5be1e5ebec7d5bd14f71427d1e84f3dd0314c0f7b2291e5b200ac8c7c3b92560405160405180910390a45050565b5f3073ffffffffffffffffffffffffffffffffffffffff1660085f9054906101000a900473ffffffffffffffffffffffffffffffffffffffff1673ffffffffffffffffffffffffffffffffffffffff166302571be36009546040518263ffffffff1660e01b81526004016112c1919061282a565b602060405180830381865afa1580156112dc573d5f803e3d5ffd5b505050506040513d601f19601f820116820180604052508101906113009190612a9c565b73ffffffffffffffffffffffffffffffffffffffff161461131f575f80fd5b600a5f3373ffffffffffffffffffffffffffffffffffffffff1673ffffffffffffffffffffffffffffffffffffffff1681526020019081526020015f205f9054906101000a900460ff16611371575f80fd5b61137b8486611c72565b81156114255760085f9054906101000a900473ffffffffffffffffffffffffffffffffffffffff1673ffffffffffffffffffffffffffffffffffffffff166306ab5923600954875f1b876040518463ffffffff1660e01b81526004016113e393929190612ac7565b6020604051808303815f875af11580156113ff573d5f803e3d5ffd5b505050506040513d601f19601f820116820180604052508101906114239190612b26565b505b8373ffffffffffffffffffffffffffffffffffffffff16857fb3d987963d01b2f68493b4bdb130988f157ea43070d4ad840fee0466ed9370d9854261146a919061305b565b6040516114779190612471565b60405180910390a3824261148b919061305b565b9050949350505050565b5f806114a083610a34565b90508073ffffffffffffffffffffffffffffffffffffffff168473ffffffffffffffffffffffffffffffffffffffff16148061150f57508373ffffffffffffffffffffffffffffffffffffffff166114f7846106bd565b73ffffffffffffffffffffffffffffffffffffffff16145b80611520575061151f8185610e8f565b5b91505092915050565b8273ffffffffffffffffffffffffffffffffffffffff166115498261110c565b73ffffffffffffffffffffffffffffffffffffffff161461159f576040517f08c379a0000000000000000000000000000000000000000000000000000000008152600401611596906130fe565b60405180910390fd5b5f73ffffffffffffffffffffffffffffffffffffffff168273ffffffffffffffffffffffffffffffffffffffff160361160d576040517f08c379a00000000000000000000000000000000000000000000000000000000081526004016116049061318c565b60405180910390fd5b61161a8383836001611e85565b8273ffffffffffffffffffffffffffffffffffffffff1661163a8261110c565b73ffffffffffffffffffffffffffffffffffffffff1614611690576040517f08c379a0000000000000000000000000000000000000000000000000000000008152600401611687906130fe565b60405180910390fd5b60045f8281526020019081526020015f205f6101000a81549073ffffffffffffffffffffffffffffffffffffffff0219169055600160035f8573ffffffffffffffffffffffffffffffffffffffff1673ffffffffffffffffffffffffffffffffffffffff1681526020019081526020015f205f8282540392505081905550600160035f8473ffffffffffffffffffffffffffffffffffffffff1673ffffffffffffffffffffffffffffffffffffffff1681526020019081526020015f205f82825401925050819055508160025f8381526020019081526020015f205f6101000a81548173ffffffffffffffffffffffffffffffffffffffff021916908373ffffffffffffffffffffffffffffffffffffffff160217905550808273ffffffffffffffffffffffffffffffffffffffff168473ffffffffffffffffffffffffffffffffffffffff167fddf252ad1be2c89b69c2b068fc378daa952ba7f163c4a11628f55a4df523b3ef60405160405180910390a46118108383836001611e8b565b505050565b61181d611190565b73ffffffffffffffffffffffffffffffffffffffff1661183b610b97565b73ffffffffffffffffffffffffffffffffffffffff1614611891576040517f08c379a0000000000000000000000000000000000000000000000000000000008152600401611888906131f4565b60405180910390fd5b565b5f60065f9054906101000a900473ffffffffffffffffffffffffffffffffffffffff1690508160065f6101000a81548173ffffffffffffffffffffffffffffffffffffffff021916908373ffffffffffffffffffffffffffffffffffffffff1602179055508173ffffffffffffffffffffffffffffffffffffffff168173ffffffffffffffffffffffffffffffffffffffff167f8be0079c531659141344cd1fd0a4f28419497f9722a3daafe3b4186f6b6457e060405160405180910390a35050565b8173ffffffffffffffffffffffffffffffffffffffff168373ffffffffffffffffffffffffffffffffffffffff16036119c4576040517f08c379a00000000000000000000000000000000000000000000000000000000081526004016119bb9061325c565b60405180910390fd5b8060055f8573ffffffffffffffffffffffffffffffffffffffff1673ffffffffffffffffffffffffffffffffffffffff1681526020019081526020015f205f8473ffffffffffffffffffffffffffffffffffffffff1673ffffffffffffffffffffffffffffffffffffffff1681526020019081526020015f205f6101000a81548160ff0219169083151502179055508173ffffffffffffffffffffffffffffffffffffffff168373ffffffffffffffffffffffffffffffffffffffff167f17307eab39ab6107e8899845ad3d59bd9653f200f220920489ca2b5937696c3183604051611ab09190612231565b60405180910390a3505050565b611ac8848484611529565b611ad484848484611e91565b611b13576040517f08c379a0000000000000000000000000000000000000000000000000000000008152600401611b0a906132ea565b60405180910390fd5b50505050565b606060405180602001604052805f815250905090565b60605f6001611b3d84612013565b0190505f8167ffffffffffffffff811115611b5b57611b5a612520565b5b6040519080825280601f01601f191660200182016040528015611b8d5781602001600182028036833780820191505090505b5090505f82602001820190505b600115611bee578080600190039150507f3031323334353637383961626364656600000000000000000000000000000000600a86061a8153600a8581611be357611be2613308565b5b0494505f8503611b9a575b819350505050919050565b5f8073ffffffffffffffffffffffffffffffffffffffff16611c1a83611c39565b73ffffffffffffffffffffffffffffffffffffffff1614159050919050565b5f60025f8381526020019081526020015f205f9054906101000a900473ffffffffffffffffffffffffffffffffffffffff169050919050565b5f73ffffffffffffffffffffffffffffffffffffffff168273ffffffffffffffffffffffffffffffffffffffff1603611ce0576040517f08c379a0000000000000000000000000000000000000000000000000000000008152600401611cd79061337f565b60405180910390fd5b611ce981611bf9565b15611d29576040517f08c379a0000000000000000000000000000000000000000000000000000000008152600401611d20906133e7565b60405180910390fd5b611d365f83836001611e85565b611d3f81611bf9565b15611d7f576040517f08c379a0000000000000000000000000000000000000000000000000000000008152600401611d76906133e7565b60405180910390fd5b600160035f8473ffffffffffffffffffffffffffffffffffffffff1673ffffffffffffffffffffffffffffffffffffffff1681526020019081526020015f205f82825401925050819055508160025f8381526020019081526020015f205f6101000a81548173ffffffffffffffffffffffffffffffffffffffff021916908373ffffffffffffffffffffffffffffffffffffffff160217905550808273ffffffffffffffffffffffffffffffffffffffff165f73ffffffffffffffffffffffffffffffffffffffff167fddf252ad1be2c89b69c2b068fc378daa952ba7f163c4a11628f55a4df523b3ef60405160405180910390a4611e815f83836001611e8b565b5050565b50505050565b50505050565b5f611eb18473ffffffffffffffffffffffffffffffffffffffff16612164565b15612006578373ffffffffffffffffffffffffffffffffffffffff1663150b7a02611eda611190565b8786866040518563ffffffff1660e01b8152600401611efc9493929190613405565b6020604051808303815f875af1925050508015611f3757506040513d601f19601f82011682018060405250810190611f349190613463565b60015b611fb6573d805f8114611f65576040519150601f19603f3d011682016040523d82523d5f602084013e611f6a565b606091505b505f815103611fae576040517f08c379a0000000000000000000000000000000000000000000000000000000008152600401611fa5906132ea565b60405180910390fd5b805181602001fd5b63150b7a0260e01b7bffffffffffffffffffffffffffffffffffffffffffffffffffffffff1916817bffffffffffffffffffffffffffffffffffffffffffffffffffffffff19161491505061200b565b600190505b949350505050565b5f805f90507a184f03e93ff9f4daa797ed6e38ed64bf6a1f010000000000000000831061206f577a184f03e93ff9f4daa797ed6e38ed64bf6a1f010000000000000000838161206557612064613308565b5b0492506040810190505b6d04ee2d6d415b85acef810000000083106120ac576d04ee2d6d415b85acef810000000083816120a2576120a1613308565b5b0492506020810190505b662386f26fc1000083106120db57662386f26fc1000083816120d1576120d0613308565b5b0492506010810190505b6305f5e1008310612104576305f5e10083816120fa576120f9613308565b5b0492506008810190505b612710831061212957612710838161211f5761211e613308565b5b0492506004810190505b6064831061214c576064838161214257612141613308565b5b0492506002810190505b600a831061215b576001810190505b80915050919050565b5f808273ffffffffffffffffffffffffffffffffffffffff163b119050919050565b5f604051905090565b5f80fd5b5f80fd5b5f7fffffffff0000000000000000000000000000000000000000000000000000000082169050919050565b6121cb81612197565b81146121d5575f80fd5b50565b5f813590506121e6816121c2565b92915050565b5f602082840312156122015761220061218f565b5b5f61220e848285016121d8565b91505092915050565b5f8115159050919050565b61222b81612217565b82525050565b5f6020820190506122445f830184612222565b92915050565b5f81519050919050565b5f82825260208201905092915050565b5f5b83811015612281578082015181840152602081019050612266565b5f8484015250505050565b5f601f19601f8301169050919050565b5f6122a68261224a565b6122b08185612254565b93506122c0818560208601612264565b6122c98161228c565b840191505092915050565b5f6020820190508181035f8301526122ec818461229c565b905092915050565b5f819050919050565b612306816122f4565b8114612310575f80fd5b50565b5f81359050612321816122fd565b92915050565b5f6020828403121561233c5761233b61218f565b5b5f61234984828501612313565b91505092915050565b5f73ffffffffffffffffffffffffffffffffffffffff82169050919050565b5f61237b82612352565b9050919050565b61238b81612371565b82525050565b5f6020820190506123a45f830184612382565b92915050565b6123b381612371565b81146123bd575f80fd5b50565b5f813590506123ce816123aa565b92915050565b5f80604083850312156123ea576123e961218f565b5b5f6123f7858286016123c0565b925050602061240885828601612313565b9150509250929050565b5f805f606084860312156124295761242861218f565b5b5f61243686828701612313565b9350506020612447868287016123c0565b925050604061245886828701612313565b9150509250925092565b61246b816122f4565b82525050565b5f6020820190506124845f830184612462565b92915050565b5f805f606084860312156124a1576124a061218f565b5b5f6124ae868287016123c0565b93505060206124bf868287016123c0565b92505060406124d086828701612313565b9150509250925092565b5f80604083850312156124f0576124ef61218f565b5b5f6124fd85828601612313565b925050602061250e858286016123c0565b9150509250929050565b5f80fd5b5f80fd5b7f4e487b71000000000000000000000000000000000000000000000000000000005f52604160045260245ffd5b6125568261228c565b810181811067ffffffffffffffff8211171561257557612574612520565b5b80604052505050565b5f612587612186565b9050612593828261254d565b919050565b5f67ffffffffffffffff8211156125b2576125b1612520565b5b6125bb8261228c565b9050602081019050919050565b828183375f83830152505050565b5f6125e86125e384612598565b61257e565b9050828152602081018484840111156126045761260361251c565b5b61260f8482856125c8565b509392505050565b5f82601f83011261262b5761262a612518565b5b813561263b8482602086016125d6565b91505092915050565b5f602082840312156126595761265861218f565b5b5f82013567ffffffffffffffff81111561267657612675612193565b5b61268284828501612617565b91505092915050565b5f602082840312156126a05761269f61218f565b5b5f6126ad848285016123c0565b91505092915050565b5f819050919050565b5f6126d96126d46126cf84612352565b6126b6565b612352565b9050919050565b5f6126ea826126bf565b9050919050565b5f6126fb826126e0565b9050919050565b61270b816126f1565b82525050565b5f6020820190506127245f830184612702565b92915050565b61273381612217565b811461273d575f80fd5b50565b5f8135905061274e8161272a565b92915050565b5f806040838503121561276a5761276961218f565b5b5f612777858286016123c0565b925050602061278885828601612740565b9150509250929050565b5f805f80608085870312156127aa576127a961218f565b5b5f6127b7878288016123c0565b94505060206127c8878288016123c0565b93505060406127d987828801612313565b925050606085013567ffffffffffffffff8111156127fa576127f9612193565b5b61280687828801612617565b91505092959194509250565b5f819050919050565b61282481612812565b82525050565b5f60208201905061283d5f83018461281b565b92915050565b5f80604083850312156128595761285861218f565b5b5f612866858286016123c0565b9250506020612877858286016123c0565b9150509250929050565b7f4e487b71000000000000000000000000000000000000000000000000000000005f52602260045260245ffd5b5f60028204905060018216806128c557607f821691505b6020821081036128d8576128d7612881565b5b50919050565b7f4552433732313a20617070726f76616c20746f2063757272656e74206f776e655f8201527f7200000000000000000000000000000000000000000000000000000000000000602082015250565b5f612938602183612254565b9150612943826128de565b604082019050919050565b5f6020820190508181035f8301526129658161292c565b9050919050565b7f4552433732313a20617070726f76652063616c6c6572206973206e6f7420746f5f8201527f6b656e206f776e6572206f7220617070726f76656420666f7220616c6c000000602082015250565b5f6129c6603d83612254565b91506129d18261296c565b604082019050919050565b5f6020820190508181035f8301526129f3816129ba565b9050919050565b7f4552433732313a2063616c6c6572206973206e6f7420746f6b656e206f776e655f8201527f72206f7220617070726f76656400000000000000000000000000000000000000602082015250565b5f612a54602d83612254565b9150612a5f826129fa565b604082019050919050565b5f6020820190508181035f830152612a8181612a48565b9050919050565b5f81519050612a96816123aa565b92915050565b5f60208284031215612ab157612ab061218f565b5b5f612abe84828501612a88565b91505092915050565b5f606082019050612ada5f83018661281b565b612ae7602083018561281b565b612af46040830184612382565b949350505050565b612b0581612812565b8114612b0f575f80fd5b50565b5f81519050612b2081612afc565b92915050565b5f60208284031215612b3b57612b3a61218f565b5b5f612b4884828501612b12565b91505092915050565b5f81519050919050565b5f819050815f5260205f209050919050565b5f6020601f8301049050919050565b5f82821b905092915050565b5f60088302612bb77fffffffffffffffffffffffffffffffffffffffffffffffffffffffffffffffff82612b7c565b612bc18683612b7c565b95508019841693508086168417925050509392505050565b5f612bf3612bee612be9846122f4565b6126b6565b6122f4565b9050919050565b5f819050919050565b612c0c83612bd9565b612c20612c1882612bfa565b848454612b88565b825550505050565b5f90565b612c34612c28565b612c3f818484612c03565b505050565b5b81811015612c6257612c575f82612c2c565b600181019050612c45565b5050565b601f821115612ca757612c7881612b5b565b612c8184612b6d565b81016020851015612c90578190505b612ca4612c9c85612b6d565b830182612c44565b50505b505050565b5f82821c905092915050565b5f612cc75f1984600802612cac565b1980831691505092915050565b5f612cdf8383612cb8565b9150826002028217905092915050565b612cf882612b51565b67ffffffffffffffff811115612d1157612d10612520565b5b612d1b82546128ae565b612d26828285612c66565b5f60209050601f831160018114612d57575f8415612d45578287015190505b612d4f8582612cd4565b865550612db6565b601f198416612d6586612b5b565b5f5b82811015612d8c57848901518255600182019150602085019450602081019050612d67565b86831015612da95784890151612da5601f891682612cb8565b8355505b6001600288020188555050505b505050505050565b5f82825260208201905092915050565b5f612dd882612b51565b612de28185612dbe565b9350612df2818560208601612264565b612dfb8161228c565b840191505092915050565b5f6020820190508181035f830152612e1e8184612dce565b905092915050565b7f4552433732313a2061646472657373207a65726f206973206e6f7420612076615f8201527f6c6964206f776e65720000000000000000000000000000000000000000000000602082015250565b5f612e80602983612254565b9150612e8b82612e26565b604082019050919050565b5f6020820190508181035f830152612ead81612e74565b9050919050565b5f81905092915050565b5f612ec88261224a565b612ed28185612eb4565b9350612ee2818560208601612264565b80840191505092915050565b5f612ef98285612ebe565b9150612f058284612ebe565b91508190509392505050565b5f604082019050612f245f83018561281b565b612f316020830184612382565b9392505050565b7f4f776e61626c653a206e6577206f776e657220697320746865207a65726f20615f8201527f6464726573730000000000000000000000000000000000000000000000000000602082015250565b5f612f92602683612254565b9150612f9d82612f38565b604082019050919050565b5f6020820190508181035f830152612fbf81612f86565b9050919050565b7f4552433732313a20696e76616c696420746f6b656e20494400000000000000005f82015250565b5f612ffa601883612254565b915061300582612fc6565b602082019050919050565b5f6020820190508181035f83015261302781612fee565b9050919050565b7f4e487b71000000000000000000000000000000000000000000000000000000005f52601160045260245ffd5b5f613065826122f4565b9150613070836122f4565b92508282019050808211156130885761308761302e565b5b92915050565b7f4552433732313a207472616e736665722066726f6d20696e636f7272656374205f8201527f6f776e6572000000000000000000000000000000000000000000000000000000602082015250565b5f6130e8602583612254565b91506130f38261308e565b604082019050919050565b5f6020820190508181035f830152613115816130dc565b9050919050565b7f4552433732313a207472616e7366657220746f20746865207a65726f206164645f8201527f7265737300000000000000000000000000000000000000000000000000000000602082015250565b5f613176602483612254565b91506131818261311c565b604082019050919050565b5f6020820190508181035f8301526131a38161316a565b9050919050565b7f4f776e61626c653a2063616c6c6572206973206e6f7420746865206f776e65725f82015250565b5f6131de602083612254565b91506131e9826131aa565b602082019050919050565b5f6020820190508181035f83015261320b816131d2565b9050919050565b7f4552433732313a20617070726f766520746f2063616c6c6572000000000000005f82015250565b5f613246601983612254565b915061325182613212565b602082019050919050565b5f6020820190508181035f8301526132738161323a565b9050919050565b7f4552433732313a207472616e7366657220746f206e6f6e2045524337323152655f8201527f63656976657220696d706c656d656e7465720000000000000000000000000000602082015250565b5f6132d4603283612254565b91506132df8261327a565b604082019050919050565b5f6020820190508181035f830152613301816132c8565b9050919050565b7f4e487b71000000000000000000000000000000000000000000000000000000005f52601260045260245ffd5b7f4552433732313a206d696e7420746f20746865207a65726f20616464726573735f82015250565b5f613369602083612254565b915061337482613335565b602082019050919050565b5f6020820190508181035f8301526133968161335d565b9050919050565b7f4552433732313a20746f6b656e20616c7265616479206d696e746564000000005f82015250565b5f6133d1601c83612254565b91506133dc8261339d565b602082019050919050565b5f6020820190508181035f8301526133fe816133c5565b9050919050565b5f6080820190506134185f830187612382565b6134256020830186612382565b6134326040830185612462565b81810360608301526134448184612dce565b905095945050505050565b5f8151905061345d816121c2565b92915050565b5f602082840312156134785761347761218f565b5b5f6134858482850161344f565b9150509291505056fea26469706673582212204dc884560487545b5dd7aab3e6b80464e04c25470b9774af6f196b005942f3b064736f6c63430008150033",
			"opcodes": "PUSH1 0x80 PUSH1 0x40 MSTORE CALLVALUE DUP1 ISZERO PUSH3 0x10 JUMPI PUSH0 DUP1 REVERT JUMPDEST POP PUSH1 0x40 MLOAD PUSH3 0x3AC1 CODESIZE SUB DUP1 PUSH3 0x3AC1 DUP4 CODECOPY DUP2 DUP2 ADD PUSH1 0x40 MSTORE DUP2 ADD SWAP1 PUSH3 0x36 SWAP2 SWAP1 PUSH3 0x262 JUMP JUMPDEST PUSH1 0x40 MLOAD DUP1 PUSH1 0x20 ADD PUSH1 0x40 MSTORE DUP1 PUSH0 DUP2 MSTORE POP PUSH1 0x40 MLOAD DUP1 PUSH1 0x20 ADD PUSH1 0x40 MSTORE DUP1 PUSH0 DUP2 MSTORE POP DUP2 PUSH0 SWAP1 DUP2 PUSH3 0x64 SWAP2 SWAP1 PUSH3 0x50B JUMP JUMPDEST POP DUP1 PUSH1 0x1 SWAP1 DUP2 PUSH3 0x76 SWAP2 SWAP1 PUSH3 0x50B JUMP JUMPDEST POP POP POP PUSH3 0x99 PUSH3 0x8D PUSH3 0xE8 PUSH1 0x20 SHL PUSH1 0x20 SHR JUMP JUMPDEST PUSH3 0xEF PUSH1 0x20 SHL PUSH1 0x20 SHR JUMP JUMPDEST DUP2 PUSH1 0x8 PUSH0 PUSH2 0x100 EXP DUP2 SLOAD DUP2 PUSH20 0xFFFFFFFFFFFFFFFFFFFFFFFFFFFFFFFFFFFFFFFF MUL NOT AND SWAP1 DUP4 PUSH20 0xFFFFFFFFFFFFFFFFFFFFFFFFFFFFFFFFFFFFFFFF AND MUL OR SWAP1 SSTORE POP DUP1 PUSH1 0x9 DUP2 SWAP1 SSTORE POP POP POP PUSH3 0x5EF JUMP JUMPDEST PUSH0 CALLER SWAP1 POP SWAP1 JUMP JUMPDEST PUSH0 PUSH1 0x6 PUSH0 SWAP1 SLOAD SWAP1 PUSH2 0x100 EXP SWAP1 DIV PUSH20 0xFFFFFFFFFFFFFFFFFFFFFFFFFFFFFFFFFFFFFFFF AND SWAP1 POP DUP2 PUSH1 0x6 PUSH0 PUSH2 0x100 EXP DUP2 SLOAD DUP2 PUSH20 0xFFFFFFFFFFFFFFFFFFFFFFFFFFFFFFFFFFFFFFFF MUL NOT AND SWAP1 DUP4 PUSH20 0xFFFFFFFFFFFFFFFFFFFFFFFFFFFFFFFFFFFFFFFF AND MUL OR SWAP1 SSTORE POP DUP2 PUSH20 0xFFFFFFFFFFFFFFFFFFFFFFFFFFFFFFFFFFFFFFFF AND DUP2 PUSH20 0xFFFFFFFFFFFFFFFFFFFFFFFFFFFFFFFFFFFFFFFF AND PUSH32 0x8BE0079C531659141344CD1FD0A4F28419497F9722A3DAAFE3B4186F6B6457E0 PUSH1 0x40 MLOAD PUSH1 0x40 MLOAD DUP1 SWAP2 SUB SWAP1 LOG3 POP POP JUMP JUMPDEST PUSH0 DUP1 REVERT JUMPDEST PUSH0 PUSH20 0xFFFFFFFFFFFFFFFFFFFFFFFFFFFFFFFFFFFFFFFF DUP3 AND SWAP1 POP SWAP2 SWAP1 POP JUMP JUMPDEST PUSH0 PUSH3 0x1E1 DUP3 PUSH3 0x1B6 JUMP JUMPDEST SWAP1 POP SWAP2 SWAP1 POP JUMP JUMPDEST PUSH0 PUSH3 0x1F4 DUP3 PUSH3 0x1D5 JUMP JUMPDEST SWAP1 POP SWAP2 SWAP1 POP JUMP JUMPDEST PUSH3 0x206 DUP2 PUSH3 0x1E8 JUMP JUMPDEST DUP2 EQ PUSH3 0x211 JUMPI PUSH0 DUP1 REVERT JUMPDEST POP JUMP JUMPDEST PUSH0 DUP2 MLOAD SWAP1 POP PUSH3 0x224 DUP2 PUSH3 0x1FB JUMP JUMPDEST SWAP3 SWAP2 POP POP JUMP JUMPDEST PUSH0 DUP2 SWAP1 POP SWAP2 SWAP1 POP JUMP JUMPDEST PUSH3 0x23E DUP2 PUSH3 0x22A JUMP JUMPDEST DUP2 EQ PUSH3 0x249 JUMPI PUSH0 DUP1 REVERT JUMPDEST POP JUMP JUMPDEST PUSH0 DUP2 MLOAD SWAP1 POP PUSH3 0x25C DUP2 PUSH3 0x233 JUMP JUMPDEST SWAP3 SWAP2 POP POP JUMP JUMPDEST PUSH0 DUP1 PUSH1 0x40 DUP4 DUP6 SUB SLT ISZERO PUSH3 0x27B JUMPI PUSH3 0x27A PUSH3 0x1B2 JUMP JUMPDEST JUMPDEST PUSH0 PUSH3 0x28A DUP6 DUP3 DUP7 ADD PUSH3 0x214 JUMP JUMPDEST SWAP3 POP POP PUSH1 0x20 PUSH3 0x29D DUP6 DUP3 DUP7 ADD PUSH3 0x24C JUMP JUMPDEST SWAP2 POP POP SWAP3 POP SWAP3 SWAP1 POP JUMP JUMPDEST PUSH0 DUP2 MLOAD SWAP1 POP SWAP2 SWAP1 POP JUMP JUMPDEST PUSH32 0x4E487B7100000000000000000000000000000000000000000000000000000000 PUSH0 MSTORE PUSH1 0x41 PUSH1 0x4 MSTORE PUSH1 0x24 PUSH0 REVERT JUMPDEST PUSH32 0x4E487B7100000000000000000000000000000000000000000000000000000000 PUSH0 MSTORE PUSH1 0x22 PUSH1 0x4 MSTORE PUSH1 0x24 PUSH0 REVERT JUMPDEST PUSH0 PUSH1 0x2 DUP3 DIV SWAP1 POP PUSH1 0x1 DUP3 AND DUP1 PUSH3 0x323 JUMPI PUSH1 0x7F DUP3 AND SWAP2 POP JUMPDEST PUSH1 0x20 DUP3 LT DUP2 SUB PUSH3 0x339 JUMPI PUSH3 0x338 PUSH3 0x2DE JUMP JUMPDEST JUMPDEST POP SWAP2 SWAP1 POP JUMP JUMPDEST PUSH0 DUP2 SWAP1 POP DUP2 PUSH0 MSTORE PUSH1 0x20 PUSH0 KECCAK256 SWAP1 POP SWAP2 SWAP1 POP JUMP JUMPDEST PUSH0 PUSH1 0x20 PUSH1 0x1F DUP4 ADD DIV SWAP1 POP SWAP2 SWAP1 POP JUMP JUMPDEST PUSH0 DUP3 DUP3 SHL SWAP1 POP SWAP3 SWAP2 POP POP JUMP JUMPDEST PUSH0 PUSH1 0x8 DUP4 MUL PUSH3 0x39D PUSH32 0xFFFFFFFFFFFFFFFFFFFFFFFFFFFFFFFFFFFFFFFFFFFFFFFFFFFFFFFFFFFFFFFF DUP3 PUSH3 0x360 JUMP JUMPDEST PUSH3 0x3A9 DUP7 DUP4 PUSH3 0x360 JUMP JUMPDEST SWAP6 POP DUP1 NOT DUP5 AND SWAP4 POP DUP1 DUP7 AND DUP5 OR SWAP3 POP POP POP SWAP4 SWAP3 POP POP POP JUMP JUMPDEST PUSH0 DUP2 SWAP1 POP SWAP2 SWAP1 POP JUMP JUMPDEST PUSH0 DUP2 SWAP1 POP SWAP2 SWAP1 POP JUMP JUMPDEST PUSH0 PUSH3 0x3F3 PUSH3 0x3ED PUSH3 0x3E7 DUP5 PUSH3 0x3C1 JUMP JUMPDEST PUSH3 0x3CA JUMP JUMPDEST PUSH3 0x3C1 JUMP JUMPDEST SWAP1 POP SWAP2 SWAP1 POP JUMP JUMPDEST PUSH0 DUP2 SWAP1 POP SWAP2 SWAP1 POP JUMP JUMPDEST PUSH3 0x40E DUP4 PUSH3 0x3D3 JUMP JUMPDEST PUSH3 0x426 PUSH3 0x41D DUP3 PUSH3 0x3FA JUMP JUMPDEST DUP5 DUP5 SLOAD PUSH3 0x36C JUMP JUMPDEST DUP3 SSTORE POP POP POP POP JUMP JUMPDEST PUSH0 SWAP1 JUMP JUMPDEST PUSH3 0x43C PUSH3 0x42E JUMP JUMPDEST PUSH3 0x449 DUP2 DUP5 DUP5 PUSH3 0x403 JUMP JUMPDEST POP POP POP JUMP JUMPDEST JUMPDEST DUP2 DUP2 LT ISZERO PUSH3 0x470 JUMPI PUSH3 0x464 PUSH0 DUP3 PUSH3 0x432 JUMP JUMPDEST PUSH1 0x1 DUP2 ADD SWAP1 POP PUSH3 0x44F JUMP JUMPDEST POP POP JUMP JUMPDEST PUSH1 0x1F DUP3 GT ISZERO PUSH3 0x4BF JUMPI PUSH3 0x489 DUP2 PUSH3 0x33F JUMP JUMPDEST PUSH3 0x494 DUP5 PUSH3 0x351 JUMP JUMPDEST DUP2 ADD PUSH1 0x20 DUP6 LT ISZERO PUSH3 0x4A4 JUMPI DUP2 SWAP1 POP JUMPDEST PUSH3 0x4BC PUSH3 0x4B3 DUP6 PUSH3 0x351 JUMP JUMPDEST DUP4 ADD DUP3 PUSH3 0x44E JUMP JUMPDEST POP POP JUMPDEST POP POP POP JUMP JUMPDEST PUSH0 DUP3 DUP3 SHR SWAP1 POP SWAP3 SWAP2 POP POP JUMP JUMPDEST PUSH0 PUSH3 0x4E1 PUSH0 NOT DUP5 PUSH1 0x8 MUL PUSH3 0x4C4 JUMP JUMPDEST NOT DUP1 DUP4 AND SWAP2 POP POP SWAP3 SWAP2 POP POP JUMP JUMPDEST PUSH0 PUSH3 0x4FB DUP4 DUP4 PUSH3 0x4D0 JUMP JUMPDEST SWAP2 POP DUP3 PUSH1 0x2 MUL DUP3 OR SWAP1 POP SWAP3 SWAP2 POP POP JUMP JUMPDEST PUSH3 0x516 DUP3 PUSH3 0x2A7 JUMP JUMPDEST PUSH8 0xFFFFFFFFFFFFFFFF DUP2 GT ISZERO PUSH3 0x532 JUMPI PUSH3 0x531 PUSH3 0x2B1 JUMP JUMPDEST JUMPDEST PUSH3 0x53E DUP3 SLOAD PUSH3 0x30B JUMP JUMPDEST PUSH3 0x54B DUP3 DUP3 DUP6 PUSH3 0x474 JUMP JUMPDEST PUSH0 PUSH1 0x20 SWAP1 POP PUSH1 0x1F DUP4 GT PUSH1 0x1 DUP2 EQ PUSH3 0x581 JUMPI PUSH0 DUP5 ISZERO PUSH3 0x56C JUMPI DUP3 DUP8 ADD MLOAD SWAP1 POP JUMPDEST PUSH3 0x578 DUP6 DUP3 PUSH3 0x4EE JUMP JUMPDEST DUP7 SSTORE POP PUSH3 0x5E7 JUMP JUMPDEST PUSH1 0x1F NOT DUP5 AND PUSH3 0x591 DUP7 PUSH3 0x33F JUMP JUMPDEST PUSH0 JUMPDEST DUP3 DUP2 LT ISZERO PUSH3 0x5BA JUMPI DUP5 DUP10 ADD MLOAD DUP3 SSTORE PUSH1 0x1 DUP3 ADD SWAP2 POP PUSH1 0x20 DUP6 ADD SWAP5 POP PUSH1 0x20 DUP2 ADD SWAP1 POP PUSH3 0x593 JUMP JUMPDEST DUP7 DUP4 LT ISZERO PUSH3 0x5DA JUMPI DUP5 DUP10 ADD MLOAD PUSH3 0x5D6 PUSH1 0x1F DUP10 AND DUP3 PUSH3 0x4D0 JUMP JUMPDEST DUP4 SSTORE POP JUMPDEST PUSH1 0x1 PUSH1 0x2 DUP9 MUL ADD DUP9 SSTORE POP POP POP JUMPDEST POP POP POP POP POP POP JUMP JUMPDEST PUSH2 0x34C4 DUP1 PUSH3 0x5FD PUSH0 CODECOPY PUSH0 RETURN INVALID PUSH1 0x80 PUSH1 0x40 MSTORE CALLVALUE DUP1 ISZERO PUSH2 0xF JUMPI PUSH0 DUP1 REVERT JUMPDEST POP PUSH1 0x4 CALLDATASIZE LT PUSH2 0x1A7 JUMPI PUSH0 CALLDATALOAD PUSH1 0xE0 SHR DUP1 PUSH4 0x8DA5CB5B GT PUSH2 0xF7 JUMPI DUP1 PUSH4 0xD0EBDBE7 GT PUSH2 0x95 JUMPI DUP1 PUSH4 0xE985E9C5 GT PUSH2 0x6F JUMPI DUP1 PUSH4 0xE985E9C5 EQ PUSH2 0x4B5 JUMPI DUP1 PUSH4 0xF2FDE38B EQ PUSH2 0x4E5 JUMPI DUP1 PUSH4 0xF6A74ED7 EQ PUSH2 0x501 JUMPI DUP1 PUSH4 0xFCA247AC EQ PUSH2 0x51D JUMPI PUSH2 0x1A7 JUMP JUMPDEST DUP1 PUSH4 0xD0EBDBE7 EQ PUSH2 0x44B JUMPI DUP1 PUSH4 0xDA8C229E EQ PUSH2 0x467 JUMPI DUP1 PUSH4 0xDDF7FCB0 EQ PUSH2 0x497 JUMPI PUSH2 0x1A7 JUMP JUMPDEST DUP1 PUSH4 0xA7FC7A07 GT PUSH2 0xD1 JUMPI DUP1 PUSH4 0xA7FC7A07 EQ PUSH2 0x3C5 JUMPI DUP1 PUSH4 0xB88D4FDE EQ PUSH2 0x3E1 JUMPI DUP1 PUSH4 0xC1A287E2 EQ PUSH2 0x3FD JUMPI DUP1 PUSH4 0xC87B56DD EQ PUSH2 0x41B JUMPI PUSH2 0x1A7 JUMP JUMPDEST DUP1 PUSH4 0x8DA5CB5B EQ PUSH2 0x36D JUMPI DUP1 PUSH4 0x95D89B41 EQ PUSH2 0x38B JUMPI DUP1 PUSH4 0xA22CB465 EQ PUSH2 0x3A9 JUMPI PUSH2 0x1A7 JUMP JUMPDEST DUP1 PUSH4 0x28ED4F6C GT PUSH2 0x164 JUMPI DUP1 PUSH4 0x6634D733 GT PUSH2 0x13E JUMPI DUP1 PUSH4 0x6634D733 EQ PUSH2 0x2F9 JUMPI DUP1 PUSH4 0x70A08231 EQ PUSH2 0x315 JUMPI DUP1 PUSH4 0x715018A6 EQ PUSH2 0x345 JUMPI DUP1 PUSH4 0x738FDD1A EQ PUSH2 0x34F JUMPI PUSH2 0x1A7 JUMP JUMPDEST DUP1 PUSH4 0x28ED4F6C EQ PUSH2 0x291 JUMPI DUP1 PUSH4 0x42842E0E EQ PUSH2 0x2AD JUMPI DUP1 PUSH4 0x6352211E EQ PUSH2 0x2C9 JUMPI PUSH2 0x1A7 JUMP JUMPDEST DUP1 PUSH4 0x1FFC9A7 EQ PUSH2 0x1AB JUMPI DUP1 PUSH4 0x6FDDE03 EQ PUSH2 0x1DB JUMPI DUP1 PUSH4 0x81812FC EQ PUSH2 0x1F9 JUMPI DUP1 PUSH4 0x95EA7B3 EQ PUSH2 0x229 JUMPI DUP1 PUSH4 0xE297B45 EQ PUSH2 0x245 JUMPI DUP1 PUSH4 0x23B872DD EQ PUSH2 0x275 JUMPI JUMPDEST PUSH0 DUP1 REVERT JUMPDEST PUSH2 0x1C5 PUSH1 0x4 DUP1 CALLDATASIZE SUB DUP2 ADD SWAP1 PUSH2 0x1C0 SWAP2 SWAP1 PUSH2 0x21EC JUMP JUMPDEST PUSH2 0x54D JUMP JUMPDEST PUSH1 0x40 MLOAD PUSH2 0x1D2 SWAP2 SWAP1 PUSH2 0x2231 JUMP JUMPDEST PUSH1 0x40 MLOAD DUP1 SWAP2 SUB SWAP1 RETURN JUMPDEST PUSH2 0x1E3 PUSH2 0x62E JUMP JUMPDEST PUSH1 0x40 MLOAD PUSH2 0x1F0 SWAP2 SWAP1 PUSH2 0x22D4 JUMP JUMPDEST PUSH1 0x40 MLOAD DUP1 SWAP2 SUB SWAP1 RETURN JUMPDEST PUSH2 0x213 PUSH1 0x4 DUP1 CALLDATASIZE SUB DUP2 ADD SWAP1 PUSH2 0x20E SWAP2 SWAP1 PUSH2 0x2327 JUMP JUMPDEST PUSH2 0x6BD JUMP JUMPDEST PUSH1 0x40 MLOAD PUSH2 0x220 SWAP2 SWAP1 PUSH2 0x2391 JUMP JUMPDEST PUSH1 0x40 MLOAD DUP1 SWAP2 SUB SWAP1 RETURN JUMPDEST PUSH2 0x243 PUSH1 0x4 DUP1 CALLDATASIZE SUB DUP2 ADD SWAP1 PUSH2 0x23E SWAP2 SWAP1 PUSH2 0x23D4 JUMP JUMPDEST PUSH2 0x6FF JUMP JUMPDEST STOP JUMPDEST PUSH2 0x25F PUSH1 0x4 DUP1 CALLDATASIZE SUB DUP2 ADD SWAP1 PUSH2 0x25A SWAP2 SWAP1 PUSH2 0x2412 JUMP JUMPDEST PUSH2 0x815 JUMP JUMPDEST PUSH1 0x40 MLOAD PUSH2 0x26C SWAP2 SWAP1 PUSH2 0x2471 JUMP JUMPDEST PUSH1 0x40 MLOAD DUP1 SWAP2 SUB SWAP1 RETURN JUMPDEST PUSH2 0x28F PUSH1 0x4 DUP1 CALLDATASIZE SUB DUP2 ADD SWAP1 PUSH2 0x28A SWAP2 SWAP1 PUSH2 0x248A JUMP JUMPDEST PUSH2 0x82B JUMP JUMPDEST STOP JUMPDEST PUSH2 0x2AB PUSH1 0x4 DUP1 CALLDATASIZE SUB DUP2 ADD SWAP1 PUSH2 0x2A6 SWAP2 SWAP1 PUSH2 0x24DA JUMP JUMPDEST PUSH2 0x88B JUMP JUMPDEST STOP JUMPDEST PUSH2 0x2C7 PUSH1 0x4 DUP1 CALLDATASIZE SUB DUP2 ADD SWAP1 PUSH2 0x2C2 SWAP2 SWAP1 PUSH2 0x248A JUMP JUMPDEST PUSH2 0xA15 JUMP JUMPDEST STOP JUMPDEST PUSH2 0x2E3 PUSH1 0x4 DUP1 CALLDATASIZE SUB DUP2 ADD SWAP1 PUSH2 0x2DE SWAP2 SWAP1 PUSH2 0x2327 JUMP JUMPDEST PUSH2 0xA34 JUMP JUMPDEST PUSH1 0x40 MLOAD PUSH2 0x2F0 SWAP2 SWAP1 PUSH2 0x2391 JUMP JUMPDEST PUSH1 0x40 MLOAD DUP1 SWAP2 SUB SWAP1 RETURN JUMPDEST PUSH2 0x313 PUSH1 0x4 DUP1 CALLDATASIZE SUB DUP2 ADD SWAP1 PUSH2 0x30E SWAP2 SWAP1 PUSH2 0x2644 JUMP JUMPDEST PUSH2 0xA61 JUMP JUMPDEST STOP JUMPDEST PUSH2 0x32F PUSH1 0x4 DUP1 CALLDATASIZE SUB DUP2 ADD SWAP1 PUSH2 0x32A SWAP2 SWAP1 PUSH2 0x268B JUMP JUMPDEST PUSH2 0xAAB JUMP JUMPDEST PUSH1 0x40 MLOAD PUSH2 0x33C SWAP2 SWAP1 PUSH2 0x2471 JUMP JUMPDEST PUSH1 0x40 MLOAD DUP1 SWAP2 SUB SWAP1 RETURN JUMPDEST PUSH2 0x34D PUSH2 0xB5F JUMP JUMPDEST STOP JUMPDEST PUSH2 0x357 PUSH2 0xB72 JUMP JUMPDEST PUSH1 0x40 MLOAD PUSH2 0x364 SWAP2 SWAP1 PUSH2 0x2711 JUMP JUMPDEST PUSH1 0x40 MLOAD DUP1 SWAP2 SUB SWAP1 RETURN JUMPDEST PUSH2 0x375 PUSH2 0xB97 JUMP JUMPDEST PUSH1 0x40 MLOAD PUSH2 0x382 SWAP2 SWAP1 PUSH2 0x2391 JUMP JUMPDEST PUSH1 0x40 MLOAD DUP1 SWAP2 SUB SWAP1 RETURN JUMPDEST PUSH2 0x393 PUSH2 0xBBF JUMP JUMPDEST PUSH1 0x40 MLOAD PUSH2 0x3A0 SWAP2 SWAP1 PUSH2 0x22D4 JUMP JUMPDEST PUSH1 0x40 MLOAD DUP1 SWAP2 SUB SWAP1 RETURN JUMPDEST PUSH2 0x3C3 PUSH1 0x4 DUP1 CALLDATASIZE SUB DUP2 ADD SWAP1 PUSH2 0x3BE SWAP2 SWAP1 PUSH2 0x2754 JUMP JUMPDEST PUSH2 0xC4F JUMP JUMPDEST STOP JUMPDEST PUSH2 0x3DF PUSH1 0x4 DUP1 CALLDATASIZE SUB DUP2 ADD SWAP1 PUSH2 0x3DA SWAP2 SWAP1 PUSH2 0x268B JUMP JUMPDEST PUSH2 0xC65 JUMP JUMPDEST STOP JUMPDEST PUSH2 0x3FB PUSH1 0x4 DUP1 CALLDATASIZE SUB DUP2 ADD SWAP1 PUSH2 0x3F6 SWAP2 SWAP1 PUSH2 0x2792 JUMP JUMPDEST PUSH2 0xD08 JUMP JUMPDEST STOP JUMPDEST PUSH2 0x405 PUSH2 0xD6A JUMP JUMPDEST PUSH1 0x40 MLOAD PUSH2 0x412 SWAP2 SWAP1 PUSH2 0x2471 JUMP JUMPDEST PUSH1 0x40 MLOAD DUP1 SWAP2 SUB SWAP1 RETURN JUMPDEST PUSH2 0x435 PUSH1 0x4 DUP1 CALLDATASIZE SUB DUP2 ADD SWAP1 PUSH2 0x430 SWAP2 SWAP1 PUSH2 0x2327 JUMP JUMPDEST PUSH2 0xD71 JUMP JUMPDEST PUSH1 0x40 MLOAD PUSH2 0x442 SWAP2 SWAP1 PUSH2 0x22D4 JUMP JUMPDEST PUSH1 0x40 MLOAD DUP1 SWAP2 SUB SWAP1 RETURN JUMPDEST PUSH2 0x465 PUSH1 0x4 DUP1 CALLDATASIZE SUB DUP2 ADD SWAP1 PUSH2 0x460 SWAP2 SWAP1 PUSH2 0x268B JUMP JUMPDEST PUSH2 0xDD6 JUMP JUMPDEST STOP JUMPDEST PUSH2 0x481 PUSH1 0x4 DUP1 CALLDATASIZE SUB DUP2 ADD SWAP1 PUSH2 0x47C SWAP2 SWAP1 PUSH2 0x268B JUMP JUMPDEST PUSH2 0xE6C JUMP JUMPDEST PUSH1 0x40 MLOAD PUSH2 0x48E SWAP2 SWAP1 PUSH2 0x2231 JUMP JUMPDEST PUSH1 0x40 MLOAD DUP1 SWAP2 SUB SWAP1 RETURN JUMPDEST PUSH2 0x49F PUSH2 0xE89 JUMP JUMPDEST PUSH1 0x40 MLOAD PUSH2 0x4AC SWAP2 SWAP1 PUSH2 0x282A JUMP JUMPDEST PUSH1 0x40 MLOAD DUP1 SWAP2 SUB SWAP1 RETURN JUMPDEST PUSH2 0x4CF PUSH1 0x4 DUP1 CALLDATASIZE SUB DUP2 ADD SWAP1 PUSH2 0x4CA SWAP2 SWAP1 PUSH2 0x2843 JUMP JUMPDEST PUSH2 0xE8F JUMP JUMPDEST PUSH1 0x40 MLOAD PUSH2 0x4DC SWAP2 SWAP1 PUSH2 0x2231 JUMP JUMPDEST PUSH1 0x40 MLOAD DUP1 SWAP2 SUB SWAP1 RETURN JUMPDEST PUSH2 0x4FF PUSH1 0x4 DUP1 CALLDATASIZE SUB DUP2 ADD SWAP1 PUSH2 0x4FA SWAP2 SWAP1 PUSH2 0x268B JUMP JUMPDEST PUSH2 0xF1D JUMP JUMPDEST STOP JUMPDEST PUSH2 0x51B PUSH1 0x4 DUP1 CALLDATASIZE SUB DUP2 ADD SWAP1 PUSH2 0x516 SWAP2 SWAP1 PUSH2 0x268B JUMP JUMPDEST PUSH2 0xF9F JUMP JUMPDEST STOP JUMPDEST PUSH2 0x537 PUSH1 0x4 DUP1 CALLDATASIZE SUB DUP2 ADD SWAP1 PUSH2 0x532 SWAP2 SWAP1 PUSH2 0x2412 JUMP JUMPDEST PUSH2 0x1041 JUMP JUMPDEST PUSH1 0x40 MLOAD PUSH2 0x544 SWAP2 SWAP1 PUSH2 0x2471 JUMP JUMPDEST PUSH1 0x40 MLOAD DUP1 SWAP2 SUB SWAP1 RETURN JUMPDEST PUSH0 PUSH32 0x80AC58CD00000000000000000000000000000000000000000000000000000000 PUSH28 0xFFFFFFFFFFFFFFFFFFFFFFFFFFFFFFFFFFFFFFFFFFFFFFFFFFFFFFFF NOT AND DUP3 PUSH28 0xFFFFFFFFFFFFFFFFFFFFFFFFFFFFFFFFFFFFFFFFFFFFFFFFFFFFFFFF NOT AND EQ DUP1 PUSH2 0x617 JUMPI POP PUSH32 0x5B5E139F00000000000000000000000000000000000000000000000000000000 PUSH28 0xFFFFFFFFFFFFFFFFFFFFFFFFFFFFFFFFFFFFFFFFFFFFFFFFFFFFFFFF NOT AND DUP3 PUSH28 0xFFFFFFFFFFFFFFFFFFFFFFFFFFFFFFFFFFFFFFFFFFFFFFFFFFFFFFFF NOT AND EQ JUMPDEST DUP1 PUSH2 0x627 JUMPI POP PUSH2 0x626 DUP3 PUSH2 0x1058 JUMP JUMPDEST JUMPDEST SWAP1 POP SWAP2 SWAP1 POP JUMP JUMPDEST PUSH1 0x60 PUSH0 DUP1 SLOAD PUSH2 0x63C SWAP1 PUSH2 0x28AE JUMP JUMPDEST DUP1 PUSH1 0x1F ADD PUSH1 0x20 DUP1 SWAP2 DIV MUL PUSH1 0x20 ADD PUSH1 0x40 MLOAD SWAP1 DUP2 ADD PUSH1 0x40 MSTORE DUP1 SWAP3 SWAP2 SWAP1 DUP2 DUP2 MSTORE PUSH1 0x20 ADD DUP3 DUP1 SLOAD PUSH2 0x668 SWAP1 PUSH2 0x28AE JUMP JUMPDEST DUP1 ISZERO PUSH2 0x6B3 JUMPI DUP1 PUSH1 0x1F LT PUSH2 0x68A JUMPI PUSH2 0x100 DUP1 DUP4 SLOAD DIV MUL DUP4 MSTORE SWAP2 PUSH1 0x20 ADD SWAP2 PUSH2 0x6B3 JUMP JUMPDEST DUP3 ADD SWAP2 SWAP1 PUSH0 MSTORE PUSH1 0x20 PUSH0 KECCAK256 SWAP1 JUMPDEST DUP2 SLOAD DUP2 MSTORE SWAP1 PUSH1 0x1 ADD SWAP1 PUSH1 0x20 ADD DUP1 DUP4 GT PUSH2 0x696 JUMPI DUP3 SWAP1 SUB PUSH1 0x1F AND DUP3 ADD SWAP2 JUMPDEST POP POP POP POP POP SWAP1 POP SWAP1 JUMP JUMPDEST PUSH0 PUSH2 0x6C7 DUP3 PUSH2 0x10C1 JUMP JUMPDEST PUSH1 0x4 PUSH0 DUP4 DUP2 MSTORE PUSH1 0x20 ADD SWAP1 DUP2 MSTORE PUSH1 0x20 ADD PUSH0 KECCAK256 PUSH0 SWAP1 SLOAD SWAP1 PUSH2 0x100 EXP SWAP1 DIV PUSH20 0xFFFFFFFFFFFFFFFFFFFFFFFFFFFFFFFFFFFFFFFF AND SWAP1 POP SWAP2 SWAP1 POP JUMP JUMPDEST PUSH0 PUSH2 0x709 DUP3 PUSH2 0x110C JUMP JUMPDEST SWAP1 POP DUP1 PUSH20 0xFFFFFFFFFFFFFFFFFFFFFFFFFFFFFFFFFFFFFFFF AND DUP4 PUSH20 0xFFFFFFFFFFFFFFFFFFFFFFFFFFFFFFFFFFFFFFFF AND SUB PUSH2 0x779 JUMPI PUSH1 0x40 MLOAD PUSH32 0x8C379A000000000000000000000000000000000000000000000000000000000 DUP2 MSTORE PUSH1 0x4 ADD PUSH2 0x770 SWAP1 PUSH2 0x294E JUMP JUMPDEST PUSH1 0x40 MLOAD DUP1 SWAP2 SUB SWAP1 REVERT JUMPDEST DUP1 PUSH20 0xFFFFFFFFFFFFFFFFFFFFFFFFFFFFFFFFFFFFFFFF AND PUSH2 0x798 PUSH2 0x1190 JUMP JUMPDEST PUSH20 0xFFFFFFFFFFFFFFFFFFFFFFFFFFFFFFFFFFFFFFFF AND EQ DUP1 PUSH2 0x7C7 JUMPI POP PUSH2 0x7C6 DUP2 PUSH2 0x7C1 PUSH2 0x1190 JUMP JUMPDEST PUSH2 0xE8F JUMP JUMPDEST JUMPDEST PUSH2 0x806 JUMPI PUSH1 0x40 MLOAD PUSH32 0x8C379A000000000000000000000000000000000000000000000000000000000 DUP2 MSTORE PUSH1 0x4 ADD PUSH2 0x7FD SWAP1 PUSH2 0x29DC JUMP JUMPDEST PUSH1 0x40 MLOAD DUP1 SWAP2 SUB SWAP1 REVERT JUMPDEST PUSH2 0x810 DUP4 DUP4 PUSH2 0x1197 JUMP JUMPDEST POP POP POP JUMP JUMPDEST PUSH0 PUSH2 0x822 DUP5 DUP5 DUP5 PUSH0 PUSH2 0x124D JUMP JUMPDEST SWAP1 POP SWAP4 SWAP3 POP POP POP JUMP JUMPDEST PUSH2 0x83C PUSH2 0x836 PUSH2 0x1190 JUMP JUMPDEST DUP3 PUSH2 0x1495 JUMP JUMPDEST PUSH2 0x87B JUMPI PUSH1 0x40 MLOAD PUSH32 0x8C379A000000000000000000000000000000000000000000000000000000000 DUP2 MSTORE PUSH1 0x4 ADD PUSH2 0x872 SWAP1 PUSH2 0x2A6A JUMP JUMPDEST PUSH1 0x40 MLOAD DUP1 SWAP2 SUB SWAP1 REVERT JUMPDEST PUSH2 0x886 DUP4 DUP4 DUP4 PUSH2 0x1529 JUMP JUMPDEST POP POP POP JUMP JUMPDEST ADDRESS PUSH20 0xFFFFFFFFFFFFFFFFFFFFFFFFFFFFFFFFFFFFFFFF AND PUSH1 0x8 PUSH0 SWAP1 SLOAD SWAP1 PUSH2 0x100 EXP SWAP1 DIV PUSH20 0xFFFFFFFFFFFFFFFFFFFFFFFFFFFFFFFFFFFFFFFF AND PUSH20 0xFFFFFFFFFFFFFFFFFFFFFFFFFFFFFFFFFFFFFFFF AND PUSH4 0x2571BE3 PUSH1 0x9 SLOAD PUSH1 0x40 MLOAD DUP3 PUSH4 0xFFFFFFFF AND PUSH1 0xE0 SHL DUP2 MSTORE PUSH1 0x4 ADD PUSH2 0x8FE SWAP2 SWAP1 PUSH2 0x282A JUMP JUMPDEST PUSH1 0x20 PUSH1 0x40 MLOAD DUP1 DUP4 SUB DUP2 DUP7 GAS STATICCALL ISZERO DUP1 ISZERO PUSH2 0x919 JUMPI RETURNDATASIZE PUSH0 DUP1 RETURNDATACOPY RETURNDATASIZE PUSH0 REVERT JUMPDEST POP POP POP POP PUSH1 0x40 MLOAD RETURNDATASIZE PUSH1 0x1F NOT PUSH1 0x1F DUP3 ADD AND DUP3 ADD DUP1 PUSH1 0x40 MSTORE POP DUP2 ADD SWAP1 PUSH2 0x93D SWAP2 SWAP1 PUSH2 0x2A9C JUMP JUMPDEST PUSH20 0xFFFFFFFFFFFFFFFFFFFFFFFFFFFFFFFFFFFFFFFF AND EQ PUSH2 0x95C JUMPI PUSH0 DUP1 REVERT JUMPDEST PUSH2 0x966 CALLER DUP4 PUSH2 0x1495 JUMP JUMPDEST PUSH2 0x96E JUMPI PUSH0 DUP1 REVERT JUMPDEST PUSH1 0x8 PUSH0 SWAP1 SLOAD SWAP1 PUSH2 0x100 EXP SWAP1 DIV PUSH20 0xFFFFFFFFFFFFFFFFFFFFFFFFFFFFFFFFFFFFFFFF AND PUSH20 0xFFFFFFFFFFFFFFFFFFFFFFFFFFFFFFFFFFFFFFFF AND PUSH4 0x6AB5923 PUSH1 0x9 SLOAD DUP5 PUSH0 SHL DUP5 PUSH1 0x40 MLOAD DUP5 PUSH4 0xFFFFFFFF AND PUSH1 0xE0 SHL DUP2 MSTORE PUSH1 0x4 ADD PUSH2 0x9D0 SWAP4 SWAP3 SWAP2 SWAP1 PUSH2 0x2AC7 JUMP JUMPDEST PUSH1 0x20 PUSH1 0x40 MLOAD DUP1 DUP4 SUB DUP2 PUSH0 DUP8 GAS CALL ISZERO DUP1 ISZERO PUSH2 0x9EC JUMPI RETURNDATASIZE PUSH0 DUP1 RETURNDATACOPY RETURNDATASIZE PUSH0 REVERT JUMPDEST POP POP POP POP PUSH1 0x40 MLOAD RETURNDATASIZE PUSH1 0x1F NOT PUSH1 0x1F DUP3 ADD AND DUP3 ADD DUP1 PUSH1 0x40 MSTORE POP DUP2 ADD SWAP1 PUSH2 0xA10 SWAP2 SWAP1 PUSH2 0x2B26 JUMP JUMPDEST POP POP POP JUMP JUMPDEST PUSH2 0xA2F DUP4 DUP4 DUP4 PUSH1 0x40 MLOAD DUP1 PUSH1 0x20 ADD PUSH1 0x40 MSTORE DUP1 PUSH0 DUP2 MSTORE POP PUSH2 0xD08 JUMP JUMPDEST POP POP POP JUMP JUMPDEST PUSH0 TIMESTAMP PUSH1 0x7 PUSH0 DUP5 DUP2 MSTORE PUSH1 0x20 ADD SWAP1 DUP2 MSTORE PUSH1 0x20 ADD PUSH0 KECCAK256 SLOAD GT PUSH2 0xA51 JUMPI PUSH0 DUP1 REVERT JUMPDEST PUSH2 0xA5A DUP3 PUSH2 0x110C JUMP JUMPDEST SWAP1 POP SWAP2 SWAP1 POP JUMP JUMPDEST DUP1 PUSH1 0xB SWAP1 DUP2 PUSH2 0xA70 SWAP2 SWAP1 PUSH2 0x2CEF JUMP JUMPDEST POP PUSH32 0xD59E7432DE307C865D24DC7EC5E50A150E71F62D83EF324D7F9E737BD1963D87 DUP2 PUSH1 0x40 MLOAD PUSH2 0xAA0 SWAP2 SWAP1 PUSH2 0x2E06 JUMP JUMPDEST PUSH1 0x40 MLOAD DUP1 SWAP2 SUB SWAP1 LOG1 POP JUMP JUMPDEST PUSH0 DUP1 PUSH20 0xFFFFFFFFFFFFFFFFFFFFFFFFFFFFFFFFFFFFFFFF AND DUP3 PUSH20 0xFFFFFFFFFFFFFFFFFFFFFFFFFFFFFFFFFFFFFFFF AND SUB PUSH2 0xB1A JUMPI PUSH1 0x40 MLOAD PUSH32 0x8C379A000000000000000000000000000000000000000000000000000000000 DUP2 MSTORE PUSH1 0x4 ADD PUSH2 0xB11 SWAP1 PUSH2 0x2E96 JUMP JUMPDEST PUSH1 0x40 MLOAD DUP1 SWAP2 SUB SWAP1 REVERT JUMPDEST PUSH1 0x3 PUSH0 DUP4 PUSH20 0xFFFFFFFFFFFFFFFFFFFFFFFFFFFFFFFFFFFFFFFF AND PUSH20 0xFFFFFFFFFFFFFFFFFFFFFFFFFFFFFFFFFFFFFFFF AND DUP2 MSTORE PUSH1 0x20 ADD SWAP1 DUP2 MSTORE PUSH1 0x20 ADD PUSH0 KECCAK256 SLOAD SWAP1 POP SWAP2 SWAP1 POP JUMP JUMPDEST PUSH2 0xB67 PUSH2 0x1815 JUMP JUMPDEST PUSH2 0xB70 PUSH0 PUSH2 0x1893 JUMP JUMPDEST JUMP JUMPDEST PUSH1 0x8 PUSH0 SWAP1 SLOAD SWAP1 PUSH2 0x100 EXP SWAP1 DIV PUSH20 0xFFFFFFFFFFFFFFFFFFFFFFFFFFFFFFFFFFFFFFFF AND DUP2 JUMP JUMPDEST PUSH0 PUSH1 0x6 PUSH0 SWAP1 SLOAD SWAP1 PUSH2 0x100 EXP SWAP1 DIV PUSH20 0xFFFFFFFFFFFFFFFFFFFFFFFFFFFFFFFFFFFFFFFF AND SWAP1 POP SWAP1 JUMP JUMPDEST PUSH1 0x60 PUSH1 0x1 DUP1 SLOAD PUSH2 0xBCE SWAP1 PUSH2 0x28AE JUMP JUMPDEST DUP1 PUSH1 0x1F ADD PUSH1 0x20 DUP1 SWAP2 DIV MUL PUSH1 0x20 ADD PUSH1 0x40 MLOAD SWAP1 DUP2 ADD PUSH1 0x40 MSTORE DUP1 SWAP3 SWAP2 SWAP1 DUP2 DUP2 MSTORE PUSH1 0x20 ADD DUP3 DUP1 SLOAD PUSH2 0xBFA SWAP1 PUSH2 0x28AE JUMP JUMPDEST DUP1 ISZERO PUSH2 0xC45 JUMPI DUP1 PUSH1 0x1F LT PUSH2 0xC1C JUMPI PUSH2 0x100 DUP1 DUP4 SLOAD DIV MUL DUP4 MSTORE SWAP2 PUSH1 0x20 ADD SWAP2 PUSH2 0xC45 JUMP JUMPDEST DUP3 ADD SWAP2 SWAP1 PUSH0 MSTORE PUSH1 0x20 PUSH0 KECCAK256 SWAP1 JUMPDEST DUP2 SLOAD DUP2 MSTORE SWAP1 PUSH1 0x1 ADD SWAP1 PUSH1 0x20 ADD DUP1 DUP4 GT PUSH2 0xC28 JUMPI DUP3 SWAP1 SUB PUSH1 0x1F AND DUP3 ADD SWAP2 JUMPDEST POP POP POP POP POP SWAP1 POP SWAP1 JUMP JUMPDEST PUSH2 0xC61 PUSH2 0xC5A PUSH2 0x1190 JUMP JUMPDEST DUP4 DUP4 PUSH2 0x1956 JUMP JUMPDEST POP POP JUMP JUMPDEST PUSH2 0xC6D PUSH2 0x1815 JUMP JUMPDEST PUSH1 0x1 PUSH1 0xA PUSH0 DUP4 PUSH20 0xFFFFFFFFFFFFFFFFFFFFFFFFFFFFFFFFFFFFFFFF AND PUSH20 0xFFFFFFFFFFFFFFFFFFFFFFFFFFFFFFFFFFFFFFFF AND DUP2 MSTORE PUSH1 0x20 ADD SWAP1 DUP2 MSTORE PUSH1 0x20 ADD PUSH0 KECCAK256 PUSH0 PUSH2 0x100 EXP DUP2 SLOAD DUP2 PUSH1 0xFF MUL NOT AND SWAP1 DUP4 ISZERO ISZERO MUL OR SWAP1 SSTORE POP DUP1 PUSH20 0xFFFFFFFFFFFFFFFFFFFFFFFFFFFFFFFFFFFFFFFF AND PUSH32 0xA8BB31534C0ED46F380CB867BD5C803A189CED9A764E30B3A4991A9901D7474 PUSH1 0x40 MLOAD PUSH1 0x40 MLOAD DUP1 SWAP2 SUB SWAP1 LOG2 POP JUMP JUMPDEST PUSH2 0xD19 PUSH2 0xD13 PUSH2 0x1190 JUMP JUMPDEST DUP4 PUSH2 0x1495 JUMP JUMPDEST PUSH2 0xD58 JUMPI PUSH1 0x40 MLOAD PUSH32 0x8C379A000000000000000000000000000000000000000000000000000000000 DUP2 MSTORE PUSH1 0x4 ADD PUSH2 0xD4F SWAP1 PUSH2 0x2A6A JUMP JUMPDEST PUSH1 0x40 MLOAD DUP1 SWAP2 SUB SWAP1 REVERT JUMPDEST PUSH2 0xD64 DUP5 DUP5 DUP5 DUP5 PUSH2 0x1ABD JUMP JUMPDEST POP POP POP POP JUMP JUMPDEST PUSH3 0x76A700 DUP2 JUMP JUMPDEST PUSH1 0x60 PUSH2 0xD7C DUP3 PUSH2 0x10C1 JUMP JUMPDEST PUSH0 PUSH2 0xD85 PUSH2 0x1B19 JUMP JUMPDEST SWAP1 POP PUSH0 DUP2 MLOAD GT PUSH2 0xDA3 JUMPI PUSH1 0x40 MLOAD DUP1 PUSH1 0x20 ADD PUSH1 0x40 MSTORE DUP1 PUSH0 DUP2 MSTORE POP PUSH2 0xDCE JUMP JUMPDEST DUP1 PUSH2 0xDAD DUP5 PUSH2 0x1B2F JUMP JUMPDEST PUSH1 0x40 MLOAD PUSH1 0x20 ADD PUSH2 0xDBE SWAP3 SWAP2 SWAP1 PUSH2 0x2EEE JUMP JUMPDEST PUSH1 0x40 MLOAD PUSH1 0x20 DUP2 DUP4 SUB SUB DUP2 MSTORE SWAP1 PUSH1 0x40 MSTORE JUMPDEST SWAP2 POP POP SWAP2 SWAP1 POP JUMP JUMPDEST PUSH2 0xDDE PUSH2 0x1815 JUMP JUMPDEST PUSH1 0x8 PUSH0 SWAP1 SLOAD SWAP1 PUSH2 0x100 EXP SWAP1 DIV PUSH20 0xFFFFFFFFFFFFFFFFFFFFFFFFFFFFFFFFFFFFFFFF AND PUSH20 0xFFFFFFFFFFFFFFFFFFFFFFFFFFFFFFFFFFFFFFFF AND PUSH4 0x54EE2090 PUSH1 0x9 SLOAD DUP4 PUSH1 0x40 MLOAD DUP4 PUSH4 0xFFFFFFFF AND PUSH1 0xE0 SHL DUP2 MSTORE PUSH1 0x4 ADD PUSH2 0xE3C SWAP3 SWAP2 SWAP1 PUSH2 0x2F11 JUMP JUMPDEST PUSH0 PUSH1 0x40 MLOAD DUP1 DUP4 SUB DUP2 PUSH0 DUP8 DUP1 EXTCODESIZE ISZERO DUP1 ISZERO PUSH2 0xE53 JUMPI PUSH0 DUP1 REVERT JUMPDEST POP GAS CALL ISZERO DUP1 ISZERO PUSH2 0xE65 JUMPI RETURNDATASIZE PUSH0 DUP1 RETURNDATACOPY RETURNDATASIZE PUSH0 REVERT JUMPDEST POP POP POP POP POP JUMP JUMPDEST PUSH1 0xA PUSH1 0x20 MSTORE DUP1 PUSH0 MSTORE PUSH1 0x40 PUSH0 KECCAK256 PUSH0 SWAP2 POP SLOAD SWAP1 PUSH2 0x100 EXP SWAP1 DIV PUSH1 0xFF AND DUP2 JUMP JUMPDEST PUSH1 0x9 SLOAD DUP2 JUMP JUMPDEST PUSH0 PUSH1 0x5 PUSH0 DUP5 PUSH20 0xFFFFFFFFFFFFFFFFFFFFFFFFFFFFFFFFFFFFFFFF AND PUSH20 0xFFFFFFFFFFFFFFFFFFFFFFFFFFFFFFFFFFFFFFFF AND DUP2 MSTORE PUSH1 0x20 ADD SWAP1 DUP2 MSTORE PUSH1 0x20 ADD PUSH0 KECCAK256 PUSH0 DUP4 PUSH20 0xFFFFFFFFFFFFFFFFFFFFFFFFFFFFFFFFFFFFFFFF AND PUSH20 0xFFFFFFFFFFFFFFFFFFFFFFFFFFFFFFFFFFFFFFFF AND DUP2 MSTORE PUSH1 0x20 ADD SWAP1 DUP2 MSTORE PUSH1 0x20 ADD PUSH0 KECCAK256 PUSH0 SWAP1 SLOAD SWAP1 PUSH2 0x100 EXP SWAP1 DIV PUSH1 0xFF AND SWAP1 POP SWAP3 SWAP2 POP POP JUMP JUMPDEST PUSH2 0xF25 PUSH2 0x1815 JUMP JUMPDEST PUSH0 PUSH20 0xFFFFFFFFFFFFFFFFFFFFFFFFFFFFFFFFFFFFFFFF AND DUP2 PUSH20 0xFFFFFFFFFFFFFFFFFFFFFFFFFFFFFFFFFFFFFFFF AND SUB PUSH2 0xF93 JUMPI PUSH1 0x40 MLOAD PUSH32 0x8C379A000000000000000000000000000000000000000000000000000000000 DUP2 MSTORE PUSH1 0x4 ADD PUSH2 0xF8A SWAP1 PUSH2 0x2FA8 JUMP JUMPDEST PUSH1 0x40 MLOAD DUP1 SWAP2 SUB SWAP1 REVERT JUMPDEST PUSH2 0xF9C DUP2 PUSH2 0x1893 JUMP JUMPDEST POP JUMP JUMPDEST PUSH2 0xFA7 PUSH2 0x1815 JUMP JUMPDEST PUSH0 PUSH1 0xA PUSH0 DUP4 PUSH20 0xFFFFFFFFFFFFFFFFFFFFFFFFFFFFFFFFFFFFFFFF AND PUSH20 0xFFFFFFFFFFFFFFFFFFFFFFFFFFFFFFFFFFFFFFFF AND DUP2 MSTORE PUSH1 0x20 ADD SWAP1 DUP2 MSTORE PUSH1 0x20 ADD PUSH0 KECCAK256 PUSH0 PUSH2 0x100 EXP DUP2 SLOAD DUP2 PUSH1 0xFF MUL NOT AND SWAP1 DUP4 ISZERO ISZERO MUL OR SWAP1 SSTORE POP DUP1 PUSH20 0xFFFFFFFFFFFFFFFFFFFFFFFFFFFFFFFFFFFFFFFF AND PUSH32 0x33D83959BE2573F5453B12EB9D43B3499BC57D96BD2F067BA44803C859E81113 PUSH1 0x40 MLOAD PUSH1 0x40 MLOAD DUP1 SWAP2 SUB SWAP1 LOG2 POP JUMP JUMPDEST PUSH0 PUSH2 0x104F DUP5 DUP5 DUP5 PUSH1 0x1 PUSH2 0x124D JUMP JUMPDEST SWAP1 POP SWAP4 SWAP3 POP POP POP JUMP JUMPDEST PUSH0 PUSH32 0x1FFC9A700000000000000000000000000000000000000000000000000000000 PUSH28 0xFFFFFFFFFFFFFFFFFFFFFFFFFFFFFFFFFFFFFFFFFFFFFFFFFFFFFFFF NOT AND DUP3 PUSH28 0xFFFFFFFFFFFFFFFFFFFFFFFFFFFFFFFFFFFFFFFFFFFFFFFFFFFFFFFF NOT AND EQ SWAP1 POP SWAP2 SWAP1 POP JUMP JUMPDEST PUSH2 0x10CA DUP2 PUSH2 0x1BF9 JUMP JUMPDEST PUSH2 0x1109 JUMPI PUSH1 0x40 MLOAD PUSH32 0x8C379A000000000000000000000000000000000000000000000000000000000 DUP2 MSTORE PUSH1 0x4 ADD PUSH2 0x1100 SWAP1 PUSH2 0x3010 JUMP JUMPDEST PUSH1 0x40 MLOAD DUP1 SWAP2 SUB SWAP1 REVERT JUMPDEST POP JUMP JUMPDEST PUSH0 DUP1 PUSH2 0x1117 DUP4 PUSH2 0x1C39 JUMP JUMPDEST SWAP1 POP PUSH0 PUSH20 0xFFFFFFFFFFFFFFFFFFFFFFFFFFFFFFFFFFFFFFFF AND DUP2 PUSH20 0xFFFFFFFFFFFFFFFFFFFFFFFFFFFFFFFFFFFFFFFF AND SUB PUSH2 0x1187 JUMPI PUSH1 0x40 MLOAD PUSH32 0x8C379A000000000000000000000000000000000000000000000000000000000 DUP2 MSTORE PUSH1 0x4 ADD PUSH2 0x117E SWAP1 PUSH2 0x3010 JUMP JUMPDEST PUSH1 0x40 MLOAD DUP1 SWAP2 SUB SWAP1 REVERT JUMPDEST DUP1 SWAP2 POP POP SWAP2 SWAP1 POP JUMP JUMPDEST PUSH0 CALLER SWAP1 POP SWAP1 JUMP JUMPDEST DUP2 PUSH1 0x4 PUSH0 DUP4 DUP2 MSTORE PUSH1 0x20 ADD SWAP1 DUP2 MSTORE PUSH1 0x20 ADD PUSH0 KECCAK256 PUSH0 PUSH2 0x100 EXP DUP2 SLOAD DUP2 PUSH20 0xFFFFFFFFFFFFFFFFFFFFFFFFFFFFFFFFFFFFFFFF MUL NOT AND SWAP1 DUP4 PUSH20 0xFFFFFFFFFFFFFFFFFFFFFFFFFFFFFFFFFFFFFFFF AND MUL OR SWAP1 SSTORE POP DUP1 DUP3 PUSH20 0xFFFFFFFFFFFFFFFFFFFFFFFFFFFFFFFFFFFFFFFF AND PUSH2 0x1207 DUP4 PUSH2 0x110C JUMP JUMPDEST PUSH20 0xFFFFFFFFFFFFFFFFFFFFFFFFFFFFFFFFFFFFFFFF AND PUSH32 0x8C5BE1E5EBEC7D5BD14F71427D1E84F3DD0314C0F7B2291E5B200AC8C7C3B925 PUSH1 0x40 MLOAD PUSH1 0x40 MLOAD DUP1 SWAP2 SUB SWAP1 LOG4 POP POP JUMP JUMPDEST PUSH0 ADDRESS PUSH20 0xFFFFFFFFFFFFFFFFFFFFFFFFFFFFFFFFFFFFFFFF AND PUSH1 0x8 PUSH0 SWAP1 SLOAD SWAP1 PUSH2 0x100 EXP SWAP1 DIV PUSH20 0xFFFFFFFFFFFFFFFFFFFFFFFFFFFFFFFFFFFFFFFF AND PUSH20 0xFFFFFFFFFFFFFFFFFFFFFFFFFFFFFFFFFFFFFFFF AND PUSH4 0x2571BE3 PUSH1 0x9 SLOAD PUSH1 0x40 MLOAD DUP3 PUSH4 0xFFFFFFFF AND PUSH1 0xE0 SHL DUP2 MSTORE PUSH1 0x4 ADD PUSH2 0x12C1 SWAP2 SWAP1 PUSH2 0x282A JUMP JUMPDEST PUSH1 0x20 PUSH1 0x40 MLOAD DUP1 DUP4 SUB DUP2 DUP7 GAS STATICCALL ISZERO DUP1 ISZERO PUSH2 0x12DC JUMPI RETURNDATASIZE PUSH0 DUP1 RETURNDATACOPY RETURNDATASIZE PUSH0 REVERT JUMPDEST POP POP POP POP PUSH1 0x40 MLOAD RETURNDATASIZE PUSH1 0x1F NOT PUSH1 0x1F DUP3 ADD AND DUP3 ADD DUP1 PUSH1 0x40 MSTORE POP DUP2 ADD SWAP1 PUSH2 0x1300 SWAP2 SWAP1 PUSH2 0x2A9C JUMP JUMPDEST PUSH20 0xFFFFFFFFFFFFFFFFFFFFFFFFFFFFFFFFFFFFFFFF AND EQ PUSH2 0x131F JUMPI PUSH0 DUP1 REVERT JUMPDEST PUSH1 0xA PUSH0 CALLER PUSH20 0xFFFFFFFFFFFFFFFFFFFFFFFFFFFFFFFFFFFFFFFF AND PUSH20 0xFFFFFFFFFFFFFFFFFFFFFFFFFFFFFFFFFFFFFFFF AND DUP2 MSTORE PUSH1 0x20 ADD SWAP1 DUP2 MSTORE PUSH1 0x20 ADD PUSH0 KECCAK256 PUSH0 SWAP1 SLOAD SWAP1 PUSH2 0x100 EXP SWAP1 DIV PUSH1 0xFF AND PUSH2 0x1371 JUMPI PUSH0 DUP1 REVERT JUMPDEST PUSH2 0x137B DUP5 DUP7 PUSH2 0x1C72 JUMP JUMPDEST DUP2 ISZERO PUSH2 0x1425 JUMPI PUSH1 0x8 PUSH0 SWAP1 SLOAD SWAP1 PUSH2 0x100 EXP SWAP1 DIV PUSH20 0xFFFFFFFFFFFFFFFFFFFFFFFFFFFFFFFFFFFFFFFF AND PUSH20 0xFFFFFFFFFFFFFFFFFFFFFFFFFFFFFFFFFFFFFFFF AND PUSH4 0x6AB5923 PUSH1 0x9 SLOAD DUP8 PUSH0 SHL DUP8 PUSH1 0x40 MLOAD DUP5 PUSH4 0xFFFFFFFF AND PUSH1 0xE0 SHL DUP2 MSTORE PUSH1 0x4 ADD PUSH2 0x13E3 SWAP4 SWAP3 SWAP2 SWAP1 PUSH2 0x2AC7 JUMP JUMPDEST PUSH1 0x20 PUSH1 0x40 MLOAD DUP1 DUP4 SUB DUP2 PUSH0 DUP8 GAS CALL ISZERO DUP1 ISZERO PUSH2 0x13FF JUMPI RETURNDATASIZE PUSH0 DUP1 RETURNDATACOPY RETURNDATASIZE PUSH0 REVERT JUMPDEST POP POP POP POP PUSH1 0x40 MLOAD RETURNDATASIZE PUSH1 0x1F NOT PUSH1 0x1F DUP3 ADD AND DUP3 ADD DUP1 PUSH1 0x40 MSTORE POP DUP2 ADD SWAP1 PUSH2 0x1423 SWAP2 SWAP1 PUSH2 0x2B26 JUMP JUMPDEST POP JUMPDEST DUP4 PUSH20 0xFFFFFFFFFFFFFFFFFFFFFFFFFFFFFFFFFFFFFFFF AND DUP6 PUSH32 0xB3D987963D01B2F68493B4BDB130988F157EA43070D4AD840FEE0466ED9370D9 DUP6 TIMESTAMP PUSH2 0x146A SWAP2 SWAP1 PUSH2 0x305B JUMP JUMPDEST PUSH1 0x40 MLOAD PUSH2 0x1477 SWAP2 SWAP1 PUSH2 0x2471 JUMP JUMPDEST PUSH1 0x40 MLOAD DUP1 SWAP2 SUB SWAP1 LOG3 DUP3 TIMESTAMP PUSH2 0x148B SWAP2 SWAP1 PUSH2 0x305B JUMP JUMPDEST SWAP1 POP SWAP5 SWAP4 POP POP POP POP JUMP JUMPDEST PUSH0 DUP1 PUSH2 0x14A0 DUP4 PUSH2 0xA34 JUMP JUMPDEST SWAP1 POP DUP1 PUSH20 0xFFFFFFFFFFFFFFFFFFFFFFFFFFFFFFFFFFFFFFFF AND DUP5 PUSH20 0xFFFFFFFFFFFFFFFFFFFFFFFFFFFFFFFFFFFFFFFF AND EQ DUP1 PUSH2 0x150F JUMPI POP DUP4 PUSH20 0xFFFFFFFFFFFFFFFFFFFFFFFFFFFFFFFFFFFFFFFF AND PUSH2 0x14F7 DUP5 PUSH2 0x6BD JUMP JUMPDEST PUSH20 0xFFFFFFFFFFFFFFFFFFFFFFFFFFFFFFFFFFFFFFFF AND EQ JUMPDEST DUP1 PUSH2 0x1520 JUMPI POP PUSH2 0x151F DUP2 DUP6 PUSH2 0xE8F JUMP JUMPDEST JUMPDEST SWAP2 POP POP SWAP3 SWAP2 POP POP JUMP JUMPDEST DUP3 PUSH20 0xFFFFFFFFFFFFFFFFFFFFFFFFFFFFFFFFFFFFFFFF AND PUSH2 0x1549 DUP3 PUSH2 0x110C JUMP JUMPDEST PUSH20 0xFFFFFFFFFFFFFFFFFFFFFFFFFFFFFFFFFFFFFFFF AND EQ PUSH2 0x159F JUMPI PUSH1 0x40 MLOAD PUSH32 0x8C379A000000000000000000000000000000000000000000000000000000000 DUP2 MSTORE PUSH1 0x4 ADD PUSH2 0x1596 SWAP1 PUSH2 0x30FE JUMP JUMPDEST PUSH1 0x40 MLOAD DUP1 SWAP2 SUB SWAP1 REVERT JUMPDEST PUSH0 PUSH20 0xFFFFFFFFFFFFFFFFFFFFFFFFFFFFFFFFFFFFFFFF AND DUP3 PUSH20 0xFFFFFFFFFFFFFFFFFFFFFFFFFFFFFFFFFFFFFFFF AND SUB PUSH2 0x160D JUMPI PUSH1 0x40 MLOAD PUSH32 0x8C379A000000000000000000000000000000000000000000000000000000000 DUP2 MSTORE PUSH1 0x4 ADD PUSH2 0x1604 SWAP1 PUSH2 0x318C JUMP JUMPDEST PUSH1 0x40 MLOAD DUP1 SWAP2 SUB SWAP1 REVERT JUMPDEST PUSH2 0x161A DUP4 DUP4 DUP4 PUSH1 0x1 PUSH2 0x1E85 JUMP JUMPDEST DUP3 PUSH20 0xFFFFFFFFFFFFFFFFFFFFFFFFFFFFFFFFFFFFFFFF AND PUSH2 0x163A DUP3 PUSH2 0x110C JUMP JUMPDEST PUSH20 0xFFFFFFFFFFFFFFFFFFFFFFFFFFFFFFFFFFFFFFFF AND EQ PUSH2 0x1690 JUMPI PUSH1 0x40 MLOAD PUSH32 0x8C379A000000000000000000000000000000000000000000000000000000000 DUP2 MSTORE PUSH1 0x4 ADD PUSH2 0x1687 SWAP1 PUSH2 0x30FE JUMP JUMPDEST PUSH1 0x40 MLOAD DUP1 SWAP2 SUB SWAP1 REVERT JUMPDEST PUSH1 0x4 PUSH0 DUP3 DUP2 MSTORE PUSH1 0x20 ADD SWAP1 DUP2 MSTORE PUSH1 0x20 ADD PUSH0 KECCAK256 PUSH0 PUSH2 0x100 EXP DUP2 SLOAD SWAP1 PUSH20 0xFFFFFFFFFFFFFFFFFFFFFFFFFFFFFFFFFFFFFFFF MUL NOT AND SWAP1 SSTORE PUSH1 0x1 PUSH1 0x3 PUSH0 DUP6 PUSH20 0xFFFFFFFFFFFFFFFFFFFFFFFFFFFFFFFFFFFFFFFF AND PUSH20 0xFFFFFFFFFFFFFFFFFFFFFFFFFFFFFFFFFFFFFFFF AND DUP2 MSTORE PUSH1 0x20 ADD SWAP1 DUP2 MSTORE PUSH1 0x20 ADD PUSH0 KECCAK256 PUSH0 DUP3 DUP3 SLOAD SUB SWAP3 POP POP DUP2 SWAP1 SSTORE POP PUSH1 0x1 PUSH1 0x3 PUSH0 DUP5 PUSH20 0xFFFFFFFFFFFFFFFFFFFFFFFFFFFFFFFFFFFFFFFF AND PUSH20 0xFFFFFFFFFFFFFFFFFFFFFFFFFFFFFFFFFFFFFFFF AND DUP2 MSTORE PUSH1 0x20 ADD SWAP1 DUP2 MSTORE PUSH1 0x20 ADD PUSH0 KECCAK256 PUSH0 DUP3 DUP3 SLOAD ADD SWAP3 POP POP DUP2 SWAP1 SSTORE POP DUP2 PUSH1 0x2 PUSH0 DUP4 DUP2 MSTORE PUSH1 0x20 ADD SWAP1 DUP2 MSTORE PUSH1 0x20 ADD PUSH0 KECCAK256 PUSH0 PUSH2 0x100 EXP DUP2 SLOAD DUP2 PUSH20 0xFFFFFFFFFFFFFFFFFFFFFFFFFFFFFFFFFFFFFFFF MUL NOT AND SWAP1 DUP4 PUSH20 0xFFFFFFFFFFFFFFFFFFFFFFFFFFFFFFFFFFFFFFFF AND MUL OR SWAP1 SSTORE POP DUP1 DUP3 PUSH20 0xFFFFFFFFFFFFFFFFFFFFFFFFFFFFFFFFFFFFFFFF AND DUP5 PUSH20 0xFFFFFFFFFFFFFFFFFFFFFFFFFFFFFFFFFFFFFFFF AND PUSH32 0xDDF252AD1BE2C89B69C2B068FC378DAA952BA7F163C4A11628F55A4DF523B3EF PUSH1 0x40 MLOAD PUSH1 0x40 MLOAD DUP1 SWAP2 SUB SWAP1 LOG4 PUSH2 0x1810 DUP4 DUP4 DUP4 PUSH1 0x1 PUSH2 0x1E8B JUMP JUMPDEST POP POP POP JUMP JUMPDEST PUSH2 0x181D PUSH2 0x1190 JUMP JUMPDEST PUSH20 0xFFFFFFFFFFFFFFFFFFFFFFFFFFFFFFFFFFFFFFFF AND PUSH2 0x183B PUSH2 0xB97 JUMP JUMPDEST PUSH20 0xFFFFFFFFFFFFFFFFFFFFFFFFFFFFFFFFFFFFFFFF AND EQ PUSH2 0x1891 JUMPI PUSH1 0x40 MLOAD PUSH32 0x8C379A000000000000000000000000000000000000000000000000000000000 DUP2 MSTORE PUSH1 0x4 ADD PUSH2 0x1888 SWAP1 PUSH2 0x31F4 JUMP JUMPDEST PUSH1 0x40 MLOAD DUP1 SWAP2 SUB SWAP1 REVERT JUMPDEST JUMP JUMPDEST PUSH0 PUSH1 0x6 PUSH0 SWAP1 SLOAD SWAP1 PUSH2 0x100 EXP SWAP1 DIV PUSH20 0xFFFFFFFFFFFFFFFFFFFFFFFFFFFFFFFFFFFFFFFF AND SWAP1 POP DUP2 PUSH1 0x6 PUSH0 PUSH2 0x100 EXP DUP2 SLOAD DUP2 PUSH20 0xFFFFFFFFFFFFFFFFFFFFFFFFFFFFFFFFFFFFFFFF MUL NOT AND SWAP1 DUP4 PUSH20 0xFFFFFFFFFFFFFFFFFFFFFFFFFFFFFFFFFFFFFFFF AND MUL OR SWAP1 SSTORE POP DUP2 PUSH20 0xFFFFFFFFFFFFFFFFFFFFFFFFFFFFFFFFFFFFFFFF AND DUP2 PUSH20 0xFFFFFFFFFFFFFFFFFFFFFFFFFFFFFFFFFFFFFFFF AND PUSH32 0x8BE0079C531659141344CD1FD0A4F28419497F9722A3DAAFE3B4186F6B6457E0 PUSH1 0x40 MLOAD PUSH1 0x40 MLOAD DUP1 SWAP2 SUB SWAP1 LOG3 POP POP JUMP JUMPDEST DUP2 PUSH20 0xFFFFFFFFFFFFFFFFFFFFFFFFFFFFFFFFFFFFFFFF AND DUP4 PUSH20 0xFFFFFFFFFFFFFFFFFFFFFFFFFFFFFFFFFFFFFFFF AND SUB PUSH2 0x19C4 JUMPI PUSH1 0x40 MLOAD PUSH32 0x8C379A000000000000000000000000000000000000000000000000000000000 DUP2 MSTORE PUSH1 0x4 ADD PUSH2 0x19BB SWAP1 PUSH2 0x325C JUMP JUMPDEST PUSH1 0x40 MLOAD DUP1 SWAP2 SUB SWAP1 REVERT JUMPDEST DUP1 PUSH1 0x5 PUSH0 DUP6 PUSH20 0xFFFFFFFFFFFFFFFFFFFFFFFFFFFFFFFFFFFFFFFF AND PUSH20 0xFFFFFFFFFFFFFFFFFFFFFFFFFFFFFFFFFFFFFFFF AND DUP2 MSTORE PUSH1 0x20 ADD SWAP1 DUP2 MSTORE PUSH1 0x20 ADD PUSH0 KECCAK256 PUSH0 DUP5 PUSH20 0xFFFFFFFFFFFFFFFFFFFFFFFFFFFFFFFFFFFFFFFF AND PUSH20 0xFFFFFFFFFFFFFFFFFFFFFFFFFFFFFFFFFFFFFFFF AND DUP2 MSTORE PUSH1 0x20 ADD SWAP1 DUP2 MSTORE PUSH1 0x20 ADD PUSH0 KECCAK256 PUSH0 PUSH2 0x100 EXP DUP2 SLOAD DUP2 PUSH1 0xFF MUL NOT AND SWAP1 DUP4 ISZERO ISZERO MUL OR SWAP1 SSTORE POP DUP2 PUSH20 0xFFFFFFFFFFFFFFFFFFFFFFFFFFFFFFFFFFFFFFFF AND DUP4 PUSH20 0xFFFFFFFFFFFFFFFFFFFFFFFFFFFFFFFFFFFFFFFF AND PUSH32 0x17307EAB39AB6107E8899845AD3D59BD9653F200F220920489CA2B5937696C31 DUP4 PUSH1 0x40 MLOAD PUSH2 0x1AB0 SWAP2 SWAP1 PUSH2 0x2231 JUMP JUMPDEST PUSH1 0x40 MLOAD DUP1 SWAP2 SUB SWAP1 LOG3 POP POP POP JUMP JUMPDEST PUSH2 0x1AC8 DUP5 DUP5 DUP5 PUSH2 0x1529 JUMP JUMPDEST PUSH2 0x1AD4 DUP5 DUP5 DUP5 DUP5 PUSH2 0x1E91 JUMP JUMPDEST PUSH2 0x1B13 JUMPI PUSH1 0x40 MLOAD PUSH32 0x8C379A000000000000000000000000000000000000000000000000000000000 DUP2 MSTORE PUSH1 0x4 ADD PUSH2 0x1B0A SWAP1 PUSH2 0x32EA JUMP JUMPDEST PUSH1 0x40 MLOAD DUP1 SWAP2 SUB SWAP1 REVERT JUMPDEST POP POP POP POP JUMP JUMPDEST PUSH1 0x60 PUSH1 0x40 MLOAD DUP1 PUSH1 0x20 ADD PUSH1 0x40 MSTORE DUP1 PUSH0 DUP2 MSTORE POP SWAP1 POP SWAP1 JUMP JUMPDEST PUSH1 0x60 PUSH0 PUSH1 0x1 PUSH2 0x1B3D DUP5 PUSH2 0x2013 JUMP JUMPDEST ADD SWAP1 POP PUSH0 DUP2 PUSH8 0xFFFFFFFFFFFFFFFF DUP2 GT ISZERO PUSH2 0x1B5B JUMPI PUSH2 0x1B5A PUSH2 0x2520 JUMP JUMPDEST JUMPDEST PUSH1 0x40 MLOAD SWAP1 DUP1 DUP3 MSTORE DUP1 PUSH1 0x1F ADD PUSH1 0x1F NOT AND PUSH1 0x20 ADD DUP3 ADD PUSH1 0x40 MSTORE DUP1 ISZERO PUSH2 0x1B8D JUMPI DUP2 PUSH1 0x20 ADD PUSH1 0x1 DUP3 MUL DUP1 CALLDATASIZE DUP4 CALLDATACOPY DUP1 DUP3 ADD SWAP2 POP POP SWAP1 POP JUMPDEST POP SWAP1 POP PUSH0 DUP3 PUSH1 0x20 ADD DUP3 ADD SWAP1 POP JUMPDEST PUSH1 0x1 ISZERO PUSH2 0x1BEE JUMPI DUP1 DUP1 PUSH1 0x1 SWAP1 SUB SWAP2 POP POP PUSH32 0x3031323334353637383961626364656600000000000000000000000000000000 PUSH1 0xA DUP7 MOD BYTE DUP2 MSTORE8 PUSH1 0xA DUP6 DUP2 PUSH2 0x1BE3 JUMPI PUSH2 0x1BE2 PUSH2 0x3308 JUMP JUMPDEST JUMPDEST DIV SWAP5 POP PUSH0 DUP6 SUB PUSH2 0x1B9A JUMPI JUMPDEST DUP2 SWAP4 POP POP POP POP SWAP2 SWAP1 POP JUMP JUMPDEST PUSH0 DUP1 PUSH20 0xFFFFFFFFFFFFFFFFFFFFFFFFFFFFFFFFFFFFFFFF AND PUSH2 0x1C1A DUP4 PUSH2 0x1C39 JUMP JUMPDEST PUSH20 0xFFFFFFFFFFFFFFFFFFFFFFFFFFFFFFFFFFFFFFFF AND EQ ISZERO SWAP1 POP SWAP2 SWAP1 POP JUMP JUMPDEST PUSH0 PUSH1 0x2 PUSH0 DUP4 DUP2 MSTORE PUSH1 0x20 ADD SWAP1 DUP2 MSTORE PUSH1 0x20 ADD PUSH0 KECCAK256 PUSH0 SWAP1 SLOAD SWAP1 PUSH2 0x100 EXP SWAP1 DIV PUSH20 0xFFFFFFFFFFFFFFFFFFFFFFFFFFFFFFFFFFFFFFFF AND SWAP1 POP SWAP2 SWAP1 POP JUMP JUMPDEST PUSH0 PUSH20 0xFFFFFFFFFFFFFFFFFFFFFFFFFFFFFFFFFFFFFFFF AND DUP3 PUSH20 0xFFFFFFFFFFFFFFFFFFFFFFFFFFFFFFFFFFFFFFFF AND SUB PUSH2 0x1CE0 JUMPI PUSH1 0x40 MLOAD PUSH32 0x8C379A000000000000000000000000000000000000000000000000000000000 DUP2 MSTORE PUSH1 0x4 ADD PUSH2 0x1CD7 SWAP1 PUSH2 0x337F JUMP JUMPDEST PUSH1 0x40 MLOAD DUP1 SWAP2 SUB SWAP1 REVERT JUMPDEST PUSH2 0x1CE9 DUP2 PUSH2 0x1BF9 JUMP JUMPDEST ISZERO PUSH2 0x1D29 JUMPI PUSH1 0x40 MLOAD PUSH32 0x8C379A000000000000000000000000000000000000000000000000000000000 DUP2 MSTORE PUSH1 0x4 ADD PUSH2 0x1D20 SWAP1 PUSH2 0x33E7 JUMP JUMPDEST PUSH1 0x40 MLOAD DUP1 SWAP2 SUB SWAP1 REVERT JUMPDEST PUSH2 0x1D36 PUSH0 DUP4 DUP4 PUSH1 0x1 PUSH2 0x1E85 JUMP JUMPDEST PUSH2 0x1D3F DUP2 PUSH2 0x1BF9 JUMP JUMPDEST ISZERO PUSH2 0x1D7F JUMPI PUSH1 0x40 MLOAD PUSH32 0x8C379A000000000000000000000000000000000000000000000000000000000 DUP2 MSTORE PUSH1 0x4 ADD PUSH2 0x1D76 SWAP1 PUSH2 0x33E7 JUMP JUMPDEST PUSH1 0x40 MLOAD DUP1 SWAP2 SUB SWAP1 REVERT JUMPDEST PUSH1 0x1 PUSH1 0x3 PUSH0 DUP5 PUSH20 0xFFFFFFFFFFFFFFFFFFFFFFFFFFFFFFFFFFFFFFFF AND PUSH20 0xFFFFFFFFFFFFFFFFFFFFFFFFFFFFFFFFFFFFFFFF AND DUP2 MSTORE PUSH1 0x20 ADD SWAP1 DUP2 MSTORE PUSH1 0x20 ADD PUSH0 KECCAK256 PUSH0 DUP3 DUP3 SLOAD ADD SWAP3 POP POP DUP2 SWAP1 SSTORE POP DUP2 PUSH1 0x2 PUSH0 DUP4 DUP2 MSTORE PUSH1 0x20 ADD SWAP1 DUP2 MSTORE PUSH1 0x20 ADD PUSH0 KECCAK256 PUSH0 PUSH2 0x100 EXP DUP2 SLOAD DUP2 PUSH20 0xFFFFFFFFFFFFFFFFFFFFFFFFFFFFFFFFFFFFFFFF MUL NOT AND SWAP1 DUP4 PUSH20 0xFFFFFFFFFFFFFFFFFFFFFFFFFFFFFFFFFFFFFFFF AND MUL OR SWAP1 SSTORE POP DUP1 DUP3 PUSH20 0xFFFFFFFFFFFFFFFFFFFFFFFFFFFFFFFFFFFFFFFF AND PUSH0 PUSH20 0xFFFFFFFFFFFFFFFFFFFFFFFFFFFFFFFFFFFFFFFF AND PUSH32 0xDDF252AD1BE2C89B69C2B068FC378DAA952BA7F163C4A11628F55A4DF523B3EF PUSH1 0x40 MLOAD PUSH1 0x40 MLOAD DUP1 SWAP2 SUB SWAP1 LOG4 PUSH2 0x1E81 PUSH0 DUP4 DUP4 PUSH1 0x1 PUSH2 0x1E8B JUMP JUMPDEST POP POP JUMP JUMPDEST POP POP POP POP JUMP JUMPDEST POP POP POP POP JUMP JUMPDEST PUSH0 PUSH2 0x1EB1 DUP5 PUSH20 0xFFFFFFFFFFFFFFFFFFFFFFFFFFFFFFFFFFFFFFFF AND PUSH2 0x2164 JUMP JUMPDEST ISZERO PUSH2 0x2006 JUMPI DUP4 PUSH20 0xFFFFFFFFFFFFFFFFFFFFFFFFFFFFFFFFFFFFFFFF AND PUSH4 0x150B7A02 PUSH2 0x1EDA PUSH2 0x1190 JUMP JUMPDEST DUP8 DUP7 DUP7 PUSH1 0x40 MLOAD DUP6 PUSH4 0xFFFFFFFF AND PUSH1 0xE0 SHL DUP2 MSTORE PUSH1 0x4 ADD PUSH2 0x1EFC SWAP5 SWAP4 SWAP3 SWAP2 SWAP1 PUSH2 0x3405 JUMP JUMPDEST PUSH1 0x20 PUSH1 0x40 MLOAD DUP1 DUP4 SUB DUP2 PUSH0 DUP8 GAS CALL SWAP3 POP POP POP DUP1 ISZERO PUSH2 0x1F37 JUMPI POP PUSH1 0x40 MLOAD RETURNDATASIZE PUSH1 0x1F NOT PUSH1 0x1F DUP3 ADD AND DUP3 ADD DUP1 PUSH1 0x40 MSTORE POP DUP2 ADD SWAP1 PUSH2 0x1F34 SWAP2 SWAP1 PUSH2 0x3463 JUMP JUMPDEST PUSH1 0x1 JUMPDEST PUSH2 0x1FB6 JUMPI RETURNDATASIZE DUP1 PUSH0 DUP2 EQ PUSH2 0x1F65 JUMPI PUSH1 0x40 MLOAD SWAP2 POP PUSH1 0x1F NOT PUSH1 0x3F RETURNDATASIZE ADD AND DUP3 ADD PUSH1 0x40 MSTORE RETURNDATASIZE DUP3 MSTORE RETURNDATASIZE PUSH0 PUSH1 0x20 DUP5 ADD RETURNDATACOPY PUSH2 0x1F6A JUMP JUMPDEST PUSH1 0x60 SWAP2 POP JUMPDEST POP PUSH0 DUP2 MLOAD SUB PUSH2 0x1FAE JUMPI PUSH1 0x40 MLOAD PUSH32 0x8C379A000000000000000000000000000000000000000000000000000000000 DUP2 MSTORE PUSH1 0x4 ADD PUSH2 0x1FA5 SWAP1 PUSH2 0x32EA JUMP JUMPDEST PUSH1 0x40 MLOAD DUP1 SWAP2 SUB SWAP1 REVERT JUMPDEST DUP1 MLOAD DUP2 PUSH1 0x20 ADD REVERT JUMPDEST PUSH4 0x150B7A02 PUSH1 0xE0 SHL PUSH28 0xFFFFFFFFFFFFFFFFFFFFFFFFFFFFFFFFFFFFFFFFFFFFFFFFFFFFFFFF NOT AND DUP2 PUSH28 0xFFFFFFFFFFFFFFFFFFFFFFFFFFFFFFFFFFFFFFFFFFFFFFFFFFFFFFFF NOT AND EQ SWAP2 POP POP PUSH2 0x200B JUMP JUMPDEST PUSH1 0x1 SWAP1 POP JUMPDEST SWAP5 SWAP4 POP POP POP POP JUMP JUMPDEST PUSH0 DUP1 PUSH0 SWAP1 POP PUSH27 0x184F03E93FF9F4DAA797ED6E38ED64BF6A1F010000000000000000 DUP4 LT PUSH2 0x206F JUMPI PUSH27 0x184F03E93FF9F4DAA797ED6E38ED64BF6A1F010000000000000000 DUP4 DUP2 PUSH2 0x2065 JUMPI PUSH2 0x2064 PUSH2 0x3308 JUMP JUMPDEST JUMPDEST DIV SWAP3 POP PUSH1 0x40 DUP2 ADD SWAP1 POP JUMPDEST PUSH14 0x4EE2D6D415B85ACEF8100000000 DUP4 LT PUSH2 0x20AC JUMPI PUSH14 0x4EE2D6D415B85ACEF8100000000 DUP4 DUP2 PUSH2 0x20A2 JUMPI PUSH2 0x20A1 PUSH2 0x3308 JUMP JUMPDEST JUMPDEST DIV SWAP3 POP PUSH1 0x20 DUP2 ADD SWAP1 POP JUMPDEST PUSH7 0x2386F26FC10000 DUP4 LT PUSH2 0x20DB JUMPI PUSH7 0x2386F26FC10000 DUP4 DUP2 PUSH2 0x20D1 JUMPI PUSH2 0x20D0 PUSH2 0x3308 JUMP JUMPDEST JUMPDEST DIV SWAP3 POP PUSH1 0x10 DUP2 ADD SWAP1 POP JUMPDEST PUSH4 0x5F5E100 DUP4 LT PUSH2 0x2104 JUMPI PUSH4 0x5F5E100 DUP4 DUP2 PUSH2 0x20FA JUMPI PUSH2 0x20F9 PUSH2 0x3308 JUMP JUMPDEST JUMPDEST DIV SWAP3 POP PUSH1 0x8 DUP2 ADD SWAP1 POP JUMPDEST PUSH2 0x2710 DUP4 LT PUSH2 0x2129 JUMPI PUSH2 0x2710 DUP4 DUP2 PUSH2 0x211F JUMPI PUSH2 0x211E PUSH2 0x3308 JUMP JUMPDEST JUMPDEST DIV SWAP3 POP PUSH1 0x4 DUP2 ADD SWAP1 POP JUMPDEST PUSH1 0x64 DUP4 LT PUSH2 0x214C JUMPI PUSH1 0x64 DUP4 DUP2 PUSH2 0x2142 JUMPI PUSH2 0x2141 PUSH2 0x3308 JUMP JUMPDEST JUMPDEST DIV SWAP3 POP PUSH1 0x2 DUP2 ADD SWAP1 POP JUMPDEST PUSH1 0xA DUP4 LT PUSH2 0x215B JUMPI PUSH1 0x1 DUP2 ADD SWAP1 POP JUMPDEST DUP1 SWAP2 POP POP SWAP2 SWAP1 POP JUMP JUMPDEST PUSH0 DUP1 DUP3 PUSH20 0xFFFFFFFFFFFFFFFFFFFFFFFFFFFFFFFFFFFFFFFF AND EXTCODESIZE GT SWAP1 POP SWAP2 SWAP1 POP JUMP JUMPDEST PUSH0 PUSH1 0x40 MLOAD SWAP1 POP SWAP1 JUMP JUMPDEST PUSH0 DUP1 REVERT JUMPDEST PUSH0 DUP1 REVERT JUMPDEST PUSH0 PUSH32 0xFFFFFFFF00000000000000000000000000000000000000000000000000000000 DUP3 AND SWAP1 POP SWAP2 SWAP1 POP JUMP JUMPDEST PUSH2 0x21CB DUP2 PUSH2 0x2197 JUMP JUMPDEST DUP2 EQ PUSH2 0x21D5 JUMPI PUSH0 DUP1 REVERT JUMPDEST POP JUMP JUMPDEST PUSH0 DUP2 CALLDATALOAD SWAP1 POP PUSH2 0x21E6 DUP2 PUSH2 0x21C2 JUMP JUMPDEST SWAP3 SWAP2 POP POP JUMP JUMPDEST PUSH0 PUSH1 0x20 DUP3 DUP5 SUB SLT ISZERO PUSH2 0x2201 JUMPI PUSH2 0x2200 PUSH2 0x218F JUMP JUMPDEST JUMPDEST PUSH0 PUSH2 0x220E DUP5 DUP3 DUP6 ADD PUSH2 0x21D8 JUMP JUMPDEST SWAP2 POP POP SWAP3 SWAP2 POP POP JUMP JUMPDEST PUSH0 DUP2 ISZERO ISZERO SWAP1 POP SWAP2 SWAP1 POP JUMP JUMPDEST PUSH2 0x222B DUP2 PUSH2 0x2217 JUMP JUMPDEST DUP3 MSTORE POP POP JUMP JUMPDEST PUSH0 PUSH1 0x20 DUP3 ADD SWAP1 POP PUSH2 0x2244 PUSH0 DUP4 ADD DUP5 PUSH2 0x2222 JUMP JUMPDEST SWAP3 SWAP2 POP POP JUMP JUMPDEST PUSH0 DUP2 MLOAD SWAP1 POP SWAP2 SWAP1 POP JUMP JUMPDEST PUSH0 DUP3 DUP3 MSTORE PUSH1 0x20 DUP3 ADD SWAP1 POP SWAP3 SWAP2 POP POP JUMP JUMPDEST PUSH0 JUMPDEST DUP4 DUP2 LT ISZERO PUSH2 0x2281 JUMPI DUP1 DUP3 ADD MLOAD DUP2 DUP5 ADD MSTORE PUSH1 0x20 DUP2 ADD SWAP1 POP PUSH2 0x2266 JUMP JUMPDEST PUSH0 DUP5 DUP5 ADD MSTORE POP POP POP POP JUMP JUMPDEST PUSH0 PUSH1 0x1F NOT PUSH1 0x1F DUP4 ADD AND SWAP1 POP SWAP2 SWAP1 POP JUMP JUMPDEST PUSH0 PUSH2 0x22A6 DUP3 PUSH2 0x224A JUMP JUMPDEST PUSH2 0x22B0 DUP2 DUP6 PUSH2 0x2254 JUMP JUMPDEST SWAP4 POP PUSH2 0x22C0 DUP2 DUP6 PUSH1 0x20 DUP7 ADD PUSH2 0x2264 JUMP JUMPDEST PUSH2 0x22C9 DUP2 PUSH2 0x228C JUMP JUMPDEST DUP5 ADD SWAP2 POP POP SWAP3 SWAP2 POP POP JUMP JUMPDEST PUSH0 PUSH1 0x20 DUP3 ADD SWAP1 POP DUP2 DUP2 SUB PUSH0 DUP4 ADD MSTORE PUSH2 0x22EC DUP2 DUP5 PUSH2 0x229C JUMP JUMPDEST SWAP1 POP SWAP3 SWAP2 POP POP JUMP JUMPDEST PUSH0 DUP2 SWAP1 POP SWAP2 SWAP1 POP JUMP JUMPDEST PUSH2 0x2306 DUP2 PUSH2 0x22F4 JUMP JUMPDEST DUP2 EQ PUSH2 0x2310 JUMPI PUSH0 DUP1 REVERT JUMPDEST POP JUMP JUMPDEST PUSH0 DUP2 CALLDATALOAD SWAP1 POP PUSH2 0x2321 DUP2 PUSH2 0x22FD JUMP JUMPDEST SWAP3 SWAP2 POP POP JUMP JUMPDEST PUSH0 PUSH1 0x20 DUP3 DUP5 SUB SLT ISZERO PUSH2 0x233C JUMPI PUSH2 0x233B PUSH2 0x218F JUMP JUMPDEST JUMPDEST PUSH0 PUSH2 0x2349 DUP5 DUP3 DUP6 ADD PUSH2 0x2313 JUMP JUMPDEST SWAP2 POP POP SWAP3 SWAP2 POP POP JUMP JUMPDEST PUSH0 PUSH20 0xFFFFFFFFFFFFFFFFFFFFFFFFFFFFFFFFFFFFFFFF DUP3 AND SWAP1 POP SWAP2 SWAP1 POP JUMP JUMPDEST PUSH0 PUSH2 0x237B DUP3 PUSH2 0x2352 JUMP JUMPDEST SWAP1 POP SWAP2 SWAP1 POP JUMP JUMPDEST PUSH2 0x238B DUP2 PUSH2 0x2371 JUMP JUMPDEST DUP3 MSTORE POP POP JUMP JUMPDEST PUSH0 PUSH1 0x20 DUP3 ADD SWAP1 POP PUSH2 0x23A4 PUSH0 DUP4 ADD DUP5 PUSH2 0x2382 JUMP JUMPDEST SWAP3 SWAP2 POP POP JUMP JUMPDEST PUSH2 0x23B3 DUP2 PUSH2 0x2371 JUMP JUMPDEST DUP2 EQ PUSH2 0x23BD JUMPI PUSH0 DUP1 REVERT JUMPDEST POP JUMP JUMPDEST PUSH0 DUP2 CALLDATALOAD SWAP1 POP PUSH2 0x23CE DUP2 PUSH2 0x23AA JUMP JUMPDEST SWAP3 SWAP2 POP POP JUMP JUMPDEST PUSH0 DUP1 PUSH1 0x40 DUP4 DUP6 SUB SLT ISZERO PUSH2 0x23EA JUMPI PUSH2 0x23E9 PUSH2 0x218F JUMP JUMPDEST JUMPDEST PUSH0 PUSH2 0x23F7 DUP6 DUP3 DUP7 ADD PUSH2 0x23C0 JUMP JUMPDEST SWAP3 POP POP PUSH1 0x20 PUSH2 0x2408 DUP6 DUP3 DUP7 ADD PUSH2 0x2313 JUMP JUMPDEST SWAP2 POP POP SWAP3 POP SWAP3 SWAP1 POP JUMP JUMPDEST PUSH0 DUP1 PUSH0 PUSH1 0x60 DUP5 DUP7 SUB SLT ISZERO PUSH2 0x2429 JUMPI PUSH2 0x2428 PUSH2 0x218F JUMP JUMPDEST JUMPDEST PUSH0 PUSH2 0x2436 DUP7 DUP3 DUP8 ADD PUSH2 0x2313 JUMP JUMPDEST SWAP4 POP POP PUSH1 0x20 PUSH2 0x2447 DUP7 DUP3 DUP8 ADD PUSH2 0x23C0 JUMP JUMPDEST SWAP3 POP POP PUSH1 0x40 PUSH2 0x2458 DUP7 DUP3 DUP8 ADD PUSH2 0x2313 JUMP JUMPDEST SWAP2 POP POP SWAP3 POP SWAP3 POP SWAP3 JUMP JUMPDEST PUSH2 0x246B DUP2 PUSH2 0x22F4 JUMP JUMPDEST DUP3 MSTORE POP POP JUMP JUMPDEST PUSH0 PUSH1 0x20 DUP3 ADD SWAP1 POP PUSH2 0x2484 PUSH0 DUP4 ADD DUP5 PUSH2 0x2462 JUMP JUMPDEST SWAP3 SWAP2 POP POP JUMP JUMPDEST PUSH0 DUP1 PUSH0 PUSH1 0x60 DUP5 DUP7 SUB SLT ISZERO PUSH2 0x24A1 JUMPI PUSH2 0x24A0 PUSH2 0x218F JUMP JUMPDEST JUMPDEST PUSH0 PUSH2 0x24AE DUP7 DUP3 DUP8 ADD PUSH2 0x23C0 JUMP JUMPDEST SWAP4 POP POP PUSH1 0x20 PUSH2 0x24BF DUP7 DUP3 DUP8 ADD PUSH2 0x23C0 JUMP JUMPDEST SWAP3 POP POP PUSH1 0x40 PUSH2 0x24D0 DUP7 DUP3 DUP8 ADD PUSH2 0x2313 JUMP JUMPDEST SWAP2 POP POP SWAP3 POP SWAP3 POP SWAP3 JUMP JUMPDEST PUSH0 DUP1 PUSH1 0x40 DUP4 DUP6 SUB SLT ISZERO PUSH2 0x24F0 JUMPI PUSH2 0x24EF PUSH2 0x218F JUMP JUMPDEST JUMPDEST PUSH0 PUSH2 0x24FD DUP6 DUP3 DUP7 ADD PUSH2 0x2313 JUMP JUMPDEST SWAP3 POP POP PUSH1 0x20 PUSH2 0x250E DUP6 DUP3 DUP7 ADD PUSH2 0x23C0 JUMP JUMPDEST SWAP2 POP POP SWAP3 POP SWAP3 SWAP1 POP JUMP JUMPDEST PUSH0 DUP1 REVERT JUMPDEST PUSH0 DUP1 REVERT JUMPDEST PUSH32 0x4E487B7100000000000000000000000000000000000000000000000000000000 PUSH0 MSTORE PUSH1 0x41 PUSH1 0x4 MSTORE PUSH1 0x24 PUSH0 REVERT JUMPDEST PUSH2 0x2556 DUP3 PUSH2 0x228C JUMP JUMPDEST DUP2 ADD DUP2 DUP2 LT PUSH8 0xFFFFFFFFFFFFFFFF DUP3 GT OR ISZERO PUSH2 0x2575 JUMPI PUSH2 0x2574 PUSH2 0x2520 JUMP JUMPDEST JUMPDEST DUP1 PUSH1 0x40 MSTORE POP POP POP JUMP JUMPDEST PUSH0 PUSH2 0x2587 PUSH2 0x2186 JUMP JUMPDEST SWAP1 POP PUSH2 0x2593 DUP3 DUP3 PUSH2 0x254D JUMP JUMPDEST SWAP2 SWAP1 POP JUMP JUMPDEST PUSH0 PUSH8 0xFFFFFFFFFFFFFFFF DUP3 GT ISZERO PUSH2 0x25B2 JUMPI PUSH2 0x25B1 PUSH2 0x2520 JUMP JUMPDEST JUMPDEST PUSH2 0x25BB DUP3 PUSH2 0x228C JUMP JUMPDEST SWAP1 POP PUSH1 0x20 DUP2 ADD SWAP1 POP SWAP2 SWAP1 POP JUMP JUMPDEST DUP3 DUP2 DUP4 CALLDATACOPY PUSH0 DUP4 DUP4 ADD MSTORE POP POP POP JUMP JUMPDEST PUSH0 PUSH2 0x25E8 PUSH2 0x25E3 DUP5 PUSH2 0x2598 JUMP JUMPDEST PUSH2 0x257E JUMP JUMPDEST SWAP1 POP DUP3 DUP2 MSTORE PUSH1 0x20 DUP2 ADD DUP5 DUP5 DUP5 ADD GT ISZERO PUSH2 0x2604 JUMPI PUSH2 0x2603 PUSH2 0x251C JUMP JUMPDEST JUMPDEST PUSH2 0x260F DUP5 DUP3 DUP6 PUSH2 0x25C8 JUMP JUMPDEST POP SWAP4 SWAP3 POP POP POP JUMP JUMPDEST PUSH0 DUP3 PUSH1 0x1F DUP4 ADD SLT PUSH2 0x262B JUMPI PUSH2 0x262A PUSH2 0x2518 JUMP JUMPDEST JUMPDEST DUP2 CALLDATALOAD PUSH2 0x263B DUP5 DUP3 PUSH1 0x20 DUP7 ADD PUSH2 0x25D6 JUMP JUMPDEST SWAP2 POP POP SWAP3 SWAP2 POP POP JUMP JUMPDEST PUSH0 PUSH1 0x20 DUP3 DUP5 SUB SLT ISZERO PUSH2 0x2659 JUMPI PUSH2 0x2658 PUSH2 0x218F JUMP JUMPDEST JUMPDEST PUSH0 DUP3 ADD CALLDATALOAD PUSH8 0xFFFFFFFFFFFFFFFF DUP2 GT ISZERO PUSH2 0x2676 JUMPI PUSH2 0x2675 PUSH2 0x2193 JUMP JUMPDEST JUMPDEST PUSH2 0x2682 DUP5 DUP3 DUP6 ADD PUSH2 0x2617 JUMP JUMPDEST SWAP2 POP POP SWAP3 SWAP2 POP POP JUMP JUMPDEST PUSH0 PUSH1 0x20 DUP3 DUP5 SUB SLT ISZERO PUSH2 0x26A0 JUMPI PUSH2 0x269F PUSH2 0x218F JUMP JUMPDEST JUMPDEST PUSH0 PUSH2 0x26AD DUP5 DUP3 DUP6 ADD PUSH2 0x23C0 JUMP JUMPDEST SWAP2 POP POP SWAP3 SWAP2 POP POP JUMP JUMPDEST PUSH0 DUP2 SWAP1 POP SWAP2 SWAP1 POP JUMP JUMPDEST PUSH0 PUSH2 0x26D9 PUSH2 0x26D4 PUSH2 0x26CF DUP5 PUSH2 0x2352 JUMP JUMPDEST PUSH2 0x26B6 JUMP JUMPDEST PUSH2 0x2352 JUMP JUMPDEST SWAP1 POP SWAP2 SWAP1 POP JUMP JUMPDEST PUSH0 PUSH2 0x26EA DUP3 PUSH2 0x26BF JUMP JUMPDEST SWAP1 POP SWAP2 SWAP1 POP JUMP JUMPDEST PUSH0 PUSH2 0x26FB DUP3 PUSH2 0x26E0 JUMP JUMPDEST SWAP1 POP SWAP2 SWAP1 POP JUMP JUMPDEST PUSH2 0x270B DUP2 PUSH2 0x26F1 JUMP JUMPDEST DUP3 MSTORE POP POP JUMP JUMPDEST PUSH0 PUSH1 0x20 DUP3 ADD SWAP1 POP PUSH2 0x2724 PUSH0 DUP4 ADD DUP5 PUSH2 0x2702 JUMP JUMPDEST SWAP3 SWAP2 POP POP JUMP JUMPDEST PUSH2 0x2733 DUP2 PUSH2 0x2217 JUMP JUMPDEST DUP2 EQ PUSH2 0x273D JUMPI PUSH0 DUP1 REVERT JUMPDEST POP JUMP JUMPDEST PUSH0 DUP2 CALLDATALOAD SWAP1 POP PUSH2 0x274E DUP2 PUSH2 0x272A JUMP JUMPDEST SWAP3 SWAP2 POP POP JUMP JUMPDEST PUSH0 DUP1 PUSH1 0x40 DUP4 DUP6 SUB SLT ISZERO PUSH2 0x276A JUMPI PUSH2 0x2769 PUSH2 0x218F JUMP JUMPDEST JUMPDEST PUSH0 PUSH2 0x2777 DUP6 DUP3 DUP7 ADD PUSH2 0x23C0 JUMP JUMPDEST SWAP3 POP POP PUSH1 0x20 PUSH2 0x2788 DUP6 DUP3 DUP7 ADD PUSH2 0x2740 JUMP JUMPDEST SWAP2 POP POP SWAP3 POP SWAP3 SWAP1 POP JUMP JUMPDEST PUSH0 DUP1 PUSH0 DUP1 PUSH1 0x80 DUP6 DUP8 SUB SLT ISZERO PUSH2 0x27AA JUMPI PUSH2 0x27A9 PUSH2 0x218F JUMP JUMPDEST JUMPDEST PUSH0 PUSH2 0x27B7 DUP8 DUP3 DUP9 ADD PUSH2 0x23C0 JUMP JUMPDEST SWAP5 POP POP PUSH1 0x20 PUSH2 0x27C8 DUP8 DUP3 DUP9 ADD PUSH2 0x23C0 JUMP JUMPDEST SWAP4 POP POP PUSH1 0x40 PUSH2 0x27D9 DUP8 DUP3 DUP9 ADD PUSH2 0x2313 JUMP JUMPDEST SWAP3 POP POP PUSH1 0x60 DUP6 ADD CALLDATALOAD PUSH8 0xFFFFFFFFFFFFFFFF DUP2 GT ISZERO PUSH2 0x27FA JUMPI PUSH2 0x27F9 PUSH2 0x2193 JUMP JUMPDEST JUMPDEST PUSH2 0x2806 DUP8 DUP3 DUP9 ADD PUSH2 0x2617 JUMP JUMPDEST SWAP2 POP POP SWAP3 SWAP6 SWAP2 SWAP5 POP SWAP3 POP JUMP JUMPDEST PUSH0 DUP2 SWAP1 POP SWAP2 SWAP1 POP JUMP JUMPDEST PUSH2 0x2824 DUP2 PUSH2 0x2812 JUMP JUMPDEST DUP3 MSTORE POP POP JUMP JUMPDEST PUSH0 PUSH1 0x20 DUP3 ADD SWAP1 POP PUSH2 0x283D PUSH0 DUP4 ADD DUP5 PUSH2 0x281B JUMP JUMPDEST SWAP3 SWAP2 POP POP JUMP JUMPDEST PUSH0 DUP1 PUSH1 0x40 DUP4 DUP6 SUB SLT ISZERO PUSH2 0x2859 JUMPI PUSH2 0x2858 PUSH2 0x218F JUMP JUMPDEST JUMPDEST PUSH0 PUSH2 0x2866 DUP6 DUP3 DUP7 ADD PUSH2 0x23C0 JUMP JUMPDEST SWAP3 POP POP PUSH1 0x20 PUSH2 0x2877 DUP6 DUP3 DUP7 ADD PUSH2 0x23C0 JUMP JUMPDEST SWAP2 POP POP SWAP3 POP SWAP3 SWAP1 POP JUMP JUMPDEST PUSH32 0x4E487B7100000000000000000000000000000000000000000000000000000000 PUSH0 MSTORE PUSH1 0x22 PUSH1 0x4 MSTORE PUSH1 0x24 PUSH0 REVERT JUMPDEST PUSH0 PUSH1 0x2 DUP3 DIV SWAP1 POP PUSH1 0x1 DUP3 AND DUP1 PUSH2 0x28C5 JUMPI PUSH1 0x7F DUP3 AND SWAP2 POP JUMPDEST PUSH1 0x20 DUP3 LT DUP2 SUB PUSH2 0x28D8 JUMPI PUSH2 0x28D7 PUSH2 0x2881 JUMP JUMPDEST JUMPDEST POP SWAP2 SWAP1 POP JUMP JUMPDEST PUSH32 0x4552433732313A20617070726F76616C20746F2063757272656E74206F776E65 PUSH0 DUP3 ADD MSTORE PUSH32 0x7200000000000000000000000000000000000000000000000000000000000000 PUSH1 0x20 DUP3 ADD MSTORE POP JUMP JUMPDEST PUSH0 PUSH2 0x2938 PUSH1 0x21 DUP4 PUSH2 0x2254 JUMP JUMPDEST SWAP2 POP PUSH2 0x2943 DUP3 PUSH2 0x28DE JUMP JUMPDEST PUSH1 0x40 DUP3 ADD SWAP1 POP SWAP2 SWAP1 POP JUMP JUMPDEST PUSH0 PUSH1 0x20 DUP3 ADD SWAP1 POP DUP2 DUP2 SUB PUSH0 DUP4 ADD MSTORE PUSH2 0x2965 DUP2 PUSH2 0x292C JUMP JUMPDEST SWAP1 POP SWAP2 SWAP1 POP JUMP JUMPDEST PUSH32 0x4552433732313A20617070726F76652063616C6C6572206973206E6F7420746F PUSH0 DUP3 ADD MSTORE PUSH32 0x6B656E206F776E6572206F7220617070726F76656420666F7220616C6C000000 PUSH1 0x20 DUP3 ADD MSTORE POP JUMP JUMPDEST PUSH0 PUSH2 0x29C6 PUSH1 0x3D DUP4 PUSH2 0x2254 JUMP JUMPDEST SWAP2 POP PUSH2 0x29D1 DUP3 PUSH2 0x296C JUMP JUMPDEST PUSH1 0x40 DUP3 ADD SWAP1 POP SWAP2 SWAP1 POP JUMP JUMPDEST PUSH0 PUSH1 0x20 DUP3 ADD SWAP1 POP DUP2 DUP2 SUB PUSH0 DUP4 ADD MSTORE PUSH2 0x29F3 DUP2 PUSH2 0x29BA JUMP JUMPDEST SWAP1 POP SWAP2 SWAP1 POP JUMP JUMPDEST PUSH32 0x4552433732313A2063616C6C6572206973206E6F7420746F6B656E206F776E65 PUSH0 DUP3 ADD MSTORE PUSH32 0x72206F7220617070726F76656400000000000000000000000000000000000000 PUSH1 0x20 DUP3 ADD MSTORE POP JUMP JUMPDEST PUSH0 PUSH2 0x2A54 PUSH1 0x2D DUP4 PUSH2 0x2254 JUMP JUMPDEST SWAP2 POP PUSH2 0x2A5F DUP3 PUSH2 0x29FA JUMP JUMPDEST PUSH1 0x40 DUP3 ADD SWAP1 POP SWAP2 SWAP1 POP JUMP JUMPDEST PUSH0 PUSH1 0x20 DUP3 ADD SWAP1 POP DUP2 DUP2 SUB PUSH0 DUP4 ADD MSTORE PUSH2 0x2A81 DUP2 PUSH2 0x2A48 JUMP JUMPDEST SWAP1 POP SWAP2 SWAP1 POP JUMP JUMPDEST PUSH0 DUP2 MLOAD SWAP1 POP PUSH2 0x2A96 DUP2 PUSH2 0x23AA JUMP JUMPDEST SWAP3 SWAP2 POP POP JUMP JUMPDEST PUSH0 PUSH1 0x20 DUP3 DUP5 SUB SLT ISZERO PUSH2 0x2AB1 JUMPI PUSH2 0x2AB0 PUSH2 0x218F JUMP JUMPDEST JUMPDEST PUSH0 PUSH2 0x2ABE DUP5 DUP3 DUP6 ADD PUSH2 0x2A88 JUMP JUMPDEST SWAP2 POP POP SWAP3 SWAP2 POP POP JUMP JUMPDEST PUSH0 PUSH1 0x60 DUP3 ADD SWAP1 POP PUSH2 0x2ADA PUSH0 DUP4 ADD DUP7 PUSH2 0x281B JUMP JUMPDEST PUSH2 0x2AE7 PUSH1 0x20 DUP4 ADD DUP6 PUSH2 0x281B JUMP JUMPDEST PUSH2 0x2AF4 PUSH1 0x40 DUP4 ADD DUP5 PUSH2 0x2382 JUMP JUMPDEST SWAP5 SWAP4 POP POP POP POP JUMP JUMPDEST PUSH2 0x2B05 DUP2 PUSH2 0x2812 JUMP JUMPDEST DUP2 EQ PUSH2 0x2B0F JUMPI PUSH0 DUP1 REVERT JUMPDEST POP JUMP JUMPDEST PUSH0 DUP2 MLOAD SWAP1 POP PUSH2 0x2B20 DUP2 PUSH2 0x2AFC JUMP JUMPDEST SWAP3 SWAP2 POP POP JUMP JUMPDEST PUSH0 PUSH1 0x20 DUP3 DUP5 SUB SLT ISZERO PUSH2 0x2B3B JUMPI PUSH2 0x2B3A PUSH2 0x218F JUMP JUMPDEST JUMPDEST PUSH0 PUSH2 0x2B48 DUP5 DUP3 DUP6 ADD PUSH2 0x2B12 JUMP JUMPDEST SWAP2 POP POP SWAP3 SWAP2 POP POP JUMP JUMPDEST PUSH0 DUP2 MLOAD SWAP1 POP SWAP2 SWAP1 POP JUMP JUMPDEST PUSH0 DUP2 SWAP1 POP DUP2 PUSH0 MSTORE PUSH1 0x20 PUSH0 KECCAK256 SWAP1 POP SWAP2 SWAP1 POP JUMP JUMPDEST PUSH0 PUSH1 0x20 PUSH1 0x1F DUP4 ADD DIV SWAP1 POP SWAP2 SWAP1 POP JUMP JUMPDEST PUSH0 DUP3 DUP3 SHL SWAP1 POP SWAP3 SWAP2 POP POP JUMP JUMPDEST PUSH0 PUSH1 0x8 DUP4 MUL PUSH2 0x2BB7 PUSH32 0xFFFFFFFFFFFFFFFFFFFFFFFFFFFFFFFFFFFFFFFFFFFFFFFFFFFFFFFFFFFFFFFF DUP3 PUSH2 0x2B7C JUMP JUMPDEST PUSH2 0x2BC1 DUP7 DUP4 PUSH2 0x2B7C JUMP JUMPDEST SWAP6 POP DUP1 NOT DUP5 AND SWAP4 POP DUP1 DUP7 AND DUP5 OR SWAP3 POP POP POP SWAP4 SWAP3 POP POP POP JUMP JUMPDEST PUSH0 PUSH2 0x2BF3 PUSH2 0x2BEE PUSH2 0x2BE9 DUP5 PUSH2 0x22F4 JUMP JUMPDEST PUSH2 0x26B6 JUMP JUMPDEST PUSH2 0x22F4 JUMP JUMPDEST SWAP1 POP SWAP2 SWAP1 POP JUMP JUMPDEST PUSH0 DUP2 SWAP1 POP SWAP2 SWAP1 POP JUMP JUMPDEST PUSH2 0x2C0C DUP4 PUSH2 0x2BD9 JUMP JUMPDEST PUSH2 0x2C20 PUSH2 0x2C18 DUP3 PUSH2 0x2BFA JUMP JUMPDEST DUP5 DUP5 SLOAD PUSH2 0x2B88 JUMP JUMPDEST DUP3 SSTORE POP POP POP POP JUMP JUMPDEST PUSH0 SWAP1 JUMP JUMPDEST PUSH2 0x2C34 PUSH2 0x2C28 JUMP JUMPDEST PUSH2 0x2C3F DUP2 DUP5 DUP5 PUSH2 0x2C03 JUMP JUMPDEST POP POP POP JUMP JUMPDEST JUMPDEST DUP2 DUP2 LT ISZERO PUSH2 0x2C62 JUMPI PUSH2 0x2C57 PUSH0 DUP3 PUSH2 0x2C2C JUMP JUMPDEST PUSH1 0x1 DUP2 ADD SWAP1 POP PUSH2 0x2C45 JUMP JUMPDEST POP POP JUMP JUMPDEST PUSH1 0x1F DUP3 GT ISZERO PUSH2 0x2CA7 JUMPI PUSH2 0x2C78 DUP2 PUSH2 0x2B5B JUMP JUMPDEST PUSH2 0x2C81 DUP5 PUSH2 0x2B6D JUMP JUMPDEST DUP2 ADD PUSH1 0x20 DUP6 LT ISZERO PUSH2 0x2C90 JUMPI DUP2 SWAP1 POP JUMPDEST PUSH2 0x2CA4 PUSH2 0x2C9C DUP6 PUSH2 0x2B6D JUMP JUMPDEST DUP4 ADD DUP3 PUSH2 0x2C44 JUMP JUMPDEST POP POP JUMPDEST POP POP POP JUMP JUMPDEST PUSH0 DUP3 DUP3 SHR SWAP1 POP SWAP3 SWAP2 POP POP JUMP JUMPDEST PUSH0 PUSH2 0x2CC7 PUSH0 NOT DUP5 PUSH1 0x8 MUL PUSH2 0x2CAC JUMP JUMPDEST NOT DUP1 DUP4 AND SWAP2 POP POP SWAP3 SWAP2 POP POP JUMP JUMPDEST PUSH0 PUSH2 0x2CDF DUP4 DUP4 PUSH2 0x2CB8 JUMP JUMPDEST SWAP2 POP DUP3 PUSH1 0x2 MUL DUP3 OR SWAP1 POP SWAP3 SWAP2 POP POP JUMP JUMPDEST PUSH2 0x2CF8 DUP3 PUSH2 0x2B51 JUMP JUMPDEST PUSH8 0xFFFFFFFFFFFFFFFF DUP2 GT ISZERO PUSH2 0x2D11 JUMPI PUSH2 0x2D10 PUSH2 0x2520 JUMP JUMPDEST JUMPDEST PUSH2 0x2D1B DUP3 SLOAD PUSH2 0x28AE JUMP JUMPDEST PUSH2 0x2D26 DUP3 DUP3 DUP6 PUSH2 0x2C66 JUMP JUMPDEST PUSH0 PUSH1 0x20 SWAP1 POP PUSH1 0x1F DUP4 GT PUSH1 0x1 DUP2 EQ PUSH2 0x2D57 JUMPI PUSH0 DUP5 ISZERO PUSH2 0x2D45 JUMPI DUP3 DUP8 ADD MLOAD SWAP1 POP JUMPDEST PUSH2 0x2D4F DUP6 DUP3 PUSH2 0x2CD4 JUMP JUMPDEST DUP7 SSTORE POP PUSH2 0x2DB6 JUMP JUMPDEST PUSH1 0x1F NOT DUP5 AND PUSH2 0x2D65 DUP7 PUSH2 0x2B5B JUMP JUMPDEST PUSH0 JUMPDEST DUP3 DUP2 LT ISZERO PUSH2 0x2D8C JUMPI DUP5 DUP10 ADD MLOAD DUP3 SSTORE PUSH1 0x1 DUP3 ADD SWAP2 POP PUSH1 0x20 DUP6 ADD SWAP5 POP PUSH1 0x20 DUP2 ADD SWAP1 POP PUSH2 0x2D67 JUMP JUMPDEST DUP7 DUP4 LT ISZERO PUSH2 0x2DA9 JUMPI DUP5 DUP10 ADD MLOAD PUSH2 0x2DA5 PUSH1 0x1F DUP10 AND DUP3 PUSH2 0x2CB8 JUMP JUMPDEST DUP4 SSTORE POP JUMPDEST PUSH1 0x1 PUSH1 0x2 DUP9 MUL ADD DUP9 SSTORE POP POP POP JUMPDEST POP POP POP POP POP POP JUMP JUMPDEST PUSH0 DUP3 DUP3 MSTORE PUSH1 0x20 DUP3 ADD SWAP1 POP SWAP3 SWAP2 POP POP JUMP JUMPDEST PUSH0 PUSH2 0x2DD8 DUP3 PUSH2 0x2B51 JUMP JUMPDEST PUSH2 0x2DE2 DUP2 DUP6 PUSH2 0x2DBE JUMP JUMPDEST SWAP4 POP PUSH2 0x2DF2 DUP2 DUP6 PUSH1 0x20 DUP7 ADD PUSH2 0x2264 JUMP JUMPDEST PUSH2 0x2DFB DUP2 PUSH2 0x228C JUMP JUMPDEST DUP5 ADD SWAP2 POP POP SWAP3 SWAP2 POP POP JUMP JUMPDEST PUSH0 PUSH1 0x20 DUP3 ADD SWAP1 POP DUP2 DUP2 SUB PUSH0 DUP4 ADD MSTORE PUSH2 0x2E1E DUP2 DUP5 PUSH2 0x2DCE JUMP JUMPDEST SWAP1 POP SWAP3 SWAP2 POP POP JUMP JUMPDEST PUSH32 0x4552433732313A2061646472657373207A65726F206973206E6F742061207661 PUSH0 DUP3 ADD MSTORE PUSH32 0x6C6964206F776E65720000000000000000000000000000000000000000000000 PUSH1 0x20 DUP3 ADD MSTORE POP JUMP JUMPDEST PUSH0 PUSH2 0x2E80 PUSH1 0x29 DUP4 PUSH2 0x2254 JUMP JUMPDEST SWAP2 POP PUSH2 0x2E8B DUP3 PUSH2 0x2E26 JUMP JUMPDEST PUSH1 0x40 DUP3 ADD SWAP1 POP SWAP2 SWAP1 POP JUMP JUMPDEST PUSH0 PUSH1 0x20 DUP3 ADD SWAP1 POP DUP2 DUP2 SUB PUSH0 DUP4 ADD MSTORE PUSH2 0x2EAD DUP2 PUSH2 0x2E74 JUMP JUMPDEST SWAP1 POP SWAP2 SWAP1 POP JUMP JUMPDEST PUSH0 DUP2 SWAP1 POP SWAP3 SWAP2 POP POP JUMP JUMPDEST PUSH0 PUSH2 0x2EC8 DUP3 PUSH2 0x224A JUMP JUMPDEST PUSH2 0x2ED2 DUP2 DUP6 PUSH2 0x2EB4 JUMP JUMPDEST SWAP4 POP PUSH2 0x2EE2 DUP2 DUP6 PUSH1 0x20 DUP7 ADD PUSH2 0x2264 JUMP JUMPDEST DUP1 DUP5 ADD SWAP2 POP POP SWAP3 SWAP2 POP POP JUMP JUMPDEST PUSH0 PUSH2 0x2EF9 DUP3 DUP6 PUSH2 0x2EBE JUMP JUMPDEST SWAP2 POP PUSH2 0x2F05 DUP3 DUP5 PUSH2 0x2EBE JUMP JUMPDEST SWAP2 POP DUP2 SWAP1 POP SWAP4 SWAP3 POP POP POP JUMP JUMPDEST PUSH0 PUSH1 0x40 DUP3 ADD SWAP1 POP PUSH2 0x2F24 PUSH0 DUP4 ADD DUP6 PUSH2 0x281B JUMP JUMPDEST PUSH2 0x2F31 PUSH1 0x20 DUP4 ADD DUP5 PUSH2 0x2382 JUMP JUMPDEST SWAP4 SWAP3 POP POP POP JUMP JUMPDEST PUSH32 0x4F776E61626C653A206E6577206F776E657220697320746865207A65726F2061 PUSH0 DUP3 ADD MSTORE PUSH32 0x6464726573730000000000000000000000000000000000000000000000000000 PUSH1 0x20 DUP3 ADD MSTORE POP JUMP JUMPDEST PUSH0 PUSH2 0x2F92 PUSH1 0x26 DUP4 PUSH2 0x2254 JUMP JUMPDEST SWAP2 POP PUSH2 0x2F9D DUP3 PUSH2 0x2F38 JUMP JUMPDEST PUSH1 0x40 DUP3 ADD SWAP1 POP SWAP2 SWAP1 POP JUMP JUMPDEST PUSH0 PUSH1 0x20 DUP3 ADD SWAP1 POP DUP2 DUP2 SUB PUSH0 DUP4 ADD MSTORE PUSH2 0x2FBF DUP2 PUSH2 0x2F86 JUMP JUMPDEST SWAP1 POP SWAP2 SWAP1 POP JUMP JUMPDEST PUSH32 0x4552433732313A20696E76616C696420746F6B656E2049440000000000000000 PUSH0 DUP3 ADD MSTORE POP JUMP JUMPDEST PUSH0 PUSH2 0x2FFA PUSH1 0x18 DUP4 PUSH2 0x2254 JUMP JUMPDEST SWAP2 POP PUSH2 0x3005 DUP3 PUSH2 0x2FC6 JUMP JUMPDEST PUSH1 0x20 DUP3 ADD SWAP1 POP SWAP2 SWAP1 POP JUMP JUMPDEST PUSH0 PUSH1 0x20 DUP3 ADD SWAP1 POP DUP2 DUP2 SUB PUSH0 DUP4 ADD MSTORE PUSH2 0x3027 DUP2 PUSH2 0x2FEE JUMP JUMPDEST SWAP1 POP SWAP2 SWAP1 POP JUMP JUMPDEST PUSH32 0x4E487B7100000000000000000000000000000000000000000000000000000000 PUSH0 MSTORE PUSH1 0x11 PUSH1 0x4 MSTORE PUSH1 0x24 PUSH0 REVERT JUMPDEST PUSH0 PUSH2 0x3065 DUP3 PUSH2 0x22F4 JUMP JUMPDEST SWAP2 POP PUSH2 0x3070 DUP4 PUSH2 0x22F4 JUMP JUMPDEST SWAP3 POP DUP3 DUP3 ADD SWAP1 POP DUP1 DUP3 GT ISZERO PUSH2 0x3088 JUMPI PUSH2 0x3087 PUSH2 0x302E JUMP JUMPDEST JUMPDEST SWAP3 SWAP2 POP POP JUMP JUMPDEST PUSH32 0x4552433732313A207472616E736665722066726F6D20696E636F727265637420 PUSH0 DUP3 ADD MSTORE PUSH32 0x6F776E6572000000000000000000000000000000000000000000000000000000 PUSH1 0x20 DUP3 ADD MSTORE POP JUMP JUMPDEST PUSH0 PUSH2 0x30E8 PUSH1 0x25 DUP4 PUSH2 0x2254 JUMP JUMPDEST SWAP2 POP PUSH2 0x30F3 DUP3 PUSH2 0x308E JUMP JUMPDEST PUSH1 0x40 DUP3 ADD SWAP1 POP SWAP2 SWAP1 POP JUMP JUMPDEST PUSH0 PUSH1 0x20 DUP3 ADD SWAP1 POP DUP2 DUP2 SUB PUSH0 DUP4 ADD MSTORE PUSH2 0x3115 DUP2 PUSH2 0x30DC JUMP JUMPDEST SWAP1 POP SWAP2 SWAP1 POP JUMP JUMPDEST PUSH32 0x4552433732313A207472616E7366657220746F20746865207A65726F20616464 PUSH0 DUP3 ADD MSTORE PUSH32 0x7265737300000000000000000000000000000000000000000000000000000000 PUSH1 0x20 DUP3 ADD MSTORE POP JUMP JUMPDEST PUSH0 PUSH2 0x3176 PUSH1 0x24 DUP4 PUSH2 0x2254 JUMP JUMPDEST SWAP2 POP PUSH2 0x3181 DUP3 PUSH2 0x311C JUMP JUMPDEST PUSH1 0x40 DUP3 ADD SWAP1 POP SWAP2 SWAP1 POP JUMP JUMPDEST PUSH0 PUSH1 0x20 DUP3 ADD SWAP1 POP DUP2 DUP2 SUB PUSH0 DUP4 ADD MSTORE PUSH2 0x31A3 DUP2 PUSH2 0x316A JUMP JUMPDEST SWAP1 POP SWAP2 SWAP1 POP JUMP JUMPDEST PUSH32 0x4F776E61626C653A2063616C6C6572206973206E6F7420746865206F776E6572 PUSH0 DUP3 ADD MSTORE POP JUMP JUMPDEST PUSH0 PUSH2 0x31DE PUSH1 0x20 DUP4 PUSH2 0x2254 JUMP JUMPDEST SWAP2 POP PUSH2 0x31E9 DUP3 PUSH2 0x31AA JUMP JUMPDEST PUSH1 0x20 DUP3 ADD SWAP1 POP SWAP2 SWAP1 POP JUMP JUMPDEST PUSH0 PUSH1 0x20 DUP3 ADD SWAP1 POP DUP2 DUP2 SUB PUSH0 DUP4 ADD MSTORE PUSH2 0x320B DUP2 PUSH2 0x31D2 JUMP JUMPDEST SWAP1 POP SWAP2 SWAP1 POP JUMP JUMPDEST PUSH32 0x4552433732313A20617070726F766520746F2063616C6C657200000000000000 PUSH0 DUP3 ADD MSTORE POP JUMP JUMPDEST PUSH0 PUSH2 0x3246 PUSH1 0x19 DUP4 PUSH2 0x2254 JUMP JUMPDEST SWAP2 POP PUSH2 0x3251 DUP3 PUSH2 0x3212 JUMP JUMPDEST PUSH1 0x20 DUP3 ADD SWAP1 POP SWAP2 SWAP1 POP JUMP JUMPDEST PUSH0 PUSH1 0x20 DUP3 ADD SWAP1 POP DUP2 DUP2 SUB PUSH0 DUP4 ADD MSTORE PUSH2 0x3273 DUP2 PUSH2 0x323A JUMP JUMPDEST SWAP1 POP SWAP2 SWAP1 POP JUMP JUMPDEST PUSH32 0x4552433732313A207472616E7366657220746F206E6F6E204552433732315265 PUSH0 DUP3 ADD MSTORE PUSH32 0x63656976657220696D706C656D656E7465720000000000000000000000000000 PUSH1 0x20 DUP3 ADD MSTORE POP JUMP JUMPDEST PUSH0 PUSH2 0x32D4 PUSH1 0x32 DUP4 PUSH2 0x2254 JUMP JUMPDEST SWAP2 POP PUSH2 0x32DF DUP3 PUSH2 0x327A JUMP JUMPDEST PUSH1 0x40 DUP3 ADD SWAP1 POP SWAP2 SWAP1 POP JUMP JUMPDEST PUSH0 PUSH1 0x20 DUP3 ADD SWAP1 POP DUP2 DUP2 SUB PUSH0 DUP4 ADD MSTORE PUSH2 0x3301 DUP2 PUSH2 0x32C8 JUMP JUMPDEST SWAP1 POP SWAP2 SWAP1 POP JUMP JUMPDEST PUSH32 0x4E487B7100000000000000000000000000000000000000000000000000000000 PUSH0 MSTORE PUSH1 0x12 PUSH1 0x4 MSTORE PUSH1 0x24 PUSH0 REVERT JUMPDEST PUSH32 0x4552433732313A206D696E7420746F20746865207A65726F2061646472657373 PUSH0 DUP3 ADD MSTORE POP JUMP JUMPDEST PUSH0 PUSH2 0x3369 PUSH1 0x20 DUP4 PUSH2 0x2254 JUMP JUMPDEST SWAP2 POP PUSH2 0x3374 DUP3 PUSH2 0x3335 JUMP JUMPDEST PUSH1 0x20 DUP3 ADD SWAP1 POP SWAP2 SWAP1 POP JUMP JUMPDEST PUSH0 PUSH1 0x20 DUP3 ADD SWAP1 POP DUP2 DUP2 SUB PUSH0 DUP4 ADD MSTORE PUSH2 0x3396 DUP2 PUSH2 0x335D JUMP JUMPDEST SWAP1 POP SWAP2 SWAP1 POP JUMP JUMPDEST PUSH32 0x4552433732313A20746F6B656E20616C7265616479206D696E74656400000000 PUSH0 DUP3 ADD MSTORE POP JUMP JUMPDEST PUSH0 PUSH2 0x33D1 PUSH1 0x1C DUP4 PUSH2 0x2254 JUMP JUMPDEST SWAP2 POP PUSH2 0x33DC DUP3 PUSH2 0x339D JUMP JUMPDEST PUSH1 0x20 DUP3 ADD SWAP1 POP SWAP2 SWAP1 POP JUMP JUMPDEST PUSH0 PUSH1 0x20 DUP3 ADD SWAP1 POP DUP2 DUP2 SUB PUSH0 DUP4 ADD MSTORE PUSH2 0x33FE DUP2 PUSH2 0x33C5 JUMP JUMPDEST SWAP1 POP SWAP2 SWAP1 POP JUMP JUMPDEST PUSH0 PUSH1 0x80 DUP3 ADD SWAP1 POP PUSH2 0x3418 PUSH0 DUP4 ADD DUP8 PUSH2 0x2382 JUMP JUMPDEST PUSH2 0x3425 PUSH1 0x20 DUP4 ADD DUP7 PUSH2 0x2382 JUMP JUMPDEST PUSH2 0x3432 PUSH1 0x40 DUP4 ADD DUP6 PUSH2 0x2462 JUMP JUMPDEST DUP2 DUP2 SUB PUSH1 0x60 DUP4 ADD MSTORE PUSH2 0x3444 DUP2 DUP5 PUSH2 0x2DCE JUMP JUMPDEST SWAP1 POP SWAP6 SWAP5 POP POP POP POP POP JUMP JUMPDEST PUSH0 DUP2 MLOAD SWAP1 POP PUSH2 0x345D DUP2 PUSH2 0x21C2 JUMP JUMPDEST SWAP3 SWAP2 POP POP JUMP JUMPDEST PUSH0 PUSH1 0x20 DUP3 DUP5 SUB SLT ISZERO PUSH2 0x3478 JUMPI PUSH2 0x3477 PUSH2 0x218F JUMP JUMPDEST JUMPDEST PUSH0 PUSH2 0x3485 DUP5 DUP3 DUP6 ADD PUSH2 0x344F JUMP JUMPDEST SWAP2 POP POP SWAP3 SWAP2 POP POP JUMP INVALID LOG2 PUSH5 0x6970667358 0x22 SLT KECCAK256 0x4D 0xC8 DUP5 JUMP DIV DUP8 SLOAD JUMPDEST 0x5D 0xD7 0xAA 0xB3 0xE6 0xB8 DIV PUSH5 0xE04C25470B SWAP8 PUSH21 0xAF6F196B005942F3B064736F6C6343000815003300 "
		},
		"gasEstimates": {
			"creation": {
				"codeDepositCost": "2701600",
				"executionCost": "infinite",
				"totalCost": "infinite"
			},
			"external": {
				"GRACE_PERIOD()": "414",
				"addController(address)": "28270",
				"approve(address,uint256)": "infinite",
				"balanceOf(address)": "2931",
				"baseNode()": "2514",
				"controllers(address)": "2900",
				"getApproved(uint256)": "5282",
				"isApprovedForAll(address,address)": "infinite",
				"name()": "infinite",
				"owner()": "2561",
				"ownerOf(uint256)": "5291",
				"reclaim(uint256,address)": "infinite",
				"reg()": "infinite",
				"register(uint256,address,uint256)": "infinite",
				"registerOnly(uint256,address,uint256)": "infinite",
				"removeController(address)": "28312",
				"renounceOwnership()": "30479",
				"safeTransferFrom(address,address,uint256)": "infinite",
				"safeTransferFrom(address,address,uint256,bytes)": "infinite",
				"setApprovalForAll(address,bool)": "infinite",
				"setManager(address)": "infinite",
				"supportsInterface(bytes4)": "787",
				"symbol()": "infinite",
				"tokenURI(uint256)": "3482",
				"transferFrom(address,address,uint256)": "infinite",
				"transferOwnership(address)": "30797",
				"updateMetaData(bytes)": "infinite"
			},
			"internal": {
				"_isApprovedOrOwner(address,uint256)": "infinite",
				"_register(uint256,address,uint256,bool)": "infinite"
			}
		},
		"methodIdentifiers": {
			"GRACE_PERIOD()": "c1a287e2",
			"addController(address)": "a7fc7a07",
			"approve(address,uint256)": "095ea7b3",
			"balanceOf(address)": "70a08231",
			"baseNode()": "ddf7fcb0",
			"controllers(address)": "da8c229e",
			"getApproved(uint256)": "081812fc",
			"isApprovedForAll(address,address)": "e985e9c5",
			"name()": "06fdde03",
			"owner()": "8da5cb5b",
			"ownerOf(uint256)": "6352211e",
			"reclaim(uint256,address)": "28ed4f6c",
			"reg()": "738fdd1a",
			"register(uint256,address,uint256)": "fca247ac",
			"registerOnly(uint256,address,uint256)": "0e297b45",
			"removeController(address)": "f6a74ed7",
			"renounceOwnership()": "715018a6",
			"safeTransferFrom(address,address,uint256)": "42842e0e",
			"safeTransferFrom(address,address,uint256,bytes)": "b88d4fde",
			"setApprovalForAll(address,bool)": "a22cb465",
			"setManager(address)": "d0ebdbe7",
			"supportsInterface(bytes4)": "01ffc9a7",
			"symbol()": "95d89b41",
			"tokenURI(uint256)": "c87b56dd",
			"transferFrom(address,address,uint256)": "23b872dd",
			"transferOwnership(address)": "f2fde38b",
			"updateMetaData(bytes)": "6634d733"
		}
	},
	"abi": [
		{
			"inputs": [
				{
					"internalType": "contract Registry",
					"name": "_reg",
					"type": "address"
				},
				{
					"internalType": "bytes32",
					"name": "_baseNode",
					"type": "bytes32"
				}
			],
			"stateMutability": "nonpayable",
			"type": "constructor"
		},
		{
			"anonymous": false,
			"inputs": [
				{
					"indexed": true,
					"internalType": "address",
					"name": "owner",
					"type": "address"
				},
				{
					"indexed": true,
					"internalType": "address",
					"name": "approved",
					"type": "address"
				},
				{
					"indexed": true,
					"internalType": "uint256",
					"name": "tokenId",
					"type": "uint256"
				}
			],
			"name": "Approval",
			"type": "event"
		},
		{
			"anonymous": false,
			"inputs": [
				{
					"indexed": true,
					"internalType": "address",
					"name": "owner",
					"type": "address"
				},
				{
					"indexed": true,
					"internalType": "address",
					"name": "operator",
					"type": "address"
				},
				{
					"indexed": false,
					"internalType": "bool",
					"name": "approved",
					"type": "bool"
				}
			],
			"name": "ApprovalForAll",
			"type": "event"
		},
		{
			"anonymous": false,
			"inputs": [
				{
					"indexed": true,
					"internalType": "address",
					"name": "controller",
					"type": "address"
				}
			],
			"name": "ControllerAdded",
			"type": "event"
		},
		{
			"anonymous": false,
			"inputs": [
				{
					"indexed": true,
					"internalType": "address",
					"name": "controller",
					"type": "address"
				}
			],
			"name": "ControllerRemoved",
			"type": "event"
		},
		{
			"anonymous": false,
			"inputs": [
				{
					"indexed": false,
					"internalType": "bytes",
					"name": "funcMeta",
					"type": "bytes"
				}
			],
			"name": "MetaDataUpdated",
			"type": "event"
		},
		{
			"anonymous": false,
			"inputs": [
				{
					"indexed": true,
					"internalType": "uint256",
					"name": "id",
					"type": "uint256"
				},
				{
					"indexed": true,
					"internalType": "address",
					"name": "owner",
					"type": "address"
				},
				{
					"indexed": false,
					"internalType": "uint256",
					"name": "expires",
					"type": "uint256"
				}
			],
			"name": "NameMigrated",
			"type": "event"
		},
		{
			"anonymous": false,
			"inputs": [
				{
					"indexed": true,
					"internalType": "uint256",
					"name": "id",
					"type": "uint256"
				},
				{
					"indexed": true,
					"internalType": "address",
					"name": "owner",
					"type": "address"
				},
				{
					"indexed": false,
					"internalType": "uint256",
					"name": "expires",
					"type": "uint256"
				}
			],
			"name": "NameRegistered",
			"type": "event"
		},
		{
			"anonymous": false,
			"inputs": [
				{
					"indexed": true,
					"internalType": "address",
					"name": "previousOwner",
					"type": "address"
				},
				{
					"indexed": true,
					"internalType": "address",
					"name": "newOwner",
					"type": "address"
				}
			],
			"name": "OwnershipTransferred",
			"type": "event"
		},
		{
			"anonymous": false,
			"inputs": [
				{
					"indexed": true,
					"internalType": "address",
					"name": "from",
					"type": "address"
				},
				{
					"indexed": true,
					"internalType": "address",
					"name": "to",
					"type": "address"
				},
				{
					"indexed": true,
					"internalType": "uint256",
					"name": "tokenId",
					"type": "uint256"
				}
			],
			"name": "Transfer",
			"type": "event"
		},
		{
			"inputs": [],
			"name": "GRACE_PERIOD",
			"outputs": [
				{
					"internalType": "uint256",
					"name": "",
					"type": "uint256"
				}
			],
			"stateMutability": "view",
			"type": "function"
		},
		{
			"inputs": [
				{
					"internalType": "address",
					"name": "controller",
					"type": "address"
				}
			],
			"name": "addController",
			"outputs": [],
			"stateMutability": "nonpayable",
			"type": "function"
		},
		{
			"inputs": [
				{
					"internalType": "address",
					"name": "to",
					"type": "address"
				},
				{
					"internalType": "uint256",
					"name": "tokenId",
					"type": "uint256"
				}
			],
			"name": "approve",
			"outputs": [],
			"stateMutability": "nonpayable",
			"type": "function"
		},
		{
			"inputs": [
				{
					"internalType": "address",
					"name": "owner",
					"type": "address"
				}
			],
			"name": "balanceOf",
			"outputs": [
				{
					"internalType": "uint256",
					"name": "",
					"type": "uint256"
				}
			],
			"stateMutability": "view",
			"type": "function"
		},
		{
			"inputs": [],
			"name": "baseNode",
			"outputs": [
				{
					"internalType": "bytes32",
					"name": "",
					"type": "bytes32"
				}
			],
			"stateMutability": "view",
			"type": "function"
		},
		{
			"inputs": [
				{
					"internalType": "address",
					"name": "",
					"type": "address"
				}
			],
			"name": "controllers",
			"outputs": [
				{
					"internalType": "bool",
					"name": "",
					"type": "bool"
				}
			],
			"stateMutability": "view",
			"type": "function"
		},
		{
			"inputs": [
				{
					"internalType": "uint256",
					"name": "tokenId",
					"type": "uint256"
				}
			],
			"name": "getApproved",
			"outputs": [
				{
					"internalType": "address",
					"name": "",
					"type": "address"
				}
			],
			"stateMutability": "view",
			"type": "function"
		},
		{
			"inputs": [
				{
					"internalType": "address",
					"name": "owner",
					"type": "address"
				},
				{
					"internalType": "address",
					"name": "operator",
					"type": "address"
				}
			],
			"name": "isApprovedForAll",
			"outputs": [
				{
					"internalType": "bool",
					"name": "",
					"type": "bool"
				}
			],
			"stateMutability": "view",
			"type": "function"
		},
		{
			"inputs": [],
			"name": "name",
			"outputs": [
				{
					"internalType": "string",
					"name": "",
					"type": "string"
				}
			],
			"stateMutability": "view",
			"type": "function"
		},
		{
			"inputs": [],
			"name": "owner",
			"outputs": [
				{
					"internalType": "address",
					"name": "",
					"type": "address"
				}
			],
			"stateMutability": "view",
			"type": "function"
		},
		{
			"inputs": [
				{
					"internalType": "uint256",
					"name": "tokenId",
					"type": "uint256"
				}
			],
			"name": "ownerOf",
			"outputs": [
				{
					"internalType": "address",
					"name": "",
					"type": "address"
				}
			],
			"stateMutability": "view",
			"type": "function"
		},
		{
			"inputs": [
				{
					"internalType": "uint256",
					"name": "id",
					"type": "uint256"
				},
				{
					"internalType": "address",
					"name": "owner",
					"type": "address"
				}
			],
			"name": "reclaim",
			"outputs": [],
			"stateMutability": "nonpayable",
			"type": "function"
		},
		{
			"inputs": [],
			"name": "reg",
			"outputs": [
				{
					"internalType": "contract Registry",
					"name": "",
					"type": "address"
				}
			],
			"stateMutability": "view",
			"type": "function"
		},
		{
			"inputs": [
				{
					"internalType": "uint256",
					"name": "id",
					"type": "uint256"
				},
				{
					"internalType": "address",
					"name": "owner",
					"type": "address"
				},
				{
					"internalType": "uint256",
					"name": "duration",
					"type": "uint256"
				}
			],
			"name": "register",
			"outputs": [
				{
					"internalType": "uint256",
					"name": "",
					"type": "uint256"
				}
			],
			"stateMutability": "nonpayable",
			"type": "function"
		},
		{
			"inputs": [
				{
					"internalType": "uint256",
					"name": "id",
					"type": "uint256"
				},
				{
					"internalType": "address",
					"name": "owner",
					"type": "address"
				},
				{
					"internalType": "uint256",
					"name": "duration",
					"type": "uint256"
				}
			],
			"name": "registerOnly",
			"outputs": [
				{
					"internalType": "uint256",
					"name": "",
					"type": "uint256"
				}
			],
			"stateMutability": "nonpayable",
			"type": "function"
		},
		{
			"inputs": [
				{
					"internalType": "address",
					"name": "controller",
					"type": "address"
				}
			],
			"name": "removeController",
			"outputs": [],
			"stateMutability": "nonpayable",
			"type": "function"
		},
		{
			"inputs": [],
			"name": "renounceOwnership",
			"outputs": [],
			"stateMutability": "nonpayable",
			"type": "function"
		},
		{
			"inputs": [
				{
					"internalType": "address",
					"name": "from",
					"type": "address"
				},
				{
					"internalType": "address",
					"name": "to",
					"type": "address"
				},
				{
					"internalType": "uint256",
					"name": "tokenId",
					"type": "uint256"
				}
			],
			"name": "safeTransferFrom",
			"outputs": [],
			"stateMutability": "nonpayable",
			"type": "function"
		},
		{
			"inputs": [
				{
					"internalType": "address",
					"name": "from",
					"type": "address"
				},
				{
					"internalType": "address",
					"name": "to",
					"type": "address"
				},
				{
					"internalType": "uint256",
					"name": "tokenId",
					"type": "uint256"
				},
				{
					"internalType": "bytes",
					"name": "data",
					"type": "bytes"
				}
			],
			"name": "safeTransferFrom",
			"outputs": [],
			"stateMutability": "nonpayable",
			"type": "function"
		},
		{
			"inputs": [
				{
					"internalType": "address",
					"name": "operator",
					"type": "address"
				},
				{
					"internalType": "bool",
					"name": "approved",
					"type": "bool"
				}
			],
			"name": "setApprovalForAll",
			"outputs": [],
			"stateMutability": "nonpayable",
			"type": "function"
		},
		{
			"inputs": [
				{
					"internalType": "address",
					"name": "resolver",
					"type": "address"
				}
			],
			"name": "setManager",
			"outputs": [],
			"stateMutability": "nonpayable",
			"type": "function"
		},
		{
			"inputs": [
				{
					"internalType": "bytes4",
					"name": "interfaceId",
					"type": "bytes4"
				}
			],
			"name": "supportsInterface",
			"outputs": [
				{
					"internalType": "bool",
					"name": "",
					"type": "bool"
				}
			],
			"stateMutability": "view",
			"type": "function"
		},
		{
			"inputs": [],
			"name": "symbol",
			"outputs": [
				{
					"internalType": "string",
					"name": "",
					"type": "string"
				}
			],
			"stateMutability": "view",
			"type": "function"
		},
		{
			"inputs": [
				{
					"internalType": "uint256",
					"name": "tokenId",
					"type": "uint256"
				}
			],
			"name": "tokenURI",
			"outputs": [
				{
					"internalType": "string",
					"name": "",
					"type": "string"
				}
			],
			"stateMutability": "view",
			"type": "function"
		},
		{
			"inputs": [
				{
					"internalType": "address",
					"name": "from",
					"type": "address"
				},
				{
					"internalType": "address",
					"name": "to",
					"type": "address"
				},
				{
					"internalType": "uint256",
					"name": "tokenId",
					"type": "uint256"
				}
			],
			"name": "transferFrom",
			"outputs": [],
			"stateMutability": "nonpayable",
			"type": "function"
		},
		{
			"inputs": [
				{
					"internalType": "address",
					"name": "newOwner",
					"type": "address"
				}
			],
			"name": "transferOwnership",
			"outputs": [],
			"stateMutability": "nonpayable",
			"type": "function"
		},
		{
			"inputs": [
				{
					"internalType": "bytes",
					"name": "funcBytes",
					"type": "bytes"
				}
			],
			"name": "updateMetaData",
			"outputs": [],
			"stateMutability": "nonpayable",
			"type": "function"
		}
	]
}