{
	"data": {
		"bytecode": {
			"linkReferences": {},
			"object": "60806040523480156200001157600080fd5b5060405162001fc238038062001fc28339818101604052810190620000379190620000fe565b8062000049816200005160201b60201c565b505062000130565b806000806101000a81548173ffffffffffffffffffffffffffffffffffffffff021916908373ffffffffffffffffffffffffffffffffffffffff16021790555050565b600080fd5b600073ffffffffffffffffffffffffffffffffffffffff82169050919050565b6000620000c68262000099565b9050919050565b620000d881620000b9565b8114620000e457600080fd5b50565b600081519050620000f881620000cd565b92915050565b60006020828403121562000117576200011662000094565b5b60006200012784828501620000e7565b91505092915050565b611e8280620001406000396000f3fe608060405234801561001057600080fd5b50600436106100575760003560e01c80630ca761751461005c5780631aa46f59146100785780632771458914610096578063bef3a2f0146100c6578063fffeb84e146100e4575b600080fd5b610076600480360381019061007191906111e5565b610102565b005b61008061021c565b60405161008d919061127f565b60405180910390f35b6100b060048036038101906100ab9190611422565b610222565b6040516100bd919061127f565b60405180910390f35b6100ce61033f565b6040516100db919061157d565b60405180910390f35b6100ec6103cd565b6040516100f9919061157d565b60405180910390f35b826001600082815260200190815260200160002060009054906101000a900473ffffffffffffffffffffffffffffffffffffffff1673ffffffffffffffffffffffffffffffffffffffff163373ffffffffffffffffffffffffffffffffffffffff161461019b576040517fa0c5ec6300000000000000000000000000000000000000000000000000000000815260040160405180910390fd5b6001600082815260200190815260200160002060006101000a81549073ffffffffffffffffffffffffffffffffffffffff02191690556101dc84848461045b565b837ff2fa06652e54791d449ab43ede930a20d3b71ed330cad4018f47ba6cc15da00a848460405161020e92919061159f565b60405180910390a250505050565b60025481565b600061022c610fb0565b6102886000808c8c8080601f016020809104026020016040519081016040528093929190818152602001838380828437600081840152601f19601f82011690508083019250505050505050846104ba909392919063ffffffff16565b60008888905011156102ec576102eb88888080601f016020809104026020016040519081016040528093929190818152602001838380828437600081840152601f19601f820116905080830192505050505050508261056490919063ffffffff16565b5b600086869050111561031857610317868690610308919061172a565b826105dd90919063ffffffff16565b5b6000610325828686610625565b905080600281905550809250505098975050505050505050565b6003805461034c9061176e565b80601f01602080910402602001604051908101604052809291908181526020018280546103789061176e565b80156103c55780601f1061039a576101008083540402835291602001916103c5565b820191906000526020600020905b8154815290600101906020018083116103a857829003601f168201915b505050505081565b600480546103da9061176e565b80601f01602080910402602001604051908101604052809291908181526020018280546104069061176e565b80156104535780601f1061042857610100808354040283529160200191610453565b820191906000526020600020905b81548152906001019060200180831161043657829003601f168201915b505050505081565b816003908161046a9190611955565b50806004908161047a9190611955565b50827f51732bd592d531e70a33ba1a99ea425d26fa7cb95aaf81189a1b2a0e7649edc983836040516104ad92919061159f565b60405180910390a2505050565b60008151036104f5576040517f22ce3edd00000000000000000000000000000000000000000000000000000000815260040160405180910390fd5b828460000190600181111561050d5761050c611a27565b5b9081600181111561052157610520611a27565b5b81525050818460400190600081111561053d5761053c611a27565b5b9081600081111561055157610550611a27565b5b8152505080846060018190525050505050565b600081510361059f576040517fe889636f00000000000000000000000000000000000000000000000000000000815260040160405180910390fd5b6001826020019060018111156105b8576105b7611a27565b5b908160018111156105cc576105cb611a27565b5b815250508082608001819052505050565b6000815103610618576040517ffe936cb700000000000000000000000000000000000000000000000000000000815260040160405180910390fd5b808260a001819052505050565b60008060008054906101000a900473ffffffffffffffffffffffffffffffffffffffff1673ffffffffffffffffffffffffffffffffffffffff166328242b048561066e8861075c565b866040518463ffffffff1660e01b815260040161068d93929190611a74565b6020604051808303816000875af11580156106ac573d6000803e3d6000fd5b505050506040513d601f19601f820116820180604052508101906106d09190611ac7565b9050326001600083815260200190815260200160002060006101000a81548173ffffffffffffffffffffffffffffffffffffffff021916908373ffffffffffffffffffffffffffffffffffffffff160217905550807f1131472297a800fee664d1d89cfa8f7676ff07189ecc53f80bbb5f4969099db860405160405180910390a2809150509392505050565b606061076661101b565b6107768160000151610100610a5c565b506107b6816040518060400160405280600c81526020017f636f64654c6f636174696f6e0000000000000000000000000000000000000000815250610ad5565b6107d681846000015160018111156107d1576107d0611a27565b5b610afe565b610815816040518060400160405280600881526020017f6c616e6775616765000000000000000000000000000000000000000000000000815250610ad5565b61083581846040015160008111156108305761082f611a27565b5b610afe565b610874816040518060400160405280600681526020017f736f757263650000000000000000000000000000000000000000000000000000815250610ad5565b610882818460600151610ad5565b60008360a0015151111561092e576108cf816040518060400160405280600481526020017f6172677300000000000000000000000000000000000000000000000000000000815250610ad5565b6108d881610b4e565b60005b8360a001515181101561092357610910828560a00151838151811061090357610902611af4565b5b6020026020010151610ad5565b808061091b90611b52565b9150506108db565b5061092d81610b76565b5b60008360800151511115610a4b57600060018111156109505761094f611a27565b5b8360200151600181111561096757610966611a27565b5b0361099e576040517fa80d31f700000000000000000000000000000000000000000000000000000000815260040160405180910390fd5b6109dd816040518060400160405280600f81526020017f736563726574734c6f636174696f6e0000000000000000000000000000000000815250610ad5565b6109fd81846020015160018111156109f8576109f7611a27565b5b610afe565b610a3c816040518060400160405280600781526020017f7365637265747300000000000000000000000000000000000000000000000000815250610ad5565b610a4a818460800151610b9e565b5b806000015160000151915050919050565b610a6461103b565b6000602083610a739190611bc9565b14610a9f57602082610a859190611bc9565b6020610a919190611bfa565b82610a9c9190611c2e565b91505b818360200181815250506040518084526000815282810160200181811015610ac657600080fd5b80604052505082905092915050565b610ae28260038351610bc7565b610af9818360000151610d7090919063ffffffff16565b505050565b610b2060026005600660ff16901b178360000151610d8c90919063ffffffff16565b50610b4a8282604051602001610b369190611c71565b604051602081830303815290604052610b9e565b5050565b610b59816004610df6565b600181602001818151610b6c9190611c2e565b9150818152505050565b610b81816007610df6565b600181602001818151610b949190611bfa565b9150818152505050565b610bab8260028351610bc7565b610bc2818360000151610d7090919063ffffffff16565b505050565b60178167ffffffffffffffff1611610c0257610bfc8160058460ff16901b60ff16178460000151610d8c90919063ffffffff16565b50610d6b565b60ff8167ffffffffffffffff1611610c6057610c35601860058460ff16901b178460000151610d8c90919063ffffffff16565b50610c5a8167ffffffffffffffff1660018560000151610e1c9092919063ffffffff16565b50610d6a565b61ffff8167ffffffffffffffff1611610cbf57610c94601960058460ff16901b178460000151610d8c90919063ffffffff16565b50610cb98167ffffffffffffffff1660028560000151610e1c9092919063ffffffff16565b50610d69565b63ffffffff8167ffffffffffffffff1611610d2057610cf5601a60058460ff16901b178460000151610d8c90919063ffffffff16565b50610d1a8167ffffffffffffffff1660048560000151610e1c9092919063ffffffff16565b50610d68565b610d41601b60058460ff16901b178460000151610d8c90919063ffffffff16565b50610d668167ffffffffffffffff1660088560000151610e1c9092919063ffffffff16565b505b5b5b5b505050565b610d7861103b565b610d8483838451610ea9565b905092915050565b610d9461103b565b600083600001515190506000600182610dad9190611c2e565b905084602001518210610dd157610dd085600283610dcb9190611c8c565b610f8c565b5b84516020838201018581538151831115610de9578282525b5050849250505092915050565b610e17601f60058360ff16901b178360000151610d8c90919063ffffffff16565b505050565b610e2461103b565b6000846000015151905060008184610e3c9190611c2e565b90508560200151811115610e6157610e6086600283610e5b9190611c8c565b610f8c565b5b6000600185610100610e739190611e01565b610e7d9190611bfa565b905086518281018783198251161781528151841115610e9a578382525b50508693505050509392505050565b610eb161103b565b8251821115610ebf57600080fd5b6000846000015151905060008382610ed79190611c2e565b90508560200151811115610efc57610efb86600283610ef69190611c8c565b610f8c565b5b60008087518051856020830101935080851115610f17578482525b60208901925050505b60208610610f5e5780518252602082610f399190611c2e565b9150602081610f489190611c2e565b9050602086610f579190611bfa565b9550610f20565b60006001876020036101000a0390508019825116818451168181178552505050879450505050509392505050565b600082600001519050610f9f8383610a5c565b50610faa8382610d70565b50505050565b6040518060c0016040528060006001811115610fcf57610fce611a27565b5b815260200160006001811115610fe857610fe7611a27565b5b815260200160008081111561100057610fff611a27565b5b81526020016060815260200160608152602001606081525090565b604051806040016040528061102e61103b565b8152602001600081525090565b604051806040016040528060608152602001600081525090565b6000604051905090565b600080fd5b600080fd5b6000819050919050565b61107c81611069565b811461108757600080fd5b50565b60008135905061109981611073565b92915050565b600080fd5b600080fd5b6000601f19601f8301169050919050565b7f4e487b7100000000000000000000000000000000000000000000000000000000600052604160045260246000fd5b6110f2826110a9565b810181811067ffffffffffffffff82111715611111576111106110ba565b5b80604052505050565b6000611124611055565b905061113082826110e9565b919050565b600067ffffffffffffffff8211156111505761114f6110ba565b5b611159826110a9565b9050602081019050919050565b82818337600083830152505050565b600061118861118384611135565b61111a565b9050828152602081018484840111156111a4576111a36110a4565b5b6111af848285611166565b509392505050565b600082601f8301126111cc576111cb61109f565b5b81356111dc848260208601611175565b91505092915050565b6000806000606084860312156111fe576111fd61105f565b5b600061120c8682870161108a565b935050602084013567ffffffffffffffff81111561122d5761122c611064565b5b611239868287016111b7565b925050604084013567ffffffffffffffff81111561125a57611259611064565b5b611266868287016111b7565b9150509250925092565b61127981611069565b82525050565b60006020820190506112946000830184611270565b92915050565b600080fd5b600080fd5b60008083601f8401126112ba576112b961109f565b5b8235905067ffffffffffffffff8111156112d7576112d661129a565b5b6020830191508360018202830111156112f3576112f261129f565b5b9250929050565b60008083601f8401126113105761130f61109f565b5b8235905067ffffffffffffffff81111561132d5761132c61129a565b5b6020830191508360018202830111156113495761134861129f565b5b9250929050565b60008083601f8401126113665761136561109f565b5b8235905067ffffffffffffffff8111156113835761138261129a565b5b60208301915083602082028301111561139f5761139e61129f565b5b9250929050565b600067ffffffffffffffff82169050919050565b6113c3816113a6565b81146113ce57600080fd5b50565b6000813590506113e0816113ba565b92915050565b600063ffffffff82169050919050565b6113ff816113e6565b811461140a57600080fd5b50565b60008135905061141c816113f6565b92915050565b60008060008060008060008060a0898b0312156114425761144161105f565b5b600089013567ffffffffffffffff8111156114605761145f611064565b5b61146c8b828c016112a4565b9850985050602089013567ffffffffffffffff81111561148f5761148e611064565b5b61149b8b828c016112fa565b9650965050604089013567ffffffffffffffff8111156114be576114bd611064565b5b6114ca8b828c01611350565b945094505060606114dd8b828c016113d1565b92505060806114ee8b828c0161140d565b9150509295985092959890939650565b600081519050919050565b600082825260208201905092915050565b60005b8381101561153857808201518184015260208101905061151d565b60008484015250505050565b600061154f826114fe565b6115598185611509565b935061156981856020860161151a565b611572816110a9565b840191505092915050565b600060208201905081810360008301526115978184611544565b905092915050565b600060408201905081810360008301526115b98185611544565b905081810360208301526115cd8184611544565b90509392505050565b600067ffffffffffffffff8211156115f1576115f06110ba565b5b602082029050602081019050919050565b600067ffffffffffffffff82111561161d5761161c6110ba565b5b611626826110a9565b9050602081019050919050565b600061164661164184611602565b61111a565b905082815260208101848484011115611662576116616110a4565b5b61166d848285611166565b509392505050565b600082601f83011261168a5761168961109f565b5b813561169a848260208601611633565b91505092915050565b60006116b66116b1846115d6565b61111a565b905080838252602082019050602084028301858111156116d9576116d861129f565b5b835b8181101561172057803567ffffffffffffffff8111156116fe576116fd61109f565b5b80860161170b8982611675565b855260208501945050506020810190506116db565b5050509392505050565b60006117373684846116a3565b905092915050565b7f4e487b7100000000000000000000000000000000000000000000000000000000600052602260045260246000fd5b6000600282049050600182168061178657607f821691505b6020821081036117995761179861173f565b5b50919050565b60008190508160005260206000209050919050565b60006020601f8301049050919050565b600082821b905092915050565b6000600883026118017fffffffffffffffffffffffffffffffffffffffffffffffffffffffffffffffff826117c4565b61180b86836117c4565b95508019841693508086168417925050509392505050565b6000819050919050565b6000819050919050565b600061185261184d61184884611823565b61182d565b611823565b9050919050565b6000819050919050565b61186c83611837565b61188061187882611859565b8484546117d1565b825550505050565b600090565b611895611888565b6118a0818484611863565b505050565b5b818110156118c4576118b960008261188d565b6001810190506118a6565b5050565b601f821115611909576118da8161179f565b6118e3846117b4565b810160208510156118f2578190505b6119066118fe856117b4565b8301826118a5565b50505b505050565b600082821c905092915050565b600061192c6000198460080261190e565b1980831691505092915050565b6000611945838361191b565b9150826002028217905092915050565b61195e826114fe565b67ffffffffffffffff811115611977576119766110ba565b5b611981825461176e565b61198c8282856118c8565b600060209050601f8311600181146119bf57600084156119ad578287015190505b6119b78582611939565b865550611a1f565b601f1984166119cd8661179f565b60005b828110156119f5578489015182556001820191506020850194506020810190506119d0565b86831015611a125784890151611a0e601f89168261191b565b8355505b6001600288020188555050505b505050505050565b7f4e487b7100000000000000000000000000000000000000000000000000000000600052602160045260246000fd5b611a5f816113a6565b82525050565b611a6e816113e6565b82525050565b6000606082019050611a896000830186611a56565b8181036020830152611a9b8185611544565b9050611aaa6040830184611a65565b949350505050565b600081519050611ac181611073565b92915050565b600060208284031215611add57611adc61105f565b5b6000611aeb84828501611ab2565b91505092915050565b7f4e487b7100000000000000000000000000000000000000000000000000000000600052603260045260246000fd5b7f4e487b7100000000000000000000000000000000000000000000000000000000600052601160045260246000fd5b6000611b5d82611823565b91507fffffffffffffffffffffffffffffffffffffffffffffffffffffffffffffffff8203611b8f57611b8e611b23565b5b600182019050919050565b7f4e487b7100000000000000000000000000000000000000000000000000000000600052601260045260246000fd5b6000611bd482611823565b9150611bdf83611823565b925082611bef57611bee611b9a565b5b828206905092915050565b6000611c0582611823565b9150611c1083611823565b9250828203905081811115611c2857611c27611b23565b5b92915050565b6000611c3982611823565b9150611c4483611823565b9250828201905080821115611c5c57611c5b611b23565b5b92915050565b611c6b81611823565b82525050565b6000602082019050611c866000830184611c62565b92915050565b6000611c9782611823565b9150611ca283611823565b9250828202611cb081611823565b91508282048414831517611cc757611cc6611b23565b5b5092915050565b60008160011c9050919050565b6000808291508390505b6001851115611d2557808604811115611d0157611d00611b23565b5b6001851615611d105780820291505b8081029050611d1e85611cce565b9450611ce5565b94509492505050565b600082611d3e5760019050611dfa565b81611d4c5760009050611dfa565b8160018114611d625760028114611d6c57611d9b565b6001915050611dfa565b60ff841115611d7e57611d7d611b23565b5b8360020a915084821115611d9557611d94611b23565b5b50611dfa565b5060208310610133831016604e8410600b8410161715611dd05782820a905083811115611dcb57611dca611b23565b5b611dfa565b611ddd8484846001611cdb565b92509050818404811115611df457611df3611b23565b5b81810290505b9392505050565b6000611e0c82611823565b9150611e1783611823565b9250611e447fffffffffffffffffffffffffffffffffffffffffffffffffffffffffffffffff8484611d2e565b90509291505056fea2646970667358221220e9d4d43a98746e9b827f04e5b538e070b705426a2568ca0cfcab53843028d61f64736f6c63430008110033",
			"opcodes": "PUSH1 0x80 PUSH1 0x40 MSTORE CALLVALUE DUP1 ISZERO PUSH3 0x11 JUMPI PUSH1 0x0 DUP1 REVERT JUMPDEST POP PUSH1 0x40 MLOAD PUSH3 0x1FC2 CODESIZE SUB DUP1 PUSH3 0x1FC2 DUP4 CODECOPY DUP2 DUP2 ADD PUSH1 0x40 MSTORE DUP2 ADD SWAP1 PUSH3 0x37 SWAP2 SWAP1 PUSH3 0xFE JUMP JUMPDEST DUP1 PUSH3 0x49 DUP2 PUSH3 0x51 PUSH1 0x20 SHL PUSH1 0x20 SHR JUMP JUMPDEST POP POP PUSH3 0x130 JUMP JUMPDEST DUP1 PUSH1 0x0 DUP1 PUSH2 0x100 EXP DUP2 SLOAD DUP2 PUSH20 0xFFFFFFFFFFFFFFFFFFFFFFFFFFFFFFFFFFFFFFFF MUL NOT AND SWAP1 DUP4 PUSH20 0xFFFFFFFFFFFFFFFFFFFFFFFFFFFFFFFFFFFFFFFF AND MUL OR SWAP1 SSTORE POP POP JUMP JUMPDEST PUSH1 0x0 DUP1 REVERT JUMPDEST PUSH1 0x0 PUSH20 0xFFFFFFFFFFFFFFFFFFFFFFFFFFFFFFFFFFFFFFFF DUP3 AND SWAP1 POP SWAP2 SWAP1 POP JUMP JUMPDEST PUSH1 0x0 PUSH3 0xC6 DUP3 PUSH3 0x99 JUMP JUMPDEST SWAP1 POP SWAP2 SWAP1 POP JUMP JUMPDEST PUSH3 0xD8 DUP2 PUSH3 0xB9 JUMP JUMPDEST DUP2 EQ PUSH3 0xE4 JUMPI PUSH1 0x0 DUP1 REVERT JUMPDEST POP JUMP JUMPDEST PUSH1 0x0 DUP2 MLOAD SWAP1 POP PUSH3 0xF8 DUP2 PUSH3 0xCD JUMP JUMPDEST SWAP3 SWAP2 POP POP JUMP JUMPDEST PUSH1 0x0 PUSH1 0x20 DUP3 DUP5 SUB SLT ISZERO PUSH3 0x117 JUMPI PUSH3 0x116 PUSH3 0x94 JUMP JUMPDEST JUMPDEST PUSH1 0x0 PUSH3 0x127 DUP5 DUP3 DUP6 ADD PUSH3 0xE7 JUMP JUMPDEST SWAP2 POP POP SWAP3 SWAP2 POP POP JUMP JUMPDEST PUSH2 0x1E82 DUP1 PUSH3 0x140 PUSH1 0x0 CODECOPY PUSH1 0x0 RETURN INVALID PUSH1 0x80 PUSH1 0x40 MSTORE CALLVALUE DUP1 ISZERO PUSH2 0x10 JUMPI PUSH1 0x0 DUP1 REVERT JUMPDEST POP PUSH1 0x4 CALLDATASIZE LT PUSH2 0x57 JUMPI PUSH1 0x0 CALLDATALOAD PUSH1 0xE0 SHR DUP1 PUSH4 0xCA76175 EQ PUSH2 0x5C JUMPI DUP1 PUSH4 0x1AA46F59 EQ PUSH2 0x78 JUMPI DUP1 PUSH4 0x27714589 EQ PUSH2 0x96 JUMPI DUP1 PUSH4 0xBEF3A2F0 EQ PUSH2 0xC6 JUMPI DUP1 PUSH4 0xFFFEB84E EQ PUSH2 0xE4 JUMPI JUMPDEST PUSH1 0x0 DUP1 REVERT JUMPDEST PUSH2 0x76 PUSH1 0x4 DUP1 CALLDATASIZE SUB DUP2 ADD SWAP1 PUSH2 0x71 SWAP2 SWAP1 PUSH2 0x11E5 JUMP JUMPDEST PUSH2 0x102 JUMP JUMPDEST STOP JUMPDEST PUSH2 0x80 PUSH2 0x21C JUMP JUMPDEST PUSH1 0x40 MLOAD PUSH2 0x8D SWAP2 SWAP1 PUSH2 0x127F JUMP JUMPDEST PUSH1 0x40 MLOAD DUP1 SWAP2 SUB SWAP1 RETURN JUMPDEST PUSH2 0xB0 PUSH1 0x4 DUP1 CALLDATASIZE SUB DUP2 ADD SWAP1 PUSH2 0xAB SWAP2 SWAP1 PUSH2 0x1422 JUMP JUMPDEST PUSH2 0x222 JUMP JUMPDEST PUSH1 0x40 MLOAD PUSH2 0xBD SWAP2 SWAP1 PUSH2 0x127F JUMP JUMPDEST PUSH1 0x40 MLOAD DUP1 SWAP2 SUB SWAP1 RETURN JUMPDEST PUSH2 0xCE PUSH2 0x33F JUMP JUMPDEST PUSH1 0x40 MLOAD PUSH2 0xDB SWAP2 SWAP1 PUSH2 0x157D JUMP JUMPDEST PUSH1 0x40 MLOAD DUP1 SWAP2 SUB SWAP1 RETURN JUMPDEST PUSH2 0xEC PUSH2 0x3CD JUMP JUMPDEST PUSH1 0x40 MLOAD PUSH2 0xF9 SWAP2 SWAP1 PUSH2 0x157D JUMP JUMPDEST PUSH1 0x40 MLOAD DUP1 SWAP2 SUB SWAP1 RETURN JUMPDEST DUP3 PUSH1 0x1 PUSH1 0x0 DUP3 DUP2 MSTORE PUSH1 0x20 ADD SWAP1 DUP2 MSTORE PUSH1 0x20 ADD PUSH1 0x0 KECCAK256 PUSH1 0x0 SWAP1 SLOAD SWAP1 PUSH2 0x100 EXP SWAP1 DIV PUSH20 0xFFFFFFFFFFFFFFFFFFFFFFFFFFFFFFFFFFFFFFFF AND PUSH20 0xFFFFFFFFFFFFFFFFFFFFFFFFFFFFFFFFFFFFFFFF AND CALLER PUSH20 0xFFFFFFFFFFFFFFFFFFFFFFFFFFFFFFFFFFFFFFFF AND EQ PUSH2 0x19B JUMPI PUSH1 0x40 MLOAD PUSH32 0xA0C5EC6300000000000000000000000000000000000000000000000000000000 DUP2 MSTORE PUSH1 0x4 ADD PUSH1 0x40 MLOAD DUP1 SWAP2 SUB SWAP1 REVERT JUMPDEST PUSH1 0x1 PUSH1 0x0 DUP3 DUP2 MSTORE PUSH1 0x20 ADD SWAP1 DUP2 MSTORE PUSH1 0x20 ADD PUSH1 0x0 KECCAK256 PUSH1 0x0 PUSH2 0x100 EXP DUP2 SLOAD SWAP1 PUSH20 0xFFFFFFFFFFFFFFFFFFFFFFFFFFFFFFFFFFFFFFFF MUL NOT AND SWAP1 SSTORE PUSH2 0x1DC DUP5 DUP5 DUP5 PUSH2 0x45B JUMP JUMPDEST DUP4 PUSH32 0xF2FA06652E54791D449AB43EDE930A20D3B71ED330CAD4018F47BA6CC15DA00A DUP5 DUP5 PUSH1 0x40 MLOAD PUSH2 0x20E SWAP3 SWAP2 SWAP1 PUSH2 0x159F JUMP JUMPDEST PUSH1 0x40 MLOAD DUP1 SWAP2 SUB SWAP1 LOG2 POP POP POP POP JUMP JUMPDEST PUSH1 0x2 SLOAD DUP2 JUMP JUMPDEST PUSH1 0x0 PUSH2 0x22C PUSH2 0xFB0 JUMP JUMPDEST PUSH2 0x288 PUSH1 0x0 DUP1 DUP13 DUP13 DUP1 DUP1 PUSH1 0x1F ADD PUSH1 0x20 DUP1 SWAP2 DIV MUL PUSH1 0x20 ADD PUSH1 0x40 MLOAD SWAP1 DUP2 ADD PUSH1 0x40 MSTORE DUP1 SWAP4 SWAP3 SWAP2 SWAP1 DUP2 DUP2 MSTORE PUSH1 0x20 ADD DUP4 DUP4 DUP1 DUP3 DUP5 CALLDATACOPY PUSH1 0x0 DUP2 DUP5 ADD MSTORE PUSH1 0x1F NOT PUSH1 0x1F DUP3 ADD AND SWAP1 POP DUP1 DUP4 ADD SWAP3 POP POP POP POP POP POP POP DUP5 PUSH2 0x4BA SWAP1 SWAP4 SWAP3 SWAP2 SWAP1 PUSH4 0xFFFFFFFF AND JUMP JUMPDEST PUSH1 0x0 DUP9 DUP9 SWAP1 POP GT ISZERO PUSH2 0x2EC JUMPI PUSH2 0x2EB DUP9 DUP9 DUP1 DUP1 PUSH1 0x1F ADD PUSH1 0x20 DUP1 SWAP2 DIV MUL PUSH1 0x20 ADD PUSH1 0x40 MLOAD SWAP1 DUP2 ADD PUSH1 0x40 MSTORE DUP1 SWAP4 SWAP3 SWAP2 SWAP1 DUP2 DUP2 MSTORE PUSH1 0x20 ADD DUP4 DUP4 DUP1 DUP3 DUP5 CALLDATACOPY PUSH1 0x0 DUP2 DUP5 ADD MSTORE PUSH1 0x1F NOT PUSH1 0x1F DUP3 ADD AND SWAP1 POP DUP1 DUP4 ADD SWAP3 POP POP POP POP POP POP POP DUP3 PUSH2 0x564 SWAP1 SWAP2 SWAP1 PUSH4 0xFFFFFFFF AND JUMP JUMPDEST JUMPDEST PUSH1 0x0 DUP7 DUP7 SWAP1 POP GT ISZERO PUSH2 0x318 JUMPI PUSH2 0x317 DUP7 DUP7 SWAP1 PUSH2 0x308 SWAP2 SWAP1 PUSH2 0x172A JUMP JUMPDEST DUP3 PUSH2 0x5DD SWAP1 SWAP2 SWAP1 PUSH4 0xFFFFFFFF AND JUMP JUMPDEST JUMPDEST PUSH1 0x0 PUSH2 0x325 DUP3 DUP7 DUP7 PUSH2 0x625 JUMP JUMPDEST SWAP1 POP DUP1 PUSH1 0x2 DUP2 SWAP1 SSTORE POP DUP1 SWAP3 POP POP POP SWAP9 SWAP8 POP POP POP POP POP POP POP POP JUMP JUMPDEST PUSH1 0x3 DUP1 SLOAD PUSH2 0x34C SWAP1 PUSH2 0x176E JUMP JUMPDEST DUP1 PUSH1 0x1F ADD PUSH1 0x20 DUP1 SWAP2 DIV MUL PUSH1 0x20 ADD PUSH1 0x40 MLOAD SWAP1 DUP2 ADD PUSH1 0x40 MSTORE DUP1 SWAP3 SWAP2 SWAP1 DUP2 DUP2 MSTORE PUSH1 0x20 ADD DUP3 DUP1 SLOAD PUSH2 0x378 SWAP1 PUSH2 0x176E JUMP JUMPDEST DUP1 ISZERO PUSH2 0x3C5 JUMPI DUP1 PUSH1 0x1F LT PUSH2 0x39A JUMPI PUSH2 0x100 DUP1 DUP4 SLOAD DIV MUL DUP4 MSTORE SWAP2 PUSH1 0x20 ADD SWAP2 PUSH2 0x3C5 JUMP JUMPDEST DUP3 ADD SWAP2 SWAP1 PUSH1 0x0 MSTORE PUSH1 0x20 PUSH1 0x0 KECCAK256 SWAP1 JUMPDEST DUP2 SLOAD DUP2 MSTORE SWAP1 PUSH1 0x1 ADD SWAP1 PUSH1 0x20 ADD DUP1 DUP4 GT PUSH2 0x3A8 JUMPI DUP3 SWAP1 SUB PUSH1 0x1F AND DUP3 ADD SWAP2 JUMPDEST POP POP POP POP POP DUP2 JUMP JUMPDEST PUSH1 0x4 DUP1 SLOAD PUSH2 0x3DA SWAP1 PUSH2 0x176E JUMP JUMPDEST DUP1 PUSH1 0x1F ADD PUSH1 0x20 DUP1 SWAP2 DIV MUL PUSH1 0x20 ADD PUSH1 0x40 MLOAD SWAP1 DUP2 ADD PUSH1 0x40 MSTORE DUP1 SWAP3 SWAP2 SWAP1 DUP2 DUP2 MSTORE PUSH1 0x20 ADD DUP3 DUP1 SLOAD PUSH2 0x406 SWAP1 PUSH2 0x176E JUMP JUMPDEST DUP1 ISZERO PUSH2 0x453 JUMPI DUP1 PUSH1 0x1F LT PUSH2 0x428 JUMPI PUSH2 0x100 DUP1 DUP4 SLOAD DIV MUL DUP4 MSTORE SWAP2 PUSH1 0x20 ADD SWAP2 PUSH2 0x453 JUMP JUMPDEST DUP3 ADD SWAP2 SWAP1 PUSH1 0x0 MSTORE PUSH1 0x20 PUSH1 0x0 KECCAK256 SWAP1 JUMPDEST DUP2 SLOAD DUP2 MSTORE SWAP1 PUSH1 0x1 ADD SWAP1 PUSH1 0x20 ADD DUP1 DUP4 GT PUSH2 0x436 JUMPI DUP3 SWAP1 SUB PUSH1 0x1F AND DUP3 ADD SWAP2 JUMPDEST POP POP POP POP POP DUP2 JUMP JUMPDEST DUP2 PUSH1 0x3 SWAP1 DUP2 PUSH2 0x46A SWAP2 SWAP1 PUSH2 0x1955 JUMP JUMPDEST POP DUP1 PUSH1 0x4 SWAP1 DUP2 PUSH2 0x47A SWAP2 SWAP1 PUSH2 0x1955 JUMP JUMPDEST POP DUP3 PUSH32 0x51732BD592D531E70A33BA1A99EA425D26FA7CB95AAF81189A1B2A0E7649EDC9 DUP4 DUP4 PUSH1 0x40 MLOAD PUSH2 0x4AD SWAP3 SWAP2 SWAP1 PUSH2 0x159F JUMP JUMPDEST PUSH1 0x40 MLOAD DUP1 SWAP2 SUB SWAP1 LOG2 POP POP POP JUMP JUMPDEST PUSH1 0x0 DUP2 MLOAD SUB PUSH2 0x4F5 JUMPI PUSH1 0x40 MLOAD PUSH32 0x22CE3EDD00000000000000000000000000000000000000000000000000000000 DUP2 MSTORE PUSH1 0x4 ADD PUSH1 0x40 MLOAD DUP1 SWAP2 SUB SWAP1 REVERT JUMPDEST DUP3 DUP5 PUSH1 0x0 ADD SWAP1 PUSH1 0x1 DUP2 GT ISZERO PUSH2 0x50D JUMPI PUSH2 0x50C PUSH2 0x1A27 JUMP JUMPDEST JUMPDEST SWAP1 DUP2 PUSH1 0x1 DUP2 GT ISZERO PUSH2 0x521 JUMPI PUSH2 0x520 PUSH2 0x1A27 JUMP JUMPDEST JUMPDEST DUP2 MSTORE POP POP DUP2 DUP5 PUSH1 0x40 ADD SWAP1 PUSH1 0x0 DUP2 GT ISZERO PUSH2 0x53D JUMPI PUSH2 0x53C PUSH2 0x1A27 JUMP JUMPDEST JUMPDEST SWAP1 DUP2 PUSH1 0x0 DUP2 GT ISZERO PUSH2 0x551 JUMPI PUSH2 0x550 PUSH2 0x1A27 JUMP JUMPDEST JUMPDEST DUP2 MSTORE POP POP DUP1 DUP5 PUSH1 0x60 ADD DUP2 SWAP1 MSTORE POP POP POP POP POP JUMP JUMPDEST PUSH1 0x0 DUP2 MLOAD SUB PUSH2 0x59F JUMPI PUSH1 0x40 MLOAD PUSH32 0xE889636F00000000000000000000000000000000000000000000000000000000 DUP2 MSTORE PUSH1 0x4 ADD PUSH1 0x40 MLOAD DUP1 SWAP2 SUB SWAP1 REVERT JUMPDEST PUSH1 0x1 DUP3 PUSH1 0x20 ADD SWAP1 PUSH1 0x1 DUP2 GT ISZERO PUSH2 0x5B8 JUMPI PUSH2 0x5B7 PUSH2 0x1A27 JUMP JUMPDEST JUMPDEST SWAP1 DUP2 PUSH1 0x1 DUP2 GT ISZERO PUSH2 0x5CC JUMPI PUSH2 0x5CB PUSH2 0x1A27 JUMP JUMPDEST JUMPDEST DUP2 MSTORE POP POP DUP1 DUP3 PUSH1 0x80 ADD DUP2 SWAP1 MSTORE POP POP POP JUMP JUMPDEST PUSH1 0x0 DUP2 MLOAD SUB PUSH2 0x618 JUMPI PUSH1 0x40 MLOAD PUSH32 0xFE936CB700000000000000000000000000000000000000000000000000000000 DUP2 MSTORE PUSH1 0x4 ADD PUSH1 0x40 MLOAD DUP1 SWAP2 SUB SWAP1 REVERT JUMPDEST DUP1 DUP3 PUSH1 0xA0 ADD DUP2 SWAP1 MSTORE POP POP POP JUMP JUMPDEST PUSH1 0x0 DUP1 PUSH1 0x0 DUP1 SLOAD SWAP1 PUSH2 0x100 EXP SWAP1 DIV PUSH20 0xFFFFFFFFFFFFFFFFFFFFFFFFFFFFFFFFFFFFFFFF AND PUSH20 0xFFFFFFFFFFFFFFFFFFFFFFFFFFFFFFFFFFFFFFFF AND PUSH4 0x28242B04 DUP6 PUSH2 0x66E DUP9 PUSH2 0x75C JUMP JUMPDEST DUP7 PUSH1 0x40 MLOAD DUP5 PUSH4 0xFFFFFFFF AND PUSH1 0xE0 SHL DUP2 MSTORE PUSH1 0x4 ADD PUSH2 0x68D SWAP4 SWAP3 SWAP2 SWAP1 PUSH2 0x1A74 JUMP JUMPDEST PUSH1 0x20 PUSH1 0x40 MLOAD DUP1 DUP4 SUB DUP2 PUSH1 0x0 DUP8 GAS CALL ISZERO DUP1 ISZERO PUSH2 0x6AC JUMPI RETURNDATASIZE PUSH1 0x0 DUP1 RETURNDATACOPY RETURNDATASIZE PUSH1 0x0 REVERT JUMPDEST POP POP POP POP PUSH1 0x40 MLOAD RETURNDATASIZE PUSH1 0x1F NOT PUSH1 0x1F DUP3 ADD AND DUP3 ADD DUP1 PUSH1 0x40 MSTORE POP DUP2 ADD SWAP1 PUSH2 0x6D0 SWAP2 SWAP1 PUSH2 0x1AC7 JUMP JUMPDEST SWAP1 POP ORIGIN PUSH1 0x1 PUSH1 0x0 DUP4 DUP2 MSTORE PUSH1 0x20 ADD SWAP1 DUP2 MSTORE PUSH1 0x20 ADD PUSH1 0x0 KECCAK256 PUSH1 0x0 PUSH2 0x100 EXP DUP2 SLOAD DUP2 PUSH20 0xFFFFFFFFFFFFFFFFFFFFFFFFFFFFFFFFFFFFFFFF MUL NOT AND SWAP1 DUP4 PUSH20 0xFFFFFFFFFFFFFFFFFFFFFFFFFFFFFFFFFFFFFFFF AND MUL OR SWAP1 SSTORE POP DUP1 PUSH32 0x1131472297A800FEE664D1D89CFA8F7676FF07189ECC53F80BBB5F4969099DB8 PUSH1 0x40 MLOAD PUSH1 0x40 MLOAD DUP1 SWAP2 SUB SWAP1 LOG2 DUP1 SWAP2 POP POP SWAP4 SWAP3 POP POP POP JUMP JUMPDEST PUSH1 0x60 PUSH2 0x766 PUSH2 0x101B JUMP JUMPDEST PUSH2 0x776 DUP2 PUSH1 0x0 ADD MLOAD PUSH2 0x100 PUSH2 0xA5C JUMP JUMPDEST POP PUSH2 0x7B6 DUP2 PUSH1 0x40 MLOAD DUP1 PUSH1 0x40 ADD PUSH1 0x40 MSTORE DUP1 PUSH1 0xC DUP2 MSTORE PUSH1 0x20 ADD PUSH32 0x636F64654C6F636174696F6E0000000000000000000000000000000000000000 DUP2 MSTORE POP PUSH2 0xAD5 JUMP JUMPDEST PUSH2 0x7D6 DUP2 DUP5 PUSH1 0x0 ADD MLOAD PUSH1 0x1 DUP2 GT ISZERO PUSH2 0x7D1 JUMPI PUSH2 0x7D0 PUSH2 0x1A27 JUMP JUMPDEST JUMPDEST PUSH2 0xAFE JUMP JUMPDEST PUSH2 0x815 DUP2 PUSH1 0x40 MLOAD DUP1 PUSH1 0x40 ADD PUSH1 0x40 MSTORE DUP1 PUSH1 0x8 DUP2 MSTORE PUSH1 0x20 ADD PUSH32 0x6C616E6775616765000000000000000000000000000000000000000000000000 DUP2 MSTORE POP PUSH2 0xAD5 JUMP JUMPDEST PUSH2 0x835 DUP2 DUP5 PUSH1 0x40 ADD MLOAD PUSH1 0x0 DUP2 GT ISZERO PUSH2 0x830 JUMPI PUSH2 0x82F PUSH2 0x1A27 JUMP JUMPDEST JUMPDEST PUSH2 0xAFE JUMP JUMPDEST PUSH2 0x874 DUP2 PUSH1 0x40 MLOAD DUP1 PUSH1 0x40 ADD PUSH1 0x40 MSTORE DUP1 PUSH1 0x6 DUP2 MSTORE PUSH1 0x20 ADD PUSH32 0x736F757263650000000000000000000000000000000000000000000000000000 DUP2 MSTORE POP PUSH2 0xAD5 JUMP JUMPDEST PUSH2 0x882 DUP2 DUP5 PUSH1 0x60 ADD MLOAD PUSH2 0xAD5 JUMP JUMPDEST PUSH1 0x0 DUP4 PUSH1 0xA0 ADD MLOAD MLOAD GT ISZERO PUSH2 0x92E JUMPI PUSH2 0x8CF DUP2 PUSH1 0x40 MLOAD DUP1 PUSH1 0x40 ADD PUSH1 0x40 MSTORE DUP1 PUSH1 0x4 DUP2 MSTORE PUSH1 0x20 ADD PUSH32 0x6172677300000000000000000000000000000000000000000000000000000000 DUP2 MSTORE POP PUSH2 0xAD5 JUMP JUMPDEST PUSH2 0x8D8 DUP2 PUSH2 0xB4E JUMP JUMPDEST PUSH1 0x0 JUMPDEST DUP4 PUSH1 0xA0 ADD MLOAD MLOAD DUP2 LT ISZERO PUSH2 0x923 JUMPI PUSH2 0x910 DUP3 DUP6 PUSH1 0xA0 ADD MLOAD DUP4 DUP2 MLOAD DUP2 LT PUSH2 0x903 JUMPI PUSH2 0x902 PUSH2 0x1AF4 JUMP JUMPDEST JUMPDEST PUSH1 0x20 MUL PUSH1 0x20 ADD ADD MLOAD PUSH2 0xAD5 JUMP JUMPDEST DUP1 DUP1 PUSH2 0x91B SWAP1 PUSH2 0x1B52 JUMP JUMPDEST SWAP2 POP POP PUSH2 0x8DB JUMP JUMPDEST POP PUSH2 0x92D DUP2 PUSH2 0xB76 JUMP JUMPDEST JUMPDEST PUSH1 0x0 DUP4 PUSH1 0x80 ADD MLOAD MLOAD GT ISZERO PUSH2 0xA4B JUMPI PUSH1 0x0 PUSH1 0x1 DUP2 GT ISZERO PUSH2 0x950 JUMPI PUSH2 0x94F PUSH2 0x1A27 JUMP JUMPDEST JUMPDEST DUP4 PUSH1 0x20 ADD MLOAD PUSH1 0x1 DUP2 GT ISZERO PUSH2 0x967 JUMPI PUSH2 0x966 PUSH2 0x1A27 JUMP JUMPDEST JUMPDEST SUB PUSH2 0x99E JUMPI PUSH1 0x40 MLOAD PUSH32 0xA80D31F700000000000000000000000000000000000000000000000000000000 DUP2 MSTORE PUSH1 0x4 ADD PUSH1 0x40 MLOAD DUP1 SWAP2 SUB SWAP1 REVERT JUMPDEST PUSH2 0x9DD DUP2 PUSH1 0x40 MLOAD DUP1 PUSH1 0x40 ADD PUSH1 0x40 MSTORE DUP1 PUSH1 0xF DUP2 MSTORE PUSH1 0x20 ADD PUSH32 0x736563726574734C6F636174696F6E0000000000000000000000000000000000 DUP2 MSTORE POP PUSH2 0xAD5 JUMP JUMPDEST PUSH2 0x9FD DUP2 DUP5 PUSH1 0x20 ADD MLOAD PUSH1 0x1 DUP2 GT ISZERO PUSH2 0x9F8 JUMPI PUSH2 0x9F7 PUSH2 0x1A27 JUMP JUMPDEST JUMPDEST PUSH2 0xAFE JUMP JUMPDEST PUSH2 0xA3C DUP2 PUSH1 0x40 MLOAD DUP1 PUSH1 0x40 ADD PUSH1 0x40 MSTORE DUP1 PUSH1 0x7 DUP2 MSTORE PUSH1 0x20 ADD PUSH32 0x7365637265747300000000000000000000000000000000000000000000000000 DUP2 MSTORE POP PUSH2 0xAD5 JUMP JUMPDEST PUSH2 0xA4A DUP2 DUP5 PUSH1 0x80 ADD MLOAD PUSH2 0xB9E JUMP JUMPDEST JUMPDEST DUP1 PUSH1 0x0 ADD MLOAD PUSH1 0x0 ADD MLOAD SWAP2 POP POP SWAP2 SWAP1 POP JUMP JUMPDEST PUSH2 0xA64 PUSH2 0x103B JUMP JUMPDEST PUSH1 0x0 PUSH1 0x20 DUP4 PUSH2 0xA73 SWAP2 SWAP1 PUSH2 0x1BC9 JUMP JUMPDEST EQ PUSH2 0xA9F JUMPI PUSH1 0x20 DUP3 PUSH2 0xA85 SWAP2 SWAP1 PUSH2 0x1BC9 JUMP JUMPDEST PUSH1 0x20 PUSH2 0xA91 SWAP2 SWAP1 PUSH2 0x1BFA JUMP JUMPDEST DUP3 PUSH2 0xA9C SWAP2 SWAP1 PUSH2 0x1C2E JUMP JUMPDEST SWAP2 POP JUMPDEST DUP2 DUP4 PUSH1 0x20 ADD DUP2 DUP2 MSTORE POP POP PUSH1 0x40 MLOAD DUP1 DUP5 MSTORE PUSH1 0x0 DUP2 MSTORE DUP3 DUP2 ADD PUSH1 0x20 ADD DUP2 DUP2 LT ISZERO PUSH2 0xAC6 JUMPI PUSH1 0x0 DUP1 REVERT JUMPDEST DUP1 PUSH1 0x40 MSTORE POP POP DUP3 SWAP1 POP SWAP3 SWAP2 POP POP JUMP JUMPDEST PUSH2 0xAE2 DUP3 PUSH1 0x3 DUP4 MLOAD PUSH2 0xBC7 JUMP JUMPDEST PUSH2 0xAF9 DUP2 DUP4 PUSH1 0x0 ADD MLOAD PUSH2 0xD70 SWAP1 SWAP2 SWAP1 PUSH4 0xFFFFFFFF AND JUMP JUMPDEST POP POP POP JUMP JUMPDEST PUSH2 0xB20 PUSH1 0x2 PUSH1 0x5 PUSH1 0x6 PUSH1 0xFF AND SWAP1 SHL OR DUP4 PUSH1 0x0 ADD MLOAD PUSH2 0xD8C SWAP1 SWAP2 SWAP1 PUSH4 0xFFFFFFFF AND JUMP JUMPDEST POP PUSH2 0xB4A DUP3 DUP3 PUSH1 0x40 MLOAD PUSH1 0x20 ADD PUSH2 0xB36 SWAP2 SWAP1 PUSH2 0x1C71 JUMP JUMPDEST PUSH1 0x40 MLOAD PUSH1 0x20 DUP2 DUP4 SUB SUB DUP2 MSTORE SWAP1 PUSH1 0x40 MSTORE PUSH2 0xB9E JUMP JUMPDEST POP POP JUMP JUMPDEST PUSH2 0xB59 DUP2 PUSH1 0x4 PUSH2 0xDF6 JUMP JUMPDEST PUSH1 0x1 DUP2 PUSH1 0x20 ADD DUP2 DUP2 MLOAD PUSH2 0xB6C SWAP2 SWAP1 PUSH2 0x1C2E JUMP JUMPDEST SWAP2 POP DUP2 DUP2 MSTORE POP POP POP JUMP JUMPDEST PUSH2 0xB81 DUP2 PUSH1 0x7 PUSH2 0xDF6 JUMP JUMPDEST PUSH1 0x1 DUP2 PUSH1 0x20 ADD DUP2 DUP2 MLOAD PUSH2 0xB94 SWAP2 SWAP1 PUSH2 0x1BFA JUMP JUMPDEST SWAP2 POP DUP2 DUP2 MSTORE POP POP POP JUMP JUMPDEST PUSH2 0xBAB DUP3 PUSH1 0x2 DUP4 MLOAD PUSH2 0xBC7 JUMP JUMPDEST PUSH2 0xBC2 DUP2 DUP4 PUSH1 0x0 ADD MLOAD PUSH2 0xD70 SWAP1 SWAP2 SWAP1 PUSH4 0xFFFFFFFF AND JUMP JUMPDEST POP POP POP JUMP JUMPDEST PUSH1 0x17 DUP2 PUSH8 0xFFFFFFFFFFFFFFFF AND GT PUSH2 0xC02 JUMPI PUSH2 0xBFC DUP2 PUSH1 0x5 DUP5 PUSH1 0xFF AND SWAP1 SHL PUSH1 0xFF AND OR DUP5 PUSH1 0x0 ADD MLOAD PUSH2 0xD8C SWAP1 SWAP2 SWAP1 PUSH4 0xFFFFFFFF AND JUMP JUMPDEST POP PUSH2 0xD6B JUMP JUMPDEST PUSH1 0xFF DUP2 PUSH8 0xFFFFFFFFFFFFFFFF AND GT PUSH2 0xC60 JUMPI PUSH2 0xC35 PUSH1 0x18 PUSH1 0x5 DUP5 PUSH1 0xFF AND SWAP1 SHL OR DUP5 PUSH1 0x0 ADD MLOAD PUSH2 0xD8C SWAP1 SWAP2 SWAP1 PUSH4 0xFFFFFFFF AND JUMP JUMPDEST POP PUSH2 0xC5A DUP2 PUSH8 0xFFFFFFFFFFFFFFFF AND PUSH1 0x1 DUP6 PUSH1 0x0 ADD MLOAD PUSH2 0xE1C SWAP1 SWAP3 SWAP2 SWAP1 PUSH4 0xFFFFFFFF AND JUMP JUMPDEST POP PUSH2 0xD6A JUMP JUMPDEST PUSH2 0xFFFF DUP2 PUSH8 0xFFFFFFFFFFFFFFFF AND GT PUSH2 0xCBF JUMPI PUSH2 0xC94 PUSH1 0x19 PUSH1 0x5 DUP5 PUSH1 0xFF AND SWAP1 SHL OR DUP5 PUSH1 0x0 ADD MLOAD PUSH2 0xD8C SWAP1 SWAP2 SWAP1 PUSH4 0xFFFFFFFF AND JUMP JUMPDEST POP PUSH2 0xCB9 DUP2 PUSH8 0xFFFFFFFFFFFFFFFF AND PUSH1 0x2 DUP6 PUSH1 0x0 ADD MLOAD PUSH2 0xE1C SWAP1 SWAP3 SWAP2 SWAP1 PUSH4 0xFFFFFFFF AND JUMP JUMPDEST POP PUSH2 0xD69 JUMP JUMPDEST PUSH4 0xFFFFFFFF DUP2 PUSH8 0xFFFFFFFFFFFFFFFF AND GT PUSH2 0xD20 JUMPI PUSH2 0xCF5 PUSH1 0x1A PUSH1 0x5 DUP5 PUSH1 0xFF AND SWAP1 SHL OR DUP5 PUSH1 0x0 ADD MLOAD PUSH2 0xD8C SWAP1 SWAP2 SWAP1 PUSH4 0xFFFFFFFF AND JUMP JUMPDEST POP PUSH2 0xD1A DUP2 PUSH8 0xFFFFFFFFFFFFFFFF AND PUSH1 0x4 DUP6 PUSH1 0x0 ADD MLOAD PUSH2 0xE1C SWAP1 SWAP3 SWAP2 SWAP1 PUSH4 0xFFFFFFFF AND JUMP JUMPDEST POP PUSH2 0xD68 JUMP JUMPDEST PUSH2 0xD41 PUSH1 0x1B PUSH1 0x5 DUP5 PUSH1 0xFF AND SWAP1 SHL OR DUP5 PUSH1 0x0 ADD MLOAD PUSH2 0xD8C SWAP1 SWAP2 SWAP1 PUSH4 0xFFFFFFFF AND JUMP JUMPDEST POP PUSH2 0xD66 DUP2 PUSH8 0xFFFFFFFFFFFFFFFF AND PUSH1 0x8 DUP6 PUSH1 0x0 ADD MLOAD PUSH2 0xE1C SWAP1 SWAP3 SWAP2 SWAP1 PUSH4 0xFFFFFFFF AND JUMP JUMPDEST POP JUMPDEST JUMPDEST JUMPDEST JUMPDEST POP POP POP JUMP JUMPDEST PUSH2 0xD78 PUSH2 0x103B JUMP JUMPDEST PUSH2 0xD84 DUP4 DUP4 DUP5 MLOAD PUSH2 0xEA9 JUMP JUMPDEST SWAP1 POP SWAP3 SWAP2 POP POP JUMP JUMPDEST PUSH2 0xD94 PUSH2 0x103B JUMP JUMPDEST PUSH1 0x0 DUP4 PUSH1 0x0 ADD MLOAD MLOAD SWAP1 POP PUSH1 0x0 PUSH1 0x1 DUP3 PUSH2 0xDAD SWAP2 SWAP1 PUSH2 0x1C2E JUMP JUMPDEST SWAP1 POP DUP5 PUSH1 0x20 ADD MLOAD DUP3 LT PUSH2 0xDD1 JUMPI PUSH2 0xDD0 DUP6 PUSH1 0x2 DUP4 PUSH2 0xDCB SWAP2 SWAP1 PUSH2 0x1C8C JUMP JUMPDEST PUSH2 0xF8C JUMP JUMPDEST JUMPDEST DUP5 MLOAD PUSH1 0x20 DUP4 DUP3 ADD ADD DUP6 DUP2 MSTORE8 DUP2 MLOAD DUP4 GT ISZERO PUSH2 0xDE9 JUMPI DUP3 DUP3 MSTORE JUMPDEST POP POP DUP5 SWAP3 POP POP POP SWAP3 SWAP2 POP POP JUMP JUMPDEST PUSH2 0xE17 PUSH1 0x1F PUSH1 0x5 DUP4 PUSH1 0xFF AND SWAP1 SHL OR DUP4 PUSH1 0x0 ADD MLOAD PUSH2 0xD8C SWAP1 SWAP2 SWAP1 PUSH4 0xFFFFFFFF AND JUMP JUMPDEST POP POP POP JUMP JUMPDEST PUSH2 0xE24 PUSH2 0x103B JUMP JUMPDEST PUSH1 0x0 DUP5 PUSH1 0x0 ADD MLOAD MLOAD SWAP1 POP PUSH1 0x0 DUP2 DUP5 PUSH2 0xE3C SWAP2 SWAP1 PUSH2 0x1C2E JUMP JUMPDEST SWAP1 POP DUP6 PUSH1 0x20 ADD MLOAD DUP2 GT ISZERO PUSH2 0xE61 JUMPI PUSH2 0xE60 DUP7 PUSH1 0x2 DUP4 PUSH2 0xE5B SWAP2 SWAP1 PUSH2 0x1C8C JUMP JUMPDEST PUSH2 0xF8C JUMP JUMPDEST JUMPDEST PUSH1 0x0 PUSH1 0x1 DUP6 PUSH2 0x100 PUSH2 0xE73 SWAP2 SWAP1 PUSH2 0x1E01 JUMP JUMPDEST PUSH2 0xE7D SWAP2 SWAP1 PUSH2 0x1BFA JUMP JUMPDEST SWAP1 POP DUP7 MLOAD DUP3 DUP2 ADD DUP8 DUP4 NOT DUP3 MLOAD AND OR DUP2 MSTORE DUP2 MLOAD DUP5 GT ISZERO PUSH2 0xE9A JUMPI DUP4 DUP3 MSTORE JUMPDEST POP POP DUP7 SWAP4 POP POP POP POP SWAP4 SWAP3 POP POP POP JUMP JUMPDEST PUSH2 0xEB1 PUSH2 0x103B JUMP JUMPDEST DUP3 MLOAD DUP3 GT ISZERO PUSH2 0xEBF JUMPI PUSH1 0x0 DUP1 REVERT JUMPDEST PUSH1 0x0 DUP5 PUSH1 0x0 ADD MLOAD MLOAD SWAP1 POP PUSH1 0x0 DUP4 DUP3 PUSH2 0xED7 SWAP2 SWAP1 PUSH2 0x1C2E JUMP JUMPDEST SWAP1 POP DUP6 PUSH1 0x20 ADD MLOAD DUP2 GT ISZERO PUSH2 0xEFC JUMPI PUSH2 0xEFB DUP7 PUSH1 0x2 DUP4 PUSH2 0xEF6 SWAP2 SWAP1 PUSH2 0x1C8C JUMP JUMPDEST PUSH2 0xF8C JUMP JUMPDEST JUMPDEST PUSH1 0x0 DUP1 DUP8 MLOAD DUP1 MLOAD DUP6 PUSH1 0x20 DUP4 ADD ADD SWAP4 POP DUP1 DUP6 GT ISZERO PUSH2 0xF17 JUMPI DUP5 DUP3 MSTORE JUMPDEST PUSH1 0x20 DUP10 ADD SWAP3 POP POP POP JUMPDEST PUSH1 0x20 DUP7 LT PUSH2 0xF5E JUMPI DUP1 MLOAD DUP3 MSTORE PUSH1 0x20 DUP3 PUSH2 0xF39 SWAP2 SWAP1 PUSH2 0x1C2E JUMP JUMPDEST SWAP2 POP PUSH1 0x20 DUP2 PUSH2 0xF48 SWAP2 SWAP1 PUSH2 0x1C2E JUMP JUMPDEST SWAP1 POP PUSH1 0x20 DUP7 PUSH2 0xF57 SWAP2 SWAP1 PUSH2 0x1BFA JUMP JUMPDEST SWAP6 POP PUSH2 0xF20 JUMP JUMPDEST PUSH1 0x0 PUSH1 0x1 DUP8 PUSH1 0x20 SUB PUSH2 0x100 EXP SUB SWAP1 POP DUP1 NOT DUP3 MLOAD AND DUP2 DUP5 MLOAD AND DUP2 DUP2 OR DUP6 MSTORE POP POP POP DUP8 SWAP5 POP POP POP POP POP SWAP4 SWAP3 POP POP POP JUMP JUMPDEST PUSH1 0x0 DUP3 PUSH1 0x0 ADD MLOAD SWAP1 POP PUSH2 0xF9F DUP4 DUP4 PUSH2 0xA5C JUMP JUMPDEST POP PUSH2 0xFAA DUP4 DUP3 PUSH2 0xD70 JUMP JUMPDEST POP POP POP POP JUMP JUMPDEST PUSH1 0x40 MLOAD DUP1 PUSH1 0xC0 ADD PUSH1 0x40 MSTORE DUP1 PUSH1 0x0 PUSH1 0x1 DUP2 GT ISZERO PUSH2 0xFCF JUMPI PUSH2 0xFCE PUSH2 0x1A27 JUMP JUMPDEST JUMPDEST DUP2 MSTORE PUSH1 0x20 ADD PUSH1 0x0 PUSH1 0x1 DUP2 GT ISZERO PUSH2 0xFE8 JUMPI PUSH2 0xFE7 PUSH2 0x1A27 JUMP JUMPDEST JUMPDEST DUP2 MSTORE PUSH1 0x20 ADD PUSH1 0x0 DUP1 DUP2 GT ISZERO PUSH2 0x1000 JUMPI PUSH2 0xFFF PUSH2 0x1A27 JUMP JUMPDEST JUMPDEST DUP2 MSTORE PUSH1 0x20 ADD PUSH1 0x60 DUP2 MSTORE PUSH1 0x20 ADD PUSH1 0x60 DUP2 MSTORE PUSH1 0x20 ADD PUSH1 0x60 DUP2 MSTORE POP SWAP1 JUMP JUMPDEST PUSH1 0x40 MLOAD DUP1 PUSH1 0x40 ADD PUSH1 0x40 MSTORE DUP1 PUSH2 0x102E PUSH2 0x103B JUMP JUMPDEST DUP2 MSTORE PUSH1 0x20 ADD PUSH1 0x0 DUP2 MSTORE POP SWAP1 JUMP JUMPDEST PUSH1 0x40 MLOAD DUP1 PUSH1 0x40 ADD PUSH1 0x40 MSTORE DUP1 PUSH1 0x60 DUP2 MSTORE PUSH1 0x20 ADD PUSH1 0x0 DUP2 MSTORE POP SWAP1 JUMP JUMPDEST PUSH1 0x0 PUSH1 0x40 MLOAD SWAP1 POP SWAP1 JUMP JUMPDEST PUSH1 0x0 DUP1 REVERT JUMPDEST PUSH1 0x0 DUP1 REVERT JUMPDEST PUSH1 0x0 DUP2 SWAP1 POP SWAP2 SWAP1 POP JUMP JUMPDEST PUSH2 0x107C DUP2 PUSH2 0x1069 JUMP JUMPDEST DUP2 EQ PUSH2 0x1087 JUMPI PUSH1 0x0 DUP1 REVERT JUMPDEST POP JUMP JUMPDEST PUSH1 0x0 DUP2 CALLDATALOAD SWAP1 POP PUSH2 0x1099 DUP2 PUSH2 0x1073 JUMP JUMPDEST SWAP3 SWAP2 POP POP JUMP JUMPDEST PUSH1 0x0 DUP1 REVERT JUMPDEST PUSH1 0x0 DUP1 REVERT JUMPDEST PUSH1 0x0 PUSH1 0x1F NOT PUSH1 0x1F DUP4 ADD AND SWAP1 POP SWAP2 SWAP1 POP JUMP JUMPDEST PUSH32 0x4E487B7100000000000000000000000000000000000000000000000000000000 PUSH1 0x0 MSTORE PUSH1 0x41 PUSH1 0x4 MSTORE PUSH1 0x24 PUSH1 0x0 REVERT JUMPDEST PUSH2 0x10F2 DUP3 PUSH2 0x10A9 JUMP JUMPDEST DUP2 ADD DUP2 DUP2 LT PUSH8 0xFFFFFFFFFFFFFFFF DUP3 GT OR ISZERO PUSH2 0x1111 JUMPI PUSH2 0x1110 PUSH2 0x10BA JUMP JUMPDEST JUMPDEST DUP1 PUSH1 0x40 MSTORE POP POP POP JUMP JUMPDEST PUSH1 0x0 PUSH2 0x1124 PUSH2 0x1055 JUMP JUMPDEST SWAP1 POP PUSH2 0x1130 DUP3 DUP3 PUSH2 0x10E9 JUMP JUMPDEST SWAP2 SWAP1 POP JUMP JUMPDEST PUSH1 0x0 PUSH8 0xFFFFFFFFFFFFFFFF DUP3 GT ISZERO PUSH2 0x1150 JUMPI PUSH2 0x114F PUSH2 0x10BA JUMP JUMPDEST JUMPDEST PUSH2 0x1159 DUP3 PUSH2 0x10A9 JUMP JUMPDEST SWAP1 POP PUSH1 0x20 DUP2 ADD SWAP1 POP SWAP2 SWAP1 POP JUMP JUMPDEST DUP3 DUP2 DUP4 CALLDATACOPY PUSH1 0x0 DUP4 DUP4 ADD MSTORE POP POP POP JUMP JUMPDEST PUSH1 0x0 PUSH2 0x1188 PUSH2 0x1183 DUP5 PUSH2 0x1135 JUMP JUMPDEST PUSH2 0x111A JUMP JUMPDEST SWAP1 POP DUP3 DUP2 MSTORE PUSH1 0x20 DUP2 ADD DUP5 DUP5 DUP5 ADD GT ISZERO PUSH2 0x11A4 JUMPI PUSH2 0x11A3 PUSH2 0x10A4 JUMP JUMPDEST JUMPDEST PUSH2 0x11AF DUP5 DUP3 DUP6 PUSH2 0x1166 JUMP JUMPDEST POP SWAP4 SWAP3 POP POP POP JUMP JUMPDEST PUSH1 0x0 DUP3 PUSH1 0x1F DUP4 ADD SLT PUSH2 0x11CC JUMPI PUSH2 0x11CB PUSH2 0x109F JUMP JUMPDEST JUMPDEST DUP2 CALLDATALOAD PUSH2 0x11DC DUP5 DUP3 PUSH1 0x20 DUP7 ADD PUSH2 0x1175 JUMP JUMPDEST SWAP2 POP POP SWAP3 SWAP2 POP POP JUMP JUMPDEST PUSH1 0x0 DUP1 PUSH1 0x0 PUSH1 0x60 DUP5 DUP7 SUB SLT ISZERO PUSH2 0x11FE JUMPI PUSH2 0x11FD PUSH2 0x105F JUMP JUMPDEST JUMPDEST PUSH1 0x0 PUSH2 0x120C DUP7 DUP3 DUP8 ADD PUSH2 0x108A JUMP JUMPDEST SWAP4 POP POP PUSH1 0x20 DUP5 ADD CALLDATALOAD PUSH8 0xFFFFFFFFFFFFFFFF DUP2 GT ISZERO PUSH2 0x122D JUMPI PUSH2 0x122C PUSH2 0x1064 JUMP JUMPDEST JUMPDEST PUSH2 0x1239 DUP7 DUP3 DUP8 ADD PUSH2 0x11B7 JUMP JUMPDEST SWAP3 POP POP PUSH1 0x40 DUP5 ADD CALLDATALOAD PUSH8 0xFFFFFFFFFFFFFFFF DUP2 GT ISZERO PUSH2 0x125A JUMPI PUSH2 0x1259 PUSH2 0x1064 JUMP JUMPDEST JUMPDEST PUSH2 0x1266 DUP7 DUP3 DUP8 ADD PUSH2 0x11B7 JUMP JUMPDEST SWAP2 POP POP SWAP3 POP SWAP3 POP SWAP3 JUMP JUMPDEST PUSH2 0x1279 DUP2 PUSH2 0x1069 JUMP JUMPDEST DUP3 MSTORE POP POP JUMP JUMPDEST PUSH1 0x0 PUSH1 0x20 DUP3 ADD SWAP1 POP PUSH2 0x1294 PUSH1 0x0 DUP4 ADD DUP5 PUSH2 0x1270 JUMP JUMPDEST SWAP3 SWAP2 POP POP JUMP JUMPDEST PUSH1 0x0 DUP1 REVERT JUMPDEST PUSH1 0x0 DUP1 REVERT JUMPDEST PUSH1 0x0 DUP1 DUP4 PUSH1 0x1F DUP5 ADD SLT PUSH2 0x12BA JUMPI PUSH2 0x12B9 PUSH2 0x109F JUMP JUMPDEST JUMPDEST DUP3 CALLDATALOAD SWAP1 POP PUSH8 0xFFFFFFFFFFFFFFFF DUP2 GT ISZERO PUSH2 0x12D7 JUMPI PUSH2 0x12D6 PUSH2 0x129A JUMP JUMPDEST JUMPDEST PUSH1 0x20 DUP4 ADD SWAP2 POP DUP4 PUSH1 0x1 DUP3 MUL DUP4 ADD GT ISZERO PUSH2 0x12F3 JUMPI PUSH2 0x12F2 PUSH2 0x129F JUMP JUMPDEST JUMPDEST SWAP3 POP SWAP3 SWAP1 POP JUMP JUMPDEST PUSH1 0x0 DUP1 DUP4 PUSH1 0x1F DUP5 ADD SLT PUSH2 0x1310 JUMPI PUSH2 0x130F PUSH2 0x109F JUMP JUMPDEST JUMPDEST DUP3 CALLDATALOAD SWAP1 POP PUSH8 0xFFFFFFFFFFFFFFFF DUP2 GT ISZERO PUSH2 0x132D JUMPI PUSH2 0x132C PUSH2 0x129A JUMP JUMPDEST JUMPDEST PUSH1 0x20 DUP4 ADD SWAP2 POP DUP4 PUSH1 0x1 DUP3 MUL DUP4 ADD GT ISZERO PUSH2 0x1349 JUMPI PUSH2 0x1348 PUSH2 0x129F JUMP JUMPDEST JUMPDEST SWAP3 POP SWAP3 SWAP1 POP JUMP JUMPDEST PUSH1 0x0 DUP1 DUP4 PUSH1 0x1F DUP5 ADD SLT PUSH2 0x1366 JUMPI PUSH2 0x1365 PUSH2 0x109F JUMP JUMPDEST JUMPDEST DUP3 CALLDATALOAD SWAP1 POP PUSH8 0xFFFFFFFFFFFFFFFF DUP2 GT ISZERO PUSH2 0x1383 JUMPI PUSH2 0x1382 PUSH2 0x129A JUMP JUMPDEST JUMPDEST PUSH1 0x20 DUP4 ADD SWAP2 POP DUP4 PUSH1 0x20 DUP3 MUL DUP4 ADD GT ISZERO PUSH2 0x139F JUMPI PUSH2 0x139E PUSH2 0x129F JUMP JUMPDEST JUMPDEST SWAP3 POP SWAP3 SWAP1 POP JUMP JUMPDEST PUSH1 0x0 PUSH8 0xFFFFFFFFFFFFFFFF DUP3 AND SWAP1 POP SWAP2 SWAP1 POP JUMP JUMPDEST PUSH2 0x13C3 DUP2 PUSH2 0x13A6 JUMP JUMPDEST DUP2 EQ PUSH2 0x13CE JUMPI PUSH1 0x0 DUP1 REVERT JUMPDEST POP JUMP JUMPDEST PUSH1 0x0 DUP2 CALLDATALOAD SWAP1 POP PUSH2 0x13E0 DUP2 PUSH2 0x13BA JUMP JUMPDEST SWAP3 SWAP2 POP POP JUMP JUMPDEST PUSH1 0x0 PUSH4 0xFFFFFFFF DUP3 AND SWAP1 POP SWAP2 SWAP1 POP JUMP JUMPDEST PUSH2 0x13FF DUP2 PUSH2 0x13E6 JUMP JUMPDEST DUP2 EQ PUSH2 0x140A JUMPI PUSH1 0x0 DUP1 REVERT JUMPDEST POP JUMP JUMPDEST PUSH1 0x0 DUP2 CALLDATALOAD SWAP1 POP PUSH2 0x141C DUP2 PUSH2 0x13F6 JUMP JUMPDEST SWAP3 SWAP2 POP POP JUMP JUMPDEST PUSH1 0x0 DUP1 PUSH1 0x0 DUP1 PUSH1 0x0 DUP1 PUSH1 0x0 DUP1 PUSH1 0xA0 DUP10 DUP12 SUB SLT ISZERO PUSH2 0x1442 JUMPI PUSH2 0x1441 PUSH2 0x105F JUMP JUMPDEST JUMPDEST PUSH1 0x0 DUP10 ADD CALLDATALOAD PUSH8 0xFFFFFFFFFFFFFFFF DUP2 GT ISZERO PUSH2 0x1460 JUMPI PUSH2 0x145F PUSH2 0x1064 JUMP JUMPDEST JUMPDEST PUSH2 0x146C DUP12 DUP3 DUP13 ADD PUSH2 0x12A4 JUMP JUMPDEST SWAP9 POP SWAP9 POP POP PUSH1 0x20 DUP10 ADD CALLDATALOAD PUSH8 0xFFFFFFFFFFFFFFFF DUP2 GT ISZERO PUSH2 0x148F JUMPI PUSH2 0x148E PUSH2 0x1064 JUMP JUMPDEST JUMPDEST PUSH2 0x149B DUP12 DUP3 DUP13 ADD PUSH2 0x12FA JUMP JUMPDEST SWAP7 POP SWAP7 POP POP PUSH1 0x40 DUP10 ADD CALLDATALOAD PUSH8 0xFFFFFFFFFFFFFFFF DUP2 GT ISZERO PUSH2 0x14BE JUMPI PUSH2 0x14BD PUSH2 0x1064 JUMP JUMPDEST JUMPDEST PUSH2 0x14CA DUP12 DUP3 DUP13 ADD PUSH2 0x1350 JUMP JUMPDEST SWAP5 POP SWAP5 POP POP PUSH1 0x60 PUSH2 0x14DD DUP12 DUP3 DUP13 ADD PUSH2 0x13D1 JUMP JUMPDEST SWAP3 POP POP PUSH1 0x80 PUSH2 0x14EE DUP12 DUP3 DUP13 ADD PUSH2 0x140D JUMP JUMPDEST SWAP2 POP POP SWAP3 SWAP6 SWAP9 POP SWAP3 SWAP6 SWAP9 SWAP1 SWAP4 SWAP7 POP JUMP JUMPDEST PUSH1 0x0 DUP2 MLOAD SWAP1 POP SWAP2 SWAP1 POP JUMP JUMPDEST PUSH1 0x0 DUP3 DUP3 MSTORE PUSH1 0x20 DUP3 ADD SWAP1 POP SWAP3 SWAP2 POP POP JUMP JUMPDEST PUSH1 0x0 JUMPDEST DUP4 DUP2 LT ISZERO PUSH2 0x1538 JUMPI DUP1 DUP3 ADD MLOAD DUP2 DUP5 ADD MSTORE PUSH1 0x20 DUP2 ADD SWAP1 POP PUSH2 0x151D JUMP JUMPDEST PUSH1 0x0 DUP5 DUP5 ADD MSTORE POP POP POP POP JUMP JUMPDEST PUSH1 0x0 PUSH2 0x154F DUP3 PUSH2 0x14FE JUMP JUMPDEST PUSH2 0x1559 DUP2 DUP6 PUSH2 0x1509 JUMP JUMPDEST SWAP4 POP PUSH2 0x1569 DUP2 DUP6 PUSH1 0x20 DUP7 ADD PUSH2 0x151A JUMP JUMPDEST PUSH2 0x1572 DUP2 PUSH2 0x10A9 JUMP JUMPDEST DUP5 ADD SWAP2 POP POP SWAP3 SWAP2 POP POP JUMP JUMPDEST PUSH1 0x0 PUSH1 0x20 DUP3 ADD SWAP1 POP DUP2 DUP2 SUB PUSH1 0x0 DUP4 ADD MSTORE PUSH2 0x1597 DUP2 DUP5 PUSH2 0x1544 JUMP JUMPDEST SWAP1 POP SWAP3 SWAP2 POP POP JUMP JUMPDEST PUSH1 0x0 PUSH1 0x40 DUP3 ADD SWAP1 POP DUP2 DUP2 SUB PUSH1 0x0 DUP4 ADD MSTORE PUSH2 0x15B9 DUP2 DUP6 PUSH2 0x1544 JUMP JUMPDEST SWAP1 POP DUP2 DUP2 SUB PUSH1 0x20 DUP4 ADD MSTORE PUSH2 0x15CD DUP2 DUP5 PUSH2 0x1544 JUMP JUMPDEST SWAP1 POP SWAP4 SWAP3 POP POP POP JUMP JUMPDEST PUSH1 0x0 PUSH8 0xFFFFFFFFFFFFFFFF DUP3 GT ISZERO PUSH2 0x15F1 JUMPI PUSH2 0x15F0 PUSH2 0x10BA JUMP JUMPDEST JUMPDEST PUSH1 0x20 DUP3 MUL SWAP1 POP PUSH1 0x20 DUP2 ADD SWAP1 POP SWAP2 SWAP1 POP JUMP JUMPDEST PUSH1 0x0 PUSH8 0xFFFFFFFFFFFFFFFF DUP3 GT ISZERO PUSH2 0x161D JUMPI PUSH2 0x161C PUSH2 0x10BA JUMP JUMPDEST JUMPDEST PUSH2 0x1626 DUP3 PUSH2 0x10A9 JUMP JUMPDEST SWAP1 POP PUSH1 0x20 DUP2 ADD SWAP1 POP SWAP2 SWAP1 POP JUMP JUMPDEST PUSH1 0x0 PUSH2 0x1646 PUSH2 0x1641 DUP5 PUSH2 0x1602 JUMP JUMPDEST PUSH2 0x111A JUMP JUMPDEST SWAP1 POP DUP3 DUP2 MSTORE PUSH1 0x20 DUP2 ADD DUP5 DUP5 DUP5 ADD GT ISZERO PUSH2 0x1662 JUMPI PUSH2 0x1661 PUSH2 0x10A4 JUMP JUMPDEST JUMPDEST PUSH2 0x166D DUP5 DUP3 DUP6 PUSH2 0x1166 JUMP JUMPDEST POP SWAP4 SWAP3 POP POP POP JUMP JUMPDEST PUSH1 0x0 DUP3 PUSH1 0x1F DUP4 ADD SLT PUSH2 0x168A JUMPI PUSH2 0x1689 PUSH2 0x109F JUMP JUMPDEST JUMPDEST DUP2 CALLDATALOAD PUSH2 0x169A DUP5 DUP3 PUSH1 0x20 DUP7 ADD PUSH2 0x1633 JUMP JUMPDEST SWAP2 POP POP SWAP3 SWAP2 POP POP JUMP JUMPDEST PUSH1 0x0 PUSH2 0x16B6 PUSH2 0x16B1 DUP5 PUSH2 0x15D6 JUMP JUMPDEST PUSH2 0x111A JUMP JUMPDEST SWAP1 POP DUP1 DUP4 DUP3 MSTORE PUSH1 0x20 DUP3 ADD SWAP1 POP PUSH1 0x20 DUP5 MUL DUP4 ADD DUP6 DUP2 GT ISZERO PUSH2 0x16D9 JUMPI PUSH2 0x16D8 PUSH2 0x129F JUMP JUMPDEST JUMPDEST DUP4 JUMPDEST DUP2 DUP2 LT ISZERO PUSH2 0x1720 JUMPI DUP1 CALLDATALOAD PUSH8 0xFFFFFFFFFFFFFFFF DUP2 GT ISZERO PUSH2 0x16FE JUMPI PUSH2 0x16FD PUSH2 0x109F JUMP JUMPDEST JUMPDEST DUP1 DUP7 ADD PUSH2 0x170B DUP10 DUP3 PUSH2 0x1675 JUMP JUMPDEST DUP6 MSTORE PUSH1 0x20 DUP6 ADD SWAP5 POP POP POP PUSH1 0x20 DUP2 ADD SWAP1 POP PUSH2 0x16DB JUMP JUMPDEST POP POP POP SWAP4 SWAP3 POP POP POP JUMP JUMPDEST PUSH1 0x0 PUSH2 0x1737 CALLDATASIZE DUP5 DUP5 PUSH2 0x16A3 JUMP JUMPDEST SWAP1 POP SWAP3 SWAP2 POP POP JUMP JUMPDEST PUSH32 0x4E487B7100000000000000000000000000000000000000000000000000000000 PUSH1 0x0 MSTORE PUSH1 0x22 PUSH1 0x4 MSTORE PUSH1 0x24 PUSH1 0x0 REVERT JUMPDEST PUSH1 0x0 PUSH1 0x2 DUP3 DIV SWAP1 POP PUSH1 0x1 DUP3 AND DUP1 PUSH2 0x1786 JUMPI PUSH1 0x7F DUP3 AND SWAP2 POP JUMPDEST PUSH1 0x20 DUP3 LT DUP2 SUB PUSH2 0x1799 JUMPI PUSH2 0x1798 PUSH2 0x173F JUMP JUMPDEST JUMPDEST POP SWAP2 SWAP1 POP JUMP JUMPDEST PUSH1 0x0 DUP2 SWAP1 POP DUP2 PUSH1 0x0 MSTORE PUSH1 0x20 PUSH1 0x0 KECCAK256 SWAP1 POP SWAP2 SWAP1 POP JUMP JUMPDEST PUSH1 0x0 PUSH1 0x20 PUSH1 0x1F DUP4 ADD DIV SWAP1 POP SWAP2 SWAP1 POP JUMP JUMPDEST PUSH1 0x0 DUP3 DUP3 SHL SWAP1 POP SWAP3 SWAP2 POP POP JUMP JUMPDEST PUSH1 0x0 PUSH1 0x8 DUP4 MUL PUSH2 0x1801 PUSH32 0xFFFFFFFFFFFFFFFFFFFFFFFFFFFFFFFFFFFFFFFFFFFFFFFFFFFFFFFFFFFFFFFF DUP3 PUSH2 0x17C4 JUMP JUMPDEST PUSH2 0x180B DUP7 DUP4 PUSH2 0x17C4 JUMP JUMPDEST SWAP6 POP DUP1 NOT DUP5 AND SWAP4 POP DUP1 DUP7 AND DUP5 OR SWAP3 POP POP POP SWAP4 SWAP3 POP POP POP JUMP JUMPDEST PUSH1 0x0 DUP2 SWAP1 POP SWAP2 SWAP1 POP JUMP JUMPDEST PUSH1 0x0 DUP2 SWAP1 POP SWAP2 SWAP1 POP JUMP JUMPDEST PUSH1 0x0 PUSH2 0x1852 PUSH2 0x184D PUSH2 0x1848 DUP5 PUSH2 0x1823 JUMP JUMPDEST PUSH2 0x182D JUMP JUMPDEST PUSH2 0x1823 JUMP JUMPDEST SWAP1 POP SWAP2 SWAP1 POP JUMP JUMPDEST PUSH1 0x0 DUP2 SWAP1 POP SWAP2 SWAP1 POP JUMP JUMPDEST PUSH2 0x186C DUP4 PUSH2 0x1837 JUMP JUMPDEST PUSH2 0x1880 PUSH2 0x1878 DUP3 PUSH2 0x1859 JUMP JUMPDEST DUP5 DUP5 SLOAD PUSH2 0x17D1 JUMP JUMPDEST DUP3 SSTORE POP POP POP POP JUMP JUMPDEST PUSH1 0x0 SWAP1 JUMP JUMPDEST PUSH2 0x1895 PUSH2 0x1888 JUMP JUMPDEST PUSH2 0x18A0 DUP2 DUP5 DUP5 PUSH2 0x1863 JUMP JUMPDEST POP POP POP JUMP JUMPDEST JUMPDEST DUP2 DUP2 LT ISZERO PUSH2 0x18C4 JUMPI PUSH2 0x18B9 PUSH1 0x0 DUP3 PUSH2 0x188D JUMP JUMPDEST PUSH1 0x1 DUP2 ADD SWAP1 POP PUSH2 0x18A6 JUMP JUMPDEST POP POP JUMP JUMPDEST PUSH1 0x1F DUP3 GT ISZERO PUSH2 0x1909 JUMPI PUSH2 0x18DA DUP2 PUSH2 0x179F JUMP JUMPDEST PUSH2 0x18E3 DUP5 PUSH2 0x17B4 JUMP JUMPDEST DUP2 ADD PUSH1 0x20 DUP6 LT ISZERO PUSH2 0x18F2 JUMPI DUP2 SWAP1 POP JUMPDEST PUSH2 0x1906 PUSH2 0x18FE DUP6 PUSH2 0x17B4 JUMP JUMPDEST DUP4 ADD DUP3 PUSH2 0x18A5 JUMP JUMPDEST POP POP JUMPDEST POP POP POP JUMP JUMPDEST PUSH1 0x0 DUP3 DUP3 SHR SWAP1 POP SWAP3 SWAP2 POP POP JUMP JUMPDEST PUSH1 0x0 PUSH2 0x192C PUSH1 0x0 NOT DUP5 PUSH1 0x8 MUL PUSH2 0x190E JUMP JUMPDEST NOT DUP1 DUP4 AND SWAP2 POP POP SWAP3 SWAP2 POP POP JUMP JUMPDEST PUSH1 0x0 PUSH2 0x1945 DUP4 DUP4 PUSH2 0x191B JUMP JUMPDEST SWAP2 POP DUP3 PUSH1 0x2 MUL DUP3 OR SWAP1 POP SWAP3 SWAP2 POP POP JUMP JUMPDEST PUSH2 0x195E DUP3 PUSH2 0x14FE JUMP JUMPDEST PUSH8 0xFFFFFFFFFFFFFFFF DUP2 GT ISZERO PUSH2 0x1977 JUMPI PUSH2 0x1976 PUSH2 0x10BA JUMP JUMPDEST JUMPDEST PUSH2 0x1981 DUP3 SLOAD PUSH2 0x176E JUMP JUMPDEST PUSH2 0x198C DUP3 DUP3 DUP6 PUSH2 0x18C8 JUMP JUMPDEST PUSH1 0x0 PUSH1 0x20 SWAP1 POP PUSH1 0x1F DUP4 GT PUSH1 0x1 DUP2 EQ PUSH2 0x19BF JUMPI PUSH1 0x0 DUP5 ISZERO PUSH2 0x19AD JUMPI DUP3 DUP8 ADD MLOAD SWAP1 POP JUMPDEST PUSH2 0x19B7 DUP6 DUP3 PUSH2 0x1939 JUMP JUMPDEST DUP7 SSTORE POP PUSH2 0x1A1F JUMP JUMPDEST PUSH1 0x1F NOT DUP5 AND PUSH2 0x19CD DUP7 PUSH2 0x179F JUMP JUMPDEST PUSH1 0x0 JUMPDEST DUP3 DUP2 LT ISZERO PUSH2 0x19F5 JUMPI DUP5 DUP10 ADD MLOAD DUP3 SSTORE PUSH1 0x1 DUP3 ADD SWAP2 POP PUSH1 0x20 DUP6 ADD SWAP5 POP PUSH1 0x20 DUP2 ADD SWAP1 POP PUSH2 0x19D0 JUMP JUMPDEST DUP7 DUP4 LT ISZERO PUSH2 0x1A12 JUMPI DUP5 DUP10 ADD MLOAD PUSH2 0x1A0E PUSH1 0x1F DUP10 AND DUP3 PUSH2 0x191B JUMP JUMPDEST DUP4 SSTORE POP JUMPDEST PUSH1 0x1 PUSH1 0x2 DUP9 MUL ADD DUP9 SSTORE POP POP POP JUMPDEST POP POP POP POP POP POP JUMP JUMPDEST PUSH32 0x4E487B7100000000000000000000000000000000000000000000000000000000 PUSH1 0x0 MSTORE PUSH1 0x21 PUSH1 0x4 MSTORE PUSH1 0x24 PUSH1 0x0 REVERT JUMPDEST PUSH2 0x1A5F DUP2 PUSH2 0x13A6 JUMP JUMPDEST DUP3 MSTORE POP POP JUMP JUMPDEST PUSH2 0x1A6E DUP2 PUSH2 0x13E6 JUMP JUMPDEST DUP3 MSTORE POP POP JUMP JUMPDEST PUSH1 0x0 PUSH1 0x60 DUP3 ADD SWAP1 POP PUSH2 0x1A89 PUSH1 0x0 DUP4 ADD DUP7 PUSH2 0x1A56 JUMP JUMPDEST DUP2 DUP2 SUB PUSH1 0x20 DUP4 ADD MSTORE PUSH2 0x1A9B DUP2 DUP6 PUSH2 0x1544 JUMP JUMPDEST SWAP1 POP PUSH2 0x1AAA PUSH1 0x40 DUP4 ADD DUP5 PUSH2 0x1A65 JUMP JUMPDEST SWAP5 SWAP4 POP POP POP POP JUMP JUMPDEST PUSH1 0x0 DUP2 MLOAD SWAP1 POP PUSH2 0x1AC1 DUP2 PUSH2 0x1073 JUMP JUMPDEST SWAP3 SWAP2 POP POP JUMP JUMPDEST PUSH1 0x0 PUSH1 0x20 DUP3 DUP5 SUB SLT ISZERO PUSH2 0x1ADD JUMPI PUSH2 0x1ADC PUSH2 0x105F JUMP JUMPDEST JUMPDEST PUSH1 0x0 PUSH2 0x1AEB DUP5 DUP3 DUP6 ADD PUSH2 0x1AB2 JUMP JUMPDEST SWAP2 POP POP SWAP3 SWAP2 POP POP JUMP JUMPDEST PUSH32 0x4E487B7100000000000000000000000000000000000000000000000000000000 PUSH1 0x0 MSTORE PUSH1 0x32 PUSH1 0x4 MSTORE PUSH1 0x24 PUSH1 0x0 REVERT JUMPDEST PUSH32 0x4E487B7100000000000000000000000000000000000000000000000000000000 PUSH1 0x0 MSTORE PUSH1 0x11 PUSH1 0x4 MSTORE PUSH1 0x24 PUSH1 0x0 REVERT JUMPDEST PUSH1 0x0 PUSH2 0x1B5D DUP3 PUSH2 0x1823 JUMP JUMPDEST SWAP2 POP PUSH32 0xFFFFFFFFFFFFFFFFFFFFFFFFFFFFFFFFFFFFFFFFFFFFFFFFFFFFFFFFFFFFFFFF DUP3 SUB PUSH2 0x1B8F JUMPI PUSH2 0x1B8E PUSH2 0x1B23 JUMP JUMPDEST JUMPDEST PUSH1 0x1 DUP3 ADD SWAP1 POP SWAP2 SWAP1 POP JUMP JUMPDEST PUSH32 0x4E487B7100000000000000000000000000000000000000000000000000000000 PUSH1 0x0 MSTORE PUSH1 0x12 PUSH1 0x4 MSTORE PUSH1 0x24 PUSH1 0x0 REVERT JUMPDEST PUSH1 0x0 PUSH2 0x1BD4 DUP3 PUSH2 0x1823 JUMP JUMPDEST SWAP2 POP PUSH2 0x1BDF DUP4 PUSH2 0x1823 JUMP JUMPDEST SWAP3 POP DUP3 PUSH2 0x1BEF JUMPI PUSH2 0x1BEE PUSH2 0x1B9A JUMP JUMPDEST JUMPDEST DUP3 DUP3 MOD SWAP1 POP SWAP3 SWAP2 POP POP JUMP JUMPDEST PUSH1 0x0 PUSH2 0x1C05 DUP3 PUSH2 0x1823 JUMP JUMPDEST SWAP2 POP PUSH2 0x1C10 DUP4 PUSH2 0x1823 JUMP JUMPDEST SWAP3 POP DUP3 DUP3 SUB SWAP1 POP DUP2 DUP2 GT ISZERO PUSH2 0x1C28 JUMPI PUSH2 0x1C27 PUSH2 0x1B23 JUMP JUMPDEST JUMPDEST SWAP3 SWAP2 POP POP JUMP JUMPDEST PUSH1 0x0 PUSH2 0x1C39 DUP3 PUSH2 0x1823 JUMP JUMPDEST SWAP2 POP PUSH2 0x1C44 DUP4 PUSH2 0x1823 JUMP JUMPDEST SWAP3 POP DUP3 DUP3 ADD SWAP1 POP DUP1 DUP3 GT ISZERO PUSH2 0x1C5C JUMPI PUSH2 0x1C5B PUSH2 0x1B23 JUMP JUMPDEST JUMPDEST SWAP3 SWAP2 POP POP JUMP JUMPDEST PUSH2 0x1C6B DUP2 PUSH2 0x1823 JUMP JUMPDEST DUP3 MSTORE POP POP JUMP JUMPDEST PUSH1 0x0 PUSH1 0x20 DUP3 ADD SWAP1 POP PUSH2 0x1C86 PUSH1 0x0 DUP4 ADD DUP5 PUSH2 0x1C62 JUMP JUMPDEST SWAP3 SWAP2 POP POP JUMP JUMPDEST PUSH1 0x0 PUSH2 0x1C97 DUP3 PUSH2 0x1823 JUMP JUMPDEST SWAP2 POP PUSH2 0x1CA2 DUP4 PUSH2 0x1823 JUMP JUMPDEST SWAP3 POP DUP3 DUP3 MUL PUSH2 0x1CB0 DUP2 PUSH2 0x1823 JUMP JUMPDEST SWAP2 POP DUP3 DUP3 DIV DUP5 EQ DUP4 ISZERO OR PUSH2 0x1CC7 JUMPI PUSH2 0x1CC6 PUSH2 0x1B23 JUMP JUMPDEST JUMPDEST POP SWAP3 SWAP2 POP POP JUMP JUMPDEST PUSH1 0x0 DUP2 PUSH1 0x1 SHR SWAP1 POP SWAP2 SWAP1 POP JUMP JUMPDEST PUSH1 0x0 DUP1 DUP3 SWAP2 POP DUP4 SWAP1 POP JUMPDEST PUSH1 0x1 DUP6 GT ISZERO PUSH2 0x1D25 JUMPI DUP1 DUP7 DIV DUP2 GT ISZERO PUSH2 0x1D01 JUMPI PUSH2 0x1D00 PUSH2 0x1B23 JUMP JUMPDEST JUMPDEST PUSH1 0x1 DUP6 AND ISZERO PUSH2 0x1D10 JUMPI DUP1 DUP3 MUL SWAP2 POP JUMPDEST DUP1 DUP2 MUL SWAP1 POP PUSH2 0x1D1E DUP6 PUSH2 0x1CCE JUMP JUMPDEST SWAP5 POP PUSH2 0x1CE5 JUMP JUMPDEST SWAP5 POP SWAP5 SWAP3 POP POP POP JUMP JUMPDEST PUSH1 0x0 DUP3 PUSH2 0x1D3E JUMPI PUSH1 0x1 SWAP1 POP PUSH2 0x1DFA JUMP JUMPDEST DUP2 PUSH2 0x1D4C JUMPI PUSH1 0x0 SWAP1 POP PUSH2 0x1DFA JUMP JUMPDEST DUP2 PUSH1 0x1 DUP2 EQ PUSH2 0x1D62 JUMPI PUSH1 0x2 DUP2 EQ PUSH2 0x1D6C JUMPI PUSH2 0x1D9B JUMP JUMPDEST PUSH1 0x1 SWAP2 POP POP PUSH2 0x1DFA JUMP JUMPDEST PUSH1 0xFF DUP5 GT ISZERO PUSH2 0x1D7E JUMPI PUSH2 0x1D7D PUSH2 0x1B23 JUMP JUMPDEST JUMPDEST DUP4 PUSH1 0x2 EXP SWAP2 POP DUP5 DUP3 GT ISZERO PUSH2 0x1D95 JUMPI PUSH2 0x1D94 PUSH2 0x1B23 JUMP JUMPDEST JUMPDEST POP PUSH2 0x1DFA JUMP JUMPDEST POP PUSH1 0x20 DUP4 LT PUSH2 0x133 DUP4 LT AND PUSH1 0x4E DUP5 LT PUSH1 0xB DUP5 LT AND OR ISZERO PUSH2 0x1DD0 JUMPI DUP3 DUP3 EXP SWAP1 POP DUP4 DUP2 GT ISZERO PUSH2 0x1DCB JUMPI PUSH2 0x1DCA PUSH2 0x1B23 JUMP JUMPDEST JUMPDEST PUSH2 0x1DFA JUMP JUMPDEST PUSH2 0x1DDD DUP5 DUP5 DUP5 PUSH1 0x1 PUSH2 0x1CDB JUMP JUMPDEST SWAP3 POP SWAP1 POP DUP2 DUP5 DIV DUP2 GT ISZERO PUSH2 0x1DF4 JUMPI PUSH2 0x1DF3 PUSH2 0x1B23 JUMP JUMPDEST JUMPDEST DUP2 DUP2 MUL SWAP1 POP JUMPDEST SWAP4 SWAP3 POP POP POP JUMP JUMPDEST PUSH1 0x0 PUSH2 0x1E0C DUP3 PUSH2 0x1823 JUMP JUMPDEST SWAP2 POP PUSH2 0x1E17 DUP4 PUSH2 0x1823 JUMP JUMPDEST SWAP3 POP PUSH2 0x1E44 PUSH32 0xFFFFFFFFFFFFFFFFFFFFFFFFFFFFFFFFFFFFFFFFFFFFFFFFFFFFFFFFFFFFFFFF DUP5 DUP5 PUSH2 0x1D2E JUMP JUMPDEST SWAP1 POP SWAP3 SWAP2 POP POP JUMP INVALID LOG2 PUSH5 0x6970667358 0x22 SLT KECCAK256 0xE9 0xD4 0xD4 GASPRICE SWAP9 PUSH21 0x6E9B827F04E5B538E070B705426A2568CA0CFCAB53 DUP5 ADDRESS 0x28 0xD6 0x1F PUSH5 0x736F6C6343 STOP ADDMOD GT STOP CALLER "
		},
		"gasEstimates": {
			"creation": {
				"codeDepositCost": "1562000",
				"executionCost": "infinite",
				"totalCost": "infinite"
			},
			"external": {
				"executeRequest(string,bytes,string[],uint64,uint32)": "infinite",
				"handleOracleFulfillment(bytes32,bytes,bytes)": "infinite",
				"latestError()": "infinite",
				"latestRequestId()": "2429",
				"latestResponse()": "infinite"
			},
			"internal": {
				"fulfillRequest(bytes32,bytes memory,bytes memory)": "infinite"
			}
		},
		"methodIdentifiers": {
			"executeRequest(string,bytes,string[],uint64,uint32)": "27714589",
			"handleOracleFulfillment(bytes32,bytes,bytes)": "0ca76175",
			"latestError()": "fffeb84e",
			"latestRequestId()": "1aa46f59",
			"latestResponse()": "bef3a2f0"
		}
	},
	"abi": [
		{
			"inputs": [
				{
					"internalType": "address",
					"name": "oracle",
					"type": "address"
				}
			],
			"stateMutability": "nonpayable",
			"type": "constructor"
		},
		{
			"inputs": [],
			"name": "EmptyArgs",
			"type": "error"
		},
		{
			"inputs": [],
			"name": "EmptyRequestData",
			"type": "error"
		},
		{
			"inputs": [],
			"name": "EmptySecrets",
			"type": "error"
		},
		{
			"inputs": [],
			"name": "EmptySource",
			"type": "error"
		},
		{
			"inputs": [],
			"name": "NoInlineSecrets",
			"type": "error"
		},
		{
			"inputs": [],
			"name": "RequestIsAlreadyPending",
			"type": "error"
		},
		{
			"inputs": [],
			"name": "SenderIsNotRegistry",
			"type": "error"
		},
		{
			"anonymous": false,
			"inputs": [
				{
					"indexed": true,
					"internalType": "bytes32",
					"name": "requestId",
					"type": "bytes32"
				},
				{
					"indexed": false,
					"internalType": "bytes",
					"name": "result",
					"type": "bytes"
				},
				{
					"indexed": false,
					"internalType": "bytes",
					"name": "err",
					"type": "bytes"
				}
			],
			"name": "FuncResponse",
			"type": "event"
		},
		{
			"anonymous": false,
			"inputs": [
				{
					"indexed": true,
					"internalType": "bytes32",
					"name": "id",
					"type": "bytes32"
				},
				{
					"indexed": false,
					"internalType": "bytes",
					"name": "result",
					"type": "bytes"
				},
				{
					"indexed": false,
					"internalType": "bytes",
					"name": "err",
					"type": "bytes"
				}
			],
			"name": "RequestFulfilled",
			"type": "event"
		},
		{
			"anonymous": false,
			"inputs": [
				{
					"indexed": true,
					"internalType": "bytes32",
					"name": "id",
					"type": "bytes32"
				}
			],
			"name": "RequestSent",
			"type": "event"
		},
		{
			"inputs": [
				{
					"internalType": "string",
					"name": "source",
					"type": "string"
				},
				{
					"internalType": "bytes",
					"name": "secrets",
					"type": "bytes"
				},
				{
					"internalType": "string[]",
					"name": "args",
					"type": "string[]"
				},
				{
					"internalType": "uint64",
					"name": "subscriptionId",
					"type": "uint64"
				},
				{
					"internalType": "uint32",
					"name": "gasLimit",
					"type": "uint32"
				}
			],
			"name": "executeRequest",
			"outputs": [
				{
					"internalType": "bytes32",
					"name": "",
					"type": "bytes32"
				}
			],
			"stateMutability": "nonpayable",
			"type": "function"
		},
		{
			"inputs": [
				{
					"internalType": "bytes32",
					"name": "requestId",
					"type": "bytes32"
				},
				{
					"internalType": "bytes",
					"name": "response",
					"type": "bytes"
				},
				{
					"internalType": "bytes",
					"name": "err",
					"type": "bytes"
				}
			],
			"name": "handleOracleFulfillment",
			"outputs": [],
			"stateMutability": "nonpayable",
			"type": "function"
		},
		{
			"inputs": [],
			"name": "latestError",
			"outputs": [
				{
					"internalType": "bytes",
					"name": "",
					"type": "bytes"
				}
			],
			"stateMutability": "view",
			"type": "function"
		},
		{
			"inputs": [],
			"name": "latestRequestId",
			"outputs": [
				{
					"internalType": "bytes32",
					"name": "",
					"type": "bytes32"
				}
			],
			"stateMutability": "view",
			"type": "function"
		},
		{
			"inputs": [],
			"name": "latestResponse",
			"outputs": [
				{
					"internalType": "bytes",
					"name": "",
					"type": "bytes"
				}
			],
			"stateMutability": "view",
			"type": "function"
		}
	]
}