{
	"data": {
		"bytecode": {
			"linkReferences": {},
			"object": "608060405234801562000010575f80fd5b5060405162001f0538038062001f058339818101604052810190620000369190620000f7565b8062000048816200005060201b60201c565b505062000127565b805f806101000a81548173ffffffffffffffffffffffffffffffffffffffff021916908373ffffffffffffffffffffffffffffffffffffffff16021790555050565b5f80fd5b5f73ffffffffffffffffffffffffffffffffffffffff82169050919050565b5f620000c18262000096565b9050919050565b620000d381620000b5565b8114620000de575f80fd5b50565b5f81519050620000f181620000c8565b92915050565b5f602082840312156200010f576200010e62000092565b5b5f6200011e84828501620000e1565b91505092915050565b611dd080620001355f395ff3fe608060405234801561000f575f80fd5b5060043610610055575f3560e01c80630ca76175146100595780631aa46f59146100755780632771458914610093578063bef3a2f0146100c3578063fffeb84e146100e1575b5f80fd5b610073600480360381019061006e9190611186565b6100ff565b005b61007d610213565b60405161008a919061121d565b60405180910390f35b6100ad60048036038101906100a891906113b3565b610219565b6040516100ba919061121d565b60405180910390f35b6100cb61032f565b6040516100d89190611504565b60405180910390f35b6100e96103bb565b6040516100f69190611504565b60405180910390f35b8260015f8281526020019081526020015f205f9054906101000a900473ffffffffffffffffffffffffffffffffffffffff1673ffffffffffffffffffffffffffffffffffffffff163373ffffffffffffffffffffffffffffffffffffffff1614610195576040517fa0c5ec6300000000000000000000000000000000000000000000000000000000815260040160405180910390fd5b60015f8281526020019081526020015f205f6101000a81549073ffffffffffffffffffffffffffffffffffffffff02191690556101d3848484610447565b837ff2fa06652e54791d449ab43ede930a20d3b71ed330cad4018f47ba6cc15da00a8484604051610205929190611524565b60405180910390a250505050565b60025481565b5f610222610f66565b61027c5f808c8c8080601f0160208091040260200160405190810160405280939291908181526020018383808284375f81840152601f19601f82011690508083019250505050505050846104a6909392919063ffffffff16565b5f8888905011156102de576102dd88888080601f0160208091040260200160405190810160405280939291908181526020018383808284375f81840152601f19601f820116905080830192505050505050508261054c90919063ffffffff16565b5b5f868690501115610309576103088686906102f991906116a8565b826105c490919063ffffffff16565b5b5f61031582868661060b565b905080600281905550809250505098975050505050505050565b6003805461033c906116e9565b80601f0160208091040260200160405190810160405280929190818152602001828054610368906116e9565b80156103b35780601f1061038a576101008083540402835291602001916103b3565b820191905f5260205f20905b81548152906001019060200180831161039657829003601f168201915b505050505081565b600480546103c8906116e9565b80601f01602080910402602001604051908101604052809291908181526020018280546103f4906116e9565b801561043f5780601f106104165761010080835404028352916020019161043f565b820191905f5260205f20905b81548152906001019060200180831161042257829003601f168201915b505050505081565b816003908161045691906118bf565b50806004908161046691906118bf565b50827f51732bd592d531e70a33ba1a99ea425d26fa7cb95aaf81189a1b2a0e7649edc98383604051610499929190611524565b60405180910390a2505050565b5f8151036104e0576040517f22ce3edd00000000000000000000000000000000000000000000000000000000815260040160405180910390fd5b82845f019060018111156104f7576104f661198e565b5b9081600181111561050b5761050a61198e565b5b815250508184604001905f8111156105265761052561198e565b5b90815f8111156105395761053861198e565b5b8152505080846060018190525050505050565b5f815103610586576040517fe889636f00000000000000000000000000000000000000000000000000000000815260040160405180910390fd5b60018260200190600181111561059f5761059e61198e565b5b908160018111156105b3576105b261198e565b5b815250508082608001819052505050565b5f8151036105fe576040517ffe936cb700000000000000000000000000000000000000000000000000000000815260040160405180910390fd5b808260a001819052505050565b5f805f8054906101000a900473ffffffffffffffffffffffffffffffffffffffff1673ffffffffffffffffffffffffffffffffffffffff166328242b04856106528861073a565b866040518463ffffffff1660e01b8152600401610671939291906119d9565b6020604051808303815f875af115801561068d573d5f803e3d5ffd5b505050506040513d601f19601f820116820180604052508101906106b19190611a29565b90503260015f8381526020019081526020015f205f6101000a81548173ffffffffffffffffffffffffffffffffffffffff021916908373ffffffffffffffffffffffffffffffffffffffff160217905550807f1131472297a800fee664d1d89cfa8f7676ff07189ecc53f80bbb5f4969099db860405160405180910390a2809150509392505050565b6060610744610fce565b610753815f0151610100610a31565b50610793816040518060400160405280600c81526020017f636f64654c6f636174696f6e0000000000000000000000000000000000000000815250610aa7565b6107b281845f015160018111156107ad576107ac61198e565b5b610acf565b6107f1816040518060400160405280600881526020017f6c616e6775616765000000000000000000000000000000000000000000000000815250610aa7565b6108108184604001515f81111561080b5761080a61198e565b5b610acf565b61084f816040518060400160405280600681526020017f736f757263650000000000000000000000000000000000000000000000000000815250610aa7565b61085d818460600151610aa7565b5f8360a00151511115610907576108a9816040518060400160405280600481526020017f6172677300000000000000000000000000000000000000000000000000000000815250610aa7565b6108b281610b1e565b5f5b8360a00151518110156108fc576108e9828560a0015183815181106108dc576108db611a54565b5b6020026020010151610aa7565b80806108f490611aae565b9150506108b4565b5061090681610b46565b5b5f8360800151511115610a22575f60018111156109275761092661198e565b5b8360200151600181111561093e5761093d61198e565b5b03610975576040517fa80d31f700000000000000000000000000000000000000000000000000000000815260040160405180910390fd5b6109b4816040518060400160405280600f81526020017f736563726574734c6f636174696f6e0000000000000000000000000000000000815250610aa7565b6109d481846020015160018111156109cf576109ce61198e565b5b610acf565b610a13816040518060400160405280600781526020017f7365637265747300000000000000000000000000000000000000000000000000815250610aa7565b610a21818460800151610b6e565b5b805f01515f0151915050919050565b610a39610fed565b5f602083610a479190611b22565b14610a7357602082610a599190611b22565b6020610a659190611b52565b82610a709190611b85565b91505b818360200181815250506040518084525f815282810160200181811015610a98575f80fd5b80604052505082905092915050565b610ab48260038351610b96565b610aca81835f0151610d3690919063ffffffff16565b505050565b610af060026005600660ff16901b17835f0151610d5290919063ffffffff16565b50610b1a8282604051602001610b069190611bc7565b604051602081830303815290604052610b6e565b5050565b610b29816004610db9565b600181602001818151610b3c9190611b85565b9150818152505050565b610b51816007610db9565b600181602001818151610b649190611b52565b9150818152505050565b610b7b8260028351610b96565b610b9181835f0151610d3690919063ffffffff16565b505050565b60178167ffffffffffffffff1611610bd057610bca8160058460ff16901b60ff1617845f0151610d5290919063ffffffff16565b50610d31565b60ff8167ffffffffffffffff1611610c2c57610c02601860058460ff16901b17845f0151610d5290919063ffffffff16565b50610c268167ffffffffffffffff166001855f0151610dde9092919063ffffffff16565b50610d30565b61ffff8167ffffffffffffffff1611610c8957610c5f601960058460ff16901b17845f0151610d5290919063ffffffff16565b50610c838167ffffffffffffffff166002855f0151610dde9092919063ffffffff16565b50610d2f565b63ffffffff8167ffffffffffffffff1611610ce857610cbe601a60058460ff16901b17845f0151610d5290919063ffffffff16565b50610ce28167ffffffffffffffff166004855f0151610dde9092919063ffffffff16565b50610d2e565b610d08601b60058460ff16901b17845f0151610d5290919063ffffffff16565b50610d2c8167ffffffffffffffff166008855f0151610dde9092919063ffffffff16565b505b5b5b5b505050565b610d3e610fed565b610d4a83838451610e67565b905092915050565b610d5a610fed565b5f835f01515190505f600182610d709190611b85565b905084602001518210610d9457610d9385600283610d8e9190611be0565b610f44565b5b84516020838201018581538151831115610dac578282525b5050849250505092915050565b610dd9601f60058360ff16901b17835f0151610d5290919063ffffffff16565b505050565b610de6610fed565b5f845f01515190505f8184610dfb9190611b85565b90508560200151811115610e2057610e1f86600283610e1a9190611be0565b610f44565b5b5f600185610100610e319190611d50565b610e3b9190611b52565b905086518281018783198251161781528151841115610e58578382525b50508693505050509392505050565b610e6f610fed565b8251821115610e7c575f80fd5b5f845f01515190505f8382610e919190611b85565b90508560200151811115610eb657610eb586600283610eb09190611be0565b610f44565b5b5f8087518051856020830101935080851115610ed0578482525b60208901925050505b60208610610f175780518252602082610ef29190611b85565b9150602081610f019190611b85565b9050602086610f109190611b52565b9550610ed9565b5f6001876020036101000a0390508019825116818451168181178552505050879450505050509392505050565b5f825f01519050610f558383610a31565b50610f608382610d36565b50505050565b6040518060c001604052805f6001811115610f8457610f8361198e565b5b81526020015f6001811115610f9c57610f9b61198e565b5b81526020015f80811115610fb357610fb261198e565b5b81526020016060815260200160608152602001606081525090565b6040518060400160405280610fe1610fed565b81526020015f81525090565b6040518060400160405280606081526020015f81525090565b5f604051905090565b5f80fd5b5f80fd5b5f819050919050565b61102981611017565b8114611033575f80fd5b50565b5f8135905061104481611020565b92915050565b5f80fd5b5f80fd5b5f601f19601f8301169050919050565b7f4e487b71000000000000000000000000000000000000000000000000000000005f52604160045260245ffd5b61109882611052565b810181811067ffffffffffffffff821117156110b7576110b6611062565b5b80604052505050565b5f6110c9611006565b90506110d5828261108f565b919050565b5f67ffffffffffffffff8211156110f4576110f3611062565b5b6110fd82611052565b9050602081019050919050565b828183375f83830152505050565b5f61112a611125846110da565b6110c0565b9050828152602081018484840111156111465761114561104e565b5b61115184828561110a565b509392505050565b5f82601f83011261116d5761116c61104a565b5b813561117d848260208601611118565b91505092915050565b5f805f6060848603121561119d5761119c61100f565b5b5f6111aa86828701611036565b935050602084013567ffffffffffffffff8111156111cb576111ca611013565b5b6111d786828701611159565b925050604084013567ffffffffffffffff8111156111f8576111f7611013565b5b61120486828701611159565b9150509250925092565b61121781611017565b82525050565b5f6020820190506112305f83018461120e565b92915050565b5f80fd5b5f80fd5b5f8083601f8401126112535761125261104a565b5b8235905067ffffffffffffffff8111156112705761126f611236565b5b60208301915083600182028301111561128c5761128b61123a565b5b9250929050565b5f8083601f8401126112a8576112a761104a565b5b8235905067ffffffffffffffff8111156112c5576112c4611236565b5b6020830191508360018202830111156112e1576112e061123a565b5b9250929050565b5f8083601f8401126112fd576112fc61104a565b5b8235905067ffffffffffffffff81111561131a57611319611236565b5b6020830191508360208202830111156113365761133561123a565b5b9250929050565b5f67ffffffffffffffff82169050919050565b6113598161133d565b8114611363575f80fd5b50565b5f8135905061137481611350565b92915050565b5f63ffffffff82169050919050565b6113928161137a565b811461139c575f80fd5b50565b5f813590506113ad81611389565b92915050565b5f805f805f805f8060a0898b0312156113cf576113ce61100f565b5b5f89013567ffffffffffffffff8111156113ec576113eb611013565b5b6113f88b828c0161123e565b9850985050602089013567ffffffffffffffff81111561141b5761141a611013565b5b6114278b828c01611293565b9650965050604089013567ffffffffffffffff81111561144a57611449611013565b5b6114568b828c016112e8565b945094505060606114698b828c01611366565b925050608061147a8b828c0161139f565b9150509295985092959890939650565b5f81519050919050565b5f82825260208201905092915050565b5f5b838110156114c15780820151818401526020810190506114a6565b5f8484015250505050565b5f6114d68261148a565b6114e08185611494565b93506114f08185602086016114a4565b6114f981611052565b840191505092915050565b5f6020820190508181035f83015261151c81846114cc565b905092915050565b5f6040820190508181035f83015261153c81856114cc565b9050818103602083015261155081846114cc565b90509392505050565b5f67ffffffffffffffff82111561157357611572611062565b5b602082029050602081019050919050565b5f67ffffffffffffffff82111561159e5761159d611062565b5b6115a782611052565b9050602081019050919050565b5f6115c66115c184611584565b6110c0565b9050828152602081018484840111156115e2576115e161104e565b5b6115ed84828561110a565b509392505050565b5f82601f8301126116095761160861104a565b5b81356116198482602086016115b4565b91505092915050565b5f61163461162f84611559565b6110c0565b905080838252602082019050602084028301858111156116575761165661123a565b5b835b8181101561169e57803567ffffffffffffffff81111561167c5761167b61104a565b5b80860161168989826115f5565b85526020850194505050602081019050611659565b5050509392505050565b5f6116b4368484611622565b905092915050565b7f4e487b71000000000000000000000000000000000000000000000000000000005f52602260045260245ffd5b5f600282049050600182168061170057607f821691505b602082108103611713576117126116bc565b5b50919050565b5f819050815f5260205f209050919050565b5f6020601f8301049050919050565b5f82821b905092915050565b5f600883026117757fffffffffffffffffffffffffffffffffffffffffffffffffffffffffffffffff8261173a565b61177f868361173a565b95508019841693508086168417925050509392505050565b5f819050919050565b5f819050919050565b5f6117c36117be6117b984611797565b6117a0565b611797565b9050919050565b5f819050919050565b6117dc836117a9565b6117f06117e8826117ca565b848454611746565b825550505050565b5f90565b6118046117f8565b61180f8184846117d3565b505050565b5b81811015611832576118275f826117fc565b600181019050611815565b5050565b601f8211156118775761184881611719565b6118518461172b565b81016020851015611860578190505b61187461186c8561172b565b830182611814565b50505b505050565b5f82821c905092915050565b5f6118975f198460080261187c565b1980831691505092915050565b5f6118af8383611888565b9150826002028217905092915050565b6118c88261148a565b67ffffffffffffffff8111156118e1576118e0611062565b5b6118eb82546116e9565b6118f6828285611836565b5f60209050601f831160018114611927575f8415611915578287015190505b61191f85826118a4565b865550611986565b601f19841661193586611719565b5f5b8281101561195c57848901518255600182019150602085019450602081019050611937565b868310156119795784890151611975601f891682611888565b8355505b6001600288020188555050505b505050505050565b7f4e487b71000000000000000000000000000000000000000000000000000000005f52602160045260245ffd5b6119c48161133d565b82525050565b6119d38161137a565b82525050565b5f6060820190506119ec5f8301866119bb565b81810360208301526119fe81856114cc565b9050611a0d60408301846119ca565b949350505050565b5f81519050611a2381611020565b92915050565b5f60208284031215611a3e57611a3d61100f565b5b5f611a4b84828501611a15565b91505092915050565b7f4e487b71000000000000000000000000000000000000000000000000000000005f52603260045260245ffd5b7f4e487b71000000000000000000000000000000000000000000000000000000005f52601160045260245ffd5b5f611ab882611797565b91507fffffffffffffffffffffffffffffffffffffffffffffffffffffffffffffffff8203611aea57611ae9611a81565b5b600182019050919050565b7f4e487b71000000000000000000000000000000000000000000000000000000005f52601260045260245ffd5b5f611b2c82611797565b9150611b3783611797565b925082611b4757611b46611af5565b5b828206905092915050565b5f611b5c82611797565b9150611b6783611797565b9250828203905081811115611b7f57611b7e611a81565b5b92915050565b5f611b8f82611797565b9150611b9a83611797565b9250828201905080821115611bb257611bb1611a81565b5b92915050565b611bc181611797565b82525050565b5f602082019050611bda5f830184611bb8565b92915050565b5f611bea82611797565b9150611bf583611797565b9250828202611c0381611797565b91508282048414831517611c1a57611c19611a81565b5b5092915050565b5f8160011c9050919050565b5f808291508390505b6001851115611c7657808604811115611c5257611c51611a81565b5b6001851615611c615780820291505b8081029050611c6f85611c21565b9450611c36565b94509492505050565b5f82611c8e5760019050611d49565b81611c9b575f9050611d49565b8160018114611cb15760028114611cbb57611cea565b6001915050611d49565b60ff841115611ccd57611ccc611a81565b5b8360020a915084821115611ce457611ce3611a81565b5b50611d49565b5060208310610133831016604e8410600b8410161715611d1f5782820a905083811115611d1a57611d19611a81565b5b611d49565b611d2c8484846001611c2d565b92509050818404811115611d4357611d42611a81565b5b81810290505b9392505050565b5f611d5a82611797565b9150611d6583611797565b9250611d927fffffffffffffffffffffffffffffffffffffffffffffffffffffffffffffffff8484611c7f565b90509291505056fea264697066735822122010c8061638544d4b602c1d73d678c07716e934a7090128b63a8bd000562f182764736f6c63430008150033",
			"opcodes": "PUSH1 0x80 PUSH1 0x40 MSTORE CALLVALUE DUP1 ISZERO PUSH3 0x10 JUMPI PUSH0 DUP1 REVERT JUMPDEST POP PUSH1 0x40 MLOAD PUSH3 0x1F05 CODESIZE SUB DUP1 PUSH3 0x1F05 DUP4 CODECOPY DUP2 DUP2 ADD PUSH1 0x40 MSTORE DUP2 ADD SWAP1 PUSH3 0x36 SWAP2 SWAP1 PUSH3 0xF7 JUMP JUMPDEST DUP1 PUSH3 0x48 DUP2 PUSH3 0x50 PUSH1 0x20 SHL PUSH1 0x20 SHR JUMP JUMPDEST POP POP PUSH3 0x127 JUMP JUMPDEST DUP1 PUSH0 DUP1 PUSH2 0x100 EXP DUP2 SLOAD DUP2 PUSH20 0xFFFFFFFFFFFFFFFFFFFFFFFFFFFFFFFFFFFFFFFF MUL NOT AND SWAP1 DUP4 PUSH20 0xFFFFFFFFFFFFFFFFFFFFFFFFFFFFFFFFFFFFFFFF AND MUL OR SWAP1 SSTORE POP POP JUMP JUMPDEST PUSH0 DUP1 REVERT JUMPDEST PUSH0 PUSH20 0xFFFFFFFFFFFFFFFFFFFFFFFFFFFFFFFFFFFFFFFF DUP3 AND SWAP1 POP SWAP2 SWAP1 POP JUMP JUMPDEST PUSH0 PUSH3 0xC1 DUP3 PUSH3 0x96 JUMP JUMPDEST SWAP1 POP SWAP2 SWAP1 POP JUMP JUMPDEST PUSH3 0xD3 DUP2 PUSH3 0xB5 JUMP JUMPDEST DUP2 EQ PUSH3 0xDE JUMPI PUSH0 DUP1 REVERT JUMPDEST POP JUMP JUMPDEST PUSH0 DUP2 MLOAD SWAP1 POP PUSH3 0xF1 DUP2 PUSH3 0xC8 JUMP JUMPDEST SWAP3 SWAP2 POP POP JUMP JUMPDEST PUSH0 PUSH1 0x20 DUP3 DUP5 SUB SLT ISZERO PUSH3 0x10F JUMPI PUSH3 0x10E PUSH3 0x92 JUMP JUMPDEST JUMPDEST PUSH0 PUSH3 0x11E DUP5 DUP3 DUP6 ADD PUSH3 0xE1 JUMP JUMPDEST SWAP2 POP POP SWAP3 SWAP2 POP POP JUMP JUMPDEST PUSH2 0x1DD0 DUP1 PUSH3 0x135 PUSH0 CODECOPY PUSH0 RETURN INVALID PUSH1 0x80 PUSH1 0x40 MSTORE CALLVALUE DUP1 ISZERO PUSH2 0xF JUMPI PUSH0 DUP1 REVERT JUMPDEST POP PUSH1 0x4 CALLDATASIZE LT PUSH2 0x55 JUMPI PUSH0 CALLDATALOAD PUSH1 0xE0 SHR DUP1 PUSH4 0xCA76175 EQ PUSH2 0x59 JUMPI DUP1 PUSH4 0x1AA46F59 EQ PUSH2 0x75 JUMPI DUP1 PUSH4 0x27714589 EQ PUSH2 0x93 JUMPI DUP1 PUSH4 0xBEF3A2F0 EQ PUSH2 0xC3 JUMPI DUP1 PUSH4 0xFFFEB84E EQ PUSH2 0xE1 JUMPI JUMPDEST PUSH0 DUP1 REVERT JUMPDEST PUSH2 0x73 PUSH1 0x4 DUP1 CALLDATASIZE SUB DUP2 ADD SWAP1 PUSH2 0x6E SWAP2 SWAP1 PUSH2 0x1186 JUMP JUMPDEST PUSH2 0xFF JUMP JUMPDEST STOP JUMPDEST PUSH2 0x7D PUSH2 0x213 JUMP JUMPDEST PUSH1 0x40 MLOAD PUSH2 0x8A SWAP2 SWAP1 PUSH2 0x121D JUMP JUMPDEST PUSH1 0x40 MLOAD DUP1 SWAP2 SUB SWAP1 RETURN JUMPDEST PUSH2 0xAD PUSH1 0x4 DUP1 CALLDATASIZE SUB DUP2 ADD SWAP1 PUSH2 0xA8 SWAP2 SWAP1 PUSH2 0x13B3 JUMP JUMPDEST PUSH2 0x219 JUMP JUMPDEST PUSH1 0x40 MLOAD PUSH2 0xBA SWAP2 SWAP1 PUSH2 0x121D JUMP JUMPDEST PUSH1 0x40 MLOAD DUP1 SWAP2 SUB SWAP1 RETURN JUMPDEST PUSH2 0xCB PUSH2 0x32F JUMP JUMPDEST PUSH1 0x40 MLOAD PUSH2 0xD8 SWAP2 SWAP1 PUSH2 0x1504 JUMP JUMPDEST PUSH1 0x40 MLOAD DUP1 SWAP2 SUB SWAP1 RETURN JUMPDEST PUSH2 0xE9 PUSH2 0x3BB JUMP JUMPDEST PUSH1 0x40 MLOAD PUSH2 0xF6 SWAP2 SWAP1 PUSH2 0x1504 JUMP JUMPDEST PUSH1 0x40 MLOAD DUP1 SWAP2 SUB SWAP1 RETURN JUMPDEST DUP3 PUSH1 0x1 PUSH0 DUP3 DUP2 MSTORE PUSH1 0x20 ADD SWAP1 DUP2 MSTORE PUSH1 0x20 ADD PUSH0 KECCAK256 PUSH0 SWAP1 SLOAD SWAP1 PUSH2 0x100 EXP SWAP1 DIV PUSH20 0xFFFFFFFFFFFFFFFFFFFFFFFFFFFFFFFFFFFFFFFF AND PUSH20 0xFFFFFFFFFFFFFFFFFFFFFFFFFFFFFFFFFFFFFFFF AND CALLER PUSH20 0xFFFFFFFFFFFFFFFFFFFFFFFFFFFFFFFFFFFFFFFF AND EQ PUSH2 0x195 JUMPI PUSH1 0x40 MLOAD PUSH32 0xA0C5EC6300000000000000000000000000000000000000000000000000000000 DUP2 MSTORE PUSH1 0x4 ADD PUSH1 0x40 MLOAD DUP1 SWAP2 SUB SWAP1 REVERT JUMPDEST PUSH1 0x1 PUSH0 DUP3 DUP2 MSTORE PUSH1 0x20 ADD SWAP1 DUP2 MSTORE PUSH1 0x20 ADD PUSH0 KECCAK256 PUSH0 PUSH2 0x100 EXP DUP2 SLOAD SWAP1 PUSH20 0xFFFFFFFFFFFFFFFFFFFFFFFFFFFFFFFFFFFFFFFF MUL NOT AND SWAP1 SSTORE PUSH2 0x1D3 DUP5 DUP5 DUP5 PUSH2 0x447 JUMP JUMPDEST DUP4 PUSH32 0xF2FA06652E54791D449AB43EDE930A20D3B71ED330CAD4018F47BA6CC15DA00A DUP5 DUP5 PUSH1 0x40 MLOAD PUSH2 0x205 SWAP3 SWAP2 SWAP1 PUSH2 0x1524 JUMP JUMPDEST PUSH1 0x40 MLOAD DUP1 SWAP2 SUB SWAP1 LOG2 POP POP POP POP JUMP JUMPDEST PUSH1 0x2 SLOAD DUP2 JUMP JUMPDEST PUSH0 PUSH2 0x222 PUSH2 0xF66 JUMP JUMPDEST PUSH2 0x27C PUSH0 DUP1 DUP13 DUP13 DUP1 DUP1 PUSH1 0x1F ADD PUSH1 0x20 DUP1 SWAP2 DIV MUL PUSH1 0x20 ADD PUSH1 0x40 MLOAD SWAP1 DUP2 ADD PUSH1 0x40 MSTORE DUP1 SWAP4 SWAP3 SWAP2 SWAP1 DUP2 DUP2 MSTORE PUSH1 0x20 ADD DUP4 DUP4 DUP1 DUP3 DUP5 CALLDATACOPY PUSH0 DUP2 DUP5 ADD MSTORE PUSH1 0x1F NOT PUSH1 0x1F DUP3 ADD AND SWAP1 POP DUP1 DUP4 ADD SWAP3 POP POP POP POP POP POP POP DUP5 PUSH2 0x4A6 SWAP1 SWAP4 SWAP3 SWAP2 SWAP1 PUSH4 0xFFFFFFFF AND JUMP JUMPDEST PUSH0 DUP9 DUP9 SWAP1 POP GT ISZERO PUSH2 0x2DE JUMPI PUSH2 0x2DD DUP9 DUP9 DUP1 DUP1 PUSH1 0x1F ADD PUSH1 0x20 DUP1 SWAP2 DIV MUL PUSH1 0x20 ADD PUSH1 0x40 MLOAD SWAP1 DUP2 ADD PUSH1 0x40 MSTORE DUP1 SWAP4 SWAP3 SWAP2 SWAP1 DUP2 DUP2 MSTORE PUSH1 0x20 ADD DUP4 DUP4 DUP1 DUP3 DUP5 CALLDATACOPY PUSH0 DUP2 DUP5 ADD MSTORE PUSH1 0x1F NOT PUSH1 0x1F DUP3 ADD AND SWAP1 POP DUP1 DUP4 ADD SWAP3 POP POP POP POP POP POP POP DUP3 PUSH2 0x54C SWAP1 SWAP2 SWAP1 PUSH4 0xFFFFFFFF AND JUMP JUMPDEST JUMPDEST PUSH0 DUP7 DUP7 SWAP1 POP GT ISZERO PUSH2 0x309 JUMPI PUSH2 0x308 DUP7 DUP7 SWAP1 PUSH2 0x2F9 SWAP2 SWAP1 PUSH2 0x16A8 JUMP JUMPDEST DUP3 PUSH2 0x5C4 SWAP1 SWAP2 SWAP1 PUSH4 0xFFFFFFFF AND JUMP JUMPDEST JUMPDEST PUSH0 PUSH2 0x315 DUP3 DUP7 DUP7 PUSH2 0x60B JUMP JUMPDEST SWAP1 POP DUP1 PUSH1 0x2 DUP2 SWAP1 SSTORE POP DUP1 SWAP3 POP POP POP SWAP9 SWAP8 POP POP POP POP POP POP POP POP JUMP JUMPDEST PUSH1 0x3 DUP1 SLOAD PUSH2 0x33C SWAP1 PUSH2 0x16E9 JUMP JUMPDEST DUP1 PUSH1 0x1F ADD PUSH1 0x20 DUP1 SWAP2 DIV MUL PUSH1 0x20 ADD PUSH1 0x40 MLOAD SWAP1 DUP2 ADD PUSH1 0x40 MSTORE DUP1 SWAP3 SWAP2 SWAP1 DUP2 DUP2 MSTORE PUSH1 0x20 ADD DUP3 DUP1 SLOAD PUSH2 0x368 SWAP1 PUSH2 0x16E9 JUMP JUMPDEST DUP1 ISZERO PUSH2 0x3B3 JUMPI DUP1 PUSH1 0x1F LT PUSH2 0x38A JUMPI PUSH2 0x100 DUP1 DUP4 SLOAD DIV MUL DUP4 MSTORE SWAP2 PUSH1 0x20 ADD SWAP2 PUSH2 0x3B3 JUMP JUMPDEST DUP3 ADD SWAP2 SWAP1 PUSH0 MSTORE PUSH1 0x20 PUSH0 KECCAK256 SWAP1 JUMPDEST DUP2 SLOAD DUP2 MSTORE SWAP1 PUSH1 0x1 ADD SWAP1 PUSH1 0x20 ADD DUP1 DUP4 GT PUSH2 0x396 JUMPI DUP3 SWAP1 SUB PUSH1 0x1F AND DUP3 ADD SWAP2 JUMPDEST POP POP POP POP POP DUP2 JUMP JUMPDEST PUSH1 0x4 DUP1 SLOAD PUSH2 0x3C8 SWAP1 PUSH2 0x16E9 JUMP JUMPDEST DUP1 PUSH1 0x1F ADD PUSH1 0x20 DUP1 SWAP2 DIV MUL PUSH1 0x20 ADD PUSH1 0x40 MLOAD SWAP1 DUP2 ADD PUSH1 0x40 MSTORE DUP1 SWAP3 SWAP2 SWAP1 DUP2 DUP2 MSTORE PUSH1 0x20 ADD DUP3 DUP1 SLOAD PUSH2 0x3F4 SWAP1 PUSH2 0x16E9 JUMP JUMPDEST DUP1 ISZERO PUSH2 0x43F JUMPI DUP1 PUSH1 0x1F LT PUSH2 0x416 JUMPI PUSH2 0x100 DUP1 DUP4 SLOAD DIV MUL DUP4 MSTORE SWAP2 PUSH1 0x20 ADD SWAP2 PUSH2 0x43F JUMP JUMPDEST DUP3 ADD SWAP2 SWAP1 PUSH0 MSTORE PUSH1 0x20 PUSH0 KECCAK256 SWAP1 JUMPDEST DUP2 SLOAD DUP2 MSTORE SWAP1 PUSH1 0x1 ADD SWAP1 PUSH1 0x20 ADD DUP1 DUP4 GT PUSH2 0x422 JUMPI DUP3 SWAP1 SUB PUSH1 0x1F AND DUP3 ADD SWAP2 JUMPDEST POP POP POP POP POP DUP2 JUMP JUMPDEST DUP2 PUSH1 0x3 SWAP1 DUP2 PUSH2 0x456 SWAP2 SWAP1 PUSH2 0x18BF JUMP JUMPDEST POP DUP1 PUSH1 0x4 SWAP1 DUP2 PUSH2 0x466 SWAP2 SWAP1 PUSH2 0x18BF JUMP JUMPDEST POP DUP3 PUSH32 0x51732BD592D531E70A33BA1A99EA425D26FA7CB95AAF81189A1B2A0E7649EDC9 DUP4 DUP4 PUSH1 0x40 MLOAD PUSH2 0x499 SWAP3 SWAP2 SWAP1 PUSH2 0x1524 JUMP JUMPDEST PUSH1 0x40 MLOAD DUP1 SWAP2 SUB SWAP1 LOG2 POP POP POP JUMP JUMPDEST PUSH0 DUP2 MLOAD SUB PUSH2 0x4E0 JUMPI PUSH1 0x40 MLOAD PUSH32 0x22CE3EDD00000000000000000000000000000000000000000000000000000000 DUP2 MSTORE PUSH1 0x4 ADD PUSH1 0x40 MLOAD DUP1 SWAP2 SUB SWAP1 REVERT JUMPDEST DUP3 DUP5 PUSH0 ADD SWAP1 PUSH1 0x1 DUP2 GT ISZERO PUSH2 0x4F7 JUMPI PUSH2 0x4F6 PUSH2 0x198E JUMP JUMPDEST JUMPDEST SWAP1 DUP2 PUSH1 0x1 DUP2 GT ISZERO PUSH2 0x50B JUMPI PUSH2 0x50A PUSH2 0x198E JUMP JUMPDEST JUMPDEST DUP2 MSTORE POP POP DUP2 DUP5 PUSH1 0x40 ADD SWAP1 PUSH0 DUP2 GT ISZERO PUSH2 0x526 JUMPI PUSH2 0x525 PUSH2 0x198E JUMP JUMPDEST JUMPDEST SWAP1 DUP2 PUSH0 DUP2 GT ISZERO PUSH2 0x539 JUMPI PUSH2 0x538 PUSH2 0x198E JUMP JUMPDEST JUMPDEST DUP2 MSTORE POP POP DUP1 DUP5 PUSH1 0x60 ADD DUP2 SWAP1 MSTORE POP POP POP POP POP JUMP JUMPDEST PUSH0 DUP2 MLOAD SUB PUSH2 0x586 JUMPI PUSH1 0x40 MLOAD PUSH32 0xE889636F00000000000000000000000000000000000000000000000000000000 DUP2 MSTORE PUSH1 0x4 ADD PUSH1 0x40 MLOAD DUP1 SWAP2 SUB SWAP1 REVERT JUMPDEST PUSH1 0x1 DUP3 PUSH1 0x20 ADD SWAP1 PUSH1 0x1 DUP2 GT ISZERO PUSH2 0x59F JUMPI PUSH2 0x59E PUSH2 0x198E JUMP JUMPDEST JUMPDEST SWAP1 DUP2 PUSH1 0x1 DUP2 GT ISZERO PUSH2 0x5B3 JUMPI PUSH2 0x5B2 PUSH2 0x198E JUMP JUMPDEST JUMPDEST DUP2 MSTORE POP POP DUP1 DUP3 PUSH1 0x80 ADD DUP2 SWAP1 MSTORE POP POP POP JUMP JUMPDEST PUSH0 DUP2 MLOAD SUB PUSH2 0x5FE JUMPI PUSH1 0x40 MLOAD PUSH32 0xFE936CB700000000000000000000000000000000000000000000000000000000 DUP2 MSTORE PUSH1 0x4 ADD PUSH1 0x40 MLOAD DUP1 SWAP2 SUB SWAP1 REVERT JUMPDEST DUP1 DUP3 PUSH1 0xA0 ADD DUP2 SWAP1 MSTORE POP POP POP JUMP JUMPDEST PUSH0 DUP1 PUSH0 DUP1 SLOAD SWAP1 PUSH2 0x100 EXP SWAP1 DIV PUSH20 0xFFFFFFFFFFFFFFFFFFFFFFFFFFFFFFFFFFFFFFFF AND PUSH20 0xFFFFFFFFFFFFFFFFFFFFFFFFFFFFFFFFFFFFFFFF AND PUSH4 0x28242B04 DUP6 PUSH2 0x652 DUP9 PUSH2 0x73A JUMP JUMPDEST DUP7 PUSH1 0x40 MLOAD DUP5 PUSH4 0xFFFFFFFF AND PUSH1 0xE0 SHL DUP2 MSTORE PUSH1 0x4 ADD PUSH2 0x671 SWAP4 SWAP3 SWAP2 SWAP1 PUSH2 0x19D9 JUMP JUMPDEST PUSH1 0x20 PUSH1 0x40 MLOAD DUP1 DUP4 SUB DUP2 PUSH0 DUP8 GAS CALL ISZERO DUP1 ISZERO PUSH2 0x68D JUMPI RETURNDATASIZE PUSH0 DUP1 RETURNDATACOPY RETURNDATASIZE PUSH0 REVERT JUMPDEST POP POP POP POP PUSH1 0x40 MLOAD RETURNDATASIZE PUSH1 0x1F NOT PUSH1 0x1F DUP3 ADD AND DUP3 ADD DUP1 PUSH1 0x40 MSTORE POP DUP2 ADD SWAP1 PUSH2 0x6B1 SWAP2 SWAP1 PUSH2 0x1A29 JUMP JUMPDEST SWAP1 POP ORIGIN PUSH1 0x1 PUSH0 DUP4 DUP2 MSTORE PUSH1 0x20 ADD SWAP1 DUP2 MSTORE PUSH1 0x20 ADD PUSH0 KECCAK256 PUSH0 PUSH2 0x100 EXP DUP2 SLOAD DUP2 PUSH20 0xFFFFFFFFFFFFFFFFFFFFFFFFFFFFFFFFFFFFFFFF MUL NOT AND SWAP1 DUP4 PUSH20 0xFFFFFFFFFFFFFFFFFFFFFFFFFFFFFFFFFFFFFFFF AND MUL OR SWAP1 SSTORE POP DUP1 PUSH32 0x1131472297A800FEE664D1D89CFA8F7676FF07189ECC53F80BBB5F4969099DB8 PUSH1 0x40 MLOAD PUSH1 0x40 MLOAD DUP1 SWAP2 SUB SWAP1 LOG2 DUP1 SWAP2 POP POP SWAP4 SWAP3 POP POP POP JUMP JUMPDEST PUSH1 0x60 PUSH2 0x744 PUSH2 0xFCE JUMP JUMPDEST PUSH2 0x753 DUP2 PUSH0 ADD MLOAD PUSH2 0x100 PUSH2 0xA31 JUMP JUMPDEST POP PUSH2 0x793 DUP2 PUSH1 0x40 MLOAD DUP1 PUSH1 0x40 ADD PUSH1 0x40 MSTORE DUP1 PUSH1 0xC DUP2 MSTORE PUSH1 0x20 ADD PUSH32 0x636F64654C6F636174696F6E0000000000000000000000000000000000000000 DUP2 MSTORE POP PUSH2 0xAA7 JUMP JUMPDEST PUSH2 0x7B2 DUP2 DUP5 PUSH0 ADD MLOAD PUSH1 0x1 DUP2 GT ISZERO PUSH2 0x7AD JUMPI PUSH2 0x7AC PUSH2 0x198E JUMP JUMPDEST JUMPDEST PUSH2 0xACF JUMP JUMPDEST PUSH2 0x7F1 DUP2 PUSH1 0x40 MLOAD DUP1 PUSH1 0x40 ADD PUSH1 0x40 MSTORE DUP1 PUSH1 0x8 DUP2 MSTORE PUSH1 0x20 ADD PUSH32 0x6C616E6775616765000000000000000000000000000000000000000000000000 DUP2 MSTORE POP PUSH2 0xAA7 JUMP JUMPDEST PUSH2 0x810 DUP2 DUP5 PUSH1 0x40 ADD MLOAD PUSH0 DUP2 GT ISZERO PUSH2 0x80B JUMPI PUSH2 0x80A PUSH2 0x198E JUMP JUMPDEST JUMPDEST PUSH2 0xACF JUMP JUMPDEST PUSH2 0x84F DUP2 PUSH1 0x40 MLOAD DUP1 PUSH1 0x40 ADD PUSH1 0x40 MSTORE DUP1 PUSH1 0x6 DUP2 MSTORE PUSH1 0x20 ADD PUSH32 0x736F757263650000000000000000000000000000000000000000000000000000 DUP2 MSTORE POP PUSH2 0xAA7 JUMP JUMPDEST PUSH2 0x85D DUP2 DUP5 PUSH1 0x60 ADD MLOAD PUSH2 0xAA7 JUMP JUMPDEST PUSH0 DUP4 PUSH1 0xA0 ADD MLOAD MLOAD GT ISZERO PUSH2 0x907 JUMPI PUSH2 0x8A9 DUP2 PUSH1 0x40 MLOAD DUP1 PUSH1 0x40 ADD PUSH1 0x40 MSTORE DUP1 PUSH1 0x4 DUP2 MSTORE PUSH1 0x20 ADD PUSH32 0x6172677300000000000000000000000000000000000000000000000000000000 DUP2 MSTORE POP PUSH2 0xAA7 JUMP JUMPDEST PUSH2 0x8B2 DUP2 PUSH2 0xB1E JUMP JUMPDEST PUSH0 JUMPDEST DUP4 PUSH1 0xA0 ADD MLOAD MLOAD DUP2 LT ISZERO PUSH2 0x8FC JUMPI PUSH2 0x8E9 DUP3 DUP6 PUSH1 0xA0 ADD MLOAD DUP4 DUP2 MLOAD DUP2 LT PUSH2 0x8DC JUMPI PUSH2 0x8DB PUSH2 0x1A54 JUMP JUMPDEST JUMPDEST PUSH1 0x20 MUL PUSH1 0x20 ADD ADD MLOAD PUSH2 0xAA7 JUMP JUMPDEST DUP1 DUP1 PUSH2 0x8F4 SWAP1 PUSH2 0x1AAE JUMP JUMPDEST SWAP2 POP POP PUSH2 0x8B4 JUMP JUMPDEST POP PUSH2 0x906 DUP2 PUSH2 0xB46 JUMP JUMPDEST JUMPDEST PUSH0 DUP4 PUSH1 0x80 ADD MLOAD MLOAD GT ISZERO PUSH2 0xA22 JUMPI PUSH0 PUSH1 0x1 DUP2 GT ISZERO PUSH2 0x927 JUMPI PUSH2 0x926 PUSH2 0x198E JUMP JUMPDEST JUMPDEST DUP4 PUSH1 0x20 ADD MLOAD PUSH1 0x1 DUP2 GT ISZERO PUSH2 0x93E JUMPI PUSH2 0x93D PUSH2 0x198E JUMP JUMPDEST JUMPDEST SUB PUSH2 0x975 JUMPI PUSH1 0x40 MLOAD PUSH32 0xA80D31F700000000000000000000000000000000000000000000000000000000 DUP2 MSTORE PUSH1 0x4 ADD PUSH1 0x40 MLOAD DUP1 SWAP2 SUB SWAP1 REVERT JUMPDEST PUSH2 0x9B4 DUP2 PUSH1 0x40 MLOAD DUP1 PUSH1 0x40 ADD PUSH1 0x40 MSTORE DUP1 PUSH1 0xF DUP2 MSTORE PUSH1 0x20 ADD PUSH32 0x736563726574734C6F636174696F6E0000000000000000000000000000000000 DUP2 MSTORE POP PUSH2 0xAA7 JUMP JUMPDEST PUSH2 0x9D4 DUP2 DUP5 PUSH1 0x20 ADD MLOAD PUSH1 0x1 DUP2 GT ISZERO PUSH2 0x9CF JUMPI PUSH2 0x9CE PUSH2 0x198E JUMP JUMPDEST JUMPDEST PUSH2 0xACF JUMP JUMPDEST PUSH2 0xA13 DUP2 PUSH1 0x40 MLOAD DUP1 PUSH1 0x40 ADD PUSH1 0x40 MSTORE DUP1 PUSH1 0x7 DUP2 MSTORE PUSH1 0x20 ADD PUSH32 0x7365637265747300000000000000000000000000000000000000000000000000 DUP2 MSTORE POP PUSH2 0xAA7 JUMP JUMPDEST PUSH2 0xA21 DUP2 DUP5 PUSH1 0x80 ADD MLOAD PUSH2 0xB6E JUMP JUMPDEST JUMPDEST DUP1 PUSH0 ADD MLOAD PUSH0 ADD MLOAD SWAP2 POP POP SWAP2 SWAP1 POP JUMP JUMPDEST PUSH2 0xA39 PUSH2 0xFED JUMP JUMPDEST PUSH0 PUSH1 0x20 DUP4 PUSH2 0xA47 SWAP2 SWAP1 PUSH2 0x1B22 JUMP JUMPDEST EQ PUSH2 0xA73 JUMPI PUSH1 0x20 DUP3 PUSH2 0xA59 SWAP2 SWAP1 PUSH2 0x1B22 JUMP JUMPDEST PUSH1 0x20 PUSH2 0xA65 SWAP2 SWAP1 PUSH2 0x1B52 JUMP JUMPDEST DUP3 PUSH2 0xA70 SWAP2 SWAP1 PUSH2 0x1B85 JUMP JUMPDEST SWAP2 POP JUMPDEST DUP2 DUP4 PUSH1 0x20 ADD DUP2 DUP2 MSTORE POP POP PUSH1 0x40 MLOAD DUP1 DUP5 MSTORE PUSH0 DUP2 MSTORE DUP3 DUP2 ADD PUSH1 0x20 ADD DUP2 DUP2 LT ISZERO PUSH2 0xA98 JUMPI PUSH0 DUP1 REVERT JUMPDEST DUP1 PUSH1 0x40 MSTORE POP POP DUP3 SWAP1 POP SWAP3 SWAP2 POP POP JUMP JUMPDEST PUSH2 0xAB4 DUP3 PUSH1 0x3 DUP4 MLOAD PUSH2 0xB96 JUMP JUMPDEST PUSH2 0xACA DUP2 DUP4 PUSH0 ADD MLOAD PUSH2 0xD36 SWAP1 SWAP2 SWAP1 PUSH4 0xFFFFFFFF AND JUMP JUMPDEST POP POP POP JUMP JUMPDEST PUSH2 0xAF0 PUSH1 0x2 PUSH1 0x5 PUSH1 0x6 PUSH1 0xFF AND SWAP1 SHL OR DUP4 PUSH0 ADD MLOAD PUSH2 0xD52 SWAP1 SWAP2 SWAP1 PUSH4 0xFFFFFFFF AND JUMP JUMPDEST POP PUSH2 0xB1A DUP3 DUP3 PUSH1 0x40 MLOAD PUSH1 0x20 ADD PUSH2 0xB06 SWAP2 SWAP1 PUSH2 0x1BC7 JUMP JUMPDEST PUSH1 0x40 MLOAD PUSH1 0x20 DUP2 DUP4 SUB SUB DUP2 MSTORE SWAP1 PUSH1 0x40 MSTORE PUSH2 0xB6E JUMP JUMPDEST POP POP JUMP JUMPDEST PUSH2 0xB29 DUP2 PUSH1 0x4 PUSH2 0xDB9 JUMP JUMPDEST PUSH1 0x1 DUP2 PUSH1 0x20 ADD DUP2 DUP2 MLOAD PUSH2 0xB3C SWAP2 SWAP1 PUSH2 0x1B85 JUMP JUMPDEST SWAP2 POP DUP2 DUP2 MSTORE POP POP POP JUMP JUMPDEST PUSH2 0xB51 DUP2 PUSH1 0x7 PUSH2 0xDB9 JUMP JUMPDEST PUSH1 0x1 DUP2 PUSH1 0x20 ADD DUP2 DUP2 MLOAD PUSH2 0xB64 SWAP2 SWAP1 PUSH2 0x1B52 JUMP JUMPDEST SWAP2 POP DUP2 DUP2 MSTORE POP POP POP JUMP JUMPDEST PUSH2 0xB7B DUP3 PUSH1 0x2 DUP4 MLOAD PUSH2 0xB96 JUMP JUMPDEST PUSH2 0xB91 DUP2 DUP4 PUSH0 ADD MLOAD PUSH2 0xD36 SWAP1 SWAP2 SWAP1 PUSH4 0xFFFFFFFF AND JUMP JUMPDEST POP POP POP JUMP JUMPDEST PUSH1 0x17 DUP2 PUSH8 0xFFFFFFFFFFFFFFFF AND GT PUSH2 0xBD0 JUMPI PUSH2 0xBCA DUP2 PUSH1 0x5 DUP5 PUSH1 0xFF AND SWAP1 SHL PUSH1 0xFF AND OR DUP5 PUSH0 ADD MLOAD PUSH2 0xD52 SWAP1 SWAP2 SWAP1 PUSH4 0xFFFFFFFF AND JUMP JUMPDEST POP PUSH2 0xD31 JUMP JUMPDEST PUSH1 0xFF DUP2 PUSH8 0xFFFFFFFFFFFFFFFF AND GT PUSH2 0xC2C JUMPI PUSH2 0xC02 PUSH1 0x18 PUSH1 0x5 DUP5 PUSH1 0xFF AND SWAP1 SHL OR DUP5 PUSH0 ADD MLOAD PUSH2 0xD52 SWAP1 SWAP2 SWAP1 PUSH4 0xFFFFFFFF AND JUMP JUMPDEST POP PUSH2 0xC26 DUP2 PUSH8 0xFFFFFFFFFFFFFFFF AND PUSH1 0x1 DUP6 PUSH0 ADD MLOAD PUSH2 0xDDE SWAP1 SWAP3 SWAP2 SWAP1 PUSH4 0xFFFFFFFF AND JUMP JUMPDEST POP PUSH2 0xD30 JUMP JUMPDEST PUSH2 0xFFFF DUP2 PUSH8 0xFFFFFFFFFFFFFFFF AND GT PUSH2 0xC89 JUMPI PUSH2 0xC5F PUSH1 0x19 PUSH1 0x5 DUP5 PUSH1 0xFF AND SWAP1 SHL OR DUP5 PUSH0 ADD MLOAD PUSH2 0xD52 SWAP1 SWAP2 SWAP1 PUSH4 0xFFFFFFFF AND JUMP JUMPDEST POP PUSH2 0xC83 DUP2 PUSH8 0xFFFFFFFFFFFFFFFF AND PUSH1 0x2 DUP6 PUSH0 ADD MLOAD PUSH2 0xDDE SWAP1 SWAP3 SWAP2 SWAP1 PUSH4 0xFFFFFFFF AND JUMP JUMPDEST POP PUSH2 0xD2F JUMP JUMPDEST PUSH4 0xFFFFFFFF DUP2 PUSH8 0xFFFFFFFFFFFFFFFF AND GT PUSH2 0xCE8 JUMPI PUSH2 0xCBE PUSH1 0x1A PUSH1 0x5 DUP5 PUSH1 0xFF AND SWAP1 SHL OR DUP5 PUSH0 ADD MLOAD PUSH2 0xD52 SWAP1 SWAP2 SWAP1 PUSH4 0xFFFFFFFF AND JUMP JUMPDEST POP PUSH2 0xCE2 DUP2 PUSH8 0xFFFFFFFFFFFFFFFF AND PUSH1 0x4 DUP6 PUSH0 ADD MLOAD PUSH2 0xDDE SWAP1 SWAP3 SWAP2 SWAP1 PUSH4 0xFFFFFFFF AND JUMP JUMPDEST POP PUSH2 0xD2E JUMP JUMPDEST PUSH2 0xD08 PUSH1 0x1B PUSH1 0x5 DUP5 PUSH1 0xFF AND SWAP1 SHL OR DUP5 PUSH0 ADD MLOAD PUSH2 0xD52 SWAP1 SWAP2 SWAP1 PUSH4 0xFFFFFFFF AND JUMP JUMPDEST POP PUSH2 0xD2C DUP2 PUSH8 0xFFFFFFFFFFFFFFFF AND PUSH1 0x8 DUP6 PUSH0 ADD MLOAD PUSH2 0xDDE SWAP1 SWAP3 SWAP2 SWAP1 PUSH4 0xFFFFFFFF AND JUMP JUMPDEST POP JUMPDEST JUMPDEST JUMPDEST JUMPDEST POP POP POP JUMP JUMPDEST PUSH2 0xD3E PUSH2 0xFED JUMP JUMPDEST PUSH2 0xD4A DUP4 DUP4 DUP5 MLOAD PUSH2 0xE67 JUMP JUMPDEST SWAP1 POP SWAP3 SWAP2 POP POP JUMP JUMPDEST PUSH2 0xD5A PUSH2 0xFED JUMP JUMPDEST PUSH0 DUP4 PUSH0 ADD MLOAD MLOAD SWAP1 POP PUSH0 PUSH1 0x1 DUP3 PUSH2 0xD70 SWAP2 SWAP1 PUSH2 0x1B85 JUMP JUMPDEST SWAP1 POP DUP5 PUSH1 0x20 ADD MLOAD DUP3 LT PUSH2 0xD94 JUMPI PUSH2 0xD93 DUP6 PUSH1 0x2 DUP4 PUSH2 0xD8E SWAP2 SWAP1 PUSH2 0x1BE0 JUMP JUMPDEST PUSH2 0xF44 JUMP JUMPDEST JUMPDEST DUP5 MLOAD PUSH1 0x20 DUP4 DUP3 ADD ADD DUP6 DUP2 MSTORE8 DUP2 MLOAD DUP4 GT ISZERO PUSH2 0xDAC JUMPI DUP3 DUP3 MSTORE JUMPDEST POP POP DUP5 SWAP3 POP POP POP SWAP3 SWAP2 POP POP JUMP JUMPDEST PUSH2 0xDD9 PUSH1 0x1F PUSH1 0x5 DUP4 PUSH1 0xFF AND SWAP1 SHL OR DUP4 PUSH0 ADD MLOAD PUSH2 0xD52 SWAP1 SWAP2 SWAP1 PUSH4 0xFFFFFFFF AND JUMP JUMPDEST POP POP POP JUMP JUMPDEST PUSH2 0xDE6 PUSH2 0xFED JUMP JUMPDEST PUSH0 DUP5 PUSH0 ADD MLOAD MLOAD SWAP1 POP PUSH0 DUP2 DUP5 PUSH2 0xDFB SWAP2 SWAP1 PUSH2 0x1B85 JUMP JUMPDEST SWAP1 POP DUP6 PUSH1 0x20 ADD MLOAD DUP2 GT ISZERO PUSH2 0xE20 JUMPI PUSH2 0xE1F DUP7 PUSH1 0x2 DUP4 PUSH2 0xE1A SWAP2 SWAP1 PUSH2 0x1BE0 JUMP JUMPDEST PUSH2 0xF44 JUMP JUMPDEST JUMPDEST PUSH0 PUSH1 0x1 DUP6 PUSH2 0x100 PUSH2 0xE31 SWAP2 SWAP1 PUSH2 0x1D50 JUMP JUMPDEST PUSH2 0xE3B SWAP2 SWAP1 PUSH2 0x1B52 JUMP JUMPDEST SWAP1 POP DUP7 MLOAD DUP3 DUP2 ADD DUP8 DUP4 NOT DUP3 MLOAD AND OR DUP2 MSTORE DUP2 MLOAD DUP5 GT ISZERO PUSH2 0xE58 JUMPI DUP4 DUP3 MSTORE JUMPDEST POP POP DUP7 SWAP4 POP POP POP POP SWAP4 SWAP3 POP POP POP JUMP JUMPDEST PUSH2 0xE6F PUSH2 0xFED JUMP JUMPDEST DUP3 MLOAD DUP3 GT ISZERO PUSH2 0xE7C JUMPI PUSH0 DUP1 REVERT JUMPDEST PUSH0 DUP5 PUSH0 ADD MLOAD MLOAD SWAP1 POP PUSH0 DUP4 DUP3 PUSH2 0xE91 SWAP2 SWAP1 PUSH2 0x1B85 JUMP JUMPDEST SWAP1 POP DUP6 PUSH1 0x20 ADD MLOAD DUP2 GT ISZERO PUSH2 0xEB6 JUMPI PUSH2 0xEB5 DUP7 PUSH1 0x2 DUP4 PUSH2 0xEB0 SWAP2 SWAP1 PUSH2 0x1BE0 JUMP JUMPDEST PUSH2 0xF44 JUMP JUMPDEST JUMPDEST PUSH0 DUP1 DUP8 MLOAD DUP1 MLOAD DUP6 PUSH1 0x20 DUP4 ADD ADD SWAP4 POP DUP1 DUP6 GT ISZERO PUSH2 0xED0 JUMPI DUP5 DUP3 MSTORE JUMPDEST PUSH1 0x20 DUP10 ADD SWAP3 POP POP POP JUMPDEST PUSH1 0x20 DUP7 LT PUSH2 0xF17 JUMPI DUP1 MLOAD DUP3 MSTORE PUSH1 0x20 DUP3 PUSH2 0xEF2 SWAP2 SWAP1 PUSH2 0x1B85 JUMP JUMPDEST SWAP2 POP PUSH1 0x20 DUP2 PUSH2 0xF01 SWAP2 SWAP1 PUSH2 0x1B85 JUMP JUMPDEST SWAP1 POP PUSH1 0x20 DUP7 PUSH2 0xF10 SWAP2 SWAP1 PUSH2 0x1B52 JUMP JUMPDEST SWAP6 POP PUSH2 0xED9 JUMP JUMPDEST PUSH0 PUSH1 0x1 DUP8 PUSH1 0x20 SUB PUSH2 0x100 EXP SUB SWAP1 POP DUP1 NOT DUP3 MLOAD AND DUP2 DUP5 MLOAD AND DUP2 DUP2 OR DUP6 MSTORE POP POP POP DUP8 SWAP5 POP POP POP POP POP SWAP4 SWAP3 POP POP POP JUMP JUMPDEST PUSH0 DUP3 PUSH0 ADD MLOAD SWAP1 POP PUSH2 0xF55 DUP4 DUP4 PUSH2 0xA31 JUMP JUMPDEST POP PUSH2 0xF60 DUP4 DUP3 PUSH2 0xD36 JUMP JUMPDEST POP POP POP POP JUMP JUMPDEST PUSH1 0x40 MLOAD DUP1 PUSH1 0xC0 ADD PUSH1 0x40 MSTORE DUP1 PUSH0 PUSH1 0x1 DUP2 GT ISZERO PUSH2 0xF84 JUMPI PUSH2 0xF83 PUSH2 0x198E JUMP JUMPDEST JUMPDEST DUP2 MSTORE PUSH1 0x20 ADD PUSH0 PUSH1 0x1 DUP2 GT ISZERO PUSH2 0xF9C JUMPI PUSH2 0xF9B PUSH2 0x198E JUMP JUMPDEST JUMPDEST DUP2 MSTORE PUSH1 0x20 ADD PUSH0 DUP1 DUP2 GT ISZERO PUSH2 0xFB3 JUMPI PUSH2 0xFB2 PUSH2 0x198E JUMP JUMPDEST JUMPDEST DUP2 MSTORE PUSH1 0x20 ADD PUSH1 0x60 DUP2 MSTORE PUSH1 0x20 ADD PUSH1 0x60 DUP2 MSTORE PUSH1 0x20 ADD PUSH1 0x60 DUP2 MSTORE POP SWAP1 JUMP JUMPDEST PUSH1 0x40 MLOAD DUP1 PUSH1 0x40 ADD PUSH1 0x40 MSTORE DUP1 PUSH2 0xFE1 PUSH2 0xFED JUMP JUMPDEST DUP2 MSTORE PUSH1 0x20 ADD PUSH0 DUP2 MSTORE POP SWAP1 JUMP JUMPDEST PUSH1 0x40 MLOAD DUP1 PUSH1 0x40 ADD PUSH1 0x40 MSTORE DUP1 PUSH1 0x60 DUP2 MSTORE PUSH1 0x20 ADD PUSH0 DUP2 MSTORE POP SWAP1 JUMP JUMPDEST PUSH0 PUSH1 0x40 MLOAD SWAP1 POP SWAP1 JUMP JUMPDEST PUSH0 DUP1 REVERT JUMPDEST PUSH0 DUP1 REVERT JUMPDEST PUSH0 DUP2 SWAP1 POP SWAP2 SWAP1 POP JUMP JUMPDEST PUSH2 0x1029 DUP2 PUSH2 0x1017 JUMP JUMPDEST DUP2 EQ PUSH2 0x1033 JUMPI PUSH0 DUP1 REVERT JUMPDEST POP JUMP JUMPDEST PUSH0 DUP2 CALLDATALOAD SWAP1 POP PUSH2 0x1044 DUP2 PUSH2 0x1020 JUMP JUMPDEST SWAP3 SWAP2 POP POP JUMP JUMPDEST PUSH0 DUP1 REVERT JUMPDEST PUSH0 DUP1 REVERT JUMPDEST PUSH0 PUSH1 0x1F NOT PUSH1 0x1F DUP4 ADD AND SWAP1 POP SWAP2 SWAP1 POP JUMP JUMPDEST PUSH32 0x4E487B7100000000000000000000000000000000000000000000000000000000 PUSH0 MSTORE PUSH1 0x41 PUSH1 0x4 MSTORE PUSH1 0x24 PUSH0 REVERT JUMPDEST PUSH2 0x1098 DUP3 PUSH2 0x1052 JUMP JUMPDEST DUP2 ADD DUP2 DUP2 LT PUSH8 0xFFFFFFFFFFFFFFFF DUP3 GT OR ISZERO PUSH2 0x10B7 JUMPI PUSH2 0x10B6 PUSH2 0x1062 JUMP JUMPDEST JUMPDEST DUP1 PUSH1 0x40 MSTORE POP POP POP JUMP JUMPDEST PUSH0 PUSH2 0x10C9 PUSH2 0x1006 JUMP JUMPDEST SWAP1 POP PUSH2 0x10D5 DUP3 DUP3 PUSH2 0x108F JUMP JUMPDEST SWAP2 SWAP1 POP JUMP JUMPDEST PUSH0 PUSH8 0xFFFFFFFFFFFFFFFF DUP3 GT ISZERO PUSH2 0x10F4 JUMPI PUSH2 0x10F3 PUSH2 0x1062 JUMP JUMPDEST JUMPDEST PUSH2 0x10FD DUP3 PUSH2 0x1052 JUMP JUMPDEST SWAP1 POP PUSH1 0x20 DUP2 ADD SWAP1 POP SWAP2 SWAP1 POP JUMP JUMPDEST DUP3 DUP2 DUP4 CALLDATACOPY PUSH0 DUP4 DUP4 ADD MSTORE POP POP POP JUMP JUMPDEST PUSH0 PUSH2 0x112A PUSH2 0x1125 DUP5 PUSH2 0x10DA JUMP JUMPDEST PUSH2 0x10C0 JUMP JUMPDEST SWAP1 POP DUP3 DUP2 MSTORE PUSH1 0x20 DUP2 ADD DUP5 DUP5 DUP5 ADD GT ISZERO PUSH2 0x1146 JUMPI PUSH2 0x1145 PUSH2 0x104E JUMP JUMPDEST JUMPDEST PUSH2 0x1151 DUP5 DUP3 DUP6 PUSH2 0x110A JUMP JUMPDEST POP SWAP4 SWAP3 POP POP POP JUMP JUMPDEST PUSH0 DUP3 PUSH1 0x1F DUP4 ADD SLT PUSH2 0x116D JUMPI PUSH2 0x116C PUSH2 0x104A JUMP JUMPDEST JUMPDEST DUP2 CALLDATALOAD PUSH2 0x117D DUP5 DUP3 PUSH1 0x20 DUP7 ADD PUSH2 0x1118 JUMP JUMPDEST SWAP2 POP POP SWAP3 SWAP2 POP POP JUMP JUMPDEST PUSH0 DUP1 PUSH0 PUSH1 0x60 DUP5 DUP7 SUB SLT ISZERO PUSH2 0x119D JUMPI PUSH2 0x119C PUSH2 0x100F JUMP JUMPDEST JUMPDEST PUSH0 PUSH2 0x11AA DUP7 DUP3 DUP8 ADD PUSH2 0x1036 JUMP JUMPDEST SWAP4 POP POP PUSH1 0x20 DUP5 ADD CALLDATALOAD PUSH8 0xFFFFFFFFFFFFFFFF DUP2 GT ISZERO PUSH2 0x11CB JUMPI PUSH2 0x11CA PUSH2 0x1013 JUMP JUMPDEST JUMPDEST PUSH2 0x11D7 DUP7 DUP3 DUP8 ADD PUSH2 0x1159 JUMP JUMPDEST SWAP3 POP POP PUSH1 0x40 DUP5 ADD CALLDATALOAD PUSH8 0xFFFFFFFFFFFFFFFF DUP2 GT ISZERO PUSH2 0x11F8 JUMPI PUSH2 0x11F7 PUSH2 0x1013 JUMP JUMPDEST JUMPDEST PUSH2 0x1204 DUP7 DUP3 DUP8 ADD PUSH2 0x1159 JUMP JUMPDEST SWAP2 POP POP SWAP3 POP SWAP3 POP SWAP3 JUMP JUMPDEST PUSH2 0x1217 DUP2 PUSH2 0x1017 JUMP JUMPDEST DUP3 MSTORE POP POP JUMP JUMPDEST PUSH0 PUSH1 0x20 DUP3 ADD SWAP1 POP PUSH2 0x1230 PUSH0 DUP4 ADD DUP5 PUSH2 0x120E JUMP JUMPDEST SWAP3 SWAP2 POP POP JUMP JUMPDEST PUSH0 DUP1 REVERT JUMPDEST PUSH0 DUP1 REVERT JUMPDEST PUSH0 DUP1 DUP4 PUSH1 0x1F DUP5 ADD SLT PUSH2 0x1253 JUMPI PUSH2 0x1252 PUSH2 0x104A JUMP JUMPDEST JUMPDEST DUP3 CALLDATALOAD SWAP1 POP PUSH8 0xFFFFFFFFFFFFFFFF DUP2 GT ISZERO PUSH2 0x1270 JUMPI PUSH2 0x126F PUSH2 0x1236 JUMP JUMPDEST JUMPDEST PUSH1 0x20 DUP4 ADD SWAP2 POP DUP4 PUSH1 0x1 DUP3 MUL DUP4 ADD GT ISZERO PUSH2 0x128C JUMPI PUSH2 0x128B PUSH2 0x123A JUMP JUMPDEST JUMPDEST SWAP3 POP SWAP3 SWAP1 POP JUMP JUMPDEST PUSH0 DUP1 DUP4 PUSH1 0x1F DUP5 ADD SLT PUSH2 0x12A8 JUMPI PUSH2 0x12A7 PUSH2 0x104A JUMP JUMPDEST JUMPDEST DUP3 CALLDATALOAD SWAP1 POP PUSH8 0xFFFFFFFFFFFFFFFF DUP2 GT ISZERO PUSH2 0x12C5 JUMPI PUSH2 0x12C4 PUSH2 0x1236 JUMP JUMPDEST JUMPDEST PUSH1 0x20 DUP4 ADD SWAP2 POP DUP4 PUSH1 0x1 DUP3 MUL DUP4 ADD GT ISZERO PUSH2 0x12E1 JUMPI PUSH2 0x12E0 PUSH2 0x123A JUMP JUMPDEST JUMPDEST SWAP3 POP SWAP3 SWAP1 POP JUMP JUMPDEST PUSH0 DUP1 DUP4 PUSH1 0x1F DUP5 ADD SLT PUSH2 0x12FD JUMPI PUSH2 0x12FC PUSH2 0x104A JUMP JUMPDEST JUMPDEST DUP3 CALLDATALOAD SWAP1 POP PUSH8 0xFFFFFFFFFFFFFFFF DUP2 GT ISZERO PUSH2 0x131A JUMPI PUSH2 0x1319 PUSH2 0x1236 JUMP JUMPDEST JUMPDEST PUSH1 0x20 DUP4 ADD SWAP2 POP DUP4 PUSH1 0x20 DUP3 MUL DUP4 ADD GT ISZERO PUSH2 0x1336 JUMPI PUSH2 0x1335 PUSH2 0x123A JUMP JUMPDEST JUMPDEST SWAP3 POP SWAP3 SWAP1 POP JUMP JUMPDEST PUSH0 PUSH8 0xFFFFFFFFFFFFFFFF DUP3 AND SWAP1 POP SWAP2 SWAP1 POP JUMP JUMPDEST PUSH2 0x1359 DUP2 PUSH2 0x133D JUMP JUMPDEST DUP2 EQ PUSH2 0x1363 JUMPI PUSH0 DUP1 REVERT JUMPDEST POP JUMP JUMPDEST PUSH0 DUP2 CALLDATALOAD SWAP1 POP PUSH2 0x1374 DUP2 PUSH2 0x1350 JUMP JUMPDEST SWAP3 SWAP2 POP POP JUMP JUMPDEST PUSH0 PUSH4 0xFFFFFFFF DUP3 AND SWAP1 POP SWAP2 SWAP1 POP JUMP JUMPDEST PUSH2 0x1392 DUP2 PUSH2 0x137A JUMP JUMPDEST DUP2 EQ PUSH2 0x139C JUMPI PUSH0 DUP1 REVERT JUMPDEST POP JUMP JUMPDEST PUSH0 DUP2 CALLDATALOAD SWAP1 POP PUSH2 0x13AD DUP2 PUSH2 0x1389 JUMP JUMPDEST SWAP3 SWAP2 POP POP JUMP JUMPDEST PUSH0 DUP1 PUSH0 DUP1 PUSH0 DUP1 PUSH0 DUP1 PUSH1 0xA0 DUP10 DUP12 SUB SLT ISZERO PUSH2 0x13CF JUMPI PUSH2 0x13CE PUSH2 0x100F JUMP JUMPDEST JUMPDEST PUSH0 DUP10 ADD CALLDATALOAD PUSH8 0xFFFFFFFFFFFFFFFF DUP2 GT ISZERO PUSH2 0x13EC JUMPI PUSH2 0x13EB PUSH2 0x1013 JUMP JUMPDEST JUMPDEST PUSH2 0x13F8 DUP12 DUP3 DUP13 ADD PUSH2 0x123E JUMP JUMPDEST SWAP9 POP SWAP9 POP POP PUSH1 0x20 DUP10 ADD CALLDATALOAD PUSH8 0xFFFFFFFFFFFFFFFF DUP2 GT ISZERO PUSH2 0x141B JUMPI PUSH2 0x141A PUSH2 0x1013 JUMP JUMPDEST JUMPDEST PUSH2 0x1427 DUP12 DUP3 DUP13 ADD PUSH2 0x1293 JUMP JUMPDEST SWAP7 POP SWAP7 POP POP PUSH1 0x40 DUP10 ADD CALLDATALOAD PUSH8 0xFFFFFFFFFFFFFFFF DUP2 GT ISZERO PUSH2 0x144A JUMPI PUSH2 0x1449 PUSH2 0x1013 JUMP JUMPDEST JUMPDEST PUSH2 0x1456 DUP12 DUP3 DUP13 ADD PUSH2 0x12E8 JUMP JUMPDEST SWAP5 POP SWAP5 POP POP PUSH1 0x60 PUSH2 0x1469 DUP12 DUP3 DUP13 ADD PUSH2 0x1366 JUMP JUMPDEST SWAP3 POP POP PUSH1 0x80 PUSH2 0x147A DUP12 DUP3 DUP13 ADD PUSH2 0x139F JUMP JUMPDEST SWAP2 POP POP SWAP3 SWAP6 SWAP9 POP SWAP3 SWAP6 SWAP9 SWAP1 SWAP4 SWAP7 POP JUMP JUMPDEST PUSH0 DUP2 MLOAD SWAP1 POP SWAP2 SWAP1 POP JUMP JUMPDEST PUSH0 DUP3 DUP3 MSTORE PUSH1 0x20 DUP3 ADD SWAP1 POP SWAP3 SWAP2 POP POP JUMP JUMPDEST PUSH0 JUMPDEST DUP4 DUP2 LT ISZERO PUSH2 0x14C1 JUMPI DUP1 DUP3 ADD MLOAD DUP2 DUP5 ADD MSTORE PUSH1 0x20 DUP2 ADD SWAP1 POP PUSH2 0x14A6 JUMP JUMPDEST PUSH0 DUP5 DUP5 ADD MSTORE POP POP POP POP JUMP JUMPDEST PUSH0 PUSH2 0x14D6 DUP3 PUSH2 0x148A JUMP JUMPDEST PUSH2 0x14E0 DUP2 DUP6 PUSH2 0x1494 JUMP JUMPDEST SWAP4 POP PUSH2 0x14F0 DUP2 DUP6 PUSH1 0x20 DUP7 ADD PUSH2 0x14A4 JUMP JUMPDEST PUSH2 0x14F9 DUP2 PUSH2 0x1052 JUMP JUMPDEST DUP5 ADD SWAP2 POP POP SWAP3 SWAP2 POP POP JUMP JUMPDEST PUSH0 PUSH1 0x20 DUP3 ADD SWAP1 POP DUP2 DUP2 SUB PUSH0 DUP4 ADD MSTORE PUSH2 0x151C DUP2 DUP5 PUSH2 0x14CC JUMP JUMPDEST SWAP1 POP SWAP3 SWAP2 POP POP JUMP JUMPDEST PUSH0 PUSH1 0x40 DUP3 ADD SWAP1 POP DUP2 DUP2 SUB PUSH0 DUP4 ADD MSTORE PUSH2 0x153C DUP2 DUP6 PUSH2 0x14CC JUMP JUMPDEST SWAP1 POP DUP2 DUP2 SUB PUSH1 0x20 DUP4 ADD MSTORE PUSH2 0x1550 DUP2 DUP5 PUSH2 0x14CC JUMP JUMPDEST SWAP1 POP SWAP4 SWAP3 POP POP POP JUMP JUMPDEST PUSH0 PUSH8 0xFFFFFFFFFFFFFFFF DUP3 GT ISZERO PUSH2 0x1573 JUMPI PUSH2 0x1572 PUSH2 0x1062 JUMP JUMPDEST JUMPDEST PUSH1 0x20 DUP3 MUL SWAP1 POP PUSH1 0x20 DUP2 ADD SWAP1 POP SWAP2 SWAP1 POP JUMP JUMPDEST PUSH0 PUSH8 0xFFFFFFFFFFFFFFFF DUP3 GT ISZERO PUSH2 0x159E JUMPI PUSH2 0x159D PUSH2 0x1062 JUMP JUMPDEST JUMPDEST PUSH2 0x15A7 DUP3 PUSH2 0x1052 JUMP JUMPDEST SWAP1 POP PUSH1 0x20 DUP2 ADD SWAP1 POP SWAP2 SWAP1 POP JUMP JUMPDEST PUSH0 PUSH2 0x15C6 PUSH2 0x15C1 DUP5 PUSH2 0x1584 JUMP JUMPDEST PUSH2 0x10C0 JUMP JUMPDEST SWAP1 POP DUP3 DUP2 MSTORE PUSH1 0x20 DUP2 ADD DUP5 DUP5 DUP5 ADD GT ISZERO PUSH2 0x15E2 JUMPI PUSH2 0x15E1 PUSH2 0x104E JUMP JUMPDEST JUMPDEST PUSH2 0x15ED DUP5 DUP3 DUP6 PUSH2 0x110A JUMP JUMPDEST POP SWAP4 SWAP3 POP POP POP JUMP JUMPDEST PUSH0 DUP3 PUSH1 0x1F DUP4 ADD SLT PUSH2 0x1609 JUMPI PUSH2 0x1608 PUSH2 0x104A JUMP JUMPDEST JUMPDEST DUP2 CALLDATALOAD PUSH2 0x1619 DUP5 DUP3 PUSH1 0x20 DUP7 ADD PUSH2 0x15B4 JUMP JUMPDEST SWAP2 POP POP SWAP3 SWAP2 POP POP JUMP JUMPDEST PUSH0 PUSH2 0x1634 PUSH2 0x162F DUP5 PUSH2 0x1559 JUMP JUMPDEST PUSH2 0x10C0 JUMP JUMPDEST SWAP1 POP DUP1 DUP4 DUP3 MSTORE PUSH1 0x20 DUP3 ADD SWAP1 POP PUSH1 0x20 DUP5 MUL DUP4 ADD DUP6 DUP2 GT ISZERO PUSH2 0x1657 JUMPI PUSH2 0x1656 PUSH2 0x123A JUMP JUMPDEST JUMPDEST DUP4 JUMPDEST DUP2 DUP2 LT ISZERO PUSH2 0x169E JUMPI DUP1 CALLDATALOAD PUSH8 0xFFFFFFFFFFFFFFFF DUP2 GT ISZERO PUSH2 0x167C JUMPI PUSH2 0x167B PUSH2 0x104A JUMP JUMPDEST JUMPDEST DUP1 DUP7 ADD PUSH2 0x1689 DUP10 DUP3 PUSH2 0x15F5 JUMP JUMPDEST DUP6 MSTORE PUSH1 0x20 DUP6 ADD SWAP5 POP POP POP PUSH1 0x20 DUP2 ADD SWAP1 POP PUSH2 0x1659 JUMP JUMPDEST POP POP POP SWAP4 SWAP3 POP POP POP JUMP JUMPDEST PUSH0 PUSH2 0x16B4 CALLDATASIZE DUP5 DUP5 PUSH2 0x1622 JUMP JUMPDEST SWAP1 POP SWAP3 SWAP2 POP POP JUMP JUMPDEST PUSH32 0x4E487B7100000000000000000000000000000000000000000000000000000000 PUSH0 MSTORE PUSH1 0x22 PUSH1 0x4 MSTORE PUSH1 0x24 PUSH0 REVERT JUMPDEST PUSH0 PUSH1 0x2 DUP3 DIV SWAP1 POP PUSH1 0x1 DUP3 AND DUP1 PUSH2 0x1700 JUMPI PUSH1 0x7F DUP3 AND SWAP2 POP JUMPDEST PUSH1 0x20 DUP3 LT DUP2 SUB PUSH2 0x1713 JUMPI PUSH2 0x1712 PUSH2 0x16BC JUMP JUMPDEST JUMPDEST POP SWAP2 SWAP1 POP JUMP JUMPDEST PUSH0 DUP2 SWAP1 POP DUP2 PUSH0 MSTORE PUSH1 0x20 PUSH0 KECCAK256 SWAP1 POP SWAP2 SWAP1 POP JUMP JUMPDEST PUSH0 PUSH1 0x20 PUSH1 0x1F DUP4 ADD DIV SWAP1 POP SWAP2 SWAP1 POP JUMP JUMPDEST PUSH0 DUP3 DUP3 SHL SWAP1 POP SWAP3 SWAP2 POP POP JUMP JUMPDEST PUSH0 PUSH1 0x8 DUP4 MUL PUSH2 0x1775 PUSH32 0xFFFFFFFFFFFFFFFFFFFFFFFFFFFFFFFFFFFFFFFFFFFFFFFFFFFFFFFFFFFFFFFF DUP3 PUSH2 0x173A JUMP JUMPDEST PUSH2 0x177F DUP7 DUP4 PUSH2 0x173A JUMP JUMPDEST SWAP6 POP DUP1 NOT DUP5 AND SWAP4 POP DUP1 DUP7 AND DUP5 OR SWAP3 POP POP POP SWAP4 SWAP3 POP POP POP JUMP JUMPDEST PUSH0 DUP2 SWAP1 POP SWAP2 SWAP1 POP JUMP JUMPDEST PUSH0 DUP2 SWAP1 POP SWAP2 SWAP1 POP JUMP JUMPDEST PUSH0 PUSH2 0x17C3 PUSH2 0x17BE PUSH2 0x17B9 DUP5 PUSH2 0x1797 JUMP JUMPDEST PUSH2 0x17A0 JUMP JUMPDEST PUSH2 0x1797 JUMP JUMPDEST SWAP1 POP SWAP2 SWAP1 POP JUMP JUMPDEST PUSH0 DUP2 SWAP1 POP SWAP2 SWAP1 POP JUMP JUMPDEST PUSH2 0x17DC DUP4 PUSH2 0x17A9 JUMP JUMPDEST PUSH2 0x17F0 PUSH2 0x17E8 DUP3 PUSH2 0x17CA JUMP JUMPDEST DUP5 DUP5 SLOAD PUSH2 0x1746 JUMP JUMPDEST DUP3 SSTORE POP POP POP POP JUMP JUMPDEST PUSH0 SWAP1 JUMP JUMPDEST PUSH2 0x1804 PUSH2 0x17F8 JUMP JUMPDEST PUSH2 0x180F DUP2 DUP5 DUP5 PUSH2 0x17D3 JUMP JUMPDEST POP POP POP JUMP JUMPDEST JUMPDEST DUP2 DUP2 LT ISZERO PUSH2 0x1832 JUMPI PUSH2 0x1827 PUSH0 DUP3 PUSH2 0x17FC JUMP JUMPDEST PUSH1 0x1 DUP2 ADD SWAP1 POP PUSH2 0x1815 JUMP JUMPDEST POP POP JUMP JUMPDEST PUSH1 0x1F DUP3 GT ISZERO PUSH2 0x1877 JUMPI PUSH2 0x1848 DUP2 PUSH2 0x1719 JUMP JUMPDEST PUSH2 0x1851 DUP5 PUSH2 0x172B JUMP JUMPDEST DUP2 ADD PUSH1 0x20 DUP6 LT ISZERO PUSH2 0x1860 JUMPI DUP2 SWAP1 POP JUMPDEST PUSH2 0x1874 PUSH2 0x186C DUP6 PUSH2 0x172B JUMP JUMPDEST DUP4 ADD DUP3 PUSH2 0x1814 JUMP JUMPDEST POP POP JUMPDEST POP POP POP JUMP JUMPDEST PUSH0 DUP3 DUP3 SHR SWAP1 POP SWAP3 SWAP2 POP POP JUMP JUMPDEST PUSH0 PUSH2 0x1897 PUSH0 NOT DUP5 PUSH1 0x8 MUL PUSH2 0x187C JUMP JUMPDEST NOT DUP1 DUP4 AND SWAP2 POP POP SWAP3 SWAP2 POP POP JUMP JUMPDEST PUSH0 PUSH2 0x18AF DUP4 DUP4 PUSH2 0x1888 JUMP JUMPDEST SWAP2 POP DUP3 PUSH1 0x2 MUL DUP3 OR SWAP1 POP SWAP3 SWAP2 POP POP JUMP JUMPDEST PUSH2 0x18C8 DUP3 PUSH2 0x148A JUMP JUMPDEST PUSH8 0xFFFFFFFFFFFFFFFF DUP2 GT ISZERO PUSH2 0x18E1 JUMPI PUSH2 0x18E0 PUSH2 0x1062 JUMP JUMPDEST JUMPDEST PUSH2 0x18EB DUP3 SLOAD PUSH2 0x16E9 JUMP JUMPDEST PUSH2 0x18F6 DUP3 DUP3 DUP6 PUSH2 0x1836 JUMP JUMPDEST PUSH0 PUSH1 0x20 SWAP1 POP PUSH1 0x1F DUP4 GT PUSH1 0x1 DUP2 EQ PUSH2 0x1927 JUMPI PUSH0 DUP5 ISZERO PUSH2 0x1915 JUMPI DUP3 DUP8 ADD MLOAD SWAP1 POP JUMPDEST PUSH2 0x191F DUP6 DUP3 PUSH2 0x18A4 JUMP JUMPDEST DUP7 SSTORE POP PUSH2 0x1986 JUMP JUMPDEST PUSH1 0x1F NOT DUP5 AND PUSH2 0x1935 DUP7 PUSH2 0x1719 JUMP JUMPDEST PUSH0 JUMPDEST DUP3 DUP2 LT ISZERO PUSH2 0x195C JUMPI DUP5 DUP10 ADD MLOAD DUP3 SSTORE PUSH1 0x1 DUP3 ADD SWAP2 POP PUSH1 0x20 DUP6 ADD SWAP5 POP PUSH1 0x20 DUP2 ADD SWAP1 POP PUSH2 0x1937 JUMP JUMPDEST DUP7 DUP4 LT ISZERO PUSH2 0x1979 JUMPI DUP5 DUP10 ADD MLOAD PUSH2 0x1975 PUSH1 0x1F DUP10 AND DUP3 PUSH2 0x1888 JUMP JUMPDEST DUP4 SSTORE POP JUMPDEST PUSH1 0x1 PUSH1 0x2 DUP9 MUL ADD DUP9 SSTORE POP POP POP JUMPDEST POP POP POP POP POP POP JUMP JUMPDEST PUSH32 0x4E487B7100000000000000000000000000000000000000000000000000000000 PUSH0 MSTORE PUSH1 0x21 PUSH1 0x4 MSTORE PUSH1 0x24 PUSH0 REVERT JUMPDEST PUSH2 0x19C4 DUP2 PUSH2 0x133D JUMP JUMPDEST DUP3 MSTORE POP POP JUMP JUMPDEST PUSH2 0x19D3 DUP2 PUSH2 0x137A JUMP JUMPDEST DUP3 MSTORE POP POP JUMP JUMPDEST PUSH0 PUSH1 0x60 DUP3 ADD SWAP1 POP PUSH2 0x19EC PUSH0 DUP4 ADD DUP7 PUSH2 0x19BB JUMP JUMPDEST DUP2 DUP2 SUB PUSH1 0x20 DUP4 ADD MSTORE PUSH2 0x19FE DUP2 DUP6 PUSH2 0x14CC JUMP JUMPDEST SWAP1 POP PUSH2 0x1A0D PUSH1 0x40 DUP4 ADD DUP5 PUSH2 0x19CA JUMP JUMPDEST SWAP5 SWAP4 POP POP POP POP JUMP JUMPDEST PUSH0 DUP2 MLOAD SWAP1 POP PUSH2 0x1A23 DUP2 PUSH2 0x1020 JUMP JUMPDEST SWAP3 SWAP2 POP POP JUMP JUMPDEST PUSH0 PUSH1 0x20 DUP3 DUP5 SUB SLT ISZERO PUSH2 0x1A3E JUMPI PUSH2 0x1A3D PUSH2 0x100F JUMP JUMPDEST JUMPDEST PUSH0 PUSH2 0x1A4B DUP5 DUP3 DUP6 ADD PUSH2 0x1A15 JUMP JUMPDEST SWAP2 POP POP SWAP3 SWAP2 POP POP JUMP JUMPDEST PUSH32 0x4E487B7100000000000000000000000000000000000000000000000000000000 PUSH0 MSTORE PUSH1 0x32 PUSH1 0x4 MSTORE PUSH1 0x24 PUSH0 REVERT JUMPDEST PUSH32 0x4E487B7100000000000000000000000000000000000000000000000000000000 PUSH0 MSTORE PUSH1 0x11 PUSH1 0x4 MSTORE PUSH1 0x24 PUSH0 REVERT JUMPDEST PUSH0 PUSH2 0x1AB8 DUP3 PUSH2 0x1797 JUMP JUMPDEST SWAP2 POP PUSH32 0xFFFFFFFFFFFFFFFFFFFFFFFFFFFFFFFFFFFFFFFFFFFFFFFFFFFFFFFFFFFFFFFF DUP3 SUB PUSH2 0x1AEA JUMPI PUSH2 0x1AE9 PUSH2 0x1A81 JUMP JUMPDEST JUMPDEST PUSH1 0x1 DUP3 ADD SWAP1 POP SWAP2 SWAP1 POP JUMP JUMPDEST PUSH32 0x4E487B7100000000000000000000000000000000000000000000000000000000 PUSH0 MSTORE PUSH1 0x12 PUSH1 0x4 MSTORE PUSH1 0x24 PUSH0 REVERT JUMPDEST PUSH0 PUSH2 0x1B2C DUP3 PUSH2 0x1797 JUMP JUMPDEST SWAP2 POP PUSH2 0x1B37 DUP4 PUSH2 0x1797 JUMP JUMPDEST SWAP3 POP DUP3 PUSH2 0x1B47 JUMPI PUSH2 0x1B46 PUSH2 0x1AF5 JUMP JUMPDEST JUMPDEST DUP3 DUP3 MOD SWAP1 POP SWAP3 SWAP2 POP POP JUMP JUMPDEST PUSH0 PUSH2 0x1B5C DUP3 PUSH2 0x1797 JUMP JUMPDEST SWAP2 POP PUSH2 0x1B67 DUP4 PUSH2 0x1797 JUMP JUMPDEST SWAP3 POP DUP3 DUP3 SUB SWAP1 POP DUP2 DUP2 GT ISZERO PUSH2 0x1B7F JUMPI PUSH2 0x1B7E PUSH2 0x1A81 JUMP JUMPDEST JUMPDEST SWAP3 SWAP2 POP POP JUMP JUMPDEST PUSH0 PUSH2 0x1B8F DUP3 PUSH2 0x1797 JUMP JUMPDEST SWAP2 POP PUSH2 0x1B9A DUP4 PUSH2 0x1797 JUMP JUMPDEST SWAP3 POP DUP3 DUP3 ADD SWAP1 POP DUP1 DUP3 GT ISZERO PUSH2 0x1BB2 JUMPI PUSH2 0x1BB1 PUSH2 0x1A81 JUMP JUMPDEST JUMPDEST SWAP3 SWAP2 POP POP JUMP JUMPDEST PUSH2 0x1BC1 DUP2 PUSH2 0x1797 JUMP JUMPDEST DUP3 MSTORE POP POP JUMP JUMPDEST PUSH0 PUSH1 0x20 DUP3 ADD SWAP1 POP PUSH2 0x1BDA PUSH0 DUP4 ADD DUP5 PUSH2 0x1BB8 JUMP JUMPDEST SWAP3 SWAP2 POP POP JUMP JUMPDEST PUSH0 PUSH2 0x1BEA DUP3 PUSH2 0x1797 JUMP JUMPDEST SWAP2 POP PUSH2 0x1BF5 DUP4 PUSH2 0x1797 JUMP JUMPDEST SWAP3 POP DUP3 DUP3 MUL PUSH2 0x1C03 DUP2 PUSH2 0x1797 JUMP JUMPDEST SWAP2 POP DUP3 DUP3 DIV DUP5 EQ DUP4 ISZERO OR PUSH2 0x1C1A JUMPI PUSH2 0x1C19 PUSH2 0x1A81 JUMP JUMPDEST JUMPDEST POP SWAP3 SWAP2 POP POP JUMP JUMPDEST PUSH0 DUP2 PUSH1 0x1 SHR SWAP1 POP SWAP2 SWAP1 POP JUMP JUMPDEST PUSH0 DUP1 DUP3 SWAP2 POP DUP4 SWAP1 POP JUMPDEST PUSH1 0x1 DUP6 GT ISZERO PUSH2 0x1C76 JUMPI DUP1 DUP7 DIV DUP2 GT ISZERO PUSH2 0x1C52 JUMPI PUSH2 0x1C51 PUSH2 0x1A81 JUMP JUMPDEST JUMPDEST PUSH1 0x1 DUP6 AND ISZERO PUSH2 0x1C61 JUMPI DUP1 DUP3 MUL SWAP2 POP JUMPDEST DUP1 DUP2 MUL SWAP1 POP PUSH2 0x1C6F DUP6 PUSH2 0x1C21 JUMP JUMPDEST SWAP5 POP PUSH2 0x1C36 JUMP JUMPDEST SWAP5 POP SWAP5 SWAP3 POP POP POP JUMP JUMPDEST PUSH0 DUP3 PUSH2 0x1C8E JUMPI PUSH1 0x1 SWAP1 POP PUSH2 0x1D49 JUMP JUMPDEST DUP2 PUSH2 0x1C9B JUMPI PUSH0 SWAP1 POP PUSH2 0x1D49 JUMP JUMPDEST DUP2 PUSH1 0x1 DUP2 EQ PUSH2 0x1CB1 JUMPI PUSH1 0x2 DUP2 EQ PUSH2 0x1CBB JUMPI PUSH2 0x1CEA JUMP JUMPDEST PUSH1 0x1 SWAP2 POP POP PUSH2 0x1D49 JUMP JUMPDEST PUSH1 0xFF DUP5 GT ISZERO PUSH2 0x1CCD JUMPI PUSH2 0x1CCC PUSH2 0x1A81 JUMP JUMPDEST JUMPDEST DUP4 PUSH1 0x2 EXP SWAP2 POP DUP5 DUP3 GT ISZERO PUSH2 0x1CE4 JUMPI PUSH2 0x1CE3 PUSH2 0x1A81 JUMP JUMPDEST JUMPDEST POP PUSH2 0x1D49 JUMP JUMPDEST POP PUSH1 0x20 DUP4 LT PUSH2 0x133 DUP4 LT AND PUSH1 0x4E DUP5 LT PUSH1 0xB DUP5 LT AND OR ISZERO PUSH2 0x1D1F JUMPI DUP3 DUP3 EXP SWAP1 POP DUP4 DUP2 GT ISZERO PUSH2 0x1D1A JUMPI PUSH2 0x1D19 PUSH2 0x1A81 JUMP JUMPDEST JUMPDEST PUSH2 0x1D49 JUMP JUMPDEST PUSH2 0x1D2C DUP5 DUP5 DUP5 PUSH1 0x1 PUSH2 0x1C2D JUMP JUMPDEST SWAP3 POP SWAP1 POP DUP2 DUP5 DIV DUP2 GT ISZERO PUSH2 0x1D43 JUMPI PUSH2 0x1D42 PUSH2 0x1A81 JUMP JUMPDEST JUMPDEST DUP2 DUP2 MUL SWAP1 POP JUMPDEST SWAP4 SWAP3 POP POP POP JUMP JUMPDEST PUSH0 PUSH2 0x1D5A DUP3 PUSH2 0x1797 JUMP JUMPDEST SWAP2 POP PUSH2 0x1D65 DUP4 PUSH2 0x1797 JUMP JUMPDEST SWAP3 POP PUSH2 0x1D92 PUSH32 0xFFFFFFFFFFFFFFFFFFFFFFFFFFFFFFFFFFFFFFFFFFFFFFFFFFFFFFFFFFFFFFFF DUP5 DUP5 PUSH2 0x1C7F JUMP JUMPDEST SWAP1 POP SWAP3 SWAP2 POP POP JUMP INVALID LOG2 PUSH5 0x6970667358 0x22 SLT KECCAK256 LT 0xC8 MOD AND CODESIZE SLOAD 0x4D 0x4B PUSH1 0x2C SAR PUSH20 0xD678C07716E934A7090128B63A8BD000562F1827 PUSH5 0x736F6C6343 STOP ADDMOD ISZERO STOP CALLER "
		},
		"gasEstimates": {
			"creation": {
				"codeDepositCost": "1526400",
				"executionCost": "infinite",
				"totalCost": "infinite"
			},
			"external": {
				"executeRequest(string,bytes,string[],uint64,uint32)": "infinite",
				"handleOracleFulfillment(bytes32,bytes,bytes)": "infinite",
				"latestError()": "infinite",
				"latestRequestId()": "2425",
				"latestResponse()": "infinite"
			},
			"internal": {
				"fulfillRequest(bytes32,bytes memory,bytes memory)": "infinite"
			}
		},
		"methodIdentifiers": {
			"executeRequest(string,bytes,string[],uint64,uint32)": "27714589",
			"handleOracleFulfillment(bytes32,bytes,bytes)": "0ca76175",
			"latestError()": "fffeb84e",
			"latestRequestId()": "1aa46f59",
			"latestResponse()": "bef3a2f0"
		}
	},
	"abi": [
		{
			"inputs": [
				{
					"internalType": "address",
					"name": "oracle",
					"type": "address"
				}
			],
			"stateMutability": "nonpayable",
			"type": "constructor"
		},
		{
			"inputs": [],
			"name": "EmptyArgs",
			"type": "error"
		},
		{
			"inputs": [],
			"name": "EmptyRequestData",
			"type": "error"
		},
		{
			"inputs": [],
			"name": "EmptySecrets",
			"type": "error"
		},
		{
			"inputs": [],
			"name": "EmptySource",
			"type": "error"
		},
		{
			"inputs": [],
			"name": "NoInlineSecrets",
			"type": "error"
		},
		{
			"inputs": [],
			"name": "RequestIsAlreadyPending",
			"type": "error"
		},
		{
			"inputs": [],
			"name": "SenderIsNotRegistry",
			"type": "error"
		},
		{
			"anonymous": false,
			"inputs": [
				{
					"indexed": true,
					"internalType": "bytes32",
					"name": "requestId",
					"type": "bytes32"
				},
				{
					"indexed": false,
					"internalType": "bytes",
					"name": "result",
					"type": "bytes"
				},
				{
					"indexed": false,
					"internalType": "bytes",
					"name": "err",
					"type": "bytes"
				}
			],
			"name": "FuncResponse",
			"type": "event"
		},
		{
			"anonymous": false,
			"inputs": [
				{
					"indexed": true,
					"internalType": "bytes32",
					"name": "id",
					"type": "bytes32"
				},
				{
					"indexed": false,
					"internalType": "bytes",
					"name": "result",
					"type": "bytes"
				},
				{
					"indexed": false,
					"internalType": "bytes",
					"name": "err",
					"type": "bytes"
				}
			],
			"name": "RequestFulfilled",
			"type": "event"
		},
		{
			"anonymous": false,
			"inputs": [
				{
					"indexed": true,
					"internalType": "bytes32",
					"name": "id",
					"type": "bytes32"
				}
			],
			"name": "RequestSent",
			"type": "event"
		},
		{
			"inputs": [
				{
					"internalType": "string",
					"name": "source",
					"type": "string"
				},
				{
					"internalType": "bytes",
					"name": "secrets",
					"type": "bytes"
				},
				{
					"internalType": "string[]",
					"name": "args",
					"type": "string[]"
				},
				{
					"internalType": "uint64",
					"name": "subscriptionId",
					"type": "uint64"
				},
				{
					"internalType": "uint32",
					"name": "gasLimit",
					"type": "uint32"
				}
			],
			"name": "executeRequest",
			"outputs": [
				{
					"internalType": "bytes32",
					"name": "",
					"type": "bytes32"
				}
			],
			"stateMutability": "nonpayable",
			"type": "function"
		},
		{
			"inputs": [
				{
					"internalType": "bytes32",
					"name": "requestId",
					"type": "bytes32"
				},
				{
					"internalType": "bytes",
					"name": "response",
					"type": "bytes"
				},
				{
					"internalType": "bytes",
					"name": "err",
					"type": "bytes"
				}
			],
			"name": "handleOracleFulfillment",
			"outputs": [],
			"stateMutability": "nonpayable",
			"type": "function"
		},
		{
			"inputs": [],
			"name": "latestError",
			"outputs": [
				{
					"internalType": "bytes",
					"name": "",
					"type": "bytes"
				}
			],
			"stateMutability": "view",
			"type": "function"
		},
		{
			"inputs": [],
			"name": "latestRequestId",
			"outputs": [
				{
					"internalType": "bytes32",
					"name": "",
					"type": "bytes32"
				}
			],
			"stateMutability": "view",
			"type": "function"
		},
		{
			"inputs": [],
			"name": "latestResponse",
			"outputs": [
				{
					"internalType": "bytes",
					"name": "",
					"type": "bytes"
				}
			],
			"stateMutability": "view",
			"type": "function"
		}
	]
}