{
	"data": {
		"bytecode": {
			"linkReferences": {},
			"object": "60806040523480156200001157600080fd5b506040516200233238038062002332833981810160405281019062000037919062000106565b81816200004a826200009560201b60201c565b80600260006101000a81548173ffffffffffffffffffffffffffffffffffffffff021916908373ffffffffffffffffffffffffffffffffffffffff16021790555050505050620001ce565b806000806101000a81548173ffffffffffffffffffffffffffffffffffffffff021916908373ffffffffffffffffffffffffffffffffffffffff16021790555050565b600081519050620000e9816200019a565b92915050565b6000815190506200010081620001b4565b92915050565b6000806040838503121562000120576200011f62000195565b5b60006200013085828601620000d8565b92505060206200014385828601620000ef565b9150509250929050565b60006200015a8262000175565b9050919050565b60006200016e826200014d565b9050919050565b600073ffffffffffffffffffffffffffffffffffffffff82169050919050565b600080fd5b620001a5816200014d565b8114620001b157600080fd5b50565b620001bf8162000161565b8114620001cb57600080fd5b50565b61215480620001de6000396000f3fe608060405234801561001057600080fd5b50600436106100625760003560e01c80631aa46f59146100675780632912557a146100855780637adbf973146100b5578063bef3a2f0146100d1578063fba45fbe146100ef578063fffeb84e1461010b575b600080fd5b61006f610129565b60405161007c91906118ff565b60405180910390f35b61009f600480360381019061009a91906116a3565b61012f565b6040516100ac91906118ff565b60405180910390f35b6100cf60048036038101906100ca91906115ef565b61024b565b005b6100d961028e565b6040516100e6919061199d565b60405180910390f35b6101096004803603810190610104919061176c565b61031c565b005b610113610429565b604051610120919061199d565b60405180910390f35b60035481565b600061013961123d565b6101976000808a8a8080601f016020809104026020016040519081016040528093929190818152602001838380828437600081840152601f19601f820116905080830192505050505050508c856104b790949392919063ffffffff16565b60008686905011156101fb576101fa86868080601f016020809104026020016040519081016040528093929190818152602001838380828437600081840152601f19601f820116905080830192505050505050508261056d90919063ffffffff16565b5b6000848490501115610227576102268484906102179190611de6565b826105e790919063ffffffff16565b5b600061023282610630565b9050806003819055508092505050979650505050505050565b806000806101000a81548173ffffffffffffffffffffffffffffffffffffffff021916908373ffffffffffffffffffffffffffffffffffffffff16021790555050565b6004805461029b90611e3d565b80601f01602080910402602001604051908101604052809291908181526020018280546102c790611e3d565b80156103145780601f106102e957610100808354040283529160200191610314565b820191906000526020600020905b8154815290600101906020018083116102f757829003601f168201915b505050505081565b8360008054906101000a900473ffffffffffffffffffffffffffffffffffffffff1673ffffffffffffffffffffffffffffffffffffffff166385fa202c868686866040518563ffffffff1660e01b815260040161037c949392919061194a565b602060405180830381600087803b15801561039657600080fd5b505af11580156103aa573d6000803e3d6000fd5b505050506040513d601f19601f820116820180604052508101906103ce9190611649565b503373ffffffffffffffffffffffffffffffffffffffff16857fd0ceebb26e373797d34f277e1ddb02d72d53e53eb23ebeef0fcbb06191c76ea186868660405161041a93929190611a1a565b60405180910390a35050505050565b6005805461043690611e3d565b80601f016020809104026020016040519081016040528092919081815260200182805461046290611e3d565b80156104af5780601f10610484576101008083540402835291602001916104af565b820191906000526020600020905b81548152906001019060200180831161049257829003601f168201915b505050505081565b6000825114156104f3576040517f22ce3edd00000000000000000000000000000000000000000000000000000000815260040160405180910390fd5b838560000190600181111561050b5761050a611f78565b5b9081600181111561051f5761051e611f78565b5b81525050828560400190600081111561053b5761053a611f78565b5b9081600081111561054f5761054e611f78565b5b81525050818560800181905250808560600181815250505050505050565b6000815114156105a9576040517fe889636f00000000000000000000000000000000000000000000000000000000815260040160405180910390fd5b6001826020019060018111156105c2576105c1611f78565b5b908160018111156105d6576105d5611f78565b5b81525050808260a001819052505050565b600081511415610623576040517ffe936cb700000000000000000000000000000000000000000000000000000000815260040160405180910390fd5b808260c001819052505050565b600080600260009054906101000a900473ffffffffffffffffffffffffffffffffffffffff1673ffffffffffffffffffffffffffffffffffffffff16639885e3b484606001516040518263ffffffff1660e01b815260040161069291906118ff565b60206040518083038186803b1580156106aa57600080fd5b505afa1580156106be573d6000803e3d6000fd5b505050506040513d601f19601f820116820180604052508101906106e2919061161c565b9050600073ffffffffffffffffffffffffffffffffffffffff168173ffffffffffffffffffffffffffffffffffffffff161415610754576040517f08c379a000000000000000000000000000000000000000000000000000000000815260040161074b906119df565b60405180910390fd5b600081905060008173ffffffffffffffffffffffffffffffffffffffff1663594710df6040518163ffffffff1660e01b815260040160206040518083038186803b1580156107a157600080fd5b505afa1580156107b5573d6000803e3d6000fd5b505050506040513d601f19601f820116820180604052508101906107d9919061180b565b9050600081141561081f576040517f08c379a0000000000000000000000000000000000000000000000000000000008152600401610816906119bf565b60405180910390fd5b60008060009054906101000a900473ffffffffffffffffffffffffffffffffffffffff1673ffffffffffffffffffffffffffffffffffffffff1663041dae33876060015161086c89610998565b6040518363ffffffff1660e01b815260040161088992919061191a565b602060405180830381600087803b1580156108a357600080fd5b505af11580156108b7573d6000803e3d6000fd5b505050506040513d601f19601f820116820180604052508101906108db9190611676565b905060008054906101000a900473ffffffffffffffffffffffffffffffffffffffff166001600083815260200190815260200160002060006101000a81548173ffffffffffffffffffffffffffffffffffffffff021916908373ffffffffffffffffffffffffffffffffffffffff1602179055508560600151817ff66c42a7b945272fe61591062073bc8ec78eef6116c496d08b5cf0e54b7e885f8660405161098491906118e4565b60405180910390a380945050505050919050565b60606109a26112b2565b6109b28160000151610100610ce9565b506109f2816040518060400160405280600c81526020017f636f64654c6f636174696f6e0000000000000000000000000000000000000000815250610d62565b610a128184600001516001811115610a0d57610a0c611f78565b5b610d8b565b610a51816040518060400160405280600881526020017f6c616e6775616765000000000000000000000000000000000000000000000000815250610d62565b610a718184604001516000811115610a6c57610a6b611f78565b5b610d8b565b610ab0816040518060400160405280600c81526020017f66756e6374696f6e4e616d650000000000000000000000000000000000000000815250610d62565b610ac181846060015160001c610d8b565b610b00816040518060400160405280600681526020017f736f757263650000000000000000000000000000000000000000000000000000815250610d62565b610b0e818460800151610d62565b60008360c00151511115610bba57610b5b816040518060400160405280600481526020017f6172677300000000000000000000000000000000000000000000000000000000815250610d62565b610b6481610ddb565b60005b8360c0015151811015610baf57610b9c828560c001518381518110610b8f57610b8e611fd6565b5b6020026020010151610d62565b8080610ba790611ea0565b915050610b67565b50610bb981610e03565b5b60008360a00151511115610cd85760006001811115610bdc57610bdb611f78565b5b83602001516001811115610bf357610bf2611f78565b5b1415610c2b576040517fa80d31f700000000000000000000000000000000000000000000000000000000815260040160405180910390fd5b610c6a816040518060400160405280600f81526020017f736563726574734c6f636174696f6e0000000000000000000000000000000000815250610d62565b610c8a8184602001516001811115610c8557610c84611f78565b5b610d8b565b610cc9816040518060400160405280600781526020017f7365637265747300000000000000000000000000000000000000000000000000815250610d62565b610cd7818460a00151610e2b565b5b806000015160000151915050919050565b610cf16112d2565b6000602083610d009190611ee9565b14610d2c57602082610d129190611ee9565b6020610d1e9190611d60565b82610d299190611b3f565b91505b818360200181815250506040518084526000815282810160200181811015610d5357600080fd5b80604052505082905092915050565b610d6f8260038351610e54565b610d86818360000151610ffd90919063ffffffff16565b505050565b610dad60026005600660ff16901b17836000015161101990919063ffffffff16565b50610dd78282604051602001610dc391906119ff565b604051602081830303815290604052610e2b565b5050565b610de6816004611083565b600181602001818151610df99190611b3f565b9150818152505050565b610e0e816007611083565b600181602001818151610e219190611d60565b9150818152505050565b610e388260028351610e54565b610e4f818360000151610ffd90919063ffffffff16565b505050565b60178167ffffffffffffffff1611610e8f57610e898160058460ff16901b60ff1617846000015161101990919063ffffffff16565b50610ff8565b60ff8167ffffffffffffffff1611610eed57610ec2601860058460ff16901b17846000015161101990919063ffffffff16565b50610ee78167ffffffffffffffff16600185600001516110a99092919063ffffffff16565b50610ff7565b61ffff8167ffffffffffffffff1611610f4c57610f21601960058460ff16901b17846000015161101990919063ffffffff16565b50610f468167ffffffffffffffff16600285600001516110a99092919063ffffffff16565b50610ff6565b63ffffffff8167ffffffffffffffff1611610fad57610f82601a60058460ff16901b17846000015161101990919063ffffffff16565b50610fa78167ffffffffffffffff16600485600001516110a99092919063ffffffff16565b50610ff5565b610fce601b60058460ff16901b17846000015161101990919063ffffffff16565b50610ff38167ffffffffffffffff16600885600001516110a99092919063ffffffff16565b505b5b5b5b505050565b6110056112d2565b61101183838451611136565b905092915050565b6110216112d2565b60008360000151519050600060018261103a9190611b3f565b90508460200151821061105e5761105d856002836110589190611d06565b611219565b5b84516020838201018581538151831115611076578282525b5050849250505092915050565b6110a4601f60058360ff16901b17836000015161101990919063ffffffff16565b505050565b6110b16112d2565b60008460000151519050600081846110c99190611b3f565b905085602001518111156110ee576110ed866002836110e89190611d06565b611219565b5b60006001856101006111009190611be8565b61110a9190611d60565b905086518281018783198251161781528151841115611127578382525b50508693505050509392505050565b61113e6112d2565b825182111561114c57600080fd5b60008460000151519050600083826111649190611b3f565b9050856020015181111561118957611188866002836111839190611d06565b611219565b5b600080875180518560208301019350808511156111a4578482525b60208901925050505b602086106111eb57805182526020826111c69190611b3f565b91506020816111d59190611b3f565b90506020866111e49190611d60565b95506111ad565b60006001876020036101000a0390508019825116818451168181178552505050879450505050509392505050565b60008260000151905061122c8383610ce9565b506112378382610ffd565b50505050565b6040518060e001604052806000600181111561125c5761125b611f78565b5b81526020016000600181111561127557611274611f78565b5b815260200160008081111561128d5761128c611f78565b5b8152602001600080191681526020016060815260200160608152602001606081525090565b60405180604001604052806112c56112d2565b8152602001600081525090565b604051806040016040528060608152602001600081525090565b60006112ff6112fa84611a84565b611a5f565b905080838252602082019050828560208602820111156113225761132161203e565b5b60005b8581101561137057813567ffffffffffffffff81111561134857611347612039565b5b8086016113558982611597565b85526020850194506020840193505050600181019050611325565b5050509392505050565b600061138d61138884611ab0565b611a5f565b9050828152602081018484840111156113a9576113a8612043565b5b6113b4848285611dfb565b509392505050565b60006113cf6113ca84611ae1565b611a5f565b9050828152602081018484840111156113eb576113ea612043565b5b6113f6848285611dfb565b509392505050565b60008135905061140d816120c2565b92915050565b600081519050611422816120c2565b92915050565b60008083601f84011261143e5761143d612039565b5b8235905067ffffffffffffffff81111561145b5761145a612034565b5b6020830191508360208202830111156114775761147661203e565b5b9250929050565b60008151905061148d816120d9565b92915050565b6000813590506114a2816120f0565b92915050565b6000815190506114b7816120f0565b92915050565b60008083601f8401126114d3576114d2612039565b5b8235905067ffffffffffffffff8111156114f0576114ef612034565b5b60208301915083600182028301111561150c5761150b61203e565b5b9250929050565b600082601f83011261152857611527612039565b5b813561153884826020860161137a565b91505092915050565b60008083601f84011261155757611556612039565b5b8235905067ffffffffffffffff81111561157457611573612034565b5b6020830191508360018202830111156115905761158f61203e565b5b9250929050565b600082601f8301126115ac576115ab612039565b5b81356115bc8482602086016113bc565b91505092915050565b6000813590506115d481612107565b92915050565b6000815190506115e981612107565b92915050565b6000602082840312156116055761160461204d565b5b6000611613848285016113fe565b91505092915050565b6000602082840312156116325761163161204d565b5b600061164084828501611413565b91505092915050565b60006020828403121561165f5761165e61204d565b5b600061166d8482850161147e565b91505092915050565b60006020828403121561168c5761168b61204d565b5b600061169a848285016114a8565b91505092915050565b60008060008060008060006080888a0312156116c2576116c161204d565b5b60006116d08a828b01611493565b975050602088013567ffffffffffffffff8111156116f1576116f0612048565b5b6116fd8a828b01611541565b9650965050604088013567ffffffffffffffff8111156117205761171f612048565b5b61172c8a828b016114bd565b9450945050606088013567ffffffffffffffff81111561174f5761174e612048565b5b61175b8a828b01611428565b925092505092959891949750929550565b600080600080608085870312156117865761178561204d565b5b600061179487828801611493565b94505060206117a5878288016115c5565b935050604085013567ffffffffffffffff8111156117c6576117c5612048565b5b6117d287828801611513565b925050606085013567ffffffffffffffff8111156117f3576117f2612048565b5b6117ff87828801611513565b91505092959194509250565b6000602082840312156118215761182061204d565b5b600061182f848285016115da565b91505092915050565b61184181611d94565b82525050565b61185081611db2565b82525050565b600061186182611b12565b61186b8185611b1d565b935061187b818560208601611e0a565b61188481612052565b840191505092915050565b600061189c601183611b2e565b91506118a782612070565b602082019050919050565b60006118bf601183611b2e565b91506118ca82612099565b602082019050919050565b6118de81611ddc565b82525050565b60006020820190506118f96000830184611838565b92915050565b60006020820190506119146000830184611847565b92915050565b600060408201905061192f6000830185611847565b81810360208301526119418184611856565b90509392505050565b600060808201905061195f6000830187611847565b61196c60208301866118d5565b818103604083015261197e8185611856565b905081810360608301526119928184611856565b905095945050505050565b600060208201905081810360008301526119b78184611856565b905092915050565b600060208201905081810360008301526119d88161188f565b9050919050565b600060208201905081810360008301526119f8816118b2565b9050919050565b6000602082019050611a1460008301846118d5565b92915050565b6000606082019050611a2f60008301866118d5565b8181036020830152611a418185611856565b90508181036040830152611a558184611856565b9050949350505050565b6000611a69611a7a565b9050611a758282611e6f565b919050565b6000604051905090565b600067ffffffffffffffff821115611a9f57611a9e612005565b5b602082029050602081019050919050565b600067ffffffffffffffff821115611acb57611aca612005565b5b611ad482612052565b9050602081019050919050565b600067ffffffffffffffff821115611afc57611afb612005565b5b611b0582612052565b9050602081019050919050565b600081519050919050565b600082825260208201905092915050565b600082825260208201905092915050565b6000611b4a82611ddc565b9150611b5583611ddc565b9250827fffffffffffffffffffffffffffffffffffffffffffffffffffffffffffffffff03821115611b8a57611b89611f1a565b5b828201905092915050565b6000808291508390505b6001851115611bdf57808604811115611bbb57611bba611f1a565b5b6001851615611bca5780820291505b8081029050611bd885612063565b9450611b9f565b94509492505050565b6000611bf382611ddc565b9150611bfe83611ddc565b9250611c2b7fffffffffffffffffffffffffffffffffffffffffffffffffffffffffffffffff8484611c33565b905092915050565b600082611c435760019050611cff565b81611c515760009050611cff565b8160018114611c675760028114611c7157611ca0565b6001915050611cff565b60ff841115611c8357611c82611f1a565b5b8360020a915084821115611c9a57611c99611f1a565b5b50611cff565b5060208310610133831016604e8410600b8410161715611cd55782820a905083811115611cd057611ccf611f1a565b5b611cff565b611ce28484846001611b95565b92509050818404811115611cf957611cf8611f1a565b5b81810290505b9392505050565b6000611d1182611ddc565b9150611d1c83611ddc565b9250817fffffffffffffffffffffffffffffffffffffffffffffffffffffffffffffffff0483118215151615611d5557611d54611f1a565b5b828202905092915050565b6000611d6b82611ddc565b9150611d7683611ddc565b925082821015611d8957611d88611f1a565b5b828203905092915050565b6000611d9f82611dbc565b9050919050565b60008115159050919050565b6000819050919050565b600073ffffffffffffffffffffffffffffffffffffffff82169050919050565b6000819050919050565b6000611df33684846112ec565b905092915050565b82818337600083830152505050565b60005b83811015611e28578082015181840152602081019050611e0d565b83811115611e37576000848401525b50505050565b60006002820490506001821680611e5557607f821691505b60208210811415611e6957611e68611fa7565b5b50919050565b611e7882612052565b810181811067ffffffffffffffff82111715611e9757611e96612005565b5b80604052505050565b6000611eab82611ddc565b91507fffffffffffffffffffffffffffffffffffffffffffffffffffffffffffffffff821415611ede57611edd611f1a565b5b600182019050919050565b6000611ef482611ddc565b9150611eff83611ddc565b925082611f0f57611f0e611f49565b5b828206905092915050565b7f4e487b7100000000000000000000000000000000000000000000000000000000600052601160045260246000fd5b7f4e487b7100000000000000000000000000000000000000000000000000000000600052601260045260246000fd5b7f4e487b7100000000000000000000000000000000000000000000000000000000600052602160045260246000fd5b7f4e487b7100000000000000000000000000000000000000000000000000000000600052602260045260246000fd5b7f4e487b7100000000000000000000000000000000000000000000000000000000600052603260045260246000fd5b7f4e487b7100000000000000000000000000000000000000000000000000000000600052604160045260246000fd5b600080fd5b600080fd5b600080fd5b600080fd5b600080fd5b600080fd5b6000601f19601f8301169050919050565b60008160011c9050919050565b7f6d656d62657220636f756e742069732030000000000000000000000000000000600082015250565b7f6e6f7420666f756e64206d616e61676572000000000000000000000000000000600082015250565b6120cb81611d94565b81146120d657600080fd5b50565b6120e281611da6565b81146120ed57600080fd5b50565b6120f981611db2565b811461210457600080fd5b50565b61211081611ddc565b811461211b57600080fd5b5056fea264697066735822122001f778a381e4847ca7363b518e9aa77388795b38a26bfb873b927d86209326c264736f6c63430008060033",
			"opcodes": "PUSH1 0x80 PUSH1 0x40 MSTORE CALLVALUE DUP1 ISZERO PUSH3 0x11 JUMPI PUSH1 0x0 DUP1 REVERT JUMPDEST POP PUSH1 0x40 MLOAD PUSH3 0x2332 CODESIZE SUB DUP1 PUSH3 0x2332 DUP4 CODECOPY DUP2 DUP2 ADD PUSH1 0x40 MSTORE DUP2 ADD SWAP1 PUSH3 0x37 SWAP2 SWAP1 PUSH3 0x106 JUMP JUMPDEST DUP2 DUP2 PUSH3 0x4A DUP3 PUSH3 0x95 PUSH1 0x20 SHL PUSH1 0x20 SHR JUMP JUMPDEST DUP1 PUSH1 0x2 PUSH1 0x0 PUSH2 0x100 EXP DUP2 SLOAD DUP2 PUSH20 0xFFFFFFFFFFFFFFFFFFFFFFFFFFFFFFFFFFFFFFFF MUL NOT AND SWAP1 DUP4 PUSH20 0xFFFFFFFFFFFFFFFFFFFFFFFFFFFFFFFFFFFFFFFF AND MUL OR SWAP1 SSTORE POP POP POP POP POP PUSH3 0x1CE JUMP JUMPDEST DUP1 PUSH1 0x0 DUP1 PUSH2 0x100 EXP DUP2 SLOAD DUP2 PUSH20 0xFFFFFFFFFFFFFFFFFFFFFFFFFFFFFFFFFFFFFFFF MUL NOT AND SWAP1 DUP4 PUSH20 0xFFFFFFFFFFFFFFFFFFFFFFFFFFFFFFFFFFFFFFFF AND MUL OR SWAP1 SSTORE POP POP JUMP JUMPDEST PUSH1 0x0 DUP2 MLOAD SWAP1 POP PUSH3 0xE9 DUP2 PUSH3 0x19A JUMP JUMPDEST SWAP3 SWAP2 POP POP JUMP JUMPDEST PUSH1 0x0 DUP2 MLOAD SWAP1 POP PUSH3 0x100 DUP2 PUSH3 0x1B4 JUMP JUMPDEST SWAP3 SWAP2 POP POP JUMP JUMPDEST PUSH1 0x0 DUP1 PUSH1 0x40 DUP4 DUP6 SUB SLT ISZERO PUSH3 0x120 JUMPI PUSH3 0x11F PUSH3 0x195 JUMP JUMPDEST JUMPDEST PUSH1 0x0 PUSH3 0x130 DUP6 DUP3 DUP7 ADD PUSH3 0xD8 JUMP JUMPDEST SWAP3 POP POP PUSH1 0x20 PUSH3 0x143 DUP6 DUP3 DUP7 ADD PUSH3 0xEF JUMP JUMPDEST SWAP2 POP POP SWAP3 POP SWAP3 SWAP1 POP JUMP JUMPDEST PUSH1 0x0 PUSH3 0x15A DUP3 PUSH3 0x175 JUMP JUMPDEST SWAP1 POP SWAP2 SWAP1 POP JUMP JUMPDEST PUSH1 0x0 PUSH3 0x16E DUP3 PUSH3 0x14D JUMP JUMPDEST SWAP1 POP SWAP2 SWAP1 POP JUMP JUMPDEST PUSH1 0x0 PUSH20 0xFFFFFFFFFFFFFFFFFFFFFFFFFFFFFFFFFFFFFFFF DUP3 AND SWAP1 POP SWAP2 SWAP1 POP JUMP JUMPDEST PUSH1 0x0 DUP1 REVERT JUMPDEST PUSH3 0x1A5 DUP2 PUSH3 0x14D JUMP JUMPDEST DUP2 EQ PUSH3 0x1B1 JUMPI PUSH1 0x0 DUP1 REVERT JUMPDEST POP JUMP JUMPDEST PUSH3 0x1BF DUP2 PUSH3 0x161 JUMP JUMPDEST DUP2 EQ PUSH3 0x1CB JUMPI PUSH1 0x0 DUP1 REVERT JUMPDEST POP JUMP JUMPDEST PUSH2 0x2154 DUP1 PUSH3 0x1DE PUSH1 0x0 CODECOPY PUSH1 0x0 RETURN INVALID PUSH1 0x80 PUSH1 0x40 MSTORE CALLVALUE DUP1 ISZERO PUSH2 0x10 JUMPI PUSH1 0x0 DUP1 REVERT JUMPDEST POP PUSH1 0x4 CALLDATASIZE LT PUSH2 0x62 JUMPI PUSH1 0x0 CALLDATALOAD PUSH1 0xE0 SHR DUP1 PUSH4 0x1AA46F59 EQ PUSH2 0x67 JUMPI DUP1 PUSH4 0x2912557A EQ PUSH2 0x85 JUMPI DUP1 PUSH4 0x7ADBF973 EQ PUSH2 0xB5 JUMPI DUP1 PUSH4 0xBEF3A2F0 EQ PUSH2 0xD1 JUMPI DUP1 PUSH4 0xFBA45FBE EQ PUSH2 0xEF JUMPI DUP1 PUSH4 0xFFFEB84E EQ PUSH2 0x10B JUMPI JUMPDEST PUSH1 0x0 DUP1 REVERT JUMPDEST PUSH2 0x6F PUSH2 0x129 JUMP JUMPDEST PUSH1 0x40 MLOAD PUSH2 0x7C SWAP2 SWAP1 PUSH2 0x18FF JUMP JUMPDEST PUSH1 0x40 MLOAD DUP1 SWAP2 SUB SWAP1 RETURN JUMPDEST PUSH2 0x9F PUSH1 0x4 DUP1 CALLDATASIZE SUB DUP2 ADD SWAP1 PUSH2 0x9A SWAP2 SWAP1 PUSH2 0x16A3 JUMP JUMPDEST PUSH2 0x12F JUMP JUMPDEST PUSH1 0x40 MLOAD PUSH2 0xAC SWAP2 SWAP1 PUSH2 0x18FF JUMP JUMPDEST PUSH1 0x40 MLOAD DUP1 SWAP2 SUB SWAP1 RETURN JUMPDEST PUSH2 0xCF PUSH1 0x4 DUP1 CALLDATASIZE SUB DUP2 ADD SWAP1 PUSH2 0xCA SWAP2 SWAP1 PUSH2 0x15EF JUMP JUMPDEST PUSH2 0x24B JUMP JUMPDEST STOP JUMPDEST PUSH2 0xD9 PUSH2 0x28E JUMP JUMPDEST PUSH1 0x40 MLOAD PUSH2 0xE6 SWAP2 SWAP1 PUSH2 0x199D JUMP JUMPDEST PUSH1 0x40 MLOAD DUP1 SWAP2 SUB SWAP1 RETURN JUMPDEST PUSH2 0x109 PUSH1 0x4 DUP1 CALLDATASIZE SUB DUP2 ADD SWAP1 PUSH2 0x104 SWAP2 SWAP1 PUSH2 0x176C JUMP JUMPDEST PUSH2 0x31C JUMP JUMPDEST STOP JUMPDEST PUSH2 0x113 PUSH2 0x429 JUMP JUMPDEST PUSH1 0x40 MLOAD PUSH2 0x120 SWAP2 SWAP1 PUSH2 0x199D JUMP JUMPDEST PUSH1 0x40 MLOAD DUP1 SWAP2 SUB SWAP1 RETURN JUMPDEST PUSH1 0x3 SLOAD DUP2 JUMP JUMPDEST PUSH1 0x0 PUSH2 0x139 PUSH2 0x123D JUMP JUMPDEST PUSH2 0x197 PUSH1 0x0 DUP1 DUP11 DUP11 DUP1 DUP1 PUSH1 0x1F ADD PUSH1 0x20 DUP1 SWAP2 DIV MUL PUSH1 0x20 ADD PUSH1 0x40 MLOAD SWAP1 DUP2 ADD PUSH1 0x40 MSTORE DUP1 SWAP4 SWAP3 SWAP2 SWAP1 DUP2 DUP2 MSTORE PUSH1 0x20 ADD DUP4 DUP4 DUP1 DUP3 DUP5 CALLDATACOPY PUSH1 0x0 DUP2 DUP5 ADD MSTORE PUSH1 0x1F NOT PUSH1 0x1F DUP3 ADD AND SWAP1 POP DUP1 DUP4 ADD SWAP3 POP POP POP POP POP POP POP DUP13 DUP6 PUSH2 0x4B7 SWAP1 SWAP5 SWAP4 SWAP3 SWAP2 SWAP1 PUSH4 0xFFFFFFFF AND JUMP JUMPDEST PUSH1 0x0 DUP7 DUP7 SWAP1 POP GT ISZERO PUSH2 0x1FB JUMPI PUSH2 0x1FA DUP7 DUP7 DUP1 DUP1 PUSH1 0x1F ADD PUSH1 0x20 DUP1 SWAP2 DIV MUL PUSH1 0x20 ADD PUSH1 0x40 MLOAD SWAP1 DUP2 ADD PUSH1 0x40 MSTORE DUP1 SWAP4 SWAP3 SWAP2 SWAP1 DUP2 DUP2 MSTORE PUSH1 0x20 ADD DUP4 DUP4 DUP1 DUP3 DUP5 CALLDATACOPY PUSH1 0x0 DUP2 DUP5 ADD MSTORE PUSH1 0x1F NOT PUSH1 0x1F DUP3 ADD AND SWAP1 POP DUP1 DUP4 ADD SWAP3 POP POP POP POP POP POP POP DUP3 PUSH2 0x56D SWAP1 SWAP2 SWAP1 PUSH4 0xFFFFFFFF AND JUMP JUMPDEST JUMPDEST PUSH1 0x0 DUP5 DUP5 SWAP1 POP GT ISZERO PUSH2 0x227 JUMPI PUSH2 0x226 DUP5 DUP5 SWAP1 PUSH2 0x217 SWAP2 SWAP1 PUSH2 0x1DE6 JUMP JUMPDEST DUP3 PUSH2 0x5E7 SWAP1 SWAP2 SWAP1 PUSH4 0xFFFFFFFF AND JUMP JUMPDEST JUMPDEST PUSH1 0x0 PUSH2 0x232 DUP3 PUSH2 0x630 JUMP JUMPDEST SWAP1 POP DUP1 PUSH1 0x3 DUP2 SWAP1 SSTORE POP DUP1 SWAP3 POP POP POP SWAP8 SWAP7 POP POP POP POP POP POP POP JUMP JUMPDEST DUP1 PUSH1 0x0 DUP1 PUSH2 0x100 EXP DUP2 SLOAD DUP2 PUSH20 0xFFFFFFFFFFFFFFFFFFFFFFFFFFFFFFFFFFFFFFFF MUL NOT AND SWAP1 DUP4 PUSH20 0xFFFFFFFFFFFFFFFFFFFFFFFFFFFFFFFFFFFFFFFF AND MUL OR SWAP1 SSTORE POP POP JUMP JUMPDEST PUSH1 0x4 DUP1 SLOAD PUSH2 0x29B SWAP1 PUSH2 0x1E3D JUMP JUMPDEST DUP1 PUSH1 0x1F ADD PUSH1 0x20 DUP1 SWAP2 DIV MUL PUSH1 0x20 ADD PUSH1 0x40 MLOAD SWAP1 DUP2 ADD PUSH1 0x40 MSTORE DUP1 SWAP3 SWAP2 SWAP1 DUP2 DUP2 MSTORE PUSH1 0x20 ADD DUP3 DUP1 SLOAD PUSH2 0x2C7 SWAP1 PUSH2 0x1E3D JUMP JUMPDEST DUP1 ISZERO PUSH2 0x314 JUMPI DUP1 PUSH1 0x1F LT PUSH2 0x2E9 JUMPI PUSH2 0x100 DUP1 DUP4 SLOAD DIV MUL DUP4 MSTORE SWAP2 PUSH1 0x20 ADD SWAP2 PUSH2 0x314 JUMP JUMPDEST DUP3 ADD SWAP2 SWAP1 PUSH1 0x0 MSTORE PUSH1 0x20 PUSH1 0x0 KECCAK256 SWAP1 JUMPDEST DUP2 SLOAD DUP2 MSTORE SWAP1 PUSH1 0x1 ADD SWAP1 PUSH1 0x20 ADD DUP1 DUP4 GT PUSH2 0x2F7 JUMPI DUP3 SWAP1 SUB PUSH1 0x1F AND DUP3 ADD SWAP2 JUMPDEST POP POP POP POP POP DUP2 JUMP JUMPDEST DUP4 PUSH1 0x0 DUP1 SLOAD SWAP1 PUSH2 0x100 EXP SWAP1 DIV PUSH20 0xFFFFFFFFFFFFFFFFFFFFFFFFFFFFFFFFFFFFFFFF AND PUSH20 0xFFFFFFFFFFFFFFFFFFFFFFFFFFFFFFFFFFFFFFFF AND PUSH4 0x85FA202C DUP7 DUP7 DUP7 DUP7 PUSH1 0x40 MLOAD DUP6 PUSH4 0xFFFFFFFF AND PUSH1 0xE0 SHL DUP2 MSTORE PUSH1 0x4 ADD PUSH2 0x37C SWAP5 SWAP4 SWAP3 SWAP2 SWAP1 PUSH2 0x194A JUMP JUMPDEST PUSH1 0x20 PUSH1 0x40 MLOAD DUP1 DUP4 SUB DUP2 PUSH1 0x0 DUP8 DUP1 EXTCODESIZE ISZERO DUP1 ISZERO PUSH2 0x396 JUMPI PUSH1 0x0 DUP1 REVERT JUMPDEST POP GAS CALL ISZERO DUP1 ISZERO PUSH2 0x3AA JUMPI RETURNDATASIZE PUSH1 0x0 DUP1 RETURNDATACOPY RETURNDATASIZE PUSH1 0x0 REVERT JUMPDEST POP POP POP POP PUSH1 0x40 MLOAD RETURNDATASIZE PUSH1 0x1F NOT PUSH1 0x1F DUP3 ADD AND DUP3 ADD DUP1 PUSH1 0x40 MSTORE POP DUP2 ADD SWAP1 PUSH2 0x3CE SWAP2 SWAP1 PUSH2 0x1649 JUMP JUMPDEST POP CALLER PUSH20 0xFFFFFFFFFFFFFFFFFFFFFFFFFFFFFFFFFFFFFFFF AND DUP6 PUSH32 0xD0CEEBB26E373797D34F277E1DDB02D72D53E53EB23EBEEF0FCBB06191C76EA1 DUP7 DUP7 DUP7 PUSH1 0x40 MLOAD PUSH2 0x41A SWAP4 SWAP3 SWAP2 SWAP1 PUSH2 0x1A1A JUMP JUMPDEST PUSH1 0x40 MLOAD DUP1 SWAP2 SUB SWAP1 LOG3 POP POP POP POP POP JUMP JUMPDEST PUSH1 0x5 DUP1 SLOAD PUSH2 0x436 SWAP1 PUSH2 0x1E3D JUMP JUMPDEST DUP1 PUSH1 0x1F ADD PUSH1 0x20 DUP1 SWAP2 DIV MUL PUSH1 0x20 ADD PUSH1 0x40 MLOAD SWAP1 DUP2 ADD PUSH1 0x40 MSTORE DUP1 SWAP3 SWAP2 SWAP1 DUP2 DUP2 MSTORE PUSH1 0x20 ADD DUP3 DUP1 SLOAD PUSH2 0x462 SWAP1 PUSH2 0x1E3D JUMP JUMPDEST DUP1 ISZERO PUSH2 0x4AF JUMPI DUP1 PUSH1 0x1F LT PUSH2 0x484 JUMPI PUSH2 0x100 DUP1 DUP4 SLOAD DIV MUL DUP4 MSTORE SWAP2 PUSH1 0x20 ADD SWAP2 PUSH2 0x4AF JUMP JUMPDEST DUP3 ADD SWAP2 SWAP1 PUSH1 0x0 MSTORE PUSH1 0x20 PUSH1 0x0 KECCAK256 SWAP1 JUMPDEST DUP2 SLOAD DUP2 MSTORE SWAP1 PUSH1 0x1 ADD SWAP1 PUSH1 0x20 ADD DUP1 DUP4 GT PUSH2 0x492 JUMPI DUP3 SWAP1 SUB PUSH1 0x1F AND DUP3 ADD SWAP2 JUMPDEST POP POP POP POP POP DUP2 JUMP JUMPDEST PUSH1 0x0 DUP3 MLOAD EQ ISZERO PUSH2 0x4F3 JUMPI PUSH1 0x40 MLOAD PUSH32 0x22CE3EDD00000000000000000000000000000000000000000000000000000000 DUP2 MSTORE PUSH1 0x4 ADD PUSH1 0x40 MLOAD DUP1 SWAP2 SUB SWAP1 REVERT JUMPDEST DUP4 DUP6 PUSH1 0x0 ADD SWAP1 PUSH1 0x1 DUP2 GT ISZERO PUSH2 0x50B JUMPI PUSH2 0x50A PUSH2 0x1F78 JUMP JUMPDEST JUMPDEST SWAP1 DUP2 PUSH1 0x1 DUP2 GT ISZERO PUSH2 0x51F JUMPI PUSH2 0x51E PUSH2 0x1F78 JUMP JUMPDEST JUMPDEST DUP2 MSTORE POP POP DUP3 DUP6 PUSH1 0x40 ADD SWAP1 PUSH1 0x0 DUP2 GT ISZERO PUSH2 0x53B JUMPI PUSH2 0x53A PUSH2 0x1F78 JUMP JUMPDEST JUMPDEST SWAP1 DUP2 PUSH1 0x0 DUP2 GT ISZERO PUSH2 0x54F JUMPI PUSH2 0x54E PUSH2 0x1F78 JUMP JUMPDEST JUMPDEST DUP2 MSTORE POP POP DUP2 DUP6 PUSH1 0x80 ADD DUP2 SWAP1 MSTORE POP DUP1 DUP6 PUSH1 0x60 ADD DUP2 DUP2 MSTORE POP POP POP POP POP POP POP JUMP JUMPDEST PUSH1 0x0 DUP2 MLOAD EQ ISZERO PUSH2 0x5A9 JUMPI PUSH1 0x40 MLOAD PUSH32 0xE889636F00000000000000000000000000000000000000000000000000000000 DUP2 MSTORE PUSH1 0x4 ADD PUSH1 0x40 MLOAD DUP1 SWAP2 SUB SWAP1 REVERT JUMPDEST PUSH1 0x1 DUP3 PUSH1 0x20 ADD SWAP1 PUSH1 0x1 DUP2 GT ISZERO PUSH2 0x5C2 JUMPI PUSH2 0x5C1 PUSH2 0x1F78 JUMP JUMPDEST JUMPDEST SWAP1 DUP2 PUSH1 0x1 DUP2 GT ISZERO PUSH2 0x5D6 JUMPI PUSH2 0x5D5 PUSH2 0x1F78 JUMP JUMPDEST JUMPDEST DUP2 MSTORE POP POP DUP1 DUP3 PUSH1 0xA0 ADD DUP2 SWAP1 MSTORE POP POP POP JUMP JUMPDEST PUSH1 0x0 DUP2 MLOAD EQ ISZERO PUSH2 0x623 JUMPI PUSH1 0x40 MLOAD PUSH32 0xFE936CB700000000000000000000000000000000000000000000000000000000 DUP2 MSTORE PUSH1 0x4 ADD PUSH1 0x40 MLOAD DUP1 SWAP2 SUB SWAP1 REVERT JUMPDEST DUP1 DUP3 PUSH1 0xC0 ADD DUP2 SWAP1 MSTORE POP POP POP JUMP JUMPDEST PUSH1 0x0 DUP1 PUSH1 0x2 PUSH1 0x0 SWAP1 SLOAD SWAP1 PUSH2 0x100 EXP SWAP1 DIV PUSH20 0xFFFFFFFFFFFFFFFFFFFFFFFFFFFFFFFFFFFFFFFF AND PUSH20 0xFFFFFFFFFFFFFFFFFFFFFFFFFFFFFFFFFFFFFFFF AND PUSH4 0x9885E3B4 DUP5 PUSH1 0x60 ADD MLOAD PUSH1 0x40 MLOAD DUP3 PUSH4 0xFFFFFFFF AND PUSH1 0xE0 SHL DUP2 MSTORE PUSH1 0x4 ADD PUSH2 0x692 SWAP2 SWAP1 PUSH2 0x18FF JUMP JUMPDEST PUSH1 0x20 PUSH1 0x40 MLOAD DUP1 DUP4 SUB DUP2 DUP7 DUP1 EXTCODESIZE ISZERO DUP1 ISZERO PUSH2 0x6AA JUMPI PUSH1 0x0 DUP1 REVERT JUMPDEST POP GAS STATICCALL ISZERO DUP1 ISZERO PUSH2 0x6BE JUMPI RETURNDATASIZE PUSH1 0x0 DUP1 RETURNDATACOPY RETURNDATASIZE PUSH1 0x0 REVERT JUMPDEST POP POP POP POP PUSH1 0x40 MLOAD RETURNDATASIZE PUSH1 0x1F NOT PUSH1 0x1F DUP3 ADD AND DUP3 ADD DUP1 PUSH1 0x40 MSTORE POP DUP2 ADD SWAP1 PUSH2 0x6E2 SWAP2 SWAP1 PUSH2 0x161C JUMP JUMPDEST SWAP1 POP PUSH1 0x0 PUSH20 0xFFFFFFFFFFFFFFFFFFFFFFFFFFFFFFFFFFFFFFFF AND DUP2 PUSH20 0xFFFFFFFFFFFFFFFFFFFFFFFFFFFFFFFFFFFFFFFF AND EQ ISZERO PUSH2 0x754 JUMPI PUSH1 0x40 MLOAD PUSH32 0x8C379A000000000000000000000000000000000000000000000000000000000 DUP2 MSTORE PUSH1 0x4 ADD PUSH2 0x74B SWAP1 PUSH2 0x19DF JUMP JUMPDEST PUSH1 0x40 MLOAD DUP1 SWAP2 SUB SWAP1 REVERT JUMPDEST PUSH1 0x0 DUP2 SWAP1 POP PUSH1 0x0 DUP2 PUSH20 0xFFFFFFFFFFFFFFFFFFFFFFFFFFFFFFFFFFFFFFFF AND PUSH4 0x594710DF PUSH1 0x40 MLOAD DUP2 PUSH4 0xFFFFFFFF AND PUSH1 0xE0 SHL DUP2 MSTORE PUSH1 0x4 ADD PUSH1 0x20 PUSH1 0x40 MLOAD DUP1 DUP4 SUB DUP2 DUP7 DUP1 EXTCODESIZE ISZERO DUP1 ISZERO PUSH2 0x7A1 JUMPI PUSH1 0x0 DUP1 REVERT JUMPDEST POP GAS STATICCALL ISZERO DUP1 ISZERO PUSH2 0x7B5 JUMPI RETURNDATASIZE PUSH1 0x0 DUP1 RETURNDATACOPY RETURNDATASIZE PUSH1 0x0 REVERT JUMPDEST POP POP POP POP PUSH1 0x40 MLOAD RETURNDATASIZE PUSH1 0x1F NOT PUSH1 0x1F DUP3 ADD AND DUP3 ADD DUP1 PUSH1 0x40 MSTORE POP DUP2 ADD SWAP1 PUSH2 0x7D9 SWAP2 SWAP1 PUSH2 0x180B JUMP JUMPDEST SWAP1 POP PUSH1 0x0 DUP2 EQ ISZERO PUSH2 0x81F JUMPI PUSH1 0x40 MLOAD PUSH32 0x8C379A000000000000000000000000000000000000000000000000000000000 DUP2 MSTORE PUSH1 0x4 ADD PUSH2 0x816 SWAP1 PUSH2 0x19BF JUMP JUMPDEST PUSH1 0x40 MLOAD DUP1 SWAP2 SUB SWAP1 REVERT JUMPDEST PUSH1 0x0 DUP1 PUSH1 0x0 SWAP1 SLOAD SWAP1 PUSH2 0x100 EXP SWAP1 DIV PUSH20 0xFFFFFFFFFFFFFFFFFFFFFFFFFFFFFFFFFFFFFFFF AND PUSH20 0xFFFFFFFFFFFFFFFFFFFFFFFFFFFFFFFFFFFFFFFF AND PUSH4 0x41DAE33 DUP8 PUSH1 0x60 ADD MLOAD PUSH2 0x86C DUP10 PUSH2 0x998 JUMP JUMPDEST PUSH1 0x40 MLOAD DUP4 PUSH4 0xFFFFFFFF AND PUSH1 0xE0 SHL DUP2 MSTORE PUSH1 0x4 ADD PUSH2 0x889 SWAP3 SWAP2 SWAP1 PUSH2 0x191A JUMP JUMPDEST PUSH1 0x20 PUSH1 0x40 MLOAD DUP1 DUP4 SUB DUP2 PUSH1 0x0 DUP8 DUP1 EXTCODESIZE ISZERO DUP1 ISZERO PUSH2 0x8A3 JUMPI PUSH1 0x0 DUP1 REVERT JUMPDEST POP GAS CALL ISZERO DUP1 ISZERO PUSH2 0x8B7 JUMPI RETURNDATASIZE PUSH1 0x0 DUP1 RETURNDATACOPY RETURNDATASIZE PUSH1 0x0 REVERT JUMPDEST POP POP POP POP PUSH1 0x40 MLOAD RETURNDATASIZE PUSH1 0x1F NOT PUSH1 0x1F DUP3 ADD AND DUP3 ADD DUP1 PUSH1 0x40 MSTORE POP DUP2 ADD SWAP1 PUSH2 0x8DB SWAP2 SWAP1 PUSH2 0x1676 JUMP JUMPDEST SWAP1 POP PUSH1 0x0 DUP1 SLOAD SWAP1 PUSH2 0x100 EXP SWAP1 DIV PUSH20 0xFFFFFFFFFFFFFFFFFFFFFFFFFFFFFFFFFFFFFFFF AND PUSH1 0x1 PUSH1 0x0 DUP4 DUP2 MSTORE PUSH1 0x20 ADD SWAP1 DUP2 MSTORE PUSH1 0x20 ADD PUSH1 0x0 KECCAK256 PUSH1 0x0 PUSH2 0x100 EXP DUP2 SLOAD DUP2 PUSH20 0xFFFFFFFFFFFFFFFFFFFFFFFFFFFFFFFFFFFFFFFF MUL NOT AND SWAP1 DUP4 PUSH20 0xFFFFFFFFFFFFFFFFFFFFFFFFFFFFFFFFFFFFFFFF AND MUL OR SWAP1 SSTORE POP DUP6 PUSH1 0x60 ADD MLOAD DUP2 PUSH32 0xF66C42A7B945272FE61591062073BC8EC78EEF6116C496D08B5CF0E54B7E885F DUP7 PUSH1 0x40 MLOAD PUSH2 0x984 SWAP2 SWAP1 PUSH2 0x18E4 JUMP JUMPDEST PUSH1 0x40 MLOAD DUP1 SWAP2 SUB SWAP1 LOG3 DUP1 SWAP5 POP POP POP POP POP SWAP2 SWAP1 POP JUMP JUMPDEST PUSH1 0x60 PUSH2 0x9A2 PUSH2 0x12B2 JUMP JUMPDEST PUSH2 0x9B2 DUP2 PUSH1 0x0 ADD MLOAD PUSH2 0x100 PUSH2 0xCE9 JUMP JUMPDEST POP PUSH2 0x9F2 DUP2 PUSH1 0x40 MLOAD DUP1 PUSH1 0x40 ADD PUSH1 0x40 MSTORE DUP1 PUSH1 0xC DUP2 MSTORE PUSH1 0x20 ADD PUSH32 0x636F64654C6F636174696F6E0000000000000000000000000000000000000000 DUP2 MSTORE POP PUSH2 0xD62 JUMP JUMPDEST PUSH2 0xA12 DUP2 DUP5 PUSH1 0x0 ADD MLOAD PUSH1 0x1 DUP2 GT ISZERO PUSH2 0xA0D JUMPI PUSH2 0xA0C PUSH2 0x1F78 JUMP JUMPDEST JUMPDEST PUSH2 0xD8B JUMP JUMPDEST PUSH2 0xA51 DUP2 PUSH1 0x40 MLOAD DUP1 PUSH1 0x40 ADD PUSH1 0x40 MSTORE DUP1 PUSH1 0x8 DUP2 MSTORE PUSH1 0x20 ADD PUSH32 0x6C616E6775616765000000000000000000000000000000000000000000000000 DUP2 MSTORE POP PUSH2 0xD62 JUMP JUMPDEST PUSH2 0xA71 DUP2 DUP5 PUSH1 0x40 ADD MLOAD PUSH1 0x0 DUP2 GT ISZERO PUSH2 0xA6C JUMPI PUSH2 0xA6B PUSH2 0x1F78 JUMP JUMPDEST JUMPDEST PUSH2 0xD8B JUMP JUMPDEST PUSH2 0xAB0 DUP2 PUSH1 0x40 MLOAD DUP1 PUSH1 0x40 ADD PUSH1 0x40 MSTORE DUP1 PUSH1 0xC DUP2 MSTORE PUSH1 0x20 ADD PUSH32 0x66756E6374696F6E4E616D650000000000000000000000000000000000000000 DUP2 MSTORE POP PUSH2 0xD62 JUMP JUMPDEST PUSH2 0xAC1 DUP2 DUP5 PUSH1 0x60 ADD MLOAD PUSH1 0x0 SHR PUSH2 0xD8B JUMP JUMPDEST PUSH2 0xB00 DUP2 PUSH1 0x40 MLOAD DUP1 PUSH1 0x40 ADD PUSH1 0x40 MSTORE DUP1 PUSH1 0x6 DUP2 MSTORE PUSH1 0x20 ADD PUSH32 0x736F757263650000000000000000000000000000000000000000000000000000 DUP2 MSTORE POP PUSH2 0xD62 JUMP JUMPDEST PUSH2 0xB0E DUP2 DUP5 PUSH1 0x80 ADD MLOAD PUSH2 0xD62 JUMP JUMPDEST PUSH1 0x0 DUP4 PUSH1 0xC0 ADD MLOAD MLOAD GT ISZERO PUSH2 0xBBA JUMPI PUSH2 0xB5B DUP2 PUSH1 0x40 MLOAD DUP1 PUSH1 0x40 ADD PUSH1 0x40 MSTORE DUP1 PUSH1 0x4 DUP2 MSTORE PUSH1 0x20 ADD PUSH32 0x6172677300000000000000000000000000000000000000000000000000000000 DUP2 MSTORE POP PUSH2 0xD62 JUMP JUMPDEST PUSH2 0xB64 DUP2 PUSH2 0xDDB JUMP JUMPDEST PUSH1 0x0 JUMPDEST DUP4 PUSH1 0xC0 ADD MLOAD MLOAD DUP2 LT ISZERO PUSH2 0xBAF JUMPI PUSH2 0xB9C DUP3 DUP6 PUSH1 0xC0 ADD MLOAD DUP4 DUP2 MLOAD DUP2 LT PUSH2 0xB8F JUMPI PUSH2 0xB8E PUSH2 0x1FD6 JUMP JUMPDEST JUMPDEST PUSH1 0x20 MUL PUSH1 0x20 ADD ADD MLOAD PUSH2 0xD62 JUMP JUMPDEST DUP1 DUP1 PUSH2 0xBA7 SWAP1 PUSH2 0x1EA0 JUMP JUMPDEST SWAP2 POP POP PUSH2 0xB67 JUMP JUMPDEST POP PUSH2 0xBB9 DUP2 PUSH2 0xE03 JUMP JUMPDEST JUMPDEST PUSH1 0x0 DUP4 PUSH1 0xA0 ADD MLOAD MLOAD GT ISZERO PUSH2 0xCD8 JUMPI PUSH1 0x0 PUSH1 0x1 DUP2 GT ISZERO PUSH2 0xBDC JUMPI PUSH2 0xBDB PUSH2 0x1F78 JUMP JUMPDEST JUMPDEST DUP4 PUSH1 0x20 ADD MLOAD PUSH1 0x1 DUP2 GT ISZERO PUSH2 0xBF3 JUMPI PUSH2 0xBF2 PUSH2 0x1F78 JUMP JUMPDEST JUMPDEST EQ ISZERO PUSH2 0xC2B JUMPI PUSH1 0x40 MLOAD PUSH32 0xA80D31F700000000000000000000000000000000000000000000000000000000 DUP2 MSTORE PUSH1 0x4 ADD PUSH1 0x40 MLOAD DUP1 SWAP2 SUB SWAP1 REVERT JUMPDEST PUSH2 0xC6A DUP2 PUSH1 0x40 MLOAD DUP1 PUSH1 0x40 ADD PUSH1 0x40 MSTORE DUP1 PUSH1 0xF DUP2 MSTORE PUSH1 0x20 ADD PUSH32 0x736563726574734C6F636174696F6E0000000000000000000000000000000000 DUP2 MSTORE POP PUSH2 0xD62 JUMP JUMPDEST PUSH2 0xC8A DUP2 DUP5 PUSH1 0x20 ADD MLOAD PUSH1 0x1 DUP2 GT ISZERO PUSH2 0xC85 JUMPI PUSH2 0xC84 PUSH2 0x1F78 JUMP JUMPDEST JUMPDEST PUSH2 0xD8B JUMP JUMPDEST PUSH2 0xCC9 DUP2 PUSH1 0x40 MLOAD DUP1 PUSH1 0x40 ADD PUSH1 0x40 MSTORE DUP1 PUSH1 0x7 DUP2 MSTORE PUSH1 0x20 ADD PUSH32 0x7365637265747300000000000000000000000000000000000000000000000000 DUP2 MSTORE POP PUSH2 0xD62 JUMP JUMPDEST PUSH2 0xCD7 DUP2 DUP5 PUSH1 0xA0 ADD MLOAD PUSH2 0xE2B JUMP JUMPDEST JUMPDEST DUP1 PUSH1 0x0 ADD MLOAD PUSH1 0x0 ADD MLOAD SWAP2 POP POP SWAP2 SWAP1 POP JUMP JUMPDEST PUSH2 0xCF1 PUSH2 0x12D2 JUMP JUMPDEST PUSH1 0x0 PUSH1 0x20 DUP4 PUSH2 0xD00 SWAP2 SWAP1 PUSH2 0x1EE9 JUMP JUMPDEST EQ PUSH2 0xD2C JUMPI PUSH1 0x20 DUP3 PUSH2 0xD12 SWAP2 SWAP1 PUSH2 0x1EE9 JUMP JUMPDEST PUSH1 0x20 PUSH2 0xD1E SWAP2 SWAP1 PUSH2 0x1D60 JUMP JUMPDEST DUP3 PUSH2 0xD29 SWAP2 SWAP1 PUSH2 0x1B3F JUMP JUMPDEST SWAP2 POP JUMPDEST DUP2 DUP4 PUSH1 0x20 ADD DUP2 DUP2 MSTORE POP POP PUSH1 0x40 MLOAD DUP1 DUP5 MSTORE PUSH1 0x0 DUP2 MSTORE DUP3 DUP2 ADD PUSH1 0x20 ADD DUP2 DUP2 LT ISZERO PUSH2 0xD53 JUMPI PUSH1 0x0 DUP1 REVERT JUMPDEST DUP1 PUSH1 0x40 MSTORE POP POP DUP3 SWAP1 POP SWAP3 SWAP2 POP POP JUMP JUMPDEST PUSH2 0xD6F DUP3 PUSH1 0x3 DUP4 MLOAD PUSH2 0xE54 JUMP JUMPDEST PUSH2 0xD86 DUP2 DUP4 PUSH1 0x0 ADD MLOAD PUSH2 0xFFD SWAP1 SWAP2 SWAP1 PUSH4 0xFFFFFFFF AND JUMP JUMPDEST POP POP POP JUMP JUMPDEST PUSH2 0xDAD PUSH1 0x2 PUSH1 0x5 PUSH1 0x6 PUSH1 0xFF AND SWAP1 SHL OR DUP4 PUSH1 0x0 ADD MLOAD PUSH2 0x1019 SWAP1 SWAP2 SWAP1 PUSH4 0xFFFFFFFF AND JUMP JUMPDEST POP PUSH2 0xDD7 DUP3 DUP3 PUSH1 0x40 MLOAD PUSH1 0x20 ADD PUSH2 0xDC3 SWAP2 SWAP1 PUSH2 0x19FF JUMP JUMPDEST PUSH1 0x40 MLOAD PUSH1 0x20 DUP2 DUP4 SUB SUB DUP2 MSTORE SWAP1 PUSH1 0x40 MSTORE PUSH2 0xE2B JUMP JUMPDEST POP POP JUMP JUMPDEST PUSH2 0xDE6 DUP2 PUSH1 0x4 PUSH2 0x1083 JUMP JUMPDEST PUSH1 0x1 DUP2 PUSH1 0x20 ADD DUP2 DUP2 MLOAD PUSH2 0xDF9 SWAP2 SWAP1 PUSH2 0x1B3F JUMP JUMPDEST SWAP2 POP DUP2 DUP2 MSTORE POP POP POP JUMP JUMPDEST PUSH2 0xE0E DUP2 PUSH1 0x7 PUSH2 0x1083 JUMP JUMPDEST PUSH1 0x1 DUP2 PUSH1 0x20 ADD DUP2 DUP2 MLOAD PUSH2 0xE21 SWAP2 SWAP1 PUSH2 0x1D60 JUMP JUMPDEST SWAP2 POP DUP2 DUP2 MSTORE POP POP POP JUMP JUMPDEST PUSH2 0xE38 DUP3 PUSH1 0x2 DUP4 MLOAD PUSH2 0xE54 JUMP JUMPDEST PUSH2 0xE4F DUP2 DUP4 PUSH1 0x0 ADD MLOAD PUSH2 0xFFD SWAP1 SWAP2 SWAP1 PUSH4 0xFFFFFFFF AND JUMP JUMPDEST POP POP POP JUMP JUMPDEST PUSH1 0x17 DUP2 PUSH8 0xFFFFFFFFFFFFFFFF AND GT PUSH2 0xE8F JUMPI PUSH2 0xE89 DUP2 PUSH1 0x5 DUP5 PUSH1 0xFF AND SWAP1 SHL PUSH1 0xFF AND OR DUP5 PUSH1 0x0 ADD MLOAD PUSH2 0x1019 SWAP1 SWAP2 SWAP1 PUSH4 0xFFFFFFFF AND JUMP JUMPDEST POP PUSH2 0xFF8 JUMP JUMPDEST PUSH1 0xFF DUP2 PUSH8 0xFFFFFFFFFFFFFFFF AND GT PUSH2 0xEED JUMPI PUSH2 0xEC2 PUSH1 0x18 PUSH1 0x5 DUP5 PUSH1 0xFF AND SWAP1 SHL OR DUP5 PUSH1 0x0 ADD MLOAD PUSH2 0x1019 SWAP1 SWAP2 SWAP1 PUSH4 0xFFFFFFFF AND JUMP JUMPDEST POP PUSH2 0xEE7 DUP2 PUSH8 0xFFFFFFFFFFFFFFFF AND PUSH1 0x1 DUP6 PUSH1 0x0 ADD MLOAD PUSH2 0x10A9 SWAP1 SWAP3 SWAP2 SWAP1 PUSH4 0xFFFFFFFF AND JUMP JUMPDEST POP PUSH2 0xFF7 JUMP JUMPDEST PUSH2 0xFFFF DUP2 PUSH8 0xFFFFFFFFFFFFFFFF AND GT PUSH2 0xF4C JUMPI PUSH2 0xF21 PUSH1 0x19 PUSH1 0x5 DUP5 PUSH1 0xFF AND SWAP1 SHL OR DUP5 PUSH1 0x0 ADD MLOAD PUSH2 0x1019 SWAP1 SWAP2 SWAP1 PUSH4 0xFFFFFFFF AND JUMP JUMPDEST POP PUSH2 0xF46 DUP2 PUSH8 0xFFFFFFFFFFFFFFFF AND PUSH1 0x2 DUP6 PUSH1 0x0 ADD MLOAD PUSH2 0x10A9 SWAP1 SWAP3 SWAP2 SWAP1 PUSH4 0xFFFFFFFF AND JUMP JUMPDEST POP PUSH2 0xFF6 JUMP JUMPDEST PUSH4 0xFFFFFFFF DUP2 PUSH8 0xFFFFFFFFFFFFFFFF AND GT PUSH2 0xFAD JUMPI PUSH2 0xF82 PUSH1 0x1A PUSH1 0x5 DUP5 PUSH1 0xFF AND SWAP1 SHL OR DUP5 PUSH1 0x0 ADD MLOAD PUSH2 0x1019 SWAP1 SWAP2 SWAP1 PUSH4 0xFFFFFFFF AND JUMP JUMPDEST POP PUSH2 0xFA7 DUP2 PUSH8 0xFFFFFFFFFFFFFFFF AND PUSH1 0x4 DUP6 PUSH1 0x0 ADD MLOAD PUSH2 0x10A9 SWAP1 SWAP3 SWAP2 SWAP1 PUSH4 0xFFFFFFFF AND JUMP JUMPDEST POP PUSH2 0xFF5 JUMP JUMPDEST PUSH2 0xFCE PUSH1 0x1B PUSH1 0x5 DUP5 PUSH1 0xFF AND SWAP1 SHL OR DUP5 PUSH1 0x0 ADD MLOAD PUSH2 0x1019 SWAP1 SWAP2 SWAP1 PUSH4 0xFFFFFFFF AND JUMP JUMPDEST POP PUSH2 0xFF3 DUP2 PUSH8 0xFFFFFFFFFFFFFFFF AND PUSH1 0x8 DUP6 PUSH1 0x0 ADD MLOAD PUSH2 0x10A9 SWAP1 SWAP3 SWAP2 SWAP1 PUSH4 0xFFFFFFFF AND JUMP JUMPDEST POP JUMPDEST JUMPDEST JUMPDEST JUMPDEST POP POP POP JUMP JUMPDEST PUSH2 0x1005 PUSH2 0x12D2 JUMP JUMPDEST PUSH2 0x1011 DUP4 DUP4 DUP5 MLOAD PUSH2 0x1136 JUMP JUMPDEST SWAP1 POP SWAP3 SWAP2 POP POP JUMP JUMPDEST PUSH2 0x1021 PUSH2 0x12D2 JUMP JUMPDEST PUSH1 0x0 DUP4 PUSH1 0x0 ADD MLOAD MLOAD SWAP1 POP PUSH1 0x0 PUSH1 0x1 DUP3 PUSH2 0x103A SWAP2 SWAP1 PUSH2 0x1B3F JUMP JUMPDEST SWAP1 POP DUP5 PUSH1 0x20 ADD MLOAD DUP3 LT PUSH2 0x105E JUMPI PUSH2 0x105D DUP6 PUSH1 0x2 DUP4 PUSH2 0x1058 SWAP2 SWAP1 PUSH2 0x1D06 JUMP JUMPDEST PUSH2 0x1219 JUMP JUMPDEST JUMPDEST DUP5 MLOAD PUSH1 0x20 DUP4 DUP3 ADD ADD DUP6 DUP2 MSTORE8 DUP2 MLOAD DUP4 GT ISZERO PUSH2 0x1076 JUMPI DUP3 DUP3 MSTORE JUMPDEST POP POP DUP5 SWAP3 POP POP POP SWAP3 SWAP2 POP POP JUMP JUMPDEST PUSH2 0x10A4 PUSH1 0x1F PUSH1 0x5 DUP4 PUSH1 0xFF AND SWAP1 SHL OR DUP4 PUSH1 0x0 ADD MLOAD PUSH2 0x1019 SWAP1 SWAP2 SWAP1 PUSH4 0xFFFFFFFF AND JUMP JUMPDEST POP POP POP JUMP JUMPDEST PUSH2 0x10B1 PUSH2 0x12D2 JUMP JUMPDEST PUSH1 0x0 DUP5 PUSH1 0x0 ADD MLOAD MLOAD SWAP1 POP PUSH1 0x0 DUP2 DUP5 PUSH2 0x10C9 SWAP2 SWAP1 PUSH2 0x1B3F JUMP JUMPDEST SWAP1 POP DUP6 PUSH1 0x20 ADD MLOAD DUP2 GT ISZERO PUSH2 0x10EE JUMPI PUSH2 0x10ED DUP7 PUSH1 0x2 DUP4 PUSH2 0x10E8 SWAP2 SWAP1 PUSH2 0x1D06 JUMP JUMPDEST PUSH2 0x1219 JUMP JUMPDEST JUMPDEST PUSH1 0x0 PUSH1 0x1 DUP6 PUSH2 0x100 PUSH2 0x1100 SWAP2 SWAP1 PUSH2 0x1BE8 JUMP JUMPDEST PUSH2 0x110A SWAP2 SWAP1 PUSH2 0x1D60 JUMP JUMPDEST SWAP1 POP DUP7 MLOAD DUP3 DUP2 ADD DUP8 DUP4 NOT DUP3 MLOAD AND OR DUP2 MSTORE DUP2 MLOAD DUP5 GT ISZERO PUSH2 0x1127 JUMPI DUP4 DUP3 MSTORE JUMPDEST POP POP DUP7 SWAP4 POP POP POP POP SWAP4 SWAP3 POP POP POP JUMP JUMPDEST PUSH2 0x113E PUSH2 0x12D2 JUMP JUMPDEST DUP3 MLOAD DUP3 GT ISZERO PUSH2 0x114C JUMPI PUSH1 0x0 DUP1 REVERT JUMPDEST PUSH1 0x0 DUP5 PUSH1 0x0 ADD MLOAD MLOAD SWAP1 POP PUSH1 0x0 DUP4 DUP3 PUSH2 0x1164 SWAP2 SWAP1 PUSH2 0x1B3F JUMP JUMPDEST SWAP1 POP DUP6 PUSH1 0x20 ADD MLOAD DUP2 GT ISZERO PUSH2 0x1189 JUMPI PUSH2 0x1188 DUP7 PUSH1 0x2 DUP4 PUSH2 0x1183 SWAP2 SWAP1 PUSH2 0x1D06 JUMP JUMPDEST PUSH2 0x1219 JUMP JUMPDEST JUMPDEST PUSH1 0x0 DUP1 DUP8 MLOAD DUP1 MLOAD DUP6 PUSH1 0x20 DUP4 ADD ADD SWAP4 POP DUP1 DUP6 GT ISZERO PUSH2 0x11A4 JUMPI DUP5 DUP3 MSTORE JUMPDEST PUSH1 0x20 DUP10 ADD SWAP3 POP POP POP JUMPDEST PUSH1 0x20 DUP7 LT PUSH2 0x11EB JUMPI DUP1 MLOAD DUP3 MSTORE PUSH1 0x20 DUP3 PUSH2 0x11C6 SWAP2 SWAP1 PUSH2 0x1B3F JUMP JUMPDEST SWAP2 POP PUSH1 0x20 DUP2 PUSH2 0x11D5 SWAP2 SWAP1 PUSH2 0x1B3F JUMP JUMPDEST SWAP1 POP PUSH1 0x20 DUP7 PUSH2 0x11E4 SWAP2 SWAP1 PUSH2 0x1D60 JUMP JUMPDEST SWAP6 POP PUSH2 0x11AD JUMP JUMPDEST PUSH1 0x0 PUSH1 0x1 DUP8 PUSH1 0x20 SUB PUSH2 0x100 EXP SUB SWAP1 POP DUP1 NOT DUP3 MLOAD AND DUP2 DUP5 MLOAD AND DUP2 DUP2 OR DUP6 MSTORE POP POP POP DUP8 SWAP5 POP POP POP POP POP SWAP4 SWAP3 POP POP POP JUMP JUMPDEST PUSH1 0x0 DUP3 PUSH1 0x0 ADD MLOAD SWAP1 POP PUSH2 0x122C DUP4 DUP4 PUSH2 0xCE9 JUMP JUMPDEST POP PUSH2 0x1237 DUP4 DUP3 PUSH2 0xFFD JUMP JUMPDEST POP POP POP POP JUMP JUMPDEST PUSH1 0x40 MLOAD DUP1 PUSH1 0xE0 ADD PUSH1 0x40 MSTORE DUP1 PUSH1 0x0 PUSH1 0x1 DUP2 GT ISZERO PUSH2 0x125C JUMPI PUSH2 0x125B PUSH2 0x1F78 JUMP JUMPDEST JUMPDEST DUP2 MSTORE PUSH1 0x20 ADD PUSH1 0x0 PUSH1 0x1 DUP2 GT ISZERO PUSH2 0x1275 JUMPI PUSH2 0x1274 PUSH2 0x1F78 JUMP JUMPDEST JUMPDEST DUP2 MSTORE PUSH1 0x20 ADD PUSH1 0x0 DUP1 DUP2 GT ISZERO PUSH2 0x128D JUMPI PUSH2 0x128C PUSH2 0x1F78 JUMP JUMPDEST JUMPDEST DUP2 MSTORE PUSH1 0x20 ADD PUSH1 0x0 DUP1 NOT AND DUP2 MSTORE PUSH1 0x20 ADD PUSH1 0x60 DUP2 MSTORE PUSH1 0x20 ADD PUSH1 0x60 DUP2 MSTORE PUSH1 0x20 ADD PUSH1 0x60 DUP2 MSTORE POP SWAP1 JUMP JUMPDEST PUSH1 0x40 MLOAD DUP1 PUSH1 0x40 ADD PUSH1 0x40 MSTORE DUP1 PUSH2 0x12C5 PUSH2 0x12D2 JUMP JUMPDEST DUP2 MSTORE PUSH1 0x20 ADD PUSH1 0x0 DUP2 MSTORE POP SWAP1 JUMP JUMPDEST PUSH1 0x40 MLOAD DUP1 PUSH1 0x40 ADD PUSH1 0x40 MSTORE DUP1 PUSH1 0x60 DUP2 MSTORE PUSH1 0x20 ADD PUSH1 0x0 DUP2 MSTORE POP SWAP1 JUMP JUMPDEST PUSH1 0x0 PUSH2 0x12FF PUSH2 0x12FA DUP5 PUSH2 0x1A84 JUMP JUMPDEST PUSH2 0x1A5F JUMP JUMPDEST SWAP1 POP DUP1 DUP4 DUP3 MSTORE PUSH1 0x20 DUP3 ADD SWAP1 POP DUP3 DUP6 PUSH1 0x20 DUP7 MUL DUP3 ADD GT ISZERO PUSH2 0x1322 JUMPI PUSH2 0x1321 PUSH2 0x203E JUMP JUMPDEST JUMPDEST PUSH1 0x0 JUMPDEST DUP6 DUP2 LT ISZERO PUSH2 0x1370 JUMPI DUP2 CALLDATALOAD PUSH8 0xFFFFFFFFFFFFFFFF DUP2 GT ISZERO PUSH2 0x1348 JUMPI PUSH2 0x1347 PUSH2 0x2039 JUMP JUMPDEST JUMPDEST DUP1 DUP7 ADD PUSH2 0x1355 DUP10 DUP3 PUSH2 0x1597 JUMP JUMPDEST DUP6 MSTORE PUSH1 0x20 DUP6 ADD SWAP5 POP PUSH1 0x20 DUP5 ADD SWAP4 POP POP POP PUSH1 0x1 DUP2 ADD SWAP1 POP PUSH2 0x1325 JUMP JUMPDEST POP POP POP SWAP4 SWAP3 POP POP POP JUMP JUMPDEST PUSH1 0x0 PUSH2 0x138D PUSH2 0x1388 DUP5 PUSH2 0x1AB0 JUMP JUMPDEST PUSH2 0x1A5F JUMP JUMPDEST SWAP1 POP DUP3 DUP2 MSTORE PUSH1 0x20 DUP2 ADD DUP5 DUP5 DUP5 ADD GT ISZERO PUSH2 0x13A9 JUMPI PUSH2 0x13A8 PUSH2 0x2043 JUMP JUMPDEST JUMPDEST PUSH2 0x13B4 DUP5 DUP3 DUP6 PUSH2 0x1DFB JUMP JUMPDEST POP SWAP4 SWAP3 POP POP POP JUMP JUMPDEST PUSH1 0x0 PUSH2 0x13CF PUSH2 0x13CA DUP5 PUSH2 0x1AE1 JUMP JUMPDEST PUSH2 0x1A5F JUMP JUMPDEST SWAP1 POP DUP3 DUP2 MSTORE PUSH1 0x20 DUP2 ADD DUP5 DUP5 DUP5 ADD GT ISZERO PUSH2 0x13EB JUMPI PUSH2 0x13EA PUSH2 0x2043 JUMP JUMPDEST JUMPDEST PUSH2 0x13F6 DUP5 DUP3 DUP6 PUSH2 0x1DFB JUMP JUMPDEST POP SWAP4 SWAP3 POP POP POP JUMP JUMPDEST PUSH1 0x0 DUP2 CALLDATALOAD SWAP1 POP PUSH2 0x140D DUP2 PUSH2 0x20C2 JUMP JUMPDEST SWAP3 SWAP2 POP POP JUMP JUMPDEST PUSH1 0x0 DUP2 MLOAD SWAP1 POP PUSH2 0x1422 DUP2 PUSH2 0x20C2 JUMP JUMPDEST SWAP3 SWAP2 POP POP JUMP JUMPDEST PUSH1 0x0 DUP1 DUP4 PUSH1 0x1F DUP5 ADD SLT PUSH2 0x143E JUMPI PUSH2 0x143D PUSH2 0x2039 JUMP JUMPDEST JUMPDEST DUP3 CALLDATALOAD SWAP1 POP PUSH8 0xFFFFFFFFFFFFFFFF DUP2 GT ISZERO PUSH2 0x145B JUMPI PUSH2 0x145A PUSH2 0x2034 JUMP JUMPDEST JUMPDEST PUSH1 0x20 DUP4 ADD SWAP2 POP DUP4 PUSH1 0x20 DUP3 MUL DUP4 ADD GT ISZERO PUSH2 0x1477 JUMPI PUSH2 0x1476 PUSH2 0x203E JUMP JUMPDEST JUMPDEST SWAP3 POP SWAP3 SWAP1 POP JUMP JUMPDEST PUSH1 0x0 DUP2 MLOAD SWAP1 POP PUSH2 0x148D DUP2 PUSH2 0x20D9 JUMP JUMPDEST SWAP3 SWAP2 POP POP JUMP JUMPDEST PUSH1 0x0 DUP2 CALLDATALOAD SWAP1 POP PUSH2 0x14A2 DUP2 PUSH2 0x20F0 JUMP JUMPDEST SWAP3 SWAP2 POP POP JUMP JUMPDEST PUSH1 0x0 DUP2 MLOAD SWAP1 POP PUSH2 0x14B7 DUP2 PUSH2 0x20F0 JUMP JUMPDEST SWAP3 SWAP2 POP POP JUMP JUMPDEST PUSH1 0x0 DUP1 DUP4 PUSH1 0x1F DUP5 ADD SLT PUSH2 0x14D3 JUMPI PUSH2 0x14D2 PUSH2 0x2039 JUMP JUMPDEST JUMPDEST DUP3 CALLDATALOAD SWAP1 POP PUSH8 0xFFFFFFFFFFFFFFFF DUP2 GT ISZERO PUSH2 0x14F0 JUMPI PUSH2 0x14EF PUSH2 0x2034 JUMP JUMPDEST JUMPDEST PUSH1 0x20 DUP4 ADD SWAP2 POP DUP4 PUSH1 0x1 DUP3 MUL DUP4 ADD GT ISZERO PUSH2 0x150C JUMPI PUSH2 0x150B PUSH2 0x203E JUMP JUMPDEST JUMPDEST SWAP3 POP SWAP3 SWAP1 POP JUMP JUMPDEST PUSH1 0x0 DUP3 PUSH1 0x1F DUP4 ADD SLT PUSH2 0x1528 JUMPI PUSH2 0x1527 PUSH2 0x2039 JUMP JUMPDEST JUMPDEST DUP2 CALLDATALOAD PUSH2 0x1538 DUP5 DUP3 PUSH1 0x20 DUP7 ADD PUSH2 0x137A JUMP JUMPDEST SWAP2 POP POP SWAP3 SWAP2 POP POP JUMP JUMPDEST PUSH1 0x0 DUP1 DUP4 PUSH1 0x1F DUP5 ADD SLT PUSH2 0x1557 JUMPI PUSH2 0x1556 PUSH2 0x2039 JUMP JUMPDEST JUMPDEST DUP3 CALLDATALOAD SWAP1 POP PUSH8 0xFFFFFFFFFFFFFFFF DUP2 GT ISZERO PUSH2 0x1574 JUMPI PUSH2 0x1573 PUSH2 0x2034 JUMP JUMPDEST JUMPDEST PUSH1 0x20 DUP4 ADD SWAP2 POP DUP4 PUSH1 0x1 DUP3 MUL DUP4 ADD GT ISZERO PUSH2 0x1590 JUMPI PUSH2 0x158F PUSH2 0x203E JUMP JUMPDEST JUMPDEST SWAP3 POP SWAP3 SWAP1 POP JUMP JUMPDEST PUSH1 0x0 DUP3 PUSH1 0x1F DUP4 ADD SLT PUSH2 0x15AC JUMPI PUSH2 0x15AB PUSH2 0x2039 JUMP JUMPDEST JUMPDEST DUP2 CALLDATALOAD PUSH2 0x15BC DUP5 DUP3 PUSH1 0x20 DUP7 ADD PUSH2 0x13BC JUMP JUMPDEST SWAP2 POP POP SWAP3 SWAP2 POP POP JUMP JUMPDEST PUSH1 0x0 DUP2 CALLDATALOAD SWAP1 POP PUSH2 0x15D4 DUP2 PUSH2 0x2107 JUMP JUMPDEST SWAP3 SWAP2 POP POP JUMP JUMPDEST PUSH1 0x0 DUP2 MLOAD SWAP1 POP PUSH2 0x15E9 DUP2 PUSH2 0x2107 JUMP JUMPDEST SWAP3 SWAP2 POP POP JUMP JUMPDEST PUSH1 0x0 PUSH1 0x20 DUP3 DUP5 SUB SLT ISZERO PUSH2 0x1605 JUMPI PUSH2 0x1604 PUSH2 0x204D JUMP JUMPDEST JUMPDEST PUSH1 0x0 PUSH2 0x1613 DUP5 DUP3 DUP6 ADD PUSH2 0x13FE JUMP JUMPDEST SWAP2 POP POP SWAP3 SWAP2 POP POP JUMP JUMPDEST PUSH1 0x0 PUSH1 0x20 DUP3 DUP5 SUB SLT ISZERO PUSH2 0x1632 JUMPI PUSH2 0x1631 PUSH2 0x204D JUMP JUMPDEST JUMPDEST PUSH1 0x0 PUSH2 0x1640 DUP5 DUP3 DUP6 ADD PUSH2 0x1413 JUMP JUMPDEST SWAP2 POP POP SWAP3 SWAP2 POP POP JUMP JUMPDEST PUSH1 0x0 PUSH1 0x20 DUP3 DUP5 SUB SLT ISZERO PUSH2 0x165F JUMPI PUSH2 0x165E PUSH2 0x204D JUMP JUMPDEST JUMPDEST PUSH1 0x0 PUSH2 0x166D DUP5 DUP3 DUP6 ADD PUSH2 0x147E JUMP JUMPDEST SWAP2 POP POP SWAP3 SWAP2 POP POP JUMP JUMPDEST PUSH1 0x0 PUSH1 0x20 DUP3 DUP5 SUB SLT ISZERO PUSH2 0x168C JUMPI PUSH2 0x168B PUSH2 0x204D JUMP JUMPDEST JUMPDEST PUSH1 0x0 PUSH2 0x169A DUP5 DUP3 DUP6 ADD PUSH2 0x14A8 JUMP JUMPDEST SWAP2 POP POP SWAP3 SWAP2 POP POP JUMP JUMPDEST PUSH1 0x0 DUP1 PUSH1 0x0 DUP1 PUSH1 0x0 DUP1 PUSH1 0x0 PUSH1 0x80 DUP9 DUP11 SUB SLT ISZERO PUSH2 0x16C2 JUMPI PUSH2 0x16C1 PUSH2 0x204D JUMP JUMPDEST JUMPDEST PUSH1 0x0 PUSH2 0x16D0 DUP11 DUP3 DUP12 ADD PUSH2 0x1493 JUMP JUMPDEST SWAP8 POP POP PUSH1 0x20 DUP9 ADD CALLDATALOAD PUSH8 0xFFFFFFFFFFFFFFFF DUP2 GT ISZERO PUSH2 0x16F1 JUMPI PUSH2 0x16F0 PUSH2 0x2048 JUMP JUMPDEST JUMPDEST PUSH2 0x16FD DUP11 DUP3 DUP12 ADD PUSH2 0x1541 JUMP JUMPDEST SWAP7 POP SWAP7 POP POP PUSH1 0x40 DUP9 ADD CALLDATALOAD PUSH8 0xFFFFFFFFFFFFFFFF DUP2 GT ISZERO PUSH2 0x1720 JUMPI PUSH2 0x171F PUSH2 0x2048 JUMP JUMPDEST JUMPDEST PUSH2 0x172C DUP11 DUP3 DUP12 ADD PUSH2 0x14BD JUMP JUMPDEST SWAP5 POP SWAP5 POP POP PUSH1 0x60 DUP9 ADD CALLDATALOAD PUSH8 0xFFFFFFFFFFFFFFFF DUP2 GT ISZERO PUSH2 0x174F JUMPI PUSH2 0x174E PUSH2 0x2048 JUMP JUMPDEST JUMPDEST PUSH2 0x175B DUP11 DUP3 DUP12 ADD PUSH2 0x1428 JUMP JUMPDEST SWAP3 POP SWAP3 POP POP SWAP3 SWAP6 SWAP9 SWAP2 SWAP5 SWAP8 POP SWAP3 SWAP6 POP JUMP JUMPDEST PUSH1 0x0 DUP1 PUSH1 0x0 DUP1 PUSH1 0x80 DUP6 DUP8 SUB SLT ISZERO PUSH2 0x1786 JUMPI PUSH2 0x1785 PUSH2 0x204D JUMP JUMPDEST JUMPDEST PUSH1 0x0 PUSH2 0x1794 DUP8 DUP3 DUP9 ADD PUSH2 0x1493 JUMP JUMPDEST SWAP5 POP POP PUSH1 0x20 PUSH2 0x17A5 DUP8 DUP3 DUP9 ADD PUSH2 0x15C5 JUMP JUMPDEST SWAP4 POP POP PUSH1 0x40 DUP6 ADD CALLDATALOAD PUSH8 0xFFFFFFFFFFFFFFFF DUP2 GT ISZERO PUSH2 0x17C6 JUMPI PUSH2 0x17C5 PUSH2 0x2048 JUMP JUMPDEST JUMPDEST PUSH2 0x17D2 DUP8 DUP3 DUP9 ADD PUSH2 0x1513 JUMP JUMPDEST SWAP3 POP POP PUSH1 0x60 DUP6 ADD CALLDATALOAD PUSH8 0xFFFFFFFFFFFFFFFF DUP2 GT ISZERO PUSH2 0x17F3 JUMPI PUSH2 0x17F2 PUSH2 0x2048 JUMP JUMPDEST JUMPDEST PUSH2 0x17FF DUP8 DUP3 DUP9 ADD PUSH2 0x1513 JUMP JUMPDEST SWAP2 POP POP SWAP3 SWAP6 SWAP2 SWAP5 POP SWAP3 POP JUMP JUMPDEST PUSH1 0x0 PUSH1 0x20 DUP3 DUP5 SUB SLT ISZERO PUSH2 0x1821 JUMPI PUSH2 0x1820 PUSH2 0x204D JUMP JUMPDEST JUMPDEST PUSH1 0x0 PUSH2 0x182F DUP5 DUP3 DUP6 ADD PUSH2 0x15DA JUMP JUMPDEST SWAP2 POP POP SWAP3 SWAP2 POP POP JUMP JUMPDEST PUSH2 0x1841 DUP2 PUSH2 0x1D94 JUMP JUMPDEST DUP3 MSTORE POP POP JUMP JUMPDEST PUSH2 0x1850 DUP2 PUSH2 0x1DB2 JUMP JUMPDEST DUP3 MSTORE POP POP JUMP JUMPDEST PUSH1 0x0 PUSH2 0x1861 DUP3 PUSH2 0x1B12 JUMP JUMPDEST PUSH2 0x186B DUP2 DUP6 PUSH2 0x1B1D JUMP JUMPDEST SWAP4 POP PUSH2 0x187B DUP2 DUP6 PUSH1 0x20 DUP7 ADD PUSH2 0x1E0A JUMP JUMPDEST PUSH2 0x1884 DUP2 PUSH2 0x2052 JUMP JUMPDEST DUP5 ADD SWAP2 POP POP SWAP3 SWAP2 POP POP JUMP JUMPDEST PUSH1 0x0 PUSH2 0x189C PUSH1 0x11 DUP4 PUSH2 0x1B2E JUMP JUMPDEST SWAP2 POP PUSH2 0x18A7 DUP3 PUSH2 0x2070 JUMP JUMPDEST PUSH1 0x20 DUP3 ADD SWAP1 POP SWAP2 SWAP1 POP JUMP JUMPDEST PUSH1 0x0 PUSH2 0x18BF PUSH1 0x11 DUP4 PUSH2 0x1B2E JUMP JUMPDEST SWAP2 POP PUSH2 0x18CA DUP3 PUSH2 0x2099 JUMP JUMPDEST PUSH1 0x20 DUP3 ADD SWAP1 POP SWAP2 SWAP1 POP JUMP JUMPDEST PUSH2 0x18DE DUP2 PUSH2 0x1DDC JUMP JUMPDEST DUP3 MSTORE POP POP JUMP JUMPDEST PUSH1 0x0 PUSH1 0x20 DUP3 ADD SWAP1 POP PUSH2 0x18F9 PUSH1 0x0 DUP4 ADD DUP5 PUSH2 0x1838 JUMP JUMPDEST SWAP3 SWAP2 POP POP JUMP JUMPDEST PUSH1 0x0 PUSH1 0x20 DUP3 ADD SWAP1 POP PUSH2 0x1914 PUSH1 0x0 DUP4 ADD DUP5 PUSH2 0x1847 JUMP JUMPDEST SWAP3 SWAP2 POP POP JUMP JUMPDEST PUSH1 0x0 PUSH1 0x40 DUP3 ADD SWAP1 POP PUSH2 0x192F PUSH1 0x0 DUP4 ADD DUP6 PUSH2 0x1847 JUMP JUMPDEST DUP2 DUP2 SUB PUSH1 0x20 DUP4 ADD MSTORE PUSH2 0x1941 DUP2 DUP5 PUSH2 0x1856 JUMP JUMPDEST SWAP1 POP SWAP4 SWAP3 POP POP POP JUMP JUMPDEST PUSH1 0x0 PUSH1 0x80 DUP3 ADD SWAP1 POP PUSH2 0x195F PUSH1 0x0 DUP4 ADD DUP8 PUSH2 0x1847 JUMP JUMPDEST PUSH2 0x196C PUSH1 0x20 DUP4 ADD DUP7 PUSH2 0x18D5 JUMP JUMPDEST DUP2 DUP2 SUB PUSH1 0x40 DUP4 ADD MSTORE PUSH2 0x197E DUP2 DUP6 PUSH2 0x1856 JUMP JUMPDEST SWAP1 POP DUP2 DUP2 SUB PUSH1 0x60 DUP4 ADD MSTORE PUSH2 0x1992 DUP2 DUP5 PUSH2 0x1856 JUMP JUMPDEST SWAP1 POP SWAP6 SWAP5 POP POP POP POP POP JUMP JUMPDEST PUSH1 0x0 PUSH1 0x20 DUP3 ADD SWAP1 POP DUP2 DUP2 SUB PUSH1 0x0 DUP4 ADD MSTORE PUSH2 0x19B7 DUP2 DUP5 PUSH2 0x1856 JUMP JUMPDEST SWAP1 POP SWAP3 SWAP2 POP POP JUMP JUMPDEST PUSH1 0x0 PUSH1 0x20 DUP3 ADD SWAP1 POP DUP2 DUP2 SUB PUSH1 0x0 DUP4 ADD MSTORE PUSH2 0x19D8 DUP2 PUSH2 0x188F JUMP JUMPDEST SWAP1 POP SWAP2 SWAP1 POP JUMP JUMPDEST PUSH1 0x0 PUSH1 0x20 DUP3 ADD SWAP1 POP DUP2 DUP2 SUB PUSH1 0x0 DUP4 ADD MSTORE PUSH2 0x19F8 DUP2 PUSH2 0x18B2 JUMP JUMPDEST SWAP1 POP SWAP2 SWAP1 POP JUMP JUMPDEST PUSH1 0x0 PUSH1 0x20 DUP3 ADD SWAP1 POP PUSH2 0x1A14 PUSH1 0x0 DUP4 ADD DUP5 PUSH2 0x18D5 JUMP JUMPDEST SWAP3 SWAP2 POP POP JUMP JUMPDEST PUSH1 0x0 PUSH1 0x60 DUP3 ADD SWAP1 POP PUSH2 0x1A2F PUSH1 0x0 DUP4 ADD DUP7 PUSH2 0x18D5 JUMP JUMPDEST DUP2 DUP2 SUB PUSH1 0x20 DUP4 ADD MSTORE PUSH2 0x1A41 DUP2 DUP6 PUSH2 0x1856 JUMP JUMPDEST SWAP1 POP DUP2 DUP2 SUB PUSH1 0x40 DUP4 ADD MSTORE PUSH2 0x1A55 DUP2 DUP5 PUSH2 0x1856 JUMP JUMPDEST SWAP1 POP SWAP5 SWAP4 POP POP POP POP JUMP JUMPDEST PUSH1 0x0 PUSH2 0x1A69 PUSH2 0x1A7A JUMP JUMPDEST SWAP1 POP PUSH2 0x1A75 DUP3 DUP3 PUSH2 0x1E6F JUMP JUMPDEST SWAP2 SWAP1 POP JUMP JUMPDEST PUSH1 0x0 PUSH1 0x40 MLOAD SWAP1 POP SWAP1 JUMP JUMPDEST PUSH1 0x0 PUSH8 0xFFFFFFFFFFFFFFFF DUP3 GT ISZERO PUSH2 0x1A9F JUMPI PUSH2 0x1A9E PUSH2 0x2005 JUMP JUMPDEST JUMPDEST PUSH1 0x20 DUP3 MUL SWAP1 POP PUSH1 0x20 DUP2 ADD SWAP1 POP SWAP2 SWAP1 POP JUMP JUMPDEST PUSH1 0x0 PUSH8 0xFFFFFFFFFFFFFFFF DUP3 GT ISZERO PUSH2 0x1ACB JUMPI PUSH2 0x1ACA PUSH2 0x2005 JUMP JUMPDEST JUMPDEST PUSH2 0x1AD4 DUP3 PUSH2 0x2052 JUMP JUMPDEST SWAP1 POP PUSH1 0x20 DUP2 ADD SWAP1 POP SWAP2 SWAP1 POP JUMP JUMPDEST PUSH1 0x0 PUSH8 0xFFFFFFFFFFFFFFFF DUP3 GT ISZERO PUSH2 0x1AFC JUMPI PUSH2 0x1AFB PUSH2 0x2005 JUMP JUMPDEST JUMPDEST PUSH2 0x1B05 DUP3 PUSH2 0x2052 JUMP JUMPDEST SWAP1 POP PUSH1 0x20 DUP2 ADD SWAP1 POP SWAP2 SWAP1 POP JUMP JUMPDEST PUSH1 0x0 DUP2 MLOAD SWAP1 POP SWAP2 SWAP1 POP JUMP JUMPDEST PUSH1 0x0 DUP3 DUP3 MSTORE PUSH1 0x20 DUP3 ADD SWAP1 POP SWAP3 SWAP2 POP POP JUMP JUMPDEST PUSH1 0x0 DUP3 DUP3 MSTORE PUSH1 0x20 DUP3 ADD SWAP1 POP SWAP3 SWAP2 POP POP JUMP JUMPDEST PUSH1 0x0 PUSH2 0x1B4A DUP3 PUSH2 0x1DDC JUMP JUMPDEST SWAP2 POP PUSH2 0x1B55 DUP4 PUSH2 0x1DDC JUMP JUMPDEST SWAP3 POP DUP3 PUSH32 0xFFFFFFFFFFFFFFFFFFFFFFFFFFFFFFFFFFFFFFFFFFFFFFFFFFFFFFFFFFFFFFFF SUB DUP3 GT ISZERO PUSH2 0x1B8A JUMPI PUSH2 0x1B89 PUSH2 0x1F1A JUMP JUMPDEST JUMPDEST DUP3 DUP3 ADD SWAP1 POP SWAP3 SWAP2 POP POP JUMP JUMPDEST PUSH1 0x0 DUP1 DUP3 SWAP2 POP DUP4 SWAP1 POP JUMPDEST PUSH1 0x1 DUP6 GT ISZERO PUSH2 0x1BDF JUMPI DUP1 DUP7 DIV DUP2 GT ISZERO PUSH2 0x1BBB JUMPI PUSH2 0x1BBA PUSH2 0x1F1A JUMP JUMPDEST JUMPDEST PUSH1 0x1 DUP6 AND ISZERO PUSH2 0x1BCA JUMPI DUP1 DUP3 MUL SWAP2 POP JUMPDEST DUP1 DUP2 MUL SWAP1 POP PUSH2 0x1BD8 DUP6 PUSH2 0x2063 JUMP JUMPDEST SWAP5 POP PUSH2 0x1B9F JUMP JUMPDEST SWAP5 POP SWAP5 SWAP3 POP POP POP JUMP JUMPDEST PUSH1 0x0 PUSH2 0x1BF3 DUP3 PUSH2 0x1DDC JUMP JUMPDEST SWAP2 POP PUSH2 0x1BFE DUP4 PUSH2 0x1DDC JUMP JUMPDEST SWAP3 POP PUSH2 0x1C2B PUSH32 0xFFFFFFFFFFFFFFFFFFFFFFFFFFFFFFFFFFFFFFFFFFFFFFFFFFFFFFFFFFFFFFFF DUP5 DUP5 PUSH2 0x1C33 JUMP JUMPDEST SWAP1 POP SWAP3 SWAP2 POP POP JUMP JUMPDEST PUSH1 0x0 DUP3 PUSH2 0x1C43 JUMPI PUSH1 0x1 SWAP1 POP PUSH2 0x1CFF JUMP JUMPDEST DUP2 PUSH2 0x1C51 JUMPI PUSH1 0x0 SWAP1 POP PUSH2 0x1CFF JUMP JUMPDEST DUP2 PUSH1 0x1 DUP2 EQ PUSH2 0x1C67 JUMPI PUSH1 0x2 DUP2 EQ PUSH2 0x1C71 JUMPI PUSH2 0x1CA0 JUMP JUMPDEST PUSH1 0x1 SWAP2 POP POP PUSH2 0x1CFF JUMP JUMPDEST PUSH1 0xFF DUP5 GT ISZERO PUSH2 0x1C83 JUMPI PUSH2 0x1C82 PUSH2 0x1F1A JUMP JUMPDEST JUMPDEST DUP4 PUSH1 0x2 EXP SWAP2 POP DUP5 DUP3 GT ISZERO PUSH2 0x1C9A JUMPI PUSH2 0x1C99 PUSH2 0x1F1A JUMP JUMPDEST JUMPDEST POP PUSH2 0x1CFF JUMP JUMPDEST POP PUSH1 0x20 DUP4 LT PUSH2 0x133 DUP4 LT AND PUSH1 0x4E DUP5 LT PUSH1 0xB DUP5 LT AND OR ISZERO PUSH2 0x1CD5 JUMPI DUP3 DUP3 EXP SWAP1 POP DUP4 DUP2 GT ISZERO PUSH2 0x1CD0 JUMPI PUSH2 0x1CCF PUSH2 0x1F1A JUMP JUMPDEST JUMPDEST PUSH2 0x1CFF JUMP JUMPDEST PUSH2 0x1CE2 DUP5 DUP5 DUP5 PUSH1 0x1 PUSH2 0x1B95 JUMP JUMPDEST SWAP3 POP SWAP1 POP DUP2 DUP5 DIV DUP2 GT ISZERO PUSH2 0x1CF9 JUMPI PUSH2 0x1CF8 PUSH2 0x1F1A JUMP JUMPDEST JUMPDEST DUP2 DUP2 MUL SWAP1 POP JUMPDEST SWAP4 SWAP3 POP POP POP JUMP JUMPDEST PUSH1 0x0 PUSH2 0x1D11 DUP3 PUSH2 0x1DDC JUMP JUMPDEST SWAP2 POP PUSH2 0x1D1C DUP4 PUSH2 0x1DDC JUMP JUMPDEST SWAP3 POP DUP2 PUSH32 0xFFFFFFFFFFFFFFFFFFFFFFFFFFFFFFFFFFFFFFFFFFFFFFFFFFFFFFFFFFFFFFFF DIV DUP4 GT DUP3 ISZERO ISZERO AND ISZERO PUSH2 0x1D55 JUMPI PUSH2 0x1D54 PUSH2 0x1F1A JUMP JUMPDEST JUMPDEST DUP3 DUP3 MUL SWAP1 POP SWAP3 SWAP2 POP POP JUMP JUMPDEST PUSH1 0x0 PUSH2 0x1D6B DUP3 PUSH2 0x1DDC JUMP JUMPDEST SWAP2 POP PUSH2 0x1D76 DUP4 PUSH2 0x1DDC JUMP JUMPDEST SWAP3 POP DUP3 DUP3 LT ISZERO PUSH2 0x1D89 JUMPI PUSH2 0x1D88 PUSH2 0x1F1A JUMP JUMPDEST JUMPDEST DUP3 DUP3 SUB SWAP1 POP SWAP3 SWAP2 POP POP JUMP JUMPDEST PUSH1 0x0 PUSH2 0x1D9F DUP3 PUSH2 0x1DBC JUMP JUMPDEST SWAP1 POP SWAP2 SWAP1 POP JUMP JUMPDEST PUSH1 0x0 DUP2 ISZERO ISZERO SWAP1 POP SWAP2 SWAP1 POP JUMP JUMPDEST PUSH1 0x0 DUP2 SWAP1 POP SWAP2 SWAP1 POP JUMP JUMPDEST PUSH1 0x0 PUSH20 0xFFFFFFFFFFFFFFFFFFFFFFFFFFFFFFFFFFFFFFFF DUP3 AND SWAP1 POP SWAP2 SWAP1 POP JUMP JUMPDEST PUSH1 0x0 DUP2 SWAP1 POP SWAP2 SWAP1 POP JUMP JUMPDEST PUSH1 0x0 PUSH2 0x1DF3 CALLDATASIZE DUP5 DUP5 PUSH2 0x12EC JUMP JUMPDEST SWAP1 POP SWAP3 SWAP2 POP POP JUMP JUMPDEST DUP3 DUP2 DUP4 CALLDATACOPY PUSH1 0x0 DUP4 DUP4 ADD MSTORE POP POP POP JUMP JUMPDEST PUSH1 0x0 JUMPDEST DUP4 DUP2 LT ISZERO PUSH2 0x1E28 JUMPI DUP1 DUP3 ADD MLOAD DUP2 DUP5 ADD MSTORE PUSH1 0x20 DUP2 ADD SWAP1 POP PUSH2 0x1E0D JUMP JUMPDEST DUP4 DUP2 GT ISZERO PUSH2 0x1E37 JUMPI PUSH1 0x0 DUP5 DUP5 ADD MSTORE JUMPDEST POP POP POP POP JUMP JUMPDEST PUSH1 0x0 PUSH1 0x2 DUP3 DIV SWAP1 POP PUSH1 0x1 DUP3 AND DUP1 PUSH2 0x1E55 JUMPI PUSH1 0x7F DUP3 AND SWAP2 POP JUMPDEST PUSH1 0x20 DUP3 LT DUP2 EQ ISZERO PUSH2 0x1E69 JUMPI PUSH2 0x1E68 PUSH2 0x1FA7 JUMP JUMPDEST JUMPDEST POP SWAP2 SWAP1 POP JUMP JUMPDEST PUSH2 0x1E78 DUP3 PUSH2 0x2052 JUMP JUMPDEST DUP2 ADD DUP2 DUP2 LT PUSH8 0xFFFFFFFFFFFFFFFF DUP3 GT OR ISZERO PUSH2 0x1E97 JUMPI PUSH2 0x1E96 PUSH2 0x2005 JUMP JUMPDEST JUMPDEST DUP1 PUSH1 0x40 MSTORE POP POP POP JUMP JUMPDEST PUSH1 0x0 PUSH2 0x1EAB DUP3 PUSH2 0x1DDC JUMP JUMPDEST SWAP2 POP PUSH32 0xFFFFFFFFFFFFFFFFFFFFFFFFFFFFFFFFFFFFFFFFFFFFFFFFFFFFFFFFFFFFFFFF DUP3 EQ ISZERO PUSH2 0x1EDE JUMPI PUSH2 0x1EDD PUSH2 0x1F1A JUMP JUMPDEST JUMPDEST PUSH1 0x1 DUP3 ADD SWAP1 POP SWAP2 SWAP1 POP JUMP JUMPDEST PUSH1 0x0 PUSH2 0x1EF4 DUP3 PUSH2 0x1DDC JUMP JUMPDEST SWAP2 POP PUSH2 0x1EFF DUP4 PUSH2 0x1DDC JUMP JUMPDEST SWAP3 POP DUP3 PUSH2 0x1F0F JUMPI PUSH2 0x1F0E PUSH2 0x1F49 JUMP JUMPDEST JUMPDEST DUP3 DUP3 MOD SWAP1 POP SWAP3 SWAP2 POP POP JUMP JUMPDEST PUSH32 0x4E487B7100000000000000000000000000000000000000000000000000000000 PUSH1 0x0 MSTORE PUSH1 0x11 PUSH1 0x4 MSTORE PUSH1 0x24 PUSH1 0x0 REVERT JUMPDEST PUSH32 0x4E487B7100000000000000000000000000000000000000000000000000000000 PUSH1 0x0 MSTORE PUSH1 0x12 PUSH1 0x4 MSTORE PUSH1 0x24 PUSH1 0x0 REVERT JUMPDEST PUSH32 0x4E487B7100000000000000000000000000000000000000000000000000000000 PUSH1 0x0 MSTORE PUSH1 0x21 PUSH1 0x4 MSTORE PUSH1 0x24 PUSH1 0x0 REVERT JUMPDEST PUSH32 0x4E487B7100000000000000000000000000000000000000000000000000000000 PUSH1 0x0 MSTORE PUSH1 0x22 PUSH1 0x4 MSTORE PUSH1 0x24 PUSH1 0x0 REVERT JUMPDEST PUSH32 0x4E487B7100000000000000000000000000000000000000000000000000000000 PUSH1 0x0 MSTORE PUSH1 0x32 PUSH1 0x4 MSTORE PUSH1 0x24 PUSH1 0x0 REVERT JUMPDEST PUSH32 0x4E487B7100000000000000000000000000000000000000000000000000000000 PUSH1 0x0 MSTORE PUSH1 0x41 PUSH1 0x4 MSTORE PUSH1 0x24 PUSH1 0x0 REVERT JUMPDEST PUSH1 0x0 DUP1 REVERT JUMPDEST PUSH1 0x0 DUP1 REVERT JUMPDEST PUSH1 0x0 DUP1 REVERT JUMPDEST PUSH1 0x0 DUP1 REVERT JUMPDEST PUSH1 0x0 DUP1 REVERT JUMPDEST PUSH1 0x0 DUP1 REVERT JUMPDEST PUSH1 0x0 PUSH1 0x1F NOT PUSH1 0x1F DUP4 ADD AND SWAP1 POP SWAP2 SWAP1 POP JUMP JUMPDEST PUSH1 0x0 DUP2 PUSH1 0x1 SHR SWAP1 POP SWAP2 SWAP1 POP JUMP JUMPDEST PUSH32 0x6D656D62657220636F756E742069732030000000000000000000000000000000 PUSH1 0x0 DUP3 ADD MSTORE POP JUMP JUMPDEST PUSH32 0x6E6F7420666F756E64206D616E61676572000000000000000000000000000000 PUSH1 0x0 DUP3 ADD MSTORE POP JUMP JUMPDEST PUSH2 0x20CB DUP2 PUSH2 0x1D94 JUMP JUMPDEST DUP2 EQ PUSH2 0x20D6 JUMPI PUSH1 0x0 DUP1 REVERT JUMPDEST POP JUMP JUMPDEST PUSH2 0x20E2 DUP2 PUSH2 0x1DA6 JUMP JUMPDEST DUP2 EQ PUSH2 0x20ED JUMPI PUSH1 0x0 DUP1 REVERT JUMPDEST POP JUMP JUMPDEST PUSH2 0x20F9 DUP2 PUSH2 0x1DB2 JUMP JUMPDEST DUP2 EQ PUSH2 0x2104 JUMPI PUSH1 0x0 DUP1 REVERT JUMPDEST POP JUMP JUMPDEST PUSH2 0x2110 DUP2 PUSH2 0x1DDC JUMP JUMPDEST DUP2 EQ PUSH2 0x211B JUMPI PUSH1 0x0 DUP1 REVERT JUMPDEST POP JUMP INVALID LOG2 PUSH5 0x6970667358 0x22 SLT KECCAK256 ADD 0xF7 PUSH25 0xA381E4847CA7363B518E9AA77388795B38A26BFB873B927D86 KECCAK256 SWAP4 0x26 0xC2 PUSH5 0x736F6C6343 STOP ADDMOD MOD STOP CALLER "
		},
		"gasEstimates": {
			"creation": {
				"codeDepositCost": "1706400",
				"executionCost": "infinite",
				"totalCost": "infinite"
			},
			"external": {
				"executeRequest(bytes32,string,bytes,string[])": "infinite",
				"handleOracleFulfillment(bytes32,uint256,bytes,bytes)": "infinite",
				"latestError()": "infinite",
				"latestRequestId()": "2407",
				"latestResponse()": "infinite",
				"setOracle(address)": "24744"
			},
			"internal": {
				"fulfillRequest(bytes32,bytes memory,bytes memory)": "infinite"
			}
		},
		"methodIdentifiers": {
			"executeRequest(bytes32,string,bytes,string[])": "2912557a",
			"handleOracleFulfillment(bytes32,uint256,bytes,bytes)": "fba45fbe",
			"latestError()": "fffeb84e",
			"latestRequestId()": "1aa46f59",
			"latestResponse()": "bef3a2f0",
			"setOracle(address)": "7adbf973"
		}
	},
	"abi": [
		{
			"inputs": [
				{
					"internalType": "address",
					"name": "oracle",
					"type": "address"
				},
				{
					"internalType": "contract Registry",
					"name": "_reg",
					"type": "address"
				}
			],
			"stateMutability": "nonpayable",
			"type": "constructor"
		},
		{
			"inputs": [],
			"name": "EmptyArgs",
			"type": "error"
		},
		{
			"inputs": [],
			"name": "EmptyRequestData",
			"type": "error"
		},
		{
			"inputs": [],
			"name": "EmptySecrets",
			"type": "error"
		},
		{
			"inputs": [],
			"name": "EmptySource",
			"type": "error"
		},
		{
			"inputs": [],
			"name": "NoInlineSecrets",
			"type": "error"
		},
		{
			"inputs": [],
			"name": "RequestIsAlreadyPending",
			"type": "error"
		},
		{
			"inputs": [],
			"name": "SenderIsNotRegistry",
			"type": "error"
		},
		{
			"anonymous": false,
			"inputs": [
				{
					"indexed": true,
					"internalType": "bytes32",
					"name": "requestId",
					"type": "bytes32"
				},
				{
					"indexed": false,
					"internalType": "bytes",
					"name": "result",
					"type": "bytes"
				},
				{
					"indexed": false,
					"internalType": "bytes",
					"name": "err",
					"type": "bytes"
				}
			],
			"name": "FuncResponse",
			"type": "event"
		},
		{
			"anonymous": false,
			"inputs": [
				{
					"indexed": true,
					"internalType": "bytes32",
					"name": "id",
					"type": "bytes32"
				},
				{
					"indexed": true,
					"internalType": "address",
					"name": "node",
					"type": "address"
				},
				{
					"indexed": false,
					"internalType": "uint256",
					"name": "score",
					"type": "uint256"
				},
				{
					"indexed": false,
					"internalType": "bytes",
					"name": "result",
					"type": "bytes"
				},
				{
					"indexed": false,
					"internalType": "bytes",
					"name": "err",
					"type": "bytes"
				}
			],
			"name": "RequestFulfilled",
			"type": "event"
		},
		{
			"anonymous": false,
			"inputs": [
				{
					"indexed": true,
					"internalType": "bytes32",
					"name": "id",
					"type": "bytes32"
				},
				{
					"indexed": true,
					"internalType": "bytes32",
					"name": "functionId",
					"type": "bytes32"
				},
				{
					"indexed": false,
					"internalType": "address",
					"name": "funcWorker",
					"type": "address"
				}
			],
			"name": "RequestSent",
			"type": "event"
		},
		{
			"inputs": [
				{
					"internalType": "bytes32",
					"name": "name",
					"type": "bytes32"
				},
				{
					"internalType": "string",
					"name": "source",
					"type": "string"
				},
				{
					"internalType": "bytes",
					"name": "secrets",
					"type": "bytes"
				},
				{
					"internalType": "string[]",
					"name": "args",
					"type": "string[]"
				}
			],
			"name": "executeRequest",
			"outputs": [
				{
					"internalType": "bytes32",
					"name": "",
					"type": "bytes32"
				}
			],
			"stateMutability": "nonpayable",
			"type": "function"
		},
		{
			"inputs": [
				{
					"internalType": "bytes32",
					"name": "requestId",
					"type": "bytes32"
				},
				{
					"internalType": "uint256",
					"name": "score",
					"type": "uint256"
				},
				{
					"internalType": "bytes",
					"name": "response",
					"type": "bytes"
				},
				{
					"internalType": "bytes",
					"name": "err",
					"type": "bytes"
				}
			],
			"name": "handleOracleFulfillment",
			"outputs": [],
			"stateMutability": "nonpayable",
			"type": "function"
		},
		{
			"inputs": [],
			"name": "latestError",
			"outputs": [
				{
					"internalType": "bytes",
					"name": "",
					"type": "bytes"
				}
			],
			"stateMutability": "view",
			"type": "function"
		},
		{
			"inputs": [],
			"name": "latestRequestId",
			"outputs": [
				{
					"internalType": "bytes32",
					"name": "",
					"type": "bytes32"
				}
			],
			"stateMutability": "view",
			"type": "function"
		},
		{
			"inputs": [],
			"name": "latestResponse",
			"outputs": [
				{
					"internalType": "bytes",
					"name": "",
					"type": "bytes"
				}
			],
			"stateMutability": "view",
			"type": "function"
		},
		{
			"inputs": [
				{
					"internalType": "address",
					"name": "oracle",
					"type": "address"
				}
			],
			"name": "setOracle",
			"outputs": [],
			"stateMutability": "nonpayable",
			"type": "function"
		}
	]
}