{
	"data": {
		"bytecode": {
			"linkReferences": {},
			"object": "60806040523480156200001157600080fd5b506040516200241c3803806200241c833981810160405281019062000037919062000161565b8282826200004b83620000d960201b60201c565b80600360006101000a81548173ffffffffffffffffffffffffffffffffffffffff021916908373ffffffffffffffffffffffffffffffffffffffff16021790555081600260006101000a81548173ffffffffffffffffffffffffffffffffffffffff021916908373ffffffffffffffffffffffffffffffffffffffff1602179055505050505050506200026c565b806000806101000a81548173ffffffffffffffffffffffffffffffffffffffff021916908373ffffffffffffffffffffffffffffffffffffffff16021790555050565b6000815190506200012d816200021e565b92915050565b600081519050620001448162000238565b92915050565b6000815190506200015b8162000252565b92915050565b6000806000606084860312156200017d576200017c62000219565b5b60006200018d868287016200011c565b9350506020620001a0868287016200014a565b9250506040620001b38682870162000133565b9150509250925092565b6000620001ca82620001f9565b9050919050565b6000620001de82620001bd565b9050919050565b6000620001f282620001bd565b9050919050565b600073ffffffffffffffffffffffffffffffffffffffff82169050919050565b600080fd5b6200022981620001bd565b81146200023557600080fd5b50565b6200024381620001d1565b81146200024f57600080fd5b50565b6200025d81620001e5565b81146200026957600080fd5b50565b6121a0806200027c6000396000f3fe608060405234801561001057600080fd5b50600436106100575760003560e01c80630ca761751461005c5780631aa46f59146100785780632912557a14610096578063bef3a2f0146100c6578063fffeb84e146100e4575b600080fd5b610076600480360381019061007191906117c7565b610102565b005b610080610184565b60405161008d91906119ec565b60405180910390f35b6100b060048036038101906100ab9190611852565b61018a565b6040516100bd91906119ec565b60405180910390f35b6100ce6102a6565b6040516100db9190611a37565b60405180910390f35b6100ec610334565b6040516100f99190611a37565b60405180910390f35b826001600082815260200190815260200160002060006101000a81549073ffffffffffffffffffffffffffffffffffffffff02191690556101448484846103c2565b837ff2fa06652e54791d449ab43ede930a20d3b71ed330cad4018f47ba6cc15da00a8484604051610176929190611a59565b60405180910390a250505050565b60045481565b6000610194611270565b6101f26000808a8a8080601f016020809104026020016040519081016040528093929190818152602001838380828437600081840152601f19601f820116905080830192505050505050508c8561042f90949392919063ffffffff16565b60008686905011156102565761025586868080601f016020809104026020016040519081016040528093929190818152602001838380828437600081840152601f19601f82011690508083019250505050505050826104e590919063ffffffff16565b5b6000848490501115610282576102818484906102729190611e72565b8261055f90919063ffffffff16565b5b600061028d826105a8565b9050806004819055508092505050979650505050505050565b600580546102b390611ec9565b80601f01602080910402602001604051908101604052809291908181526020018280546102df90611ec9565b801561032c5780601f106103015761010080835404028352916020019161032c565b820191906000526020600020905b81548152906001019060200180831161030f57829003601f168201915b505050505081565b6006805461034190611ec9565b80601f016020809104026020016040519081016040528092919081815260200182805461036d90611ec9565b80156103ba5780601f1061038f576101008083540402835291602001916103ba565b820191906000526020600020905b81548152906001019060200180831161039d57829003601f168201915b505050505081565b81600590805190602001906103d89291906112e5565b5080600690805190602001906103ef9291906112e5565b50827f51732bd592d531e70a33ba1a99ea425d26fa7cb95aaf81189a1b2a0e7649edc98383604051610422929190611a59565b60405180910390a2505050565b60008251141561046b576040517f22ce3edd00000000000000000000000000000000000000000000000000000000815260040160405180910390fd5b838560000190600181111561048357610482612004565b5b9081600181111561049757610496612004565b5b8152505082856040019060008111156104b3576104b2612004565b5b908160008111156104c7576104c6612004565b5b81525050818560800181905250808560600181815250505050505050565b600081511415610521576040517fe889636f00000000000000000000000000000000000000000000000000000000815260040160405180910390fd5b60018260200190600181111561053a57610539612004565b5b9081600181111561054e5761054d612004565b5b81525050808260a001819052505050565b60008151141561059b576040517ffe936cb700000000000000000000000000000000000000000000000000000000815260040160405180910390fd5b808260c001819052505050565b600080600260009054906101000a900473ffffffffffffffffffffffffffffffffffffffff1673ffffffffffffffffffffffffffffffffffffffff1663edd3159d6040518163ffffffff1660e01b815260040160206040518083038186803b15801561061357600080fd5b505afa158015610627573d6000803e3d6000fd5b505050506040513d601f19601f8201168201806040525081019061064b919061191b565b90506000600360009054906101000a900473ffffffffffffffffffffffffffffffffffffffff1673ffffffffffffffffffffffffffffffffffffffff16639885e3b485606001516040518263ffffffff1660e01b81526004016106ae91906119ec565b60206040518083038186803b1580156106c657600080fd5b505afa1580156106da573d6000803e3d6000fd5b505050506040513d601f19601f820116820180604052508101906106fe9190611724565b9050600073ffffffffffffffffffffffffffffffffffffffff168173ffffffffffffffffffffffffffffffffffffffff161415610770576040517f08c379a000000000000000000000000000000000000000000000000000000000815260040161076790611a90565b60405180910390fd5b600081905060008173ffffffffffffffffffffffffffffffffffffffff1663ab9fa5ed6040518163ffffffff1660e01b8152600401600060405180830381600087803b1580156107bf57600080fd5b505af11580156107d3573d6000803e3d6000fd5b505050506040513d6000823e3d601f19601f820116820180604052508101906107fc9190611751565b9050600081518561080d9190611f75565b9050600082828151811061082457610823612062565b5b6020026020010151905060008473ffffffffffffffffffffffffffffffffffffffff16635fd4b08a836040518263ffffffff1660e01b815260040161086991906119d1565b60206040518083038186803b15801561088157600080fd5b505afa158015610895573d6000803e3d6000fd5b505050506040513d601f19601f820116820180604052508101906108b9919061179a565b905060008060009054906101000a900473ffffffffffffffffffffffffffffffffffffffff1673ffffffffffffffffffffffffffffffffffffffff1663041dae33836109048d610a1b565b6040518363ffffffff1660e01b8152600401610921929190611a07565b602060405180830381600087803b15801561093b57600080fd5b505af115801561094f573d6000803e3d6000fd5b505050506040513d601f19601f82011682018060405250810190610973919061179a565b9050326001600083815260200190815260200160002060006101000a81548173ffffffffffffffffffffffffffffffffffffffff021916908373ffffffffffffffffffffffffffffffffffffffff1602179055508273ffffffffffffffffffffffffffffffffffffffff16817f91f0d67c2f27abd6cfc317e120d5e80b31e97b9926b65d3887e59402fb20adfb60405160405180910390a38098505050505050505050919050565b6060610a2561136b565b610a358160000151610100610d1c565b50610a75816040518060400160405280600c81526020017f636f64654c6f636174696f6e0000000000000000000000000000000000000000815250610d95565b610a958184600001516001811115610a9057610a8f612004565b5b610dbe565b610ad4816040518060400160405280600881526020017f6c616e6775616765000000000000000000000000000000000000000000000000815250610d95565b610af48184604001516000811115610aef57610aee612004565b5b610dbe565b610b33816040518060400160405280600681526020017f736f757263650000000000000000000000000000000000000000000000000000815250610d95565b610b41818460800151610d95565b60008360c00151511115610bed57610b8e816040518060400160405280600481526020017f6172677300000000000000000000000000000000000000000000000000000000815250610d95565b610b9781610e0e565b60005b8360c0015151811015610be257610bcf828560c001518381518110610bc257610bc1612062565b5b6020026020010151610d95565b8080610bda90611f2c565b915050610b9a565b50610bec81610e36565b5b60008360a00151511115610d0b5760006001811115610c0f57610c0e612004565b5b83602001516001811115610c2657610c25612004565b5b1415610c5e576040517fa80d31f700000000000000000000000000000000000000000000000000000000815260040160405180910390fd5b610c9d816040518060400160405280600f81526020017f736563726574734c6f636174696f6e0000000000000000000000000000000000815250610d95565b610cbd8184602001516001811115610cb857610cb7612004565b5b610dbe565b610cfc816040518060400160405280600781526020017f7365637265747300000000000000000000000000000000000000000000000000815250610d95565b610d0a818460a00151610e5e565b5b806000015160000151915050919050565b610d2461138b565b6000602083610d339190611f75565b14610d5f57602082610d459190611f75565b6020610d519190611df8565b82610d5c9190611bd7565b91505b818360200181815250506040518084526000815282810160200181811015610d8657600080fd5b80604052505082905092915050565b610da28260038351610e87565b610db981836000015161103090919063ffffffff16565b505050565b610de060026005600660ff16901b17836000015161104c90919063ffffffff16565b50610e0a8282604051602001610df69190611ab0565b604051602081830303815290604052610e5e565b5050565b610e198160046110b6565b600181602001818151610e2c9190611bd7565b9150818152505050565b610e418160076110b6565b600181602001818151610e549190611df8565b9150818152505050565b610e6b8260028351610e87565b610e8281836000015161103090919063ffffffff16565b505050565b60178167ffffffffffffffff1611610ec257610ebc8160058460ff16901b60ff1617846000015161104c90919063ffffffff16565b5061102b565b60ff8167ffffffffffffffff1611610f2057610ef5601860058460ff16901b17846000015161104c90919063ffffffff16565b50610f1a8167ffffffffffffffff16600185600001516110dc9092919063ffffffff16565b5061102a565b61ffff8167ffffffffffffffff1611610f7f57610f54601960058460ff16901b17846000015161104c90919063ffffffff16565b50610f798167ffffffffffffffff16600285600001516110dc9092919063ffffffff16565b50611029565b63ffffffff8167ffffffffffffffff1611610fe057610fb5601a60058460ff16901b17846000015161104c90919063ffffffff16565b50610fda8167ffffffffffffffff16600485600001516110dc9092919063ffffffff16565b50611028565b611001601b60058460ff16901b17846000015161104c90919063ffffffff16565b506110268167ffffffffffffffff16600885600001516110dc9092919063ffffffff16565b505b5b5b5b505050565b61103861138b565b61104483838451611169565b905092915050565b61105461138b565b60008360000151519050600060018261106d9190611bd7565b905084602001518210611091576110908560028361108b9190611d9e565b61124c565b5b845160208382010185815381518311156110a9578282525b5050849250505092915050565b6110d7601f60058360ff16901b17836000015161104c90919063ffffffff16565b505050565b6110e461138b565b60008460000151519050600081846110fc9190611bd7565b90508560200151811115611121576111208660028361111b9190611d9e565b61124c565b5b60006001856101006111339190611c80565b61113d9190611df8565b90508651828101878319825116178152815184111561115a578382525b50508693505050509392505050565b61117161138b565b825182111561117f57600080fd5b60008460000151519050600083826111979190611bd7565b905085602001518111156111bc576111bb866002836111b69190611d9e565b61124c565b5b600080875180518560208301019350808511156111d7578482525b60208901925050505b6020861061121e57805182526020826111f99190611bd7565b91506020816112089190611bd7565b90506020866112179190611df8565b95506111e0565b60006001876020036101000a0390508019825116818451168181178552505050879450505050509392505050565b60008260000151905061125f8383610d1c565b5061126a8382611030565b50505050565b6040518060e001604052806000600181111561128f5761128e612004565b5b8152602001600060018111156112a8576112a7612004565b5b81526020016000808111156112c0576112bf612004565b5b8152602001600080191681526020016060815260200160608152602001606081525090565b8280546112f190611ec9565b90600052602060002090601f016020900481019282611313576000855561135a565b82601f1061132c57805160ff191683800117855561135a565b8280016001018555821561135a579182015b8281111561135957825182559160200191906001019061133e565b5b50905061136791906113a5565b5090565b604051806040016040528061137e61138b565b8152602001600081525090565b604051806040016040528060608152602001600081525090565b5b808211156113be5760008160009055506001016113a6565b5090565b60006113d56113d084611af0565b611acb565b905080838252602082019050828560208602820111156113f8576113f76120ca565b5b60005b85811015611428578161140e8882611544565b8452602084019350602083019250506001810190506113fb565b5050509392505050565b600061144561144084611b1c565b611acb565b90508083825260208201905082856020860282011115611468576114676120ca565b5b60005b858110156114b657813567ffffffffffffffff81111561148e5761148d6120c5565b5b80860161149b89826116e1565b8552602085019450602084019350505060018101905061146b565b5050509392505050565b60006114d36114ce84611b48565b611acb565b9050828152602081018484840111156114ef576114ee6120cf565b5b6114fa848285611e87565b509392505050565b600061151561151084611b79565b611acb565b905082815260208101848484011115611531576115306120cf565b5b61153c848285611e87565b509392505050565b60008151905061155381612125565b92915050565b600082601f83011261156e5761156d6120c5565b5b815161157e8482602086016113c2565b91505092915050565b60008083601f84011261159d5761159c6120c5565b5b8235905067ffffffffffffffff8111156115ba576115b96120c0565b5b6020830191508360208202830111156115d6576115d56120ca565b5b9250929050565b6000813590506115ec8161213c565b92915050565b6000815190506116018161213c565b92915050565b60008083601f84011261161d5761161c6120c5565b5b8235905067ffffffffffffffff81111561163a576116396120c0565b5b602083019150836001820283011115611656576116556120ca565b5b9250929050565b600082601f830112611672576116716120c5565b5b81356116828482602086016114c0565b91505092915050565b60008083601f8401126116a1576116a06120c5565b5b8235905067ffffffffffffffff8111156116be576116bd6120c0565b5b6020830191508360018202830111156116da576116d96120ca565b5b9250929050565b600082601f8301126116f6576116f56120c5565b5b8135611706848260208601611502565b91505092915050565b60008151905061171e81612153565b92915050565b60006020828403121561173a576117396120d9565b5b600061174884828501611544565b91505092915050565b600060208284031215611767576117666120d9565b5b600082015167ffffffffffffffff811115611785576117846120d4565b5b61179184828501611559565b91505092915050565b6000602082840312156117b0576117af6120d9565b5b60006117be848285016115f2565b91505092915050565b6000806000606084860312156117e0576117df6120d9565b5b60006117ee868287016115dd565b935050602084013567ffffffffffffffff81111561180f5761180e6120d4565b5b61181b8682870161165d565b925050604084013567ffffffffffffffff81111561183c5761183b6120d4565b5b6118488682870161165d565b9150509250925092565b60008060008060008060006080888a031215611871576118706120d9565b5b600061187f8a828b016115dd565b975050602088013567ffffffffffffffff8111156118a05761189f6120d4565b5b6118ac8a828b0161168b565b9650965050604088013567ffffffffffffffff8111156118cf576118ce6120d4565b5b6118db8a828b01611607565b9450945050606088013567ffffffffffffffff8111156118fe576118fd6120d4565b5b61190a8a828b01611587565b925092505092959891949750929550565b600060208284031215611931576119306120d9565b5b600061193f8482850161170f565b91505092915050565b61195181611e2c565b82525050565b61196081611e3e565b82525050565b600061197182611baa565b61197b8185611bb5565b935061198b818560208601611e96565b611994816120de565b840191505092915050565b60006119ac601183611bc6565b91506119b7826120fc565b602082019050919050565b6119cb81611e68565b82525050565b60006020820190506119e66000830184611948565b92915050565b6000602082019050611a016000830184611957565b92915050565b6000604082019050611a1c6000830185611957565b8181036020830152611a2e8184611966565b90509392505050565b60006020820190508181036000830152611a518184611966565b905092915050565b60006040820190508181036000830152611a738185611966565b90508181036020830152611a878184611966565b90509392505050565b60006020820190508181036000830152611aa98161199f565b9050919050565b6000602082019050611ac560008301846119c2565b92915050565b6000611ad5611ae6565b9050611ae18282611efb565b919050565b6000604051905090565b600067ffffffffffffffff821115611b0b57611b0a612091565b5b602082029050602081019050919050565b600067ffffffffffffffff821115611b3757611b36612091565b5b602082029050602081019050919050565b600067ffffffffffffffff821115611b6357611b62612091565b5b611b6c826120de565b9050602081019050919050565b600067ffffffffffffffff821115611b9457611b93612091565b5b611b9d826120de565b9050602081019050919050565b600081519050919050565b600082825260208201905092915050565b600082825260208201905092915050565b6000611be282611e68565b9150611bed83611e68565b9250827fffffffffffffffffffffffffffffffffffffffffffffffffffffffffffffffff03821115611c2257611c21611fa6565b5b828201905092915050565b6000808291508390505b6001851115611c7757808604811115611c5357611c52611fa6565b5b6001851615611c625780820291505b8081029050611c70856120ef565b9450611c37565b94509492505050565b6000611c8b82611e68565b9150611c9683611e68565b9250611cc37fffffffffffffffffffffffffffffffffffffffffffffffffffffffffffffffff8484611ccb565b905092915050565b600082611cdb5760019050611d97565b81611ce95760009050611d97565b8160018114611cff5760028114611d0957611d38565b6001915050611d97565b60ff841115611d1b57611d1a611fa6565b5b8360020a915084821115611d3257611d31611fa6565b5b50611d97565b5060208310610133831016604e8410600b8410161715611d6d5782820a905083811115611d6857611d67611fa6565b5b611d97565b611d7a8484846001611c2d565b92509050818404811115611d9157611d90611fa6565b5b81810290505b9392505050565b6000611da982611e68565b9150611db483611e68565b9250817fffffffffffffffffffffffffffffffffffffffffffffffffffffffffffffffff0483118215151615611ded57611dec611fa6565b5b828202905092915050565b6000611e0382611e68565b9150611e0e83611e68565b925082821015611e2157611e20611fa6565b5b828203905092915050565b6000611e3782611e48565b9050919050565b6000819050919050565b600073ffffffffffffffffffffffffffffffffffffffff82169050919050565b6000819050919050565b6000611e7f368484611432565b905092915050565b82818337600083830152505050565b60005b83811015611eb4578082015181840152602081019050611e99565b83811115611ec3576000848401525b50505050565b60006002820490506001821680611ee157607f821691505b60208210811415611ef557611ef4612033565b5b50919050565b611f04826120de565b810181811067ffffffffffffffff82111715611f2357611f22612091565b5b80604052505050565b6000611f3782611e68565b91507fffffffffffffffffffffffffffffffffffffffffffffffffffffffffffffffff821415611f6a57611f69611fa6565b5b600182019050919050565b6000611f8082611e68565b9150611f8b83611e68565b925082611f9b57611f9a611fd5565b5b828206905092915050565b7f4e487b7100000000000000000000000000000000000000000000000000000000600052601160045260246000fd5b7f4e487b7100000000000000000000000000000000000000000000000000000000600052601260045260246000fd5b7f4e487b7100000000000000000000000000000000000000000000000000000000600052602160045260246000fd5b7f4e487b7100000000000000000000000000000000000000000000000000000000600052602260045260246000fd5b7f4e487b7100000000000000000000000000000000000000000000000000000000600052603260045260246000fd5b7f4e487b7100000000000000000000000000000000000000000000000000000000600052604160045260246000fd5b600080fd5b600080fd5b600080fd5b600080fd5b600080fd5b600080fd5b6000601f19601f8301169050919050565b60008160011c9050919050565b7f6e6f7420666f756e64206d616e61676572000000000000000000000000000000600082015250565b61212e81611e2c565b811461213957600080fd5b50565b61214581611e3e565b811461215057600080fd5b50565b61215c81611e68565b811461216757600080fd5b5056fea264697066735822122060bce1c6fbc9dc60edf8d386e1e701e80513e5dd693b653d2be545c56ffead3964736f6c63430008060033",
			"opcodes": "PUSH1 0x80 PUSH1 0x40 MSTORE CALLVALUE DUP1 ISZERO PUSH3 0x11 JUMPI PUSH1 0x0 DUP1 REVERT JUMPDEST POP PUSH1 0x40 MLOAD PUSH3 0x241C CODESIZE SUB DUP1 PUSH3 0x241C DUP4 CODECOPY DUP2 DUP2 ADD PUSH1 0x40 MSTORE DUP2 ADD SWAP1 PUSH3 0x37 SWAP2 SWAP1 PUSH3 0x161 JUMP JUMPDEST DUP3 DUP3 DUP3 PUSH3 0x4B DUP4 PUSH3 0xD9 PUSH1 0x20 SHL PUSH1 0x20 SHR JUMP JUMPDEST DUP1 PUSH1 0x3 PUSH1 0x0 PUSH2 0x100 EXP DUP2 SLOAD DUP2 PUSH20 0xFFFFFFFFFFFFFFFFFFFFFFFFFFFFFFFFFFFFFFFF MUL NOT AND SWAP1 DUP4 PUSH20 0xFFFFFFFFFFFFFFFFFFFFFFFFFFFFFFFFFFFFFFFF AND MUL OR SWAP1 SSTORE POP DUP2 PUSH1 0x2 PUSH1 0x0 PUSH2 0x100 EXP DUP2 SLOAD DUP2 PUSH20 0xFFFFFFFFFFFFFFFFFFFFFFFFFFFFFFFFFFFFFFFF MUL NOT AND SWAP1 DUP4 PUSH20 0xFFFFFFFFFFFFFFFFFFFFFFFFFFFFFFFFFFFFFFFF AND MUL OR SWAP1 SSTORE POP POP POP POP POP POP POP PUSH3 0x26C JUMP JUMPDEST DUP1 PUSH1 0x0 DUP1 PUSH2 0x100 EXP DUP2 SLOAD DUP2 PUSH20 0xFFFFFFFFFFFFFFFFFFFFFFFFFFFFFFFFFFFFFFFF MUL NOT AND SWAP1 DUP4 PUSH20 0xFFFFFFFFFFFFFFFFFFFFFFFFFFFFFFFFFFFFFFFF AND MUL OR SWAP1 SSTORE POP POP JUMP JUMPDEST PUSH1 0x0 DUP2 MLOAD SWAP1 POP PUSH3 0x12D DUP2 PUSH3 0x21E JUMP JUMPDEST SWAP3 SWAP2 POP POP JUMP JUMPDEST PUSH1 0x0 DUP2 MLOAD SWAP1 POP PUSH3 0x144 DUP2 PUSH3 0x238 JUMP JUMPDEST SWAP3 SWAP2 POP POP JUMP JUMPDEST PUSH1 0x0 DUP2 MLOAD SWAP1 POP PUSH3 0x15B DUP2 PUSH3 0x252 JUMP JUMPDEST SWAP3 SWAP2 POP POP JUMP JUMPDEST PUSH1 0x0 DUP1 PUSH1 0x0 PUSH1 0x60 DUP5 DUP7 SUB SLT ISZERO PUSH3 0x17D JUMPI PUSH3 0x17C PUSH3 0x219 JUMP JUMPDEST JUMPDEST PUSH1 0x0 PUSH3 0x18D DUP7 DUP3 DUP8 ADD PUSH3 0x11C JUMP JUMPDEST SWAP4 POP POP PUSH1 0x20 PUSH3 0x1A0 DUP7 DUP3 DUP8 ADD PUSH3 0x14A JUMP JUMPDEST SWAP3 POP POP PUSH1 0x40 PUSH3 0x1B3 DUP7 DUP3 DUP8 ADD PUSH3 0x133 JUMP JUMPDEST SWAP2 POP POP SWAP3 POP SWAP3 POP SWAP3 JUMP JUMPDEST PUSH1 0x0 PUSH3 0x1CA DUP3 PUSH3 0x1F9 JUMP JUMPDEST SWAP1 POP SWAP2 SWAP1 POP JUMP JUMPDEST PUSH1 0x0 PUSH3 0x1DE DUP3 PUSH3 0x1BD JUMP JUMPDEST SWAP1 POP SWAP2 SWAP1 POP JUMP JUMPDEST PUSH1 0x0 PUSH3 0x1F2 DUP3 PUSH3 0x1BD JUMP JUMPDEST SWAP1 POP SWAP2 SWAP1 POP JUMP JUMPDEST PUSH1 0x0 PUSH20 0xFFFFFFFFFFFFFFFFFFFFFFFFFFFFFFFFFFFFFFFF DUP3 AND SWAP1 POP SWAP2 SWAP1 POP JUMP JUMPDEST PUSH1 0x0 DUP1 REVERT JUMPDEST PUSH3 0x229 DUP2 PUSH3 0x1BD JUMP JUMPDEST DUP2 EQ PUSH3 0x235 JUMPI PUSH1 0x0 DUP1 REVERT JUMPDEST POP JUMP JUMPDEST PUSH3 0x243 DUP2 PUSH3 0x1D1 JUMP JUMPDEST DUP2 EQ PUSH3 0x24F JUMPI PUSH1 0x0 DUP1 REVERT JUMPDEST POP JUMP JUMPDEST PUSH3 0x25D DUP2 PUSH3 0x1E5 JUMP JUMPDEST DUP2 EQ PUSH3 0x269 JUMPI PUSH1 0x0 DUP1 REVERT JUMPDEST POP JUMP JUMPDEST PUSH2 0x21A0 DUP1 PUSH3 0x27C PUSH1 0x0 CODECOPY PUSH1 0x0 RETURN INVALID PUSH1 0x80 PUSH1 0x40 MSTORE CALLVALUE DUP1 ISZERO PUSH2 0x10 JUMPI PUSH1 0x0 DUP1 REVERT JUMPDEST POP PUSH1 0x4 CALLDATASIZE LT PUSH2 0x57 JUMPI PUSH1 0x0 CALLDATALOAD PUSH1 0xE0 SHR DUP1 PUSH4 0xCA76175 EQ PUSH2 0x5C JUMPI DUP1 PUSH4 0x1AA46F59 EQ PUSH2 0x78 JUMPI DUP1 PUSH4 0x2912557A EQ PUSH2 0x96 JUMPI DUP1 PUSH4 0xBEF3A2F0 EQ PUSH2 0xC6 JUMPI DUP1 PUSH4 0xFFFEB84E EQ PUSH2 0xE4 JUMPI JUMPDEST PUSH1 0x0 DUP1 REVERT JUMPDEST PUSH2 0x76 PUSH1 0x4 DUP1 CALLDATASIZE SUB DUP2 ADD SWAP1 PUSH2 0x71 SWAP2 SWAP1 PUSH2 0x17C7 JUMP JUMPDEST PUSH2 0x102 JUMP JUMPDEST STOP JUMPDEST PUSH2 0x80 PUSH2 0x184 JUMP JUMPDEST PUSH1 0x40 MLOAD PUSH2 0x8D SWAP2 SWAP1 PUSH2 0x19EC JUMP JUMPDEST PUSH1 0x40 MLOAD DUP1 SWAP2 SUB SWAP1 RETURN JUMPDEST PUSH2 0xB0 PUSH1 0x4 DUP1 CALLDATASIZE SUB DUP2 ADD SWAP1 PUSH2 0xAB SWAP2 SWAP1 PUSH2 0x1852 JUMP JUMPDEST PUSH2 0x18A JUMP JUMPDEST PUSH1 0x40 MLOAD PUSH2 0xBD SWAP2 SWAP1 PUSH2 0x19EC JUMP JUMPDEST PUSH1 0x40 MLOAD DUP1 SWAP2 SUB SWAP1 RETURN JUMPDEST PUSH2 0xCE PUSH2 0x2A6 JUMP JUMPDEST PUSH1 0x40 MLOAD PUSH2 0xDB SWAP2 SWAP1 PUSH2 0x1A37 JUMP JUMPDEST PUSH1 0x40 MLOAD DUP1 SWAP2 SUB SWAP1 RETURN JUMPDEST PUSH2 0xEC PUSH2 0x334 JUMP JUMPDEST PUSH1 0x40 MLOAD PUSH2 0xF9 SWAP2 SWAP1 PUSH2 0x1A37 JUMP JUMPDEST PUSH1 0x40 MLOAD DUP1 SWAP2 SUB SWAP1 RETURN JUMPDEST DUP3 PUSH1 0x1 PUSH1 0x0 DUP3 DUP2 MSTORE PUSH1 0x20 ADD SWAP1 DUP2 MSTORE PUSH1 0x20 ADD PUSH1 0x0 KECCAK256 PUSH1 0x0 PUSH2 0x100 EXP DUP2 SLOAD SWAP1 PUSH20 0xFFFFFFFFFFFFFFFFFFFFFFFFFFFFFFFFFFFFFFFF MUL NOT AND SWAP1 SSTORE PUSH2 0x144 DUP5 DUP5 DUP5 PUSH2 0x3C2 JUMP JUMPDEST DUP4 PUSH32 0xF2FA06652E54791D449AB43EDE930A20D3B71ED330CAD4018F47BA6CC15DA00A DUP5 DUP5 PUSH1 0x40 MLOAD PUSH2 0x176 SWAP3 SWAP2 SWAP1 PUSH2 0x1A59 JUMP JUMPDEST PUSH1 0x40 MLOAD DUP1 SWAP2 SUB SWAP1 LOG2 POP POP POP POP JUMP JUMPDEST PUSH1 0x4 SLOAD DUP2 JUMP JUMPDEST PUSH1 0x0 PUSH2 0x194 PUSH2 0x1270 JUMP JUMPDEST PUSH2 0x1F2 PUSH1 0x0 DUP1 DUP11 DUP11 DUP1 DUP1 PUSH1 0x1F ADD PUSH1 0x20 DUP1 SWAP2 DIV MUL PUSH1 0x20 ADD PUSH1 0x40 MLOAD SWAP1 DUP2 ADD PUSH1 0x40 MSTORE DUP1 SWAP4 SWAP3 SWAP2 SWAP1 DUP2 DUP2 MSTORE PUSH1 0x20 ADD DUP4 DUP4 DUP1 DUP3 DUP5 CALLDATACOPY PUSH1 0x0 DUP2 DUP5 ADD MSTORE PUSH1 0x1F NOT PUSH1 0x1F DUP3 ADD AND SWAP1 POP DUP1 DUP4 ADD SWAP3 POP POP POP POP POP POP POP DUP13 DUP6 PUSH2 0x42F SWAP1 SWAP5 SWAP4 SWAP3 SWAP2 SWAP1 PUSH4 0xFFFFFFFF AND JUMP JUMPDEST PUSH1 0x0 DUP7 DUP7 SWAP1 POP GT ISZERO PUSH2 0x256 JUMPI PUSH2 0x255 DUP7 DUP7 DUP1 DUP1 PUSH1 0x1F ADD PUSH1 0x20 DUP1 SWAP2 DIV MUL PUSH1 0x20 ADD PUSH1 0x40 MLOAD SWAP1 DUP2 ADD PUSH1 0x40 MSTORE DUP1 SWAP4 SWAP3 SWAP2 SWAP1 DUP2 DUP2 MSTORE PUSH1 0x20 ADD DUP4 DUP4 DUP1 DUP3 DUP5 CALLDATACOPY PUSH1 0x0 DUP2 DUP5 ADD MSTORE PUSH1 0x1F NOT PUSH1 0x1F DUP3 ADD AND SWAP1 POP DUP1 DUP4 ADD SWAP3 POP POP POP POP POP POP POP DUP3 PUSH2 0x4E5 SWAP1 SWAP2 SWAP1 PUSH4 0xFFFFFFFF AND JUMP JUMPDEST JUMPDEST PUSH1 0x0 DUP5 DUP5 SWAP1 POP GT ISZERO PUSH2 0x282 JUMPI PUSH2 0x281 DUP5 DUP5 SWAP1 PUSH2 0x272 SWAP2 SWAP1 PUSH2 0x1E72 JUMP JUMPDEST DUP3 PUSH2 0x55F SWAP1 SWAP2 SWAP1 PUSH4 0xFFFFFFFF AND JUMP JUMPDEST JUMPDEST PUSH1 0x0 PUSH2 0x28D DUP3 PUSH2 0x5A8 JUMP JUMPDEST SWAP1 POP DUP1 PUSH1 0x4 DUP2 SWAP1 SSTORE POP DUP1 SWAP3 POP POP POP SWAP8 SWAP7 POP POP POP POP POP POP POP JUMP JUMPDEST PUSH1 0x5 DUP1 SLOAD PUSH2 0x2B3 SWAP1 PUSH2 0x1EC9 JUMP JUMPDEST DUP1 PUSH1 0x1F ADD PUSH1 0x20 DUP1 SWAP2 DIV MUL PUSH1 0x20 ADD PUSH1 0x40 MLOAD SWAP1 DUP2 ADD PUSH1 0x40 MSTORE DUP1 SWAP3 SWAP2 SWAP1 DUP2 DUP2 MSTORE PUSH1 0x20 ADD DUP3 DUP1 SLOAD PUSH2 0x2DF SWAP1 PUSH2 0x1EC9 JUMP JUMPDEST DUP1 ISZERO PUSH2 0x32C JUMPI DUP1 PUSH1 0x1F LT PUSH2 0x301 JUMPI PUSH2 0x100 DUP1 DUP4 SLOAD DIV MUL DUP4 MSTORE SWAP2 PUSH1 0x20 ADD SWAP2 PUSH2 0x32C JUMP JUMPDEST DUP3 ADD SWAP2 SWAP1 PUSH1 0x0 MSTORE PUSH1 0x20 PUSH1 0x0 KECCAK256 SWAP1 JUMPDEST DUP2 SLOAD DUP2 MSTORE SWAP1 PUSH1 0x1 ADD SWAP1 PUSH1 0x20 ADD DUP1 DUP4 GT PUSH2 0x30F JUMPI DUP3 SWAP1 SUB PUSH1 0x1F AND DUP3 ADD SWAP2 JUMPDEST POP POP POP POP POP DUP2 JUMP JUMPDEST PUSH1 0x6 DUP1 SLOAD PUSH2 0x341 SWAP1 PUSH2 0x1EC9 JUMP JUMPDEST DUP1 PUSH1 0x1F ADD PUSH1 0x20 DUP1 SWAP2 DIV MUL PUSH1 0x20 ADD PUSH1 0x40 MLOAD SWAP1 DUP2 ADD PUSH1 0x40 MSTORE DUP1 SWAP3 SWAP2 SWAP1 DUP2 DUP2 MSTORE PUSH1 0x20 ADD DUP3 DUP1 SLOAD PUSH2 0x36D SWAP1 PUSH2 0x1EC9 JUMP JUMPDEST DUP1 ISZERO PUSH2 0x3BA JUMPI DUP1 PUSH1 0x1F LT PUSH2 0x38F JUMPI PUSH2 0x100 DUP1 DUP4 SLOAD DIV MUL DUP4 MSTORE SWAP2 PUSH1 0x20 ADD SWAP2 PUSH2 0x3BA JUMP JUMPDEST DUP3 ADD SWAP2 SWAP1 PUSH1 0x0 MSTORE PUSH1 0x20 PUSH1 0x0 KECCAK256 SWAP1 JUMPDEST DUP2 SLOAD DUP2 MSTORE SWAP1 PUSH1 0x1 ADD SWAP1 PUSH1 0x20 ADD DUP1 DUP4 GT PUSH2 0x39D JUMPI DUP3 SWAP1 SUB PUSH1 0x1F AND DUP3 ADD SWAP2 JUMPDEST POP POP POP POP POP DUP2 JUMP JUMPDEST DUP2 PUSH1 0x5 SWAP1 DUP1 MLOAD SWAP1 PUSH1 0x20 ADD SWAP1 PUSH2 0x3D8 SWAP3 SWAP2 SWAP1 PUSH2 0x12E5 JUMP JUMPDEST POP DUP1 PUSH1 0x6 SWAP1 DUP1 MLOAD SWAP1 PUSH1 0x20 ADD SWAP1 PUSH2 0x3EF SWAP3 SWAP2 SWAP1 PUSH2 0x12E5 JUMP JUMPDEST POP DUP3 PUSH32 0x51732BD592D531E70A33BA1A99EA425D26FA7CB95AAF81189A1B2A0E7649EDC9 DUP4 DUP4 PUSH1 0x40 MLOAD PUSH2 0x422 SWAP3 SWAP2 SWAP1 PUSH2 0x1A59 JUMP JUMPDEST PUSH1 0x40 MLOAD DUP1 SWAP2 SUB SWAP1 LOG2 POP POP POP JUMP JUMPDEST PUSH1 0x0 DUP3 MLOAD EQ ISZERO PUSH2 0x46B JUMPI PUSH1 0x40 MLOAD PUSH32 0x22CE3EDD00000000000000000000000000000000000000000000000000000000 DUP2 MSTORE PUSH1 0x4 ADD PUSH1 0x40 MLOAD DUP1 SWAP2 SUB SWAP1 REVERT JUMPDEST DUP4 DUP6 PUSH1 0x0 ADD SWAP1 PUSH1 0x1 DUP2 GT ISZERO PUSH2 0x483 JUMPI PUSH2 0x482 PUSH2 0x2004 JUMP JUMPDEST JUMPDEST SWAP1 DUP2 PUSH1 0x1 DUP2 GT ISZERO PUSH2 0x497 JUMPI PUSH2 0x496 PUSH2 0x2004 JUMP JUMPDEST JUMPDEST DUP2 MSTORE POP POP DUP3 DUP6 PUSH1 0x40 ADD SWAP1 PUSH1 0x0 DUP2 GT ISZERO PUSH2 0x4B3 JUMPI PUSH2 0x4B2 PUSH2 0x2004 JUMP JUMPDEST JUMPDEST SWAP1 DUP2 PUSH1 0x0 DUP2 GT ISZERO PUSH2 0x4C7 JUMPI PUSH2 0x4C6 PUSH2 0x2004 JUMP JUMPDEST JUMPDEST DUP2 MSTORE POP POP DUP2 DUP6 PUSH1 0x80 ADD DUP2 SWAP1 MSTORE POP DUP1 DUP6 PUSH1 0x60 ADD DUP2 DUP2 MSTORE POP POP POP POP POP POP POP JUMP JUMPDEST PUSH1 0x0 DUP2 MLOAD EQ ISZERO PUSH2 0x521 JUMPI PUSH1 0x40 MLOAD PUSH32 0xE889636F00000000000000000000000000000000000000000000000000000000 DUP2 MSTORE PUSH1 0x4 ADD PUSH1 0x40 MLOAD DUP1 SWAP2 SUB SWAP1 REVERT JUMPDEST PUSH1 0x1 DUP3 PUSH1 0x20 ADD SWAP1 PUSH1 0x1 DUP2 GT ISZERO PUSH2 0x53A JUMPI PUSH2 0x539 PUSH2 0x2004 JUMP JUMPDEST JUMPDEST SWAP1 DUP2 PUSH1 0x1 DUP2 GT ISZERO PUSH2 0x54E JUMPI PUSH2 0x54D PUSH2 0x2004 JUMP JUMPDEST JUMPDEST DUP2 MSTORE POP POP DUP1 DUP3 PUSH1 0xA0 ADD DUP2 SWAP1 MSTORE POP POP POP JUMP JUMPDEST PUSH1 0x0 DUP2 MLOAD EQ ISZERO PUSH2 0x59B JUMPI PUSH1 0x40 MLOAD PUSH32 0xFE936CB700000000000000000000000000000000000000000000000000000000 DUP2 MSTORE PUSH1 0x4 ADD PUSH1 0x40 MLOAD DUP1 SWAP2 SUB SWAP1 REVERT JUMPDEST DUP1 DUP3 PUSH1 0xC0 ADD DUP2 SWAP1 MSTORE POP POP POP JUMP JUMPDEST PUSH1 0x0 DUP1 PUSH1 0x2 PUSH1 0x0 SWAP1 SLOAD SWAP1 PUSH2 0x100 EXP SWAP1 DIV PUSH20 0xFFFFFFFFFFFFFFFFFFFFFFFFFFFFFFFFFFFFFFFF AND PUSH20 0xFFFFFFFFFFFFFFFFFFFFFFFFFFFFFFFFFFFFFFFF AND PUSH4 0xEDD3159D PUSH1 0x40 MLOAD DUP2 PUSH4 0xFFFFFFFF AND PUSH1 0xE0 SHL DUP2 MSTORE PUSH1 0x4 ADD PUSH1 0x20 PUSH1 0x40 MLOAD DUP1 DUP4 SUB DUP2 DUP7 DUP1 EXTCODESIZE ISZERO DUP1 ISZERO PUSH2 0x613 JUMPI PUSH1 0x0 DUP1 REVERT JUMPDEST POP GAS STATICCALL ISZERO DUP1 ISZERO PUSH2 0x627 JUMPI RETURNDATASIZE PUSH1 0x0 DUP1 RETURNDATACOPY RETURNDATASIZE PUSH1 0x0 REVERT JUMPDEST POP POP POP POP PUSH1 0x40 MLOAD RETURNDATASIZE PUSH1 0x1F NOT PUSH1 0x1F DUP3 ADD AND DUP3 ADD DUP1 PUSH1 0x40 MSTORE POP DUP2 ADD SWAP1 PUSH2 0x64B SWAP2 SWAP1 PUSH2 0x191B JUMP JUMPDEST SWAP1 POP PUSH1 0x0 PUSH1 0x3 PUSH1 0x0 SWAP1 SLOAD SWAP1 PUSH2 0x100 EXP SWAP1 DIV PUSH20 0xFFFFFFFFFFFFFFFFFFFFFFFFFFFFFFFFFFFFFFFF AND PUSH20 0xFFFFFFFFFFFFFFFFFFFFFFFFFFFFFFFFFFFFFFFF AND PUSH4 0x9885E3B4 DUP6 PUSH1 0x60 ADD MLOAD PUSH1 0x40 MLOAD DUP3 PUSH4 0xFFFFFFFF AND PUSH1 0xE0 SHL DUP2 MSTORE PUSH1 0x4 ADD PUSH2 0x6AE SWAP2 SWAP1 PUSH2 0x19EC JUMP JUMPDEST PUSH1 0x20 PUSH1 0x40 MLOAD DUP1 DUP4 SUB DUP2 DUP7 DUP1 EXTCODESIZE ISZERO DUP1 ISZERO PUSH2 0x6C6 JUMPI PUSH1 0x0 DUP1 REVERT JUMPDEST POP GAS STATICCALL ISZERO DUP1 ISZERO PUSH2 0x6DA JUMPI RETURNDATASIZE PUSH1 0x0 DUP1 RETURNDATACOPY RETURNDATASIZE PUSH1 0x0 REVERT JUMPDEST POP POP POP POP PUSH1 0x40 MLOAD RETURNDATASIZE PUSH1 0x1F NOT PUSH1 0x1F DUP3 ADD AND DUP3 ADD DUP1 PUSH1 0x40 MSTORE POP DUP2 ADD SWAP1 PUSH2 0x6FE SWAP2 SWAP1 PUSH2 0x1724 JUMP JUMPDEST SWAP1 POP PUSH1 0x0 PUSH20 0xFFFFFFFFFFFFFFFFFFFFFFFFFFFFFFFFFFFFFFFF AND DUP2 PUSH20 0xFFFFFFFFFFFFFFFFFFFFFFFFFFFFFFFFFFFFFFFF AND EQ ISZERO PUSH2 0x770 JUMPI PUSH1 0x40 MLOAD PUSH32 0x8C379A000000000000000000000000000000000000000000000000000000000 DUP2 MSTORE PUSH1 0x4 ADD PUSH2 0x767 SWAP1 PUSH2 0x1A90 JUMP JUMPDEST PUSH1 0x40 MLOAD DUP1 SWAP2 SUB SWAP1 REVERT JUMPDEST PUSH1 0x0 DUP2 SWAP1 POP PUSH1 0x0 DUP2 PUSH20 0xFFFFFFFFFFFFFFFFFFFFFFFFFFFFFFFFFFFFFFFF AND PUSH4 0xAB9FA5ED PUSH1 0x40 MLOAD DUP2 PUSH4 0xFFFFFFFF AND PUSH1 0xE0 SHL DUP2 MSTORE PUSH1 0x4 ADD PUSH1 0x0 PUSH1 0x40 MLOAD DUP1 DUP4 SUB DUP2 PUSH1 0x0 DUP8 DUP1 EXTCODESIZE ISZERO DUP1 ISZERO PUSH2 0x7BF JUMPI PUSH1 0x0 DUP1 REVERT JUMPDEST POP GAS CALL ISZERO DUP1 ISZERO PUSH2 0x7D3 JUMPI RETURNDATASIZE PUSH1 0x0 DUP1 RETURNDATACOPY RETURNDATASIZE PUSH1 0x0 REVERT JUMPDEST POP POP POP POP PUSH1 0x40 MLOAD RETURNDATASIZE PUSH1 0x0 DUP3 RETURNDATACOPY RETURNDATASIZE PUSH1 0x1F NOT PUSH1 0x1F DUP3 ADD AND DUP3 ADD DUP1 PUSH1 0x40 MSTORE POP DUP2 ADD SWAP1 PUSH2 0x7FC SWAP2 SWAP1 PUSH2 0x1751 JUMP JUMPDEST SWAP1 POP PUSH1 0x0 DUP2 MLOAD DUP6 PUSH2 0x80D SWAP2 SWAP1 PUSH2 0x1F75 JUMP JUMPDEST SWAP1 POP PUSH1 0x0 DUP3 DUP3 DUP2 MLOAD DUP2 LT PUSH2 0x824 JUMPI PUSH2 0x823 PUSH2 0x2062 JUMP JUMPDEST JUMPDEST PUSH1 0x20 MUL PUSH1 0x20 ADD ADD MLOAD SWAP1 POP PUSH1 0x0 DUP5 PUSH20 0xFFFFFFFFFFFFFFFFFFFFFFFFFFFFFFFFFFFFFFFF AND PUSH4 0x5FD4B08A DUP4 PUSH1 0x40 MLOAD DUP3 PUSH4 0xFFFFFFFF AND PUSH1 0xE0 SHL DUP2 MSTORE PUSH1 0x4 ADD PUSH2 0x869 SWAP2 SWAP1 PUSH2 0x19D1 JUMP JUMPDEST PUSH1 0x20 PUSH1 0x40 MLOAD DUP1 DUP4 SUB DUP2 DUP7 DUP1 EXTCODESIZE ISZERO DUP1 ISZERO PUSH2 0x881 JUMPI PUSH1 0x0 DUP1 REVERT JUMPDEST POP GAS STATICCALL ISZERO DUP1 ISZERO PUSH2 0x895 JUMPI RETURNDATASIZE PUSH1 0x0 DUP1 RETURNDATACOPY RETURNDATASIZE PUSH1 0x0 REVERT JUMPDEST POP POP POP POP PUSH1 0x40 MLOAD RETURNDATASIZE PUSH1 0x1F NOT PUSH1 0x1F DUP3 ADD AND DUP3 ADD DUP1 PUSH1 0x40 MSTORE POP DUP2 ADD SWAP1 PUSH2 0x8B9 SWAP2 SWAP1 PUSH2 0x179A JUMP JUMPDEST SWAP1 POP PUSH1 0x0 DUP1 PUSH1 0x0 SWAP1 SLOAD SWAP1 PUSH2 0x100 EXP SWAP1 DIV PUSH20 0xFFFFFFFFFFFFFFFFFFFFFFFFFFFFFFFFFFFFFFFF AND PUSH20 0xFFFFFFFFFFFFFFFFFFFFFFFFFFFFFFFFFFFFFFFF AND PUSH4 0x41DAE33 DUP4 PUSH2 0x904 DUP14 PUSH2 0xA1B JUMP JUMPDEST PUSH1 0x40 MLOAD DUP4 PUSH4 0xFFFFFFFF AND PUSH1 0xE0 SHL DUP2 MSTORE PUSH1 0x4 ADD PUSH2 0x921 SWAP3 SWAP2 SWAP1 PUSH2 0x1A07 JUMP JUMPDEST PUSH1 0x20 PUSH1 0x40 MLOAD DUP1 DUP4 SUB DUP2 PUSH1 0x0 DUP8 DUP1 EXTCODESIZE ISZERO DUP1 ISZERO PUSH2 0x93B JUMPI PUSH1 0x0 DUP1 REVERT JUMPDEST POP GAS CALL ISZERO DUP1 ISZERO PUSH2 0x94F JUMPI RETURNDATASIZE PUSH1 0x0 DUP1 RETURNDATACOPY RETURNDATASIZE PUSH1 0x0 REVERT JUMPDEST POP POP POP POP PUSH1 0x40 MLOAD RETURNDATASIZE PUSH1 0x1F NOT PUSH1 0x1F DUP3 ADD AND DUP3 ADD DUP1 PUSH1 0x40 MSTORE POP DUP2 ADD SWAP1 PUSH2 0x973 SWAP2 SWAP1 PUSH2 0x179A JUMP JUMPDEST SWAP1 POP ORIGIN PUSH1 0x1 PUSH1 0x0 DUP4 DUP2 MSTORE PUSH1 0x20 ADD SWAP1 DUP2 MSTORE PUSH1 0x20 ADD PUSH1 0x0 KECCAK256 PUSH1 0x0 PUSH2 0x100 EXP DUP2 SLOAD DUP2 PUSH20 0xFFFFFFFFFFFFFFFFFFFFFFFFFFFFFFFFFFFFFFFF MUL NOT AND SWAP1 DUP4 PUSH20 0xFFFFFFFFFFFFFFFFFFFFFFFFFFFFFFFFFFFFFFFF AND MUL OR SWAP1 SSTORE POP DUP3 PUSH20 0xFFFFFFFFFFFFFFFFFFFFFFFFFFFFFFFFFFFFFFFF AND DUP2 PUSH32 0x91F0D67C2F27ABD6CFC317E120D5E80B31E97B9926B65D3887E59402FB20ADFB PUSH1 0x40 MLOAD PUSH1 0x40 MLOAD DUP1 SWAP2 SUB SWAP1 LOG3 DUP1 SWAP9 POP POP POP POP POP POP POP POP POP SWAP2 SWAP1 POP JUMP JUMPDEST PUSH1 0x60 PUSH2 0xA25 PUSH2 0x136B JUMP JUMPDEST PUSH2 0xA35 DUP2 PUSH1 0x0 ADD MLOAD PUSH2 0x100 PUSH2 0xD1C JUMP JUMPDEST POP PUSH2 0xA75 DUP2 PUSH1 0x40 MLOAD DUP1 PUSH1 0x40 ADD PUSH1 0x40 MSTORE DUP1 PUSH1 0xC DUP2 MSTORE PUSH1 0x20 ADD PUSH32 0x636F64654C6F636174696F6E0000000000000000000000000000000000000000 DUP2 MSTORE POP PUSH2 0xD95 JUMP JUMPDEST PUSH2 0xA95 DUP2 DUP5 PUSH1 0x0 ADD MLOAD PUSH1 0x1 DUP2 GT ISZERO PUSH2 0xA90 JUMPI PUSH2 0xA8F PUSH2 0x2004 JUMP JUMPDEST JUMPDEST PUSH2 0xDBE JUMP JUMPDEST PUSH2 0xAD4 DUP2 PUSH1 0x40 MLOAD DUP1 PUSH1 0x40 ADD PUSH1 0x40 MSTORE DUP1 PUSH1 0x8 DUP2 MSTORE PUSH1 0x20 ADD PUSH32 0x6C616E6775616765000000000000000000000000000000000000000000000000 DUP2 MSTORE POP PUSH2 0xD95 JUMP JUMPDEST PUSH2 0xAF4 DUP2 DUP5 PUSH1 0x40 ADD MLOAD PUSH1 0x0 DUP2 GT ISZERO PUSH2 0xAEF JUMPI PUSH2 0xAEE PUSH2 0x2004 JUMP JUMPDEST JUMPDEST PUSH2 0xDBE JUMP JUMPDEST PUSH2 0xB33 DUP2 PUSH1 0x40 MLOAD DUP1 PUSH1 0x40 ADD PUSH1 0x40 MSTORE DUP1 PUSH1 0x6 DUP2 MSTORE PUSH1 0x20 ADD PUSH32 0x736F757263650000000000000000000000000000000000000000000000000000 DUP2 MSTORE POP PUSH2 0xD95 JUMP JUMPDEST PUSH2 0xB41 DUP2 DUP5 PUSH1 0x80 ADD MLOAD PUSH2 0xD95 JUMP JUMPDEST PUSH1 0x0 DUP4 PUSH1 0xC0 ADD MLOAD MLOAD GT ISZERO PUSH2 0xBED JUMPI PUSH2 0xB8E DUP2 PUSH1 0x40 MLOAD DUP1 PUSH1 0x40 ADD PUSH1 0x40 MSTORE DUP1 PUSH1 0x4 DUP2 MSTORE PUSH1 0x20 ADD PUSH32 0x6172677300000000000000000000000000000000000000000000000000000000 DUP2 MSTORE POP PUSH2 0xD95 JUMP JUMPDEST PUSH2 0xB97 DUP2 PUSH2 0xE0E JUMP JUMPDEST PUSH1 0x0 JUMPDEST DUP4 PUSH1 0xC0 ADD MLOAD MLOAD DUP2 LT ISZERO PUSH2 0xBE2 JUMPI PUSH2 0xBCF DUP3 DUP6 PUSH1 0xC0 ADD MLOAD DUP4 DUP2 MLOAD DUP2 LT PUSH2 0xBC2 JUMPI PUSH2 0xBC1 PUSH2 0x2062 JUMP JUMPDEST JUMPDEST PUSH1 0x20 MUL PUSH1 0x20 ADD ADD MLOAD PUSH2 0xD95 JUMP JUMPDEST DUP1 DUP1 PUSH2 0xBDA SWAP1 PUSH2 0x1F2C JUMP JUMPDEST SWAP2 POP POP PUSH2 0xB9A JUMP JUMPDEST POP PUSH2 0xBEC DUP2 PUSH2 0xE36 JUMP JUMPDEST JUMPDEST PUSH1 0x0 DUP4 PUSH1 0xA0 ADD MLOAD MLOAD GT ISZERO PUSH2 0xD0B JUMPI PUSH1 0x0 PUSH1 0x1 DUP2 GT ISZERO PUSH2 0xC0F JUMPI PUSH2 0xC0E PUSH2 0x2004 JUMP JUMPDEST JUMPDEST DUP4 PUSH1 0x20 ADD MLOAD PUSH1 0x1 DUP2 GT ISZERO PUSH2 0xC26 JUMPI PUSH2 0xC25 PUSH2 0x2004 JUMP JUMPDEST JUMPDEST EQ ISZERO PUSH2 0xC5E JUMPI PUSH1 0x40 MLOAD PUSH32 0xA80D31F700000000000000000000000000000000000000000000000000000000 DUP2 MSTORE PUSH1 0x4 ADD PUSH1 0x40 MLOAD DUP1 SWAP2 SUB SWAP1 REVERT JUMPDEST PUSH2 0xC9D DUP2 PUSH1 0x40 MLOAD DUP1 PUSH1 0x40 ADD PUSH1 0x40 MSTORE DUP1 PUSH1 0xF DUP2 MSTORE PUSH1 0x20 ADD PUSH32 0x736563726574734C6F636174696F6E0000000000000000000000000000000000 DUP2 MSTORE POP PUSH2 0xD95 JUMP JUMPDEST PUSH2 0xCBD DUP2 DUP5 PUSH1 0x20 ADD MLOAD PUSH1 0x1 DUP2 GT ISZERO PUSH2 0xCB8 JUMPI PUSH2 0xCB7 PUSH2 0x2004 JUMP JUMPDEST JUMPDEST PUSH2 0xDBE JUMP JUMPDEST PUSH2 0xCFC DUP2 PUSH1 0x40 MLOAD DUP1 PUSH1 0x40 ADD PUSH1 0x40 MSTORE DUP1 PUSH1 0x7 DUP2 MSTORE PUSH1 0x20 ADD PUSH32 0x7365637265747300000000000000000000000000000000000000000000000000 DUP2 MSTORE POP PUSH2 0xD95 JUMP JUMPDEST PUSH2 0xD0A DUP2 DUP5 PUSH1 0xA0 ADD MLOAD PUSH2 0xE5E JUMP JUMPDEST JUMPDEST DUP1 PUSH1 0x0 ADD MLOAD PUSH1 0x0 ADD MLOAD SWAP2 POP POP SWAP2 SWAP1 POP JUMP JUMPDEST PUSH2 0xD24 PUSH2 0x138B JUMP JUMPDEST PUSH1 0x0 PUSH1 0x20 DUP4 PUSH2 0xD33 SWAP2 SWAP1 PUSH2 0x1F75 JUMP JUMPDEST EQ PUSH2 0xD5F JUMPI PUSH1 0x20 DUP3 PUSH2 0xD45 SWAP2 SWAP1 PUSH2 0x1F75 JUMP JUMPDEST PUSH1 0x20 PUSH2 0xD51 SWAP2 SWAP1 PUSH2 0x1DF8 JUMP JUMPDEST DUP3 PUSH2 0xD5C SWAP2 SWAP1 PUSH2 0x1BD7 JUMP JUMPDEST SWAP2 POP JUMPDEST DUP2 DUP4 PUSH1 0x20 ADD DUP2 DUP2 MSTORE POP POP PUSH1 0x40 MLOAD DUP1 DUP5 MSTORE PUSH1 0x0 DUP2 MSTORE DUP3 DUP2 ADD PUSH1 0x20 ADD DUP2 DUP2 LT ISZERO PUSH2 0xD86 JUMPI PUSH1 0x0 DUP1 REVERT JUMPDEST DUP1 PUSH1 0x40 MSTORE POP POP DUP3 SWAP1 POP SWAP3 SWAP2 POP POP JUMP JUMPDEST PUSH2 0xDA2 DUP3 PUSH1 0x3 DUP4 MLOAD PUSH2 0xE87 JUMP JUMPDEST PUSH2 0xDB9 DUP2 DUP4 PUSH1 0x0 ADD MLOAD PUSH2 0x1030 SWAP1 SWAP2 SWAP1 PUSH4 0xFFFFFFFF AND JUMP JUMPDEST POP POP POP JUMP JUMPDEST PUSH2 0xDE0 PUSH1 0x2 PUSH1 0x5 PUSH1 0x6 PUSH1 0xFF AND SWAP1 SHL OR DUP4 PUSH1 0x0 ADD MLOAD PUSH2 0x104C SWAP1 SWAP2 SWAP1 PUSH4 0xFFFFFFFF AND JUMP JUMPDEST POP PUSH2 0xE0A DUP3 DUP3 PUSH1 0x40 MLOAD PUSH1 0x20 ADD PUSH2 0xDF6 SWAP2 SWAP1 PUSH2 0x1AB0 JUMP JUMPDEST PUSH1 0x40 MLOAD PUSH1 0x20 DUP2 DUP4 SUB SUB DUP2 MSTORE SWAP1 PUSH1 0x40 MSTORE PUSH2 0xE5E JUMP JUMPDEST POP POP JUMP JUMPDEST PUSH2 0xE19 DUP2 PUSH1 0x4 PUSH2 0x10B6 JUMP JUMPDEST PUSH1 0x1 DUP2 PUSH1 0x20 ADD DUP2 DUP2 MLOAD PUSH2 0xE2C SWAP2 SWAP1 PUSH2 0x1BD7 JUMP JUMPDEST SWAP2 POP DUP2 DUP2 MSTORE POP POP POP JUMP JUMPDEST PUSH2 0xE41 DUP2 PUSH1 0x7 PUSH2 0x10B6 JUMP JUMPDEST PUSH1 0x1 DUP2 PUSH1 0x20 ADD DUP2 DUP2 MLOAD PUSH2 0xE54 SWAP2 SWAP1 PUSH2 0x1DF8 JUMP JUMPDEST SWAP2 POP DUP2 DUP2 MSTORE POP POP POP JUMP JUMPDEST PUSH2 0xE6B DUP3 PUSH1 0x2 DUP4 MLOAD PUSH2 0xE87 JUMP JUMPDEST PUSH2 0xE82 DUP2 DUP4 PUSH1 0x0 ADD MLOAD PUSH2 0x1030 SWAP1 SWAP2 SWAP1 PUSH4 0xFFFFFFFF AND JUMP JUMPDEST POP POP POP JUMP JUMPDEST PUSH1 0x17 DUP2 PUSH8 0xFFFFFFFFFFFFFFFF AND GT PUSH2 0xEC2 JUMPI PUSH2 0xEBC DUP2 PUSH1 0x5 DUP5 PUSH1 0xFF AND SWAP1 SHL PUSH1 0xFF AND OR DUP5 PUSH1 0x0 ADD MLOAD PUSH2 0x104C SWAP1 SWAP2 SWAP1 PUSH4 0xFFFFFFFF AND JUMP JUMPDEST POP PUSH2 0x102B JUMP JUMPDEST PUSH1 0xFF DUP2 PUSH8 0xFFFFFFFFFFFFFFFF AND GT PUSH2 0xF20 JUMPI PUSH2 0xEF5 PUSH1 0x18 PUSH1 0x5 DUP5 PUSH1 0xFF AND SWAP1 SHL OR DUP5 PUSH1 0x0 ADD MLOAD PUSH2 0x104C SWAP1 SWAP2 SWAP1 PUSH4 0xFFFFFFFF AND JUMP JUMPDEST POP PUSH2 0xF1A DUP2 PUSH8 0xFFFFFFFFFFFFFFFF AND PUSH1 0x1 DUP6 PUSH1 0x0 ADD MLOAD PUSH2 0x10DC SWAP1 SWAP3 SWAP2 SWAP1 PUSH4 0xFFFFFFFF AND JUMP JUMPDEST POP PUSH2 0x102A JUMP JUMPDEST PUSH2 0xFFFF DUP2 PUSH8 0xFFFFFFFFFFFFFFFF AND GT PUSH2 0xF7F JUMPI PUSH2 0xF54 PUSH1 0x19 PUSH1 0x5 DUP5 PUSH1 0xFF AND SWAP1 SHL OR DUP5 PUSH1 0x0 ADD MLOAD PUSH2 0x104C SWAP1 SWAP2 SWAP1 PUSH4 0xFFFFFFFF AND JUMP JUMPDEST POP PUSH2 0xF79 DUP2 PUSH8 0xFFFFFFFFFFFFFFFF AND PUSH1 0x2 DUP6 PUSH1 0x0 ADD MLOAD PUSH2 0x10DC SWAP1 SWAP3 SWAP2 SWAP1 PUSH4 0xFFFFFFFF AND JUMP JUMPDEST POP PUSH2 0x1029 JUMP JUMPDEST PUSH4 0xFFFFFFFF DUP2 PUSH8 0xFFFFFFFFFFFFFFFF AND GT PUSH2 0xFE0 JUMPI PUSH2 0xFB5 PUSH1 0x1A PUSH1 0x5 DUP5 PUSH1 0xFF AND SWAP1 SHL OR DUP5 PUSH1 0x0 ADD MLOAD PUSH2 0x104C SWAP1 SWAP2 SWAP1 PUSH4 0xFFFFFFFF AND JUMP JUMPDEST POP PUSH2 0xFDA DUP2 PUSH8 0xFFFFFFFFFFFFFFFF AND PUSH1 0x4 DUP6 PUSH1 0x0 ADD MLOAD PUSH2 0x10DC SWAP1 SWAP3 SWAP2 SWAP1 PUSH4 0xFFFFFFFF AND JUMP JUMPDEST POP PUSH2 0x1028 JUMP JUMPDEST PUSH2 0x1001 PUSH1 0x1B PUSH1 0x5 DUP5 PUSH1 0xFF AND SWAP1 SHL OR DUP5 PUSH1 0x0 ADD MLOAD PUSH2 0x104C SWAP1 SWAP2 SWAP1 PUSH4 0xFFFFFFFF AND JUMP JUMPDEST POP PUSH2 0x1026 DUP2 PUSH8 0xFFFFFFFFFFFFFFFF AND PUSH1 0x8 DUP6 PUSH1 0x0 ADD MLOAD PUSH2 0x10DC SWAP1 SWAP3 SWAP2 SWAP1 PUSH4 0xFFFFFFFF AND JUMP JUMPDEST POP JUMPDEST JUMPDEST JUMPDEST JUMPDEST POP POP POP JUMP JUMPDEST PUSH2 0x1038 PUSH2 0x138B JUMP JUMPDEST PUSH2 0x1044 DUP4 DUP4 DUP5 MLOAD PUSH2 0x1169 JUMP JUMPDEST SWAP1 POP SWAP3 SWAP2 POP POP JUMP JUMPDEST PUSH2 0x1054 PUSH2 0x138B JUMP JUMPDEST PUSH1 0x0 DUP4 PUSH1 0x0 ADD MLOAD MLOAD SWAP1 POP PUSH1 0x0 PUSH1 0x1 DUP3 PUSH2 0x106D SWAP2 SWAP1 PUSH2 0x1BD7 JUMP JUMPDEST SWAP1 POP DUP5 PUSH1 0x20 ADD MLOAD DUP3 LT PUSH2 0x1091 JUMPI PUSH2 0x1090 DUP6 PUSH1 0x2 DUP4 PUSH2 0x108B SWAP2 SWAP1 PUSH2 0x1D9E JUMP JUMPDEST PUSH2 0x124C JUMP JUMPDEST JUMPDEST DUP5 MLOAD PUSH1 0x20 DUP4 DUP3 ADD ADD DUP6 DUP2 MSTORE8 DUP2 MLOAD DUP4 GT ISZERO PUSH2 0x10A9 JUMPI DUP3 DUP3 MSTORE JUMPDEST POP POP DUP5 SWAP3 POP POP POP SWAP3 SWAP2 POP POP JUMP JUMPDEST PUSH2 0x10D7 PUSH1 0x1F PUSH1 0x5 DUP4 PUSH1 0xFF AND SWAP1 SHL OR DUP4 PUSH1 0x0 ADD MLOAD PUSH2 0x104C SWAP1 SWAP2 SWAP1 PUSH4 0xFFFFFFFF AND JUMP JUMPDEST POP POP POP JUMP JUMPDEST PUSH2 0x10E4 PUSH2 0x138B JUMP JUMPDEST PUSH1 0x0 DUP5 PUSH1 0x0 ADD MLOAD MLOAD SWAP1 POP PUSH1 0x0 DUP2 DUP5 PUSH2 0x10FC SWAP2 SWAP1 PUSH2 0x1BD7 JUMP JUMPDEST SWAP1 POP DUP6 PUSH1 0x20 ADD MLOAD DUP2 GT ISZERO PUSH2 0x1121 JUMPI PUSH2 0x1120 DUP7 PUSH1 0x2 DUP4 PUSH2 0x111B SWAP2 SWAP1 PUSH2 0x1D9E JUMP JUMPDEST PUSH2 0x124C JUMP JUMPDEST JUMPDEST PUSH1 0x0 PUSH1 0x1 DUP6 PUSH2 0x100 PUSH2 0x1133 SWAP2 SWAP1 PUSH2 0x1C80 JUMP JUMPDEST PUSH2 0x113D SWAP2 SWAP1 PUSH2 0x1DF8 JUMP JUMPDEST SWAP1 POP DUP7 MLOAD DUP3 DUP2 ADD DUP8 DUP4 NOT DUP3 MLOAD AND OR DUP2 MSTORE DUP2 MLOAD DUP5 GT ISZERO PUSH2 0x115A JUMPI DUP4 DUP3 MSTORE JUMPDEST POP POP DUP7 SWAP4 POP POP POP POP SWAP4 SWAP3 POP POP POP JUMP JUMPDEST PUSH2 0x1171 PUSH2 0x138B JUMP JUMPDEST DUP3 MLOAD DUP3 GT ISZERO PUSH2 0x117F JUMPI PUSH1 0x0 DUP1 REVERT JUMPDEST PUSH1 0x0 DUP5 PUSH1 0x0 ADD MLOAD MLOAD SWAP1 POP PUSH1 0x0 DUP4 DUP3 PUSH2 0x1197 SWAP2 SWAP1 PUSH2 0x1BD7 JUMP JUMPDEST SWAP1 POP DUP6 PUSH1 0x20 ADD MLOAD DUP2 GT ISZERO PUSH2 0x11BC JUMPI PUSH2 0x11BB DUP7 PUSH1 0x2 DUP4 PUSH2 0x11B6 SWAP2 SWAP1 PUSH2 0x1D9E JUMP JUMPDEST PUSH2 0x124C JUMP JUMPDEST JUMPDEST PUSH1 0x0 DUP1 DUP8 MLOAD DUP1 MLOAD DUP6 PUSH1 0x20 DUP4 ADD ADD SWAP4 POP DUP1 DUP6 GT ISZERO PUSH2 0x11D7 JUMPI DUP5 DUP3 MSTORE JUMPDEST PUSH1 0x20 DUP10 ADD SWAP3 POP POP POP JUMPDEST PUSH1 0x20 DUP7 LT PUSH2 0x121E JUMPI DUP1 MLOAD DUP3 MSTORE PUSH1 0x20 DUP3 PUSH2 0x11F9 SWAP2 SWAP1 PUSH2 0x1BD7 JUMP JUMPDEST SWAP2 POP PUSH1 0x20 DUP2 PUSH2 0x1208 SWAP2 SWAP1 PUSH2 0x1BD7 JUMP JUMPDEST SWAP1 POP PUSH1 0x20 DUP7 PUSH2 0x1217 SWAP2 SWAP1 PUSH2 0x1DF8 JUMP JUMPDEST SWAP6 POP PUSH2 0x11E0 JUMP JUMPDEST PUSH1 0x0 PUSH1 0x1 DUP8 PUSH1 0x20 SUB PUSH2 0x100 EXP SUB SWAP1 POP DUP1 NOT DUP3 MLOAD AND DUP2 DUP5 MLOAD AND DUP2 DUP2 OR DUP6 MSTORE POP POP POP DUP8 SWAP5 POP POP POP POP POP SWAP4 SWAP3 POP POP POP JUMP JUMPDEST PUSH1 0x0 DUP3 PUSH1 0x0 ADD MLOAD SWAP1 POP PUSH2 0x125F DUP4 DUP4 PUSH2 0xD1C JUMP JUMPDEST POP PUSH2 0x126A DUP4 DUP3 PUSH2 0x1030 JUMP JUMPDEST POP POP POP POP JUMP JUMPDEST PUSH1 0x40 MLOAD DUP1 PUSH1 0xE0 ADD PUSH1 0x40 MSTORE DUP1 PUSH1 0x0 PUSH1 0x1 DUP2 GT ISZERO PUSH2 0x128F JUMPI PUSH2 0x128E PUSH2 0x2004 JUMP JUMPDEST JUMPDEST DUP2 MSTORE PUSH1 0x20 ADD PUSH1 0x0 PUSH1 0x1 DUP2 GT ISZERO PUSH2 0x12A8 JUMPI PUSH2 0x12A7 PUSH2 0x2004 JUMP JUMPDEST JUMPDEST DUP2 MSTORE PUSH1 0x20 ADD PUSH1 0x0 DUP1 DUP2 GT ISZERO PUSH2 0x12C0 JUMPI PUSH2 0x12BF PUSH2 0x2004 JUMP JUMPDEST JUMPDEST DUP2 MSTORE PUSH1 0x20 ADD PUSH1 0x0 DUP1 NOT AND DUP2 MSTORE PUSH1 0x20 ADD PUSH1 0x60 DUP2 MSTORE PUSH1 0x20 ADD PUSH1 0x60 DUP2 MSTORE PUSH1 0x20 ADD PUSH1 0x60 DUP2 MSTORE POP SWAP1 JUMP JUMPDEST DUP3 DUP1 SLOAD PUSH2 0x12F1 SWAP1 PUSH2 0x1EC9 JUMP JUMPDEST SWAP1 PUSH1 0x0 MSTORE PUSH1 0x20 PUSH1 0x0 KECCAK256 SWAP1 PUSH1 0x1F ADD PUSH1 0x20 SWAP1 DIV DUP2 ADD SWAP3 DUP3 PUSH2 0x1313 JUMPI PUSH1 0x0 DUP6 SSTORE PUSH2 0x135A JUMP JUMPDEST DUP3 PUSH1 0x1F LT PUSH2 0x132C JUMPI DUP1 MLOAD PUSH1 0xFF NOT AND DUP4 DUP1 ADD OR DUP6 SSTORE PUSH2 0x135A JUMP JUMPDEST DUP3 DUP1 ADD PUSH1 0x1 ADD DUP6 SSTORE DUP3 ISZERO PUSH2 0x135A JUMPI SWAP2 DUP3 ADD JUMPDEST DUP3 DUP2 GT ISZERO PUSH2 0x1359 JUMPI DUP3 MLOAD DUP3 SSTORE SWAP2 PUSH1 0x20 ADD SWAP2 SWAP1 PUSH1 0x1 ADD SWAP1 PUSH2 0x133E JUMP JUMPDEST JUMPDEST POP SWAP1 POP PUSH2 0x1367 SWAP2 SWAP1 PUSH2 0x13A5 JUMP JUMPDEST POP SWAP1 JUMP JUMPDEST PUSH1 0x40 MLOAD DUP1 PUSH1 0x40 ADD PUSH1 0x40 MSTORE DUP1 PUSH2 0x137E PUSH2 0x138B JUMP JUMPDEST DUP2 MSTORE PUSH1 0x20 ADD PUSH1 0x0 DUP2 MSTORE POP SWAP1 JUMP JUMPDEST PUSH1 0x40 MLOAD DUP1 PUSH1 0x40 ADD PUSH1 0x40 MSTORE DUP1 PUSH1 0x60 DUP2 MSTORE PUSH1 0x20 ADD PUSH1 0x0 DUP2 MSTORE POP SWAP1 JUMP JUMPDEST JUMPDEST DUP1 DUP3 GT ISZERO PUSH2 0x13BE JUMPI PUSH1 0x0 DUP2 PUSH1 0x0 SWAP1 SSTORE POP PUSH1 0x1 ADD PUSH2 0x13A6 JUMP JUMPDEST POP SWAP1 JUMP JUMPDEST PUSH1 0x0 PUSH2 0x13D5 PUSH2 0x13D0 DUP5 PUSH2 0x1AF0 JUMP JUMPDEST PUSH2 0x1ACB JUMP JUMPDEST SWAP1 POP DUP1 DUP4 DUP3 MSTORE PUSH1 0x20 DUP3 ADD SWAP1 POP DUP3 DUP6 PUSH1 0x20 DUP7 MUL DUP3 ADD GT ISZERO PUSH2 0x13F8 JUMPI PUSH2 0x13F7 PUSH2 0x20CA JUMP JUMPDEST JUMPDEST PUSH1 0x0 JUMPDEST DUP6 DUP2 LT ISZERO PUSH2 0x1428 JUMPI DUP2 PUSH2 0x140E DUP9 DUP3 PUSH2 0x1544 JUMP JUMPDEST DUP5 MSTORE PUSH1 0x20 DUP5 ADD SWAP4 POP PUSH1 0x20 DUP4 ADD SWAP3 POP POP PUSH1 0x1 DUP2 ADD SWAP1 POP PUSH2 0x13FB JUMP JUMPDEST POP POP POP SWAP4 SWAP3 POP POP POP JUMP JUMPDEST PUSH1 0x0 PUSH2 0x1445 PUSH2 0x1440 DUP5 PUSH2 0x1B1C JUMP JUMPDEST PUSH2 0x1ACB JUMP JUMPDEST SWAP1 POP DUP1 DUP4 DUP3 MSTORE PUSH1 0x20 DUP3 ADD SWAP1 POP DUP3 DUP6 PUSH1 0x20 DUP7 MUL DUP3 ADD GT ISZERO PUSH2 0x1468 JUMPI PUSH2 0x1467 PUSH2 0x20CA JUMP JUMPDEST JUMPDEST PUSH1 0x0 JUMPDEST DUP6 DUP2 LT ISZERO PUSH2 0x14B6 JUMPI DUP2 CALLDATALOAD PUSH8 0xFFFFFFFFFFFFFFFF DUP2 GT ISZERO PUSH2 0x148E JUMPI PUSH2 0x148D PUSH2 0x20C5 JUMP JUMPDEST JUMPDEST DUP1 DUP7 ADD PUSH2 0x149B DUP10 DUP3 PUSH2 0x16E1 JUMP JUMPDEST DUP6 MSTORE PUSH1 0x20 DUP6 ADD SWAP5 POP PUSH1 0x20 DUP5 ADD SWAP4 POP POP POP PUSH1 0x1 DUP2 ADD SWAP1 POP PUSH2 0x146B JUMP JUMPDEST POP POP POP SWAP4 SWAP3 POP POP POP JUMP JUMPDEST PUSH1 0x0 PUSH2 0x14D3 PUSH2 0x14CE DUP5 PUSH2 0x1B48 JUMP JUMPDEST PUSH2 0x1ACB JUMP JUMPDEST SWAP1 POP DUP3 DUP2 MSTORE PUSH1 0x20 DUP2 ADD DUP5 DUP5 DUP5 ADD GT ISZERO PUSH2 0x14EF JUMPI PUSH2 0x14EE PUSH2 0x20CF JUMP JUMPDEST JUMPDEST PUSH2 0x14FA DUP5 DUP3 DUP6 PUSH2 0x1E87 JUMP JUMPDEST POP SWAP4 SWAP3 POP POP POP JUMP JUMPDEST PUSH1 0x0 PUSH2 0x1515 PUSH2 0x1510 DUP5 PUSH2 0x1B79 JUMP JUMPDEST PUSH2 0x1ACB JUMP JUMPDEST SWAP1 POP DUP3 DUP2 MSTORE PUSH1 0x20 DUP2 ADD DUP5 DUP5 DUP5 ADD GT ISZERO PUSH2 0x1531 JUMPI PUSH2 0x1530 PUSH2 0x20CF JUMP JUMPDEST JUMPDEST PUSH2 0x153C DUP5 DUP3 DUP6 PUSH2 0x1E87 JUMP JUMPDEST POP SWAP4 SWAP3 POP POP POP JUMP JUMPDEST PUSH1 0x0 DUP2 MLOAD SWAP1 POP PUSH2 0x1553 DUP2 PUSH2 0x2125 JUMP JUMPDEST SWAP3 SWAP2 POP POP JUMP JUMPDEST PUSH1 0x0 DUP3 PUSH1 0x1F DUP4 ADD SLT PUSH2 0x156E JUMPI PUSH2 0x156D PUSH2 0x20C5 JUMP JUMPDEST JUMPDEST DUP2 MLOAD PUSH2 0x157E DUP5 DUP3 PUSH1 0x20 DUP7 ADD PUSH2 0x13C2 JUMP JUMPDEST SWAP2 POP POP SWAP3 SWAP2 POP POP JUMP JUMPDEST PUSH1 0x0 DUP1 DUP4 PUSH1 0x1F DUP5 ADD SLT PUSH2 0x159D JUMPI PUSH2 0x159C PUSH2 0x20C5 JUMP JUMPDEST JUMPDEST DUP3 CALLDATALOAD SWAP1 POP PUSH8 0xFFFFFFFFFFFFFFFF DUP2 GT ISZERO PUSH2 0x15BA JUMPI PUSH2 0x15B9 PUSH2 0x20C0 JUMP JUMPDEST JUMPDEST PUSH1 0x20 DUP4 ADD SWAP2 POP DUP4 PUSH1 0x20 DUP3 MUL DUP4 ADD GT ISZERO PUSH2 0x15D6 JUMPI PUSH2 0x15D5 PUSH2 0x20CA JUMP JUMPDEST JUMPDEST SWAP3 POP SWAP3 SWAP1 POP JUMP JUMPDEST PUSH1 0x0 DUP2 CALLDATALOAD SWAP1 POP PUSH2 0x15EC DUP2 PUSH2 0x213C JUMP JUMPDEST SWAP3 SWAP2 POP POP JUMP JUMPDEST PUSH1 0x0 DUP2 MLOAD SWAP1 POP PUSH2 0x1601 DUP2 PUSH2 0x213C JUMP JUMPDEST SWAP3 SWAP2 POP POP JUMP JUMPDEST PUSH1 0x0 DUP1 DUP4 PUSH1 0x1F DUP5 ADD SLT PUSH2 0x161D JUMPI PUSH2 0x161C PUSH2 0x20C5 JUMP JUMPDEST JUMPDEST DUP3 CALLDATALOAD SWAP1 POP PUSH8 0xFFFFFFFFFFFFFFFF DUP2 GT ISZERO PUSH2 0x163A JUMPI PUSH2 0x1639 PUSH2 0x20C0 JUMP JUMPDEST JUMPDEST PUSH1 0x20 DUP4 ADD SWAP2 POP DUP4 PUSH1 0x1 DUP3 MUL DUP4 ADD GT ISZERO PUSH2 0x1656 JUMPI PUSH2 0x1655 PUSH2 0x20CA JUMP JUMPDEST JUMPDEST SWAP3 POP SWAP3 SWAP1 POP JUMP JUMPDEST PUSH1 0x0 DUP3 PUSH1 0x1F DUP4 ADD SLT PUSH2 0x1672 JUMPI PUSH2 0x1671 PUSH2 0x20C5 JUMP JUMPDEST JUMPDEST DUP2 CALLDATALOAD PUSH2 0x1682 DUP5 DUP3 PUSH1 0x20 DUP7 ADD PUSH2 0x14C0 JUMP JUMPDEST SWAP2 POP POP SWAP3 SWAP2 POP POP JUMP JUMPDEST PUSH1 0x0 DUP1 DUP4 PUSH1 0x1F DUP5 ADD SLT PUSH2 0x16A1 JUMPI PUSH2 0x16A0 PUSH2 0x20C5 JUMP JUMPDEST JUMPDEST DUP3 CALLDATALOAD SWAP1 POP PUSH8 0xFFFFFFFFFFFFFFFF DUP2 GT ISZERO PUSH2 0x16BE JUMPI PUSH2 0x16BD PUSH2 0x20C0 JUMP JUMPDEST JUMPDEST PUSH1 0x20 DUP4 ADD SWAP2 POP DUP4 PUSH1 0x1 DUP3 MUL DUP4 ADD GT ISZERO PUSH2 0x16DA JUMPI PUSH2 0x16D9 PUSH2 0x20CA JUMP JUMPDEST JUMPDEST SWAP3 POP SWAP3 SWAP1 POP JUMP JUMPDEST PUSH1 0x0 DUP3 PUSH1 0x1F DUP4 ADD SLT PUSH2 0x16F6 JUMPI PUSH2 0x16F5 PUSH2 0x20C5 JUMP JUMPDEST JUMPDEST DUP2 CALLDATALOAD PUSH2 0x1706 DUP5 DUP3 PUSH1 0x20 DUP7 ADD PUSH2 0x1502 JUMP JUMPDEST SWAP2 POP POP SWAP3 SWAP2 POP POP JUMP JUMPDEST PUSH1 0x0 DUP2 MLOAD SWAP1 POP PUSH2 0x171E DUP2 PUSH2 0x2153 JUMP JUMPDEST SWAP3 SWAP2 POP POP JUMP JUMPDEST PUSH1 0x0 PUSH1 0x20 DUP3 DUP5 SUB SLT ISZERO PUSH2 0x173A JUMPI PUSH2 0x1739 PUSH2 0x20D9 JUMP JUMPDEST JUMPDEST PUSH1 0x0 PUSH2 0x1748 DUP5 DUP3 DUP6 ADD PUSH2 0x1544 JUMP JUMPDEST SWAP2 POP POP SWAP3 SWAP2 POP POP JUMP JUMPDEST PUSH1 0x0 PUSH1 0x20 DUP3 DUP5 SUB SLT ISZERO PUSH2 0x1767 JUMPI PUSH2 0x1766 PUSH2 0x20D9 JUMP JUMPDEST JUMPDEST PUSH1 0x0 DUP3 ADD MLOAD PUSH8 0xFFFFFFFFFFFFFFFF DUP2 GT ISZERO PUSH2 0x1785 JUMPI PUSH2 0x1784 PUSH2 0x20D4 JUMP JUMPDEST JUMPDEST PUSH2 0x1791 DUP5 DUP3 DUP6 ADD PUSH2 0x1559 JUMP JUMPDEST SWAP2 POP POP SWAP3 SWAP2 POP POP JUMP JUMPDEST PUSH1 0x0 PUSH1 0x20 DUP3 DUP5 SUB SLT ISZERO PUSH2 0x17B0 JUMPI PUSH2 0x17AF PUSH2 0x20D9 JUMP JUMPDEST JUMPDEST PUSH1 0x0 PUSH2 0x17BE DUP5 DUP3 DUP6 ADD PUSH2 0x15F2 JUMP JUMPDEST SWAP2 POP POP SWAP3 SWAP2 POP POP JUMP JUMPDEST PUSH1 0x0 DUP1 PUSH1 0x0 PUSH1 0x60 DUP5 DUP7 SUB SLT ISZERO PUSH2 0x17E0 JUMPI PUSH2 0x17DF PUSH2 0x20D9 JUMP JUMPDEST JUMPDEST PUSH1 0x0 PUSH2 0x17EE DUP7 DUP3 DUP8 ADD PUSH2 0x15DD JUMP JUMPDEST SWAP4 POP POP PUSH1 0x20 DUP5 ADD CALLDATALOAD PUSH8 0xFFFFFFFFFFFFFFFF DUP2 GT ISZERO PUSH2 0x180F JUMPI PUSH2 0x180E PUSH2 0x20D4 JUMP JUMPDEST JUMPDEST PUSH2 0x181B DUP7 DUP3 DUP8 ADD PUSH2 0x165D JUMP JUMPDEST SWAP3 POP POP PUSH1 0x40 DUP5 ADD CALLDATALOAD PUSH8 0xFFFFFFFFFFFFFFFF DUP2 GT ISZERO PUSH2 0x183C JUMPI PUSH2 0x183B PUSH2 0x20D4 JUMP JUMPDEST JUMPDEST PUSH2 0x1848 DUP7 DUP3 DUP8 ADD PUSH2 0x165D JUMP JUMPDEST SWAP2 POP POP SWAP3 POP SWAP3 POP SWAP3 JUMP JUMPDEST PUSH1 0x0 DUP1 PUSH1 0x0 DUP1 PUSH1 0x0 DUP1 PUSH1 0x0 PUSH1 0x80 DUP9 DUP11 SUB SLT ISZERO PUSH2 0x1871 JUMPI PUSH2 0x1870 PUSH2 0x20D9 JUMP JUMPDEST JUMPDEST PUSH1 0x0 PUSH2 0x187F DUP11 DUP3 DUP12 ADD PUSH2 0x15DD JUMP JUMPDEST SWAP8 POP POP PUSH1 0x20 DUP9 ADD CALLDATALOAD PUSH8 0xFFFFFFFFFFFFFFFF DUP2 GT ISZERO PUSH2 0x18A0 JUMPI PUSH2 0x189F PUSH2 0x20D4 JUMP JUMPDEST JUMPDEST PUSH2 0x18AC DUP11 DUP3 DUP12 ADD PUSH2 0x168B JUMP JUMPDEST SWAP7 POP SWAP7 POP POP PUSH1 0x40 DUP9 ADD CALLDATALOAD PUSH8 0xFFFFFFFFFFFFFFFF DUP2 GT ISZERO PUSH2 0x18CF JUMPI PUSH2 0x18CE PUSH2 0x20D4 JUMP JUMPDEST JUMPDEST PUSH2 0x18DB DUP11 DUP3 DUP12 ADD PUSH2 0x1607 JUMP JUMPDEST SWAP5 POP SWAP5 POP POP PUSH1 0x60 DUP9 ADD CALLDATALOAD PUSH8 0xFFFFFFFFFFFFFFFF DUP2 GT ISZERO PUSH2 0x18FE JUMPI PUSH2 0x18FD PUSH2 0x20D4 JUMP JUMPDEST JUMPDEST PUSH2 0x190A DUP11 DUP3 DUP12 ADD PUSH2 0x1587 JUMP JUMPDEST SWAP3 POP SWAP3 POP POP SWAP3 SWAP6 SWAP9 SWAP2 SWAP5 SWAP8 POP SWAP3 SWAP6 POP JUMP JUMPDEST PUSH1 0x0 PUSH1 0x20 DUP3 DUP5 SUB SLT ISZERO PUSH2 0x1931 JUMPI PUSH2 0x1930 PUSH2 0x20D9 JUMP JUMPDEST JUMPDEST PUSH1 0x0 PUSH2 0x193F DUP5 DUP3 DUP6 ADD PUSH2 0x170F JUMP JUMPDEST SWAP2 POP POP SWAP3 SWAP2 POP POP JUMP JUMPDEST PUSH2 0x1951 DUP2 PUSH2 0x1E2C JUMP JUMPDEST DUP3 MSTORE POP POP JUMP JUMPDEST PUSH2 0x1960 DUP2 PUSH2 0x1E3E JUMP JUMPDEST DUP3 MSTORE POP POP JUMP JUMPDEST PUSH1 0x0 PUSH2 0x1971 DUP3 PUSH2 0x1BAA JUMP JUMPDEST PUSH2 0x197B DUP2 DUP6 PUSH2 0x1BB5 JUMP JUMPDEST SWAP4 POP PUSH2 0x198B DUP2 DUP6 PUSH1 0x20 DUP7 ADD PUSH2 0x1E96 JUMP JUMPDEST PUSH2 0x1994 DUP2 PUSH2 0x20DE JUMP JUMPDEST DUP5 ADD SWAP2 POP POP SWAP3 SWAP2 POP POP JUMP JUMPDEST PUSH1 0x0 PUSH2 0x19AC PUSH1 0x11 DUP4 PUSH2 0x1BC6 JUMP JUMPDEST SWAP2 POP PUSH2 0x19B7 DUP3 PUSH2 0x20FC JUMP JUMPDEST PUSH1 0x20 DUP3 ADD SWAP1 POP SWAP2 SWAP1 POP JUMP JUMPDEST PUSH2 0x19CB DUP2 PUSH2 0x1E68 JUMP JUMPDEST DUP3 MSTORE POP POP JUMP JUMPDEST PUSH1 0x0 PUSH1 0x20 DUP3 ADD SWAP1 POP PUSH2 0x19E6 PUSH1 0x0 DUP4 ADD DUP5 PUSH2 0x1948 JUMP JUMPDEST SWAP3 SWAP2 POP POP JUMP JUMPDEST PUSH1 0x0 PUSH1 0x20 DUP3 ADD SWAP1 POP PUSH2 0x1A01 PUSH1 0x0 DUP4 ADD DUP5 PUSH2 0x1957 JUMP JUMPDEST SWAP3 SWAP2 POP POP JUMP JUMPDEST PUSH1 0x0 PUSH1 0x40 DUP3 ADD SWAP1 POP PUSH2 0x1A1C PUSH1 0x0 DUP4 ADD DUP6 PUSH2 0x1957 JUMP JUMPDEST DUP2 DUP2 SUB PUSH1 0x20 DUP4 ADD MSTORE PUSH2 0x1A2E DUP2 DUP5 PUSH2 0x1966 JUMP JUMPDEST SWAP1 POP SWAP4 SWAP3 POP POP POP JUMP JUMPDEST PUSH1 0x0 PUSH1 0x20 DUP3 ADD SWAP1 POP DUP2 DUP2 SUB PUSH1 0x0 DUP4 ADD MSTORE PUSH2 0x1A51 DUP2 DUP5 PUSH2 0x1966 JUMP JUMPDEST SWAP1 POP SWAP3 SWAP2 POP POP JUMP JUMPDEST PUSH1 0x0 PUSH1 0x40 DUP3 ADD SWAP1 POP DUP2 DUP2 SUB PUSH1 0x0 DUP4 ADD MSTORE PUSH2 0x1A73 DUP2 DUP6 PUSH2 0x1966 JUMP JUMPDEST SWAP1 POP DUP2 DUP2 SUB PUSH1 0x20 DUP4 ADD MSTORE PUSH2 0x1A87 DUP2 DUP5 PUSH2 0x1966 JUMP JUMPDEST SWAP1 POP SWAP4 SWAP3 POP POP POP JUMP JUMPDEST PUSH1 0x0 PUSH1 0x20 DUP3 ADD SWAP1 POP DUP2 DUP2 SUB PUSH1 0x0 DUP4 ADD MSTORE PUSH2 0x1AA9 DUP2 PUSH2 0x199F JUMP JUMPDEST SWAP1 POP SWAP2 SWAP1 POP JUMP JUMPDEST PUSH1 0x0 PUSH1 0x20 DUP3 ADD SWAP1 POP PUSH2 0x1AC5 PUSH1 0x0 DUP4 ADD DUP5 PUSH2 0x19C2 JUMP JUMPDEST SWAP3 SWAP2 POP POP JUMP JUMPDEST PUSH1 0x0 PUSH2 0x1AD5 PUSH2 0x1AE6 JUMP JUMPDEST SWAP1 POP PUSH2 0x1AE1 DUP3 DUP3 PUSH2 0x1EFB JUMP JUMPDEST SWAP2 SWAP1 POP JUMP JUMPDEST PUSH1 0x0 PUSH1 0x40 MLOAD SWAP1 POP SWAP1 JUMP JUMPDEST PUSH1 0x0 PUSH8 0xFFFFFFFFFFFFFFFF DUP3 GT ISZERO PUSH2 0x1B0B JUMPI PUSH2 0x1B0A PUSH2 0x2091 JUMP JUMPDEST JUMPDEST PUSH1 0x20 DUP3 MUL SWAP1 POP PUSH1 0x20 DUP2 ADD SWAP1 POP SWAP2 SWAP1 POP JUMP JUMPDEST PUSH1 0x0 PUSH8 0xFFFFFFFFFFFFFFFF DUP3 GT ISZERO PUSH2 0x1B37 JUMPI PUSH2 0x1B36 PUSH2 0x2091 JUMP JUMPDEST JUMPDEST PUSH1 0x20 DUP3 MUL SWAP1 POP PUSH1 0x20 DUP2 ADD SWAP1 POP SWAP2 SWAP1 POP JUMP JUMPDEST PUSH1 0x0 PUSH8 0xFFFFFFFFFFFFFFFF DUP3 GT ISZERO PUSH2 0x1B63 JUMPI PUSH2 0x1B62 PUSH2 0x2091 JUMP JUMPDEST JUMPDEST PUSH2 0x1B6C DUP3 PUSH2 0x20DE JUMP JUMPDEST SWAP1 POP PUSH1 0x20 DUP2 ADD SWAP1 POP SWAP2 SWAP1 POP JUMP JUMPDEST PUSH1 0x0 PUSH8 0xFFFFFFFFFFFFFFFF DUP3 GT ISZERO PUSH2 0x1B94 JUMPI PUSH2 0x1B93 PUSH2 0x2091 JUMP JUMPDEST JUMPDEST PUSH2 0x1B9D DUP3 PUSH2 0x20DE JUMP JUMPDEST SWAP1 POP PUSH1 0x20 DUP2 ADD SWAP1 POP SWAP2 SWAP1 POP JUMP JUMPDEST PUSH1 0x0 DUP2 MLOAD SWAP1 POP SWAP2 SWAP1 POP JUMP JUMPDEST PUSH1 0x0 DUP3 DUP3 MSTORE PUSH1 0x20 DUP3 ADD SWAP1 POP SWAP3 SWAP2 POP POP JUMP JUMPDEST PUSH1 0x0 DUP3 DUP3 MSTORE PUSH1 0x20 DUP3 ADD SWAP1 POP SWAP3 SWAP2 POP POP JUMP JUMPDEST PUSH1 0x0 PUSH2 0x1BE2 DUP3 PUSH2 0x1E68 JUMP JUMPDEST SWAP2 POP PUSH2 0x1BED DUP4 PUSH2 0x1E68 JUMP JUMPDEST SWAP3 POP DUP3 PUSH32 0xFFFFFFFFFFFFFFFFFFFFFFFFFFFFFFFFFFFFFFFFFFFFFFFFFFFFFFFFFFFFFFFF SUB DUP3 GT ISZERO PUSH2 0x1C22 JUMPI PUSH2 0x1C21 PUSH2 0x1FA6 JUMP JUMPDEST JUMPDEST DUP3 DUP3 ADD SWAP1 POP SWAP3 SWAP2 POP POP JUMP JUMPDEST PUSH1 0x0 DUP1 DUP3 SWAP2 POP DUP4 SWAP1 POP JUMPDEST PUSH1 0x1 DUP6 GT ISZERO PUSH2 0x1C77 JUMPI DUP1 DUP7 DIV DUP2 GT ISZERO PUSH2 0x1C53 JUMPI PUSH2 0x1C52 PUSH2 0x1FA6 JUMP JUMPDEST JUMPDEST PUSH1 0x1 DUP6 AND ISZERO PUSH2 0x1C62 JUMPI DUP1 DUP3 MUL SWAP2 POP JUMPDEST DUP1 DUP2 MUL SWAP1 POP PUSH2 0x1C70 DUP6 PUSH2 0x20EF JUMP JUMPDEST SWAP5 POP PUSH2 0x1C37 JUMP JUMPDEST SWAP5 POP SWAP5 SWAP3 POP POP POP JUMP JUMPDEST PUSH1 0x0 PUSH2 0x1C8B DUP3 PUSH2 0x1E68 JUMP JUMPDEST SWAP2 POP PUSH2 0x1C96 DUP4 PUSH2 0x1E68 JUMP JUMPDEST SWAP3 POP PUSH2 0x1CC3 PUSH32 0xFFFFFFFFFFFFFFFFFFFFFFFFFFFFFFFFFFFFFFFFFFFFFFFFFFFFFFFFFFFFFFFF DUP5 DUP5 PUSH2 0x1CCB JUMP JUMPDEST SWAP1 POP SWAP3 SWAP2 POP POP JUMP JUMPDEST PUSH1 0x0 DUP3 PUSH2 0x1CDB JUMPI PUSH1 0x1 SWAP1 POP PUSH2 0x1D97 JUMP JUMPDEST DUP2 PUSH2 0x1CE9 JUMPI PUSH1 0x0 SWAP1 POP PUSH2 0x1D97 JUMP JUMPDEST DUP2 PUSH1 0x1 DUP2 EQ PUSH2 0x1CFF JUMPI PUSH1 0x2 DUP2 EQ PUSH2 0x1D09 JUMPI PUSH2 0x1D38 JUMP JUMPDEST PUSH1 0x1 SWAP2 POP POP PUSH2 0x1D97 JUMP JUMPDEST PUSH1 0xFF DUP5 GT ISZERO PUSH2 0x1D1B JUMPI PUSH2 0x1D1A PUSH2 0x1FA6 JUMP JUMPDEST JUMPDEST DUP4 PUSH1 0x2 EXP SWAP2 POP DUP5 DUP3 GT ISZERO PUSH2 0x1D32 JUMPI PUSH2 0x1D31 PUSH2 0x1FA6 JUMP JUMPDEST JUMPDEST POP PUSH2 0x1D97 JUMP JUMPDEST POP PUSH1 0x20 DUP4 LT PUSH2 0x133 DUP4 LT AND PUSH1 0x4E DUP5 LT PUSH1 0xB DUP5 LT AND OR ISZERO PUSH2 0x1D6D JUMPI DUP3 DUP3 EXP SWAP1 POP DUP4 DUP2 GT ISZERO PUSH2 0x1D68 JUMPI PUSH2 0x1D67 PUSH2 0x1FA6 JUMP JUMPDEST JUMPDEST PUSH2 0x1D97 JUMP JUMPDEST PUSH2 0x1D7A DUP5 DUP5 DUP5 PUSH1 0x1 PUSH2 0x1C2D JUMP JUMPDEST SWAP3 POP SWAP1 POP DUP2 DUP5 DIV DUP2 GT ISZERO PUSH2 0x1D91 JUMPI PUSH2 0x1D90 PUSH2 0x1FA6 JUMP JUMPDEST JUMPDEST DUP2 DUP2 MUL SWAP1 POP JUMPDEST SWAP4 SWAP3 POP POP POP JUMP JUMPDEST PUSH1 0x0 PUSH2 0x1DA9 DUP3 PUSH2 0x1E68 JUMP JUMPDEST SWAP2 POP PUSH2 0x1DB4 DUP4 PUSH2 0x1E68 JUMP JUMPDEST SWAP3 POP DUP2 PUSH32 0xFFFFFFFFFFFFFFFFFFFFFFFFFFFFFFFFFFFFFFFFFFFFFFFFFFFFFFFFFFFFFFFF DIV DUP4 GT DUP3 ISZERO ISZERO AND ISZERO PUSH2 0x1DED JUMPI PUSH2 0x1DEC PUSH2 0x1FA6 JUMP JUMPDEST JUMPDEST DUP3 DUP3 MUL SWAP1 POP SWAP3 SWAP2 POP POP JUMP JUMPDEST PUSH1 0x0 PUSH2 0x1E03 DUP3 PUSH2 0x1E68 JUMP JUMPDEST SWAP2 POP PUSH2 0x1E0E DUP4 PUSH2 0x1E68 JUMP JUMPDEST SWAP3 POP DUP3 DUP3 LT ISZERO PUSH2 0x1E21 JUMPI PUSH2 0x1E20 PUSH2 0x1FA6 JUMP JUMPDEST JUMPDEST DUP3 DUP3 SUB SWAP1 POP SWAP3 SWAP2 POP POP JUMP JUMPDEST PUSH1 0x0 PUSH2 0x1E37 DUP3 PUSH2 0x1E48 JUMP JUMPDEST SWAP1 POP SWAP2 SWAP1 POP JUMP JUMPDEST PUSH1 0x0 DUP2 SWAP1 POP SWAP2 SWAP1 POP JUMP JUMPDEST PUSH1 0x0 PUSH20 0xFFFFFFFFFFFFFFFFFFFFFFFFFFFFFFFFFFFFFFFF DUP3 AND SWAP1 POP SWAP2 SWAP1 POP JUMP JUMPDEST PUSH1 0x0 DUP2 SWAP1 POP SWAP2 SWAP1 POP JUMP JUMPDEST PUSH1 0x0 PUSH2 0x1E7F CALLDATASIZE DUP5 DUP5 PUSH2 0x1432 JUMP JUMPDEST SWAP1 POP SWAP3 SWAP2 POP POP JUMP JUMPDEST DUP3 DUP2 DUP4 CALLDATACOPY PUSH1 0x0 DUP4 DUP4 ADD MSTORE POP POP POP JUMP JUMPDEST PUSH1 0x0 JUMPDEST DUP4 DUP2 LT ISZERO PUSH2 0x1EB4 JUMPI DUP1 DUP3 ADD MLOAD DUP2 DUP5 ADD MSTORE PUSH1 0x20 DUP2 ADD SWAP1 POP PUSH2 0x1E99 JUMP JUMPDEST DUP4 DUP2 GT ISZERO PUSH2 0x1EC3 JUMPI PUSH1 0x0 DUP5 DUP5 ADD MSTORE JUMPDEST POP POP POP POP JUMP JUMPDEST PUSH1 0x0 PUSH1 0x2 DUP3 DIV SWAP1 POP PUSH1 0x1 DUP3 AND DUP1 PUSH2 0x1EE1 JUMPI PUSH1 0x7F DUP3 AND SWAP2 POP JUMPDEST PUSH1 0x20 DUP3 LT DUP2 EQ ISZERO PUSH2 0x1EF5 JUMPI PUSH2 0x1EF4 PUSH2 0x2033 JUMP JUMPDEST JUMPDEST POP SWAP2 SWAP1 POP JUMP JUMPDEST PUSH2 0x1F04 DUP3 PUSH2 0x20DE JUMP JUMPDEST DUP2 ADD DUP2 DUP2 LT PUSH8 0xFFFFFFFFFFFFFFFF DUP3 GT OR ISZERO PUSH2 0x1F23 JUMPI PUSH2 0x1F22 PUSH2 0x2091 JUMP JUMPDEST JUMPDEST DUP1 PUSH1 0x40 MSTORE POP POP POP JUMP JUMPDEST PUSH1 0x0 PUSH2 0x1F37 DUP3 PUSH2 0x1E68 JUMP JUMPDEST SWAP2 POP PUSH32 0xFFFFFFFFFFFFFFFFFFFFFFFFFFFFFFFFFFFFFFFFFFFFFFFFFFFFFFFFFFFFFFFF DUP3 EQ ISZERO PUSH2 0x1F6A JUMPI PUSH2 0x1F69 PUSH2 0x1FA6 JUMP JUMPDEST JUMPDEST PUSH1 0x1 DUP3 ADD SWAP1 POP SWAP2 SWAP1 POP JUMP JUMPDEST PUSH1 0x0 PUSH2 0x1F80 DUP3 PUSH2 0x1E68 JUMP JUMPDEST SWAP2 POP PUSH2 0x1F8B DUP4 PUSH2 0x1E68 JUMP JUMPDEST SWAP3 POP DUP3 PUSH2 0x1F9B JUMPI PUSH2 0x1F9A PUSH2 0x1FD5 JUMP JUMPDEST JUMPDEST DUP3 DUP3 MOD SWAP1 POP SWAP3 SWAP2 POP POP JUMP JUMPDEST PUSH32 0x4E487B7100000000000000000000000000000000000000000000000000000000 PUSH1 0x0 MSTORE PUSH1 0x11 PUSH1 0x4 MSTORE PUSH1 0x24 PUSH1 0x0 REVERT JUMPDEST PUSH32 0x4E487B7100000000000000000000000000000000000000000000000000000000 PUSH1 0x0 MSTORE PUSH1 0x12 PUSH1 0x4 MSTORE PUSH1 0x24 PUSH1 0x0 REVERT JUMPDEST PUSH32 0x4E487B7100000000000000000000000000000000000000000000000000000000 PUSH1 0x0 MSTORE PUSH1 0x21 PUSH1 0x4 MSTORE PUSH1 0x24 PUSH1 0x0 REVERT JUMPDEST PUSH32 0x4E487B7100000000000000000000000000000000000000000000000000000000 PUSH1 0x0 MSTORE PUSH1 0x22 PUSH1 0x4 MSTORE PUSH1 0x24 PUSH1 0x0 REVERT JUMPDEST PUSH32 0x4E487B7100000000000000000000000000000000000000000000000000000000 PUSH1 0x0 MSTORE PUSH1 0x32 PUSH1 0x4 MSTORE PUSH1 0x24 PUSH1 0x0 REVERT JUMPDEST PUSH32 0x4E487B7100000000000000000000000000000000000000000000000000000000 PUSH1 0x0 MSTORE PUSH1 0x41 PUSH1 0x4 MSTORE PUSH1 0x24 PUSH1 0x0 REVERT JUMPDEST PUSH1 0x0 DUP1 REVERT JUMPDEST PUSH1 0x0 DUP1 REVERT JUMPDEST PUSH1 0x0 DUP1 REVERT JUMPDEST PUSH1 0x0 DUP1 REVERT JUMPDEST PUSH1 0x0 DUP1 REVERT JUMPDEST PUSH1 0x0 DUP1 REVERT JUMPDEST PUSH1 0x0 PUSH1 0x1F NOT PUSH1 0x1F DUP4 ADD AND SWAP1 POP SWAP2 SWAP1 POP JUMP JUMPDEST PUSH1 0x0 DUP2 PUSH1 0x1 SHR SWAP1 POP SWAP2 SWAP1 POP JUMP JUMPDEST PUSH32 0x6E6F7420666F756E64206D616E61676572000000000000000000000000000000 PUSH1 0x0 DUP3 ADD MSTORE POP JUMP JUMPDEST PUSH2 0x212E DUP2 PUSH2 0x1E2C JUMP JUMPDEST DUP2 EQ PUSH2 0x2139 JUMPI PUSH1 0x0 DUP1 REVERT JUMPDEST POP JUMP JUMPDEST PUSH2 0x2145 DUP2 PUSH2 0x1E3E JUMP JUMPDEST DUP2 EQ PUSH2 0x2150 JUMPI PUSH1 0x0 DUP1 REVERT JUMPDEST POP JUMP JUMPDEST PUSH2 0x215C DUP2 PUSH2 0x1E68 JUMP JUMPDEST DUP2 EQ PUSH2 0x2167 JUMPI PUSH1 0x0 DUP1 REVERT JUMPDEST POP JUMP INVALID LOG2 PUSH5 0x6970667358 0x22 SLT KECCAK256 PUSH1 0xBC 0xE1 0xC6 0xFB 0xC9 0xDC PUSH1 0xED 0xF8 0xD3 DUP7 0xE1 0xE7 ADD 0xE8 SDIV SGT 0xE5 0xDD PUSH10 0x3B653D2BE545C56FFEAD CODECOPY PUSH5 0x736F6C6343 STOP ADDMOD MOD STOP CALLER "
		},
		"gasEstimates": {
			"creation": {
				"codeDepositCost": "1721600",
				"executionCost": "infinite",
				"totalCost": "infinite"
			},
			"external": {
				"executeRequest(bytes32,string,bytes,string[])": "infinite",
				"handleOracleFulfillment(bytes32,bytes,bytes)": "infinite",
				"latestError()": "infinite",
				"latestRequestId()": "2429",
				"latestResponse()": "infinite"
			},
			"internal": {
				"fulfillRequest(bytes32,bytes memory,bytes memory)": "infinite"
			}
		},
		"methodIdentifiers": {
			"executeRequest(bytes32,string,bytes,string[])": "2912557a",
			"handleOracleFulfillment(bytes32,bytes,bytes)": "0ca76175",
			"latestError()": "fffeb84e",
			"latestRequestId()": "1aa46f59",
			"latestResponse()": "bef3a2f0"
		}
	},
	"abi": [
		{
			"inputs": [
				{
					"internalType": "address",
					"name": "oracle",
					"type": "address"
				},
				{
					"internalType": "contract Selector",
					"name": "_selector",
					"type": "address"
				},
				{
					"internalType": "contract Registry",
					"name": "_reg",
					"type": "address"
				}
			],
			"stateMutability": "nonpayable",
			"type": "constructor"
		},
		{
			"inputs": [],
			"name": "EmptyArgs",
			"type": "error"
		},
		{
			"inputs": [],
			"name": "EmptyRequestData",
			"type": "error"
		},
		{
			"inputs": [],
			"name": "EmptySecrets",
			"type": "error"
		},
		{
			"inputs": [],
			"name": "EmptySource",
			"type": "error"
		},
		{
			"inputs": [],
			"name": "NoInlineSecrets",
			"type": "error"
		},
		{
			"inputs": [],
			"name": "RequestIsAlreadyPending",
			"type": "error"
		},
		{
			"inputs": [],
			"name": "SenderIsNotRegistry",
			"type": "error"
		},
		{
			"anonymous": false,
			"inputs": [
				{
					"indexed": true,
					"internalType": "bytes32",
					"name": "requestId",
					"type": "bytes32"
				},
				{
					"indexed": false,
					"internalType": "bytes",
					"name": "result",
					"type": "bytes"
				},
				{
					"indexed": false,
					"internalType": "bytes",
					"name": "err",
					"type": "bytes"
				}
			],
			"name": "FuncResponse",
			"type": "event"
		},
		{
			"anonymous": false,
			"inputs": [
				{
					"indexed": true,
					"internalType": "bytes32",
					"name": "id",
					"type": "bytes32"
				},
				{
					"indexed": false,
					"internalType": "bytes",
					"name": "result",
					"type": "bytes"
				},
				{
					"indexed": false,
					"internalType": "bytes",
					"name": "err",
					"type": "bytes"
				}
			],
			"name": "RequestFulfilled",
			"type": "event"
		},
		{
			"anonymous": false,
			"inputs": [
				{
					"indexed": true,
					"internalType": "bytes32",
					"name": "id",
					"type": "bytes32"
				},
				{
					"indexed": true,
					"internalType": "address",
					"name": "node",
					"type": "address"
				}
			],
			"name": "RequestSent",
			"type": "event"
		},
		{
			"inputs": [
				{
					"internalType": "bytes32",
					"name": "name",
					"type": "bytes32"
				},
				{
					"internalType": "string",
					"name": "source",
					"type": "string"
				},
				{
					"internalType": "bytes",
					"name": "secrets",
					"type": "bytes"
				},
				{
					"internalType": "string[]",
					"name": "args",
					"type": "string[]"
				}
			],
			"name": "executeRequest",
			"outputs": [
				{
					"internalType": "bytes32",
					"name": "",
					"type": "bytes32"
				}
			],
			"stateMutability": "nonpayable",
			"type": "function"
		},
		{
			"inputs": [
				{
					"internalType": "bytes32",
					"name": "requestId",
					"type": "bytes32"
				},
				{
					"internalType": "bytes",
					"name": "response",
					"type": "bytes"
				},
				{
					"internalType": "bytes",
					"name": "err",
					"type": "bytes"
				}
			],
			"name": "handleOracleFulfillment",
			"outputs": [],
			"stateMutability": "nonpayable",
			"type": "function"
		},
		{
			"inputs": [],
			"name": "latestError",
			"outputs": [
				{
					"internalType": "bytes",
					"name": "",
					"type": "bytes"
				}
			],
			"stateMutability": "view",
			"type": "function"
		},
		{
			"inputs": [],
			"name": "latestRequestId",
			"outputs": [
				{
					"internalType": "bytes32",
					"name": "",
					"type": "bytes32"
				}
			],
			"stateMutability": "view",
			"type": "function"
		},
		{
			"inputs": [],
			"name": "latestResponse",
			"outputs": [
				{
					"internalType": "bytes",
					"name": "",
					"type": "bytes"
				}
			],
			"stateMutability": "view",
			"type": "function"
		}
	]
}