{
	"dev/functions/FunctionRegistry.sol": {
		"FunctionRegistry": {
			"abi": [
				{
					"anonymous": false,
					"inputs": [
						{
							"indexed": true,
							"internalType": "address",
							"name": "_owner",
							"type": "address"
						},
						{
							"indexed": true,
							"internalType": "address",
							"name": "operator",
							"type": "address"
						},
						{
							"indexed": false,
							"internalType": "bool",
							"name": "approved",
							"type": "bool"
						}
					],
					"name": "ApprovalForAll",
					"type": "event"
				},
				{
					"anonymous": false,
					"inputs": [
						{
							"indexed": true,
							"internalType": "bytes32",
							"name": "node",
							"type": "bytes32"
						},
						{
							"indexed": false,
							"internalType": "address",
							"name": "manager",
							"type": "address"
						}
					],
					"name": "NewManager",
					"type": "event"
				},
				{
					"anonymous": false,
					"inputs": [
						{
							"indexed": true,
							"internalType": "bytes32",
							"name": "node",
							"type": "bytes32"
						},
						{
							"indexed": true,
							"internalType": "bytes32",
							"name": "label",
							"type": "bytes32"
						},
						{
							"indexed": false,
							"internalType": "address",
							"name": "_owner",
							"type": "address"
						}
					],
					"name": "NewOwner",
					"type": "event"
				},
				{
					"anonymous": false,
					"inputs": [
						{
							"indexed": true,
							"internalType": "bytes32",
							"name": "node",
							"type": "bytes32"
						},
						{
							"indexed": false,
							"internalType": "address",
							"name": "_owner",
							"type": "address"
						}
					],
					"name": "Transfer",
					"type": "event"
				},
				{
					"inputs": [
						{
							"internalType": "address",
							"name": "_owner",
							"type": "address"
						}
					],
					"name": "SetController",
					"outputs": [],
					"stateMutability": "nonpayable",
					"type": "function"
				},
				{
					"inputs": [
						{
							"internalType": "address",
							"name": "",
							"type": "address"
						}
					],
					"name": "controllers",
					"outputs": [
						{
							"internalType": "bool",
							"name": "",
							"type": "bool"
						}
					],
					"stateMutability": "view",
					"type": "function"
				},
				{
					"inputs": [],
					"name": "init",
					"outputs": [],
					"stateMutability": "nonpayable",
					"type": "function"
				},
				{
					"inputs": [
						{
							"internalType": "address",
							"name": "_owner",
							"type": "address"
						},
						{
							"internalType": "address",
							"name": "operator",
							"type": "address"
						}
					],
					"name": "isApprovedForAll",
					"outputs": [
						{
							"internalType": "bool",
							"name": "",
							"type": "bool"
						}
					],
					"stateMutability": "view",
					"type": "function"
				},
				{
					"inputs": [
						{
							"internalType": "bytes32",
							"name": "node",
							"type": "bytes32"
						}
					],
					"name": "manager",
					"outputs": [
						{
							"internalType": "address",
							"name": "",
							"type": "address"
						}
					],
					"stateMutability": "view",
					"type": "function"
				},
				{
					"inputs": [
						{
							"internalType": "bytes32",
							"name": "node",
							"type": "bytes32"
						}
					],
					"name": "owner",
					"outputs": [
						{
							"internalType": "address",
							"name": "",
							"type": "address"
						}
					],
					"stateMutability": "view",
					"type": "function"
				},
				{
					"inputs": [
						{
							"internalType": "bytes32",
							"name": "node",
							"type": "bytes32"
						}
					],
					"name": "recordExists",
					"outputs": [
						{
							"internalType": "bool",
							"name": "",
							"type": "bool"
						}
					],
					"stateMutability": "view",
					"type": "function"
				},
				{
					"inputs": [
						{
							"internalType": "address",
							"name": "operator",
							"type": "address"
						},
						{
							"internalType": "bool",
							"name": "approved",
							"type": "bool"
						}
					],
					"name": "setApprovalForAll",
					"outputs": [],
					"stateMutability": "nonpayable",
					"type": "function"
				},
				{
					"inputs": [
						{
							"internalType": "bytes32",
							"name": "node",
							"type": "bytes32"
						},
						{
							"internalType": "address",
							"name": "_manager",
							"type": "address"
						}
					],
					"name": "setManager",
					"outputs": [],
					"stateMutability": "nonpayable",
					"type": "function"
				},
				{
					"inputs": [
						{
							"internalType": "bytes32",
							"name": "node",
							"type": "bytes32"
						},
						{
							"internalType": "address",
							"name": "_owner",
							"type": "address"
						}
					],
					"name": "setOwner",
					"outputs": [],
					"stateMutability": "nonpayable",
					"type": "function"
				},
				{
					"inputs": [
						{
							"internalType": "bytes32",
							"name": "node",
							"type": "bytes32"
						},
						{
							"internalType": "address",
							"name": "_owner",
							"type": "address"
						},
						{
							"internalType": "address",
							"name": "_manager",
							"type": "address"
						}
					],
					"name": "setRecord",
					"outputs": [],
					"stateMutability": "nonpayable",
					"type": "function"
				},
				{
					"inputs": [
						{
							"internalType": "bytes32",
							"name": "node",
							"type": "bytes32"
						},
						{
							"internalType": "bytes32",
							"name": "label",
							"type": "bytes32"
						},
						{
							"internalType": "address",
							"name": "_owner",
							"type": "address"
						}
					],
					"name": "setSubnodeOwner",
					"outputs": [
						{
							"internalType": "bytes32",
							"name": "",
							"type": "bytes32"
						}
					],
					"stateMutability": "nonpayable",
					"type": "function"
				},
				{
					"inputs": [
						{
							"internalType": "bytes32",
							"name": "node",
							"type": "bytes32"
						},
						{
							"internalType": "bytes32",
							"name": "label",
							"type": "bytes32"
						},
						{
							"internalType": "address",
							"name": "_owner",
							"type": "address"
						},
						{
							"internalType": "address",
							"name": "_resolver",
							"type": "address"
						}
					],
					"name": "setSubnodeRecord",
					"outputs": [],
					"stateMutability": "nonpayable",
					"type": "function"
				}
			],
			"devdoc": {
				"kind": "dev",
				"methods": {
					"isApprovedForAll(address,address)": {
						"details": "Query if an address is an authorized operator for another address.",
						"params": {
							"_owner": "The address that owns the records.",
							"operator": "The address that acts on behalf of the owner."
						},
						"returns": {
							"_0": "True if `operator` is an approved operator for `owner`, false otherwise."
						}
					},
					"manager(bytes32)": {
						"details": "Returns the address of the manager for the specified node.",
						"params": {
							"node": "The specified node."
						},
						"returns": {
							"_0": "address of the manager."
						}
					},
					"owner(bytes32)": {
						"details": "Returns the address that owns the specified node.",
						"params": {
							"node": "The specified node."
						},
						"returns": {
							"_0": "address of the owner."
						}
					},
					"recordExists(bytes32)": {
						"details": "Returns whether a record has been imported to the registry.",
						"params": {
							"node": "The specified node."
						},
						"returns": {
							"_0": "Bool if record exists"
						}
					},
					"setApprovalForAll(address,bool)": {
						"details": "Enable or disable approval for a third party (\"operator\") to manage  all of `msg.sender`'s ENS records. Emits the ApprovalForAll event.",
						"params": {
							"approved": "True if the operator is approved, false to revoke approval.",
							"operator": "Address to add to the set of authorized operators."
						}
					},
					"setManager(bytes32,address)": {
						"details": "Sets the manager address for the specified node.",
						"params": {
							"_manager": "The address of the manager.",
							"node": "The node to update."
						}
					},
					"setOwner(bytes32,address)": {
						"details": "Transfers ownership of a node to a new address. May only be called by the current owner of the node.",
						"params": {
							"_owner": "The address of the new owner.",
							"node": "The node to transfer ownership of."
						}
					},
					"setRecord(bytes32,address,address)": {
						"details": "Sets the record for a node.",
						"params": {
							"_manager": "The address of the manager contract.",
							"_owner": "The address of the new owner.",
							"node": "The node to update."
						}
					},
					"setSubnodeOwner(bytes32,bytes32,address)": {
						"details": "Transfers ownership of a subnode keccak256(node, label) to a new address. May only be called by the owner of the parent node.",
						"params": {
							"_owner": "The address of the new owner.",
							"label": "The hash of the label specifying the subnode.",
							"node": "The parent node."
						}
					},
					"setSubnodeRecord(bytes32,bytes32,address,address)": {
						"details": "Sets the record for a subnode.",
						"params": {
							"_owner": "The address of the new owner.",
							"_resolver": "The address of the manager.",
							"label": "The hash of the label specifying the subnode.",
							"node": "The parent node."
						}
					}
				},
				"version": 1
			},
			"evm": {
				"assembly": "    /* \"dev/functions/FunctionRegistry.sol\":151:6039  contract FunctionRegistry is Registry {... */\n  mstore(0x40, 0x80)\n  callvalue\n  dup1\n  iszero\n  tag_1\n  jumpi\n  0x00\n  dup1\n  revert\ntag_1:\n  pop\n  dataSize(sub_0)\n  dup1\n  dataOffset(sub_0)\n  0x00\n  codecopy\n  0x00\n  return\nstop\n\nsub_0: assembly {\n        /* \"dev/functions/FunctionRegistry.sol\":151:6039  contract FunctionRegistry is Registry {... */\n      mstore(0x40, 0x80)\n      callvalue\n      dup1\n      iszero\n      tag_1\n      jumpi\n      0x00\n      dup1\n      revert\n    tag_1:\n      pop\n      jumpi(tag_2, lt(calldatasize, 0x04))\n      shr(0xe0, calldataload(0x00))\n      dup1\n      0x9885e3b4\n      gt\n      tag_16\n      jumpi\n      dup1\n      0xe1c7392a\n      gt\n      tag_17\n      jumpi\n      dup1\n      0xe1c7392a\n      eq\n      tag_12\n      jumpi\n      dup1\n      0xe985e9c5\n      eq\n      tag_13\n      jumpi\n      dup1\n      0xf79fe538\n      eq\n      tag_14\n      jumpi\n      dup1\n      0xf88c98b6\n      eq\n      tag_15\n      jumpi\n      jump(tag_2)\n    tag_17:\n      dup1\n      0x9885e3b4\n      eq\n      tag_9\n      jumpi\n      dup1\n      0xa22cb465\n      eq\n      tag_10\n      jumpi\n      dup1\n      0xda8c229e\n      eq\n      tag_11\n      jumpi\n      jump(tag_2)\n    tag_16:\n      dup1\n      0x02571be3\n      eq\n      tag_3\n      jumpi\n      dup1\n      0x03dafc07\n      eq\n      tag_4\n      jumpi\n      dup1\n      0x06ab5923\n      eq\n      tag_5\n      jumpi\n      dup1\n      0x4ff63845\n      eq\n      tag_6\n      jumpi\n      dup1\n      0x54ee2090\n      eq\n      tag_7\n      jumpi\n      dup1\n      0x5b0fc9c3\n      eq\n      tag_8\n      jumpi\n    tag_2:\n      0x00\n      dup1\n      revert\n        /* \"dev/functions/FunctionRegistry.sol\":4304:4547  function owner(... */\n    tag_3:\n      tag_18\n      0x04\n      dup1\n      calldatasize\n      sub\n      dup2\n      add\n      swap1\n      tag_19\n      swap2\n      swap1\n      tag_20\n      jump\t// in\n    tag_19:\n      tag_21\n      jump\t// in\n    tag_18:\n      mload(0x40)\n      tag_22\n      swap2\n      swap1\n      tag_23\n      jump\t// in\n    tag_22:\n      mload(0x40)\n      dup1\n      swap2\n      sub\n      swap1\n      return\n        /* \"dev/functions/FunctionRegistry.sol\":1858:2124  function setSubnodeRecord(... */\n    tag_4:\n      tag_24\n      0x04\n      dup1\n      calldatasize\n      sub\n      dup2\n      add\n      swap1\n      tag_25\n      swap2\n      swap1\n      tag_26\n      jump\t// in\n    tag_25:\n      tag_27\n      jump\t// in\n    tag_24:\n      stop\n        /* \"dev/functions/FunctionRegistry.sol\":2865:3203  function setSubnodeOwner(... */\n    tag_5:\n      tag_28\n      0x04\n      dup1\n      calldatasize\n      sub\n      dup2\n      add\n      swap1\n      tag_29\n      swap2\n      swap1\n      tag_30\n      jump\t// in\n    tag_29:\n      tag_31\n      jump\t// in\n    tag_28:\n      mload(0x40)\n      tag_32\n      swap2\n      swap1\n      tag_33\n      jump\t// in\n    tag_32:\n      mload(0x40)\n      dup1\n      swap2\n      sub\n      swap1\n      return\n        /* \"dev/functions/FunctionRegistry.sol\":1090:1177  function SetController(address _owner) public {... */\n    tag_6:\n      tag_34\n      0x04\n      dup1\n      calldatasize\n      sub\n      dup2\n      add\n      swap1\n      tag_35\n      swap2\n      swap1\n      tag_36\n      jump\t// in\n    tag_35:\n      tag_37\n      jump\t// in\n    tag_34:\n      stop\n        /* \"dev/functions/FunctionRegistry.sol\":3376:3581  function setManager(... */\n    tag_7:\n      tag_38\n      0x04\n      dup1\n      calldatasize\n      sub\n      dup2\n      add\n      swap1\n      tag_39\n      swap2\n      swap1\n      tag_40\n      jump\t// in\n    tag_39:\n      tag_41\n      jump\t// in\n    tag_38:\n      stop\n        /* \"dev/functions/FunctionRegistry.sol\":2364:2552  function setOwner(... */\n    tag_8:\n      tag_42\n      0x04\n      dup1\n      calldatasize\n      sub\n      dup2\n      add\n      swap1\n      tag_43\n      swap2\n      swap1\n      tag_40\n      jump\t// in\n    tag_43:\n      tag_44\n      jump\t// in\n    tag_42:\n      stop\n        /* \"dev/functions/FunctionRegistry.sol\":4718:4855  function manager(... */\n    tag_9:\n      tag_45\n      0x04\n      dup1\n      calldatasize\n      sub\n      dup2\n      add\n      swap1\n      tag_46\n      swap2\n      swap1\n      tag_20\n      jump\t// in\n    tag_46:\n      tag_47\n      jump\t// in\n    tag_45:\n      mload(0x40)\n      tag_48\n      swap2\n      swap1\n      tag_23\n      jump\t// in\n    tag_48:\n      mload(0x40)\n      dup1\n      swap2\n      sub\n      swap1\n      return\n        /* \"dev/functions/FunctionRegistry.sol\":3916:4144  function setApprovalForAll(... */\n    tag_10:\n      tag_49\n      0x04\n      dup1\n      calldatasize\n      sub\n      dup2\n      add\n      swap1\n      tag_50\n      swap2\n      swap1\n      tag_51\n      jump\t// in\n    tag_50:\n      tag_52\n      jump\t// in\n    tag_49:\n      stop\n        /* \"dev/functions/FunctionRegistry.sol\":482:525  mapping(address => bool) public controllers */\n    tag_11:\n      tag_53\n      0x04\n      dup1\n      calldatasize\n      sub\n      dup2\n      add\n      swap1\n      tag_54\n      swap2\n      swap1\n      tag_36\n      jump\t// in\n    tag_54:\n      tag_55\n      jump\t// in\n    tag_53:\n      mload(0x40)\n      tag_56\n      swap2\n      swap1\n      tag_57\n      jump\t// in\n    tag_56:\n      mload(0x40)\n      dup1\n      swap2\n      sub\n      swap1\n      return\n        /* \"dev/functions/FunctionRegistry.sol\":910:1084  function init() public {... */\n    tag_12:\n      tag_58\n      tag_59\n      jump\t// in\n    tag_58:\n      stop\n        /* \"dev/functions/FunctionRegistry.sol\":5494:5673  function isApprovedForAll(... */\n    tag_13:\n      tag_60\n      0x04\n      dup1\n      calldatasize\n      sub\n      dup2\n      add\n      swap1\n      tag_61\n      swap2\n      swap1\n      tag_62\n      jump\t// in\n    tag_61:\n      tag_63\n      jump\t// in\n    tag_60:\n      mload(0x40)\n      tag_64\n      swap2\n      swap1\n      tag_57\n      jump\t// in\n    tag_64:\n      mload(0x40)\n      dup1\n      swap2\n      sub\n      swap1\n      return\n        /* \"dev/functions/FunctionRegistry.sol\":5027:5180  function recordExists(... */\n    tag_14:\n      tag_65\n      0x04\n      dup1\n      calldatasize\n      sub\n      dup2\n      add\n      swap1\n      tag_66\n      swap2\n      swap1\n      tag_20\n      jump\t// in\n    tag_66:\n      tag_67\n      jump\t// in\n    tag_65:\n      mload(0x40)\n      tag_68\n      swap2\n      swap1\n      tag_57\n      jump\t// in\n    tag_68:\n      mload(0x40)\n      dup1\n      swap2\n      sub\n      swap1\n      return\n        /* \"dev/functions/FunctionRegistry.sol\":1389:1588  function setRecord(... */\n    tag_15:\n      tag_69\n      0x04\n      dup1\n      calldatasize\n      sub\n      dup2\n      add\n      swap1\n      tag_70\n      swap2\n      swap1\n      tag_71\n      jump\t// in\n    tag_70:\n      tag_72\n      jump\t// in\n    tag_69:\n      stop\n        /* \"dev/functions/FunctionRegistry.sol\":4304:4547  function owner(... */\n    tag_21:\n        /* \"dev/functions/FunctionRegistry.sol\":4385:4392  address */\n      0x00\n        /* \"dev/functions/FunctionRegistry.sol\":4404:4416  address addr */\n      dup1\n        /* \"dev/functions/FunctionRegistry.sol\":4419:4426  records */\n      0x01\n        /* \"dev/functions/FunctionRegistry.sol\":4419:4432  records[node] */\n      0x00\n        /* \"dev/functions/FunctionRegistry.sol\":4427:4431  node */\n      dup5\n        /* \"dev/functions/FunctionRegistry.sol\":4419:4432  records[node] */\n      dup2\n      mstore\n      0x20\n      add\n      swap1\n      dup2\n      mstore\n      0x20\n      add\n      0x00\n      keccak256\n        /* \"dev/functions/FunctionRegistry.sol\":4419:4438  records[node].owner */\n      0x00\n      add\n      0x00\n      swap1\n      sload\n      swap1\n      0x0100\n      exp\n      swap1\n      div\n      0xffffffffffffffffffffffffffffffffffffffff\n      and\n        /* \"dev/functions/FunctionRegistry.sol\":4404:4438  address addr = records[node].owner */\n      swap1\n      pop\n        /* \"dev/functions/FunctionRegistry.sol\":4468:4472  this */\n      address\n        /* \"dev/functions/FunctionRegistry.sol\":4452:4473  addr == address(this) */\n      0xffffffffffffffffffffffffffffffffffffffff\n      and\n        /* \"dev/functions/FunctionRegistry.sol\":4452:4456  addr */\n      dup2\n        /* \"dev/functions/FunctionRegistry.sol\":4452:4473  addr == address(this) */\n      0xffffffffffffffffffffffffffffffffffffffff\n      and\n      eq\n        /* \"dev/functions/FunctionRegistry.sol\":4448:4519  if (addr == address(this)) {... */\n      iszero\n      tag_74\n      jumpi\n        /* \"dev/functions/FunctionRegistry.sol\":4504:4507  0x0 */\n      0x00\n        /* \"dev/functions/FunctionRegistry.sol\":4489:4508  return address(0x0) */\n      swap2\n      pop\n      pop\n      jump(tag_73)\n        /* \"dev/functions/FunctionRegistry.sol\":4448:4519  if (addr == address(this)) {... */\n    tag_74:\n        /* \"dev/functions/FunctionRegistry.sol\":4536:4540  addr */\n      dup1\n        /* \"dev/functions/FunctionRegistry.sol\":4529:4540  return addr */\n      swap2\n      pop\n      pop\n        /* \"dev/functions/FunctionRegistry.sol\":4304:4547  function owner(... */\n    tag_73:\n      swap2\n      swap1\n      pop\n      jump\t// out\n        /* \"dev/functions/FunctionRegistry.sol\":1858:2124  function setSubnodeRecord(... */\n    tag_27:\n        /* \"dev/functions/FunctionRegistry.sol\":2022:2037  bytes32 subnode */\n      0x00\n        /* \"dev/functions/FunctionRegistry.sol\":2040:2076  setSubnodeOwner(node, label, _owner) */\n      tag_76\n        /* \"dev/functions/FunctionRegistry.sol\":2056:2060  node */\n      dup6\n        /* \"dev/functions/FunctionRegistry.sol\":2062:2067  label */\n      dup6\n        /* \"dev/functions/FunctionRegistry.sol\":2069:2075  _owner */\n      dup6\n        /* \"dev/functions/FunctionRegistry.sol\":2040:2055  setSubnodeOwner */\n      tag_31\n        /* \"dev/functions/FunctionRegistry.sol\":2040:2076  setSubnodeOwner(node, label, _owner) */\n      jump\t// in\n    tag_76:\n        /* \"dev/functions/FunctionRegistry.sol\":2022:2076  bytes32 subnode = setSubnodeOwner(node, label, _owner) */\n      swap1\n      pop\n        /* \"dev/functions/FunctionRegistry.sol\":2086:2117  _setManager(subnode, _resolver) */\n      tag_77\n        /* \"dev/functions/FunctionRegistry.sol\":2098:2105  subnode */\n      dup2\n        /* \"dev/functions/FunctionRegistry.sol\":2107:2116  _resolver */\n      dup4\n        /* \"dev/functions/FunctionRegistry.sol\":2086:2097  _setManager */\n      tag_78\n        /* \"dev/functions/FunctionRegistry.sol\":2086:2117  _setManager(subnode, _resolver) */\n      jump\t// in\n    tag_77:\n        /* \"dev/functions/FunctionRegistry.sol\":2012:2124  {... */\n      pop\n        /* \"dev/functions/FunctionRegistry.sol\":1858:2124  function setSubnodeRecord(... */\n      pop\n      pop\n      pop\n      pop\n      jump\t// out\n        /* \"dev/functions/FunctionRegistry.sol\":2865:3203  function setSubnodeOwner(... */\n    tag_31:\n        /* \"dev/functions/FunctionRegistry.sol\":3015:3022  bytes32 */\n      0x00\n        /* \"dev/functions/FunctionRegistry.sol\":3000:3004  node */\n      dup4\n        /* \"dev/functions/FunctionRegistry.sol\":3034:3049  bytes32 subnode */\n      0x00\n        /* \"dev/functions/FunctionRegistry.sol\":3079:3083  node */\n      dup6\n        /* \"dev/functions/FunctionRegistry.sol\":3085:3090  label */\n      dup6\n        /* \"dev/functions/FunctionRegistry.sol\":3062:3091  abi.encodePacked(node, label) */\n      add(0x20, mload(0x40))\n      tag_81\n      swap3\n      swap2\n      swap1\n      tag_82\n      jump\t// in\n    tag_81:\n      mload(0x40)\n      0x20\n      dup2\n      dup4\n      sub\n      sub\n      dup2\n      mstore\n      swap1\n      0x40\n      mstore\n        /* \"dev/functions/FunctionRegistry.sol\":3052:3092  keccak256(abi.encodePacked(node, label)) */\n      dup1\n      mload\n      swap1\n      0x20\n      add\n      keccak256\n        /* \"dev/functions/FunctionRegistry.sol\":3034:3092  bytes32 subnode = keccak256(abi.encodePacked(node, label)) */\n      swap1\n      pop\n        /* \"dev/functions/FunctionRegistry.sol\":3102:3128  _setOwner(subnode, _owner) */\n      tag_83\n        /* \"dev/functions/FunctionRegistry.sol\":3112:3119  subnode */\n      dup2\n        /* \"dev/functions/FunctionRegistry.sol\":3121:3127  _owner */\n      dup6\n        /* \"dev/functions/FunctionRegistry.sol\":3102:3111  _setOwner */\n      tag_84\n        /* \"dev/functions/FunctionRegistry.sol\":3102:3128  _setOwner(subnode, _owner) */\n      jump\t// in\n    tag_83:\n        /* \"dev/functions/FunctionRegistry.sol\":3158:3163  label */\n      dup5\n        /* \"dev/functions/FunctionRegistry.sol\":3152:3156  node */\n      dup7\n        /* \"dev/functions/FunctionRegistry.sol\":3143:3172  NewOwner(node, label, _owner) */\n      0xce0457fe73731f824cc272376169235128c118b49d344817417c6d108d155e82\n        /* \"dev/functions/FunctionRegistry.sol\":3165:3171  _owner */\n      dup7\n        /* \"dev/functions/FunctionRegistry.sol\":3143:3172  NewOwner(node, label, _owner) */\n      mload(0x40)\n      tag_85\n      swap2\n      swap1\n      tag_23\n      jump\t// in\n    tag_85:\n      mload(0x40)\n      dup1\n      swap2\n      sub\n      swap1\n      log3\n        /* \"dev/functions/FunctionRegistry.sol\":3189:3196  subnode */\n      dup1\n        /* \"dev/functions/FunctionRegistry.sol\":3182:3196  return subnode */\n      swap3\n      pop\n      pop\n        /* \"dev/functions/FunctionRegistry.sol\":2865:3203  function setSubnodeOwner(... */\n      pop\n      swap4\n      swap3\n      pop\n      pop\n      pop\n      jump\t// out\n        /* \"dev/functions/FunctionRegistry.sol\":1090:1177  function SetController(address _owner) public {... */\n    tag_37:\n        /* \"dev/functions/FunctionRegistry.sol\":1166:1170  true */\n      0x01\n        /* \"dev/functions/FunctionRegistry.sol\":1146:1157  controllers */\n      0x03\n        /* \"dev/functions/FunctionRegistry.sol\":1146:1165  controllers[_owner] */\n      0x00\n        /* \"dev/functions/FunctionRegistry.sol\":1158:1164  _owner */\n      dup4\n        /* \"dev/functions/FunctionRegistry.sol\":1146:1165  controllers[_owner] */\n      0xffffffffffffffffffffffffffffffffffffffff\n      and\n      0xffffffffffffffffffffffffffffffffffffffff\n      and\n      dup2\n      mstore\n      0x20\n      add\n      swap1\n      dup2\n      mstore\n      0x20\n      add\n      0x00\n      keccak256\n      0x00\n        /* \"dev/functions/FunctionRegistry.sol\":1146:1170  controllers[_owner]=true */\n      0x0100\n      exp\n      dup2\n      sload\n      dup2\n      0xff\n      mul\n      not\n      and\n      swap1\n      dup4\n      iszero\n      iszero\n      mul\n      or\n      swap1\n      sstore\n      pop\n        /* \"dev/functions/FunctionRegistry.sol\":1090:1177  function SetController(address _owner) public {... */\n      pop\n      jump\t// out\n        /* \"dev/functions/FunctionRegistry.sol\":3376:3581  function setManager(... */\n    tag_41:\n        /* \"dev/functions/FunctionRegistry.sol\":3485:3489  node */\n      dup2\n        /* \"dev/functions/FunctionRegistry.sol\":3525:3533  _manager */\n      dup2\n        /* \"dev/functions/FunctionRegistry.sol\":3501:3508  records */\n      0x01\n        /* \"dev/functions/FunctionRegistry.sol\":3501:3514  records[node] */\n      0x00\n        /* \"dev/functions/FunctionRegistry.sol\":3509:3513  node */\n      dup6\n        /* \"dev/functions/FunctionRegistry.sol\":3501:3514  records[node] */\n      dup2\n      mstore\n      0x20\n      add\n      swap1\n      dup2\n      mstore\n      0x20\n      add\n      0x00\n      keccak256\n        /* \"dev/functions/FunctionRegistry.sol\":3501:3522  records[node].manager */\n      0x01\n      add\n      0x00\n        /* \"dev/functions/FunctionRegistry.sol\":3501:3533  records[node].manager = _manager */\n      0x0100\n      exp\n      dup2\n      sload\n      dup2\n      0xffffffffffffffffffffffffffffffffffffffff\n      mul\n      not\n      and\n      swap1\n      dup4\n      0xffffffffffffffffffffffffffffffffffffffff\n      and\n      mul\n      or\n      swap1\n      sstore\n      pop\n        /* \"dev/functions/FunctionRegistry.sol\":3559:3563  node */\n      dup3\n        /* \"dev/functions/FunctionRegistry.sol\":3548:3574  NewManager(node, _manager) */\n      0xabd3903f5c84f8950a7b3bb2a5d4dbac40b9a379a5f010107fb3acd94dd995e2\n        /* \"dev/functions/FunctionRegistry.sol\":3565:3573  _manager */\n      dup4\n        /* \"dev/functions/FunctionRegistry.sol\":3548:3574  NewManager(node, _manager) */\n      mload(0x40)\n      tag_89\n      swap2\n      swap1\n      tag_23\n      jump\t// in\n    tag_89:\n      mload(0x40)\n      dup1\n      swap2\n      sub\n      swap1\n      log2\n        /* \"dev/functions/FunctionRegistry.sol\":3376:3581  function setManager(... */\n      pop\n      pop\n      pop\n      jump\t// out\n        /* \"dev/functions/FunctionRegistry.sol\":2364:2552  function setOwner(... */\n    tag_44:\n        /* \"dev/functions/FunctionRegistry.sol\":2469:2473  node */\n      dup2\n        /* \"dev/functions/FunctionRegistry.sol\":2485:2508  _setOwner(node, _owner) */\n      tag_92\n        /* \"dev/functions/FunctionRegistry.sol\":2495:2499  node */\n      dup4\n        /* \"dev/functions/FunctionRegistry.sol\":2501:2507  _owner */\n      dup4\n        /* \"dev/functions/FunctionRegistry.sol\":2485:2494  _setOwner */\n      tag_84\n        /* \"dev/functions/FunctionRegistry.sol\":2485:2508  _setOwner(node, _owner) */\n      jump\t// in\n    tag_92:\n        /* \"dev/functions/FunctionRegistry.sol\":2532:2536  node */\n      dup3\n        /* \"dev/functions/FunctionRegistry.sol\":2523:2545  Transfer(node, _owner) */\n      0xd4735d920b0f87494915f556dd9b54c8f309026070caea5c737245152564d266\n        /* \"dev/functions/FunctionRegistry.sol\":2538:2544  _owner */\n      dup4\n        /* \"dev/functions/FunctionRegistry.sol\":2523:2545  Transfer(node, _owner) */\n      mload(0x40)\n      tag_93\n      swap2\n      swap1\n      tag_23\n      jump\t// in\n    tag_93:\n      mload(0x40)\n      dup1\n      swap2\n      sub\n      swap1\n      log2\n        /* \"dev/functions/FunctionRegistry.sol\":2364:2552  function setOwner(... */\n      pop\n      pop\n      pop\n      jump\t// out\n        /* \"dev/functions/FunctionRegistry.sol\":4718:4855  function manager(... */\n    tag_47:\n        /* \"dev/functions/FunctionRegistry.sol\":4801:4808  address */\n      0x00\n        /* \"dev/functions/FunctionRegistry.sol\":4827:4834  records */\n      0x01\n        /* \"dev/functions/FunctionRegistry.sol\":4827:4840  records[node] */\n      0x00\n        /* \"dev/functions/FunctionRegistry.sol\":4835:4839  node */\n      dup4\n        /* \"dev/functions/FunctionRegistry.sol\":4827:4840  records[node] */\n      dup2\n      mstore\n      0x20\n      add\n      swap1\n      dup2\n      mstore\n      0x20\n      add\n      0x00\n      keccak256\n        /* \"dev/functions/FunctionRegistry.sol\":4827:4848  records[node].manager */\n      0x01\n      add\n      0x00\n      swap1\n      sload\n      swap1\n      0x0100\n      exp\n      swap1\n      div\n      0xffffffffffffffffffffffffffffffffffffffff\n      and\n        /* \"dev/functions/FunctionRegistry.sol\":4820:4848  return records[node].manager */\n      swap1\n      pop\n        /* \"dev/functions/FunctionRegistry.sol\":4718:4855  function manager(... */\n      swap2\n      swap1\n      pop\n      jump\t// out\n        /* \"dev/functions/FunctionRegistry.sol\":3916:4144  function setApprovalForAll(... */\n    tag_52:\n        /* \"dev/functions/FunctionRegistry.sol\":4068:4076  approved */\n      dup1\n        /* \"dev/functions/FunctionRegistry.sol\":4034:4043  operators */\n      0x02\n        /* \"dev/functions/FunctionRegistry.sol\":4034:4055  operators[msg.sender] */\n      0x00\n        /* \"dev/functions/FunctionRegistry.sol\":4044:4054  msg.sender */\n      caller\n        /* \"dev/functions/FunctionRegistry.sol\":4034:4055  operators[msg.sender] */\n      0xffffffffffffffffffffffffffffffffffffffff\n      and\n      0xffffffffffffffffffffffffffffffffffffffff\n      and\n      dup2\n      mstore\n      0x20\n      add\n      swap1\n      dup2\n      mstore\n      0x20\n      add\n      0x00\n      keccak256\n        /* \"dev/functions/FunctionRegistry.sol\":4034:4065  operators[msg.sender][operator] */\n      0x00\n        /* \"dev/functions/FunctionRegistry.sol\":4056:4064  operator */\n      dup5\n        /* \"dev/functions/FunctionRegistry.sol\":4034:4065  operators[msg.sender][operator] */\n      0xffffffffffffffffffffffffffffffffffffffff\n      and\n      0xffffffffffffffffffffffffffffffffffffffff\n      and\n      dup2\n      mstore\n      0x20\n      add\n      swap1\n      dup2\n      mstore\n      0x20\n      add\n      0x00\n      keccak256\n      0x00\n        /* \"dev/functions/FunctionRegistry.sol\":4034:4076  operators[msg.sender][operator] = approved */\n      0x0100\n      exp\n      dup2\n      sload\n      dup2\n      0xff\n      mul\n      not\n      and\n      swap1\n      dup4\n      iszero\n      iszero\n      mul\n      or\n      swap1\n      sstore\n      pop\n        /* \"dev/functions/FunctionRegistry.sol\":4118:4126  operator */\n      dup2\n        /* \"dev/functions/FunctionRegistry.sol\":4091:4137  ApprovalForAll(msg.sender, operator, approved) */\n      0xffffffffffffffffffffffffffffffffffffffff\n      and\n        /* \"dev/functions/FunctionRegistry.sol\":4106:4116  msg.sender */\n      caller\n        /* \"dev/functions/FunctionRegistry.sol\":4091:4137  ApprovalForAll(msg.sender, operator, approved) */\n      0xffffffffffffffffffffffffffffffffffffffff\n      and\n      0x17307eab39ab6107e8899845ad3d59bd9653f200f220920489ca2b5937696c31\n        /* \"dev/functions/FunctionRegistry.sol\":4128:4136  approved */\n      dup4\n        /* \"dev/functions/FunctionRegistry.sol\":4091:4137  ApprovalForAll(msg.sender, operator, approved) */\n      mload(0x40)\n      tag_96\n      swap2\n      swap1\n      tag_57\n      jump\t// in\n    tag_96:\n      mload(0x40)\n      dup1\n      swap2\n      sub\n      swap1\n      log3\n        /* \"dev/functions/FunctionRegistry.sol\":3916:4144  function setApprovalForAll(... */\n      pop\n      pop\n      jump\t// out\n        /* \"dev/functions/FunctionRegistry.sol\":482:525  mapping(address => bool) public controllers */\n    tag_55:\n      mstore(0x20, 0x03)\n      dup1\n      0x00\n      mstore\n      keccak256(0x00, 0x40)\n      0x00\n      swap2\n      pop\n      sload\n      swap1\n      0x0100\n      exp\n      swap1\n      div\n      0xff\n      and\n      dup2\n      jump\t// out\n        /* \"dev/functions/FunctionRegistry.sol\":910:1084  function init() public {... */\n    tag_59:\n        /* \"dev/functions/FunctionRegistry.sol\":948:954  IsInit */\n      0x00\n      dup1\n      sload\n      swap1\n      0x0100\n      exp\n      swap1\n      div\n      0xff\n      and\n        /* \"dev/functions/FunctionRegistry.sol\":943:1078  if (!IsInit){... */\n      tag_98\n      jumpi\n        /* \"dev/functions/FunctionRegistry.sol\":990:1000  msg.sender */\n      caller\n        /* \"dev/functions/FunctionRegistry.sol\":969:976  records */\n      0x01\n        /* \"dev/functions/FunctionRegistry.sol\":969:981  records[0x0] */\n      0x00\n        /* \"dev/functions/FunctionRegistry.sol\":977:980  0x0 */\n      dup1\n        /* \"dev/functions/FunctionRegistry.sol\":969:981  records[0x0] */\n      0x00\n      shl\n      dup2\n      mstore\n      0x20\n      add\n      swap1\n      dup2\n      mstore\n      0x20\n      add\n      0x00\n      keccak256\n        /* \"dev/functions/FunctionRegistry.sol\":969:987  records[0x0].owner */\n      0x00\n      add\n      0x00\n        /* \"dev/functions/FunctionRegistry.sol\":969:1000  records[0x0].owner = msg.sender */\n      0x0100\n      exp\n      dup2\n      sload\n      dup2\n      0xffffffffffffffffffffffffffffffffffffffff\n      mul\n      not\n      and\n      swap1\n      dup4\n      0xffffffffffffffffffffffffffffffffffffffff\n      and\n      mul\n      or\n      swap1\n      sstore\n      pop\n        /* \"dev/functions/FunctionRegistry.sol\":1038:1042  true */\n      0x01\n        /* \"dev/functions/FunctionRegistry.sol\":1014:1025  controllers */\n      0x03\n        /* \"dev/functions/FunctionRegistry.sol\":1014:1037  controllers[msg.sender] */\n      0x00\n        /* \"dev/functions/FunctionRegistry.sol\":1026:1036  msg.sender */\n      caller\n        /* \"dev/functions/FunctionRegistry.sol\":1014:1037  controllers[msg.sender] */\n      0xffffffffffffffffffffffffffffffffffffffff\n      and\n      0xffffffffffffffffffffffffffffffffffffffff\n      and\n      dup2\n      mstore\n      0x20\n      add\n      swap1\n      dup2\n      mstore\n      0x20\n      add\n      0x00\n      keccak256\n      0x00\n        /* \"dev/functions/FunctionRegistry.sol\":1014:1042  controllers[msg.sender]=true */\n      0x0100\n      exp\n      dup2\n      sload\n      dup2\n      0xff\n      mul\n      not\n      and\n      swap1\n      dup4\n      iszero\n      iszero\n      mul\n      or\n      swap1\n      sstore\n      pop\n        /* \"dev/functions/FunctionRegistry.sol\":1063:1067  true */\n      0x01\n        /* \"dev/functions/FunctionRegistry.sol\":1056:1062  IsInit */\n      0x00\n      dup1\n        /* \"dev/functions/FunctionRegistry.sol\":1056:1067  IsInit=true */\n      0x0100\n      exp\n      dup2\n      sload\n      dup2\n      0xff\n      mul\n      not\n      and\n      swap1\n      dup4\n      iszero\n      iszero\n      mul\n      or\n      swap1\n      sstore\n      pop\n        /* \"dev/functions/FunctionRegistry.sol\":943:1078  if (!IsInit){... */\n    tag_98:\n        /* \"dev/functions/FunctionRegistry.sol\":910:1084  function init() public {... */\n      jump\t// out\n        /* \"dev/functions/FunctionRegistry.sol\":5494:5673  function isApprovedForAll(... */\n    tag_63:\n        /* \"dev/functions/FunctionRegistry.sol\":5616:5620  bool */\n      0x00\n        /* \"dev/functions/FunctionRegistry.sol\":5639:5648  operators */\n      0x02\n        /* \"dev/functions/FunctionRegistry.sol\":5639:5656  operators[_owner] */\n      0x00\n        /* \"dev/functions/FunctionRegistry.sol\":5649:5655  _owner */\n      dup5\n        /* \"dev/functions/FunctionRegistry.sol\":5639:5656  operators[_owner] */\n      0xffffffffffffffffffffffffffffffffffffffff\n      and\n      0xffffffffffffffffffffffffffffffffffffffff\n      and\n      dup2\n      mstore\n      0x20\n      add\n      swap1\n      dup2\n      mstore\n      0x20\n      add\n      0x00\n      keccak256\n        /* \"dev/functions/FunctionRegistry.sol\":5639:5666  operators[_owner][operator] */\n      0x00\n        /* \"dev/functions/FunctionRegistry.sol\":5657:5665  operator */\n      dup4\n        /* \"dev/functions/FunctionRegistry.sol\":5639:5666  operators[_owner][operator] */\n      0xffffffffffffffffffffffffffffffffffffffff\n      and\n      0xffffffffffffffffffffffffffffffffffffffff\n      and\n      dup2\n      mstore\n      0x20\n      add\n      swap1\n      dup2\n      mstore\n      0x20\n      add\n      0x00\n      keccak256\n      0x00\n      swap1\n      sload\n      swap1\n      0x0100\n      exp\n      swap1\n      div\n      0xff\n      and\n        /* \"dev/functions/FunctionRegistry.sol\":5632:5666  return operators[_owner][operator] */\n      swap1\n      pop\n        /* \"dev/functions/FunctionRegistry.sol\":5494:5673  function isApprovedForAll(... */\n      swap3\n      swap2\n      pop\n      pop\n      jump\t// out\n        /* \"dev/functions/FunctionRegistry.sol\":5027:5180  function recordExists(... */\n    tag_67:\n        /* \"dev/functions/FunctionRegistry.sol\":5115:5119  bool */\n      0x00\n        /* \"dev/functions/FunctionRegistry.sol\":5169:5172  0x0 */\n      dup1\n        /* \"dev/functions/FunctionRegistry.sol\":5138:5173  records[node].owner != address(0x0) */\n      0xffffffffffffffffffffffffffffffffffffffff\n      and\n        /* \"dev/functions/FunctionRegistry.sol\":5138:5145  records */\n      0x01\n        /* \"dev/functions/FunctionRegistry.sol\":5138:5151  records[node] */\n      0x00\n        /* \"dev/functions/FunctionRegistry.sol\":5146:5150  node */\n      dup5\n        /* \"dev/functions/FunctionRegistry.sol\":5138:5151  records[node] */\n      dup2\n      mstore\n      0x20\n      add\n      swap1\n      dup2\n      mstore\n      0x20\n      add\n      0x00\n      keccak256\n        /* \"dev/functions/FunctionRegistry.sol\":5138:5157  records[node].owner */\n      0x00\n      add\n      0x00\n      swap1\n      sload\n      swap1\n      0x0100\n      exp\n      swap1\n      div\n      0xffffffffffffffffffffffffffffffffffffffff\n      and\n        /* \"dev/functions/FunctionRegistry.sol\":5138:5173  records[node].owner != address(0x0) */\n      0xffffffffffffffffffffffffffffffffffffffff\n      and\n      eq\n      iszero\n        /* \"dev/functions/FunctionRegistry.sol\":5131:5173  return records[node].owner != address(0x0) */\n      swap1\n      pop\n        /* \"dev/functions/FunctionRegistry.sol\":5027:5180  function recordExists(... */\n      swap2\n      swap1\n      pop\n      jump\t// out\n        /* \"dev/functions/FunctionRegistry.sol\":1389:1588  function setRecord(... */\n    tag_72:\n        /* \"dev/functions/FunctionRegistry.sol\":1522:1544  setOwner(node, _owner) */\n      tag_102\n        /* \"dev/functions/FunctionRegistry.sol\":1531:1535  node */\n      dup4\n        /* \"dev/functions/FunctionRegistry.sol\":1537:1543  _owner */\n      dup4\n        /* \"dev/functions/FunctionRegistry.sol\":1522:1530  setOwner */\n      tag_44\n        /* \"dev/functions/FunctionRegistry.sol\":1522:1544  setOwner(node, _owner) */\n      jump\t// in\n    tag_102:\n        /* \"dev/functions/FunctionRegistry.sol\":1554:1581  _setManager(node, _manager) */\n      tag_103\n        /* \"dev/functions/FunctionRegistry.sol\":1566:1570  node */\n      dup4\n        /* \"dev/functions/FunctionRegistry.sol\":1572:1580  _manager */\n      dup3\n        /* \"dev/functions/FunctionRegistry.sol\":1554:1565  _setManager */\n      tag_78\n        /* \"dev/functions/FunctionRegistry.sol\":1554:1581  _setManager(node, _manager) */\n      jump\t// in\n    tag_103:\n        /* \"dev/functions/FunctionRegistry.sol\":1389:1588  function setRecord(... */\n      pop\n      pop\n      pop\n      jump\t// out\n        /* \"dev/functions/FunctionRegistry.sol\":5796:6037  function _setManager(... */\n    tag_78:\n        /* \"dev/functions/FunctionRegistry.sol\":5906:5913  records */\n      0x01\n        /* \"dev/functions/FunctionRegistry.sol\":5906:5919  records[node] */\n      0x00\n        /* \"dev/functions/FunctionRegistry.sol\":5914:5918  node */\n      dup4\n        /* \"dev/functions/FunctionRegistry.sol\":5906:5919  records[node] */\n      dup2\n      mstore\n      0x20\n      add\n      swap1\n      dup2\n      mstore\n      0x20\n      add\n      0x00\n      keccak256\n        /* \"dev/functions/FunctionRegistry.sol\":5906:5927  records[node].manager */\n      0x01\n      add\n      0x00\n      swap1\n      sload\n      swap1\n      0x0100\n      exp\n      swap1\n      div\n      0xffffffffffffffffffffffffffffffffffffffff\n      and\n        /* \"dev/functions/FunctionRegistry.sol\":5894:5927  _manager != records[node].manager */\n      0xffffffffffffffffffffffffffffffffffffffff\n      and\n        /* \"dev/functions/FunctionRegistry.sol\":5894:5902  _manager */\n      dup2\n        /* \"dev/functions/FunctionRegistry.sol\":5894:5927  _manager != records[node].manager */\n      0xffffffffffffffffffffffffffffffffffffffff\n      and\n      eq\n        /* \"dev/functions/FunctionRegistry.sol\":5890:6031  if (_manager != records[node].manager) {... */\n      tag_105\n      jumpi\n        /* \"dev/functions/FunctionRegistry.sol\":5967:5975  _manager */\n      dup1\n        /* \"dev/functions/FunctionRegistry.sol\":5943:5950  records */\n      0x01\n        /* \"dev/functions/FunctionRegistry.sol\":5943:5956  records[node] */\n      0x00\n        /* \"dev/functions/FunctionRegistry.sol\":5951:5955  node */\n      dup5\n        /* \"dev/functions/FunctionRegistry.sol\":5943:5956  records[node] */\n      dup2\n      mstore\n      0x20\n      add\n      swap1\n      dup2\n      mstore\n      0x20\n      add\n      0x00\n      keccak256\n        /* \"dev/functions/FunctionRegistry.sol\":5943:5964  records[node].manager */\n      0x01\n      add\n      0x00\n        /* \"dev/functions/FunctionRegistry.sol\":5943:5975  records[node].manager = _manager */\n      0x0100\n      exp\n      dup2\n      sload\n      dup2\n      0xffffffffffffffffffffffffffffffffffffffff\n      mul\n      not\n      and\n      swap1\n      dup4\n      0xffffffffffffffffffffffffffffffffffffffff\n      and\n      mul\n      or\n      swap1\n      sstore\n      pop\n        /* \"dev/functions/FunctionRegistry.sol\":6005:6009  node */\n      dup2\n        /* \"dev/functions/FunctionRegistry.sol\":5994:6020  NewManager(node, _manager) */\n      0xabd3903f5c84f8950a7b3bb2a5d4dbac40b9a379a5f010107fb3acd94dd995e2\n        /* \"dev/functions/FunctionRegistry.sol\":6011:6019  _manager */\n      dup3\n        /* \"dev/functions/FunctionRegistry.sol\":5994:6020  NewManager(node, _manager) */\n      mload(0x40)\n      tag_106\n      swap2\n      swap1\n      tag_23\n      jump\t// in\n    tag_106:\n      mload(0x40)\n      dup1\n      swap2\n      sub\n      swap1\n      log2\n        /* \"dev/functions/FunctionRegistry.sol\":5890:6031  if (_manager != records[node].manager) {... */\n    tag_105:\n        /* \"dev/functions/FunctionRegistry.sol\":5796:6037  function _setManager(... */\n      pop\n      pop\n      jump\t// out\n        /* \"dev/functions/FunctionRegistry.sol\":5679:5790  function _setOwner(bytes32 node, address _owner) internal virtual {... */\n    tag_84:\n        /* \"dev/functions/FunctionRegistry.sol\":5777:5783  _owner */\n      dup1\n        /* \"dev/functions/FunctionRegistry.sol\":5755:5762  records */\n      0x01\n        /* \"dev/functions/FunctionRegistry.sol\":5755:5768  records[node] */\n      0x00\n        /* \"dev/functions/FunctionRegistry.sol\":5763:5767  node */\n      dup5\n        /* \"dev/functions/FunctionRegistry.sol\":5755:5768  records[node] */\n      dup2\n      mstore\n      0x20\n      add\n      swap1\n      dup2\n      mstore\n      0x20\n      add\n      0x00\n      keccak256\n        /* \"dev/functions/FunctionRegistry.sol\":5755:5774  records[node].owner */\n      0x00\n      add\n      0x00\n        /* \"dev/functions/FunctionRegistry.sol\":5755:5783  records[node].owner = _owner */\n      0x0100\n      exp\n      dup2\n      sload\n      dup2\n      0xffffffffffffffffffffffffffffffffffffffff\n      mul\n      not\n      and\n      swap1\n      dup4\n      0xffffffffffffffffffffffffffffffffffffffff\n      and\n      mul\n      or\n      swap1\n      sstore\n      pop\n        /* \"dev/functions/FunctionRegistry.sol\":5679:5790  function _setOwner(bytes32 node, address _owner) internal virtual {... */\n      pop\n      pop\n      jump\t// out\n        /* \"#utility.yul\":7:146   */\n    tag_109:\n        /* \"#utility.yul\":53:58   */\n      0x00\n        /* \"#utility.yul\":91:97   */\n      dup2\n        /* \"#utility.yul\":78:98   */\n      calldataload\n        /* \"#utility.yul\":69:98   */\n      swap1\n      pop\n        /* \"#utility.yul\":107:140   */\n      tag_111\n        /* \"#utility.yul\":134:139   */\n      dup2\n        /* \"#utility.yul\":107:140   */\n      tag_112\n      jump\t// in\n    tag_111:\n        /* \"#utility.yul\":7:146   */\n      swap3\n      swap2\n      pop\n      pop\n      jump\t// out\n        /* \"#utility.yul\":152:285   */\n    tag_113:\n        /* \"#utility.yul\":195:200   */\n      0x00\n        /* \"#utility.yul\":233:239   */\n      dup2\n        /* \"#utility.yul\":220:240   */\n      calldataload\n        /* \"#utility.yul\":211:240   */\n      swap1\n      pop\n        /* \"#utility.yul\":249:279   */\n      tag_115\n        /* \"#utility.yul\":273:278   */\n      dup2\n        /* \"#utility.yul\":249:279   */\n      tag_116\n      jump\t// in\n    tag_115:\n        /* \"#utility.yul\":152:285   */\n      swap3\n      swap2\n      pop\n      pop\n      jump\t// out\n        /* \"#utility.yul\":291:430   */\n    tag_117:\n        /* \"#utility.yul\":337:342   */\n      0x00\n        /* \"#utility.yul\":375:381   */\n      dup2\n        /* \"#utility.yul\":362:382   */\n      calldataload\n        /* \"#utility.yul\":353:382   */\n      swap1\n      pop\n        /* \"#utility.yul\":391:424   */\n      tag_119\n        /* \"#utility.yul\":418:423   */\n      dup2\n        /* \"#utility.yul\":391:424   */\n      tag_120\n      jump\t// in\n    tag_119:\n        /* \"#utility.yul\":291:430   */\n      swap3\n      swap2\n      pop\n      pop\n      jump\t// out\n        /* \"#utility.yul\":436:765   */\n    tag_36:\n        /* \"#utility.yul\":495:501   */\n      0x00\n        /* \"#utility.yul\":544:546   */\n      0x20\n        /* \"#utility.yul\":532:541   */\n      dup3\n        /* \"#utility.yul\":523:530   */\n      dup5\n        /* \"#utility.yul\":519:542   */\n      sub\n        /* \"#utility.yul\":515:547   */\n      slt\n        /* \"#utility.yul\":512:631   */\n      iszero\n      tag_122\n      jumpi\n        /* \"#utility.yul\":550:629   */\n      tag_123\n      tag_124\n      jump\t// in\n    tag_123:\n        /* \"#utility.yul\":512:631   */\n    tag_122:\n        /* \"#utility.yul\":670:671   */\n      0x00\n        /* \"#utility.yul\":695:748   */\n      tag_125\n        /* \"#utility.yul\":740:747   */\n      dup5\n        /* \"#utility.yul\":731:737   */\n      dup3\n        /* \"#utility.yul\":720:729   */\n      dup6\n        /* \"#utility.yul\":716:738   */\n      add\n        /* \"#utility.yul\":695:748   */\n      tag_109\n      jump\t// in\n    tag_125:\n        /* \"#utility.yul\":685:748   */\n      swap2\n      pop\n        /* \"#utility.yul\":641:758   */\n      pop\n        /* \"#utility.yul\":436:765   */\n      swap3\n      swap2\n      pop\n      pop\n      jump\t// out\n        /* \"#utility.yul\":771:1245   */\n    tag_62:\n        /* \"#utility.yul\":839:845   */\n      0x00\n        /* \"#utility.yul\":847:853   */\n      dup1\n        /* \"#utility.yul\":896:898   */\n      0x40\n        /* \"#utility.yul\":884:893   */\n      dup4\n        /* \"#utility.yul\":875:882   */\n      dup6\n        /* \"#utility.yul\":871:894   */\n      sub\n        /* \"#utility.yul\":867:899   */\n      slt\n        /* \"#utility.yul\":864:983   */\n      iszero\n      tag_127\n      jumpi\n        /* \"#utility.yul\":902:981   */\n      tag_128\n      tag_124\n      jump\t// in\n    tag_128:\n        /* \"#utility.yul\":864:983   */\n    tag_127:\n        /* \"#utility.yul\":1022:1023   */\n      0x00\n        /* \"#utility.yul\":1047:1100   */\n      tag_129\n        /* \"#utility.yul\":1092:1099   */\n      dup6\n        /* \"#utility.yul\":1083:1089   */\n      dup3\n        /* \"#utility.yul\":1072:1081   */\n      dup7\n        /* \"#utility.yul\":1068:1090   */\n      add\n        /* \"#utility.yul\":1047:1100   */\n      tag_109\n      jump\t// in\n    tag_129:\n        /* \"#utility.yul\":1037:1100   */\n      swap3\n      pop\n        /* \"#utility.yul\":993:1110   */\n      pop\n        /* \"#utility.yul\":1149:1151   */\n      0x20\n        /* \"#utility.yul\":1175:1228   */\n      tag_130\n        /* \"#utility.yul\":1220:1227   */\n      dup6\n        /* \"#utility.yul\":1211:1217   */\n      dup3\n        /* \"#utility.yul\":1200:1209   */\n      dup7\n        /* \"#utility.yul\":1196:1218   */\n      add\n        /* \"#utility.yul\":1175:1228   */\n      tag_109\n      jump\t// in\n    tag_130:\n        /* \"#utility.yul\":1165:1228   */\n      swap2\n      pop\n        /* \"#utility.yul\":1120:1238   */\n      pop\n        /* \"#utility.yul\":771:1245   */\n      swap3\n      pop\n      swap3\n      swap1\n      pop\n      jump\t// out\n        /* \"#utility.yul\":1251:1719   */\n    tag_51:\n        /* \"#utility.yul\":1316:1322   */\n      0x00\n        /* \"#utility.yul\":1324:1330   */\n      dup1\n        /* \"#utility.yul\":1373:1375   */\n      0x40\n        /* \"#utility.yul\":1361:1370   */\n      dup4\n        /* \"#utility.yul\":1352:1359   */\n      dup6\n        /* \"#utility.yul\":1348:1371   */\n      sub\n        /* \"#utility.yul\":1344:1376   */\n      slt\n        /* \"#utility.yul\":1341:1460   */\n      iszero\n      tag_132\n      jumpi\n        /* \"#utility.yul\":1379:1458   */\n      tag_133\n      tag_124\n      jump\t// in\n    tag_133:\n        /* \"#utility.yul\":1341:1460   */\n    tag_132:\n        /* \"#utility.yul\":1499:1500   */\n      0x00\n        /* \"#utility.yul\":1524:1577   */\n      tag_134\n        /* \"#utility.yul\":1569:1576   */\n      dup6\n        /* \"#utility.yul\":1560:1566   */\n      dup3\n        /* \"#utility.yul\":1549:1558   */\n      dup7\n        /* \"#utility.yul\":1545:1567   */\n      add\n        /* \"#utility.yul\":1524:1577   */\n      tag_109\n      jump\t// in\n    tag_134:\n        /* \"#utility.yul\":1514:1577   */\n      swap3\n      pop\n        /* \"#utility.yul\":1470:1587   */\n      pop\n        /* \"#utility.yul\":1626:1628   */\n      0x20\n        /* \"#utility.yul\":1652:1702   */\n      tag_135\n        /* \"#utility.yul\":1694:1701   */\n      dup6\n        /* \"#utility.yul\":1685:1691   */\n      dup3\n        /* \"#utility.yul\":1674:1683   */\n      dup7\n        /* \"#utility.yul\":1670:1692   */\n      add\n        /* \"#utility.yul\":1652:1702   */\n      tag_113\n      jump\t// in\n    tag_135:\n        /* \"#utility.yul\":1642:1702   */\n      swap2\n      pop\n        /* \"#utility.yul\":1597:1712   */\n      pop\n        /* \"#utility.yul\":1251:1719   */\n      swap3\n      pop\n      swap3\n      swap1\n      pop\n      jump\t// out\n        /* \"#utility.yul\":1725:2054   */\n    tag_20:\n        /* \"#utility.yul\":1784:1790   */\n      0x00\n        /* \"#utility.yul\":1833:1835   */\n      0x20\n        /* \"#utility.yul\":1821:1830   */\n      dup3\n        /* \"#utility.yul\":1812:1819   */\n      dup5\n        /* \"#utility.yul\":1808:1831   */\n      sub\n        /* \"#utility.yul\":1804:1836   */\n      slt\n        /* \"#utility.yul\":1801:1920   */\n      iszero\n      tag_137\n      jumpi\n        /* \"#utility.yul\":1839:1918   */\n      tag_138\n      tag_124\n      jump\t// in\n    tag_138:\n        /* \"#utility.yul\":1801:1920   */\n    tag_137:\n        /* \"#utility.yul\":1959:1960   */\n      0x00\n        /* \"#utility.yul\":1984:2037   */\n      tag_139\n        /* \"#utility.yul\":2029:2036   */\n      dup5\n        /* \"#utility.yul\":2020:2026   */\n      dup3\n        /* \"#utility.yul\":2009:2018   */\n      dup6\n        /* \"#utility.yul\":2005:2027   */\n      add\n        /* \"#utility.yul\":1984:2037   */\n      tag_117\n      jump\t// in\n    tag_139:\n        /* \"#utility.yul\":1974:2037   */\n      swap2\n      pop\n        /* \"#utility.yul\":1930:2047   */\n      pop\n        /* \"#utility.yul\":1725:2054   */\n      swap3\n      swap2\n      pop\n      pop\n      jump\t// out\n        /* \"#utility.yul\":2060:2534   */\n    tag_40:\n        /* \"#utility.yul\":2128:2134   */\n      0x00\n        /* \"#utility.yul\":2136:2142   */\n      dup1\n        /* \"#utility.yul\":2185:2187   */\n      0x40\n        /* \"#utility.yul\":2173:2182   */\n      dup4\n        /* \"#utility.yul\":2164:2171   */\n      dup6\n        /* \"#utility.yul\":2160:2183   */\n      sub\n        /* \"#utility.yul\":2156:2188   */\n      slt\n        /* \"#utility.yul\":2153:2272   */\n      iszero\n      tag_141\n      jumpi\n        /* \"#utility.yul\":2191:2270   */\n      tag_142\n      tag_124\n      jump\t// in\n    tag_142:\n        /* \"#utility.yul\":2153:2272   */\n    tag_141:\n        /* \"#utility.yul\":2311:2312   */\n      0x00\n        /* \"#utility.yul\":2336:2389   */\n      tag_143\n        /* \"#utility.yul\":2381:2388   */\n      dup6\n        /* \"#utility.yul\":2372:2378   */\n      dup3\n        /* \"#utility.yul\":2361:2370   */\n      dup7\n        /* \"#utility.yul\":2357:2379   */\n      add\n        /* \"#utility.yul\":2336:2389   */\n      tag_117\n      jump\t// in\n    tag_143:\n        /* \"#utility.yul\":2326:2389   */\n      swap3\n      pop\n        /* \"#utility.yul\":2282:2399   */\n      pop\n        /* \"#utility.yul\":2438:2440   */\n      0x20\n        /* \"#utility.yul\":2464:2517   */\n      tag_144\n        /* \"#utility.yul\":2509:2516   */\n      dup6\n        /* \"#utility.yul\":2500:2506   */\n      dup3\n        /* \"#utility.yul\":2489:2498   */\n      dup7\n        /* \"#utility.yul\":2485:2507   */\n      add\n        /* \"#utility.yul\":2464:2517   */\n      tag_109\n      jump\t// in\n    tag_144:\n        /* \"#utility.yul\":2454:2517   */\n      swap2\n      pop\n        /* \"#utility.yul\":2409:2527   */\n      pop\n        /* \"#utility.yul\":2060:2534   */\n      swap3\n      pop\n      swap3\n      swap1\n      pop\n      jump\t// out\n        /* \"#utility.yul\":2540:3159   */\n    tag_71:\n        /* \"#utility.yul\":2617:2623   */\n      0x00\n        /* \"#utility.yul\":2625:2631   */\n      dup1\n        /* \"#utility.yul\":2633:2639   */\n      0x00\n        /* \"#utility.yul\":2682:2684   */\n      0x60\n        /* \"#utility.yul\":2670:2679   */\n      dup5\n        /* \"#utility.yul\":2661:2668   */\n      dup7\n        /* \"#utility.yul\":2657:2680   */\n      sub\n        /* \"#utility.yul\":2653:2685   */\n      slt\n        /* \"#utility.yul\":2650:2769   */\n      iszero\n      tag_146\n      jumpi\n        /* \"#utility.yul\":2688:2767   */\n      tag_147\n      tag_124\n      jump\t// in\n    tag_147:\n        /* \"#utility.yul\":2650:2769   */\n    tag_146:\n        /* \"#utility.yul\":2808:2809   */\n      0x00\n        /* \"#utility.yul\":2833:2886   */\n      tag_148\n        /* \"#utility.yul\":2878:2885   */\n      dup7\n        /* \"#utility.yul\":2869:2875   */\n      dup3\n        /* \"#utility.yul\":2858:2867   */\n      dup8\n        /* \"#utility.yul\":2854:2876   */\n      add\n        /* \"#utility.yul\":2833:2886   */\n      tag_117\n      jump\t// in\n    tag_148:\n        /* \"#utility.yul\":2823:2886   */\n      swap4\n      pop\n        /* \"#utility.yul\":2779:2896   */\n      pop\n        /* \"#utility.yul\":2935:2937   */\n      0x20\n        /* \"#utility.yul\":2961:3014   */\n      tag_149\n        /* \"#utility.yul\":3006:3013   */\n      dup7\n        /* \"#utility.yul\":2997:3003   */\n      dup3\n        /* \"#utility.yul\":2986:2995   */\n      dup8\n        /* \"#utility.yul\":2982:3004   */\n      add\n        /* \"#utility.yul\":2961:3014   */\n      tag_109\n      jump\t// in\n    tag_149:\n        /* \"#utility.yul\":2951:3014   */\n      swap3\n      pop\n        /* \"#utility.yul\":2906:3024   */\n      pop\n        /* \"#utility.yul\":3063:3065   */\n      0x40\n        /* \"#utility.yul\":3089:3142   */\n      tag_150\n        /* \"#utility.yul\":3134:3141   */\n      dup7\n        /* \"#utility.yul\":3125:3131   */\n      dup3\n        /* \"#utility.yul\":3114:3123   */\n      dup8\n        /* \"#utility.yul\":3110:3132   */\n      add\n        /* \"#utility.yul\":3089:3142   */\n      tag_109\n      jump\t// in\n    tag_150:\n        /* \"#utility.yul\":3079:3142   */\n      swap2\n      pop\n        /* \"#utility.yul\":3034:3152   */\n      pop\n        /* \"#utility.yul\":2540:3159   */\n      swap3\n      pop\n      swap3\n      pop\n      swap3\n      jump\t// out\n        /* \"#utility.yul\":3165:3784   */\n    tag_30:\n        /* \"#utility.yul\":3242:3248   */\n      0x00\n        /* \"#utility.yul\":3250:3256   */\n      dup1\n        /* \"#utility.yul\":3258:3264   */\n      0x00\n        /* \"#utility.yul\":3307:3309   */\n      0x60\n        /* \"#utility.yul\":3295:3304   */\n      dup5\n        /* \"#utility.yul\":3286:3293   */\n      dup7\n        /* \"#utility.yul\":3282:3305   */\n      sub\n        /* \"#utility.yul\":3278:3310   */\n      slt\n        /* \"#utility.yul\":3275:3394   */\n      iszero\n      tag_152\n      jumpi\n        /* \"#utility.yul\":3313:3392   */\n      tag_153\n      tag_124\n      jump\t// in\n    tag_153:\n        /* \"#utility.yul\":3275:3394   */\n    tag_152:\n        /* \"#utility.yul\":3433:3434   */\n      0x00\n        /* \"#utility.yul\":3458:3511   */\n      tag_154\n        /* \"#utility.yul\":3503:3510   */\n      dup7\n        /* \"#utility.yul\":3494:3500   */\n      dup3\n        /* \"#utility.yul\":3483:3492   */\n      dup8\n        /* \"#utility.yul\":3479:3501   */\n      add\n        /* \"#utility.yul\":3458:3511   */\n      tag_117\n      jump\t// in\n    tag_154:\n        /* \"#utility.yul\":3448:3511   */\n      swap4\n      pop\n        /* \"#utility.yul\":3404:3521   */\n      pop\n        /* \"#utility.yul\":3560:3562   */\n      0x20\n        /* \"#utility.yul\":3586:3639   */\n      tag_155\n        /* \"#utility.yul\":3631:3638   */\n      dup7\n        /* \"#utility.yul\":3622:3628   */\n      dup3\n        /* \"#utility.yul\":3611:3620   */\n      dup8\n        /* \"#utility.yul\":3607:3629   */\n      add\n        /* \"#utility.yul\":3586:3639   */\n      tag_117\n      jump\t// in\n    tag_155:\n        /* \"#utility.yul\":3576:3639   */\n      swap3\n      pop\n        /* \"#utility.yul\":3531:3649   */\n      pop\n        /* \"#utility.yul\":3688:3690   */\n      0x40\n        /* \"#utility.yul\":3714:3767   */\n      tag_156\n        /* \"#utility.yul\":3759:3766   */\n      dup7\n        /* \"#utility.yul\":3750:3756   */\n      dup3\n        /* \"#utility.yul\":3739:3748   */\n      dup8\n        /* \"#utility.yul\":3735:3757   */\n      add\n        /* \"#utility.yul\":3714:3767   */\n      tag_109\n      jump\t// in\n    tag_156:\n        /* \"#utility.yul\":3704:3767   */\n      swap2\n      pop\n        /* \"#utility.yul\":3659:3777   */\n      pop\n        /* \"#utility.yul\":3165:3784   */\n      swap3\n      pop\n      swap3\n      pop\n      swap3\n      jump\t// out\n        /* \"#utility.yul\":3790:4555   */\n    tag_26:\n        /* \"#utility.yul\":3876:3882   */\n      0x00\n        /* \"#utility.yul\":3884:3890   */\n      dup1\n        /* \"#utility.yul\":3892:3898   */\n      0x00\n        /* \"#utility.yul\":3900:3906   */\n      dup1\n        /* \"#utility.yul\":3949:3952   */\n      0x80\n        /* \"#utility.yul\":3937:3946   */\n      dup6\n        /* \"#utility.yul\":3928:3935   */\n      dup8\n        /* \"#utility.yul\":3924:3947   */\n      sub\n        /* \"#utility.yul\":3920:3953   */\n      slt\n        /* \"#utility.yul\":3917:4037   */\n      iszero\n      tag_158\n      jumpi\n        /* \"#utility.yul\":3956:4035   */\n      tag_159\n      tag_124\n      jump\t// in\n    tag_159:\n        /* \"#utility.yul\":3917:4037   */\n    tag_158:\n        /* \"#utility.yul\":4076:4077   */\n      0x00\n        /* \"#utility.yul\":4101:4154   */\n      tag_160\n        /* \"#utility.yul\":4146:4153   */\n      dup8\n        /* \"#utility.yul\":4137:4143   */\n      dup3\n        /* \"#utility.yul\":4126:4135   */\n      dup9\n        /* \"#utility.yul\":4122:4144   */\n      add\n        /* \"#utility.yul\":4101:4154   */\n      tag_117\n      jump\t// in\n    tag_160:\n        /* \"#utility.yul\":4091:4154   */\n      swap5\n      pop\n        /* \"#utility.yul\":4047:4164   */\n      pop\n        /* \"#utility.yul\":4203:4205   */\n      0x20\n        /* \"#utility.yul\":4229:4282   */\n      tag_161\n        /* \"#utility.yul\":4274:4281   */\n      dup8\n        /* \"#utility.yul\":4265:4271   */\n      dup3\n        /* \"#utility.yul\":4254:4263   */\n      dup9\n        /* \"#utility.yul\":4250:4272   */\n      add\n        /* \"#utility.yul\":4229:4282   */\n      tag_117\n      jump\t// in\n    tag_161:\n        /* \"#utility.yul\":4219:4282   */\n      swap4\n      pop\n        /* \"#utility.yul\":4174:4292   */\n      pop\n        /* \"#utility.yul\":4331:4333   */\n      0x40\n        /* \"#utility.yul\":4357:4410   */\n      tag_162\n        /* \"#utility.yul\":4402:4409   */\n      dup8\n        /* \"#utility.yul\":4393:4399   */\n      dup3\n        /* \"#utility.yul\":4382:4391   */\n      dup9\n        /* \"#utility.yul\":4378:4400   */\n      add\n        /* \"#utility.yul\":4357:4410   */\n      tag_109\n      jump\t// in\n    tag_162:\n        /* \"#utility.yul\":4347:4410   */\n      swap3\n      pop\n        /* \"#utility.yul\":4302:4420   */\n      pop\n        /* \"#utility.yul\":4459:4461   */\n      0x60\n        /* \"#utility.yul\":4485:4538   */\n      tag_163\n        /* \"#utility.yul\":4530:4537   */\n      dup8\n        /* \"#utility.yul\":4521:4527   */\n      dup3\n        /* \"#utility.yul\":4510:4519   */\n      dup9\n        /* \"#utility.yul\":4506:4528   */\n      add\n        /* \"#utility.yul\":4485:4538   */\n      tag_109\n      jump\t// in\n    tag_163:\n        /* \"#utility.yul\":4475:4538   */\n      swap2\n      pop\n        /* \"#utility.yul\":4430:4548   */\n      pop\n        /* \"#utility.yul\":3790:4555   */\n      swap3\n      swap6\n      swap2\n      swap5\n      pop\n      swap3\n      pop\n      jump\t// out\n        /* \"#utility.yul\":4561:4679   */\n    tag_164:\n        /* \"#utility.yul\":4648:4672   */\n      tag_166\n        /* \"#utility.yul\":4666:4671   */\n      dup2\n        /* \"#utility.yul\":4648:4672   */\n      tag_167\n      jump\t// in\n    tag_166:\n        /* \"#utility.yul\":4643:4646   */\n      dup3\n        /* \"#utility.yul\":4636:4673   */\n      mstore\n        /* \"#utility.yul\":4561:4679   */\n      pop\n      pop\n      jump\t// out\n        /* \"#utility.yul\":4685:4794   */\n    tag_168:\n        /* \"#utility.yul\":4766:4787   */\n      tag_170\n        /* \"#utility.yul\":4781:4786   */\n      dup2\n        /* \"#utility.yul\":4766:4787   */\n      tag_171\n      jump\t// in\n    tag_170:\n        /* \"#utility.yul\":4761:4764   */\n      dup3\n        /* \"#utility.yul\":4754:4788   */\n      mstore\n        /* \"#utility.yul\":4685:4794   */\n      pop\n      pop\n      jump\t// out\n        /* \"#utility.yul\":4800:4918   */\n    tag_172:\n        /* \"#utility.yul\":4887:4911   */\n      tag_174\n        /* \"#utility.yul\":4905:4910   */\n      dup2\n        /* \"#utility.yul\":4887:4911   */\n      tag_175\n      jump\t// in\n    tag_174:\n        /* \"#utility.yul\":4882:4885   */\n      dup3\n        /* \"#utility.yul\":4875:4912   */\n      mstore\n        /* \"#utility.yul\":4800:4918   */\n      pop\n      pop\n      jump\t// out\n        /* \"#utility.yul\":4924:5081   */\n    tag_176:\n        /* \"#utility.yul\":5029:5074   */\n      tag_178\n        /* \"#utility.yul\":5049:5073   */\n      tag_179\n        /* \"#utility.yul\":5067:5072   */\n      dup3\n        /* \"#utility.yul\":5049:5073   */\n      tag_175\n      jump\t// in\n    tag_179:\n        /* \"#utility.yul\":5029:5074   */\n      tag_180\n      jump\t// in\n    tag_178:\n        /* \"#utility.yul\":5024:5027   */\n      dup3\n        /* \"#utility.yul\":5017:5075   */\n      mstore\n        /* \"#utility.yul\":4924:5081   */\n      pop\n      pop\n      jump\t// out\n        /* \"#utility.yul\":5087:5484   */\n    tag_82:\n        /* \"#utility.yul\":5227:5230   */\n      0x00\n        /* \"#utility.yul\":5242:5317   */\n      tag_182\n        /* \"#utility.yul\":5313:5316   */\n      dup3\n        /* \"#utility.yul\":5304:5310   */\n      dup6\n        /* \"#utility.yul\":5242:5317   */\n      tag_176\n      jump\t// in\n    tag_182:\n        /* \"#utility.yul\":5342:5344   */\n      0x20\n        /* \"#utility.yul\":5337:5340   */\n      dup3\n        /* \"#utility.yul\":5333:5345   */\n      add\n        /* \"#utility.yul\":5326:5345   */\n      swap2\n      pop\n        /* \"#utility.yul\":5355:5430   */\n      tag_183\n        /* \"#utility.yul\":5426:5429   */\n      dup3\n        /* \"#utility.yul\":5417:5423   */\n      dup5\n        /* \"#utility.yul\":5355:5430   */\n      tag_176\n      jump\t// in\n    tag_183:\n        /* \"#utility.yul\":5455:5457   */\n      0x20\n        /* \"#utility.yul\":5450:5453   */\n      dup3\n        /* \"#utility.yul\":5446:5458   */\n      add\n        /* \"#utility.yul\":5439:5458   */\n      swap2\n      pop\n        /* \"#utility.yul\":5475:5478   */\n      dup2\n        /* \"#utility.yul\":5468:5478   */\n      swap1\n      pop\n        /* \"#utility.yul\":5087:5484   */\n      swap4\n      swap3\n      pop\n      pop\n      pop\n      jump\t// out\n        /* \"#utility.yul\":5490:5712   */\n    tag_23:\n        /* \"#utility.yul\":5583:5587   */\n      0x00\n        /* \"#utility.yul\":5621:5623   */\n      0x20\n        /* \"#utility.yul\":5610:5619   */\n      dup3\n        /* \"#utility.yul\":5606:5624   */\n      add\n        /* \"#utility.yul\":5598:5624   */\n      swap1\n      pop\n        /* \"#utility.yul\":5634:5705   */\n      tag_185\n        /* \"#utility.yul\":5702:5703   */\n      0x00\n        /* \"#utility.yul\":5691:5700   */\n      dup4\n        /* \"#utility.yul\":5687:5704   */\n      add\n        /* \"#utility.yul\":5678:5684   */\n      dup5\n        /* \"#utility.yul\":5634:5705   */\n      tag_164\n      jump\t// in\n    tag_185:\n        /* \"#utility.yul\":5490:5712   */\n      swap3\n      swap2\n      pop\n      pop\n      jump\t// out\n        /* \"#utility.yul\":5718:5928   */\n    tag_57:\n        /* \"#utility.yul\":5805:5809   */\n      0x00\n        /* \"#utility.yul\":5843:5845   */\n      0x20\n        /* \"#utility.yul\":5832:5841   */\n      dup3\n        /* \"#utility.yul\":5828:5846   */\n      add\n        /* \"#utility.yul\":5820:5846   */\n      swap1\n      pop\n        /* \"#utility.yul\":5856:5921   */\n      tag_187\n        /* \"#utility.yul\":5918:5919   */\n      0x00\n        /* \"#utility.yul\":5907:5916   */\n      dup4\n        /* \"#utility.yul\":5903:5920   */\n      add\n        /* \"#utility.yul\":5894:5900   */\n      dup5\n        /* \"#utility.yul\":5856:5921   */\n      tag_168\n      jump\t// in\n    tag_187:\n        /* \"#utility.yul\":5718:5928   */\n      swap3\n      swap2\n      pop\n      pop\n      jump\t// out\n        /* \"#utility.yul\":5934:6156   */\n    tag_33:\n        /* \"#utility.yul\":6027:6031   */\n      0x00\n        /* \"#utility.yul\":6065:6067   */\n      0x20\n        /* \"#utility.yul\":6054:6063   */\n      dup3\n        /* \"#utility.yul\":6050:6068   */\n      add\n        /* \"#utility.yul\":6042:6068   */\n      swap1\n      pop\n        /* \"#utility.yul\":6078:6149   */\n      tag_189\n        /* \"#utility.yul\":6146:6147   */\n      0x00\n        /* \"#utility.yul\":6135:6144   */\n      dup4\n        /* \"#utility.yul\":6131:6148   */\n      add\n        /* \"#utility.yul\":6122:6128   */\n      dup5\n        /* \"#utility.yul\":6078:6149   */\n      tag_172\n      jump\t// in\n    tag_189:\n        /* \"#utility.yul\":5934:6156   */\n      swap3\n      swap2\n      pop\n      pop\n      jump\t// out\n        /* \"#utility.yul\":6243:6339   */\n    tag_167:\n        /* \"#utility.yul\":6280:6287   */\n      0x00\n        /* \"#utility.yul\":6309:6333   */\n      tag_193\n        /* \"#utility.yul\":6327:6332   */\n      dup3\n        /* \"#utility.yul\":6309:6333   */\n      tag_194\n      jump\t// in\n    tag_193:\n        /* \"#utility.yul\":6298:6333   */\n      swap1\n      pop\n        /* \"#utility.yul\":6243:6339   */\n      swap2\n      swap1\n      pop\n      jump\t// out\n        /* \"#utility.yul\":6345:6435   */\n    tag_171:\n        /* \"#utility.yul\":6379:6386   */\n      0x00\n        /* \"#utility.yul\":6422:6427   */\n      dup2\n        /* \"#utility.yul\":6415:6428   */\n      iszero\n        /* \"#utility.yul\":6408:6429   */\n      iszero\n        /* \"#utility.yul\":6397:6429   */\n      swap1\n      pop\n        /* \"#utility.yul\":6345:6435   */\n      swap2\n      swap1\n      pop\n      jump\t// out\n        /* \"#utility.yul\":6441:6518   */\n    tag_175:\n        /* \"#utility.yul\":6478:6485   */\n      0x00\n        /* \"#utility.yul\":6507:6512   */\n      dup2\n        /* \"#utility.yul\":6496:6512   */\n      swap1\n      pop\n        /* \"#utility.yul\":6441:6518   */\n      swap2\n      swap1\n      pop\n      jump\t// out\n        /* \"#utility.yul\":6524:6650   */\n    tag_194:\n        /* \"#utility.yul\":6561:6568   */\n      0x00\n        /* \"#utility.yul\":6601:6643   */\n      0xffffffffffffffffffffffffffffffffffffffff\n        /* \"#utility.yul\":6594:6599   */\n      dup3\n        /* \"#utility.yul\":6590:6644   */\n      and\n        /* \"#utility.yul\":6579:6644   */\n      swap1\n      pop\n        /* \"#utility.yul\":6524:6650   */\n      swap2\n      swap1\n      pop\n      jump\t// out\n        /* \"#utility.yul\":6656:6735   */\n    tag_180:\n        /* \"#utility.yul\":6695:6702   */\n      0x00\n        /* \"#utility.yul\":6724:6729   */\n      dup2\n        /* \"#utility.yul\":6713:6729   */\n      swap1\n      pop\n        /* \"#utility.yul\":6656:6735   */\n      swap2\n      swap1\n      pop\n      jump\t// out\n        /* \"#utility.yul\":6864:6981   */\n    tag_124:\n        /* \"#utility.yul\":6973:6974   */\n      0x00\n        /* \"#utility.yul\":6970:6971   */\n      dup1\n        /* \"#utility.yul\":6963:6975   */\n      revert\n        /* \"#utility.yul\":6987:7109   */\n    tag_112:\n        /* \"#utility.yul\":7060:7084   */\n      tag_203\n        /* \"#utility.yul\":7078:7083   */\n      dup2\n        /* \"#utility.yul\":7060:7084   */\n      tag_167\n      jump\t// in\n    tag_203:\n        /* \"#utility.yul\":7053:7058   */\n      dup2\n        /* \"#utility.yul\":7050:7085   */\n      eq\n        /* \"#utility.yul\":7040:7103   */\n      tag_204\n      jumpi\n        /* \"#utility.yul\":7099:7100   */\n      0x00\n        /* \"#utility.yul\":7096:7097   */\n      dup1\n        /* \"#utility.yul\":7089:7101   */\n      revert\n        /* \"#utility.yul\":7040:7103   */\n    tag_204:\n        /* \"#utility.yul\":6987:7109   */\n      pop\n      jump\t// out\n        /* \"#utility.yul\":7115:7231   */\n    tag_116:\n        /* \"#utility.yul\":7185:7206   */\n      tag_206\n        /* \"#utility.yul\":7200:7205   */\n      dup2\n        /* \"#utility.yul\":7185:7206   */\n      tag_171\n      jump\t// in\n    tag_206:\n        /* \"#utility.yul\":7178:7183   */\n      dup2\n        /* \"#utility.yul\":7175:7207   */\n      eq\n        /* \"#utility.yul\":7165:7225   */\n      tag_207\n      jumpi\n        /* \"#utility.yul\":7221:7222   */\n      0x00\n        /* \"#utility.yul\":7218:7219   */\n      dup1\n        /* \"#utility.yul\":7211:7223   */\n      revert\n        /* \"#utility.yul\":7165:7225   */\n    tag_207:\n        /* \"#utility.yul\":7115:7231   */\n      pop\n      jump\t// out\n        /* \"#utility.yul\":7237:7359   */\n    tag_120:\n        /* \"#utility.yul\":7310:7334   */\n      tag_209\n        /* \"#utility.yul\":7328:7333   */\n      dup2\n        /* \"#utility.yul\":7310:7334   */\n      tag_175\n      jump\t// in\n    tag_209:\n        /* \"#utility.yul\":7303:7308   */\n      dup2\n        /* \"#utility.yul\":7300:7335   */\n      eq\n        /* \"#utility.yul\":7290:7353   */\n      tag_210\n      jumpi\n        /* \"#utility.yul\":7349:7350   */\n      0x00\n        /* \"#utility.yul\":7346:7347   */\n      dup1\n        /* \"#utility.yul\":7339:7351   */\n      revert\n        /* \"#utility.yul\":7290:7353   */\n    tag_210:\n        /* \"#utility.yul\":7237:7359   */\n      pop\n      jump\t// out\n\n    auxdata: 0xa2646970667358221220aa86b7b34f2023023e3546bd287e8c41d2083055a83c373afd6b82b89e68d80b64736f6c63430008070033\n}\n",
				"bytecode": {
					"linkReferences": {},
					"object": "608060405234801561001057600080fd5b50610da4806100206000396000f3fe608060405234801561001057600080fd5b50600436106100cf5760003560e01c80639885e3b41161008c578063e1c7392a11610066578063e1c7392a14610220578063e985e9c51461022a578063f79fe5381461025a578063f88c98b61461028a576100cf565b80639885e3b4146101a4578063a22cb465146101d4578063da8c229e146101f0576100cf565b806302571be3146100d457806303dafc071461010457806306ab5923146101205780634ff638451461015057806354ee20901461016c5780635b0fc9c314610188575b600080fd5b6100ee60048036038101906100e99190610a97565b6102a6565b6040516100fb9190610c81565b60405180910390f35b61011e60048036038101906101199190610baa565b61032a565b005b61013a60048036038101906101359190610b57565b61034a565b6040516101479190610cb7565b60405180910390f35b61016a600480360381019061016591906109ea565b6103c9565b005b61018660048036038101906101819190610ac4565b610424565b005b6101a2600480360381019061019d9190610ac4565b6104b7565b005b6101be60048036038101906101b99190610a97565b6104ff565b6040516101cb9190610c81565b60405180910390f35b6101ee60048036038101906101e99190610a57565b61053f565b005b61020a600480360381019061020591906109ea565b61063c565b6040516102179190610c9c565b60405180910390f35b61022861065c565b005b610244600480360381019061023f9190610a17565b61073b565b6040516102519190610c9c565b60405180910390f35b610274600480360381019061026f9190610a97565b6107cf565b6040516102819190610c9c565b60405180910390f35b6102a4600480360381019061029f9190610b04565b61083e565b005b6000806001600084815260200190815260200160002060000160009054906101000a900473ffffffffffffffffffffffffffffffffffffffff1690503073ffffffffffffffffffffffffffffffffffffffff168173ffffffffffffffffffffffffffffffffffffffff161415610320576000915050610325565b809150505b919050565b600061033785858561034a565b90506103438183610857565b5050505050565b60008360008585604051602001610362929190610c55565b6040516020818303038152906040528051906020012090506103848185610952565b84867fce0457fe73731f824cc272376169235128c118b49d344817417c6d108d155e82866040516103b59190610c81565b60405180910390a380925050509392505050565b6001600360008373ffffffffffffffffffffffffffffffffffffffff1673ffffffffffffffffffffffffffffffffffffffff16815260200190815260200160002060006101000a81548160ff02191690831515021790555050565b81816001600085815260200190815260200160002060010160006101000a81548173ffffffffffffffffffffffffffffffffffffffff021916908373ffffffffffffffffffffffffffffffffffffffff160217905550827fabd3903f5c84f8950a7b3bb2a5d4dbac40b9a379a5f010107fb3acd94dd995e2836040516104aa9190610c81565b60405180910390a2505050565b816104c28383610952565b827fd4735d920b0f87494915f556dd9b54c8f309026070caea5c737245152564d266836040516104f29190610c81565b60405180910390a2505050565b60006001600083815260200190815260200160002060010160009054906101000a900473ffffffffffffffffffffffffffffffffffffffff169050919050565b80600260003373ffffffffffffffffffffffffffffffffffffffff1673ffffffffffffffffffffffffffffffffffffffff16815260200190815260200160002060008473ffffffffffffffffffffffffffffffffffffffff1673ffffffffffffffffffffffffffffffffffffffff16815260200190815260200160002060006101000a81548160ff0219169083151502179055508173ffffffffffffffffffffffffffffffffffffffff163373ffffffffffffffffffffffffffffffffffffffff167f17307eab39ab6107e8899845ad3d59bd9653f200f220920489ca2b5937696c31836040516106309190610c9c565b60405180910390a35050565b60036020528060005260406000206000915054906101000a900460ff1681565b60008054906101000a900460ff166107395733600160008060001b815260200190815260200160002060000160006101000a81548173ffffffffffffffffffffffffffffffffffffffff021916908373ffffffffffffffffffffffffffffffffffffffff1602179055506001600360003373ffffffffffffffffffffffffffffffffffffffff1673ffffffffffffffffffffffffffffffffffffffff16815260200190815260200160002060006101000a81548160ff02191690831515021790555060016000806101000a81548160ff0219169083151502179055505b565b6000600260008473ffffffffffffffffffffffffffffffffffffffff1673ffffffffffffffffffffffffffffffffffffffff16815260200190815260200160002060008373ffffffffffffffffffffffffffffffffffffffff1673ffffffffffffffffffffffffffffffffffffffff16815260200190815260200160002060009054906101000a900460ff16905092915050565b60008073ffffffffffffffffffffffffffffffffffffffff166001600084815260200190815260200160002060000160009054906101000a900473ffffffffffffffffffffffffffffffffffffffff1673ffffffffffffffffffffffffffffffffffffffff1614159050919050565b61084883836104b7565b6108528382610857565b505050565b6001600083815260200190815260200160002060010160009054906101000a900473ffffffffffffffffffffffffffffffffffffffff1673ffffffffffffffffffffffffffffffffffffffff168173ffffffffffffffffffffffffffffffffffffffff161461094e57806001600084815260200190815260200160002060010160006101000a81548173ffffffffffffffffffffffffffffffffffffffff021916908373ffffffffffffffffffffffffffffffffffffffff160217905550817fabd3903f5c84f8950a7b3bb2a5d4dbac40b9a379a5f010107fb3acd94dd995e2826040516109459190610c81565b60405180910390a25b5050565b806001600084815260200190815260200160002060000160006101000a81548173ffffffffffffffffffffffffffffffffffffffff021916908373ffffffffffffffffffffffffffffffffffffffff1602179055505050565b6000813590506109ba81610d29565b92915050565b6000813590506109cf81610d40565b92915050565b6000813590506109e481610d57565b92915050565b600060208284031215610a00576109ff610d24565b5b6000610a0e848285016109ab565b91505092915050565b60008060408385031215610a2e57610a2d610d24565b5b6000610a3c858286016109ab565b9250506020610a4d858286016109ab565b9150509250929050565b60008060408385031215610a6e57610a6d610d24565b5b6000610a7c858286016109ab565b9250506020610a8d858286016109c0565b9150509250929050565b600060208284031215610aad57610aac610d24565b5b6000610abb848285016109d5565b91505092915050565b60008060408385031215610adb57610ada610d24565b5b6000610ae9858286016109d5565b9250506020610afa858286016109ab565b9150509250929050565b600080600060608486031215610b1d57610b1c610d24565b5b6000610b2b868287016109d5565b9350506020610b3c868287016109ab565b9250506040610b4d868287016109ab565b9150509250925092565b600080600060608486031215610b7057610b6f610d24565b5b6000610b7e868287016109d5565b9350506020610b8f868287016109d5565b9250506040610ba0868287016109ab565b9150509250925092565b60008060008060808587031215610bc457610bc3610d24565b5b6000610bd2878288016109d5565b9450506020610be3878288016109d5565b9350506040610bf4878288016109ab565b9250506060610c05878288016109ab565b91505092959194509250565b610c1a81610cd2565b82525050565b610c2981610ce4565b82525050565b610c3881610cf0565b82525050565b610c4f610c4a82610cf0565b610d1a565b82525050565b6000610c618285610c3e565b602082019150610c718284610c3e565b6020820191508190509392505050565b6000602082019050610c966000830184610c11565b92915050565b6000602082019050610cb16000830184610c20565b92915050565b6000602082019050610ccc6000830184610c2f565b92915050565b6000610cdd82610cfa565b9050919050565b60008115159050919050565b6000819050919050565b600073ffffffffffffffffffffffffffffffffffffffff82169050919050565b6000819050919050565b600080fd5b610d3281610cd2565b8114610d3d57600080fd5b50565b610d4981610ce4565b8114610d5457600080fd5b50565b610d6081610cf0565b8114610d6b57600080fd5b5056fea2646970667358221220aa86b7b34f2023023e3546bd287e8c41d2083055a83c373afd6b82b89e68d80b64736f6c63430008070033",
					"opcodes": "PUSH1 0x80 PUSH1 0x40 MSTORE CALLVALUE DUP1 ISZERO PUSH2 0x10 JUMPI PUSH1 0x0 DUP1 REVERT JUMPDEST POP PUSH2 0xDA4 DUP1 PUSH2 0x20 PUSH1 0x0 CODECOPY PUSH1 0x0 RETURN INVALID PUSH1 0x80 PUSH1 0x40 MSTORE CALLVALUE DUP1 ISZERO PUSH2 0x10 JUMPI PUSH1 0x0 DUP1 REVERT JUMPDEST POP PUSH1 0x4 CALLDATASIZE LT PUSH2 0xCF JUMPI PUSH1 0x0 CALLDATALOAD PUSH1 0xE0 SHR DUP1 PUSH4 0x9885E3B4 GT PUSH2 0x8C JUMPI DUP1 PUSH4 0xE1C7392A GT PUSH2 0x66 JUMPI DUP1 PUSH4 0xE1C7392A EQ PUSH2 0x220 JUMPI DUP1 PUSH4 0xE985E9C5 EQ PUSH2 0x22A JUMPI DUP1 PUSH4 0xF79FE538 EQ PUSH2 0x25A JUMPI DUP1 PUSH4 0xF88C98B6 EQ PUSH2 0x28A JUMPI PUSH2 0xCF JUMP JUMPDEST DUP1 PUSH4 0x9885E3B4 EQ PUSH2 0x1A4 JUMPI DUP1 PUSH4 0xA22CB465 EQ PUSH2 0x1D4 JUMPI DUP1 PUSH4 0xDA8C229E EQ PUSH2 0x1F0 JUMPI PUSH2 0xCF JUMP JUMPDEST DUP1 PUSH4 0x2571BE3 EQ PUSH2 0xD4 JUMPI DUP1 PUSH4 0x3DAFC07 EQ PUSH2 0x104 JUMPI DUP1 PUSH4 0x6AB5923 EQ PUSH2 0x120 JUMPI DUP1 PUSH4 0x4FF63845 EQ PUSH2 0x150 JUMPI DUP1 PUSH4 0x54EE2090 EQ PUSH2 0x16C JUMPI DUP1 PUSH4 0x5B0FC9C3 EQ PUSH2 0x188 JUMPI JUMPDEST PUSH1 0x0 DUP1 REVERT JUMPDEST PUSH2 0xEE PUSH1 0x4 DUP1 CALLDATASIZE SUB DUP2 ADD SWAP1 PUSH2 0xE9 SWAP2 SWAP1 PUSH2 0xA97 JUMP JUMPDEST PUSH2 0x2A6 JUMP JUMPDEST PUSH1 0x40 MLOAD PUSH2 0xFB SWAP2 SWAP1 PUSH2 0xC81 JUMP JUMPDEST PUSH1 0x40 MLOAD DUP1 SWAP2 SUB SWAP1 RETURN JUMPDEST PUSH2 0x11E PUSH1 0x4 DUP1 CALLDATASIZE SUB DUP2 ADD SWAP1 PUSH2 0x119 SWAP2 SWAP1 PUSH2 0xBAA JUMP JUMPDEST PUSH2 0x32A JUMP JUMPDEST STOP JUMPDEST PUSH2 0x13A PUSH1 0x4 DUP1 CALLDATASIZE SUB DUP2 ADD SWAP1 PUSH2 0x135 SWAP2 SWAP1 PUSH2 0xB57 JUMP JUMPDEST PUSH2 0x34A JUMP JUMPDEST PUSH1 0x40 MLOAD PUSH2 0x147 SWAP2 SWAP1 PUSH2 0xCB7 JUMP JUMPDEST PUSH1 0x40 MLOAD DUP1 SWAP2 SUB SWAP1 RETURN JUMPDEST PUSH2 0x16A PUSH1 0x4 DUP1 CALLDATASIZE SUB DUP2 ADD SWAP1 PUSH2 0x165 SWAP2 SWAP1 PUSH2 0x9EA JUMP JUMPDEST PUSH2 0x3C9 JUMP JUMPDEST STOP JUMPDEST PUSH2 0x186 PUSH1 0x4 DUP1 CALLDATASIZE SUB DUP2 ADD SWAP1 PUSH2 0x181 SWAP2 SWAP1 PUSH2 0xAC4 JUMP JUMPDEST PUSH2 0x424 JUMP JUMPDEST STOP JUMPDEST PUSH2 0x1A2 PUSH1 0x4 DUP1 CALLDATASIZE SUB DUP2 ADD SWAP1 PUSH2 0x19D SWAP2 SWAP1 PUSH2 0xAC4 JUMP JUMPDEST PUSH2 0x4B7 JUMP JUMPDEST STOP JUMPDEST PUSH2 0x1BE PUSH1 0x4 DUP1 CALLDATASIZE SUB DUP2 ADD SWAP1 PUSH2 0x1B9 SWAP2 SWAP1 PUSH2 0xA97 JUMP JUMPDEST PUSH2 0x4FF JUMP JUMPDEST PUSH1 0x40 MLOAD PUSH2 0x1CB SWAP2 SWAP1 PUSH2 0xC81 JUMP JUMPDEST PUSH1 0x40 MLOAD DUP1 SWAP2 SUB SWAP1 RETURN JUMPDEST PUSH2 0x1EE PUSH1 0x4 DUP1 CALLDATASIZE SUB DUP2 ADD SWAP1 PUSH2 0x1E9 SWAP2 SWAP1 PUSH2 0xA57 JUMP JUMPDEST PUSH2 0x53F JUMP JUMPDEST STOP JUMPDEST PUSH2 0x20A PUSH1 0x4 DUP1 CALLDATASIZE SUB DUP2 ADD SWAP1 PUSH2 0x205 SWAP2 SWAP1 PUSH2 0x9EA JUMP JUMPDEST PUSH2 0x63C JUMP JUMPDEST PUSH1 0x40 MLOAD PUSH2 0x217 SWAP2 SWAP1 PUSH2 0xC9C JUMP JUMPDEST PUSH1 0x40 MLOAD DUP1 SWAP2 SUB SWAP1 RETURN JUMPDEST PUSH2 0x228 PUSH2 0x65C JUMP JUMPDEST STOP JUMPDEST PUSH2 0x244 PUSH1 0x4 DUP1 CALLDATASIZE SUB DUP2 ADD SWAP1 PUSH2 0x23F SWAP2 SWAP1 PUSH2 0xA17 JUMP JUMPDEST PUSH2 0x73B JUMP JUMPDEST PUSH1 0x40 MLOAD PUSH2 0x251 SWAP2 SWAP1 PUSH2 0xC9C JUMP JUMPDEST PUSH1 0x40 MLOAD DUP1 SWAP2 SUB SWAP1 RETURN JUMPDEST PUSH2 0x274 PUSH1 0x4 DUP1 CALLDATASIZE SUB DUP2 ADD SWAP1 PUSH2 0x26F SWAP2 SWAP1 PUSH2 0xA97 JUMP JUMPDEST PUSH2 0x7CF JUMP JUMPDEST PUSH1 0x40 MLOAD PUSH2 0x281 SWAP2 SWAP1 PUSH2 0xC9C JUMP JUMPDEST PUSH1 0x40 MLOAD DUP1 SWAP2 SUB SWAP1 RETURN JUMPDEST PUSH2 0x2A4 PUSH1 0x4 DUP1 CALLDATASIZE SUB DUP2 ADD SWAP1 PUSH2 0x29F SWAP2 SWAP1 PUSH2 0xB04 JUMP JUMPDEST PUSH2 0x83E JUMP JUMPDEST STOP JUMPDEST PUSH1 0x0 DUP1 PUSH1 0x1 PUSH1 0x0 DUP5 DUP2 MSTORE PUSH1 0x20 ADD SWAP1 DUP2 MSTORE PUSH1 0x20 ADD PUSH1 0x0 KECCAK256 PUSH1 0x0 ADD PUSH1 0x0 SWAP1 SLOAD SWAP1 PUSH2 0x100 EXP SWAP1 DIV PUSH20 0xFFFFFFFFFFFFFFFFFFFFFFFFFFFFFFFFFFFFFFFF AND SWAP1 POP ADDRESS PUSH20 0xFFFFFFFFFFFFFFFFFFFFFFFFFFFFFFFFFFFFFFFF AND DUP2 PUSH20 0xFFFFFFFFFFFFFFFFFFFFFFFFFFFFFFFFFFFFFFFF AND EQ ISZERO PUSH2 0x320 JUMPI PUSH1 0x0 SWAP2 POP POP PUSH2 0x325 JUMP JUMPDEST DUP1 SWAP2 POP POP JUMPDEST SWAP2 SWAP1 POP JUMP JUMPDEST PUSH1 0x0 PUSH2 0x337 DUP6 DUP6 DUP6 PUSH2 0x34A JUMP JUMPDEST SWAP1 POP PUSH2 0x343 DUP2 DUP4 PUSH2 0x857 JUMP JUMPDEST POP POP POP POP POP JUMP JUMPDEST PUSH1 0x0 DUP4 PUSH1 0x0 DUP6 DUP6 PUSH1 0x40 MLOAD PUSH1 0x20 ADD PUSH2 0x362 SWAP3 SWAP2 SWAP1 PUSH2 0xC55 JUMP JUMPDEST PUSH1 0x40 MLOAD PUSH1 0x20 DUP2 DUP4 SUB SUB DUP2 MSTORE SWAP1 PUSH1 0x40 MSTORE DUP1 MLOAD SWAP1 PUSH1 0x20 ADD KECCAK256 SWAP1 POP PUSH2 0x384 DUP2 DUP6 PUSH2 0x952 JUMP JUMPDEST DUP5 DUP7 PUSH32 0xCE0457FE73731F824CC272376169235128C118B49D344817417C6D108D155E82 DUP7 PUSH1 0x40 MLOAD PUSH2 0x3B5 SWAP2 SWAP1 PUSH2 0xC81 JUMP JUMPDEST PUSH1 0x40 MLOAD DUP1 SWAP2 SUB SWAP1 LOG3 DUP1 SWAP3 POP POP POP SWAP4 SWAP3 POP POP POP JUMP JUMPDEST PUSH1 0x1 PUSH1 0x3 PUSH1 0x0 DUP4 PUSH20 0xFFFFFFFFFFFFFFFFFFFFFFFFFFFFFFFFFFFFFFFF AND PUSH20 0xFFFFFFFFFFFFFFFFFFFFFFFFFFFFFFFFFFFFFFFF AND DUP2 MSTORE PUSH1 0x20 ADD SWAP1 DUP2 MSTORE PUSH1 0x20 ADD PUSH1 0x0 KECCAK256 PUSH1 0x0 PUSH2 0x100 EXP DUP2 SLOAD DUP2 PUSH1 0xFF MUL NOT AND SWAP1 DUP4 ISZERO ISZERO MUL OR SWAP1 SSTORE POP POP JUMP JUMPDEST DUP2 DUP2 PUSH1 0x1 PUSH1 0x0 DUP6 DUP2 MSTORE PUSH1 0x20 ADD SWAP1 DUP2 MSTORE PUSH1 0x20 ADD PUSH1 0x0 KECCAK256 PUSH1 0x1 ADD PUSH1 0x0 PUSH2 0x100 EXP DUP2 SLOAD DUP2 PUSH20 0xFFFFFFFFFFFFFFFFFFFFFFFFFFFFFFFFFFFFFFFF MUL NOT AND SWAP1 DUP4 PUSH20 0xFFFFFFFFFFFFFFFFFFFFFFFFFFFFFFFFFFFFFFFF AND MUL OR SWAP1 SSTORE POP DUP3 PUSH32 0xABD3903F5C84F8950A7B3BB2A5D4DBAC40B9A379A5F010107FB3ACD94DD995E2 DUP4 PUSH1 0x40 MLOAD PUSH2 0x4AA SWAP2 SWAP1 PUSH2 0xC81 JUMP JUMPDEST PUSH1 0x40 MLOAD DUP1 SWAP2 SUB SWAP1 LOG2 POP POP POP JUMP JUMPDEST DUP2 PUSH2 0x4C2 DUP4 DUP4 PUSH2 0x952 JUMP JUMPDEST DUP3 PUSH32 0xD4735D920B0F87494915F556DD9B54C8F309026070CAEA5C737245152564D266 DUP4 PUSH1 0x40 MLOAD PUSH2 0x4F2 SWAP2 SWAP1 PUSH2 0xC81 JUMP JUMPDEST PUSH1 0x40 MLOAD DUP1 SWAP2 SUB SWAP1 LOG2 POP POP POP JUMP JUMPDEST PUSH1 0x0 PUSH1 0x1 PUSH1 0x0 DUP4 DUP2 MSTORE PUSH1 0x20 ADD SWAP1 DUP2 MSTORE PUSH1 0x20 ADD PUSH1 0x0 KECCAK256 PUSH1 0x1 ADD PUSH1 0x0 SWAP1 SLOAD SWAP1 PUSH2 0x100 EXP SWAP1 DIV PUSH20 0xFFFFFFFFFFFFFFFFFFFFFFFFFFFFFFFFFFFFFFFF AND SWAP1 POP SWAP2 SWAP1 POP JUMP JUMPDEST DUP1 PUSH1 0x2 PUSH1 0x0 CALLER PUSH20 0xFFFFFFFFFFFFFFFFFFFFFFFFFFFFFFFFFFFFFFFF AND PUSH20 0xFFFFFFFFFFFFFFFFFFFFFFFFFFFFFFFFFFFFFFFF AND DUP2 MSTORE PUSH1 0x20 ADD SWAP1 DUP2 MSTORE PUSH1 0x20 ADD PUSH1 0x0 KECCAK256 PUSH1 0x0 DUP5 PUSH20 0xFFFFFFFFFFFFFFFFFFFFFFFFFFFFFFFFFFFFFFFF AND PUSH20 0xFFFFFFFFFFFFFFFFFFFFFFFFFFFFFFFFFFFFFFFF AND DUP2 MSTORE PUSH1 0x20 ADD SWAP1 DUP2 MSTORE PUSH1 0x20 ADD PUSH1 0x0 KECCAK256 PUSH1 0x0 PUSH2 0x100 EXP DUP2 SLOAD DUP2 PUSH1 0xFF MUL NOT AND SWAP1 DUP4 ISZERO ISZERO MUL OR SWAP1 SSTORE POP DUP2 PUSH20 0xFFFFFFFFFFFFFFFFFFFFFFFFFFFFFFFFFFFFFFFF AND CALLER PUSH20 0xFFFFFFFFFFFFFFFFFFFFFFFFFFFFFFFFFFFFFFFF AND PUSH32 0x17307EAB39AB6107E8899845AD3D59BD9653F200F220920489CA2B5937696C31 DUP4 PUSH1 0x40 MLOAD PUSH2 0x630 SWAP2 SWAP1 PUSH2 0xC9C JUMP JUMPDEST PUSH1 0x40 MLOAD DUP1 SWAP2 SUB SWAP1 LOG3 POP POP JUMP JUMPDEST PUSH1 0x3 PUSH1 0x20 MSTORE DUP1 PUSH1 0x0 MSTORE PUSH1 0x40 PUSH1 0x0 KECCAK256 PUSH1 0x0 SWAP2 POP SLOAD SWAP1 PUSH2 0x100 EXP SWAP1 DIV PUSH1 0xFF AND DUP2 JUMP JUMPDEST PUSH1 0x0 DUP1 SLOAD SWAP1 PUSH2 0x100 EXP SWAP1 DIV PUSH1 0xFF AND PUSH2 0x739 JUMPI CALLER PUSH1 0x1 PUSH1 0x0 DUP1 PUSH1 0x0 SHL DUP2 MSTORE PUSH1 0x20 ADD SWAP1 DUP2 MSTORE PUSH1 0x20 ADD PUSH1 0x0 KECCAK256 PUSH1 0x0 ADD PUSH1 0x0 PUSH2 0x100 EXP DUP2 SLOAD DUP2 PUSH20 0xFFFFFFFFFFFFFFFFFFFFFFFFFFFFFFFFFFFFFFFF MUL NOT AND SWAP1 DUP4 PUSH20 0xFFFFFFFFFFFFFFFFFFFFFFFFFFFFFFFFFFFFFFFF AND MUL OR SWAP1 SSTORE POP PUSH1 0x1 PUSH1 0x3 PUSH1 0x0 CALLER PUSH20 0xFFFFFFFFFFFFFFFFFFFFFFFFFFFFFFFFFFFFFFFF AND PUSH20 0xFFFFFFFFFFFFFFFFFFFFFFFFFFFFFFFFFFFFFFFF AND DUP2 MSTORE PUSH1 0x20 ADD SWAP1 DUP2 MSTORE PUSH1 0x20 ADD PUSH1 0x0 KECCAK256 PUSH1 0x0 PUSH2 0x100 EXP DUP2 SLOAD DUP2 PUSH1 0xFF MUL NOT AND SWAP1 DUP4 ISZERO ISZERO MUL OR SWAP1 SSTORE POP PUSH1 0x1 PUSH1 0x0 DUP1 PUSH2 0x100 EXP DUP2 SLOAD DUP2 PUSH1 0xFF MUL NOT AND SWAP1 DUP4 ISZERO ISZERO MUL OR SWAP1 SSTORE POP JUMPDEST JUMP JUMPDEST PUSH1 0x0 PUSH1 0x2 PUSH1 0x0 DUP5 PUSH20 0xFFFFFFFFFFFFFFFFFFFFFFFFFFFFFFFFFFFFFFFF AND PUSH20 0xFFFFFFFFFFFFFFFFFFFFFFFFFFFFFFFFFFFFFFFF AND DUP2 MSTORE PUSH1 0x20 ADD SWAP1 DUP2 MSTORE PUSH1 0x20 ADD PUSH1 0x0 KECCAK256 PUSH1 0x0 DUP4 PUSH20 0xFFFFFFFFFFFFFFFFFFFFFFFFFFFFFFFFFFFFFFFF AND PUSH20 0xFFFFFFFFFFFFFFFFFFFFFFFFFFFFFFFFFFFFFFFF AND DUP2 MSTORE PUSH1 0x20 ADD SWAP1 DUP2 MSTORE PUSH1 0x20 ADD PUSH1 0x0 KECCAK256 PUSH1 0x0 SWAP1 SLOAD SWAP1 PUSH2 0x100 EXP SWAP1 DIV PUSH1 0xFF AND SWAP1 POP SWAP3 SWAP2 POP POP JUMP JUMPDEST PUSH1 0x0 DUP1 PUSH20 0xFFFFFFFFFFFFFFFFFFFFFFFFFFFFFFFFFFFFFFFF AND PUSH1 0x1 PUSH1 0x0 DUP5 DUP2 MSTORE PUSH1 0x20 ADD SWAP1 DUP2 MSTORE PUSH1 0x20 ADD PUSH1 0x0 KECCAK256 PUSH1 0x0 ADD PUSH1 0x0 SWAP1 SLOAD SWAP1 PUSH2 0x100 EXP SWAP1 DIV PUSH20 0xFFFFFFFFFFFFFFFFFFFFFFFFFFFFFFFFFFFFFFFF AND PUSH20 0xFFFFFFFFFFFFFFFFFFFFFFFFFFFFFFFFFFFFFFFF AND EQ ISZERO SWAP1 POP SWAP2 SWAP1 POP JUMP JUMPDEST PUSH2 0x848 DUP4 DUP4 PUSH2 0x4B7 JUMP JUMPDEST PUSH2 0x852 DUP4 DUP3 PUSH2 0x857 JUMP JUMPDEST POP POP POP JUMP JUMPDEST PUSH1 0x1 PUSH1 0x0 DUP4 DUP2 MSTORE PUSH1 0x20 ADD SWAP1 DUP2 MSTORE PUSH1 0x20 ADD PUSH1 0x0 KECCAK256 PUSH1 0x1 ADD PUSH1 0x0 SWAP1 SLOAD SWAP1 PUSH2 0x100 EXP SWAP1 DIV PUSH20 0xFFFFFFFFFFFFFFFFFFFFFFFFFFFFFFFFFFFFFFFF AND PUSH20 0xFFFFFFFFFFFFFFFFFFFFFFFFFFFFFFFFFFFFFFFF AND DUP2 PUSH20 0xFFFFFFFFFFFFFFFFFFFFFFFFFFFFFFFFFFFFFFFF AND EQ PUSH2 0x94E JUMPI DUP1 PUSH1 0x1 PUSH1 0x0 DUP5 DUP2 MSTORE PUSH1 0x20 ADD SWAP1 DUP2 MSTORE PUSH1 0x20 ADD PUSH1 0x0 KECCAK256 PUSH1 0x1 ADD PUSH1 0x0 PUSH2 0x100 EXP DUP2 SLOAD DUP2 PUSH20 0xFFFFFFFFFFFFFFFFFFFFFFFFFFFFFFFFFFFFFFFF MUL NOT AND SWAP1 DUP4 PUSH20 0xFFFFFFFFFFFFFFFFFFFFFFFFFFFFFFFFFFFFFFFF AND MUL OR SWAP1 SSTORE POP DUP2 PUSH32 0xABD3903F5C84F8950A7B3BB2A5D4DBAC40B9A379A5F010107FB3ACD94DD995E2 DUP3 PUSH1 0x40 MLOAD PUSH2 0x945 SWAP2 SWAP1 PUSH2 0xC81 JUMP JUMPDEST PUSH1 0x40 MLOAD DUP1 SWAP2 SUB SWAP1 LOG2 JUMPDEST POP POP JUMP JUMPDEST DUP1 PUSH1 0x1 PUSH1 0x0 DUP5 DUP2 MSTORE PUSH1 0x20 ADD SWAP1 DUP2 MSTORE PUSH1 0x20 ADD PUSH1 0x0 KECCAK256 PUSH1 0x0 ADD PUSH1 0x0 PUSH2 0x100 EXP DUP2 SLOAD DUP2 PUSH20 0xFFFFFFFFFFFFFFFFFFFFFFFFFFFFFFFFFFFFFFFF MUL NOT AND SWAP1 DUP4 PUSH20 0xFFFFFFFFFFFFFFFFFFFFFFFFFFFFFFFFFFFFFFFF AND MUL OR SWAP1 SSTORE POP POP POP JUMP JUMPDEST PUSH1 0x0 DUP2 CALLDATALOAD SWAP1 POP PUSH2 0x9BA DUP2 PUSH2 0xD29 JUMP JUMPDEST SWAP3 SWAP2 POP POP JUMP JUMPDEST PUSH1 0x0 DUP2 CALLDATALOAD SWAP1 POP PUSH2 0x9CF DUP2 PUSH2 0xD40 JUMP JUMPDEST SWAP3 SWAP2 POP POP JUMP JUMPDEST PUSH1 0x0 DUP2 CALLDATALOAD SWAP1 POP PUSH2 0x9E4 DUP2 PUSH2 0xD57 JUMP JUMPDEST SWAP3 SWAP2 POP POP JUMP JUMPDEST PUSH1 0x0 PUSH1 0x20 DUP3 DUP5 SUB SLT ISZERO PUSH2 0xA00 JUMPI PUSH2 0x9FF PUSH2 0xD24 JUMP JUMPDEST JUMPDEST PUSH1 0x0 PUSH2 0xA0E DUP5 DUP3 DUP6 ADD PUSH2 0x9AB JUMP JUMPDEST SWAP2 POP POP SWAP3 SWAP2 POP POP JUMP JUMPDEST PUSH1 0x0 DUP1 PUSH1 0x40 DUP4 DUP6 SUB SLT ISZERO PUSH2 0xA2E JUMPI PUSH2 0xA2D PUSH2 0xD24 JUMP JUMPDEST JUMPDEST PUSH1 0x0 PUSH2 0xA3C DUP6 DUP3 DUP7 ADD PUSH2 0x9AB JUMP JUMPDEST SWAP3 POP POP PUSH1 0x20 PUSH2 0xA4D DUP6 DUP3 DUP7 ADD PUSH2 0x9AB JUMP JUMPDEST SWAP2 POP POP SWAP3 POP SWAP3 SWAP1 POP JUMP JUMPDEST PUSH1 0x0 DUP1 PUSH1 0x40 DUP4 DUP6 SUB SLT ISZERO PUSH2 0xA6E JUMPI PUSH2 0xA6D PUSH2 0xD24 JUMP JUMPDEST JUMPDEST PUSH1 0x0 PUSH2 0xA7C DUP6 DUP3 DUP7 ADD PUSH2 0x9AB JUMP JUMPDEST SWAP3 POP POP PUSH1 0x20 PUSH2 0xA8D DUP6 DUP3 DUP7 ADD PUSH2 0x9C0 JUMP JUMPDEST SWAP2 POP POP SWAP3 POP SWAP3 SWAP1 POP JUMP JUMPDEST PUSH1 0x0 PUSH1 0x20 DUP3 DUP5 SUB SLT ISZERO PUSH2 0xAAD JUMPI PUSH2 0xAAC PUSH2 0xD24 JUMP JUMPDEST JUMPDEST PUSH1 0x0 PUSH2 0xABB DUP5 DUP3 DUP6 ADD PUSH2 0x9D5 JUMP JUMPDEST SWAP2 POP POP SWAP3 SWAP2 POP POP JUMP JUMPDEST PUSH1 0x0 DUP1 PUSH1 0x40 DUP4 DUP6 SUB SLT ISZERO PUSH2 0xADB JUMPI PUSH2 0xADA PUSH2 0xD24 JUMP JUMPDEST JUMPDEST PUSH1 0x0 PUSH2 0xAE9 DUP6 DUP3 DUP7 ADD PUSH2 0x9D5 JUMP JUMPDEST SWAP3 POP POP PUSH1 0x20 PUSH2 0xAFA DUP6 DUP3 DUP7 ADD PUSH2 0x9AB JUMP JUMPDEST SWAP2 POP POP SWAP3 POP SWAP3 SWAP1 POP JUMP JUMPDEST PUSH1 0x0 DUP1 PUSH1 0x0 PUSH1 0x60 DUP5 DUP7 SUB SLT ISZERO PUSH2 0xB1D JUMPI PUSH2 0xB1C PUSH2 0xD24 JUMP JUMPDEST JUMPDEST PUSH1 0x0 PUSH2 0xB2B DUP7 DUP3 DUP8 ADD PUSH2 0x9D5 JUMP JUMPDEST SWAP4 POP POP PUSH1 0x20 PUSH2 0xB3C DUP7 DUP3 DUP8 ADD PUSH2 0x9AB JUMP JUMPDEST SWAP3 POP POP PUSH1 0x40 PUSH2 0xB4D DUP7 DUP3 DUP8 ADD PUSH2 0x9AB JUMP JUMPDEST SWAP2 POP POP SWAP3 POP SWAP3 POP SWAP3 JUMP JUMPDEST PUSH1 0x0 DUP1 PUSH1 0x0 PUSH1 0x60 DUP5 DUP7 SUB SLT ISZERO PUSH2 0xB70 JUMPI PUSH2 0xB6F PUSH2 0xD24 JUMP JUMPDEST JUMPDEST PUSH1 0x0 PUSH2 0xB7E DUP7 DUP3 DUP8 ADD PUSH2 0x9D5 JUMP JUMPDEST SWAP4 POP POP PUSH1 0x20 PUSH2 0xB8F DUP7 DUP3 DUP8 ADD PUSH2 0x9D5 JUMP JUMPDEST SWAP3 POP POP PUSH1 0x40 PUSH2 0xBA0 DUP7 DUP3 DUP8 ADD PUSH2 0x9AB JUMP JUMPDEST SWAP2 POP POP SWAP3 POP SWAP3 POP SWAP3 JUMP JUMPDEST PUSH1 0x0 DUP1 PUSH1 0x0 DUP1 PUSH1 0x80 DUP6 DUP8 SUB SLT ISZERO PUSH2 0xBC4 JUMPI PUSH2 0xBC3 PUSH2 0xD24 JUMP JUMPDEST JUMPDEST PUSH1 0x0 PUSH2 0xBD2 DUP8 DUP3 DUP9 ADD PUSH2 0x9D5 JUMP JUMPDEST SWAP5 POP POP PUSH1 0x20 PUSH2 0xBE3 DUP8 DUP3 DUP9 ADD PUSH2 0x9D5 JUMP JUMPDEST SWAP4 POP POP PUSH1 0x40 PUSH2 0xBF4 DUP8 DUP3 DUP9 ADD PUSH2 0x9AB JUMP JUMPDEST SWAP3 POP POP PUSH1 0x60 PUSH2 0xC05 DUP8 DUP3 DUP9 ADD PUSH2 0x9AB JUMP JUMPDEST SWAP2 POP POP SWAP3 SWAP6 SWAP2 SWAP5 POP SWAP3 POP JUMP JUMPDEST PUSH2 0xC1A DUP2 PUSH2 0xCD2 JUMP JUMPDEST DUP3 MSTORE POP POP JUMP JUMPDEST PUSH2 0xC29 DUP2 PUSH2 0xCE4 JUMP JUMPDEST DUP3 MSTORE POP POP JUMP JUMPDEST PUSH2 0xC38 DUP2 PUSH2 0xCF0 JUMP JUMPDEST DUP3 MSTORE POP POP JUMP JUMPDEST PUSH2 0xC4F PUSH2 0xC4A DUP3 PUSH2 0xCF0 JUMP JUMPDEST PUSH2 0xD1A JUMP JUMPDEST DUP3 MSTORE POP POP JUMP JUMPDEST PUSH1 0x0 PUSH2 0xC61 DUP3 DUP6 PUSH2 0xC3E JUMP JUMPDEST PUSH1 0x20 DUP3 ADD SWAP2 POP PUSH2 0xC71 DUP3 DUP5 PUSH2 0xC3E JUMP JUMPDEST PUSH1 0x20 DUP3 ADD SWAP2 POP DUP2 SWAP1 POP SWAP4 SWAP3 POP POP POP JUMP JUMPDEST PUSH1 0x0 PUSH1 0x20 DUP3 ADD SWAP1 POP PUSH2 0xC96 PUSH1 0x0 DUP4 ADD DUP5 PUSH2 0xC11 JUMP JUMPDEST SWAP3 SWAP2 POP POP JUMP JUMPDEST PUSH1 0x0 PUSH1 0x20 DUP3 ADD SWAP1 POP PUSH2 0xCB1 PUSH1 0x0 DUP4 ADD DUP5 PUSH2 0xC20 JUMP JUMPDEST SWAP3 SWAP2 POP POP JUMP JUMPDEST PUSH1 0x0 PUSH1 0x20 DUP3 ADD SWAP1 POP PUSH2 0xCCC PUSH1 0x0 DUP4 ADD DUP5 PUSH2 0xC2F JUMP JUMPDEST SWAP3 SWAP2 POP POP JUMP JUMPDEST PUSH1 0x0 PUSH2 0xCDD DUP3 PUSH2 0xCFA JUMP JUMPDEST SWAP1 POP SWAP2 SWAP1 POP JUMP JUMPDEST PUSH1 0x0 DUP2 ISZERO ISZERO SWAP1 POP SWAP2 SWAP1 POP JUMP JUMPDEST PUSH1 0x0 DUP2 SWAP1 POP SWAP2 SWAP1 POP JUMP JUMPDEST PUSH1 0x0 PUSH20 0xFFFFFFFFFFFFFFFFFFFFFFFFFFFFFFFFFFFFFFFF DUP3 AND SWAP1 POP SWAP2 SWAP1 POP JUMP JUMPDEST PUSH1 0x0 DUP2 SWAP1 POP SWAP2 SWAP1 POP JUMP JUMPDEST PUSH1 0x0 DUP1 REVERT JUMPDEST PUSH2 0xD32 DUP2 PUSH2 0xCD2 JUMP JUMPDEST DUP2 EQ PUSH2 0xD3D JUMPI PUSH1 0x0 DUP1 REVERT JUMPDEST POP JUMP JUMPDEST PUSH2 0xD49 DUP2 PUSH2 0xCE4 JUMP JUMPDEST DUP2 EQ PUSH2 0xD54 JUMPI PUSH1 0x0 DUP1 REVERT JUMPDEST POP JUMP JUMPDEST PUSH2 0xD60 DUP2 PUSH2 0xCF0 JUMP JUMPDEST DUP2 EQ PUSH2 0xD6B JUMPI PUSH1 0x0 DUP1 REVERT JUMPDEST POP JUMP INVALID LOG2 PUSH5 0x6970667358 0x22 SLT KECCAK256 0xAA DUP7 0xB7 0xB3 0x4F KECCAK256 0x23 MUL RETURNDATACOPY CALLDATALOAD CHAINID 0xBD 0x28 PUSH31 0x8C41D2083055A83C373AFD6B82B89E68D80B64736F6C634300080700330000 "
				},
				"gasEstimates": {
					"creation": {
						"codeDepositCost": "698400",
						"executionCost": "734",
						"totalCost": "699134"
					},
					"external": {
						"SetController(address)": "24879",
						"controllers(address)": "2912",
						"init()": "75295",
						"isApprovedForAll(address,address)": "infinite",
						"manager(bytes32)": "2894",
						"owner(bytes32)": "2933",
						"recordExists(bytes32)": "2915",
						"setApprovalForAll(address,bool)": "infinite",
						"setManager(bytes32,address)": "infinite",
						"setOwner(bytes32,address)": "infinite",
						"setRecord(bytes32,address,address)": "infinite",
						"setSubnodeOwner(bytes32,bytes32,address)": "infinite",
						"setSubnodeRecord(bytes32,bytes32,address,address)": "infinite"
					},
					"internal": {
						"_setManager(bytes32,address)": "infinite",
						"_setOwner(bytes32,address)": "24370"
					}
				},
				"methodIdentifiers": {
					"SetController(address)": "4ff63845",
					"controllers(address)": "da8c229e",
					"init()": "e1c7392a",
					"isApprovedForAll(address,address)": "e985e9c5",
					"manager(bytes32)": "9885e3b4",
					"owner(bytes32)": "02571be3",
					"recordExists(bytes32)": "f79fe538",
					"setApprovalForAll(address,bool)": "a22cb465",
					"setManager(bytes32,address)": "54ee2090",
					"setOwner(bytes32,address)": "5b0fc9c3",
					"setRecord(bytes32,address,address)": "f88c98b6",
					"setSubnodeOwner(bytes32,bytes32,address)": "06ab5923",
					"setSubnodeRecord(bytes32,bytes32,address,address)": "03dafc07"
				}
			},
			"storageLayout": {
				"storage": [
					{
						"astId": 141,
						"contract": "dev/functions/FunctionRegistry.sol:FunctionRegistry",
						"label": "IsInit",
						"offset": 0,
						"slot": "0",
						"type": "t_bool"
					},
					{
						"astId": 146,
						"contract": "dev/functions/FunctionRegistry.sol:FunctionRegistry",
						"label": "records",
						"offset": 0,
						"slot": "1",
						"type": "t_mapping(t_bytes32,t_struct(Record)139_storage)"
					},
					{
						"astId": 152,
						"contract": "dev/functions/FunctionRegistry.sol:FunctionRegistry",
						"label": "operators",
						"offset": 0,
						"slot": "2",
						"type": "t_mapping(t_address,t_mapping(t_address,t_bool))"
					},
					{
						"astId": 156,
						"contract": "dev/functions/FunctionRegistry.sol:FunctionRegistry",
						"label": "controllers",
						"offset": 0,
						"slot": "3",
						"type": "t_mapping(t_address,t_bool)"
					}
				],
				"types": {
					"t_address": {
						"encoding": "inplace",
						"label": "address",
						"numberOfBytes": "20"
					},
					"t_bool": {
						"encoding": "inplace",
						"label": "bool",
						"numberOfBytes": "1"
					},
					"t_bytes32": {
						"encoding": "inplace",
						"label": "bytes32",
						"numberOfBytes": "32"
					},
					"t_mapping(t_address,t_bool)": {
						"encoding": "mapping",
						"key": "t_address",
						"label": "mapping(address => bool)",
						"numberOfBytes": "32",
						"value": "t_bool"
					},
					"t_mapping(t_address,t_mapping(t_address,t_bool))": {
						"encoding": "mapping",
						"key": "t_address",
						"label": "mapping(address => mapping(address => bool))",
						"numberOfBytes": "32",
						"value": "t_mapping(t_address,t_bool)"
					},
					"t_mapping(t_bytes32,t_struct(Record)139_storage)": {
						"encoding": "mapping",
						"key": "t_bytes32",
						"label": "mapping(bytes32 => struct FunctionRegistry.Record)",
						"numberOfBytes": "32",
						"value": "t_struct(Record)139_storage"
					},
					"t_struct(Record)139_storage": {
						"encoding": "inplace",
						"label": "struct FunctionRegistry.Record",
						"members": [
							{
								"astId": 136,
								"contract": "dev/functions/FunctionRegistry.sol:FunctionRegistry",
								"label": "owner",
								"offset": 0,
								"slot": "0",
								"type": "t_address"
							},
							{
								"astId": 138,
								"contract": "dev/functions/FunctionRegistry.sol:FunctionRegistry",
								"label": "manager",
								"offset": 0,
								"slot": "1",
								"type": "t_address"
							}
						],
						"numberOfBytes": "64"
					}
				}
			},
			"userdoc": {
				"kind": "user",
				"methods": {},
				"notice": "The Function registry contract.",
				"version": 1
			}
		}
	}
}