{
	"dev/functions/selector.sol": {
		"Selector": {
			"abi": [
				{
					"anonymous": false,
					"inputs": [
						{
							"indexed": true,
							"internalType": "address",
							"name": "node",
							"type": "address"
						},
						{
							"indexed": true,
							"internalType": "bytes",
							"name": "vrfValue",
							"type": "bytes"
						},
						{
							"indexed": false,
							"internalType": "uint256",
							"name": "nodeCounts",
							"type": "uint256"
						},
						{
							"indexed": false,
							"internalType": "uint256",
							"name": "nodeIndex",
							"type": "uint256"
						},
						{
							"indexed": false,
							"internalType": "bytes",
							"name": "trustInfo",
							"type": "bytes"
						}
					],
					"name": "functionExecutor",
					"type": "event"
				},
				{
					"inputs": [
						{
							"internalType": "uint256",
							"name": "blockNum",
							"type": "uint256"
						}
					],
					"name": "getProof",
					"outputs": [
						{
							"internalType": "bytes",
							"name": "",
							"type": "bytes"
						}
					],
					"stateMutability": "view",
					"type": "function"
				},
				{
					"inputs": [],
					"name": "getVRF",
					"outputs": [
						{
							"internalType": "uint256",
							"name": "",
							"type": "uint256"
						}
					],
					"stateMutability": "view",
					"type": "function"
				},
				{
					"inputs": [],
					"name": "init",
					"outputs": [],
					"stateMutability": "nonpayable",
					"type": "function"
				},
				{
					"inputs": [
						{
							"internalType": "uint256",
							"name": "vrf",
							"type": "uint256"
						},
						{
							"internalType": "bytes",
							"name": "proof",
							"type": "bytes"
						},
						{
							"internalType": "uint256",
							"name": "blockNum",
							"type": "uint256"
						}
					],
					"name": "setVRF",
					"outputs": [],
					"stateMutability": "nonpayable",
					"type": "function"
				}
			],
			"devdoc": {
				"kind": "dev",
				"methods": {},
				"version": 1
			},
			"evm": {
				"assembly": "    /* \"dev/functions/selector.sol\":87:903  contract Selector {... */\n  mstore(0x40, 0x80)\n  callvalue\n  dup1\n  iszero\n  tag_1\n  jumpi\n  0x00\n  dup1\n  revert\ntag_1:\n  pop\n  dataSize(sub_0)\n  dup1\n  dataOffset(sub_0)\n  0x00\n  codecopy\n  0x00\n  return\nstop\n\nsub_0: assembly {\n        /* \"dev/functions/selector.sol\":87:903  contract Selector {... */\n      mstore(0x40, 0x80)\n      callvalue\n      dup1\n      iszero\n      tag_1\n      jumpi\n      0x00\n      dup1\n      revert\n    tag_1:\n      pop\n      jumpi(tag_2, lt(calldatasize, 0x04))\n      shr(0xe0, calldataload(0x00))\n      dup1\n      0x11149ada\n      eq\n      tag_3\n      jumpi\n      dup1\n      0xa406c4b0\n      eq\n      tag_4\n      jumpi\n      dup1\n      0xe1c7392a\n      eq\n      tag_5\n      jumpi\n      dup1\n      0xedd3159d\n      eq\n      tag_6\n      jumpi\n    tag_2:\n      0x00\n      dup1\n      revert\n        /* \"dev/functions/selector.sol\":627:809  function getProof(uint blockNum) public view returns(bytes memory){... */\n    tag_3:\n      tag_7\n      0x04\n      dup1\n      calldatasize\n      sub\n      dup2\n      add\n      swap1\n      tag_8\n      swap2\n      swap1\n      tag_9\n      jump\t// in\n    tag_8:\n      tag_10\n      jump\t// in\n    tag_7:\n      mload(0x40)\n      tag_11\n      swap2\n      swap1\n      tag_12\n      jump\t// in\n    tag_11:\n      mload(0x40)\n      dup1\n      swap2\n      sub\n      swap1\n      return\n        /* \"dev/functions/selector.sol\":442:620  function setVRF(uint vrf, bytes memory proof, uint blockNum) public{... */\n    tag_4:\n      tag_13\n      0x04\n      dup1\n      calldatasize\n      sub\n      dup2\n      add\n      swap1\n      tag_14\n      swap2\n      swap1\n      tag_15\n      jump\t// in\n    tag_14:\n      tag_16\n      jump\t// in\n    tag_13:\n      stop\n        /* \"dev/functions/selector.sol\":411:436  function init() public {} */\n    tag_5:\n      tag_17\n      tag_18\n      jump\t// in\n    tag_17:\n      stop\n        /* \"dev/functions/selector.sol\":820:901  function getVRF() public view returns(uint){... */\n    tag_6:\n      tag_19\n      tag_20\n      jump\t// in\n    tag_19:\n      mload(0x40)\n      tag_21\n      swap2\n      swap1\n      tag_22\n      jump\t// in\n    tag_21:\n      mload(0x40)\n      dup1\n      swap2\n      sub\n      swap1\n      return\n        /* \"dev/functions/selector.sol\":627:809  function getProof(uint blockNum) public view returns(bytes memory){... */\n    tag_10:\n        /* \"dev/functions/selector.sol\":680:692  bytes memory */\n      0x60\n        /* \"dev/functions/selector.sol\":721:733  _lastVrfInfo */\n      0x00\n        /* \"dev/functions/selector.sol\":721:742  _lastVrfInfo.blockNum */\n      0x01\n      add\n      sload\n        /* \"dev/functions/selector.sol\":711:719  blockNum */\n      dup3\n        /* \"dev/functions/selector.sol\":711:742  blockNum==_lastVrfInfo.blockNum */\n      eq\n        /* \"dev/functions/selector.sol\":703:766  require(blockNum==_lastVrfInfo.blockNum,\" not found block num\") */\n      tag_24\n      jumpi\n      mload(0x40)\n      0x08c379a000000000000000000000000000000000000000000000000000000000\n      dup2\n      mstore\n      0x04\n      add\n      tag_25\n      swap1\n      tag_26\n      jump\t// in\n    tag_25:\n      mload(0x40)\n      dup1\n      swap2\n      sub\n      swap1\n      revert\n    tag_24:\n        /* \"dev/functions/selector.sol\":784:796  _lastVrfInfo */\n      0x00\n        /* \"dev/functions/selector.sol\":784:802  _lastVrfInfo.proof */\n      0x02\n      add\n        /* \"dev/functions/selector.sol\":776:802  return  _lastVrfInfo.proof */\n      dup1\n      sload\n      tag_27\n      swap1\n      tag_28\n      jump\t// in\n    tag_27:\n      dup1\n      0x1f\n      add\n      0x20\n      dup1\n      swap2\n      div\n      mul\n      0x20\n      add\n      mload(0x40)\n      swap1\n      dup2\n      add\n      0x40\n      mstore\n      dup1\n      swap3\n      swap2\n      swap1\n      dup2\n      dup2\n      mstore\n      0x20\n      add\n      dup3\n      dup1\n      sload\n      tag_29\n      swap1\n      tag_28\n      jump\t// in\n    tag_29:\n      dup1\n      iszero\n      tag_30\n      jumpi\n      dup1\n      0x1f\n      lt\n      tag_31\n      jumpi\n      0x0100\n      dup1\n      dup4\n      sload\n      div\n      mul\n      dup4\n      mstore\n      swap2\n      0x20\n      add\n      swap2\n      jump(tag_30)\n    tag_31:\n      dup3\n      add\n      swap2\n      swap1\n      0x00\n      mstore\n      keccak256(0x00, 0x20)\n      swap1\n    tag_32:\n      dup2\n      sload\n      dup2\n      mstore\n      swap1\n      0x01\n      add\n      swap1\n      0x20\n      add\n      dup1\n      dup4\n      gt\n      tag_32\n      jumpi\n      dup3\n      swap1\n      sub\n      0x1f\n      and\n      dup3\n      add\n      swap2\n    tag_30:\n      pop\n      pop\n      pop\n      pop\n      pop\n      swap1\n      pop\n        /* \"dev/functions/selector.sol\":627:809  function getProof(uint blockNum) public view returns(bytes memory){... */\n      swap2\n      swap1\n      pop\n      jump\t// out\n        /* \"dev/functions/selector.sol\":442:620  function setVRF(uint vrf, bytes memory proof, uint blockNum) public{... */\n    tag_16:\n        /* \"dev/functions/selector.sol\":538:543  proof */\n      dup2\n        /* \"dev/functions/selector.sol\":519:531  _lastVrfInfo */\n      0x00\n        /* \"dev/functions/selector.sol\":519:537  _lastVrfInfo.proof */\n      0x02\n      add\n        /* \"dev/functions/selector.sol\":519:543  _lastVrfInfo.proof=proof */\n      swap1\n      dup1\n      mload\n      swap1\n      0x20\n      add\n      swap1\n      tag_34\n      swap3\n      swap2\n      swap1\n      tag_35\n      jump\t// in\n    tag_34:\n      pop\n        /* \"dev/functions/selector.sol\":575:583  blockNum */\n      dup1\n        /* \"dev/functions/selector.sol\":553:565  _lastVrfInfo */\n      0x00\n        /* \"dev/functions/selector.sol\":553:574  _lastVrfInfo.blockNum */\n      0x01\n      add\n        /* \"dev/functions/selector.sol\":553:583  _lastVrfInfo.blockNum=blockNum */\n      dup2\n      swap1\n      sstore\n      pop\n        /* \"dev/functions/selector.sol\":610:613  vrf */\n      dup3\n        /* \"dev/functions/selector.sol\":593:605  _lastVrfInfo */\n      0x00\n        /* \"dev/functions/selector.sol\":593:609  _lastVrfInfo.vrf */\n      dup1\n      add\n        /* \"dev/functions/selector.sol\":593:613  _lastVrfInfo.vrf=vrf */\n      dup2\n      swap1\n      sstore\n      pop\n        /* \"dev/functions/selector.sol\":442:620  function setVRF(uint vrf, bytes memory proof, uint blockNum) public{... */\n      pop\n      pop\n      pop\n      jump\t// out\n        /* \"dev/functions/selector.sol\":411:436  function init() public {} */\n    tag_18:\n      jump\t// out\n        /* \"dev/functions/selector.sol\":820:901  function getVRF() public view returns(uint){... */\n    tag_20:\n        /* \"dev/functions/selector.sol\":858:862  uint */\n      0x00\n        /* \"dev/functions/selector.sol\":878:890  _lastVrfInfo */\n      dup1\n        /* \"dev/functions/selector.sol\":878:894  _lastVrfInfo.vrf */\n      0x00\n      add\n      sload\n        /* \"dev/functions/selector.sol\":871:894  return _lastVrfInfo.vrf */\n      swap1\n      pop\n        /* \"dev/functions/selector.sol\":820:901  function getVRF() public view returns(uint){... */\n      swap1\n      jump\t// out\n    tag_35:\n      dup3\n      dup1\n      sload\n      tag_38\n      swap1\n      tag_28\n      jump\t// in\n    tag_38:\n      swap1\n      0x00\n      mstore\n      keccak256(0x00, 0x20)\n      swap1\n      0x1f\n      add\n      0x20\n      swap1\n      div\n      dup2\n      add\n      swap3\n      dup3\n      tag_40\n      jumpi\n      0x00\n      dup6\n      sstore\n      jump(tag_39)\n    tag_40:\n      dup3\n      0x1f\n      lt\n      tag_41\n      jumpi\n      dup1\n      mload\n      not(0xff)\n      and\n      dup4\n      dup1\n      add\n      or\n      dup6\n      sstore\n      jump(tag_39)\n    tag_41:\n      dup3\n      dup1\n      add\n      0x01\n      add\n      dup6\n      sstore\n      dup3\n      iszero\n      tag_39\n      jumpi\n      swap2\n      dup3\n      add\n    tag_42:\n      dup3\n      dup2\n      gt\n      iszero\n      tag_43\n      jumpi\n      dup3\n      mload\n      dup3\n      sstore\n      swap2\n      0x20\n      add\n      swap2\n      swap1\n      0x01\n      add\n      swap1\n      jump(tag_42)\n    tag_43:\n    tag_39:\n      pop\n      swap1\n      pop\n      tag_44\n      swap2\n      swap1\n      tag_45\n      jump\t// in\n    tag_44:\n      pop\n      swap1\n      jump\t// out\n    tag_45:\n    tag_46:\n      dup1\n      dup3\n      gt\n      iszero\n      tag_47\n      jumpi\n      0x00\n      dup2\n      0x00\n      swap1\n      sstore\n      pop\n      0x01\n      add\n      jump(tag_46)\n    tag_47:\n      pop\n      swap1\n      jump\t// out\n        /* \"#utility.yul\":7:417   */\n    tag_49:\n        /* \"#utility.yul\":84:89   */\n      0x00\n        /* \"#utility.yul\":109:174   */\n      tag_51\n        /* \"#utility.yul\":125:173   */\n      tag_52\n        /* \"#utility.yul\":166:172   */\n      dup5\n        /* \"#utility.yul\":125:173   */\n      tag_53\n      jump\t// in\n    tag_52:\n        /* \"#utility.yul\":109:174   */\n      tag_54\n      jump\t// in\n    tag_51:\n        /* \"#utility.yul\":100:174   */\n      swap1\n      pop\n        /* \"#utility.yul\":197:203   */\n      dup3\n        /* \"#utility.yul\":190:195   */\n      dup2\n        /* \"#utility.yul\":183:204   */\n      mstore\n        /* \"#utility.yul\":235:239   */\n      0x20\n        /* \"#utility.yul\":228:233   */\n      dup2\n        /* \"#utility.yul\":224:240   */\n      add\n        /* \"#utility.yul\":273:276   */\n      dup5\n        /* \"#utility.yul\":264:270   */\n      dup5\n        /* \"#utility.yul\":259:262   */\n      dup5\n        /* \"#utility.yul\":255:271   */\n      add\n        /* \"#utility.yul\":252:277   */\n      gt\n        /* \"#utility.yul\":249:361   */\n      iszero\n      tag_55\n      jumpi\n        /* \"#utility.yul\":280:359   */\n      tag_56\n      tag_57\n      jump\t// in\n    tag_56:\n        /* \"#utility.yul\":249:361   */\n    tag_55:\n        /* \"#utility.yul\":370:411   */\n      tag_58\n        /* \"#utility.yul\":404:410   */\n      dup5\n        /* \"#utility.yul\":399:402   */\n      dup3\n        /* \"#utility.yul\":394:397   */\n      dup6\n        /* \"#utility.yul\":370:411   */\n      tag_59\n      jump\t// in\n    tag_58:\n        /* \"#utility.yul\":90:417   */\n      pop\n        /* \"#utility.yul\":7:417   */\n      swap4\n      swap3\n      pop\n      pop\n      pop\n      jump\t// out\n        /* \"#utility.yul\":436:774   */\n    tag_60:\n        /* \"#utility.yul\":491:496   */\n      0x00\n        /* \"#utility.yul\":540:543   */\n      dup3\n        /* \"#utility.yul\":533:537   */\n      0x1f\n        /* \"#utility.yul\":525:531   */\n      dup4\n        /* \"#utility.yul\":521:538   */\n      add\n        /* \"#utility.yul\":517:544   */\n      slt\n        /* \"#utility.yul\":507:629   */\n      tag_62\n      jumpi\n        /* \"#utility.yul\":548:627   */\n      tag_63\n      tag_64\n      jump\t// in\n    tag_63:\n        /* \"#utility.yul\":507:629   */\n    tag_62:\n        /* \"#utility.yul\":665:671   */\n      dup2\n        /* \"#utility.yul\":652:672   */\n      calldataload\n        /* \"#utility.yul\":690:768   */\n      tag_65\n        /* \"#utility.yul\":764:767   */\n      dup5\n        /* \"#utility.yul\":756:762   */\n      dup3\n        /* \"#utility.yul\":749:753   */\n      0x20\n        /* \"#utility.yul\":741:747   */\n      dup7\n        /* \"#utility.yul\":737:754   */\n      add\n        /* \"#utility.yul\":690:768   */\n      tag_49\n      jump\t// in\n    tag_65:\n        /* \"#utility.yul\":681:768   */\n      swap2\n      pop\n        /* \"#utility.yul\":497:774   */\n      pop\n        /* \"#utility.yul\":436:774   */\n      swap3\n      swap2\n      pop\n      pop\n      jump\t// out\n        /* \"#utility.yul\":780:919   */\n    tag_66:\n        /* \"#utility.yul\":826:831   */\n      0x00\n        /* \"#utility.yul\":864:870   */\n      dup2\n        /* \"#utility.yul\":851:871   */\n      calldataload\n        /* \"#utility.yul\":842:871   */\n      swap1\n      pop\n        /* \"#utility.yul\":880:913   */\n      tag_68\n        /* \"#utility.yul\":907:912   */\n      dup2\n        /* \"#utility.yul\":880:913   */\n      tag_69\n      jump\t// in\n    tag_68:\n        /* \"#utility.yul\":780:919   */\n      swap3\n      swap2\n      pop\n      pop\n      jump\t// out\n        /* \"#utility.yul\":925:1254   */\n    tag_9:\n        /* \"#utility.yul\":984:990   */\n      0x00\n        /* \"#utility.yul\":1033:1035   */\n      0x20\n        /* \"#utility.yul\":1021:1030   */\n      dup3\n        /* \"#utility.yul\":1012:1019   */\n      dup5\n        /* \"#utility.yul\":1008:1031   */\n      sub\n        /* \"#utility.yul\":1004:1036   */\n      slt\n        /* \"#utility.yul\":1001:1120   */\n      iszero\n      tag_71\n      jumpi\n        /* \"#utility.yul\":1039:1118   */\n      tag_72\n      tag_73\n      jump\t// in\n    tag_72:\n        /* \"#utility.yul\":1001:1120   */\n    tag_71:\n        /* \"#utility.yul\":1159:1160   */\n      0x00\n        /* \"#utility.yul\":1184:1237   */\n      tag_74\n        /* \"#utility.yul\":1229:1236   */\n      dup5\n        /* \"#utility.yul\":1220:1226   */\n      dup3\n        /* \"#utility.yul\":1209:1218   */\n      dup6\n        /* \"#utility.yul\":1205:1227   */\n      add\n        /* \"#utility.yul\":1184:1237   */\n      tag_66\n      jump\t// in\n    tag_74:\n        /* \"#utility.yul\":1174:1237   */\n      swap2\n      pop\n        /* \"#utility.yul\":1130:1247   */\n      pop\n        /* \"#utility.yul\":925:1254   */\n      swap3\n      swap2\n      pop\n      pop\n      jump\t// out\n        /* \"#utility.yul\":1260:2057   */\n    tag_15:\n        /* \"#utility.yul\":1346:1352   */\n      0x00\n        /* \"#utility.yul\":1354:1360   */\n      dup1\n        /* \"#utility.yul\":1362:1368   */\n      0x00\n        /* \"#utility.yul\":1411:1413   */\n      0x60\n        /* \"#utility.yul\":1399:1408   */\n      dup5\n        /* \"#utility.yul\":1390:1397   */\n      dup7\n        /* \"#utility.yul\":1386:1409   */\n      sub\n        /* \"#utility.yul\":1382:1414   */\n      slt\n        /* \"#utility.yul\":1379:1498   */\n      iszero\n      tag_76\n      jumpi\n        /* \"#utility.yul\":1417:1496   */\n      tag_77\n      tag_73\n      jump\t// in\n    tag_77:\n        /* \"#utility.yul\":1379:1498   */\n    tag_76:\n        /* \"#utility.yul\":1537:1538   */\n      0x00\n        /* \"#utility.yul\":1562:1615   */\n      tag_78\n        /* \"#utility.yul\":1607:1614   */\n      dup7\n        /* \"#utility.yul\":1598:1604   */\n      dup3\n        /* \"#utility.yul\":1587:1596   */\n      dup8\n        /* \"#utility.yul\":1583:1605   */\n      add\n        /* \"#utility.yul\":1562:1615   */\n      tag_66\n      jump\t// in\n    tag_78:\n        /* \"#utility.yul\":1552:1615   */\n      swap4\n      pop\n        /* \"#utility.yul\":1508:1625   */\n      pop\n        /* \"#utility.yul\":1692:1694   */\n      0x20\n        /* \"#utility.yul\":1681:1690   */\n      dup5\n        /* \"#utility.yul\":1677:1695   */\n      add\n        /* \"#utility.yul\":1664:1696   */\n      calldataload\n        /* \"#utility.yul\":1723:1741   */\n      0xffffffffffffffff\n        /* \"#utility.yul\":1715:1721   */\n      dup2\n        /* \"#utility.yul\":1712:1742   */\n      gt\n        /* \"#utility.yul\":1709:1826   */\n      iszero\n      tag_79\n      jumpi\n        /* \"#utility.yul\":1745:1824   */\n      tag_80\n      tag_81\n      jump\t// in\n    tag_80:\n        /* \"#utility.yul\":1709:1826   */\n    tag_79:\n        /* \"#utility.yul\":1850:1912   */\n      tag_82\n        /* \"#utility.yul\":1904:1911   */\n      dup7\n        /* \"#utility.yul\":1895:1901   */\n      dup3\n        /* \"#utility.yul\":1884:1893   */\n      dup8\n        /* \"#utility.yul\":1880:1902   */\n      add\n        /* \"#utility.yul\":1850:1912   */\n      tag_60\n      jump\t// in\n    tag_82:\n        /* \"#utility.yul\":1840:1912   */\n      swap3\n      pop\n        /* \"#utility.yul\":1635:1922   */\n      pop\n        /* \"#utility.yul\":1961:1963   */\n      0x40\n        /* \"#utility.yul\":1987:2040   */\n      tag_83\n        /* \"#utility.yul\":2032:2039   */\n      dup7\n        /* \"#utility.yul\":2023:2029   */\n      dup3\n        /* \"#utility.yul\":2012:2021   */\n      dup8\n        /* \"#utility.yul\":2008:2030   */\n      add\n        /* \"#utility.yul\":1987:2040   */\n      tag_66\n      jump\t// in\n    tag_83:\n        /* \"#utility.yul\":1977:2040   */\n      swap2\n      pop\n        /* \"#utility.yul\":1932:2050   */\n      pop\n        /* \"#utility.yul\":1260:2057   */\n      swap3\n      pop\n      swap3\n      pop\n      swap3\n      jump\t// out\n        /* \"#utility.yul\":2063:2423   */\n    tag_84:\n        /* \"#utility.yul\":2149:2152   */\n      0x00\n        /* \"#utility.yul\":2177:2215   */\n      tag_86\n        /* \"#utility.yul\":2209:2214   */\n      dup3\n        /* \"#utility.yul\":2177:2215   */\n      tag_87\n      jump\t// in\n    tag_86:\n        /* \"#utility.yul\":2231:2301   */\n      tag_88\n        /* \"#utility.yul\":2294:2300   */\n      dup2\n        /* \"#utility.yul\":2289:2292   */\n      dup6\n        /* \"#utility.yul\":2231:2301   */\n      tag_89\n      jump\t// in\n    tag_88:\n        /* \"#utility.yul\":2224:2301   */\n      swap4\n      pop\n        /* \"#utility.yul\":2310:2362   */\n      tag_90\n        /* \"#utility.yul\":2355:2361   */\n      dup2\n        /* \"#utility.yul\":2350:2353   */\n      dup6\n        /* \"#utility.yul\":2343:2347   */\n      0x20\n        /* \"#utility.yul\":2336:2341   */\n      dup7\n        /* \"#utility.yul\":2332:2348   */\n      add\n        /* \"#utility.yul\":2310:2362   */\n      tag_91\n      jump\t// in\n    tag_90:\n        /* \"#utility.yul\":2387:2416   */\n      tag_92\n        /* \"#utility.yul\":2409:2415   */\n      dup2\n        /* \"#utility.yul\":2387:2416   */\n      tag_93\n      jump\t// in\n    tag_92:\n        /* \"#utility.yul\":2382:2385   */\n      dup5\n        /* \"#utility.yul\":2378:2417   */\n      add\n        /* \"#utility.yul\":2371:2417   */\n      swap2\n      pop\n        /* \"#utility.yul\":2153:2423   */\n      pop\n        /* \"#utility.yul\":2063:2423   */\n      swap3\n      swap2\n      pop\n      pop\n      jump\t// out\n        /* \"#utility.yul\":2429:2795   */\n    tag_94:\n        /* \"#utility.yul\":2571:2574   */\n      0x00\n        /* \"#utility.yul\":2592:2659   */\n      tag_96\n        /* \"#utility.yul\":2656:2658   */\n      0x14\n        /* \"#utility.yul\":2651:2654   */\n      dup4\n        /* \"#utility.yul\":2592:2659   */\n      tag_97\n      jump\t// in\n    tag_96:\n        /* \"#utility.yul\":2585:2659   */\n      swap2\n      pop\n        /* \"#utility.yul\":2668:2761   */\n      tag_98\n        /* \"#utility.yul\":2757:2760   */\n      dup3\n        /* \"#utility.yul\":2668:2761   */\n      tag_99\n      jump\t// in\n    tag_98:\n        /* \"#utility.yul\":2786:2788   */\n      0x20\n        /* \"#utility.yul\":2781:2784   */\n      dup3\n        /* \"#utility.yul\":2777:2789   */\n      add\n        /* \"#utility.yul\":2770:2789   */\n      swap1\n      pop\n        /* \"#utility.yul\":2429:2795   */\n      swap2\n      swap1\n      pop\n      jump\t// out\n        /* \"#utility.yul\":2801:2919   */\n    tag_100:\n        /* \"#utility.yul\":2888:2912   */\n      tag_102\n        /* \"#utility.yul\":2906:2911   */\n      dup2\n        /* \"#utility.yul\":2888:2912   */\n      tag_103\n      jump\t// in\n    tag_102:\n        /* \"#utility.yul\":2883:2886   */\n      dup3\n        /* \"#utility.yul\":2876:2913   */\n      mstore\n        /* \"#utility.yul\":2801:2919   */\n      pop\n      pop\n      jump\t// out\n        /* \"#utility.yul\":2925:3234   */\n    tag_12:\n        /* \"#utility.yul\":3036:3040   */\n      0x00\n        /* \"#utility.yul\":3074:3076   */\n      0x20\n        /* \"#utility.yul\":3063:3072   */\n      dup3\n        /* \"#utility.yul\":3059:3077   */\n      add\n        /* \"#utility.yul\":3051:3077   */\n      swap1\n      pop\n        /* \"#utility.yul\":3123:3132   */\n      dup2\n        /* \"#utility.yul\":3117:3121   */\n      dup2\n        /* \"#utility.yul\":3113:3133   */\n      sub\n        /* \"#utility.yul\":3109:3110   */\n      0x00\n        /* \"#utility.yul\":3098:3107   */\n      dup4\n        /* \"#utility.yul\":3094:3111   */\n      add\n        /* \"#utility.yul\":3087:3134   */\n      mstore\n        /* \"#utility.yul\":3151:3227   */\n      tag_105\n        /* \"#utility.yul\":3222:3226   */\n      dup2\n        /* \"#utility.yul\":3213:3219   */\n      dup5\n        /* \"#utility.yul\":3151:3227   */\n      tag_84\n      jump\t// in\n    tag_105:\n        /* \"#utility.yul\":3143:3227   */\n      swap1\n      pop\n        /* \"#utility.yul\":2925:3234   */\n      swap3\n      swap2\n      pop\n      pop\n      jump\t// out\n        /* \"#utility.yul\":3240:3659   */\n    tag_26:\n        /* \"#utility.yul\":3406:3410   */\n      0x00\n        /* \"#utility.yul\":3444:3446   */\n      0x20\n        /* \"#utility.yul\":3433:3442   */\n      dup3\n        /* \"#utility.yul\":3429:3447   */\n      add\n        /* \"#utility.yul\":3421:3447   */\n      swap1\n      pop\n        /* \"#utility.yul\":3493:3502   */\n      dup2\n        /* \"#utility.yul\":3487:3491   */\n      dup2\n        /* \"#utility.yul\":3483:3503   */\n      sub\n        /* \"#utility.yul\":3479:3480   */\n      0x00\n        /* \"#utility.yul\":3468:3477   */\n      dup4\n        /* \"#utility.yul\":3464:3481   */\n      add\n        /* \"#utility.yul\":3457:3504   */\n      mstore\n        /* \"#utility.yul\":3521:3652   */\n      tag_107\n        /* \"#utility.yul\":3647:3651   */\n      dup2\n        /* \"#utility.yul\":3521:3652   */\n      tag_94\n      jump\t// in\n    tag_107:\n        /* \"#utility.yul\":3513:3652   */\n      swap1\n      pop\n        /* \"#utility.yul\":3240:3659   */\n      swap2\n      swap1\n      pop\n      jump\t// out\n        /* \"#utility.yul\":3665:3887   */\n    tag_22:\n        /* \"#utility.yul\":3758:3762   */\n      0x00\n        /* \"#utility.yul\":3796:3798   */\n      0x20\n        /* \"#utility.yul\":3785:3794   */\n      dup3\n        /* \"#utility.yul\":3781:3799   */\n      add\n        /* \"#utility.yul\":3773:3799   */\n      swap1\n      pop\n        /* \"#utility.yul\":3809:3880   */\n      tag_109\n        /* \"#utility.yul\":3877:3878   */\n      0x00\n        /* \"#utility.yul\":3866:3875   */\n      dup4\n        /* \"#utility.yul\":3862:3879   */\n      add\n        /* \"#utility.yul\":3853:3859   */\n      dup5\n        /* \"#utility.yul\":3809:3880   */\n      tag_100\n      jump\t// in\n    tag_109:\n        /* \"#utility.yul\":3665:3887   */\n      swap3\n      swap2\n      pop\n      pop\n      jump\t// out\n        /* \"#utility.yul\":3893:4022   */\n    tag_54:\n        /* \"#utility.yul\":3927:3933   */\n      0x00\n        /* \"#utility.yul\":3954:3974   */\n      tag_111\n      tag_112\n      jump\t// in\n    tag_111:\n        /* \"#utility.yul\":3944:3974   */\n      swap1\n      pop\n        /* \"#utility.yul\":3983:4016   */\n      tag_113\n        /* \"#utility.yul\":4011:4015   */\n      dup3\n        /* \"#utility.yul\":4003:4009   */\n      dup3\n        /* \"#utility.yul\":3983:4016   */\n      tag_114\n      jump\t// in\n    tag_113:\n        /* \"#utility.yul\":3893:4022   */\n      swap2\n      swap1\n      pop\n      jump\t// out\n        /* \"#utility.yul\":4028:4103   */\n    tag_112:\n        /* \"#utility.yul\":4061:4067   */\n      0x00\n        /* \"#utility.yul\":4094:4096   */\n      0x40\n        /* \"#utility.yul\":4088:4097   */\n      mload\n        /* \"#utility.yul\":4078:4097   */\n      swap1\n      pop\n        /* \"#utility.yul\":4028:4103   */\n      swap1\n      jump\t// out\n        /* \"#utility.yul\":4109:4416   */\n    tag_53:\n        /* \"#utility.yul\":4170:4174   */\n      0x00\n        /* \"#utility.yul\":4260:4278   */\n      0xffffffffffffffff\n        /* \"#utility.yul\":4252:4258   */\n      dup3\n        /* \"#utility.yul\":4249:4279   */\n      gt\n        /* \"#utility.yul\":4246:4302   */\n      iszero\n      tag_117\n      jumpi\n        /* \"#utility.yul\":4282:4300   */\n      tag_118\n      tag_119\n      jump\t// in\n    tag_118:\n        /* \"#utility.yul\":4246:4302   */\n    tag_117:\n        /* \"#utility.yul\":4320:4349   */\n      tag_120\n        /* \"#utility.yul\":4342:4348   */\n      dup3\n        /* \"#utility.yul\":4320:4349   */\n      tag_93\n      jump\t// in\n    tag_120:\n        /* \"#utility.yul\":4312:4349   */\n      swap1\n      pop\n        /* \"#utility.yul\":4404:4408   */\n      0x20\n        /* \"#utility.yul\":4398:4402   */\n      dup2\n        /* \"#utility.yul\":4394:4409   */\n      add\n        /* \"#utility.yul\":4386:4409   */\n      swap1\n      pop\n        /* \"#utility.yul\":4109:4416   */\n      swap2\n      swap1\n      pop\n      jump\t// out\n        /* \"#utility.yul\":4422:4520   */\n    tag_87:\n        /* \"#utility.yul\":4473:4479   */\n      0x00\n        /* \"#utility.yul\":4507:4512   */\n      dup2\n        /* \"#utility.yul\":4501:4513   */\n      mload\n        /* \"#utility.yul\":4491:4513   */\n      swap1\n      pop\n        /* \"#utility.yul\":4422:4520   */\n      swap2\n      swap1\n      pop\n      jump\t// out\n        /* \"#utility.yul\":4526:4694   */\n    tag_89:\n        /* \"#utility.yul\":4609:4620   */\n      0x00\n        /* \"#utility.yul\":4643:4649   */\n      dup3\n        /* \"#utility.yul\":4638:4641   */\n      dup3\n        /* \"#utility.yul\":4631:4650   */\n      mstore\n        /* \"#utility.yul\":4683:4687   */\n      0x20\n        /* \"#utility.yul\":4678:4681   */\n      dup3\n        /* \"#utility.yul\":4674:4688   */\n      add\n        /* \"#utility.yul\":4659:4688   */\n      swap1\n      pop\n        /* \"#utility.yul\":4526:4694   */\n      swap3\n      swap2\n      pop\n      pop\n      jump\t// out\n        /* \"#utility.yul\":4700:4869   */\n    tag_97:\n        /* \"#utility.yul\":4784:4795   */\n      0x00\n        /* \"#utility.yul\":4818:4824   */\n      dup3\n        /* \"#utility.yul\":4813:4816   */\n      dup3\n        /* \"#utility.yul\":4806:4825   */\n      mstore\n        /* \"#utility.yul\":4858:4862   */\n      0x20\n        /* \"#utility.yul\":4853:4856   */\n      dup3\n        /* \"#utility.yul\":4849:4863   */\n      add\n        /* \"#utility.yul\":4834:4863   */\n      swap1\n      pop\n        /* \"#utility.yul\":4700:4869   */\n      swap3\n      swap2\n      pop\n      pop\n      jump\t// out\n        /* \"#utility.yul\":4875:4952   */\n    tag_103:\n        /* \"#utility.yul\":4912:4919   */\n      0x00\n        /* \"#utility.yul\":4941:4946   */\n      dup2\n        /* \"#utility.yul\":4930:4946   */\n      swap1\n      pop\n        /* \"#utility.yul\":4875:4952   */\n      swap2\n      swap1\n      pop\n      jump\t// out\n        /* \"#utility.yul\":4958:5112   */\n    tag_59:\n        /* \"#utility.yul\":5042:5048   */\n      dup3\n        /* \"#utility.yul\":5037:5040   */\n      dup2\n        /* \"#utility.yul\":5032:5035   */\n      dup4\n        /* \"#utility.yul\":5019:5049   */\n      calldatacopy\n        /* \"#utility.yul\":5104:5105   */\n      0x00\n        /* \"#utility.yul\":5095:5101   */\n      dup4\n        /* \"#utility.yul\":5090:5093   */\n      dup4\n        /* \"#utility.yul\":5086:5102   */\n      add\n        /* \"#utility.yul\":5079:5106   */\n      mstore\n        /* \"#utility.yul\":4958:5112   */\n      pop\n      pop\n      pop\n      jump\t// out\n        /* \"#utility.yul\":5118:5425   */\n    tag_91:\n        /* \"#utility.yul\":5186:5187   */\n      0x00\n        /* \"#utility.yul\":5196:5309   */\n    tag_127:\n        /* \"#utility.yul\":5210:5216   */\n      dup4\n        /* \"#utility.yul\":5207:5208   */\n      dup2\n        /* \"#utility.yul\":5204:5217   */\n      lt\n        /* \"#utility.yul\":5196:5309   */\n      iszero\n      tag_129\n      jumpi\n        /* \"#utility.yul\":5295:5296   */\n      dup1\n        /* \"#utility.yul\":5290:5293   */\n      dup3\n        /* \"#utility.yul\":5286:5297   */\n      add\n        /* \"#utility.yul\":5280:5298   */\n      mload\n        /* \"#utility.yul\":5276:5277   */\n      dup2\n        /* \"#utility.yul\":5271:5274   */\n      dup5\n        /* \"#utility.yul\":5267:5278   */\n      add\n        /* \"#utility.yul\":5260:5299   */\n      mstore\n        /* \"#utility.yul\":5232:5234   */\n      0x20\n        /* \"#utility.yul\":5229:5230   */\n      dup2\n        /* \"#utility.yul\":5225:5235   */\n      add\n        /* \"#utility.yul\":5220:5235   */\n      swap1\n      pop\n        /* \"#utility.yul\":5196:5309   */\n      jump(tag_127)\n    tag_129:\n        /* \"#utility.yul\":5327:5333   */\n      dup4\n        /* \"#utility.yul\":5324:5325   */\n      dup2\n        /* \"#utility.yul\":5321:5334   */\n      gt\n        /* \"#utility.yul\":5318:5419   */\n      iszero\n      tag_130\n      jumpi\n        /* \"#utility.yul\":5407:5408   */\n      0x00\n        /* \"#utility.yul\":5398:5404   */\n      dup5\n        /* \"#utility.yul\":5393:5396   */\n      dup5\n        /* \"#utility.yul\":5389:5405   */\n      add\n        /* \"#utility.yul\":5382:5409   */\n      mstore\n        /* \"#utility.yul\":5318:5419   */\n    tag_130:\n        /* \"#utility.yul\":5167:5425   */\n      pop\n        /* \"#utility.yul\":5118:5425   */\n      pop\n      pop\n      pop\n      jump\t// out\n        /* \"#utility.yul\":5431:5751   */\n    tag_28:\n        /* \"#utility.yul\":5475:5481   */\n      0x00\n        /* \"#utility.yul\":5512:5513   */\n      0x02\n        /* \"#utility.yul\":5506:5510   */\n      dup3\n        /* \"#utility.yul\":5502:5514   */\n      div\n        /* \"#utility.yul\":5492:5514   */\n      swap1\n      pop\n        /* \"#utility.yul\":5559:5560   */\n      0x01\n        /* \"#utility.yul\":5553:5557   */\n      dup3\n        /* \"#utility.yul\":5549:5561   */\n      and\n        /* \"#utility.yul\":5580:5598   */\n      dup1\n        /* \"#utility.yul\":5570:5651   */\n      tag_132\n      jumpi\n        /* \"#utility.yul\":5636:5640   */\n      0x7f\n        /* \"#utility.yul\":5628:5634   */\n      dup3\n        /* \"#utility.yul\":5624:5641   */\n      and\n        /* \"#utility.yul\":5614:5641   */\n      swap2\n      pop\n        /* \"#utility.yul\":5570:5651   */\n    tag_132:\n        /* \"#utility.yul\":5698:5700   */\n      0x20\n        /* \"#utility.yul\":5690:5696   */\n      dup3\n        /* \"#utility.yul\":5687:5701   */\n      lt\n        /* \"#utility.yul\":5667:5685   */\n      dup2\n        /* \"#utility.yul\":5664:5702   */\n      eq\n        /* \"#utility.yul\":5661:5745   */\n      iszero\n      tag_133\n      jumpi\n        /* \"#utility.yul\":5717:5735   */\n      tag_134\n      tag_135\n      jump\t// in\n    tag_134:\n        /* \"#utility.yul\":5661:5745   */\n    tag_133:\n        /* \"#utility.yul\":5482:5751   */\n      pop\n        /* \"#utility.yul\":5431:5751   */\n      swap2\n      swap1\n      pop\n      jump\t// out\n        /* \"#utility.yul\":5757:6038   */\n    tag_114:\n        /* \"#utility.yul\":5840:5867   */\n      tag_137\n        /* \"#utility.yul\":5862:5866   */\n      dup3\n        /* \"#utility.yul\":5840:5867   */\n      tag_93\n      jump\t// in\n    tag_137:\n        /* \"#utility.yul\":5832:5838   */\n      dup2\n        /* \"#utility.yul\":5828:5868   */\n      add\n        /* \"#utility.yul\":5970:5976   */\n      dup2\n        /* \"#utility.yul\":5958:5968   */\n      dup2\n        /* \"#utility.yul\":5955:5977   */\n      lt\n        /* \"#utility.yul\":5934:5952   */\n      0xffffffffffffffff\n        /* \"#utility.yul\":5922:5932   */\n      dup3\n        /* \"#utility.yul\":5919:5953   */\n      gt\n        /* \"#utility.yul\":5916:5978   */\n      or\n        /* \"#utility.yul\":5913:6001   */\n      iszero\n      tag_138\n      jumpi\n        /* \"#utility.yul\":5981:5999   */\n      tag_139\n      tag_119\n      jump\t// in\n    tag_139:\n        /* \"#utility.yul\":5913:6001   */\n    tag_138:\n        /* \"#utility.yul\":6021:6031   */\n      dup1\n        /* \"#utility.yul\":6017:6019   */\n      0x40\n        /* \"#utility.yul\":6010:6032   */\n      mstore\n        /* \"#utility.yul\":5800:6038   */\n      pop\n        /* \"#utility.yul\":5757:6038   */\n      pop\n      pop\n      jump\t// out\n        /* \"#utility.yul\":6044:6224   */\n    tag_135:\n        /* \"#utility.yul\":6092:6169   */\n      0x4e487b7100000000000000000000000000000000000000000000000000000000\n        /* \"#utility.yul\":6089:6090   */\n      0x00\n        /* \"#utility.yul\":6082:6170   */\n      mstore\n        /* \"#utility.yul\":6189:6193   */\n      0x22\n        /* \"#utility.yul\":6186:6187   */\n      0x04\n        /* \"#utility.yul\":6179:6194   */\n      mstore\n        /* \"#utility.yul\":6213:6217   */\n      0x24\n        /* \"#utility.yul\":6210:6211   */\n      0x00\n        /* \"#utility.yul\":6203:6218   */\n      revert\n        /* \"#utility.yul\":6230:6410   */\n    tag_119:\n        /* \"#utility.yul\":6278:6355   */\n      0x4e487b7100000000000000000000000000000000000000000000000000000000\n        /* \"#utility.yul\":6275:6276   */\n      0x00\n        /* \"#utility.yul\":6268:6356   */\n      mstore\n        /* \"#utility.yul\":6375:6379   */\n      0x41\n        /* \"#utility.yul\":6372:6373   */\n      0x04\n        /* \"#utility.yul\":6365:6380   */\n      mstore\n        /* \"#utility.yul\":6399:6403   */\n      0x24\n        /* \"#utility.yul\":6396:6397   */\n      0x00\n        /* \"#utility.yul\":6389:6404   */\n      revert\n        /* \"#utility.yul\":6416:6533   */\n    tag_64:\n        /* \"#utility.yul\":6525:6526   */\n      0x00\n        /* \"#utility.yul\":6522:6523   */\n      dup1\n        /* \"#utility.yul\":6515:6527   */\n      revert\n        /* \"#utility.yul\":6539:6656   */\n    tag_57:\n        /* \"#utility.yul\":6648:6649   */\n      0x00\n        /* \"#utility.yul\":6645:6646   */\n      dup1\n        /* \"#utility.yul\":6638:6650   */\n      revert\n        /* \"#utility.yul\":6662:6779   */\n    tag_81:\n        /* \"#utility.yul\":6771:6772   */\n      0x00\n        /* \"#utility.yul\":6768:6769   */\n      dup1\n        /* \"#utility.yul\":6761:6773   */\n      revert\n        /* \"#utility.yul\":6785:6902   */\n    tag_73:\n        /* \"#utility.yul\":6894:6895   */\n      0x00\n        /* \"#utility.yul\":6891:6892   */\n      dup1\n        /* \"#utility.yul\":6884:6896   */\n      revert\n        /* \"#utility.yul\":6908:7010   */\n    tag_93:\n        /* \"#utility.yul\":6949:6955   */\n      0x00\n        /* \"#utility.yul\":7000:7002   */\n      0x1f\n        /* \"#utility.yul\":6996:7003   */\n      not\n        /* \"#utility.yul\":6991:6993   */\n      0x1f\n        /* \"#utility.yul\":6984:6989   */\n      dup4\n        /* \"#utility.yul\":6980:6994   */\n      add\n        /* \"#utility.yul\":6976:7004   */\n      and\n        /* \"#utility.yul\":6966:7004   */\n      swap1\n      pop\n        /* \"#utility.yul\":6908:7010   */\n      swap2\n      swap1\n      pop\n      jump\t// out\n        /* \"#utility.yul\":7016:7186   */\n    tag_99:\n        /* \"#utility.yul\":7156:7178   */\n      0x206e6f7420666f756e6420626c6f636b206e756d000000000000000000000000\n        /* \"#utility.yul\":7152:7153   */\n      0x00\n        /* \"#utility.yul\":7144:7150   */\n      dup3\n        /* \"#utility.yul\":7140:7154   */\n      add\n        /* \"#utility.yul\":7133:7179   */\n      mstore\n        /* \"#utility.yul\":7016:7186   */\n      pop\n      jump\t// out\n        /* \"#utility.yul\":7192:7314   */\n    tag_69:\n        /* \"#utility.yul\":7265:7289   */\n      tag_149\n        /* \"#utility.yul\":7283:7288   */\n      dup2\n        /* \"#utility.yul\":7265:7289   */\n      tag_103\n      jump\t// in\n    tag_149:\n        /* \"#utility.yul\":7258:7263   */\n      dup2\n        /* \"#utility.yul\":7255:7290   */\n      eq\n        /* \"#utility.yul\":7245:7308   */\n      tag_150\n      jumpi\n        /* \"#utility.yul\":7304:7305   */\n      0x00\n        /* \"#utility.yul\":7301:7302   */\n      dup1\n        /* \"#utility.yul\":7294:7306   */\n      revert\n        /* \"#utility.yul\":7245:7308   */\n    tag_150:\n        /* \"#utility.yul\":7192:7314   */\n      pop\n      jump\t// out\n\n    auxdata: 0xa2646970667358221220fe13d3d462204e9b0e85f6b5e8b9aff42e125d89549048ea6e836f7fbc3b623e64736f6c63430008070033\n}\n",
				"bytecode": {
					"linkReferences": {},
					"object": "608060405234801561001057600080fd5b5061069a806100206000396000f3fe608060405234801561001057600080fd5b506004361061004c5760003560e01c806311149ada14610051578063a406c4b014610081578063e1c7392a1461009d578063edd3159d146100a7575b600080fd5b61006b6004803603810190610066919061030b565b6100c5565b6040516100789190610412565b60405180910390f35b61009b60048036038101906100969190610338565b6101a3565b005b6100a56101d5565b005b6100af6101d7565b6040516100bc9190610454565b60405180910390f35b6060600060010154821461010e576040517f08c379a000000000000000000000000000000000000000000000000000000000815260040161010590610434565b60405180910390fd5b6000600201805461011e9061053e565b80601f016020809104026020016040519081016040528092919081815260200182805461014a9061053e565b80156101975780601f1061016c57610100808354040283529160200191610197565b820191906000526020600020905b81548152906001019060200180831161017a57829003601f168201915b50505050509050919050565b81600060020190805190602001906101bc9291906101e3565b5080600060010181905550826000800181905550505050565b565b60008060000154905090565b8280546101ef9061053e565b90600052602060002090601f0160209004810192826102115760008555610258565b82601f1061022a57805160ff1916838001178555610258565b82800160010185558215610258579182015b8281111561025757825182559160200191906001019061023c565b5b5090506102659190610269565b5090565b5b8082111561028257600081600090555060010161026a565b5090565b600061029961029484610494565b61046f565b9050828152602081018484840111156102b5576102b4610604565b5b6102c08482856104fc565b509392505050565b600082601f8301126102dd576102dc6105ff565b5b81356102ed848260208601610286565b91505092915050565b6000813590506103058161064d565b92915050565b6000602082840312156103215761032061060e565b5b600061032f848285016102f6565b91505092915050565b6000806000606084860312156103515761035061060e565b5b600061035f868287016102f6565b935050602084013567ffffffffffffffff8111156103805761037f610609565b5b61038c868287016102c8565b925050604061039d868287016102f6565b9150509250925092565b60006103b2826104c5565b6103bc81856104d0565b93506103cc81856020860161050b565b6103d581610613565b840191505092915050565b60006103ed6014836104e1565b91506103f882610624565b602082019050919050565b61040c816104f2565b82525050565b6000602082019050818103600083015261042c81846103a7565b905092915050565b6000602082019050818103600083015261044d816103e0565b9050919050565b60006020820190506104696000830184610403565b92915050565b600061047961048a565b90506104858282610570565b919050565b6000604051905090565b600067ffffffffffffffff8211156104af576104ae6105d0565b5b6104b882610613565b9050602081019050919050565b600081519050919050565b600082825260208201905092915050565b600082825260208201905092915050565b6000819050919050565b82818337600083830152505050565b60005b8381101561052957808201518184015260208101905061050e565b83811115610538576000848401525b50505050565b6000600282049050600182168061055657607f821691505b6020821081141561056a576105696105a1565b5b50919050565b61057982610613565b810181811067ffffffffffffffff82111715610598576105976105d0565b5b80604052505050565b7f4e487b7100000000000000000000000000000000000000000000000000000000600052602260045260246000fd5b7f4e487b7100000000000000000000000000000000000000000000000000000000600052604160045260246000fd5b600080fd5b600080fd5b600080fd5b600080fd5b6000601f19601f8301169050919050565b7f206e6f7420666f756e6420626c6f636b206e756d000000000000000000000000600082015250565b610656816104f2565b811461066157600080fd5b5056fea2646970667358221220fe13d3d462204e9b0e85f6b5e8b9aff42e125d89549048ea6e836f7fbc3b623e64736f6c63430008070033",
					"opcodes": "PUSH1 0x80 PUSH1 0x40 MSTORE CALLVALUE DUP1 ISZERO PUSH2 0x10 JUMPI PUSH1 0x0 DUP1 REVERT JUMPDEST POP PUSH2 0x69A DUP1 PUSH2 0x20 PUSH1 0x0 CODECOPY PUSH1 0x0 RETURN INVALID PUSH1 0x80 PUSH1 0x40 MSTORE CALLVALUE DUP1 ISZERO PUSH2 0x10 JUMPI PUSH1 0x0 DUP1 REVERT JUMPDEST POP PUSH1 0x4 CALLDATASIZE LT PUSH2 0x4C JUMPI PUSH1 0x0 CALLDATALOAD PUSH1 0xE0 SHR DUP1 PUSH4 0x11149ADA EQ PUSH2 0x51 JUMPI DUP1 PUSH4 0xA406C4B0 EQ PUSH2 0x81 JUMPI DUP1 PUSH4 0xE1C7392A EQ PUSH2 0x9D JUMPI DUP1 PUSH4 0xEDD3159D EQ PUSH2 0xA7 JUMPI JUMPDEST PUSH1 0x0 DUP1 REVERT JUMPDEST PUSH2 0x6B PUSH1 0x4 DUP1 CALLDATASIZE SUB DUP2 ADD SWAP1 PUSH2 0x66 SWAP2 SWAP1 PUSH2 0x30B JUMP JUMPDEST PUSH2 0xC5 JUMP JUMPDEST PUSH1 0x40 MLOAD PUSH2 0x78 SWAP2 SWAP1 PUSH2 0x412 JUMP JUMPDEST PUSH1 0x40 MLOAD DUP1 SWAP2 SUB SWAP1 RETURN JUMPDEST PUSH2 0x9B PUSH1 0x4 DUP1 CALLDATASIZE SUB DUP2 ADD SWAP1 PUSH2 0x96 SWAP2 SWAP1 PUSH2 0x338 JUMP JUMPDEST PUSH2 0x1A3 JUMP JUMPDEST STOP JUMPDEST PUSH2 0xA5 PUSH2 0x1D5 JUMP JUMPDEST STOP JUMPDEST PUSH2 0xAF PUSH2 0x1D7 JUMP JUMPDEST PUSH1 0x40 MLOAD PUSH2 0xBC SWAP2 SWAP1 PUSH2 0x454 JUMP JUMPDEST PUSH1 0x40 MLOAD DUP1 SWAP2 SUB SWAP1 RETURN JUMPDEST PUSH1 0x60 PUSH1 0x0 PUSH1 0x1 ADD SLOAD DUP3 EQ PUSH2 0x10E JUMPI PUSH1 0x40 MLOAD PUSH32 0x8C379A000000000000000000000000000000000000000000000000000000000 DUP2 MSTORE PUSH1 0x4 ADD PUSH2 0x105 SWAP1 PUSH2 0x434 JUMP JUMPDEST PUSH1 0x40 MLOAD DUP1 SWAP2 SUB SWAP1 REVERT JUMPDEST PUSH1 0x0 PUSH1 0x2 ADD DUP1 SLOAD PUSH2 0x11E SWAP1 PUSH2 0x53E JUMP JUMPDEST DUP1 PUSH1 0x1F ADD PUSH1 0x20 DUP1 SWAP2 DIV MUL PUSH1 0x20 ADD PUSH1 0x40 MLOAD SWAP1 DUP2 ADD PUSH1 0x40 MSTORE DUP1 SWAP3 SWAP2 SWAP1 DUP2 DUP2 MSTORE PUSH1 0x20 ADD DUP3 DUP1 SLOAD PUSH2 0x14A SWAP1 PUSH2 0x53E JUMP JUMPDEST DUP1 ISZERO PUSH2 0x197 JUMPI DUP1 PUSH1 0x1F LT PUSH2 0x16C JUMPI PUSH2 0x100 DUP1 DUP4 SLOAD DIV MUL DUP4 MSTORE SWAP2 PUSH1 0x20 ADD SWAP2 PUSH2 0x197 JUMP JUMPDEST DUP3 ADD SWAP2 SWAP1 PUSH1 0x0 MSTORE PUSH1 0x20 PUSH1 0x0 KECCAK256 SWAP1 JUMPDEST DUP2 SLOAD DUP2 MSTORE SWAP1 PUSH1 0x1 ADD SWAP1 PUSH1 0x20 ADD DUP1 DUP4 GT PUSH2 0x17A JUMPI DUP3 SWAP1 SUB PUSH1 0x1F AND DUP3 ADD SWAP2 JUMPDEST POP POP POP POP POP SWAP1 POP SWAP2 SWAP1 POP JUMP JUMPDEST DUP2 PUSH1 0x0 PUSH1 0x2 ADD SWAP1 DUP1 MLOAD SWAP1 PUSH1 0x20 ADD SWAP1 PUSH2 0x1BC SWAP3 SWAP2 SWAP1 PUSH2 0x1E3 JUMP JUMPDEST POP DUP1 PUSH1 0x0 PUSH1 0x1 ADD DUP2 SWAP1 SSTORE POP DUP3 PUSH1 0x0 DUP1 ADD DUP2 SWAP1 SSTORE POP POP POP POP JUMP JUMPDEST JUMP JUMPDEST PUSH1 0x0 DUP1 PUSH1 0x0 ADD SLOAD SWAP1 POP SWAP1 JUMP JUMPDEST DUP3 DUP1 SLOAD PUSH2 0x1EF SWAP1 PUSH2 0x53E JUMP JUMPDEST SWAP1 PUSH1 0x0 MSTORE PUSH1 0x20 PUSH1 0x0 KECCAK256 SWAP1 PUSH1 0x1F ADD PUSH1 0x20 SWAP1 DIV DUP2 ADD SWAP3 DUP3 PUSH2 0x211 JUMPI PUSH1 0x0 DUP6 SSTORE PUSH2 0x258 JUMP JUMPDEST DUP3 PUSH1 0x1F LT PUSH2 0x22A JUMPI DUP1 MLOAD PUSH1 0xFF NOT AND DUP4 DUP1 ADD OR DUP6 SSTORE PUSH2 0x258 JUMP JUMPDEST DUP3 DUP1 ADD PUSH1 0x1 ADD DUP6 SSTORE DUP3 ISZERO PUSH2 0x258 JUMPI SWAP2 DUP3 ADD JUMPDEST DUP3 DUP2 GT ISZERO PUSH2 0x257 JUMPI DUP3 MLOAD DUP3 SSTORE SWAP2 PUSH1 0x20 ADD SWAP2 SWAP1 PUSH1 0x1 ADD SWAP1 PUSH2 0x23C JUMP JUMPDEST JUMPDEST POP SWAP1 POP PUSH2 0x265 SWAP2 SWAP1 PUSH2 0x269 JUMP JUMPDEST POP SWAP1 JUMP JUMPDEST JUMPDEST DUP1 DUP3 GT ISZERO PUSH2 0x282 JUMPI PUSH1 0x0 DUP2 PUSH1 0x0 SWAP1 SSTORE POP PUSH1 0x1 ADD PUSH2 0x26A JUMP JUMPDEST POP SWAP1 JUMP JUMPDEST PUSH1 0x0 PUSH2 0x299 PUSH2 0x294 DUP5 PUSH2 0x494 JUMP JUMPDEST PUSH2 0x46F JUMP JUMPDEST SWAP1 POP DUP3 DUP2 MSTORE PUSH1 0x20 DUP2 ADD DUP5 DUP5 DUP5 ADD GT ISZERO PUSH2 0x2B5 JUMPI PUSH2 0x2B4 PUSH2 0x604 JUMP JUMPDEST JUMPDEST PUSH2 0x2C0 DUP5 DUP3 DUP6 PUSH2 0x4FC JUMP JUMPDEST POP SWAP4 SWAP3 POP POP POP JUMP JUMPDEST PUSH1 0x0 DUP3 PUSH1 0x1F DUP4 ADD SLT PUSH2 0x2DD JUMPI PUSH2 0x2DC PUSH2 0x5FF JUMP JUMPDEST JUMPDEST DUP2 CALLDATALOAD PUSH2 0x2ED DUP5 DUP3 PUSH1 0x20 DUP7 ADD PUSH2 0x286 JUMP JUMPDEST SWAP2 POP POP SWAP3 SWAP2 POP POP JUMP JUMPDEST PUSH1 0x0 DUP2 CALLDATALOAD SWAP1 POP PUSH2 0x305 DUP2 PUSH2 0x64D JUMP JUMPDEST SWAP3 SWAP2 POP POP JUMP JUMPDEST PUSH1 0x0 PUSH1 0x20 DUP3 DUP5 SUB SLT ISZERO PUSH2 0x321 JUMPI PUSH2 0x320 PUSH2 0x60E JUMP JUMPDEST JUMPDEST PUSH1 0x0 PUSH2 0x32F DUP5 DUP3 DUP6 ADD PUSH2 0x2F6 JUMP JUMPDEST SWAP2 POP POP SWAP3 SWAP2 POP POP JUMP JUMPDEST PUSH1 0x0 DUP1 PUSH1 0x0 PUSH1 0x60 DUP5 DUP7 SUB SLT ISZERO PUSH2 0x351 JUMPI PUSH2 0x350 PUSH2 0x60E JUMP JUMPDEST JUMPDEST PUSH1 0x0 PUSH2 0x35F DUP7 DUP3 DUP8 ADD PUSH2 0x2F6 JUMP JUMPDEST SWAP4 POP POP PUSH1 0x20 DUP5 ADD CALLDATALOAD PUSH8 0xFFFFFFFFFFFFFFFF DUP2 GT ISZERO PUSH2 0x380 JUMPI PUSH2 0x37F PUSH2 0x609 JUMP JUMPDEST JUMPDEST PUSH2 0x38C DUP7 DUP3 DUP8 ADD PUSH2 0x2C8 JUMP JUMPDEST SWAP3 POP POP PUSH1 0x40 PUSH2 0x39D DUP7 DUP3 DUP8 ADD PUSH2 0x2F6 JUMP JUMPDEST SWAP2 POP POP SWAP3 POP SWAP3 POP SWAP3 JUMP JUMPDEST PUSH1 0x0 PUSH2 0x3B2 DUP3 PUSH2 0x4C5 JUMP JUMPDEST PUSH2 0x3BC DUP2 DUP6 PUSH2 0x4D0 JUMP JUMPDEST SWAP4 POP PUSH2 0x3CC DUP2 DUP6 PUSH1 0x20 DUP7 ADD PUSH2 0x50B JUMP JUMPDEST PUSH2 0x3D5 DUP2 PUSH2 0x613 JUMP JUMPDEST DUP5 ADD SWAP2 POP POP SWAP3 SWAP2 POP POP JUMP JUMPDEST PUSH1 0x0 PUSH2 0x3ED PUSH1 0x14 DUP4 PUSH2 0x4E1 JUMP JUMPDEST SWAP2 POP PUSH2 0x3F8 DUP3 PUSH2 0x624 JUMP JUMPDEST PUSH1 0x20 DUP3 ADD SWAP1 POP SWAP2 SWAP1 POP JUMP JUMPDEST PUSH2 0x40C DUP2 PUSH2 0x4F2 JUMP JUMPDEST DUP3 MSTORE POP POP JUMP JUMPDEST PUSH1 0x0 PUSH1 0x20 DUP3 ADD SWAP1 POP DUP2 DUP2 SUB PUSH1 0x0 DUP4 ADD MSTORE PUSH2 0x42C DUP2 DUP5 PUSH2 0x3A7 JUMP JUMPDEST SWAP1 POP SWAP3 SWAP2 POP POP JUMP JUMPDEST PUSH1 0x0 PUSH1 0x20 DUP3 ADD SWAP1 POP DUP2 DUP2 SUB PUSH1 0x0 DUP4 ADD MSTORE PUSH2 0x44D DUP2 PUSH2 0x3E0 JUMP JUMPDEST SWAP1 POP SWAP2 SWAP1 POP JUMP JUMPDEST PUSH1 0x0 PUSH1 0x20 DUP3 ADD SWAP1 POP PUSH2 0x469 PUSH1 0x0 DUP4 ADD DUP5 PUSH2 0x403 JUMP JUMPDEST SWAP3 SWAP2 POP POP JUMP JUMPDEST PUSH1 0x0 PUSH2 0x479 PUSH2 0x48A JUMP JUMPDEST SWAP1 POP PUSH2 0x485 DUP3 DUP3 PUSH2 0x570 JUMP JUMPDEST SWAP2 SWAP1 POP JUMP JUMPDEST PUSH1 0x0 PUSH1 0x40 MLOAD SWAP1 POP SWAP1 JUMP JUMPDEST PUSH1 0x0 PUSH8 0xFFFFFFFFFFFFFFFF DUP3 GT ISZERO PUSH2 0x4AF JUMPI PUSH2 0x4AE PUSH2 0x5D0 JUMP JUMPDEST JUMPDEST PUSH2 0x4B8 DUP3 PUSH2 0x613 JUMP JUMPDEST SWAP1 POP PUSH1 0x20 DUP2 ADD SWAP1 POP SWAP2 SWAP1 POP JUMP JUMPDEST PUSH1 0x0 DUP2 MLOAD SWAP1 POP SWAP2 SWAP1 POP JUMP JUMPDEST PUSH1 0x0 DUP3 DUP3 MSTORE PUSH1 0x20 DUP3 ADD SWAP1 POP SWAP3 SWAP2 POP POP JUMP JUMPDEST PUSH1 0x0 DUP3 DUP3 MSTORE PUSH1 0x20 DUP3 ADD SWAP1 POP SWAP3 SWAP2 POP POP JUMP JUMPDEST PUSH1 0x0 DUP2 SWAP1 POP SWAP2 SWAP1 POP JUMP JUMPDEST DUP3 DUP2 DUP4 CALLDATACOPY PUSH1 0x0 DUP4 DUP4 ADD MSTORE POP POP POP JUMP JUMPDEST PUSH1 0x0 JUMPDEST DUP4 DUP2 LT ISZERO PUSH2 0x529 JUMPI DUP1 DUP3 ADD MLOAD DUP2 DUP5 ADD MSTORE PUSH1 0x20 DUP2 ADD SWAP1 POP PUSH2 0x50E JUMP JUMPDEST DUP4 DUP2 GT ISZERO PUSH2 0x538 JUMPI PUSH1 0x0 DUP5 DUP5 ADD MSTORE JUMPDEST POP POP POP POP JUMP JUMPDEST PUSH1 0x0 PUSH1 0x2 DUP3 DIV SWAP1 POP PUSH1 0x1 DUP3 AND DUP1 PUSH2 0x556 JUMPI PUSH1 0x7F DUP3 AND SWAP2 POP JUMPDEST PUSH1 0x20 DUP3 LT DUP2 EQ ISZERO PUSH2 0x56A JUMPI PUSH2 0x569 PUSH2 0x5A1 JUMP JUMPDEST JUMPDEST POP SWAP2 SWAP1 POP JUMP JUMPDEST PUSH2 0x579 DUP3 PUSH2 0x613 JUMP JUMPDEST DUP2 ADD DUP2 DUP2 LT PUSH8 0xFFFFFFFFFFFFFFFF DUP3 GT OR ISZERO PUSH2 0x598 JUMPI PUSH2 0x597 PUSH2 0x5D0 JUMP JUMPDEST JUMPDEST DUP1 PUSH1 0x40 MSTORE POP POP POP JUMP JUMPDEST PUSH32 0x4E487B7100000000000000000000000000000000000000000000000000000000 PUSH1 0x0 MSTORE PUSH1 0x22 PUSH1 0x4 MSTORE PUSH1 0x24 PUSH1 0x0 REVERT JUMPDEST PUSH32 0x4E487B7100000000000000000000000000000000000000000000000000000000 PUSH1 0x0 MSTORE PUSH1 0x41 PUSH1 0x4 MSTORE PUSH1 0x24 PUSH1 0x0 REVERT JUMPDEST PUSH1 0x0 DUP1 REVERT JUMPDEST PUSH1 0x0 DUP1 REVERT JUMPDEST PUSH1 0x0 DUP1 REVERT JUMPDEST PUSH1 0x0 DUP1 REVERT JUMPDEST PUSH1 0x0 PUSH1 0x1F NOT PUSH1 0x1F DUP4 ADD AND SWAP1 POP SWAP2 SWAP1 POP JUMP JUMPDEST PUSH32 0x206E6F7420666F756E6420626C6F636B206E756D000000000000000000000000 PUSH1 0x0 DUP3 ADD MSTORE POP JUMP JUMPDEST PUSH2 0x656 DUP2 PUSH2 0x4F2 JUMP JUMPDEST DUP2 EQ PUSH2 0x661 JUMPI PUSH1 0x0 DUP1 REVERT JUMPDEST POP JUMP INVALID LOG2 PUSH5 0x6970667358 0x22 SLT KECCAK256 INVALID SGT 0xD3 0xD4 PUSH3 0x204E9B 0xE DUP6 0xF6 0xB5 0xE8 0xB9 0xAF DELEGATECALL 0x2E SLT 0x5D DUP10 SLOAD SWAP1 BASEFEE 0xEA PUSH15 0x836F7FBC3B623E64736F6C63430008 SMOD STOP CALLER "
				},
				"gasEstimates": {
					"creation": {
						"codeDepositCost": "338000",
						"executionCost": "374",
						"totalCost": "338374"
					},
					"external": {
						"getProof(uint256)": "infinite",
						"getVRF()": "2487",
						"init()": "166",
						"setVRF(uint256,bytes,uint256)": "infinite"
					}
				},
				"methodIdentifiers": {
					"getProof(uint256)": "11149ada",
					"getVRF()": "edd3159d",
					"init()": "e1c7392a",
					"setVRF(uint256,bytes,uint256)": "a406c4b0"
				}
			},
			"storageLayout": {
				"storage": [
					{
						"astId": 720,
						"contract": "dev/functions/selector.sol:Selector",
						"label": "_lastVrfInfo",
						"offset": 0,
						"slot": "0",
						"type": "t_struct(LastVRFInfo)717_storage"
					},
					{
						"astId": 724,
						"contract": "dev/functions/selector.sol:Selector",
						"label": "generators",
						"offset": 0,
						"slot": "3",
						"type": "t_mapping(t_address,t_bool)"
					}
				],
				"types": {
					"t_address": {
						"encoding": "inplace",
						"label": "address",
						"numberOfBytes": "20"
					},
					"t_bool": {
						"encoding": "inplace",
						"label": "bool",
						"numberOfBytes": "1"
					},
					"t_bytes_storage": {
						"encoding": "bytes",
						"label": "bytes",
						"numberOfBytes": "32"
					},
					"t_mapping(t_address,t_bool)": {
						"encoding": "mapping",
						"key": "t_address",
						"label": "mapping(address => bool)",
						"numberOfBytes": "32",
						"value": "t_bool"
					},
					"t_struct(LastVRFInfo)717_storage": {
						"encoding": "inplace",
						"label": "struct Selector.LastVRFInfo",
						"members": [
							{
								"astId": 712,
								"contract": "dev/functions/selector.sol:Selector",
								"label": "vrf",
								"offset": 0,
								"slot": "0",
								"type": "t_uint256"
							},
							{
								"astId": 714,
								"contract": "dev/functions/selector.sol:Selector",
								"label": "blockNum",
								"offset": 0,
								"slot": "1",
								"type": "t_uint256"
							},
							{
								"astId": 716,
								"contract": "dev/functions/selector.sol:Selector",
								"label": "proof",
								"offset": 0,
								"slot": "2",
								"type": "t_bytes_storage"
							}
						],
						"numberOfBytes": "96"
					},
					"t_uint256": {
						"encoding": "inplace",
						"label": "uint256",
						"numberOfBytes": "32"
					}
				}
			},
			"userdoc": {
				"kind": "user",
				"methods": {},
				"version": 1
			}
		}
	}
}