{
	"data": {
		"bytecode": {
			"linkReferences": {},
			"object": "608060405234801561001057600080fd5b506103e5806100206000396000f3fe608060405234801561001057600080fd5b506004361061002b5760003560e01c806328242b0414610030575b600080fd5b61004a60048036038101906100459190610192565b610060565b60405161005791906102bc565b60405180910390f35b60008084849050141561009e576040517ec1cfc000000000000000000000000000000000000000000000000000000000815260040160405180910390fd5b60007f31323334353600000000000000000000000000000000000000000000000000009050807fa1ec73989d79578cd6f67d4f593ac3e0a4d1020e5c0164db52108d7ff785406c33328960008a8a6040516100fe96959493929190610260565b60405180910390a280915050949350505050565b60008083601f8401126101285761012761035c565b5b8235905067ffffffffffffffff81111561014557610144610357565b5b60208301915083600182028301111561016157610160610361565b5b9250929050565b60008135905061017781610381565b92915050565b60008135905061018c81610398565b92915050565b600080600080606085870312156101ac576101ab61036b565b5b60006101ba8782880161017d565b945050602085013567ffffffffffffffff8111156101db576101da610366565b5b6101e787828801610112565b935093505060406101fa87828801610168565b91505092959194509250565b61020f816102e8565b82525050565b61021e816102fa565b82525050565b600061023083856102d7565b935061023d838584610348565b61024683610370565b840190509392505050565b61025a81610334565b82525050565b600060a0820190506102756000830189610206565b6102826020830188610206565b61028f6040830187610251565b61029c6060830186610206565b81810360808301526102af818486610224565b9050979650505050505050565b60006020820190506102d16000830184610215565b92915050565b600082825260208201905092915050565b60006102f382610304565b9050919050565b6000819050919050565b600073ffffffffffffffffffffffffffffffffffffffff82169050919050565b600063ffffffff82169050919050565b600067ffffffffffffffff82169050919050565b82818337600083830152505050565b600080fd5b600080fd5b600080fd5b600080fd5b600080fd5b6000601f19601f8301169050919050565b61038a81610324565b811461039557600080fd5b50565b6103a181610334565b81146103ac57600080fd5b5056fea2646970667358221220bbfa0e2b36fd1664ac99b07fd650643fb57eb86654cd0eb1c87c340688282a3564736f6c63430008060033",
			"opcodes": "PUSH1 0x80 PUSH1 0x40 MSTORE CALLVALUE DUP1 ISZERO PUSH2 0x10 JUMPI PUSH1 0x0 DUP1 REVERT JUMPDEST POP PUSH2 0x3E5 DUP1 PUSH2 0x20 PUSH1 0x0 CODECOPY PUSH1 0x0 RETURN INVALID PUSH1 0x80 PUSH1 0x40 MSTORE CALLVALUE DUP1 ISZERO PUSH2 0x10 JUMPI PUSH1 0x0 DUP1 REVERT JUMPDEST POP PUSH1 0x4 CALLDATASIZE LT PUSH2 0x2B JUMPI PUSH1 0x0 CALLDATALOAD PUSH1 0xE0 SHR DUP1 PUSH4 0x28242B04 EQ PUSH2 0x30 JUMPI JUMPDEST PUSH1 0x0 DUP1 REVERT JUMPDEST PUSH2 0x4A PUSH1 0x4 DUP1 CALLDATASIZE SUB DUP2 ADD SWAP1 PUSH2 0x45 SWAP2 SWAP1 PUSH2 0x192 JUMP JUMPDEST PUSH2 0x60 JUMP JUMPDEST PUSH1 0x40 MLOAD PUSH2 0x57 SWAP2 SWAP1 PUSH2 0x2BC JUMP JUMPDEST PUSH1 0x40 MLOAD DUP1 SWAP2 SUB SWAP1 RETURN JUMPDEST PUSH1 0x0 DUP1 DUP5 DUP5 SWAP1 POP EQ ISZERO PUSH2 0x9E JUMPI PUSH1 0x40 MLOAD PUSH31 0xC1CFC000000000000000000000000000000000000000000000000000000000 DUP2 MSTORE PUSH1 0x4 ADD PUSH1 0x40 MLOAD DUP1 SWAP2 SUB SWAP1 REVERT JUMPDEST PUSH1 0x0 PUSH32 0x3132333435360000000000000000000000000000000000000000000000000000 SWAP1 POP DUP1 PUSH32 0xA1EC73989D79578CD6F67D4F593AC3E0A4D1020E5C0164DB52108D7FF785406C CALLER ORIGIN DUP10 PUSH1 0x0 DUP11 DUP11 PUSH1 0x40 MLOAD PUSH2 0xFE SWAP7 SWAP6 SWAP5 SWAP4 SWAP3 SWAP2 SWAP1 PUSH2 0x260 JUMP JUMPDEST PUSH1 0x40 MLOAD DUP1 SWAP2 SUB SWAP1 LOG2 DUP1 SWAP2 POP POP SWAP5 SWAP4 POP POP POP POP JUMP JUMPDEST PUSH1 0x0 DUP1 DUP4 PUSH1 0x1F DUP5 ADD SLT PUSH2 0x128 JUMPI PUSH2 0x127 PUSH2 0x35C JUMP JUMPDEST JUMPDEST DUP3 CALLDATALOAD SWAP1 POP PUSH8 0xFFFFFFFFFFFFFFFF DUP2 GT ISZERO PUSH2 0x145 JUMPI PUSH2 0x144 PUSH2 0x357 JUMP JUMPDEST JUMPDEST PUSH1 0x20 DUP4 ADD SWAP2 POP DUP4 PUSH1 0x1 DUP3 MUL DUP4 ADD GT ISZERO PUSH2 0x161 JUMPI PUSH2 0x160 PUSH2 0x361 JUMP JUMPDEST JUMPDEST SWAP3 POP SWAP3 SWAP1 POP JUMP JUMPDEST PUSH1 0x0 DUP2 CALLDATALOAD SWAP1 POP PUSH2 0x177 DUP2 PUSH2 0x381 JUMP JUMPDEST SWAP3 SWAP2 POP POP JUMP JUMPDEST PUSH1 0x0 DUP2 CALLDATALOAD SWAP1 POP PUSH2 0x18C DUP2 PUSH2 0x398 JUMP JUMPDEST SWAP3 SWAP2 POP POP JUMP JUMPDEST PUSH1 0x0 DUP1 PUSH1 0x0 DUP1 PUSH1 0x60 DUP6 DUP8 SUB SLT ISZERO PUSH2 0x1AC JUMPI PUSH2 0x1AB PUSH2 0x36B JUMP JUMPDEST JUMPDEST PUSH1 0x0 PUSH2 0x1BA DUP8 DUP3 DUP9 ADD PUSH2 0x17D JUMP JUMPDEST SWAP5 POP POP PUSH1 0x20 DUP6 ADD CALLDATALOAD PUSH8 0xFFFFFFFFFFFFFFFF DUP2 GT ISZERO PUSH2 0x1DB JUMPI PUSH2 0x1DA PUSH2 0x366 JUMP JUMPDEST JUMPDEST PUSH2 0x1E7 DUP8 DUP3 DUP9 ADD PUSH2 0x112 JUMP JUMPDEST SWAP4 POP SWAP4 POP POP PUSH1 0x40 PUSH2 0x1FA DUP8 DUP3 DUP9 ADD PUSH2 0x168 JUMP JUMPDEST SWAP2 POP POP SWAP3 SWAP6 SWAP2 SWAP5 POP SWAP3 POP JUMP JUMPDEST PUSH2 0x20F DUP2 PUSH2 0x2E8 JUMP JUMPDEST DUP3 MSTORE POP POP JUMP JUMPDEST PUSH2 0x21E DUP2 PUSH2 0x2FA JUMP JUMPDEST DUP3 MSTORE POP POP JUMP JUMPDEST PUSH1 0x0 PUSH2 0x230 DUP4 DUP6 PUSH2 0x2D7 JUMP JUMPDEST SWAP4 POP PUSH2 0x23D DUP4 DUP6 DUP5 PUSH2 0x348 JUMP JUMPDEST PUSH2 0x246 DUP4 PUSH2 0x370 JUMP JUMPDEST DUP5 ADD SWAP1 POP SWAP4 SWAP3 POP POP POP JUMP JUMPDEST PUSH2 0x25A DUP2 PUSH2 0x334 JUMP JUMPDEST DUP3 MSTORE POP POP JUMP JUMPDEST PUSH1 0x0 PUSH1 0xA0 DUP3 ADD SWAP1 POP PUSH2 0x275 PUSH1 0x0 DUP4 ADD DUP10 PUSH2 0x206 JUMP JUMPDEST PUSH2 0x282 PUSH1 0x20 DUP4 ADD DUP9 PUSH2 0x206 JUMP JUMPDEST PUSH2 0x28F PUSH1 0x40 DUP4 ADD DUP8 PUSH2 0x251 JUMP JUMPDEST PUSH2 0x29C PUSH1 0x60 DUP4 ADD DUP7 PUSH2 0x206 JUMP JUMPDEST DUP2 DUP2 SUB PUSH1 0x80 DUP4 ADD MSTORE PUSH2 0x2AF DUP2 DUP5 DUP7 PUSH2 0x224 JUMP JUMPDEST SWAP1 POP SWAP8 SWAP7 POP POP POP POP POP POP POP JUMP JUMPDEST PUSH1 0x0 PUSH1 0x20 DUP3 ADD SWAP1 POP PUSH2 0x2D1 PUSH1 0x0 DUP4 ADD DUP5 PUSH2 0x215 JUMP JUMPDEST SWAP3 SWAP2 POP POP JUMP JUMPDEST PUSH1 0x0 DUP3 DUP3 MSTORE PUSH1 0x20 DUP3 ADD SWAP1 POP SWAP3 SWAP2 POP POP JUMP JUMPDEST PUSH1 0x0 PUSH2 0x2F3 DUP3 PUSH2 0x304 JUMP JUMPDEST SWAP1 POP SWAP2 SWAP1 POP JUMP JUMPDEST PUSH1 0x0 DUP2 SWAP1 POP SWAP2 SWAP1 POP JUMP JUMPDEST PUSH1 0x0 PUSH20 0xFFFFFFFFFFFFFFFFFFFFFFFFFFFFFFFFFFFFFFFF DUP3 AND SWAP1 POP SWAP2 SWAP1 POP JUMP JUMPDEST PUSH1 0x0 PUSH4 0xFFFFFFFF DUP3 AND SWAP1 POP SWAP2 SWAP1 POP JUMP JUMPDEST PUSH1 0x0 PUSH8 0xFFFFFFFFFFFFFFFF DUP3 AND SWAP1 POP SWAP2 SWAP1 POP JUMP JUMPDEST DUP3 DUP2 DUP4 CALLDATACOPY PUSH1 0x0 DUP4 DUP4 ADD MSTORE POP POP POP JUMP JUMPDEST PUSH1 0x0 DUP1 REVERT JUMPDEST PUSH1 0x0 DUP1 REVERT JUMPDEST PUSH1 0x0 DUP1 REVERT JUMPDEST PUSH1 0x0 DUP1 REVERT JUMPDEST PUSH1 0x0 DUP1 REVERT JUMPDEST PUSH1 0x0 PUSH1 0x1F NOT PUSH1 0x1F DUP4 ADD AND SWAP1 POP SWAP2 SWAP1 POP JUMP JUMPDEST PUSH2 0x38A DUP2 PUSH2 0x324 JUMP JUMPDEST DUP2 EQ PUSH2 0x395 JUMPI PUSH1 0x0 DUP1 REVERT JUMPDEST POP JUMP JUMPDEST PUSH2 0x3A1 DUP2 PUSH2 0x334 JUMP JUMPDEST DUP2 EQ PUSH2 0x3AC JUMPI PUSH1 0x0 DUP1 REVERT JUMPDEST POP JUMP INVALID LOG2 PUSH5 0x6970667358 0x22 SLT KECCAK256 0xBB STATICCALL 0xE 0x2B CALLDATASIZE REVERT AND PUSH5 0xAC99B07FD6 POP PUSH5 0x3FB57EB866 SLOAD 0xCD 0xE 0xB1 0xC8 PUSH29 0x340688282A3564736F6C63430008060033000000000000000000000000 "
		},
		"gasEstimates": {
			"creation": {
				"codeDepositCost": "199400",
				"executionCost": "245",
				"totalCost": "199645"
			},
			"external": {
				"sendRequest(uint64,bytes,uint32)": "infinite"
			}
		},
		"methodIdentifiers": {
			"sendRequest(uint64,bytes,uint32)": "28242b04"
		}
	},
	"abi": [
		{
			"inputs": [],
			"name": "EmptyBillingRegistry",
			"type": "error"
		},
		{
			"inputs": [],
			"name": "EmptyPublicKey",
			"type": "error"
		},
		{
			"inputs": [],
			"name": "EmptyRequestData",
			"type": "error"
		},
		{
			"inputs": [],
			"name": "InconsistentReportData",
			"type": "error"
		},
		{
			"inputs": [],
			"name": "UnauthorizedPublicKeyChange",
			"type": "error"
		},
		{
			"anonymous": false,
			"inputs": [
				{
					"indexed": true,
					"internalType": "bytes32",
					"name": "requestId",
					"type": "bytes32"
				}
			],
			"name": "InvalidRequestID",
			"type": "event"
		},
		{
			"anonymous": false,
			"inputs": [
				{
					"indexed": true,
					"internalType": "bytes32",
					"name": "requestId",
					"type": "bytes32"
				},
				{
					"indexed": false,
					"internalType": "address",
					"name": "requestingContract",
					"type": "address"
				},
				{
					"indexed": false,
					"internalType": "address",
					"name": "requestInitiator",
					"type": "address"
				},
				{
					"indexed": false,
					"internalType": "uint64",
					"name": "subscriptionId",
					"type": "uint64"
				},
				{
					"indexed": false,
					"internalType": "address",
					"name": "subscriptionOwner",
					"type": "address"
				},
				{
					"indexed": false,
					"internalType": "bytes",
					"name": "data",
					"type": "bytes"
				}
			],
			"name": "OracleRequest",
			"type": "event"
		},
		{
			"anonymous": false,
			"inputs": [
				{
					"indexed": true,
					"internalType": "bytes32",
					"name": "requestId",
					"type": "bytes32"
				}
			],
			"name": "OracleResponse",
			"type": "event"
		},
		{
			"anonymous": false,
			"inputs": [
				{
					"indexed": true,
					"internalType": "bytes32",
					"name": "requestId",
					"type": "bytes32"
				},
				{
					"indexed": false,
					"internalType": "string",
					"name": "reason",
					"type": "string"
				}
			],
			"name": "UserCallbackError",
			"type": "event"
		},
		{
			"anonymous": false,
			"inputs": [
				{
					"indexed": true,
					"internalType": "bytes32",
					"name": "requestId",
					"type": "bytes32"
				},
				{
					"indexed": false,
					"internalType": "bytes",
					"name": "lowLevelData",
					"type": "bytes"
				}
			],
			"name": "UserCallbackRawError",
			"type": "event"
		},
		{
			"inputs": [
				{
					"internalType": "uint64",
					"name": "subscriptionId",
					"type": "uint64"
				},
				{
					"internalType": "bytes",
					"name": "data",
					"type": "bytes"
				},
				{
					"internalType": "uint32",
					"name": "gasLimit",
					"type": "uint32"
				}
			],
			"name": "sendRequest",
			"outputs": [
				{
					"internalType": "bytes32",
					"name": "",
					"type": "bytes32"
				}
			],
			"stateMutability": "nonpayable",
			"type": "function"
		}
	]
}