{
	"data": {
		"bytecode": {
			"linkReferences": {},
			"object": "608060405234801561001057600080fd5b5061226b806100206000396000f3fe608060405234801561001057600080fd5b50600436106100885760003560e01c806386f028421161005b57806386f028421461013b578063c51f0db514610159578063e1c7392a14610189578063f215f51d1461019357610088565b8063041dae331461008d57806326e696cf146100bd5780634b602282146100ed5780637fc101be1461010b575b600080fd5b6100a760048036038101906100a29190611878565b6101c3565b6040516100b49190611b86565b60405180910390f35b6100d760048036038101906100d291906118d8565b610343565b6040516100e49190611cfb565b60405180910390f35b6100f5610367565b6040516101029190611cfb565b60405180910390f35b610125600480360381019061012091906118d8565b61036d565b6040516101329190611cfb565b60405180910390f35b6101436103ca565b6040516101509190611b6b565b60405180910390f35b610173600480360381019061016e91906117bc565b610750565b6040516101809190611b6b565b60405180910390f35b610191610a51565b005b6101ad60048036038101906101a8919061178f565b610ad9565b6040516101ba9190611cfb565b60405180910390f35b600080838390501415610201576040517ec1cfc000000000000000000000000000000000000000000000000000000000815260040160405180910390fd5b600061020f33328743610af9565b90506000600460008381526020019081526020016000206002015414610238578091505061033c565b84817f7591d2b0b419b4e3b19a2bc688567ba54fe3e1c126aa64cff602c38fb2136f20333260008989604051610272959493929190611ad8565b60405180910390a3610285600282610b32565b60405180608001604052808281526020018681526020014281526020013373ffffffffffffffffffffffffffffffffffffffff168152506004600083815260200190815260200160002060008201518160000155602082015181600101556040820151816002015560608201518160030160006101000a81548173ffffffffffffffffffffffffffffffffffffffff021916908373ffffffffffffffffffffffffffffffffffffffff160217905550905050809150505b9392505050565b6005818154811061035357600080fd5b906000526020600020016000915090505481565b61012c81565b60006005805490508211156103a357600560008154811061039157610390612052565b5b906000526020600020015490506103c5565b600582815481106103b7576103b6612052565b5b906000526020600020015490505b919050565b6000600560006103da9190611590565b60005b6103e76002610bae565b811015610748576103f66115b1565b600061040183610be2565b80925081935050508015610416575050610735565b60004261012c846040015161042b9190611e13565b10905060006001600085600001518152602001908152602001600020805480602002602001604051908101604052809291908181526020016000905b8282101561067357838290600052602060002090600502016040518060a00160405290816000820160009054906101000a900473ffffffffffffffffffffffffffffffffffffffff1673ffffffffffffffffffffffffffffffffffffffff1673ffffffffffffffffffffffffffffffffffffffff1681526020016001820160009054906101000a900473ffffffffffffffffffffffffffffffffffffffff1673ffffffffffffffffffffffffffffffffffffffff1673ffffffffffffffffffffffffffffffffffffffff1681526020016002820154815260200160038201805461055090611f19565b80601f016020809104026020016040519081016040528092919081815260200182805461057c90611f19565b80156105c95780601f1061059e576101008083540402835291602001916105c9565b820191906000526020600020905b8154815290600101906020018083116105ac57829003601f168201915b505050505081526020016004820180546105e290611f19565b80601f016020809104026020016040519081016040528092919081815260200182805461060e90611f19565b801561065b5780601f106106305761010080835404028352916020019161065b565b820191906000526020600020905b81548152906001019060200180831161063e57829003601f168201915b50505050508152505081526020019060010190610467565b505050509050818015610687575060008151145b156106f45761069f8460000151856060015183610cec565b6106ac8460000151610fa9565b83600001517ff58ba16d5c7e72e69ac335c1473147fa633bcc5e805437766620ba8ef404cb856000806040516106e3929190611c5f565b60405180910390a250505050610735565b6000815114156107075750505050610735565b6107108161107f565b6107238460000151856060015183610cec565b6107308460000151610fa9565b505050505b808061074090611f4b565b9150506103dd565b506001905090565b6000876000600460008381526020019081526020016000206002015414156107ad576040517f08c379a00000000000000000000000000000000000000000000000000000000081526004016107a490611c9b565b60405180910390fd5b6000600460008b81526020019081526020016000206002015490504261012c826107d79190611e13565b101561082157897ff58ba16d5c7e72e69ac335c1473147fa633bcc5e805437766620ba8ef404cb85824260405161080f929190611d16565b60405180910390a26001925050610a45565b60006040518060a001604052803273ffffffffffffffffffffffffffffffffffffffff1681526020018b73ffffffffffffffffffffffffffffffffffffffff1681526020018a815260200189898080601f016020809104026020016040519081016040528093929190818152602001838380828437600081840152601f19601f82011690508083019250505050505050815260200187878080601f016020809104026020016040519081016040528093929190818152602001838380828437600081840152601f19601f820116905080830192505050505050508152509050600160008c815260200190815260200160002081908060018154018082558091505060019003906000526020600020906005020160009091909190915060008201518160000160006101000a81548173ffffffffffffffffffffffffffffffffffffffff021916908373ffffffffffffffffffffffffffffffffffffffff16021790555060208201518160010160006101000a81548173ffffffffffffffffffffffffffffffffffffffff021916908373ffffffffffffffffffffffffffffffffffffffff1602179055506040820151816002015560608201518160030190805190602001906109f19291906115f5565b506080820151816004019080519060200190610a0e9291906115f5565b5050508a7f9e9bc7616d42c2835d05ae617e508454e63b30b934be8aa932ebc125e0e58a6460405160405180910390a26001935050505b50979650505050505050565b612005600660006101000a81548173ffffffffffffffffffffffffffffffffffffffff021916908373ffffffffffffffffffffffffffffffffffffffff160217905550612003600760006101000a81548173ffffffffffffffffffffffffffffffffffffffff021916908373ffffffffffffffffffffffffffffffffffffffff160217905550565b600060046000838152602001908152602001600020600201549050919050565b600084848484604051602001610b129493929190611b26565b604051602081830303815290604052805190602001209050949350505050565b60008260000160109054906101000a9004600f0b90508183600101600083600f0b600f0b815260200190815260200160002081905550600181018360000160106101000a8154816fffffffffffffffffffffffffffffffff0219169083600f0b6fffffffffffffffffffffffffffffffff160217905550505050565b60008160000160009054906101000a9004600f0b600f0b8260000160109054906101000a9004600f0b600f0b039050919050565b610bea6115b1565b600080610bf860028561129d565b9050600460008281526020019081526020016000206040518060800160405290816000820154815260200160018201548152602001600282015481526020016003820160009054906101000a900473ffffffffffffffffffffffffffffffffffffffff1673ffffffffffffffffffffffffffffffffffffffff1673ffffffffffffffffffffffffffffffffffffffff1681525050925060008360400151148015610cd25750600073ffffffffffffffffffffffffffffffffffffffff16836060015173ffffffffffffffffffffffffffffffffffffffff16145b15610ce1576001915050610ce7565b60009150505b915091565b600081511415610d6b578173ffffffffffffffffffffffffffffffffffffffff166342ba6d28846000806040518463ffffffff1660e01b8152600401610d3493929190611ba1565b600060405180830381600087803b158015610d4e57600080fd5b505af1158015610d62573d6000803e3d6000fd5b50505050610fa4565b6000600660009054906101000a900473ffffffffffffffffffffffffffffffffffffffff1673ffffffffffffffffffffffffffffffffffffffff1663edd3159d6040518163ffffffff1660e01b815260040160206040518083038186803b158015610dd557600080fd5b505afa158015610de9573d6000803e3d6000fd5b505050506040513d601f19601f82011682018060405250810190610e0d9190611905565b905060006005805490501115610ef2576000826005808054905084610e329190611f94565b81548110610e4357610e42612052565b5b906000526020600020015481518110610e5f57610e5e612052565b5b602002602001015190508373ffffffffffffffffffffffffffffffffffffffff166342ba6d288683600001518460400151856060015186608001516040518663ffffffff1660e01b8152600401610eba959493929190611bfe565b600060405180830381600087803b158015610ed457600080fd5b505af1158015610ee8573d6000803e3d6000fd5b5050505050610fa2565b600082835183610f029190611f94565b81518110610f1357610f12612052565b5b602002602001015190508373ffffffffffffffffffffffffffffffffffffffff166342ba6d288683600001518460400151856060015186608001516040518663ffffffff1660e01b8152600401610f6e959493929190611bfe565b600060405180830381600087803b158015610f8857600080fd5b505af1158015610f9c573d6000803e3d6000fd5b50505050505b505b505050565b6000610fb56002611347565b90508181141561102557610fc960026113c3565b5060046000838152602001908152602001600020600080820160009055600182016000905560028201600090556003820160006101000a81549073ffffffffffffffffffffffffffffffffffffffff021916905550505061107c565b60046000838152602001908152602001600020600080820160009055600182016000905560028201600090556003820160006101000a81549073ffffffffffffffffffffffffffffffffffffffff02191690555050505b50565b60005b8151811015611299576000808383815181106110a1576110a0612052565b5b602002602001015160600151511415905060006005805490501480156110c45750805b156110f857600582908060018154018082558091505060019003906000526020600020016000909190919091505550611286565b82828151811061110b5761110a612052565b5b60200260200101516040015183600560008154811061112d5761112c612052565b5b90600052602060002001548151811061114957611148612052565b5b60200260200101516040015111156111615750611286565b82828151811061117457611173612052565b5b60200260200101516040015183600560008154811061119657611195612052565b5b9060005260206000200154815181106111b2576111b1612052565b5b6020026020010151604001511080156111c85750805b156111ee5760405180602001604052808381525060059060016111ec92919061167b565b505b82828151811061120157611200612052565b5b60200260200101516040015183600560008154811061122357611222612052565b5b90600052602060002001548151811061123f5761123e612052565b5b6020026020010151604001511480156112555750805b156112845760058290806001815401808255809150506001900390600052602060002001600090919091909150555b505b808061129190611f4b565b915050611082565b5050565b6000806112d06112ac8461149f565b8560000160009054906101000a9004600f0b600f0b6112cb9190611d7f565b61150c565b90508360000160109054906101000a9004600f0b600f0b81600f0b12611322576040517fb4120f1400000000000000000000000000000000000000000000000000000000815260040160405180910390fd5b83600101600082600f0b600f0b81526020019081526020016000205491505092915050565b60006113528261155b565b15611389576040517f3db2a12a00000000000000000000000000000000000000000000000000000000815260040160405180910390fd5b60008260000160009054906101000a9004600f0b905082600101600082600f0b600f0b815260200190815260200160002054915050919050565b60006113ce8261155b565b15611405576040517f3db2a12a00000000000000000000000000000000000000000000000000000000815260040160405180910390fd5b60008260000160009054906101000a9004600f0b905082600101600082600f0b600f0b815260200190815260200160002054915082600101600082600f0b600f0b815260200190815260200160002060009055600181018360000160006101000a8154816fffffffffffffffffffffffffffffffff0219169083600f0b6fffffffffffffffffffffffffffffffff16021790555050919050565b60007f7fffffffffffffffffffffffffffffffffffffffffffffffffffffffffffffff821115611504576040517f08c379a00000000000000000000000000000000000000000000000000000000081526004016114fb90611cdb565b60405180910390fd5b819050919050565b60008190508181600f0b14611556576040517f08c379a000000000000000000000000000000000000000000000000000000000815260040161154d90611cbb565b60405180910390fd5b919050565b60008160000160009054906101000a9004600f0b600f0b8260000160109054906101000a9004600f0b600f0b13159050919050565b50805460008255906000526020600020908101906115ae91906116c8565b50565b6040518060800160405280600080191681526020016000801916815260200160008152602001600073ffffffffffffffffffffffffffffffffffffffff1681525090565b82805461160190611f19565b90600052602060002090601f016020900481019282611623576000855561166a565b82601f1061163c57805160ff191683800117855561166a565b8280016001018555821561166a579182015b8281111561166957825182559160200191906001019061164e565b5b50905061167791906116c8565b5090565b8280548282559060005260206000209081019282156116b7579160200282015b828111156116b657825182559160200191906001019061169b565b5b5090506116c491906116c8565b5090565b5b808211156116e15760008160009055506001016116c9565b5090565b6000813590506116f4816121f0565b92915050565b60008135905061170981612207565b92915050565b60008083601f84011261172557611724612086565b5b8235905067ffffffffffffffff81111561174257611741612081565b5b60208301915083600182028301111561175e5761175d61208b565b5b9250929050565b6000813590506117748161221e565b92915050565b6000815190506117898161221e565b92915050565b6000602082840312156117a5576117a4612095565b5b60006117b3848285016116fa565b91505092915050565b600080600080600080600060a0888a0312156117db576117da612095565b5b60006117e98a828b016116fa565b97505060206117fa8a828b016116e5565b965050604061180b8a828b01611765565b955050606088013567ffffffffffffffff81111561182c5761182b612090565b5b6118388a828b0161170f565b9450945050608088013567ffffffffffffffff81111561185b5761185a612090565b5b6118678a828b0161170f565b925092505092959891949750929550565b60008060006040848603121561189157611890612095565b5b600061189f868287016116fa565b935050602084013567ffffffffffffffff8111156118c0576118bf612090565b5b6118cc8682870161170f565b92509250509250925092565b6000602082840312156118ee576118ed612095565b5b60006118fc84828501611765565b91505092915050565b60006020828403121561191b5761191a612095565b5b60006119298482850161177a565b91505092915050565b61193b81611e69565b82525050565b61194a81611e7b565b82525050565b61195981611e87565b82525050565b600061196b8385611d5d565b9350611978838584611ed7565b6119818361209a565b840190509392505050565b600061199782611d52565b6119a18185611d5d565b93506119b1818560208601611ee6565b6119ba8161209a565b840191505092915050565b6119ce81611ec5565b82525050565b60006119e1601b83611d6e565b91506119ec826120ab565b602082019050919050565b6000611a04601383611d6e565b9150611a0f826120d4565b602082019050919050565b6000611a27602783611d6e565b9150611a32826120fd565b604082019050919050565b6000611a4a601283611d6e565b9150611a558261214c565b602082019050919050565b6000611a6d600083611d5d565b9150611a7882612175565b600082019050919050565b6000611a90602883611d6e565b9150611a9b82612178565b604082019050919050565b6000611ab3600783611d5d565b9150611abe826121c7565b602082019050919050565b611ad281611ebb565b82525050565b6000608082019050611aed6000830188611932565b611afa6020830187611932565b611b076040830186611932565b8181036060830152611b1a81848661195f565b90509695505050505050565b6000608082019050611b3b6000830187611932565b611b486020830186611932565b611b556040830185611950565b611b626060830184611ac9565b95945050505050565b6000602082019050611b806000830184611941565b92915050565b6000602082019050611b9b6000830184611950565b92915050565b600060a082019050611bb66000830186611950565b611bc36020830185611932565b611bd060408301846119c5565b8181036060830152611be181611a60565b90508181036080830152611bf481611aa6565b9050949350505050565b600060a082019050611c136000830188611950565b611c206020830187611932565b611c2d6040830186611ac9565b8181036060830152611c3f818561198c565b90508181036080830152611c53818461198c565b90509695505050505050565b6000606082019050611c7460008301856119c5565b611c8160208301846119c5565b8181036040830152611c9281611a3d565b90509392505050565b60006020820190508181036000830152611cb4816119d4565b9050919050565b60006020820190508181036000830152611cd481611a1a565b9050919050565b60006020820190508181036000830152611cf481611a83565b9050919050565b6000602082019050611d106000830184611ac9565b92915050565b6000606082019050611d2b6000830185611ac9565b611d386020830184611ac9565b8181036040830152611d49816119f7565b90509392505050565b600081519050919050565b600082825260208201905092915050565b600082825260208201905092915050565b6000611d8a82611e91565b9150611d9583611e91565b9250817f7fffffffffffffffffffffffffffffffffffffffffffffffffffffffffffffff03831360008312151615611dd057611dcf611fc5565b5b817f8000000000000000000000000000000000000000000000000000000000000000038312600083121615611e0857611e07611fc5565b5b828201905092915050565b6000611e1e82611ebb565b9150611e2983611ebb565b9250827fffffffffffffffffffffffffffffffffffffffffffffffffffffffffffffffff03821115611e5e57611e5d611fc5565b5b828201905092915050565b6000611e7482611e9b565b9050919050565b60008115159050919050565b6000819050919050565b6000819050919050565b600073ffffffffffffffffffffffffffffffffffffffff82169050919050565b6000819050919050565b6000611ed082611ebb565b9050919050565b82818337600083830152505050565b60005b83811015611f04578082015181840152602081019050611ee9565b83811115611f13576000848401525b50505050565b60006002820490506001821680611f3157607f821691505b60208210811415611f4557611f44612023565b5b50919050565b6000611f5682611ebb565b91507fffffffffffffffffffffffffffffffffffffffffffffffffffffffffffffffff821415611f8957611f88611fc5565b5b600182019050919050565b6000611f9f82611ebb565b9150611faa83611ebb565b925082611fba57611fb9611ff4565b5b828206905092915050565b7f4e487b7100000000000000000000000000000000000000000000000000000000600052601160045260246000fd5b7f4e487b7100000000000000000000000000000000000000000000000000000000600052601260045260246000fd5b7f4e487b7100000000000000000000000000000000000000000000000000000000600052602260045260246000fd5b7f4e487b7100000000000000000000000000000000000000000000000000000000600052603260045260246000fd5b600080fd5b600080fd5b600080fd5b600080fd5b600080fd5b6000601f19601f8301169050919050565b7f4d757374206861766520612076616c6964207265717565737449640000000000600082015250565b7f74696d656f75742061667465722035206d696e00000000000000000000000000600082015250565b7f53616665436173743a2076616c756520646f65736e27742066697420696e203160008201527f3238206269747300000000000000000000000000000000000000000000000000602082015250565b7f6e6f7420666f756e6420726573706f6e73650000000000000000000000000000600082015250565b50565b7f53616665436173743a2076616c756520646f65736e27742066697420696e206160008201527f6e20696e74323536000000000000000000000000000000000000000000000000602082015250565b7f74696d656f757400000000000000000000000000000000000000000000000000600082015250565b6121f981611e69565b811461220457600080fd5b50565b61221081611e87565b811461221b57600080fd5b50565b61222781611ebb565b811461223257600080fd5b5056fea264697066735822122091e9c924cc297508c20155a69275061b7732cdee41a825fd2fd25863788c1b0564736f6c63430008060033",
			"opcodes": "PUSH1 0x80 PUSH1 0x40 MSTORE CALLVALUE DUP1 ISZERO PUSH2 0x10 JUMPI PUSH1 0x0 DUP1 REVERT JUMPDEST POP PUSH2 0x226B DUP1 PUSH2 0x20 PUSH1 0x0 CODECOPY PUSH1 0x0 RETURN INVALID PUSH1 0x80 PUSH1 0x40 MSTORE CALLVALUE DUP1 ISZERO PUSH2 0x10 JUMPI PUSH1 0x0 DUP1 REVERT JUMPDEST POP PUSH1 0x4 CALLDATASIZE LT PUSH2 0x88 JUMPI PUSH1 0x0 CALLDATALOAD PUSH1 0xE0 SHR DUP1 PUSH4 0x86F02842 GT PUSH2 0x5B JUMPI DUP1 PUSH4 0x86F02842 EQ PUSH2 0x13B JUMPI DUP1 PUSH4 0xC51F0DB5 EQ PUSH2 0x159 JUMPI DUP1 PUSH4 0xE1C7392A EQ PUSH2 0x189 JUMPI DUP1 PUSH4 0xF215F51D EQ PUSH2 0x193 JUMPI PUSH2 0x88 JUMP JUMPDEST DUP1 PUSH4 0x41DAE33 EQ PUSH2 0x8D JUMPI DUP1 PUSH4 0x26E696CF EQ PUSH2 0xBD JUMPI DUP1 PUSH4 0x4B602282 EQ PUSH2 0xED JUMPI DUP1 PUSH4 0x7FC101BE EQ PUSH2 0x10B JUMPI JUMPDEST PUSH1 0x0 DUP1 REVERT JUMPDEST PUSH2 0xA7 PUSH1 0x4 DUP1 CALLDATASIZE SUB DUP2 ADD SWAP1 PUSH2 0xA2 SWAP2 SWAP1 PUSH2 0x1878 JUMP JUMPDEST PUSH2 0x1C3 JUMP JUMPDEST PUSH1 0x40 MLOAD PUSH2 0xB4 SWAP2 SWAP1 PUSH2 0x1B86 JUMP JUMPDEST PUSH1 0x40 MLOAD DUP1 SWAP2 SUB SWAP1 RETURN JUMPDEST PUSH2 0xD7 PUSH1 0x4 DUP1 CALLDATASIZE SUB DUP2 ADD SWAP1 PUSH2 0xD2 SWAP2 SWAP1 PUSH2 0x18D8 JUMP JUMPDEST PUSH2 0x343 JUMP JUMPDEST PUSH1 0x40 MLOAD PUSH2 0xE4 SWAP2 SWAP1 PUSH2 0x1CFB JUMP JUMPDEST PUSH1 0x40 MLOAD DUP1 SWAP2 SUB SWAP1 RETURN JUMPDEST PUSH2 0xF5 PUSH2 0x367 JUMP JUMPDEST PUSH1 0x40 MLOAD PUSH2 0x102 SWAP2 SWAP1 PUSH2 0x1CFB JUMP JUMPDEST PUSH1 0x40 MLOAD DUP1 SWAP2 SUB SWAP1 RETURN JUMPDEST PUSH2 0x125 PUSH1 0x4 DUP1 CALLDATASIZE SUB DUP2 ADD SWAP1 PUSH2 0x120 SWAP2 SWAP1 PUSH2 0x18D8 JUMP JUMPDEST PUSH2 0x36D JUMP JUMPDEST PUSH1 0x40 MLOAD PUSH2 0x132 SWAP2 SWAP1 PUSH2 0x1CFB JUMP JUMPDEST PUSH1 0x40 MLOAD DUP1 SWAP2 SUB SWAP1 RETURN JUMPDEST PUSH2 0x143 PUSH2 0x3CA JUMP JUMPDEST PUSH1 0x40 MLOAD PUSH2 0x150 SWAP2 SWAP1 PUSH2 0x1B6B JUMP JUMPDEST PUSH1 0x40 MLOAD DUP1 SWAP2 SUB SWAP1 RETURN JUMPDEST PUSH2 0x173 PUSH1 0x4 DUP1 CALLDATASIZE SUB DUP2 ADD SWAP1 PUSH2 0x16E SWAP2 SWAP1 PUSH2 0x17BC JUMP JUMPDEST PUSH2 0x750 JUMP JUMPDEST PUSH1 0x40 MLOAD PUSH2 0x180 SWAP2 SWAP1 PUSH2 0x1B6B JUMP JUMPDEST PUSH1 0x40 MLOAD DUP1 SWAP2 SUB SWAP1 RETURN JUMPDEST PUSH2 0x191 PUSH2 0xA51 JUMP JUMPDEST STOP JUMPDEST PUSH2 0x1AD PUSH1 0x4 DUP1 CALLDATASIZE SUB DUP2 ADD SWAP1 PUSH2 0x1A8 SWAP2 SWAP1 PUSH2 0x178F JUMP JUMPDEST PUSH2 0xAD9 JUMP JUMPDEST PUSH1 0x40 MLOAD PUSH2 0x1BA SWAP2 SWAP1 PUSH2 0x1CFB JUMP JUMPDEST PUSH1 0x40 MLOAD DUP1 SWAP2 SUB SWAP1 RETURN JUMPDEST PUSH1 0x0 DUP1 DUP4 DUP4 SWAP1 POP EQ ISZERO PUSH2 0x201 JUMPI PUSH1 0x40 MLOAD PUSH31 0xC1CFC000000000000000000000000000000000000000000000000000000000 DUP2 MSTORE PUSH1 0x4 ADD PUSH1 0x40 MLOAD DUP1 SWAP2 SUB SWAP1 REVERT JUMPDEST PUSH1 0x0 PUSH2 0x20F CALLER ORIGIN DUP8 NUMBER PUSH2 0xAF9 JUMP JUMPDEST SWAP1 POP PUSH1 0x0 PUSH1 0x4 PUSH1 0x0 DUP4 DUP2 MSTORE PUSH1 0x20 ADD SWAP1 DUP2 MSTORE PUSH1 0x20 ADD PUSH1 0x0 KECCAK256 PUSH1 0x2 ADD SLOAD EQ PUSH2 0x238 JUMPI DUP1 SWAP2 POP POP PUSH2 0x33C JUMP JUMPDEST DUP5 DUP2 PUSH32 0x7591D2B0B419B4E3B19A2BC688567BA54FE3E1C126AA64CFF602C38FB2136F20 CALLER ORIGIN PUSH1 0x0 DUP10 DUP10 PUSH1 0x40 MLOAD PUSH2 0x272 SWAP6 SWAP5 SWAP4 SWAP3 SWAP2 SWAP1 PUSH2 0x1AD8 JUMP JUMPDEST PUSH1 0x40 MLOAD DUP1 SWAP2 SUB SWAP1 LOG3 PUSH2 0x285 PUSH1 0x2 DUP3 PUSH2 0xB32 JUMP JUMPDEST PUSH1 0x40 MLOAD DUP1 PUSH1 0x80 ADD PUSH1 0x40 MSTORE DUP1 DUP3 DUP2 MSTORE PUSH1 0x20 ADD DUP7 DUP2 MSTORE PUSH1 0x20 ADD TIMESTAMP DUP2 MSTORE PUSH1 0x20 ADD CALLER PUSH20 0xFFFFFFFFFFFFFFFFFFFFFFFFFFFFFFFFFFFFFFFF AND DUP2 MSTORE POP PUSH1 0x4 PUSH1 0x0 DUP4 DUP2 MSTORE PUSH1 0x20 ADD SWAP1 DUP2 MSTORE PUSH1 0x20 ADD PUSH1 0x0 KECCAK256 PUSH1 0x0 DUP3 ADD MLOAD DUP2 PUSH1 0x0 ADD SSTORE PUSH1 0x20 DUP3 ADD MLOAD DUP2 PUSH1 0x1 ADD SSTORE PUSH1 0x40 DUP3 ADD MLOAD DUP2 PUSH1 0x2 ADD SSTORE PUSH1 0x60 DUP3 ADD MLOAD DUP2 PUSH1 0x3 ADD PUSH1 0x0 PUSH2 0x100 EXP DUP2 SLOAD DUP2 PUSH20 0xFFFFFFFFFFFFFFFFFFFFFFFFFFFFFFFFFFFFFFFF MUL NOT AND SWAP1 DUP4 PUSH20 0xFFFFFFFFFFFFFFFFFFFFFFFFFFFFFFFFFFFFFFFF AND MUL OR SWAP1 SSTORE POP SWAP1 POP POP DUP1 SWAP2 POP POP JUMPDEST SWAP4 SWAP3 POP POP POP JUMP JUMPDEST PUSH1 0x5 DUP2 DUP2 SLOAD DUP2 LT PUSH2 0x353 JUMPI PUSH1 0x0 DUP1 REVERT JUMPDEST SWAP1 PUSH1 0x0 MSTORE PUSH1 0x20 PUSH1 0x0 KECCAK256 ADD PUSH1 0x0 SWAP2 POP SWAP1 POP SLOAD DUP2 JUMP JUMPDEST PUSH2 0x12C DUP2 JUMP JUMPDEST PUSH1 0x0 PUSH1 0x5 DUP1 SLOAD SWAP1 POP DUP3 GT ISZERO PUSH2 0x3A3 JUMPI PUSH1 0x5 PUSH1 0x0 DUP2 SLOAD DUP2 LT PUSH2 0x391 JUMPI PUSH2 0x390 PUSH2 0x2052 JUMP JUMPDEST JUMPDEST SWAP1 PUSH1 0x0 MSTORE PUSH1 0x20 PUSH1 0x0 KECCAK256 ADD SLOAD SWAP1 POP PUSH2 0x3C5 JUMP JUMPDEST PUSH1 0x5 DUP3 DUP2 SLOAD DUP2 LT PUSH2 0x3B7 JUMPI PUSH2 0x3B6 PUSH2 0x2052 JUMP JUMPDEST JUMPDEST SWAP1 PUSH1 0x0 MSTORE PUSH1 0x20 PUSH1 0x0 KECCAK256 ADD SLOAD SWAP1 POP JUMPDEST SWAP2 SWAP1 POP JUMP JUMPDEST PUSH1 0x0 PUSH1 0x5 PUSH1 0x0 PUSH2 0x3DA SWAP2 SWAP1 PUSH2 0x1590 JUMP JUMPDEST PUSH1 0x0 JUMPDEST PUSH2 0x3E7 PUSH1 0x2 PUSH2 0xBAE JUMP JUMPDEST DUP2 LT ISZERO PUSH2 0x748 JUMPI PUSH2 0x3F6 PUSH2 0x15B1 JUMP JUMPDEST PUSH1 0x0 PUSH2 0x401 DUP4 PUSH2 0xBE2 JUMP JUMPDEST DUP1 SWAP3 POP DUP2 SWAP4 POP POP POP DUP1 ISZERO PUSH2 0x416 JUMPI POP POP PUSH2 0x735 JUMP JUMPDEST PUSH1 0x0 TIMESTAMP PUSH2 0x12C DUP5 PUSH1 0x40 ADD MLOAD PUSH2 0x42B SWAP2 SWAP1 PUSH2 0x1E13 JUMP JUMPDEST LT SWAP1 POP PUSH1 0x0 PUSH1 0x1 PUSH1 0x0 DUP6 PUSH1 0x0 ADD MLOAD DUP2 MSTORE PUSH1 0x20 ADD SWAP1 DUP2 MSTORE PUSH1 0x20 ADD PUSH1 0x0 KECCAK256 DUP1 SLOAD DUP1 PUSH1 0x20 MUL PUSH1 0x20 ADD PUSH1 0x40 MLOAD SWAP1 DUP2 ADD PUSH1 0x40 MSTORE DUP1 SWAP3 SWAP2 SWAP1 DUP2 DUP2 MSTORE PUSH1 0x20 ADD PUSH1 0x0 SWAP1 JUMPDEST DUP3 DUP3 LT ISZERO PUSH2 0x673 JUMPI DUP4 DUP3 SWAP1 PUSH1 0x0 MSTORE PUSH1 0x20 PUSH1 0x0 KECCAK256 SWAP1 PUSH1 0x5 MUL ADD PUSH1 0x40 MLOAD DUP1 PUSH1 0xA0 ADD PUSH1 0x40 MSTORE SWAP1 DUP2 PUSH1 0x0 DUP3 ADD PUSH1 0x0 SWAP1 SLOAD SWAP1 PUSH2 0x100 EXP SWAP1 DIV PUSH20 0xFFFFFFFFFFFFFFFFFFFFFFFFFFFFFFFFFFFFFFFF AND PUSH20 0xFFFFFFFFFFFFFFFFFFFFFFFFFFFFFFFFFFFFFFFF AND PUSH20 0xFFFFFFFFFFFFFFFFFFFFFFFFFFFFFFFFFFFFFFFF AND DUP2 MSTORE PUSH1 0x20 ADD PUSH1 0x1 DUP3 ADD PUSH1 0x0 SWAP1 SLOAD SWAP1 PUSH2 0x100 EXP SWAP1 DIV PUSH20 0xFFFFFFFFFFFFFFFFFFFFFFFFFFFFFFFFFFFFFFFF AND PUSH20 0xFFFFFFFFFFFFFFFFFFFFFFFFFFFFFFFFFFFFFFFF AND PUSH20 0xFFFFFFFFFFFFFFFFFFFFFFFFFFFFFFFFFFFFFFFF AND DUP2 MSTORE PUSH1 0x20 ADD PUSH1 0x2 DUP3 ADD SLOAD DUP2 MSTORE PUSH1 0x20 ADD PUSH1 0x3 DUP3 ADD DUP1 SLOAD PUSH2 0x550 SWAP1 PUSH2 0x1F19 JUMP JUMPDEST DUP1 PUSH1 0x1F ADD PUSH1 0x20 DUP1 SWAP2 DIV MUL PUSH1 0x20 ADD PUSH1 0x40 MLOAD SWAP1 DUP2 ADD PUSH1 0x40 MSTORE DUP1 SWAP3 SWAP2 SWAP1 DUP2 DUP2 MSTORE PUSH1 0x20 ADD DUP3 DUP1 SLOAD PUSH2 0x57C SWAP1 PUSH2 0x1F19 JUMP JUMPDEST DUP1 ISZERO PUSH2 0x5C9 JUMPI DUP1 PUSH1 0x1F LT PUSH2 0x59E JUMPI PUSH2 0x100 DUP1 DUP4 SLOAD DIV MUL DUP4 MSTORE SWAP2 PUSH1 0x20 ADD SWAP2 PUSH2 0x5C9 JUMP JUMPDEST DUP3 ADD SWAP2 SWAP1 PUSH1 0x0 MSTORE PUSH1 0x20 PUSH1 0x0 KECCAK256 SWAP1 JUMPDEST DUP2 SLOAD DUP2 MSTORE SWAP1 PUSH1 0x1 ADD SWAP1 PUSH1 0x20 ADD DUP1 DUP4 GT PUSH2 0x5AC JUMPI DUP3 SWAP1 SUB PUSH1 0x1F AND DUP3 ADD SWAP2 JUMPDEST POP POP POP POP POP DUP2 MSTORE PUSH1 0x20 ADD PUSH1 0x4 DUP3 ADD DUP1 SLOAD PUSH2 0x5E2 SWAP1 PUSH2 0x1F19 JUMP JUMPDEST DUP1 PUSH1 0x1F ADD PUSH1 0x20 DUP1 SWAP2 DIV MUL PUSH1 0x20 ADD PUSH1 0x40 MLOAD SWAP1 DUP2 ADD PUSH1 0x40 MSTORE DUP1 SWAP3 SWAP2 SWAP1 DUP2 DUP2 MSTORE PUSH1 0x20 ADD DUP3 DUP1 SLOAD PUSH2 0x60E SWAP1 PUSH2 0x1F19 JUMP JUMPDEST DUP1 ISZERO PUSH2 0x65B JUMPI DUP1 PUSH1 0x1F LT PUSH2 0x630 JUMPI PUSH2 0x100 DUP1 DUP4 SLOAD DIV MUL DUP4 MSTORE SWAP2 PUSH1 0x20 ADD SWAP2 PUSH2 0x65B JUMP JUMPDEST DUP3 ADD SWAP2 SWAP1 PUSH1 0x0 MSTORE PUSH1 0x20 PUSH1 0x0 KECCAK256 SWAP1 JUMPDEST DUP2 SLOAD DUP2 MSTORE SWAP1 PUSH1 0x1 ADD SWAP1 PUSH1 0x20 ADD DUP1 DUP4 GT PUSH2 0x63E JUMPI DUP3 SWAP1 SUB PUSH1 0x1F AND DUP3 ADD SWAP2 JUMPDEST POP POP POP POP POP DUP2 MSTORE POP POP DUP2 MSTORE PUSH1 0x20 ADD SWAP1 PUSH1 0x1 ADD SWAP1 PUSH2 0x467 JUMP JUMPDEST POP POP POP POP SWAP1 POP DUP2 DUP1 ISZERO PUSH2 0x687 JUMPI POP PUSH1 0x0 DUP2 MLOAD EQ JUMPDEST ISZERO PUSH2 0x6F4 JUMPI PUSH2 0x69F DUP5 PUSH1 0x0 ADD MLOAD DUP6 PUSH1 0x60 ADD MLOAD DUP4 PUSH2 0xCEC JUMP JUMPDEST PUSH2 0x6AC DUP5 PUSH1 0x0 ADD MLOAD PUSH2 0xFA9 JUMP JUMPDEST DUP4 PUSH1 0x0 ADD MLOAD PUSH32 0xF58BA16D5C7E72E69AC335C1473147FA633BCC5E805437766620BA8EF404CB85 PUSH1 0x0 DUP1 PUSH1 0x40 MLOAD PUSH2 0x6E3 SWAP3 SWAP2 SWAP1 PUSH2 0x1C5F JUMP JUMPDEST PUSH1 0x40 MLOAD DUP1 SWAP2 SUB SWAP1 LOG2 POP POP POP POP PUSH2 0x735 JUMP JUMPDEST PUSH1 0x0 DUP2 MLOAD EQ ISZERO PUSH2 0x707 JUMPI POP POP POP POP PUSH2 0x735 JUMP JUMPDEST PUSH2 0x710 DUP2 PUSH2 0x107F JUMP JUMPDEST PUSH2 0x723 DUP5 PUSH1 0x0 ADD MLOAD DUP6 PUSH1 0x60 ADD MLOAD DUP4 PUSH2 0xCEC JUMP JUMPDEST PUSH2 0x730 DUP5 PUSH1 0x0 ADD MLOAD PUSH2 0xFA9 JUMP JUMPDEST POP POP POP POP JUMPDEST DUP1 DUP1 PUSH2 0x740 SWAP1 PUSH2 0x1F4B JUMP JUMPDEST SWAP2 POP POP PUSH2 0x3DD JUMP JUMPDEST POP PUSH1 0x1 SWAP1 POP SWAP1 JUMP JUMPDEST PUSH1 0x0 DUP8 PUSH1 0x0 PUSH1 0x4 PUSH1 0x0 DUP4 DUP2 MSTORE PUSH1 0x20 ADD SWAP1 DUP2 MSTORE PUSH1 0x20 ADD PUSH1 0x0 KECCAK256 PUSH1 0x2 ADD SLOAD EQ ISZERO PUSH2 0x7AD JUMPI PUSH1 0x40 MLOAD PUSH32 0x8C379A000000000000000000000000000000000000000000000000000000000 DUP2 MSTORE PUSH1 0x4 ADD PUSH2 0x7A4 SWAP1 PUSH2 0x1C9B JUMP JUMPDEST PUSH1 0x40 MLOAD DUP1 SWAP2 SUB SWAP1 REVERT JUMPDEST PUSH1 0x0 PUSH1 0x4 PUSH1 0x0 DUP12 DUP2 MSTORE PUSH1 0x20 ADD SWAP1 DUP2 MSTORE PUSH1 0x20 ADD PUSH1 0x0 KECCAK256 PUSH1 0x2 ADD SLOAD SWAP1 POP TIMESTAMP PUSH2 0x12C DUP3 PUSH2 0x7D7 SWAP2 SWAP1 PUSH2 0x1E13 JUMP JUMPDEST LT ISZERO PUSH2 0x821 JUMPI DUP10 PUSH32 0xF58BA16D5C7E72E69AC335C1473147FA633BCC5E805437766620BA8EF404CB85 DUP3 TIMESTAMP PUSH1 0x40 MLOAD PUSH2 0x80F SWAP3 SWAP2 SWAP1 PUSH2 0x1D16 JUMP JUMPDEST PUSH1 0x40 MLOAD DUP1 SWAP2 SUB SWAP1 LOG2 PUSH1 0x1 SWAP3 POP POP PUSH2 0xA45 JUMP JUMPDEST PUSH1 0x0 PUSH1 0x40 MLOAD DUP1 PUSH1 0xA0 ADD PUSH1 0x40 MSTORE DUP1 ORIGIN PUSH20 0xFFFFFFFFFFFFFFFFFFFFFFFFFFFFFFFFFFFFFFFF AND DUP2 MSTORE PUSH1 0x20 ADD DUP12 PUSH20 0xFFFFFFFFFFFFFFFFFFFFFFFFFFFFFFFFFFFFFFFF AND DUP2 MSTORE PUSH1 0x20 ADD DUP11 DUP2 MSTORE PUSH1 0x20 ADD DUP10 DUP10 DUP1 DUP1 PUSH1 0x1F ADD PUSH1 0x20 DUP1 SWAP2 DIV MUL PUSH1 0x20 ADD PUSH1 0x40 MLOAD SWAP1 DUP2 ADD PUSH1 0x40 MSTORE DUP1 SWAP4 SWAP3 SWAP2 SWAP1 DUP2 DUP2 MSTORE PUSH1 0x20 ADD DUP4 DUP4 DUP1 DUP3 DUP5 CALLDATACOPY PUSH1 0x0 DUP2 DUP5 ADD MSTORE PUSH1 0x1F NOT PUSH1 0x1F DUP3 ADD AND SWAP1 POP DUP1 DUP4 ADD SWAP3 POP POP POP POP POP POP POP DUP2 MSTORE PUSH1 0x20 ADD DUP8 DUP8 DUP1 DUP1 PUSH1 0x1F ADD PUSH1 0x20 DUP1 SWAP2 DIV MUL PUSH1 0x20 ADD PUSH1 0x40 MLOAD SWAP1 DUP2 ADD PUSH1 0x40 MSTORE DUP1 SWAP4 SWAP3 SWAP2 SWAP1 DUP2 DUP2 MSTORE PUSH1 0x20 ADD DUP4 DUP4 DUP1 DUP3 DUP5 CALLDATACOPY PUSH1 0x0 DUP2 DUP5 ADD MSTORE PUSH1 0x1F NOT PUSH1 0x1F DUP3 ADD AND SWAP1 POP DUP1 DUP4 ADD SWAP3 POP POP POP POP POP POP POP DUP2 MSTORE POP SWAP1 POP PUSH1 0x1 PUSH1 0x0 DUP13 DUP2 MSTORE PUSH1 0x20 ADD SWAP1 DUP2 MSTORE PUSH1 0x20 ADD PUSH1 0x0 KECCAK256 DUP2 SWAP1 DUP1 PUSH1 0x1 DUP2 SLOAD ADD DUP1 DUP3 SSTORE DUP1 SWAP2 POP POP PUSH1 0x1 SWAP1 SUB SWAP1 PUSH1 0x0 MSTORE PUSH1 0x20 PUSH1 0x0 KECCAK256 SWAP1 PUSH1 0x5 MUL ADD PUSH1 0x0 SWAP1 SWAP2 SWAP1 SWAP2 SWAP1 SWAP2 POP PUSH1 0x0 DUP3 ADD MLOAD DUP2 PUSH1 0x0 ADD PUSH1 0x0 PUSH2 0x100 EXP DUP2 SLOAD DUP2 PUSH20 0xFFFFFFFFFFFFFFFFFFFFFFFFFFFFFFFFFFFFFFFF MUL NOT AND SWAP1 DUP4 PUSH20 0xFFFFFFFFFFFFFFFFFFFFFFFFFFFFFFFFFFFFFFFF AND MUL OR SWAP1 SSTORE POP PUSH1 0x20 DUP3 ADD MLOAD DUP2 PUSH1 0x1 ADD PUSH1 0x0 PUSH2 0x100 EXP DUP2 SLOAD DUP2 PUSH20 0xFFFFFFFFFFFFFFFFFFFFFFFFFFFFFFFFFFFFFFFF MUL NOT AND SWAP1 DUP4 PUSH20 0xFFFFFFFFFFFFFFFFFFFFFFFFFFFFFFFFFFFFFFFF AND MUL OR SWAP1 SSTORE POP PUSH1 0x40 DUP3 ADD MLOAD DUP2 PUSH1 0x2 ADD SSTORE PUSH1 0x60 DUP3 ADD MLOAD DUP2 PUSH1 0x3 ADD SWAP1 DUP1 MLOAD SWAP1 PUSH1 0x20 ADD SWAP1 PUSH2 0x9F1 SWAP3 SWAP2 SWAP1 PUSH2 0x15F5 JUMP JUMPDEST POP PUSH1 0x80 DUP3 ADD MLOAD DUP2 PUSH1 0x4 ADD SWAP1 DUP1 MLOAD SWAP1 PUSH1 0x20 ADD SWAP1 PUSH2 0xA0E SWAP3 SWAP2 SWAP1 PUSH2 0x15F5 JUMP JUMPDEST POP POP POP DUP11 PUSH32 0x9E9BC7616D42C2835D05AE617E508454E63B30B934BE8AA932EBC125E0E58A64 PUSH1 0x40 MLOAD PUSH1 0x40 MLOAD DUP1 SWAP2 SUB SWAP1 LOG2 PUSH1 0x1 SWAP4 POP POP POP JUMPDEST POP SWAP8 SWAP7 POP POP POP POP POP POP POP JUMP JUMPDEST PUSH2 0x2005 PUSH1 0x6 PUSH1 0x0 PUSH2 0x100 EXP DUP2 SLOAD DUP2 PUSH20 0xFFFFFFFFFFFFFFFFFFFFFFFFFFFFFFFFFFFFFFFF MUL NOT AND SWAP1 DUP4 PUSH20 0xFFFFFFFFFFFFFFFFFFFFFFFFFFFFFFFFFFFFFFFF AND MUL OR SWAP1 SSTORE POP PUSH2 0x2003 PUSH1 0x7 PUSH1 0x0 PUSH2 0x100 EXP DUP2 SLOAD DUP2 PUSH20 0xFFFFFFFFFFFFFFFFFFFFFFFFFFFFFFFFFFFFFFFF MUL NOT AND SWAP1 DUP4 PUSH20 0xFFFFFFFFFFFFFFFFFFFFFFFFFFFFFFFFFFFFFFFF AND MUL OR SWAP1 SSTORE POP JUMP JUMPDEST PUSH1 0x0 PUSH1 0x4 PUSH1 0x0 DUP4 DUP2 MSTORE PUSH1 0x20 ADD SWAP1 DUP2 MSTORE PUSH1 0x20 ADD PUSH1 0x0 KECCAK256 PUSH1 0x2 ADD SLOAD SWAP1 POP SWAP2 SWAP1 POP JUMP JUMPDEST PUSH1 0x0 DUP5 DUP5 DUP5 DUP5 PUSH1 0x40 MLOAD PUSH1 0x20 ADD PUSH2 0xB12 SWAP5 SWAP4 SWAP3 SWAP2 SWAP1 PUSH2 0x1B26 JUMP JUMPDEST PUSH1 0x40 MLOAD PUSH1 0x20 DUP2 DUP4 SUB SUB DUP2 MSTORE SWAP1 PUSH1 0x40 MSTORE DUP1 MLOAD SWAP1 PUSH1 0x20 ADD KECCAK256 SWAP1 POP SWAP5 SWAP4 POP POP POP POP JUMP JUMPDEST PUSH1 0x0 DUP3 PUSH1 0x0 ADD PUSH1 0x10 SWAP1 SLOAD SWAP1 PUSH2 0x100 EXP SWAP1 DIV PUSH1 0xF SIGNEXTEND SWAP1 POP DUP2 DUP4 PUSH1 0x1 ADD PUSH1 0x0 DUP4 PUSH1 0xF SIGNEXTEND PUSH1 0xF SIGNEXTEND DUP2 MSTORE PUSH1 0x20 ADD SWAP1 DUP2 MSTORE PUSH1 0x20 ADD PUSH1 0x0 KECCAK256 DUP2 SWAP1 SSTORE POP PUSH1 0x1 DUP2 ADD DUP4 PUSH1 0x0 ADD PUSH1 0x10 PUSH2 0x100 EXP DUP2 SLOAD DUP2 PUSH16 0xFFFFFFFFFFFFFFFFFFFFFFFFFFFFFFFF MUL NOT AND SWAP1 DUP4 PUSH1 0xF SIGNEXTEND PUSH16 0xFFFFFFFFFFFFFFFFFFFFFFFFFFFFFFFF AND MUL OR SWAP1 SSTORE POP POP POP POP JUMP JUMPDEST PUSH1 0x0 DUP2 PUSH1 0x0 ADD PUSH1 0x0 SWAP1 SLOAD SWAP1 PUSH2 0x100 EXP SWAP1 DIV PUSH1 0xF SIGNEXTEND PUSH1 0xF SIGNEXTEND DUP3 PUSH1 0x0 ADD PUSH1 0x10 SWAP1 SLOAD SWAP1 PUSH2 0x100 EXP SWAP1 DIV PUSH1 0xF SIGNEXTEND PUSH1 0xF SIGNEXTEND SUB SWAP1 POP SWAP2 SWAP1 POP JUMP JUMPDEST PUSH2 0xBEA PUSH2 0x15B1 JUMP JUMPDEST PUSH1 0x0 DUP1 PUSH2 0xBF8 PUSH1 0x2 DUP6 PUSH2 0x129D JUMP JUMPDEST SWAP1 POP PUSH1 0x4 PUSH1 0x0 DUP3 DUP2 MSTORE PUSH1 0x20 ADD SWAP1 DUP2 MSTORE PUSH1 0x20 ADD PUSH1 0x0 KECCAK256 PUSH1 0x40 MLOAD DUP1 PUSH1 0x80 ADD PUSH1 0x40 MSTORE SWAP1 DUP2 PUSH1 0x0 DUP3 ADD SLOAD DUP2 MSTORE PUSH1 0x20 ADD PUSH1 0x1 DUP3 ADD SLOAD DUP2 MSTORE PUSH1 0x20 ADD PUSH1 0x2 DUP3 ADD SLOAD DUP2 MSTORE PUSH1 0x20 ADD PUSH1 0x3 DUP3 ADD PUSH1 0x0 SWAP1 SLOAD SWAP1 PUSH2 0x100 EXP SWAP1 DIV PUSH20 0xFFFFFFFFFFFFFFFFFFFFFFFFFFFFFFFFFFFFFFFF AND PUSH20 0xFFFFFFFFFFFFFFFFFFFFFFFFFFFFFFFFFFFFFFFF AND PUSH20 0xFFFFFFFFFFFFFFFFFFFFFFFFFFFFFFFFFFFFFFFF AND DUP2 MSTORE POP POP SWAP3 POP PUSH1 0x0 DUP4 PUSH1 0x40 ADD MLOAD EQ DUP1 ISZERO PUSH2 0xCD2 JUMPI POP PUSH1 0x0 PUSH20 0xFFFFFFFFFFFFFFFFFFFFFFFFFFFFFFFFFFFFFFFF AND DUP4 PUSH1 0x60 ADD MLOAD PUSH20 0xFFFFFFFFFFFFFFFFFFFFFFFFFFFFFFFFFFFFFFFF AND EQ JUMPDEST ISZERO PUSH2 0xCE1 JUMPI PUSH1 0x1 SWAP2 POP POP PUSH2 0xCE7 JUMP JUMPDEST PUSH1 0x0 SWAP2 POP POP JUMPDEST SWAP2 POP SWAP2 JUMP JUMPDEST PUSH1 0x0 DUP2 MLOAD EQ ISZERO PUSH2 0xD6B JUMPI DUP2 PUSH20 0xFFFFFFFFFFFFFFFFFFFFFFFFFFFFFFFFFFFFFFFF AND PUSH4 0x42BA6D28 DUP5 PUSH1 0x0 DUP1 PUSH1 0x40 MLOAD DUP5 PUSH4 0xFFFFFFFF AND PUSH1 0xE0 SHL DUP2 MSTORE PUSH1 0x4 ADD PUSH2 0xD34 SWAP4 SWAP3 SWAP2 SWAP1 PUSH2 0x1BA1 JUMP JUMPDEST PUSH1 0x0 PUSH1 0x40 MLOAD DUP1 DUP4 SUB DUP2 PUSH1 0x0 DUP8 DUP1 EXTCODESIZE ISZERO DUP1 ISZERO PUSH2 0xD4E JUMPI PUSH1 0x0 DUP1 REVERT JUMPDEST POP GAS CALL ISZERO DUP1 ISZERO PUSH2 0xD62 JUMPI RETURNDATASIZE PUSH1 0x0 DUP1 RETURNDATACOPY RETURNDATASIZE PUSH1 0x0 REVERT JUMPDEST POP POP POP POP PUSH2 0xFA4 JUMP JUMPDEST PUSH1 0x0 PUSH1 0x6 PUSH1 0x0 SWAP1 SLOAD SWAP1 PUSH2 0x100 EXP SWAP1 DIV PUSH20 0xFFFFFFFFFFFFFFFFFFFFFFFFFFFFFFFFFFFFFFFF AND PUSH20 0xFFFFFFFFFFFFFFFFFFFFFFFFFFFFFFFFFFFFFFFF AND PUSH4 0xEDD3159D PUSH1 0x40 MLOAD DUP2 PUSH4 0xFFFFFFFF AND PUSH1 0xE0 SHL DUP2 MSTORE PUSH1 0x4 ADD PUSH1 0x20 PUSH1 0x40 MLOAD DUP1 DUP4 SUB DUP2 DUP7 DUP1 EXTCODESIZE ISZERO DUP1 ISZERO PUSH2 0xDD5 JUMPI PUSH1 0x0 DUP1 REVERT JUMPDEST POP GAS STATICCALL ISZERO DUP1 ISZERO PUSH2 0xDE9 JUMPI RETURNDATASIZE PUSH1 0x0 DUP1 RETURNDATACOPY RETURNDATASIZE PUSH1 0x0 REVERT JUMPDEST POP POP POP POP PUSH1 0x40 MLOAD RETURNDATASIZE PUSH1 0x1F NOT PUSH1 0x1F DUP3 ADD AND DUP3 ADD DUP1 PUSH1 0x40 MSTORE POP DUP2 ADD SWAP1 PUSH2 0xE0D SWAP2 SWAP1 PUSH2 0x1905 JUMP JUMPDEST SWAP1 POP PUSH1 0x0 PUSH1 0x5 DUP1 SLOAD SWAP1 POP GT ISZERO PUSH2 0xEF2 JUMPI PUSH1 0x0 DUP3 PUSH1 0x5 DUP1 DUP1 SLOAD SWAP1 POP DUP5 PUSH2 0xE32 SWAP2 SWAP1 PUSH2 0x1F94 JUMP JUMPDEST DUP2 SLOAD DUP2 LT PUSH2 0xE43 JUMPI PUSH2 0xE42 PUSH2 0x2052 JUMP JUMPDEST JUMPDEST SWAP1 PUSH1 0x0 MSTORE PUSH1 0x20 PUSH1 0x0 KECCAK256 ADD SLOAD DUP2 MLOAD DUP2 LT PUSH2 0xE5F JUMPI PUSH2 0xE5E PUSH2 0x2052 JUMP JUMPDEST JUMPDEST PUSH1 0x20 MUL PUSH1 0x20 ADD ADD MLOAD SWAP1 POP DUP4 PUSH20 0xFFFFFFFFFFFFFFFFFFFFFFFFFFFFFFFFFFFFFFFF AND PUSH4 0x42BA6D28 DUP7 DUP4 PUSH1 0x0 ADD MLOAD DUP5 PUSH1 0x40 ADD MLOAD DUP6 PUSH1 0x60 ADD MLOAD DUP7 PUSH1 0x80 ADD MLOAD PUSH1 0x40 MLOAD DUP7 PUSH4 0xFFFFFFFF AND PUSH1 0xE0 SHL DUP2 MSTORE PUSH1 0x4 ADD PUSH2 0xEBA SWAP6 SWAP5 SWAP4 SWAP3 SWAP2 SWAP1 PUSH2 0x1BFE JUMP JUMPDEST PUSH1 0x0 PUSH1 0x40 MLOAD DUP1 DUP4 SUB DUP2 PUSH1 0x0 DUP8 DUP1 EXTCODESIZE ISZERO DUP1 ISZERO PUSH2 0xED4 JUMPI PUSH1 0x0 DUP1 REVERT JUMPDEST POP GAS CALL ISZERO DUP1 ISZERO PUSH2 0xEE8 JUMPI RETURNDATASIZE PUSH1 0x0 DUP1 RETURNDATACOPY RETURNDATASIZE PUSH1 0x0 REVERT JUMPDEST POP POP POP POP POP PUSH2 0xFA2 JUMP JUMPDEST PUSH1 0x0 DUP3 DUP4 MLOAD DUP4 PUSH2 0xF02 SWAP2 SWAP1 PUSH2 0x1F94 JUMP JUMPDEST DUP2 MLOAD DUP2 LT PUSH2 0xF13 JUMPI PUSH2 0xF12 PUSH2 0x2052 JUMP JUMPDEST JUMPDEST PUSH1 0x20 MUL PUSH1 0x20 ADD ADD MLOAD SWAP1 POP DUP4 PUSH20 0xFFFFFFFFFFFFFFFFFFFFFFFFFFFFFFFFFFFFFFFF AND PUSH4 0x42BA6D28 DUP7 DUP4 PUSH1 0x0 ADD MLOAD DUP5 PUSH1 0x40 ADD MLOAD DUP6 PUSH1 0x60 ADD MLOAD DUP7 PUSH1 0x80 ADD MLOAD PUSH1 0x40 MLOAD DUP7 PUSH4 0xFFFFFFFF AND PUSH1 0xE0 SHL DUP2 MSTORE PUSH1 0x4 ADD PUSH2 0xF6E SWAP6 SWAP5 SWAP4 SWAP3 SWAP2 SWAP1 PUSH2 0x1BFE JUMP JUMPDEST PUSH1 0x0 PUSH1 0x40 MLOAD DUP1 DUP4 SUB DUP2 PUSH1 0x0 DUP8 DUP1 EXTCODESIZE ISZERO DUP1 ISZERO PUSH2 0xF88 JUMPI PUSH1 0x0 DUP1 REVERT JUMPDEST POP GAS CALL ISZERO DUP1 ISZERO PUSH2 0xF9C JUMPI RETURNDATASIZE PUSH1 0x0 DUP1 RETURNDATACOPY RETURNDATASIZE PUSH1 0x0 REVERT JUMPDEST POP POP POP POP POP JUMPDEST POP JUMPDEST POP POP POP JUMP JUMPDEST PUSH1 0x0 PUSH2 0xFB5 PUSH1 0x2 PUSH2 0x1347 JUMP JUMPDEST SWAP1 POP DUP2 DUP2 EQ ISZERO PUSH2 0x1025 JUMPI PUSH2 0xFC9 PUSH1 0x2 PUSH2 0x13C3 JUMP JUMPDEST POP PUSH1 0x4 PUSH1 0x0 DUP4 DUP2 MSTORE PUSH1 0x20 ADD SWAP1 DUP2 MSTORE PUSH1 0x20 ADD PUSH1 0x0 KECCAK256 PUSH1 0x0 DUP1 DUP3 ADD PUSH1 0x0 SWAP1 SSTORE PUSH1 0x1 DUP3 ADD PUSH1 0x0 SWAP1 SSTORE PUSH1 0x2 DUP3 ADD PUSH1 0x0 SWAP1 SSTORE PUSH1 0x3 DUP3 ADD PUSH1 0x0 PUSH2 0x100 EXP DUP2 SLOAD SWAP1 PUSH20 0xFFFFFFFFFFFFFFFFFFFFFFFFFFFFFFFFFFFFFFFF MUL NOT AND SWAP1 SSTORE POP POP POP PUSH2 0x107C JUMP JUMPDEST PUSH1 0x4 PUSH1 0x0 DUP4 DUP2 MSTORE PUSH1 0x20 ADD SWAP1 DUP2 MSTORE PUSH1 0x20 ADD PUSH1 0x0 KECCAK256 PUSH1 0x0 DUP1 DUP3 ADD PUSH1 0x0 SWAP1 SSTORE PUSH1 0x1 DUP3 ADD PUSH1 0x0 SWAP1 SSTORE PUSH1 0x2 DUP3 ADD PUSH1 0x0 SWAP1 SSTORE PUSH1 0x3 DUP3 ADD PUSH1 0x0 PUSH2 0x100 EXP DUP2 SLOAD SWAP1 PUSH20 0xFFFFFFFFFFFFFFFFFFFFFFFFFFFFFFFFFFFFFFFF MUL NOT AND SWAP1 SSTORE POP POP POP JUMPDEST POP JUMP JUMPDEST PUSH1 0x0 JUMPDEST DUP2 MLOAD DUP2 LT ISZERO PUSH2 0x1299 JUMPI PUSH1 0x0 DUP1 DUP4 DUP4 DUP2 MLOAD DUP2 LT PUSH2 0x10A1 JUMPI PUSH2 0x10A0 PUSH2 0x2052 JUMP JUMPDEST JUMPDEST PUSH1 0x20 MUL PUSH1 0x20 ADD ADD MLOAD PUSH1 0x60 ADD MLOAD MLOAD EQ ISZERO SWAP1 POP PUSH1 0x0 PUSH1 0x5 DUP1 SLOAD SWAP1 POP EQ DUP1 ISZERO PUSH2 0x10C4 JUMPI POP DUP1 JUMPDEST ISZERO PUSH2 0x10F8 JUMPI PUSH1 0x5 DUP3 SWAP1 DUP1 PUSH1 0x1 DUP2 SLOAD ADD DUP1 DUP3 SSTORE DUP1 SWAP2 POP POP PUSH1 0x1 SWAP1 SUB SWAP1 PUSH1 0x0 MSTORE PUSH1 0x20 PUSH1 0x0 KECCAK256 ADD PUSH1 0x0 SWAP1 SWAP2 SWAP1 SWAP2 SWAP1 SWAP2 POP SSTORE POP PUSH2 0x1286 JUMP JUMPDEST DUP3 DUP3 DUP2 MLOAD DUP2 LT PUSH2 0x110B JUMPI PUSH2 0x110A PUSH2 0x2052 JUMP JUMPDEST JUMPDEST PUSH1 0x20 MUL PUSH1 0x20 ADD ADD MLOAD PUSH1 0x40 ADD MLOAD DUP4 PUSH1 0x5 PUSH1 0x0 DUP2 SLOAD DUP2 LT PUSH2 0x112D JUMPI PUSH2 0x112C PUSH2 0x2052 JUMP JUMPDEST JUMPDEST SWAP1 PUSH1 0x0 MSTORE PUSH1 0x20 PUSH1 0x0 KECCAK256 ADD SLOAD DUP2 MLOAD DUP2 LT PUSH2 0x1149 JUMPI PUSH2 0x1148 PUSH2 0x2052 JUMP JUMPDEST JUMPDEST PUSH1 0x20 MUL PUSH1 0x20 ADD ADD MLOAD PUSH1 0x40 ADD MLOAD GT ISZERO PUSH2 0x1161 JUMPI POP PUSH2 0x1286 JUMP JUMPDEST DUP3 DUP3 DUP2 MLOAD DUP2 LT PUSH2 0x1174 JUMPI PUSH2 0x1173 PUSH2 0x2052 JUMP JUMPDEST JUMPDEST PUSH1 0x20 MUL PUSH1 0x20 ADD ADD MLOAD PUSH1 0x40 ADD MLOAD DUP4 PUSH1 0x5 PUSH1 0x0 DUP2 SLOAD DUP2 LT PUSH2 0x1196 JUMPI PUSH2 0x1195 PUSH2 0x2052 JUMP JUMPDEST JUMPDEST SWAP1 PUSH1 0x0 MSTORE PUSH1 0x20 PUSH1 0x0 KECCAK256 ADD SLOAD DUP2 MLOAD DUP2 LT PUSH2 0x11B2 JUMPI PUSH2 0x11B1 PUSH2 0x2052 JUMP JUMPDEST JUMPDEST PUSH1 0x20 MUL PUSH1 0x20 ADD ADD MLOAD PUSH1 0x40 ADD MLOAD LT DUP1 ISZERO PUSH2 0x11C8 JUMPI POP DUP1 JUMPDEST ISZERO PUSH2 0x11EE JUMPI PUSH1 0x40 MLOAD DUP1 PUSH1 0x20 ADD PUSH1 0x40 MSTORE DUP1 DUP4 DUP2 MSTORE POP PUSH1 0x5 SWAP1 PUSH1 0x1 PUSH2 0x11EC SWAP3 SWAP2 SWAP1 PUSH2 0x167B JUMP JUMPDEST POP JUMPDEST DUP3 DUP3 DUP2 MLOAD DUP2 LT PUSH2 0x1201 JUMPI PUSH2 0x1200 PUSH2 0x2052 JUMP JUMPDEST JUMPDEST PUSH1 0x20 MUL PUSH1 0x20 ADD ADD MLOAD PUSH1 0x40 ADD MLOAD DUP4 PUSH1 0x5 PUSH1 0x0 DUP2 SLOAD DUP2 LT PUSH2 0x1223 JUMPI PUSH2 0x1222 PUSH2 0x2052 JUMP JUMPDEST JUMPDEST SWAP1 PUSH1 0x0 MSTORE PUSH1 0x20 PUSH1 0x0 KECCAK256 ADD SLOAD DUP2 MLOAD DUP2 LT PUSH2 0x123F JUMPI PUSH2 0x123E PUSH2 0x2052 JUMP JUMPDEST JUMPDEST PUSH1 0x20 MUL PUSH1 0x20 ADD ADD MLOAD PUSH1 0x40 ADD MLOAD EQ DUP1 ISZERO PUSH2 0x1255 JUMPI POP DUP1 JUMPDEST ISZERO PUSH2 0x1284 JUMPI PUSH1 0x5 DUP3 SWAP1 DUP1 PUSH1 0x1 DUP2 SLOAD ADD DUP1 DUP3 SSTORE DUP1 SWAP2 POP POP PUSH1 0x1 SWAP1 SUB SWAP1 PUSH1 0x0 MSTORE PUSH1 0x20 PUSH1 0x0 KECCAK256 ADD PUSH1 0x0 SWAP1 SWAP2 SWAP1 SWAP2 SWAP1 SWAP2 POP SSTORE JUMPDEST POP JUMPDEST DUP1 DUP1 PUSH2 0x1291 SWAP1 PUSH2 0x1F4B JUMP JUMPDEST SWAP2 POP POP PUSH2 0x1082 JUMP JUMPDEST POP POP JUMP JUMPDEST PUSH1 0x0 DUP1 PUSH2 0x12D0 PUSH2 0x12AC DUP5 PUSH2 0x149F JUMP JUMPDEST DUP6 PUSH1 0x0 ADD PUSH1 0x0 SWAP1 SLOAD SWAP1 PUSH2 0x100 EXP SWAP1 DIV PUSH1 0xF SIGNEXTEND PUSH1 0xF SIGNEXTEND PUSH2 0x12CB SWAP2 SWAP1 PUSH2 0x1D7F JUMP JUMPDEST PUSH2 0x150C JUMP JUMPDEST SWAP1 POP DUP4 PUSH1 0x0 ADD PUSH1 0x10 SWAP1 SLOAD SWAP1 PUSH2 0x100 EXP SWAP1 DIV PUSH1 0xF SIGNEXTEND PUSH1 0xF SIGNEXTEND DUP2 PUSH1 0xF SIGNEXTEND SLT PUSH2 0x1322 JUMPI PUSH1 0x40 MLOAD PUSH32 0xB4120F1400000000000000000000000000000000000000000000000000000000 DUP2 MSTORE PUSH1 0x4 ADD PUSH1 0x40 MLOAD DUP1 SWAP2 SUB SWAP1 REVERT JUMPDEST DUP4 PUSH1 0x1 ADD PUSH1 0x0 DUP3 PUSH1 0xF SIGNEXTEND PUSH1 0xF SIGNEXTEND DUP2 MSTORE PUSH1 0x20 ADD SWAP1 DUP2 MSTORE PUSH1 0x20 ADD PUSH1 0x0 KECCAK256 SLOAD SWAP2 POP POP SWAP3 SWAP2 POP POP JUMP JUMPDEST PUSH1 0x0 PUSH2 0x1352 DUP3 PUSH2 0x155B JUMP JUMPDEST ISZERO PUSH2 0x1389 JUMPI PUSH1 0x40 MLOAD PUSH32 0x3DB2A12A00000000000000000000000000000000000000000000000000000000 DUP2 MSTORE PUSH1 0x4 ADD PUSH1 0x40 MLOAD DUP1 SWAP2 SUB SWAP1 REVERT JUMPDEST PUSH1 0x0 DUP3 PUSH1 0x0 ADD PUSH1 0x0 SWAP1 SLOAD SWAP1 PUSH2 0x100 EXP SWAP1 DIV PUSH1 0xF SIGNEXTEND SWAP1 POP DUP3 PUSH1 0x1 ADD PUSH1 0x0 DUP3 PUSH1 0xF SIGNEXTEND PUSH1 0xF SIGNEXTEND DUP2 MSTORE PUSH1 0x20 ADD SWAP1 DUP2 MSTORE PUSH1 0x20 ADD PUSH1 0x0 KECCAK256 SLOAD SWAP2 POP POP SWAP2 SWAP1 POP JUMP JUMPDEST PUSH1 0x0 PUSH2 0x13CE DUP3 PUSH2 0x155B JUMP JUMPDEST ISZERO PUSH2 0x1405 JUMPI PUSH1 0x40 MLOAD PUSH32 0x3DB2A12A00000000000000000000000000000000000000000000000000000000 DUP2 MSTORE PUSH1 0x4 ADD PUSH1 0x40 MLOAD DUP1 SWAP2 SUB SWAP1 REVERT JUMPDEST PUSH1 0x0 DUP3 PUSH1 0x0 ADD PUSH1 0x0 SWAP1 SLOAD SWAP1 PUSH2 0x100 EXP SWAP1 DIV PUSH1 0xF SIGNEXTEND SWAP1 POP DUP3 PUSH1 0x1 ADD PUSH1 0x0 DUP3 PUSH1 0xF SIGNEXTEND PUSH1 0xF SIGNEXTEND DUP2 MSTORE PUSH1 0x20 ADD SWAP1 DUP2 MSTORE PUSH1 0x20 ADD PUSH1 0x0 KECCAK256 SLOAD SWAP2 POP DUP3 PUSH1 0x1 ADD PUSH1 0x0 DUP3 PUSH1 0xF SIGNEXTEND PUSH1 0xF SIGNEXTEND DUP2 MSTORE PUSH1 0x20 ADD SWAP1 DUP2 MSTORE PUSH1 0x20 ADD PUSH1 0x0 KECCAK256 PUSH1 0x0 SWAP1 SSTORE PUSH1 0x1 DUP2 ADD DUP4 PUSH1 0x0 ADD PUSH1 0x0 PUSH2 0x100 EXP DUP2 SLOAD DUP2 PUSH16 0xFFFFFFFFFFFFFFFFFFFFFFFFFFFFFFFF MUL NOT AND SWAP1 DUP4 PUSH1 0xF SIGNEXTEND PUSH16 0xFFFFFFFFFFFFFFFFFFFFFFFFFFFFFFFF AND MUL OR SWAP1 SSTORE POP POP SWAP2 SWAP1 POP JUMP JUMPDEST PUSH1 0x0 PUSH32 0x7FFFFFFFFFFFFFFFFFFFFFFFFFFFFFFFFFFFFFFFFFFFFFFFFFFFFFFFFFFFFFFF DUP3 GT ISZERO PUSH2 0x1504 JUMPI PUSH1 0x40 MLOAD PUSH32 0x8C379A000000000000000000000000000000000000000000000000000000000 DUP2 MSTORE PUSH1 0x4 ADD PUSH2 0x14FB SWAP1 PUSH2 0x1CDB JUMP JUMPDEST PUSH1 0x40 MLOAD DUP1 SWAP2 SUB SWAP1 REVERT JUMPDEST DUP2 SWAP1 POP SWAP2 SWAP1 POP JUMP JUMPDEST PUSH1 0x0 DUP2 SWAP1 POP DUP2 DUP2 PUSH1 0xF SIGNEXTEND EQ PUSH2 0x1556 JUMPI PUSH1 0x40 MLOAD PUSH32 0x8C379A000000000000000000000000000000000000000000000000000000000 DUP2 MSTORE PUSH1 0x4 ADD PUSH2 0x154D SWAP1 PUSH2 0x1CBB JUMP JUMPDEST PUSH1 0x40 MLOAD DUP1 SWAP2 SUB SWAP1 REVERT JUMPDEST SWAP2 SWAP1 POP JUMP JUMPDEST PUSH1 0x0 DUP2 PUSH1 0x0 ADD PUSH1 0x0 SWAP1 SLOAD SWAP1 PUSH2 0x100 EXP SWAP1 DIV PUSH1 0xF SIGNEXTEND PUSH1 0xF SIGNEXTEND DUP3 PUSH1 0x0 ADD PUSH1 0x10 SWAP1 SLOAD SWAP1 PUSH2 0x100 EXP SWAP1 DIV PUSH1 0xF SIGNEXTEND PUSH1 0xF SIGNEXTEND SGT ISZERO SWAP1 POP SWAP2 SWAP1 POP JUMP JUMPDEST POP DUP1 SLOAD PUSH1 0x0 DUP3 SSTORE SWAP1 PUSH1 0x0 MSTORE PUSH1 0x20 PUSH1 0x0 KECCAK256 SWAP1 DUP2 ADD SWAP1 PUSH2 0x15AE SWAP2 SWAP1 PUSH2 0x16C8 JUMP JUMPDEST POP JUMP JUMPDEST PUSH1 0x40 MLOAD DUP1 PUSH1 0x80 ADD PUSH1 0x40 MSTORE DUP1 PUSH1 0x0 DUP1 NOT AND DUP2 MSTORE PUSH1 0x20 ADD PUSH1 0x0 DUP1 NOT AND DUP2 MSTORE PUSH1 0x20 ADD PUSH1 0x0 DUP2 MSTORE PUSH1 0x20 ADD PUSH1 0x0 PUSH20 0xFFFFFFFFFFFFFFFFFFFFFFFFFFFFFFFFFFFFFFFF AND DUP2 MSTORE POP SWAP1 JUMP JUMPDEST DUP3 DUP1 SLOAD PUSH2 0x1601 SWAP1 PUSH2 0x1F19 JUMP JUMPDEST SWAP1 PUSH1 0x0 MSTORE PUSH1 0x20 PUSH1 0x0 KECCAK256 SWAP1 PUSH1 0x1F ADD PUSH1 0x20 SWAP1 DIV DUP2 ADD SWAP3 DUP3 PUSH2 0x1623 JUMPI PUSH1 0x0 DUP6 SSTORE PUSH2 0x166A JUMP JUMPDEST DUP3 PUSH1 0x1F LT PUSH2 0x163C JUMPI DUP1 MLOAD PUSH1 0xFF NOT AND DUP4 DUP1 ADD OR DUP6 SSTORE PUSH2 0x166A JUMP JUMPDEST DUP3 DUP1 ADD PUSH1 0x1 ADD DUP6 SSTORE DUP3 ISZERO PUSH2 0x166A JUMPI SWAP2 DUP3 ADD JUMPDEST DUP3 DUP2 GT ISZERO PUSH2 0x1669 JUMPI DUP3 MLOAD DUP3 SSTORE SWAP2 PUSH1 0x20 ADD SWAP2 SWAP1 PUSH1 0x1 ADD SWAP1 PUSH2 0x164E JUMP JUMPDEST JUMPDEST POP SWAP1 POP PUSH2 0x1677 SWAP2 SWAP1 PUSH2 0x16C8 JUMP JUMPDEST POP SWAP1 JUMP JUMPDEST DUP3 DUP1 SLOAD DUP3 DUP3 SSTORE SWAP1 PUSH1 0x0 MSTORE PUSH1 0x20 PUSH1 0x0 KECCAK256 SWAP1 DUP2 ADD SWAP3 DUP3 ISZERO PUSH2 0x16B7 JUMPI SWAP2 PUSH1 0x20 MUL DUP3 ADD JUMPDEST DUP3 DUP2 GT ISZERO PUSH2 0x16B6 JUMPI DUP3 MLOAD DUP3 SSTORE SWAP2 PUSH1 0x20 ADD SWAP2 SWAP1 PUSH1 0x1 ADD SWAP1 PUSH2 0x169B JUMP JUMPDEST JUMPDEST POP SWAP1 POP PUSH2 0x16C4 SWAP2 SWAP1 PUSH2 0x16C8 JUMP JUMPDEST POP SWAP1 JUMP JUMPDEST JUMPDEST DUP1 DUP3 GT ISZERO PUSH2 0x16E1 JUMPI PUSH1 0x0 DUP2 PUSH1 0x0 SWAP1 SSTORE POP PUSH1 0x1 ADD PUSH2 0x16C9 JUMP JUMPDEST POP SWAP1 JUMP JUMPDEST PUSH1 0x0 DUP2 CALLDATALOAD SWAP1 POP PUSH2 0x16F4 DUP2 PUSH2 0x21F0 JUMP JUMPDEST SWAP3 SWAP2 POP POP JUMP JUMPDEST PUSH1 0x0 DUP2 CALLDATALOAD SWAP1 POP PUSH2 0x1709 DUP2 PUSH2 0x2207 JUMP JUMPDEST SWAP3 SWAP2 POP POP JUMP JUMPDEST PUSH1 0x0 DUP1 DUP4 PUSH1 0x1F DUP5 ADD SLT PUSH2 0x1725 JUMPI PUSH2 0x1724 PUSH2 0x2086 JUMP JUMPDEST JUMPDEST DUP3 CALLDATALOAD SWAP1 POP PUSH8 0xFFFFFFFFFFFFFFFF DUP2 GT ISZERO PUSH2 0x1742 JUMPI PUSH2 0x1741 PUSH2 0x2081 JUMP JUMPDEST JUMPDEST PUSH1 0x20 DUP4 ADD SWAP2 POP DUP4 PUSH1 0x1 DUP3 MUL DUP4 ADD GT ISZERO PUSH2 0x175E JUMPI PUSH2 0x175D PUSH2 0x208B JUMP JUMPDEST JUMPDEST SWAP3 POP SWAP3 SWAP1 POP JUMP JUMPDEST PUSH1 0x0 DUP2 CALLDATALOAD SWAP1 POP PUSH2 0x1774 DUP2 PUSH2 0x221E JUMP JUMPDEST SWAP3 SWAP2 POP POP JUMP JUMPDEST PUSH1 0x0 DUP2 MLOAD SWAP1 POP PUSH2 0x1789 DUP2 PUSH2 0x221E JUMP JUMPDEST SWAP3 SWAP2 POP POP JUMP JUMPDEST PUSH1 0x0 PUSH1 0x20 DUP3 DUP5 SUB SLT ISZERO PUSH2 0x17A5 JUMPI PUSH2 0x17A4 PUSH2 0x2095 JUMP JUMPDEST JUMPDEST PUSH1 0x0 PUSH2 0x17B3 DUP5 DUP3 DUP6 ADD PUSH2 0x16FA JUMP JUMPDEST SWAP2 POP POP SWAP3 SWAP2 POP POP JUMP JUMPDEST PUSH1 0x0 DUP1 PUSH1 0x0 DUP1 PUSH1 0x0 DUP1 PUSH1 0x0 PUSH1 0xA0 DUP9 DUP11 SUB SLT ISZERO PUSH2 0x17DB JUMPI PUSH2 0x17DA PUSH2 0x2095 JUMP JUMPDEST JUMPDEST PUSH1 0x0 PUSH2 0x17E9 DUP11 DUP3 DUP12 ADD PUSH2 0x16FA JUMP JUMPDEST SWAP8 POP POP PUSH1 0x20 PUSH2 0x17FA DUP11 DUP3 DUP12 ADD PUSH2 0x16E5 JUMP JUMPDEST SWAP7 POP POP PUSH1 0x40 PUSH2 0x180B DUP11 DUP3 DUP12 ADD PUSH2 0x1765 JUMP JUMPDEST SWAP6 POP POP PUSH1 0x60 DUP9 ADD CALLDATALOAD PUSH8 0xFFFFFFFFFFFFFFFF DUP2 GT ISZERO PUSH2 0x182C JUMPI PUSH2 0x182B PUSH2 0x2090 JUMP JUMPDEST JUMPDEST PUSH2 0x1838 DUP11 DUP3 DUP12 ADD PUSH2 0x170F JUMP JUMPDEST SWAP5 POP SWAP5 POP POP PUSH1 0x80 DUP9 ADD CALLDATALOAD PUSH8 0xFFFFFFFFFFFFFFFF DUP2 GT ISZERO PUSH2 0x185B JUMPI PUSH2 0x185A PUSH2 0x2090 JUMP JUMPDEST JUMPDEST PUSH2 0x1867 DUP11 DUP3 DUP12 ADD PUSH2 0x170F JUMP JUMPDEST SWAP3 POP SWAP3 POP POP SWAP3 SWAP6 SWAP9 SWAP2 SWAP5 SWAP8 POP SWAP3 SWAP6 POP JUMP JUMPDEST PUSH1 0x0 DUP1 PUSH1 0x0 PUSH1 0x40 DUP5 DUP7 SUB SLT ISZERO PUSH2 0x1891 JUMPI PUSH2 0x1890 PUSH2 0x2095 JUMP JUMPDEST JUMPDEST PUSH1 0x0 PUSH2 0x189F DUP7 DUP3 DUP8 ADD PUSH2 0x16FA JUMP JUMPDEST SWAP4 POP POP PUSH1 0x20 DUP5 ADD CALLDATALOAD PUSH8 0xFFFFFFFFFFFFFFFF DUP2 GT ISZERO PUSH2 0x18C0 JUMPI PUSH2 0x18BF PUSH2 0x2090 JUMP JUMPDEST JUMPDEST PUSH2 0x18CC DUP7 DUP3 DUP8 ADD PUSH2 0x170F JUMP JUMPDEST SWAP3 POP SWAP3 POP POP SWAP3 POP SWAP3 POP SWAP3 JUMP JUMPDEST PUSH1 0x0 PUSH1 0x20 DUP3 DUP5 SUB SLT ISZERO PUSH2 0x18EE JUMPI PUSH2 0x18ED PUSH2 0x2095 JUMP JUMPDEST JUMPDEST PUSH1 0x0 PUSH2 0x18FC DUP5 DUP3 DUP6 ADD PUSH2 0x1765 JUMP JUMPDEST SWAP2 POP POP SWAP3 SWAP2 POP POP JUMP JUMPDEST PUSH1 0x0 PUSH1 0x20 DUP3 DUP5 SUB SLT ISZERO PUSH2 0x191B JUMPI PUSH2 0x191A PUSH2 0x2095 JUMP JUMPDEST JUMPDEST PUSH1 0x0 PUSH2 0x1929 DUP5 DUP3 DUP6 ADD PUSH2 0x177A JUMP JUMPDEST SWAP2 POP POP SWAP3 SWAP2 POP POP JUMP JUMPDEST PUSH2 0x193B DUP2 PUSH2 0x1E69 JUMP JUMPDEST DUP3 MSTORE POP POP JUMP JUMPDEST PUSH2 0x194A DUP2 PUSH2 0x1E7B JUMP JUMPDEST DUP3 MSTORE POP POP JUMP JUMPDEST PUSH2 0x1959 DUP2 PUSH2 0x1E87 JUMP JUMPDEST DUP3 MSTORE POP POP JUMP JUMPDEST PUSH1 0x0 PUSH2 0x196B DUP4 DUP6 PUSH2 0x1D5D JUMP JUMPDEST SWAP4 POP PUSH2 0x1978 DUP4 DUP6 DUP5 PUSH2 0x1ED7 JUMP JUMPDEST PUSH2 0x1981 DUP4 PUSH2 0x209A JUMP JUMPDEST DUP5 ADD SWAP1 POP SWAP4 SWAP3 POP POP POP JUMP JUMPDEST PUSH1 0x0 PUSH2 0x1997 DUP3 PUSH2 0x1D52 JUMP JUMPDEST PUSH2 0x19A1 DUP2 DUP6 PUSH2 0x1D5D JUMP JUMPDEST SWAP4 POP PUSH2 0x19B1 DUP2 DUP6 PUSH1 0x20 DUP7 ADD PUSH2 0x1EE6 JUMP JUMPDEST PUSH2 0x19BA DUP2 PUSH2 0x209A JUMP JUMPDEST DUP5 ADD SWAP2 POP POP SWAP3 SWAP2 POP POP JUMP JUMPDEST PUSH2 0x19CE DUP2 PUSH2 0x1EC5 JUMP JUMPDEST DUP3 MSTORE POP POP JUMP JUMPDEST PUSH1 0x0 PUSH2 0x19E1 PUSH1 0x1B DUP4 PUSH2 0x1D6E JUMP JUMPDEST SWAP2 POP PUSH2 0x19EC DUP3 PUSH2 0x20AB JUMP JUMPDEST PUSH1 0x20 DUP3 ADD SWAP1 POP SWAP2 SWAP1 POP JUMP JUMPDEST PUSH1 0x0 PUSH2 0x1A04 PUSH1 0x13 DUP4 PUSH2 0x1D6E JUMP JUMPDEST SWAP2 POP PUSH2 0x1A0F DUP3 PUSH2 0x20D4 JUMP JUMPDEST PUSH1 0x20 DUP3 ADD SWAP1 POP SWAP2 SWAP1 POP JUMP JUMPDEST PUSH1 0x0 PUSH2 0x1A27 PUSH1 0x27 DUP4 PUSH2 0x1D6E JUMP JUMPDEST SWAP2 POP PUSH2 0x1A32 DUP3 PUSH2 0x20FD JUMP JUMPDEST PUSH1 0x40 DUP3 ADD SWAP1 POP SWAP2 SWAP1 POP JUMP JUMPDEST PUSH1 0x0 PUSH2 0x1A4A PUSH1 0x12 DUP4 PUSH2 0x1D6E JUMP JUMPDEST SWAP2 POP PUSH2 0x1A55 DUP3 PUSH2 0x214C JUMP JUMPDEST PUSH1 0x20 DUP3 ADD SWAP1 POP SWAP2 SWAP1 POP JUMP JUMPDEST PUSH1 0x0 PUSH2 0x1A6D PUSH1 0x0 DUP4 PUSH2 0x1D5D JUMP JUMPDEST SWAP2 POP PUSH2 0x1A78 DUP3 PUSH2 0x2175 JUMP JUMPDEST PUSH1 0x0 DUP3 ADD SWAP1 POP SWAP2 SWAP1 POP JUMP JUMPDEST PUSH1 0x0 PUSH2 0x1A90 PUSH1 0x28 DUP4 PUSH2 0x1D6E JUMP JUMPDEST SWAP2 POP PUSH2 0x1A9B DUP3 PUSH2 0x2178 JUMP JUMPDEST PUSH1 0x40 DUP3 ADD SWAP1 POP SWAP2 SWAP1 POP JUMP JUMPDEST PUSH1 0x0 PUSH2 0x1AB3 PUSH1 0x7 DUP4 PUSH2 0x1D5D JUMP JUMPDEST SWAP2 POP PUSH2 0x1ABE DUP3 PUSH2 0x21C7 JUMP JUMPDEST PUSH1 0x20 DUP3 ADD SWAP1 POP SWAP2 SWAP1 POP JUMP JUMPDEST PUSH2 0x1AD2 DUP2 PUSH2 0x1EBB JUMP JUMPDEST DUP3 MSTORE POP POP JUMP JUMPDEST PUSH1 0x0 PUSH1 0x80 DUP3 ADD SWAP1 POP PUSH2 0x1AED PUSH1 0x0 DUP4 ADD DUP9 PUSH2 0x1932 JUMP JUMPDEST PUSH2 0x1AFA PUSH1 0x20 DUP4 ADD DUP8 PUSH2 0x1932 JUMP JUMPDEST PUSH2 0x1B07 PUSH1 0x40 DUP4 ADD DUP7 PUSH2 0x1932 JUMP JUMPDEST DUP2 DUP2 SUB PUSH1 0x60 DUP4 ADD MSTORE PUSH2 0x1B1A DUP2 DUP5 DUP7 PUSH2 0x195F JUMP JUMPDEST SWAP1 POP SWAP7 SWAP6 POP POP POP POP POP POP JUMP JUMPDEST PUSH1 0x0 PUSH1 0x80 DUP3 ADD SWAP1 POP PUSH2 0x1B3B PUSH1 0x0 DUP4 ADD DUP8 PUSH2 0x1932 JUMP JUMPDEST PUSH2 0x1B48 PUSH1 0x20 DUP4 ADD DUP7 PUSH2 0x1932 JUMP JUMPDEST PUSH2 0x1B55 PUSH1 0x40 DUP4 ADD DUP6 PUSH2 0x1950 JUMP JUMPDEST PUSH2 0x1B62 PUSH1 0x60 DUP4 ADD DUP5 PUSH2 0x1AC9 JUMP JUMPDEST SWAP6 SWAP5 POP POP POP POP POP JUMP JUMPDEST PUSH1 0x0 PUSH1 0x20 DUP3 ADD SWAP1 POP PUSH2 0x1B80 PUSH1 0x0 DUP4 ADD DUP5 PUSH2 0x1941 JUMP JUMPDEST SWAP3 SWAP2 POP POP JUMP JUMPDEST PUSH1 0x0 PUSH1 0x20 DUP3 ADD SWAP1 POP PUSH2 0x1B9B PUSH1 0x0 DUP4 ADD DUP5 PUSH2 0x1950 JUMP JUMPDEST SWAP3 SWAP2 POP POP JUMP JUMPDEST PUSH1 0x0 PUSH1 0xA0 DUP3 ADD SWAP1 POP PUSH2 0x1BB6 PUSH1 0x0 DUP4 ADD DUP7 PUSH2 0x1950 JUMP JUMPDEST PUSH2 0x1BC3 PUSH1 0x20 DUP4 ADD DUP6 PUSH2 0x1932 JUMP JUMPDEST PUSH2 0x1BD0 PUSH1 0x40 DUP4 ADD DUP5 PUSH2 0x19C5 JUMP JUMPDEST DUP2 DUP2 SUB PUSH1 0x60 DUP4 ADD MSTORE PUSH2 0x1BE1 DUP2 PUSH2 0x1A60 JUMP JUMPDEST SWAP1 POP DUP2 DUP2 SUB PUSH1 0x80 DUP4 ADD MSTORE PUSH2 0x1BF4 DUP2 PUSH2 0x1AA6 JUMP JUMPDEST SWAP1 POP SWAP5 SWAP4 POP POP POP POP JUMP JUMPDEST PUSH1 0x0 PUSH1 0xA0 DUP3 ADD SWAP1 POP PUSH2 0x1C13 PUSH1 0x0 DUP4 ADD DUP9 PUSH2 0x1950 JUMP JUMPDEST PUSH2 0x1C20 PUSH1 0x20 DUP4 ADD DUP8 PUSH2 0x1932 JUMP JUMPDEST PUSH2 0x1C2D PUSH1 0x40 DUP4 ADD DUP7 PUSH2 0x1AC9 JUMP JUMPDEST DUP2 DUP2 SUB PUSH1 0x60 DUP4 ADD MSTORE PUSH2 0x1C3F DUP2 DUP6 PUSH2 0x198C JUMP JUMPDEST SWAP1 POP DUP2 DUP2 SUB PUSH1 0x80 DUP4 ADD MSTORE PUSH2 0x1C53 DUP2 DUP5 PUSH2 0x198C JUMP JUMPDEST SWAP1 POP SWAP7 SWAP6 POP POP POP POP POP POP JUMP JUMPDEST PUSH1 0x0 PUSH1 0x60 DUP3 ADD SWAP1 POP PUSH2 0x1C74 PUSH1 0x0 DUP4 ADD DUP6 PUSH2 0x19C5 JUMP JUMPDEST PUSH2 0x1C81 PUSH1 0x20 DUP4 ADD DUP5 PUSH2 0x19C5 JUMP JUMPDEST DUP2 DUP2 SUB PUSH1 0x40 DUP4 ADD MSTORE PUSH2 0x1C92 DUP2 PUSH2 0x1A3D JUMP JUMPDEST SWAP1 POP SWAP4 SWAP3 POP POP POP JUMP JUMPDEST PUSH1 0x0 PUSH1 0x20 DUP3 ADD SWAP1 POP DUP2 DUP2 SUB PUSH1 0x0 DUP4 ADD MSTORE PUSH2 0x1CB4 DUP2 PUSH2 0x19D4 JUMP JUMPDEST SWAP1 POP SWAP2 SWAP1 POP JUMP JUMPDEST PUSH1 0x0 PUSH1 0x20 DUP3 ADD SWAP1 POP DUP2 DUP2 SUB PUSH1 0x0 DUP4 ADD MSTORE PUSH2 0x1CD4 DUP2 PUSH2 0x1A1A JUMP JUMPDEST SWAP1 POP SWAP2 SWAP1 POP JUMP JUMPDEST PUSH1 0x0 PUSH1 0x20 DUP3 ADD SWAP1 POP DUP2 DUP2 SUB PUSH1 0x0 DUP4 ADD MSTORE PUSH2 0x1CF4 DUP2 PUSH2 0x1A83 JUMP JUMPDEST SWAP1 POP SWAP2 SWAP1 POP JUMP JUMPDEST PUSH1 0x0 PUSH1 0x20 DUP3 ADD SWAP1 POP PUSH2 0x1D10 PUSH1 0x0 DUP4 ADD DUP5 PUSH2 0x1AC9 JUMP JUMPDEST SWAP3 SWAP2 POP POP JUMP JUMPDEST PUSH1 0x0 PUSH1 0x60 DUP3 ADD SWAP1 POP PUSH2 0x1D2B PUSH1 0x0 DUP4 ADD DUP6 PUSH2 0x1AC9 JUMP JUMPDEST PUSH2 0x1D38 PUSH1 0x20 DUP4 ADD DUP5 PUSH2 0x1AC9 JUMP JUMPDEST DUP2 DUP2 SUB PUSH1 0x40 DUP4 ADD MSTORE PUSH2 0x1D49 DUP2 PUSH2 0x19F7 JUMP JUMPDEST SWAP1 POP SWAP4 SWAP3 POP POP POP JUMP JUMPDEST PUSH1 0x0 DUP2 MLOAD SWAP1 POP SWAP2 SWAP1 POP JUMP JUMPDEST PUSH1 0x0 DUP3 DUP3 MSTORE PUSH1 0x20 DUP3 ADD SWAP1 POP SWAP3 SWAP2 POP POP JUMP JUMPDEST PUSH1 0x0 DUP3 DUP3 MSTORE PUSH1 0x20 DUP3 ADD SWAP1 POP SWAP3 SWAP2 POP POP JUMP JUMPDEST PUSH1 0x0 PUSH2 0x1D8A DUP3 PUSH2 0x1E91 JUMP JUMPDEST SWAP2 POP PUSH2 0x1D95 DUP4 PUSH2 0x1E91 JUMP JUMPDEST SWAP3 POP DUP2 PUSH32 0x7FFFFFFFFFFFFFFFFFFFFFFFFFFFFFFFFFFFFFFFFFFFFFFFFFFFFFFFFFFFFFFF SUB DUP4 SGT PUSH1 0x0 DUP4 SLT ISZERO AND ISZERO PUSH2 0x1DD0 JUMPI PUSH2 0x1DCF PUSH2 0x1FC5 JUMP JUMPDEST JUMPDEST DUP2 PUSH32 0x8000000000000000000000000000000000000000000000000000000000000000 SUB DUP4 SLT PUSH1 0x0 DUP4 SLT AND ISZERO PUSH2 0x1E08 JUMPI PUSH2 0x1E07 PUSH2 0x1FC5 JUMP JUMPDEST JUMPDEST DUP3 DUP3 ADD SWAP1 POP SWAP3 SWAP2 POP POP JUMP JUMPDEST PUSH1 0x0 PUSH2 0x1E1E DUP3 PUSH2 0x1EBB JUMP JUMPDEST SWAP2 POP PUSH2 0x1E29 DUP4 PUSH2 0x1EBB JUMP JUMPDEST SWAP3 POP DUP3 PUSH32 0xFFFFFFFFFFFFFFFFFFFFFFFFFFFFFFFFFFFFFFFFFFFFFFFFFFFFFFFFFFFFFFFF SUB DUP3 GT ISZERO PUSH2 0x1E5E JUMPI PUSH2 0x1E5D PUSH2 0x1FC5 JUMP JUMPDEST JUMPDEST DUP3 DUP3 ADD SWAP1 POP SWAP3 SWAP2 POP POP JUMP JUMPDEST PUSH1 0x0 PUSH2 0x1E74 DUP3 PUSH2 0x1E9B JUMP JUMPDEST SWAP1 POP SWAP2 SWAP1 POP JUMP JUMPDEST PUSH1 0x0 DUP2 ISZERO ISZERO SWAP1 POP SWAP2 SWAP1 POP JUMP JUMPDEST PUSH1 0x0 DUP2 SWAP1 POP SWAP2 SWAP1 POP JUMP JUMPDEST PUSH1 0x0 DUP2 SWAP1 POP SWAP2 SWAP1 POP JUMP JUMPDEST PUSH1 0x0 PUSH20 0xFFFFFFFFFFFFFFFFFFFFFFFFFFFFFFFFFFFFFFFF DUP3 AND SWAP1 POP SWAP2 SWAP1 POP JUMP JUMPDEST PUSH1 0x0 DUP2 SWAP1 POP SWAP2 SWAP1 POP JUMP JUMPDEST PUSH1 0x0 PUSH2 0x1ED0 DUP3 PUSH2 0x1EBB JUMP JUMPDEST SWAP1 POP SWAP2 SWAP1 POP JUMP JUMPDEST DUP3 DUP2 DUP4 CALLDATACOPY PUSH1 0x0 DUP4 DUP4 ADD MSTORE POP POP POP JUMP JUMPDEST PUSH1 0x0 JUMPDEST DUP4 DUP2 LT ISZERO PUSH2 0x1F04 JUMPI DUP1 DUP3 ADD MLOAD DUP2 DUP5 ADD MSTORE PUSH1 0x20 DUP2 ADD SWAP1 POP PUSH2 0x1EE9 JUMP JUMPDEST DUP4 DUP2 GT ISZERO PUSH2 0x1F13 JUMPI PUSH1 0x0 DUP5 DUP5 ADD MSTORE JUMPDEST POP POP POP POP JUMP JUMPDEST PUSH1 0x0 PUSH1 0x2 DUP3 DIV SWAP1 POP PUSH1 0x1 DUP3 AND DUP1 PUSH2 0x1F31 JUMPI PUSH1 0x7F DUP3 AND SWAP2 POP JUMPDEST PUSH1 0x20 DUP3 LT DUP2 EQ ISZERO PUSH2 0x1F45 JUMPI PUSH2 0x1F44 PUSH2 0x2023 JUMP JUMPDEST JUMPDEST POP SWAP2 SWAP1 POP JUMP JUMPDEST PUSH1 0x0 PUSH2 0x1F56 DUP3 PUSH2 0x1EBB JUMP JUMPDEST SWAP2 POP PUSH32 0xFFFFFFFFFFFFFFFFFFFFFFFFFFFFFFFFFFFFFFFFFFFFFFFFFFFFFFFFFFFFFFFF DUP3 EQ ISZERO PUSH2 0x1F89 JUMPI PUSH2 0x1F88 PUSH2 0x1FC5 JUMP JUMPDEST JUMPDEST PUSH1 0x1 DUP3 ADD SWAP1 POP SWAP2 SWAP1 POP JUMP JUMPDEST PUSH1 0x0 PUSH2 0x1F9F DUP3 PUSH2 0x1EBB JUMP JUMPDEST SWAP2 POP PUSH2 0x1FAA DUP4 PUSH2 0x1EBB JUMP JUMPDEST SWAP3 POP DUP3 PUSH2 0x1FBA JUMPI PUSH2 0x1FB9 PUSH2 0x1FF4 JUMP JUMPDEST JUMPDEST DUP3 DUP3 MOD SWAP1 POP SWAP3 SWAP2 POP POP JUMP JUMPDEST PUSH32 0x4E487B7100000000000000000000000000000000000000000000000000000000 PUSH1 0x0 MSTORE PUSH1 0x11 PUSH1 0x4 MSTORE PUSH1 0x24 PUSH1 0x0 REVERT JUMPDEST PUSH32 0x4E487B7100000000000000000000000000000000000000000000000000000000 PUSH1 0x0 MSTORE PUSH1 0x12 PUSH1 0x4 MSTORE PUSH1 0x24 PUSH1 0x0 REVERT JUMPDEST PUSH32 0x4E487B7100000000000000000000000000000000000000000000000000000000 PUSH1 0x0 MSTORE PUSH1 0x22 PUSH1 0x4 MSTORE PUSH1 0x24 PUSH1 0x0 REVERT JUMPDEST PUSH32 0x4E487B7100000000000000000000000000000000000000000000000000000000 PUSH1 0x0 MSTORE PUSH1 0x32 PUSH1 0x4 MSTORE PUSH1 0x24 PUSH1 0x0 REVERT JUMPDEST PUSH1 0x0 DUP1 REVERT JUMPDEST PUSH1 0x0 DUP1 REVERT JUMPDEST PUSH1 0x0 DUP1 REVERT JUMPDEST PUSH1 0x0 DUP1 REVERT JUMPDEST PUSH1 0x0 DUP1 REVERT JUMPDEST PUSH1 0x0 PUSH1 0x1F NOT PUSH1 0x1F DUP4 ADD AND SWAP1 POP SWAP2 SWAP1 POP JUMP JUMPDEST PUSH32 0x4D757374206861766520612076616C6964207265717565737449640000000000 PUSH1 0x0 DUP3 ADD MSTORE POP JUMP JUMPDEST PUSH32 0x74696D656F75742061667465722035206D696E00000000000000000000000000 PUSH1 0x0 DUP3 ADD MSTORE POP JUMP JUMPDEST PUSH32 0x53616665436173743A2076616C756520646F65736E27742066697420696E2031 PUSH1 0x0 DUP3 ADD MSTORE PUSH32 0x3238206269747300000000000000000000000000000000000000000000000000 PUSH1 0x20 DUP3 ADD MSTORE POP JUMP JUMPDEST PUSH32 0x6E6F7420666F756E6420726573706F6E73650000000000000000000000000000 PUSH1 0x0 DUP3 ADD MSTORE POP JUMP JUMPDEST POP JUMP JUMPDEST PUSH32 0x53616665436173743A2076616C756520646F65736E27742066697420696E2061 PUSH1 0x0 DUP3 ADD MSTORE PUSH32 0x6E20696E74323536000000000000000000000000000000000000000000000000 PUSH1 0x20 DUP3 ADD MSTORE POP JUMP JUMPDEST PUSH32 0x74696D656F757400000000000000000000000000000000000000000000000000 PUSH1 0x0 DUP3 ADD MSTORE POP JUMP JUMPDEST PUSH2 0x21F9 DUP2 PUSH2 0x1E69 JUMP JUMPDEST DUP2 EQ PUSH2 0x2204 JUMPI PUSH1 0x0 DUP1 REVERT JUMPDEST POP JUMP JUMPDEST PUSH2 0x2210 DUP2 PUSH2 0x1E87 JUMP JUMPDEST DUP2 EQ PUSH2 0x221B JUMPI PUSH1 0x0 DUP1 REVERT JUMPDEST POP JUMP JUMPDEST PUSH2 0x2227 DUP2 PUSH2 0x1EBB JUMP JUMPDEST DUP2 EQ PUSH2 0x2232 JUMPI PUSH1 0x0 DUP1 REVERT JUMPDEST POP JUMP INVALID LOG2 PUSH5 0x6970667358 0x22 SLT KECCAK256 SWAP2 0xE9 0xC9 0x24 0xCC 0x29 PUSH22 0x8C20155A69275061B7732CDEE41A825FD2FD2586378 DUP13 SHL SDIV PUSH5 0x736F6C6343 STOP ADDMOD MOD STOP CALLER "
		},
		"gasEstimates": {
			"creation": {
				"codeDepositCost": "1762200",
				"executionCost": "1855",
				"totalCost": "1764055"
			},
			"external": {
				"EXPIRY_TIME()": "374",
				"fulfillOracleRequest()": "infinite",
				"fulfillRequestByNode(bytes32,address,uint256,bytes,bytes)": "infinite",
				"getReq(bytes32)": "2852",
				"getSelectorResp(uint256)": "infinite",
				"init()": "48722",
				"respSelector(uint256)": "infinite",
				"sendRequest(bytes32,bytes)": "infinite"
			},
			"internal": {
				"commitResp(bytes32,address,struct FunctionsOracle.responseInfo memory[] memory)": "infinite",
				"computeRequestId(address,address,bytes32,uint256)": "infinite",
				"deleteReq(bytes32)": "infinite",
				"getReq(uint256)": "infinite",
				"selectResponse(struct FunctionsOracle.responseInfo memory[] memory)": "infinite"
			}
		},
		"methodIdentifiers": {
			"EXPIRY_TIME()": "4b602282",
			"fulfillOracleRequest()": "86f02842",
			"fulfillRequestByNode(bytes32,address,uint256,bytes,bytes)": "c51f0db5",
			"getReq(bytes32)": "f215f51d",
			"getSelectorResp(uint256)": "7fc101be",
			"init()": "e1c7392a",
			"respSelector(uint256)": "26e696cf",
			"sendRequest(bytes32,bytes)": "041dae33"
		}
	},
	"abi": [
		{
			"inputs": [],
			"name": "Empty",
			"type": "error"
		},
		{
			"inputs": [],
			"name": "EmptyBillingRegistry",
			"type": "error"
		},
		{
			"inputs": [],
			"name": "EmptyPublicKey",
			"type": "error"
		},
		{
			"inputs": [],
			"name": "EmptyRequestData",
			"type": "error"
		},
		{
			"inputs": [],
			"name": "InconsistentReportData",
			"type": "error"
		},
		{
			"inputs": [],
			"name": "OutOfBounds",
			"type": "error"
		},
		{
			"inputs": [],
			"name": "UnauthorizedPublicKeyChange",
			"type": "error"
		},
		{
			"anonymous": false,
			"inputs": [
				{
					"indexed": true,
					"internalType": "bytes32",
					"name": "requestId",
					"type": "bytes32"
				},
				{
					"indexed": false,
					"internalType": "address",
					"name": "requestingContract",
					"type": "address"
				},
				{
					"indexed": false,
					"internalType": "address",
					"name": "requestInitiator",
					"type": "address"
				},
				{
					"indexed": true,
					"internalType": "bytes32",
					"name": "functionId",
					"type": "bytes32"
				},
				{
					"indexed": false,
					"internalType": "address",
					"name": "subscriptionOwner",
					"type": "address"
				},
				{
					"indexed": false,
					"internalType": "bytes",
					"name": "data",
					"type": "bytes"
				}
			],
			"name": "OracleRequest",
			"type": "event"
		},
		{
			"anonymous": false,
			"inputs": [
				{
					"indexed": true,
					"internalType": "bytes32",
					"name": "requestId",
					"type": "bytes32"
				},
				{
					"indexed": false,
					"internalType": "uint256",
					"name": "birth",
					"type": "uint256"
				},
				{
					"indexed": false,
					"internalType": "uint256",
					"name": "blockTime",
					"type": "uint256"
				},
				{
					"indexed": false,
					"internalType": "string",
					"name": "reason",
					"type": "string"
				}
			],
			"name": "OracleRequestTimeout",
			"type": "event"
		},
		{
			"anonymous": false,
			"inputs": [
				{
					"indexed": true,
					"internalType": "bytes32",
					"name": "requestId",
					"type": "bytes32"
				}
			],
			"name": "OracleResponse",
			"type": "event"
		},
		{
			"inputs": [],
			"name": "EXPIRY_TIME",
			"outputs": [
				{
					"internalType": "uint256",
					"name": "",
					"type": "uint256"
				}
			],
			"stateMutability": "view",
			"type": "function"
		},
		{
			"inputs": [],
			"name": "fulfillOracleRequest",
			"outputs": [
				{
					"internalType": "bool",
					"name": "",
					"type": "bool"
				}
			],
			"stateMutability": "nonpayable",
			"type": "function"
		},
		{
			"inputs": [
				{
					"internalType": "bytes32",
					"name": "_requestId",
					"type": "bytes32"
				},
				{
					"internalType": "address",
					"name": "oracleAddress",
					"type": "address"
				},
				{
					"internalType": "uint256",
					"name": "score",
					"type": "uint256"
				},
				{
					"internalType": "bytes",
					"name": "resp",
					"type": "bytes"
				},
				{
					"internalType": "bytes",
					"name": "err",
					"type": "bytes"
				}
			],
			"name": "fulfillRequestByNode",
			"outputs": [
				{
					"internalType": "bool",
					"name": "",
					"type": "bool"
				}
			],
			"stateMutability": "nonpayable",
			"type": "function"
		},
		{
			"inputs": [
				{
					"internalType": "bytes32",
					"name": "requestId",
					"type": "bytes32"
				}
			],
			"name": "getReq",
			"outputs": [
				{
					"internalType": "uint256",
					"name": "",
					"type": "uint256"
				}
			],
			"stateMutability": "view",
			"type": "function"
		},
		{
			"inputs": [
				{
					"internalType": "uint256",
					"name": "i",
					"type": "uint256"
				}
			],
			"name": "getSelectorResp",
			"outputs": [
				{
					"internalType": "uint256",
					"name": "",
					"type": "uint256"
				}
			],
			"stateMutability": "view",
			"type": "function"
		},
		{
			"inputs": [],
			"name": "init",
			"outputs": [],
			"stateMutability": "nonpayable",
			"type": "function"
		},
		{
			"inputs": [
				{
					"internalType": "uint256",
					"name": "",
					"type": "uint256"
				}
			],
			"name": "respSelector",
			"outputs": [
				{
					"internalType": "uint256",
					"name": "",
					"type": "uint256"
				}
			],
			"stateMutability": "view",
			"type": "function"
		},
		{
			"inputs": [
				{
					"internalType": "bytes32",
					"name": "functionId",
					"type": "bytes32"
				},
				{
					"internalType": "bytes",
					"name": "data",
					"type": "bytes"
				}
			],
			"name": "sendRequest",
			"outputs": [
				{
					"internalType": "bytes32",
					"name": "",
					"type": "bytes32"
				}
			],
			"stateMutability": "nonpayable",
			"type": "function"
		}
	]
}